{
	"assignments/buyer.sol": {
		"vend": {
			"abi": [
				{
					"inputs": [],
					"stateMutability": "nonpayable",
					"type": "constructor"
				},
				{
					"inputs": [
						{
							"internalType": "uint256",
							"name": "",
							"type": "uint256"
						}
					],
					"name": "arr",
					"outputs": [
						{
							"internalType": "string",
							"name": "id",
							"type": "string"
						},
						{
							"internalType": "int256",
							"name": "phno",
							"type": "int256"
						},
						{
							"internalType": "string",
							"name": "Add",
							"type": "string"
						},
						{
							"internalType": "string",
							"name": "password",
							"type": "string"
						}
					],
					"stateMutability": "view",
					"type": "function"
				},
				{
					"inputs": [
						{
							"internalType": "string",
							"name": "id",
							"type": "string"
						}
					],
					"name": "get",
					"outputs": [
						{
							"internalType": "string",
							"name": "",
							"type": "string"
						}
					],
					"stateMutability": "view",
					"type": "function"
				},
				{
					"inputs": [
						{
							"components": [
								{
									"internalType": "string",
									"name": "id",
									"type": "string"
								},
								{
									"internalType": "int256",
									"name": "phno",
									"type": "int256"
								},
								{
									"internalType": "string",
									"name": "Add",
									"type": "string"
								},
								{
									"internalType": "string",
									"name": "password",
									"type": "string"
								}
							],
							"internalType": "struct vend.l1",
							"name": "x",
							"type": "tuple"
						}
					],
					"name": "register",
					"outputs": [],
					"stateMutability": "nonpayable",
					"type": "function"
				},
				{
					"inputs": [
						{
							"internalType": "string",
							"name": "id",
							"type": "string"
						},
						{
							"internalType": "string",
							"name": "p",
							"type": "string"
						}
					],
					"name": "verify",
					"outputs": [
						{
							"internalType": "bool",
							"name": "",
							"type": "bool"
						}
					],
					"stateMutability": "view",
					"type": "function"
				}
			],
			"devdoc": {
				"kind": "dev",
				"methods": {},
				"version": 1
			},
			"evm": {
				"assembly": "    /* \"assignments/buyer.sol\":32:1796  contract vend{... */\n  mstore(0x40, 0x80)\n    /* \"assignments/buyer.sol\":219:776  constructor() public{... */\n  callvalue\n  dup1\n  iszero\n  tag_1\n  jumpi\n  0x00\n  dup1\n  revert\ntag_1:\n  pop\n    /* \"assignments/buyer.sol\":250:273  s1.id=\"sai89@gmail.com\" */\n  mload(0x40)\n  dup1\n  0x40\n  add\n  0x40\n  mstore\n  dup1\n  0x0f\n  dup2\n  mstore\n  0x20\n  add\n  0x736169383940676d61696c2e636f6d0000000000000000000000000000000000\n  dup2\n  mstore\n  pop\n    /* \"assignments/buyer.sol\":250:252  s1 */\n  0x01\n    /* \"assignments/buyer.sol\":250:255  s1.id */\n  0x00\n  add\n    /* \"assignments/buyer.sol\":250:273  s1.id=\"sai89@gmail.com\" */\n  swap1\n  dup2\n  tag_4\n  swap2\n  swap1\n  tag_5\n  jump\t// in\ntag_4:\n  pop\n    /* \"assignments/buyer.sol\":284:307  s2.id=\"kiran@gmail.com\" */\n  mload(0x40)\n  dup1\n  0x40\n  add\n  0x40\n  mstore\n  dup1\n  0x0f\n  dup2\n  mstore\n  0x20\n  add\n  0x6b6972616e40676d61696c2e636f6d0000000000000000000000000000000000\n  dup2\n  mstore\n  pop\n    /* \"assignments/buyer.sol\":284:286  s2 */\n  0x05\n    /* \"assignments/buyer.sol\":284:289  s2.id */\n  0x00\n  add\n    /* \"assignments/buyer.sol\":284:307  s2.id=\"kiran@gmail.com\" */\n  swap1\n  dup2\n  tag_6\n  swap2\n  swap1\n  tag_5\n  jump\t// in\ntag_6:\n  pop\n    /* \"assignments/buyer.sol\":318:342  s3.id=\"deleep@gmail.com\" */\n  mload(0x40)\n  dup1\n  0x40\n  add\n  0x40\n  mstore\n  dup1\n  0x10\n  dup2\n  mstore\n  0x20\n  add\n  0x64656c65657040676d61696c2e636f6d00000000000000000000000000000000\n  dup2\n  mstore\n  pop\n    /* \"assignments/buyer.sol\":318:320  s3 */\n  0x09\n    /* \"assignments/buyer.sol\":318:323  s3.id */\n  0x00\n  add\n    /* \"assignments/buyer.sol\":318:342  s3.id=\"deleep@gmail.com\" */\n  swap1\n  dup2\n  tag_7\n  swap2\n  swap1\n  tag_5\n  jump\t// in\ntag_7:\n  pop\n    /* \"assignments/buyer.sol\":361:371  8977258936 */\n  0x02171619b8\n    /* \"assignments/buyer.sol\":353:355  s1 */\n  0x01\n    /* \"assignments/buyer.sol\":353:360  s1.phno */\n  dup1\n  add\n    /* \"assignments/buyer.sol\":353:371  s1.phno=8977258936 */\n  dup2\n  swap1\n  sstore\n  pop\n    /* \"assignments/buyer.sol\":382:433  s1.Add=\"0x34260FDeA8B8001C3974c94b6c82513D76b6543B\" */\n  mload(0x40)\n  dup1\n  0x60\n  add\n  0x40\n  mstore\n  dup1\n  0x2a\n  dup2\n  mstore\n  0x20\n  add\n  data_c3d2c89659d0e2010f5ce50d265e322542c77e4c6c8072378901573231054c65\n  0x2a\n  swap2\n  codecopy\n    /* \"assignments/buyer.sol\":382:384  s1 */\n  0x01\n    /* \"assignments/buyer.sol\":382:388  s1.Add */\n  0x02\n  add\n    /* \"assignments/buyer.sol\":382:433  s1.Add=\"0x34260FDeA8B8001C3974c94b6c82513D76b6543B\" */\n  swap1\n  dup2\n  tag_8\n  swap2\n  swap1\n  tag_5\n  jump\t// in\ntag_8:\n  pop\n    /* \"assignments/buyer.sol\":444:461  s1.password=\"123\" */\n  mload(0x40)\n  dup1\n  0x40\n  add\n  0x40\n  mstore\n  dup1\n  0x03\n  dup2\n  mstore\n  0x20\n  add\n  0x3132330000000000000000000000000000000000000000000000000000000000\n  dup2\n  mstore\n  pop\n    /* \"assignments/buyer.sol\":444:446  s1 */\n  0x01\n    /* \"assignments/buyer.sol\":444:455  s1.password */\n  0x03\n  add\n    /* \"assignments/buyer.sol\":444:461  s1.password=\"123\" */\n  swap1\n  dup2\n  tag_9\n  swap2\n  swap1\n  tag_5\n  jump\t// in\ntag_9:\n  pop\n    /* \"assignments/buyer.sol\":480:490  8688979532 */\n  0x0205e74e4c\n    /* \"assignments/buyer.sol\":472:474  s2 */\n  0x05\n    /* \"assignments/buyer.sol\":472:479  s2.phno */\n  0x01\n  add\n    /* \"assignments/buyer.sol\":472:490  s2.phno=8688979532 */\n  dup2\n  swap1\n  sstore\n  pop\n    /* \"assignments/buyer.sol\":501:552  s2.Add=\"0xeeC0484e2cAa1f57cd98E2A5a37358C8057e34e8\" */\n  mload(0x40)\n  dup1\n  0x60\n  add\n  0x40\n  mstore\n  dup1\n  0x2a\n  dup2\n  mstore\n  0x20\n  add\n  data_8a1ab9f389b75cb9cb48751ffe7f701869c46e7c44288722d54537575098505c\n  0x2a\n  swap2\n  codecopy\n    /* \"assignments/buyer.sol\":501:503  s2 */\n  0x05\n    /* \"assignments/buyer.sol\":501:507  s2.Add */\n  0x02\n  add\n    /* \"assignments/buyer.sol\":501:552  s2.Add=\"0xeeC0484e2cAa1f57cd98E2A5a37358C8057e34e8\" */\n  swap1\n  dup2\n  tag_10\n  swap2\n  swap1\n  tag_5\n  jump\t// in\ntag_10:\n  pop\n    /* \"assignments/buyer.sol\":563:580  s2.password=\"123\" */\n  mload(0x40)\n  dup1\n  0x40\n  add\n  0x40\n  mstore\n  dup1\n  0x03\n  dup2\n  mstore\n  0x20\n  add\n  0x3132330000000000000000000000000000000000000000000000000000000000\n  dup2\n  mstore\n  pop\n    /* \"assignments/buyer.sol\":563:565  s2 */\n  0x05\n    /* \"assignments/buyer.sol\":563:574  s2.password */\n  0x03\n  add\n    /* \"assignments/buyer.sol\":563:580  s2.password=\"123\" */\n  swap1\n  dup2\n  tag_11\n  swap2\n  swap1\n  tag_5\n  jump\t// in\ntag_11:\n  pop\n    /* \"assignments/buyer.sol\":599:609  6281426914 */\n  0x017666f7e2\n    /* \"assignments/buyer.sol\":591:593  s2 */\n  0x05\n    /* \"assignments/buyer.sol\":591:598  s2.phno */\n  0x01\n  add\n    /* \"assignments/buyer.sol\":591:609  s2.phno=6281426914 */\n  dup2\n  swap1\n  sstore\n  pop\n    /* \"assignments/buyer.sol\":620:671  s3.Add=\"0xcbde2A631A0248B92E4f631f12F5426f76dBa848\" */\n  mload(0x40)\n  dup1\n  0x60\n  add\n  0x40\n  mstore\n  dup1\n  0x2a\n  dup2\n  mstore\n  0x20\n  add\n  data_a58326e925478000700646cc75e12130115819472d366912b46f080a0271ca35\n  0x2a\n  swap2\n  codecopy\n    /* \"assignments/buyer.sol\":620:622  s3 */\n  0x09\n    /* \"assignments/buyer.sol\":620:626  s3.Add */\n  0x02\n  add\n    /* \"assignments/buyer.sol\":620:671  s3.Add=\"0xcbde2A631A0248B92E4f631f12F5426f76dBa848\" */\n  swap1\n  dup2\n  tag_12\n  swap2\n  swap1\n  tag_5\n  jump\t// in\ntag_12:\n  pop\n    /* \"assignments/buyer.sol\":682:699  s3.password=\"123\" */\n  mload(0x40)\n  dup1\n  0x40\n  add\n  0x40\n  mstore\n  dup1\n  0x03\n  dup2\n  mstore\n  0x20\n  add\n  0x3132330000000000000000000000000000000000000000000000000000000000\n  dup2\n  mstore\n  pop\n    /* \"assignments/buyer.sol\":682:684  s3 */\n  0x09\n    /* \"assignments/buyer.sol\":682:693  s3.password */\n  0x03\n  add\n    /* \"assignments/buyer.sol\":682:699  s3.password=\"123\" */\n  swap1\n  dup2\n  tag_13\n  swap2\n  swap1\n  tag_5\n  jump\t// in\ntag_13:\n  pop\n    /* \"assignments/buyer.sol\":710:713  arr */\n  0x00\n    /* \"assignments/buyer.sol\":719:721  s1 */\n  0x01\n    /* \"assignments/buyer.sol\":710:722  arr.push(s1) */\n  swap1\n  dup1\n  0x01\n  dup2\n  sload\n  add\n  dup1\n  dup3\n  sstore\n  dup1\n  swap2\n  pop\n  pop\n  0x01\n  swap1\n  sub\n  swap1\n  0x00\n  mstore\n  keccak256(0x00, 0x20)\n  swap1\n  0x04\n  mul\n  add\n  0x00\n  swap1\n  swap2\n  swap1\n  swap2\n  swap1\n  swap2\n  pop\n  0x00\n  dup3\n  add\n  dup2\n  0x00\n  add\n  swap1\n  dup2\n  tag_15\n  swap2\n  swap1\n  tag_16\n  jump\t// in\ntag_15:\n  pop\n  0x01\n  dup3\n  add\n  sload\n  dup2\n  0x01\n  add\n  sstore\n  0x02\n  dup3\n  add\n  dup2\n  0x02\n  add\n  swap1\n  dup2\n  tag_17\n  swap2\n  swap1\n  tag_16\n  jump\t// in\ntag_17:\n  pop\n  0x03\n  dup3\n  add\n  dup2\n  0x03\n  add\n  swap1\n  dup2\n  tag_18\n  swap2\n  swap1\n  tag_16\n  jump\t// in\ntag_18:\n  pop\n  pop\n  pop\n    /* \"assignments/buyer.sol\":733:736  arr */\n  0x00\n    /* \"assignments/buyer.sol\":742:744  s2 */\n  0x05\n    /* \"assignments/buyer.sol\":733:745  arr.push(s2) */\n  swap1\n  dup1\n  0x01\n  dup2\n  sload\n  add\n  dup1\n  dup3\n  sstore\n  dup1\n  swap2\n  pop\n  pop\n  0x01\n  swap1\n  sub\n  swap1\n  0x00\n  mstore\n  keccak256(0x00, 0x20)\n  swap1\n  0x04\n  mul\n  add\n  0x00\n  swap1\n  swap2\n  swap1\n  swap2\n  swap1\n  swap2\n  pop\n  0x00\n  dup3\n  add\n  dup2\n  0x00\n  add\n  swap1\n  dup2\n  tag_20\n  swap2\n  swap1\n  tag_16\n  jump\t// in\ntag_20:\n  pop\n  0x01\n  dup3\n  add\n  sload\n  dup2\n  0x01\n  add\n  sstore\n  0x02\n  dup3\n  add\n  dup2\n  0x02\n  add\n  swap1\n  dup2\n  tag_21\n  swap2\n  swap1\n  tag_16\n  jump\t// in\ntag_21:\n  pop\n  0x03\n  dup3\n  add\n  dup2\n  0x03\n  add\n  swap1\n  dup2\n  tag_22\n  swap2\n  swap1\n  tag_16\n  jump\t// in\ntag_22:\n  pop\n  pop\n  pop\n    /* \"assignments/buyer.sol\":756:759  arr */\n  0x00\n    /* \"assignments/buyer.sol\":765:767  s3 */\n  0x09\n    /* \"assignments/buyer.sol\":756:768  arr.push(s3) */\n  swap1\n  dup1\n  0x01\n  dup2\n  sload\n  add\n  dup1\n  dup3\n  sstore\n  dup1\n  swap2\n  pop\n  pop\n  0x01\n  swap1\n  sub\n  swap1\n  0x00\n  mstore\n  keccak256(0x00, 0x20)\n  swap1\n  0x04\n  mul\n  add\n  0x00\n  swap1\n  swap2\n  swap1\n  swap2\n  swap1\n  swap2\n  pop\n  0x00\n  dup3\n  add\n  dup2\n  0x00\n  add\n  swap1\n  dup2\n  tag_24\n  swap2\n  swap1\n  tag_16\n  jump\t// in\ntag_24:\n  pop\n  0x01\n  dup3\n  add\n  sload\n  dup2\n  0x01\n  add\n  sstore\n  0x02\n  dup3\n  add\n  dup2\n  0x02\n  add\n  swap1\n  dup2\n  tag_25\n  swap2\n  swap1\n  tag_16\n  jump\t// in\ntag_25:\n  pop\n  0x03\n  dup3\n  add\n  dup2\n  0x03\n  add\n  swap1\n  dup2\n  tag_26\n  swap2\n  swap1\n  tag_16\n  jump\t// in\ntag_26:\n  pop\n  pop\n  pop\n    /* \"assignments/buyer.sol\":32:1796  contract vend{... */\n  jump(tag_27)\n    /* \"#utility.yul\":7:106   */\ntag_28:\n    /* \"#utility.yul\":59:65   */\n  0x00\n    /* \"#utility.yul\":93:98   */\n  dup2\n    /* \"#utility.yul\":87:99   */\n  mload\n    /* \"#utility.yul\":77:99   */\n  swap1\n  pop\n    /* \"#utility.yul\":7:106   */\n  swap2\n  swap1\n  pop\n  jump\t// out\n    /* \"#utility.yul\":112:292   */\ntag_29:\n    /* \"#utility.yul\":160:237   */\n  0x4e487b7100000000000000000000000000000000000000000000000000000000\n    /* \"#utility.yul\":157:158   */\n  0x00\n    /* \"#utility.yul\":150:238   */\n  mstore\n    /* \"#utility.yul\":257:261   */\n  0x41\n    /* \"#utility.yul\":254:255   */\n  0x04\n    /* \"#utility.yul\":247:262   */\n  mstore\n    /* \"#utility.yul\":281:285   */\n  0x24\n    /* \"#utility.yul\":278:279   */\n  0x00\n    /* \"#utility.yul\":271:286   */\n  revert\n    /* \"#utility.yul\":298:478   */\ntag_30:\n    /* \"#utility.yul\":346:423   */\n  0x4e487b7100000000000000000000000000000000000000000000000000000000\n    /* \"#utility.yul\":343:344   */\n  0x00\n    /* \"#utility.yul\":336:424   */\n  mstore\n    /* \"#utility.yul\":443:447   */\n  0x22\n    /* \"#utility.yul\":440:441   */\n  0x04\n    /* \"#utility.yul\":433:448   */\n  mstore\n    /* \"#utility.yul\":467:471   */\n  0x24\n    /* \"#utility.yul\":464:465   */\n  0x00\n    /* \"#utility.yul\":457:472   */\n  revert\n    /* \"#utility.yul\":484:804   */\ntag_31:\n    /* \"#utility.yul\":528:534   */\n  0x00\n    /* \"#utility.yul\":565:566   */\n  0x02\n    /* \"#utility.yul\":559:563   */\n  dup3\n    /* \"#utility.yul\":555:567   */\n  div\n    /* \"#utility.yul\":545:567   */\n  swap1\n  pop\n    /* \"#utility.yul\":612:613   */\n  0x01\n    /* \"#utility.yul\":606:610   */\n  dup3\n    /* \"#utility.yul\":602:614   */\n  and\n    /* \"#utility.yul\":633:651   */\n  dup1\n    /* \"#utility.yul\":623:704   */\n  tag_54\n  jumpi\n    /* \"#utility.yul\":689:693   */\n  0x7f\n    /* \"#utility.yul\":681:687   */\n  dup3\n    /* \"#utility.yul\":677:694   */\n  and\n    /* \"#utility.yul\":667:694   */\n  swap2\n  pop\n    /* \"#utility.yul\":623:704   */\ntag_54:\n    /* \"#utility.yul\":751:753   */\n  0x20\n    /* \"#utility.yul\":743:749   */\n  dup3\n    /* \"#utility.yul\":740:754   */\n  lt\n    /* \"#utility.yul\":720:738   */\n  dup2\n    /* \"#utility.yul\":717:755   */\n  sub\n    /* \"#utility.yul\":714:798   */\n  tag_55\n  jumpi\n    /* \"#utility.yul\":770:788   */\n  tag_56\n  tag_30\n  jump\t// in\ntag_56:\n    /* \"#utility.yul\":714:798   */\ntag_55:\n    /* \"#utility.yul\":535:804   */\n  pop\n    /* \"#utility.yul\":484:804   */\n  swap2\n  swap1\n  pop\n  jump\t// out\n    /* \"#utility.yul\":810:951   */\ntag_32:\n    /* \"#utility.yul\":859:863   */\n  0x00\n    /* \"#utility.yul\":882:885   */\n  dup2\n    /* \"#utility.yul\":874:885   */\n  swap1\n  pop\n    /* \"#utility.yul\":905:908   */\n  dup2\n    /* \"#utility.yul\":902:903   */\n  0x00\n    /* \"#utility.yul\":895:909   */\n  mstore\n    /* \"#utility.yul\":939:943   */\n  0x20\n    /* \"#utility.yul\":936:937   */\n  0x00\n    /* \"#utility.yul\":926:944   */\n  keccak256\n    /* \"#utility.yul\":918:944   */\n  swap1\n  pop\n    /* \"#utility.yul\":810:951   */\n  swap2\n  swap1\n  pop\n  jump\t// out\n    /* \"#utility.yul\":957:1050   */\ntag_33:\n    /* \"#utility.yul\":994:1000   */\n  0x00\n    /* \"#utility.yul\":1041:1043   */\n  0x20\n    /* \"#utility.yul\":1036:1038   */\n  0x1f\n    /* \"#utility.yul\":1029:1034   */\n  dup4\n    /* \"#utility.yul\":1025:1039   */\n  add\n    /* \"#utility.yul\":1021:1044   */\n  div\n    /* \"#utility.yul\":1011:1044   */\n  swap1\n  pop\n    /* \"#utility.yul\":957:1050   */\n  swap2\n  swap1\n  pop\n  jump\t// out\n    /* \"#utility.yul\":1056:1163   */\ntag_34:\n    /* \"#utility.yul\":1100:1108   */\n  0x00\n    /* \"#utility.yul\":1150:1155   */\n  dup3\n    /* \"#utility.yul\":1144:1148   */\n  dup3\n    /* \"#utility.yul\":1140:1156   */\n  shl\n    /* \"#utility.yul\":1119:1156   */\n  swap1\n  pop\n    /* \"#utility.yul\":1056:1163   */\n  swap3\n  swap2\n  pop\n  pop\n  jump\t// out\n    /* \"#utility.yul\":1169:1562   */\ntag_35:\n    /* \"#utility.yul\":1238:1244   */\n  0x00\n    /* \"#utility.yul\":1288:1289   */\n  0x08\n    /* \"#utility.yul\":1276:1286   */\n  dup4\n    /* \"#utility.yul\":1272:1290   */\n  mul\n    /* \"#utility.yul\":1311:1408   */\n  tag_61\n    /* \"#utility.yul\":1341:1407   */\n  0xffffffffffffffffffffffffffffffffffffffffffffffffffffffffffffffff\n    /* \"#utility.yul\":1330:1339   */\n  dup3\n    /* \"#utility.yul\":1311:1408   */\n  tag_34\n  jump\t// in\ntag_61:\n    /* \"#utility.yul\":1429:1468   */\n  tag_62\n    /* \"#utility.yul\":1459:1467   */\n  dup7\n    /* \"#utility.yul\":1448:1457   */\n  dup4\n    /* \"#utility.yul\":1429:1468   */\n  tag_34\n  jump\t// in\ntag_62:\n    /* \"#utility.yul\":1417:1468   */\n  swap6\n  pop\n    /* \"#utility.yul\":1501:1505   */\n  dup1\n    /* \"#utility.yul\":1497:1506   */\n  not\n    /* \"#utility.yul\":1490:1495   */\n  dup5\n    /* \"#utility.yul\":1486:1507   */\n  and\n    /* \"#utility.yul\":1477:1507   */\n  swap4\n  pop\n    /* \"#utility.yul\":1550:1554   */\n  dup1\n    /* \"#utility.yul\":1540:1548   */\n  dup7\n    /* \"#utility.yul\":1536:1555   */\n  and\n    /* \"#utility.yul\":1529:1534   */\n  dup5\n    /* \"#utility.yul\":1526:1556   */\n  or\n    /* \"#utility.yul\":1516:1556   */\n  swap3\n  pop\n    /* \"#utility.yul\":1245:1562   */\n  pop\n  pop\n    /* \"#utility.yul\":1169:1562   */\n  swap4\n  swap3\n  pop\n  pop\n  pop\n  jump\t// out\n    /* \"#utility.yul\":1568:1645   */\ntag_36:\n    /* \"#utility.yul\":1605:1612   */\n  0x00\n    /* \"#utility.yul\":1634:1639   */\n  dup2\n    /* \"#utility.yul\":1623:1639   */\n  swap1\n  pop\n    /* \"#utility.yul\":1568:1645   */\n  swap2\n  swap1\n  pop\n  jump\t// out\n    /* \"#utility.yul\":1651:1711   */\ntag_37:\n    /* \"#utility.yul\":1679:1682   */\n  0x00\n    /* \"#utility.yul\":1700:1705   */\n  dup2\n    /* \"#utility.yul\":1693:1705   */\n  swap1\n  pop\n    /* \"#utility.yul\":1651:1711   */\n  swap2\n  swap1\n  pop\n  jump\t// out\n    /* \"#utility.yul\":1717:1859   */\ntag_38:\n    /* \"#utility.yul\":1767:1776   */\n  0x00\n    /* \"#utility.yul\":1800:1853   */\n  tag_66\n    /* \"#utility.yul\":1818:1852   */\n  tag_67\n    /* \"#utility.yul\":1827:1851   */\n  tag_68\n    /* \"#utility.yul\":1845:1850   */\n  dup5\n    /* \"#utility.yul\":1827:1851   */\n  tag_36\n  jump\t// in\ntag_68:\n    /* \"#utility.yul\":1818:1852   */\n  tag_37\n  jump\t// in\ntag_67:\n    /* \"#utility.yul\":1800:1853   */\n  tag_36\n  jump\t// in\ntag_66:\n    /* \"#utility.yul\":1787:1853   */\n  swap1\n  pop\n    /* \"#utility.yul\":1717:1859   */\n  swap2\n  swap1\n  pop\n  jump\t// out\n    /* \"#utility.yul\":1865:1940   */\ntag_39:\n    /* \"#utility.yul\":1908:1911   */\n  0x00\n    /* \"#utility.yul\":1929:1934   */\n  dup2\n    /* \"#utility.yul\":1922:1934   */\n  swap1\n  pop\n    /* \"#utility.yul\":1865:1940   */\n  swap2\n  swap1\n  pop\n  jump\t// out\n    /* \"#utility.yul\":1946:2215   */\ntag_40:\n    /* \"#utility.yul\":2056:2095   */\n  tag_71\n    /* \"#utility.yul\":2087:2094   */\n  dup4\n    /* \"#utility.yul\":2056:2095   */\n  tag_38\n  jump\t// in\ntag_71:\n    /* \"#utility.yul\":2117:2208   */\n  tag_72\n    /* \"#utility.yul\":2166:2207   */\n  tag_73\n    /* \"#utility.yul\":2190:2206   */\n  dup3\n    /* \"#utility.yul\":2166:2207   */\n  tag_39\n  jump\t// in\ntag_73:\n    /* \"#utility.yul\":2158:2164   */\n  dup5\n    /* \"#utility.yul\":2151:2155   */\n  dup5\n    /* \"#utility.yul\":2145:2156   */\n  sload\n    /* \"#utility.yul\":2117:2208   */\n  tag_35\n  jump\t// in\ntag_72:\n    /* \"#utility.yul\":2111:2115   */\n  dup3\n    /* \"#utility.yul\":2104:2209   */\n  sstore\n    /* \"#utility.yul\":2022:2215   */\n  pop\n    /* \"#utility.yul\":1946:2215   */\n  pop\n  pop\n  pop\n  jump\t// out\n    /* \"#utility.yul\":2221:2294   */\ntag_41:\n    /* \"#utility.yul\":2266:2269   */\n  0x00\n    /* \"#utility.yul\":2221:2294   */\n  swap1\n  jump\t// out\n    /* \"#utility.yul\":2300:2489   */\ntag_42:\n    /* \"#utility.yul\":2377:2409   */\n  tag_76\n  tag_41\n  jump\t// in\ntag_76:\n    /* \"#utility.yul\":2418:2483   */\n  tag_77\n    /* \"#utility.yul\":2476:2482   */\n  dup2\n    /* \"#utility.yul\":2468:2474   */\n  dup5\n    /* \"#utility.yul\":2462:2466   */\n  dup5\n    /* \"#utility.yul\":2418:2483   */\n  tag_40\n  jump\t// in\ntag_77:\n    /* \"#utility.yul\":2353:2489   */\n  pop\n    /* \"#utility.yul\":2300:2489   */\n  pop\n  pop\n  jump\t// out\n    /* \"#utility.yul\":2495:2681   */\ntag_43:\n    /* \"#utility.yul\":2555:2675   */\ntag_79:\n    /* \"#utility.yul\":2572:2575   */\n  dup2\n    /* \"#utility.yul\":2565:2570   */\n  dup2\n    /* \"#utility.yul\":2562:2576   */\n  lt\n    /* \"#utility.yul\":2555:2675   */\n  iszero\n  tag_81\n  jumpi\n    /* \"#utility.yul\":2626:2665   */\n  tag_82\n    /* \"#utility.yul\":2663:2664   */\n  0x00\n    /* \"#utility.yul\":2656:2661   */\n  dup3\n    /* \"#utility.yul\":2626:2665   */\n  tag_42\n  jump\t// in\ntag_82:\n    /* \"#utility.yul\":2599:2600   */\n  0x01\n    /* \"#utility.yul\":2592:2597   */\n  dup2\n    /* \"#utility.yul\":2588:2601   */\n  add\n    /* \"#utility.yul\":2579:2601   */\n  swap1\n  pop\n    /* \"#utility.yul\":2555:2675   */\n  jump(tag_79)\ntag_81:\n    /* \"#utility.yul\":2495:2681   */\n  pop\n  pop\n  jump\t// out\n    /* \"#utility.yul\":2687:3230   */\ntag_44:\n    /* \"#utility.yul\":2788:2790   */\n  0x1f\n    /* \"#utility.yul\":2783:2786   */\n  dup3\n    /* \"#utility.yul\":2780:2791   */\n  gt\n    /* \"#utility.yul\":2777:3223   */\n  iszero\n  tag_84\n  jumpi\n    /* \"#utility.yul\":2822:2860   */\n  tag_85\n    /* \"#utility.yul\":2854:2859   */\n  dup2\n    /* \"#utility.yul\":2822:2860   */\n  tag_32\n  jump\t// in\ntag_85:\n    /* \"#utility.yul\":2906:2935   */\n  tag_86\n    /* \"#utility.yul\":2924:2934   */\n  dup5\n    /* \"#utility.yul\":2906:2935   */\n  tag_33\n  jump\t// in\ntag_86:\n    /* \"#utility.yul\":2896:2904   */\n  dup2\n    /* \"#utility.yul\":2892:2936   */\n  add\n    /* \"#utility.yul\":3089:3091   */\n  0x20\n    /* \"#utility.yul\":3077:3087   */\n  dup6\n    /* \"#utility.yul\":3074:3092   */\n  lt\n    /* \"#utility.yul\":3071:3120   */\n  iszero\n  tag_87\n  jumpi\n    /* \"#utility.yul\":3110:3118   */\n  dup2\n    /* \"#utility.yul\":3095:3118   */\n  swap1\n  pop\n    /* \"#utility.yul\":3071:3120   */\ntag_87:\n    /* \"#utility.yul\":3133:3213   */\n  tag_88\n    /* \"#utility.yul\":3189:3211   */\n  tag_89\n    /* \"#utility.yul\":3207:3210   */\n  dup6\n    /* \"#utility.yul\":3189:3211   */\n  tag_33\n  jump\t// in\ntag_89:\n    /* \"#utility.yul\":3179:3187   */\n  dup4\n    /* \"#utility.yul\":3175:3212   */\n  add\n    /* \"#utility.yul\":3162:3173   */\n  dup3\n    /* \"#utility.yul\":3133:3213   */\n  tag_43\n  jump\t// in\ntag_88:\n    /* \"#utility.yul\":2792:3223   */\n  pop\n  pop\n    /* \"#utility.yul\":2777:3223   */\ntag_84:\n    /* \"#utility.yul\":2687:3230   */\n  pop\n  pop\n  pop\n  jump\t// out\n    /* \"#utility.yul\":3236:3353   */\ntag_45:\n    /* \"#utility.yul\":3290:3298   */\n  0x00\n    /* \"#utility.yul\":3340:3345   */\n  dup3\n    /* \"#utility.yul\":3334:3338   */\n  dup3\n    /* \"#utility.yul\":3330:3346   */\n  shr\n    /* \"#utility.yul\":3309:3346   */\n  swap1\n  pop\n    /* \"#utility.yul\":3236:3353   */\n  swap3\n  swap2\n  pop\n  pop\n  jump\t// out\n    /* \"#utility.yul\":3359:3528   */\ntag_46:\n    /* \"#utility.yul\":3403:3409   */\n  0x00\n    /* \"#utility.yul\":3436:3487   */\n  tag_92\n    /* \"#utility.yul\":3484:3485   */\n  0x00\n    /* \"#utility.yul\":3480:3486   */\n  not\n    /* \"#utility.yul\":3472:3477   */\n  dup5\n    /* \"#utility.yul\":3469:3470   */\n  0x08\n    /* \"#utility.yul\":3465:3478   */\n  mul\n    /* \"#utility.yul\":3436:3487   */\n  tag_45\n  jump\t// in\ntag_92:\n    /* \"#utility.yul\":3432:3488   */\n  not\n    /* \"#utility.yul\":3517:3521   */\n  dup1\n    /* \"#utility.yul\":3511:3515   */\n  dup4\n    /* \"#utility.yul\":3507:3522   */\n  and\n    /* \"#utility.yul\":3497:3522   */\n  swap2\n  pop\n    /* \"#utility.yul\":3410:3528   */\n  pop\n    /* \"#utility.yul\":3359:3528   */\n  swap3\n  swap2\n  pop\n  pop\n  jump\t// out\n    /* \"#utility.yul\":3533:3828   */\ntag_47:\n    /* \"#utility.yul\":3609:3613   */\n  0x00\n    /* \"#utility.yul\":3755:3784   */\n  tag_94\n    /* \"#utility.yul\":3780:3783   */\n  dup4\n    /* \"#utility.yul\":3774:3778   */\n  dup4\n    /* \"#utility.yul\":3755:3784   */\n  tag_46\n  jump\t// in\ntag_94:\n    /* \"#utility.yul\":3747:3784   */\n  swap2\n  pop\n    /* \"#utility.yul\":3817:3820   */\n  dup3\n    /* \"#utility.yul\":3814:3815   */\n  0x02\n    /* \"#utility.yul\":3810:3821   */\n  mul\n    /* \"#utility.yul\":3804:3808   */\n  dup3\n    /* \"#utility.yul\":3801:3822   */\n  or\n    /* \"#utility.yul\":3793:3822   */\n  swap1\n  pop\n    /* \"#utility.yul\":3533:3828   */\n  swap3\n  swap2\n  pop\n  pop\n  jump\t// out\n    /* \"#utility.yul\":3833:5228   */\ntag_5:\n    /* \"#utility.yul\":3950:3987   */\n  tag_96\n    /* \"#utility.yul\":3983:3986   */\n  dup3\n    /* \"#utility.yul\":3950:3987   */\n  tag_28\n  jump\t// in\ntag_96:\n    /* \"#utility.yul\":4052:4070   */\n  0xffffffffffffffff\n    /* \"#utility.yul\":4044:4050   */\n  dup2\n    /* \"#utility.yul\":4041:4071   */\n  gt\n    /* \"#utility.yul\":4038:4094   */\n  iszero\n  tag_97\n  jumpi\n    /* \"#utility.yul\":4074:4092   */\n  tag_98\n  tag_29\n  jump\t// in\ntag_98:\n    /* \"#utility.yul\":4038:4094   */\ntag_97:\n    /* \"#utility.yul\":4118:4156   */\n  tag_99\n    /* \"#utility.yul\":4150:4154   */\n  dup3\n    /* \"#utility.yul\":4144:4155   */\n  sload\n    /* \"#utility.yul\":4118:4156   */\n  tag_31\n  jump\t// in\ntag_99:\n    /* \"#utility.yul\":4203:4270   */\n  tag_100\n    /* \"#utility.yul\":4263:4269   */\n  dup3\n    /* \"#utility.yul\":4255:4261   */\n  dup3\n    /* \"#utility.yul\":4249:4253   */\n  dup6\n    /* \"#utility.yul\":4203:4270   */\n  tag_44\n  jump\t// in\ntag_100:\n    /* \"#utility.yul\":4297:4298   */\n  0x00\n    /* \"#utility.yul\":4321:4325   */\n  0x20\n    /* \"#utility.yul\":4308:4325   */\n  swap1\n  pop\n    /* \"#utility.yul\":4353:4355   */\n  0x1f\n    /* \"#utility.yul\":4345:4351   */\n  dup4\n    /* \"#utility.yul\":4342:4356   */\n  gt\n    /* \"#utility.yul\":4370:4371   */\n  0x01\n    /* \"#utility.yul\":4365:4983   */\n  dup2\n  eq\n  tag_102\n  jumpi\n    /* \"#utility.yul\":5027:5028   */\n  0x00\n    /* \"#utility.yul\":5044:5050   */\n  dup5\n    /* \"#utility.yul\":5041:5118   */\n  iszero\n  tag_103\n  jumpi\n    /* \"#utility.yul\":5093:5102   */\n  dup3\n    /* \"#utility.yul\":5088:5091   */\n  dup8\n    /* \"#utility.yul\":5084:5103   */\n  add\n    /* \"#utility.yul\":5078:5104   */\n  mload\n    /* \"#utility.yul\":5069:5104   */\n  swap1\n  pop\n    /* \"#utility.yul\":5041:5118   */\ntag_103:\n    /* \"#utility.yul\":5144:5211   */\n  tag_104\n    /* \"#utility.yul\":5204:5210   */\n  dup6\n    /* \"#utility.yul\":5197:5202   */\n  dup3\n    /* \"#utility.yul\":5144:5211   */\n  tag_47\n  jump\t// in\ntag_104:\n    /* \"#utility.yul\":5138:5142   */\n  dup7\n    /* \"#utility.yul\":5131:5212   */\n  sstore\n    /* \"#utility.yul\":5000:5222   */\n  pop\n    /* \"#utility.yul\":4335:5222   */\n  jump(tag_101)\n    /* \"#utility.yul\":4365:4983   */\ntag_102:\n    /* \"#utility.yul\":4417:4421   */\n  0x1f\n    /* \"#utility.yul\":4413:4422   */\n  not\n    /* \"#utility.yul\":4405:4411   */\n  dup5\n    /* \"#utility.yul\":4401:4423   */\n  and\n    /* \"#utility.yul\":4451:4488   */\n  tag_105\n    /* \"#utility.yul\":4483:4487   */\n  dup7\n    /* \"#utility.yul\":4451:4488   */\n  tag_32\n  jump\t// in\ntag_105:\n    /* \"#utility.yul\":4510:4511   */\n  0x00\n    /* \"#utility.yul\":4524:4732   */\ntag_106:\n    /* \"#utility.yul\":4538:4545   */\n  dup3\n    /* \"#utility.yul\":4535:4536   */\n  dup2\n    /* \"#utility.yul\":4532:4546   */\n  lt\n    /* \"#utility.yul\":4524:4732   */\n  iszero\n  tag_108\n  jumpi\n    /* \"#utility.yul\":4617:4626   */\n  dup5\n    /* \"#utility.yul\":4612:4615   */\n  dup10\n    /* \"#utility.yul\":4608:4627   */\n  add\n    /* \"#utility.yul\":4602:4628   */\n  mload\n    /* \"#utility.yul\":4594:4600   */\n  dup3\n    /* \"#utility.yul\":4587:4629   */\n  sstore\n    /* \"#utility.yul\":4668:4669   */\n  0x01\n    /* \"#utility.yul\":4660:4666   */\n  dup3\n    /* \"#utility.yul\":4656:4670   */\n  add\n    /* \"#utility.yul\":4646:4670   */\n  swap2\n  pop\n    /* \"#utility.yul\":4715:4717   */\n  0x20\n    /* \"#utility.yul\":4704:4713   */\n  dup6\n    /* \"#utility.yul\":4700:4718   */\n  add\n    /* \"#utility.yul\":4687:4718   */\n  swap5\n  pop\n    /* \"#utility.yul\":4561:4565   */\n  0x20\n    /* \"#utility.yul\":4558:4559   */\n  dup2\n    /* \"#utility.yul\":4554:4566   */\n  add\n    /* \"#utility.yul\":4549:4566   */\n  swap1\n  pop\n    /* \"#utility.yul\":4524:4732   */\n  jump(tag_106)\ntag_108:\n    /* \"#utility.yul\":4760:4766   */\n  dup7\n    /* \"#utility.yul\":4751:4758   */\n  dup4\n    /* \"#utility.yul\":4748:4767   */\n  lt\n    /* \"#utility.yul\":4745:4924   */\n  iszero\n  tag_109\n  jumpi\n    /* \"#utility.yul\":4818:4827   */\n  dup5\n    /* \"#utility.yul\":4813:4816   */\n  dup10\n    /* \"#utility.yul\":4809:4828   */\n  add\n    /* \"#utility.yul\":4803:4829   */\n  mload\n    /* \"#utility.yul\":4861:4909   */\n  tag_110\n    /* \"#utility.yul\":4903:4907   */\n  0x1f\n    /* \"#utility.yul\":4895:4901   */\n  dup10\n    /* \"#utility.yul\":4891:4908   */\n  and\n    /* \"#utility.yul\":4880:4889   */\n  dup3\n    /* \"#utility.yul\":4861:4909   */\n  tag_46\n  jump\t// in\ntag_110:\n    /* \"#utility.yul\":4853:4859   */\n  dup4\n    /* \"#utility.yul\":4846:4910   */\n  sstore\n    /* \"#utility.yul\":4768:4924   */\n  pop\n    /* \"#utility.yul\":4745:4924   */\ntag_109:\n    /* \"#utility.yul\":4970:4971   */\n  0x01\n    /* \"#utility.yul\":4966:4967   */\n  0x02\n    /* \"#utility.yul\":4958:4964   */\n  dup9\n    /* \"#utility.yul\":4954:4968   */\n  mul\n    /* \"#utility.yul\":4950:4972   */\n  add\n    /* \"#utility.yul\":4944:4948   */\n  dup9\n    /* \"#utility.yul\":4937:4973   */\n  sstore\n    /* \"#utility.yul\":4372:4983   */\n  pop\n  pop\n  pop\n    /* \"#utility.yul\":4335:5222   */\ntag_101:\n  pop\n    /* \"#utility.yul\":3925:5228   */\n  pop\n  pop\n  pop\n    /* \"#utility.yul\":3833:5228   */\n  pop\n  pop\n  jump\t// out\n    /* \"#utility.yul\":5234:5383   */\ntag_48:\n    /* \"#utility.yul\":5283:5289   */\n  0x00\n    /* \"#utility.yul\":5317:5322   */\n  dup2\n    /* \"#utility.yul\":5311:5323   */\n  sload\n    /* \"#utility.yul\":5301:5323   */\n  swap1\n  pop\n    /* \"#utility.yul\":5343:5376   */\n  tag_112\n    /* \"#utility.yul\":5369:5375   */\n  dup2\n    /* \"#utility.yul\":5343:5376   */\n  tag_31\n  jump\t// in\ntag_112:\n    /* \"#utility.yul\":5333:5376   */\n  swap1\n  pop\n    /* \"#utility.yul\":5234:5383   */\n  swap2\n  swap1\n  pop\n  jump\t// out\n    /* \"#utility.yul\":5389:6840   */\ntag_16:\n    /* \"#utility.yul\":5500:5503   */\n  dup2\n    /* \"#utility.yul\":5494:5498   */\n  dup2\n    /* \"#utility.yul\":5491:5504   */\n  sub\n    /* \"#utility.yul\":5488:5514   */\n  tag_114\n  jumpi\n    /* \"#utility.yul\":5507:5512   */\n  pop\n  pop\n  jump(tag_113)\n    /* \"#utility.yul\":5488:5514   */\ntag_114:\n    /* \"#utility.yul\":5538:5572   */\n  tag_115\n    /* \"#utility.yul\":5568:5571   */\n  dup3\n    /* \"#utility.yul\":5538:5572   */\n  tag_48\n  jump\t// in\ntag_115:\n    /* \"#utility.yul\":5637:5655   */\n  0xffffffffffffffff\n    /* \"#utility.yul\":5629:5635   */\n  dup2\n    /* \"#utility.yul\":5626:5656   */\n  gt\n    /* \"#utility.yul\":5623:5679   */\n  iszero\n  tag_116\n  jumpi\n    /* \"#utility.yul\":5659:5677   */\n  tag_117\n  tag_29\n  jump\t// in\ntag_117:\n    /* \"#utility.yul\":5623:5679   */\ntag_116:\n    /* \"#utility.yul\":5703:5741   */\n  tag_118\n    /* \"#utility.yul\":5735:5739   */\n  dup3\n    /* \"#utility.yul\":5729:5740   */\n  sload\n    /* \"#utility.yul\":5703:5741   */\n  tag_31\n  jump\t// in\ntag_118:\n    /* \"#utility.yul\":5788:5855   */\n  tag_119\n    /* \"#utility.yul\":5848:5854   */\n  dup3\n    /* \"#utility.yul\":5840:5846   */\n  dup3\n    /* \"#utility.yul\":5834:5838   */\n  dup6\n    /* \"#utility.yul\":5788:5855   */\n  tag_44\n  jump\t// in\ntag_119:\n    /* \"#utility.yul\":5882:5883   */\n  0x00\n    /* \"#utility.yul\":5911:5913   */\n  0x1f\n    /* \"#utility.yul\":5903:5909   */\n  dup4\n    /* \"#utility.yul\":5900:5914   */\n  gt\n    /* \"#utility.yul\":5928:5929   */\n  0x01\n    /* \"#utility.yul\":5923:6595   */\n  dup2\n  eq\n  tag_121\n  jumpi\n    /* \"#utility.yul\":6639:6640   */\n  0x00\n    /* \"#utility.yul\":6656:6662   */\n  dup5\n    /* \"#utility.yul\":6653:6730   */\n  iszero\n  tag_122\n  jumpi\n    /* \"#utility.yul\":6705:6714   */\n  dup3\n    /* \"#utility.yul\":6700:6703   */\n  dup8\n    /* \"#utility.yul\":6696:6715   */\n  add\n    /* \"#utility.yul\":6690:6716   */\n  sload\n    /* \"#utility.yul\":6681:6716   */\n  swap1\n  pop\n    /* \"#utility.yul\":6653:6730   */\ntag_122:\n    /* \"#utility.yul\":6756:6823   */\n  tag_123\n    /* \"#utility.yul\":6816:6822   */\n  dup6\n    /* \"#utility.yul\":6809:6814   */\n  dup3\n    /* \"#utility.yul\":6756:6823   */\n  tag_47\n  jump\t// in\ntag_123:\n    /* \"#utility.yul\":6750:6754   */\n  dup7\n    /* \"#utility.yul\":6743:6824   */\n  sstore\n    /* \"#utility.yul\":6612:6834   */\n  pop\n    /* \"#utility.yul\":5893:6834   */\n  jump(tag_120)\n    /* \"#utility.yul\":5923:6595   */\ntag_121:\n    /* \"#utility.yul\":5975:5979   */\n  0x1f\n    /* \"#utility.yul\":5971:5980   */\n  not\n    /* \"#utility.yul\":5963:5969   */\n  dup5\n    /* \"#utility.yul\":5959:5981   */\n  and\n    /* \"#utility.yul\":6001:6037   */\n  tag_124\n    /* \"#utility.yul\":6033:6036   */\n  dup8\n    /* \"#utility.yul\":6001:6037   */\n  tag_32\n  jump\t// in\ntag_124:\n    /* \"#utility.yul\":5994:6037   */\n  swap7\n  pop\n    /* \"#utility.yul\":6064:6101   */\n  tag_125\n    /* \"#utility.yul\":6096:6100   */\n  dup7\n    /* \"#utility.yul\":6064:6101   */\n  tag_32\n  jump\t// in\ntag_125:\n    /* \"#utility.yul\":6123:6124   */\n  0x00\n    /* \"#utility.yul\":6137:6344   */\ntag_126:\n    /* \"#utility.yul\":6151:6158   */\n  dup3\n    /* \"#utility.yul\":6148:6149   */\n  dup2\n    /* \"#utility.yul\":6145:6159   */\n  lt\n    /* \"#utility.yul\":6137:6344   */\n  iszero\n  tag_128\n  jumpi\n    /* \"#utility.yul\":6230:6239   */\n  dup5\n    /* \"#utility.yul\":6225:6228   */\n  dup10\n    /* \"#utility.yul\":6221:6240   */\n  add\n    /* \"#utility.yul\":6215:6241   */\n  sload\n    /* \"#utility.yul\":6207:6213   */\n  dup3\n    /* \"#utility.yul\":6200:6242   */\n  sstore\n    /* \"#utility.yul\":6281:6282   */\n  0x01\n    /* \"#utility.yul\":6273:6279   */\n  dup3\n    /* \"#utility.yul\":6269:6283   */\n  add\n    /* \"#utility.yul\":6259:6283   */\n  swap2\n  pop\n    /* \"#utility.yul\":6328:6329   */\n  0x01\n    /* \"#utility.yul\":6317:6326   */\n  dup6\n    /* \"#utility.yul\":6313:6330   */\n  add\n    /* \"#utility.yul\":6300:6330   */\n  swap5\n  pop\n    /* \"#utility.yul\":6174:6178   */\n  0x20\n    /* \"#utility.yul\":6171:6172   */\n  dup2\n    /* \"#utility.yul\":6167:6179   */\n  add\n    /* \"#utility.yul\":6162:6179   */\n  swap1\n  pop\n    /* \"#utility.yul\":6137:6344   */\n  jump(tag_126)\ntag_128:\n    /* \"#utility.yul\":6372:6378   */\n  dup7\n    /* \"#utility.yul\":6363:6370   */\n  dup4\n    /* \"#utility.yul\":6360:6379   */\n  lt\n    /* \"#utility.yul\":6357:6536   */\n  iszero\n  tag_129\n  jumpi\n    /* \"#utility.yul\":6430:6439   */\n  dup5\n    /* \"#utility.yul\":6425:6428   */\n  dup10\n    /* \"#utility.yul\":6421:6440   */\n  add\n    /* \"#utility.yul\":6415:6441   */\n  sload\n    /* \"#utility.yul\":6473:6521   */\n  tag_130\n    /* \"#utility.yul\":6515:6519   */\n  0x1f\n    /* \"#utility.yul\":6507:6513   */\n  dup10\n    /* \"#utility.yul\":6503:6520   */\n  and\n    /* \"#utility.yul\":6492:6501   */\n  dup3\n    /* \"#utility.yul\":6473:6521   */\n  tag_46\n  jump\t// in\ntag_130:\n    /* \"#utility.yul\":6465:6471   */\n  dup4\n    /* \"#utility.yul\":6458:6522   */\n  sstore\n    /* \"#utility.yul\":6380:6536   */\n  pop\n    /* \"#utility.yul\":6357:6536   */\ntag_129:\n    /* \"#utility.yul\":6582:6583   */\n  0x01\n    /* \"#utility.yul\":6578:6579   */\n  0x02\n    /* \"#utility.yul\":6570:6576   */\n  dup9\n    /* \"#utility.yul\":6566:6580   */\n  mul\n    /* \"#utility.yul\":6562:6584   */\n  add\n    /* \"#utility.yul\":6556:6560   */\n  dup9\n    /* \"#utility.yul\":6549:6585   */\n  sstore\n    /* \"#utility.yul\":5930:6595   */\n  pop\n  pop\n  pop\n    /* \"#utility.yul\":5893:6834   */\ntag_120:\n  pop\n    /* \"#utility.yul\":5478:6840   */\n  pop\n  pop\n  pop\n    /* \"#utility.yul\":5389:6840   */\n  pop\n  pop\ntag_113:\n  jump\t// out\n    /* \"assignments/buyer.sol\":32:1796  contract vend{... */\ntag_27:\n  dataSize(sub_0)\n  dup1\n  dataOffset(sub_0)\n  0x00\n  codecopy\n  0x00\n  return\nstop\ndata_8a1ab9f389b75cb9cb48751ffe7f701869c46e7c44288722d54537575098505c 307865654330343834653263416131663537636439384532413561333733353843383035376533346538\ndata_a58326e925478000700646cc75e12130115819472d366912b46f080a0271ca35 307863626465324136333141303234384239324534663633316631324635343236663736644261383438\ndata_c3d2c89659d0e2010f5ce50d265e322542c77e4c6c8072378901573231054c65 307833343236304644654138423830303143333937346339346236633832353133443736623635343342\n\nsub_0: assembly {\n        /* \"assignments/buyer.sol\":32:1796  contract vend{... */\n      mstore(0x40, 0x80)\n      callvalue\n      dup1\n      iszero\n      tag_1\n      jumpi\n      0x00\n      dup1\n      revert\n    tag_1:\n      pop\n      jumpi(tag_2, lt(calldatasize, 0x04))\n      shr(0xe0, calldataload(0x00))\n      dup1\n      0x693ec85e\n      eq\n      tag_3\n      jumpi\n      dup1\n      0x71e5ee5f\n      eq\n      tag_4\n      jumpi\n      dup1\n      0x84f0a9dc\n      eq\n      tag_5\n      jumpi\n      dup1\n      0x9deb17f5\n      eq\n      tag_6\n      jumpi\n    tag_2:\n      0x00\n      dup1\n      revert\n        /* \"assignments/buyer.sol\":1523:1793  function get(string memory id) public view returns(string memory){... */\n    tag_3:\n      tag_7\n      0x04\n      dup1\n      calldatasize\n      sub\n      dup2\n      add\n      swap1\n      tag_8\n      swap2\n      swap1\n      tag_9\n      jump\t// in\n    tag_8:\n      tag_10\n      jump\t// in\n    tag_7:\n      mload(0x40)\n      tag_11\n      swap2\n      swap1\n      tag_12\n      jump\t// in\n    tag_11:\n      mload(0x40)\n      dup1\n      swap2\n      sub\n      swap1\n      return\n        /* \"assignments/buyer.sol\":161:176  l1[] public arr */\n    tag_4:\n      tag_13\n      0x04\n      dup1\n      calldatasize\n      sub\n      dup2\n      add\n      swap1\n      tag_14\n      swap2\n      swap1\n      tag_15\n      jump\t// in\n    tag_14:\n      tag_16\n      jump\t// in\n    tag_13:\n      mload(0x40)\n      tag_17\n      swap5\n      swap4\n      swap3\n      swap2\n      swap1\n      tag_18\n      jump\t// in\n    tag_17:\n      mload(0x40)\n      dup1\n      swap2\n      sub\n      swap1\n      return\n        /* \"assignments/buyer.sol\":782:1087  function register(l1 memory x) public{... */\n    tag_5:\n      tag_19\n      0x04\n      dup1\n      calldatasize\n      sub\n      dup2\n      add\n      swap1\n      tag_20\n      swap2\n      swap1\n      tag_21\n      jump\t// in\n    tag_20:\n      tag_22\n      jump\t// in\n    tag_19:\n      stop\n        /* \"assignments/buyer.sol\":1093:1516  function verify(string memory id,string memory p) public view returns(bool){... */\n    tag_6:\n      tag_23\n      0x04\n      dup1\n      calldatasize\n      sub\n      dup2\n      add\n      swap1\n      tag_24\n      swap2\n      swap1\n      tag_25\n      jump\t// in\n    tag_24:\n      tag_26\n      jump\t// in\n    tag_23:\n      mload(0x40)\n      tag_27\n      swap2\n      swap1\n      tag_28\n      jump\t// in\n    tag_27:\n      mload(0x40)\n      dup1\n      swap2\n      sub\n      swap1\n      return\n        /* \"assignments/buyer.sol\":1523:1793  function get(string memory id) public view returns(string memory){... */\n    tag_10:\n        /* \"assignments/buyer.sol\":1574:1587  string memory */\n      0x60\n        /* \"assignments/buyer.sol\":1603:1609  uint i */\n      0x00\n        /* \"assignments/buyer.sol\":1599:1786  for(uint i=0;i<arr.length;i++){... */\n    tag_30:\n        /* \"assignments/buyer.sol\":1614:1617  arr */\n      0x00\n        /* \"assignments/buyer.sol\":1614:1624  arr.length */\n      dup1\n      sload\n      swap1\n      pop\n        /* \"assignments/buyer.sol\":1612:1613  i */\n      dup2\n        /* \"assignments/buyer.sol\":1612:1624  i<arr.length */\n      lt\n        /* \"assignments/buyer.sol\":1599:1786  for(uint i=0;i<arr.length;i++){... */\n      iszero\n      tag_31\n      jumpi\n        /* \"assignments/buyer.sol\":1717:1719  id */\n      dup3\n        /* \"assignments/buyer.sol\":1699:1721  abi.encodePacked((id)) */\n      add(0x20, mload(0x40))\n      tag_33\n      swap2\n      swap1\n      tag_34\n      jump\t// in\n    tag_33:\n      mload(0x40)\n      0x20\n      dup2\n      dup4\n      sub\n      sub\n      dup2\n      mstore\n      swap1\n      0x40\n      mstore\n        /* \"assignments/buyer.sol\":1689:1722  keccak256(abi.encodePacked((id))) */\n      dup1\n      mload\n      swap1\n      0x20\n      add\n      keccak256\n        /* \"assignments/buyer.sol\":1675:1678  arr */\n      0x00\n        /* \"assignments/buyer.sol\":1679:1680  i */\n      dup3\n        /* \"assignments/buyer.sol\":1675:1681  arr[i] */\n      dup2\n      sload\n      dup2\n      lt\n      tag_35\n      jumpi\n      tag_36\n      tag_37\n      jump\t// in\n    tag_36:\n    tag_35:\n      swap1\n      0x00\n      mstore\n      keccak256(0x00, 0x20)\n      swap1\n      0x04\n      mul\n      add\n        /* \"assignments/buyer.sol\":1675:1684  arr[i].id */\n      0x00\n      add\n        /* \"assignments/buyer.sol\":1657:1686  abi.encodePacked((arr[i].id)) */\n      add(0x20, mload(0x40))\n      tag_39\n      swap2\n      swap1\n      tag_40\n      jump\t// in\n    tag_39:\n      mload(0x40)\n      0x20\n      dup2\n      dup4\n      sub\n      sub\n      dup2\n      mstore\n      swap1\n      0x40\n      mstore\n        /* \"assignments/buyer.sol\":1647:1687  keccak256(abi.encodePacked((arr[i].id))) */\n      dup1\n      mload\n      swap1\n      0x20\n      add\n      keccak256\n        /* \"assignments/buyer.sol\":1647:1722  keccak256(abi.encodePacked((arr[i].id)))==keccak256(abi.encodePacked((id))) */\n      sub\n        /* \"assignments/buyer.sol\":1644:1775  if(keccak256(abi.encodePacked((arr[i].id)))==keccak256(abi.encodePacked((id)))){... */\n      tag_41\n      jumpi\n        /* \"assignments/buyer.sol\":1749:1752  arr */\n      0x00\n        /* \"assignments/buyer.sol\":1753:1754  i */\n      dup2\n        /* \"assignments/buyer.sol\":1749:1755  arr[i] */\n      dup2\n      sload\n      dup2\n      lt\n      tag_42\n      jumpi\n      tag_43\n      tag_37\n      jump\t// in\n    tag_43:\n    tag_42:\n      swap1\n      0x00\n      mstore\n      keccak256(0x00, 0x20)\n      swap1\n      0x04\n      mul\n      add\n        /* \"assignments/buyer.sol\":1749:1759  arr[i].Add */\n      0x02\n      add\n        /* \"assignments/buyer.sol\":1742:1759  return arr[i].Add */\n      dup1\n      sload\n      tag_45\n      swap1\n      tag_46\n      jump\t// in\n    tag_45:\n      dup1\n      0x1f\n      add\n      0x20\n      dup1\n      swap2\n      div\n      mul\n      0x20\n      add\n      mload(0x40)\n      swap1\n      dup2\n      add\n      0x40\n      mstore\n      dup1\n      swap3\n      swap2\n      swap1\n      dup2\n      dup2\n      mstore\n      0x20\n      add\n      dup3\n      dup1\n      sload\n      tag_47\n      swap1\n      tag_46\n      jump\t// in\n    tag_47:\n      dup1\n      iszero\n      tag_48\n      jumpi\n      dup1\n      0x1f\n      lt\n      tag_49\n      jumpi\n      0x0100\n      dup1\n      dup4\n      sload\n      div\n      mul\n      dup4\n      mstore\n      swap2\n      0x20\n      add\n      swap2\n      jump(tag_48)\n    tag_49:\n      dup3\n      add\n      swap2\n      swap1\n      0x00\n      mstore\n      keccak256(0x00, 0x20)\n      swap1\n    tag_50:\n      dup2\n      sload\n      dup2\n      mstore\n      swap1\n      0x01\n      add\n      swap1\n      0x20\n      add\n      dup1\n      dup4\n      gt\n      tag_50\n      jumpi\n      dup3\n      swap1\n      sub\n      0x1f\n      and\n      dup3\n      add\n      swap2\n    tag_48:\n      pop\n      pop\n      pop\n      pop\n      pop\n      swap2\n      pop\n      pop\n      jump(tag_29)\n        /* \"assignments/buyer.sol\":1644:1775  if(keccak256(abi.encodePacked((arr[i].id)))==keccak256(abi.encodePacked((id)))){... */\n    tag_41:\n        /* \"assignments/buyer.sol\":1625:1628  i++ */\n      dup1\n      dup1\n      tag_51\n      swap1\n      tag_52\n      jump\t// in\n    tag_51:\n      swap2\n      pop\n      pop\n        /* \"assignments/buyer.sol\":1599:1786  for(uint i=0;i<arr.length;i++){... */\n      jump(tag_30)\n    tag_31:\n      pop\n        /* \"assignments/buyer.sol\":1523:1793  function get(string memory id) public view returns(string memory){... */\n    tag_29:\n      swap2\n      swap1\n      pop\n      jump\t// out\n        /* \"assignments/buyer.sol\":161:176  l1[] public arr */\n    tag_16:\n      0x00\n      dup2\n      dup2\n      sload\n      dup2\n      lt\n      tag_53\n      jumpi\n      0x00\n      dup1\n      revert\n    tag_53:\n      swap1\n      0x00\n      mstore\n      keccak256(0x00, 0x20)\n      swap1\n      0x04\n      mul\n      add\n      0x00\n      swap2\n      pop\n      swap1\n      pop\n      dup1\n      0x00\n      add\n      dup1\n      sload\n      tag_55\n      swap1\n      tag_46\n      jump\t// in\n    tag_55:\n      dup1\n      0x1f\n      add\n      0x20\n      dup1\n      swap2\n      div\n      mul\n      0x20\n      add\n      mload(0x40)\n      swap1\n      dup2\n      add\n      0x40\n      mstore\n      dup1\n      swap3\n      swap2\n      swap1\n      dup2\n      dup2\n      mstore\n      0x20\n      add\n      dup3\n      dup1\n      sload\n      tag_56\n      swap1\n      tag_46\n      jump\t// in\n    tag_56:\n      dup1\n      iszero\n      tag_57\n      jumpi\n      dup1\n      0x1f\n      lt\n      tag_58\n      jumpi\n      0x0100\n      dup1\n      dup4\n      sload\n      div\n      mul\n      dup4\n      mstore\n      swap2\n      0x20\n      add\n      swap2\n      jump(tag_57)\n    tag_58:\n      dup3\n      add\n      swap2\n      swap1\n      0x00\n      mstore\n      keccak256(0x00, 0x20)\n      swap1\n    tag_59:\n      dup2\n      sload\n      dup2\n      mstore\n      swap1\n      0x01\n      add\n      swap1\n      0x20\n      add\n      dup1\n      dup4\n      gt\n      tag_59\n      jumpi\n      dup3\n      swap1\n      sub\n      0x1f\n      and\n      dup3\n      add\n      swap2\n    tag_57:\n      pop\n      pop\n      pop\n      pop\n      pop\n      swap1\n      dup1\n      0x01\n      add\n      sload\n      swap1\n      dup1\n      0x02\n      add\n      dup1\n      sload\n      tag_60\n      swap1\n      tag_46\n      jump\t// in\n    tag_60:\n      dup1\n      0x1f\n      add\n      0x20\n      dup1\n      swap2\n      div\n      mul\n      0x20\n      add\n      mload(0x40)\n      swap1\n      dup2\n      add\n      0x40\n      mstore\n      dup1\n      swap3\n      swap2\n      swap1\n      dup2\n      dup2\n      mstore\n      0x20\n      add\n      dup3\n      dup1\n      sload\n      tag_61\n      swap1\n      tag_46\n      jump\t// in\n    tag_61:\n      dup1\n      iszero\n      tag_62\n      jumpi\n      dup1\n      0x1f\n      lt\n      tag_63\n      jumpi\n      0x0100\n      dup1\n      dup4\n      sload\n      div\n      mul\n      dup4\n      mstore\n      swap2\n      0x20\n      add\n      swap2\n      jump(tag_62)\n    tag_63:\n      dup3\n      add\n      swap2\n      swap1\n      0x00\n      mstore\n      keccak256(0x00, 0x20)\n      swap1\n    tag_64:\n      dup2\n      sload\n      dup2\n      mstore\n      swap1\n      0x01\n      add\n      swap1\n      0x20\n      add\n      dup1\n      dup4\n      gt\n      tag_64\n      jumpi\n      dup3\n      swap1\n      sub\n      0x1f\n      and\n      dup3\n      add\n      swap2\n    tag_62:\n      pop\n      pop\n      pop\n      pop\n      pop\n      swap1\n      dup1\n      0x03\n      add\n      dup1\n      sload\n      tag_65\n      swap1\n      tag_46\n      jump\t// in\n    tag_65:\n      dup1\n      0x1f\n      add\n      0x20\n      dup1\n      swap2\n      div\n      mul\n      0x20\n      add\n      mload(0x40)\n      swap1\n      dup2\n      add\n      0x40\n      mstore\n      dup1\n      swap3\n      swap2\n      swap1\n      dup2\n      dup2\n      mstore\n      0x20\n      add\n      dup3\n      dup1\n      sload\n      tag_66\n      swap1\n      tag_46\n      jump\t// in\n    tag_66:\n      dup1\n      iszero\n      tag_67\n      jumpi\n      dup1\n      0x1f\n      lt\n      tag_68\n      jumpi\n      0x0100\n      dup1\n      dup4\n      sload\n      div\n      mul\n      dup4\n      mstore\n      swap2\n      0x20\n      add\n      swap2\n      jump(tag_67)\n    tag_68:\n      dup3\n      add\n      swap2\n      swap1\n      0x00\n      mstore\n      keccak256(0x00, 0x20)\n      swap1\n    tag_69:\n      dup2\n      sload\n      dup2\n      mstore\n      swap1\n      0x01\n      add\n      swap1\n      0x20\n      add\n      dup1\n      dup4\n      gt\n      tag_69\n      jumpi\n      dup3\n      swap1\n      sub\n      0x1f\n      and\n      dup3\n      add\n      swap2\n    tag_67:\n      pop\n      pop\n      pop\n      pop\n      pop\n      swap1\n      pop\n      dup5\n      jump\t// out\n        /* \"assignments/buyer.sol\":782:1087  function register(l1 memory x) public{... */\n    tag_22:\n        /* \"assignments/buyer.sol\":830:836  uint f */\n      0x00\n        /* \"assignments/buyer.sol\":853:859  uint i */\n      dup1\n        /* \"assignments/buyer.sol\":849:1024  for(uint i=0;i<arr.length;i++){... */\n    tag_71:\n        /* \"assignments/buyer.sol\":864:867  arr */\n      0x00\n        /* \"assignments/buyer.sol\":864:874  arr.length */\n      dup1\n      sload\n      swap1\n      pop\n        /* \"assignments/buyer.sol\":862:863  i */\n      dup2\n        /* \"assignments/buyer.sol\":862:874  i<arr.length */\n      lt\n        /* \"assignments/buyer.sol\":849:1024  for(uint i=0;i<arr.length;i++){... */\n      iszero\n      tag_72\n      jumpi\n        /* \"assignments/buyer.sol\":967:968  x */\n      dup3\n        /* \"assignments/buyer.sol\":967:971  x.id */\n      0x00\n      add\n      mload\n        /* \"assignments/buyer.sol\":949:973  abi.encodePacked((x.id)) */\n      add(0x20, mload(0x40))\n      tag_74\n      swap2\n      swap1\n      tag_34\n      jump\t// in\n    tag_74:\n      mload(0x40)\n      0x20\n      dup2\n      dup4\n      sub\n      sub\n      dup2\n      mstore\n      swap1\n      0x40\n      mstore\n        /* \"assignments/buyer.sol\":939:974  keccak256(abi.encodePacked((x.id))) */\n      dup1\n      mload\n      swap1\n      0x20\n      add\n      keccak256\n        /* \"assignments/buyer.sol\":925:928  arr */\n      0x00\n        /* \"assignments/buyer.sol\":929:930  i */\n      dup3\n        /* \"assignments/buyer.sol\":925:931  arr[i] */\n      dup2\n      sload\n      dup2\n      lt\n      tag_75\n      jumpi\n      tag_76\n      tag_37\n      jump\t// in\n    tag_76:\n    tag_75:\n      swap1\n      0x00\n      mstore\n      keccak256(0x00, 0x20)\n      swap1\n      0x04\n      mul\n      add\n        /* \"assignments/buyer.sol\":925:934  arr[i].id */\n      0x00\n      add\n        /* \"assignments/buyer.sol\":907:936  abi.encodePacked((arr[i].id)) */\n      add(0x20, mload(0x40))\n      tag_78\n      swap2\n      swap1\n      tag_40\n      jump\t// in\n    tag_78:\n      mload(0x40)\n      0x20\n      dup2\n      dup4\n      sub\n      sub\n      dup2\n      mstore\n      swap1\n      0x40\n      mstore\n        /* \"assignments/buyer.sol\":897:937  keccak256(abi.encodePacked((arr[i].id))) */\n      dup1\n      mload\n      swap1\n      0x20\n      add\n      keccak256\n        /* \"assignments/buyer.sol\":897:974  keccak256(abi.encodePacked((arr[i].id)))==keccak256(abi.encodePacked((x.id))) */\n      sub\n        /* \"assignments/buyer.sol\":894:1013  if(keccak256(abi.encodePacked((arr[i].id)))==keccak256(abi.encodePacked((x.id)))){... */\n      tag_79\n      jumpi\n        /* \"assignments/buyer.sol\":996:997  1 */\n      0x01\n        /* \"assignments/buyer.sol\":994:997  f=1 */\n      swap2\n      pop\n        /* \"assignments/buyer.sol\":894:1013  if(keccak256(abi.encodePacked((arr[i].id)))==keccak256(abi.encodePacked((x.id)))){... */\n    tag_79:\n        /* \"assignments/buyer.sol\":875:878  i++ */\n      dup1\n      dup1\n      tag_80\n      swap1\n      tag_52\n      jump\t// in\n    tag_80:\n      swap2\n      pop\n      pop\n        /* \"assignments/buyer.sol\":849:1024  for(uint i=0;i<arr.length;i++){... */\n      jump(tag_71)\n    tag_72:\n      pop\n        /* \"assignments/buyer.sol\":1040:1041  0 */\n      0x00\n        /* \"assignments/buyer.sol\":1037:1038  f */\n      dup2\n        /* \"assignments/buyer.sol\":1037:1041  f==0 */\n      sub\n        /* \"assignments/buyer.sol\":1034:1080  if(f==0){... */\n      tag_81\n      jumpi\n        /* \"assignments/buyer.sol\":1057:1060  arr */\n      0x00\n        /* \"assignments/buyer.sol\":1066:1067  x */\n      dup3\n        /* \"assignments/buyer.sol\":1057:1068  arr.push(x) */\n      swap1\n      dup1\n      0x01\n      dup2\n      sload\n      add\n      dup1\n      dup3\n      sstore\n      dup1\n      swap2\n      pop\n      pop\n      0x01\n      swap1\n      sub\n      swap1\n      0x00\n      mstore\n      keccak256(0x00, 0x20)\n      swap1\n      0x04\n      mul\n      add\n      0x00\n      swap1\n      swap2\n      swap1\n      swap2\n      swap1\n      swap2\n      pop\n      0x00\n      dup3\n      add\n      mload\n      dup2\n      0x00\n      add\n      swap1\n      dup2\n      tag_83\n      swap2\n      swap1\n      tag_84\n      jump\t// in\n    tag_83:\n      pop\n      0x20\n      dup3\n      add\n      mload\n      dup2\n      0x01\n      add\n      sstore\n      0x40\n      dup3\n      add\n      mload\n      dup2\n      0x02\n      add\n      swap1\n      dup2\n      tag_85\n      swap2\n      swap1\n      tag_84\n      jump\t// in\n    tag_85:\n      pop\n      0x60\n      dup3\n      add\n      mload\n      dup2\n      0x03\n      add\n      swap1\n      dup2\n      tag_86\n      swap2\n      swap1\n      tag_84\n      jump\t// in\n    tag_86:\n      pop\n      pop\n      pop\n        /* \"assignments/buyer.sol\":1034:1080  if(f==0){... */\n    tag_81:\n        /* \"assignments/buyer.sol\":819:1087  {... */\n      pop\n        /* \"assignments/buyer.sol\":782:1087  function register(l1 memory x) public{... */\n      pop\n      jump\t// out\n        /* \"assignments/buyer.sol\":1093:1516  function verify(string memory id,string memory p) public view returns(bool){... */\n    tag_26:\n        /* \"assignments/buyer.sol\":1163:1167  bool */\n      0x00\n        /* \"assignments/buyer.sol\":1183:1189  uint i */\n      dup1\n        /* \"assignments/buyer.sol\":1190:1191  0 */\n      0x00\n        /* \"assignments/buyer.sol\":1183:1191  uint i=0 */\n      swap1\n      pop\n        /* \"assignments/buyer.sol\":1194:1197  arr */\n      0x00\n        /* \"assignments/buyer.sol\":1194:1204  arr.length */\n      dup1\n      sload\n      swap1\n      pop\n        /* \"assignments/buyer.sol\":1192:1193  i */\n      dup2\n        /* \"assignments/buyer.sol\":1192:1204  i<arr.length */\n      lt\n        /* \"assignments/buyer.sol\":1179:1509  for(uint i=0;i<arr.length;i++){... */\n      iszero\n      tag_89\n      jumpi\n        /* \"assignments/buyer.sol\":1297:1299  id */\n      dup4\n        /* \"assignments/buyer.sol\":1279:1301  abi.encodePacked((id)) */\n      add(0x20, mload(0x40))\n      tag_91\n      swap2\n      swap1\n      tag_34\n      jump\t// in\n    tag_91:\n      mload(0x40)\n      0x20\n      dup2\n      dup4\n      sub\n      sub\n      dup2\n      mstore\n      swap1\n      0x40\n      mstore\n        /* \"assignments/buyer.sol\":1269:1302  keccak256(abi.encodePacked((id))) */\n      dup1\n      mload\n      swap1\n      0x20\n      add\n      keccak256\n        /* \"assignments/buyer.sol\":1255:1258  arr */\n      0x00\n        /* \"assignments/buyer.sol\":1259:1260  i */\n      dup3\n        /* \"assignments/buyer.sol\":1255:1261  arr[i] */\n      dup2\n      sload\n      dup2\n      lt\n      tag_92\n      jumpi\n      tag_93\n      tag_37\n      jump\t// in\n    tag_93:\n    tag_92:\n      swap1\n      0x00\n      mstore\n      keccak256(0x00, 0x20)\n      swap1\n      0x04\n      mul\n      add\n        /* \"assignments/buyer.sol\":1255:1264  arr[i].id */\n      0x00\n      add\n        /* \"assignments/buyer.sol\":1237:1266  abi.encodePacked((arr[i].id)) */\n      add(0x20, mload(0x40))\n      tag_95\n      swap2\n      swap1\n      tag_40\n      jump\t// in\n    tag_95:\n      mload(0x40)\n      0x20\n      dup2\n      dup4\n      sub\n      sub\n      dup2\n      mstore\n      swap1\n      0x40\n      mstore\n        /* \"assignments/buyer.sol\":1227:1267  keccak256(abi.encodePacked((arr[i].id))) */\n      dup1\n      mload\n      swap1\n      0x20\n      add\n      keccak256\n        /* \"assignments/buyer.sol\":1227:1302  keccak256(abi.encodePacked((arr[i].id)))==keccak256(abi.encodePacked((id))) */\n      eq\n        /* \"assignments/buyer.sol\":1227:1386  keccak256(abi.encodePacked((arr[i].id)))==keccak256(abi.encodePacked((id))) && keccak256(abi.encodePacked((arr[i].password)))==keccak256(abi.encodePacked((p))) */\n      dup1\n      iszero\n      tag_96\n      jumpi\n      pop\n        /* \"assignments/buyer.sol\":1382:1383  p */\n      dup3\n        /* \"assignments/buyer.sol\":1364:1385  abi.encodePacked((p)) */\n      add(0x20, mload(0x40))\n      tag_97\n      swap2\n      swap1\n      tag_34\n      jump\t// in\n    tag_97:\n      mload(0x40)\n      0x20\n      dup2\n      dup4\n      sub\n      sub\n      dup2\n      mstore\n      swap1\n      0x40\n      mstore\n        /* \"assignments/buyer.sol\":1354:1386  keccak256(abi.encodePacked((p))) */\n      dup1\n      mload\n      swap1\n      0x20\n      add\n      keccak256\n        /* \"assignments/buyer.sol\":1334:1337  arr */\n      0x00\n        /* \"assignments/buyer.sol\":1338:1339  i */\n      dup3\n        /* \"assignments/buyer.sol\":1334:1340  arr[i] */\n      dup2\n      sload\n      dup2\n      lt\n      tag_98\n      jumpi\n      tag_99\n      tag_37\n      jump\t// in\n    tag_99:\n    tag_98:\n      swap1\n      0x00\n      mstore\n      keccak256(0x00, 0x20)\n      swap1\n      0x04\n      mul\n      add\n        /* \"assignments/buyer.sol\":1334:1349  arr[i].password */\n      0x03\n      add\n        /* \"assignments/buyer.sol\":1316:1351  abi.encodePacked((arr[i].password)) */\n      add(0x20, mload(0x40))\n      tag_101\n      swap2\n      swap1\n      tag_40\n      jump\t// in\n    tag_101:\n      mload(0x40)\n      0x20\n      dup2\n      dup4\n      sub\n      sub\n      dup2\n      mstore\n      swap1\n      0x40\n      mstore\n        /* \"assignments/buyer.sol\":1306:1352  keccak256(abi.encodePacked((arr[i].password))) */\n      dup1\n      mload\n      swap1\n      0x20\n      add\n      keccak256\n        /* \"assignments/buyer.sol\":1306:1386  keccak256(abi.encodePacked((arr[i].password)))==keccak256(abi.encodePacked((p))) */\n      eq\n        /* \"assignments/buyer.sol\":1227:1386  keccak256(abi.encodePacked((arr[i].id)))==keccak256(abi.encodePacked((id))) && keccak256(abi.encodePacked((arr[i].password)))==keccak256(abi.encodePacked((p))) */\n    tag_96:\n        /* \"assignments/buyer.sol\":1224:1498  if(keccak256(abi.encodePacked((arr[i].id)))==keccak256(abi.encodePacked((id))) && keccak256(abi.encodePacked((arr[i].password)))==keccak256(abi.encodePacked((p)))){... */\n      iszero\n      tag_102\n      jumpi\n        /* \"assignments/buyer.sol\":1413:1417  true */\n      0x01\n        /* \"assignments/buyer.sol\":1406:1417  return true */\n      swap2\n      pop\n      pop\n      jump(tag_87)\n        /* \"assignments/buyer.sol\":1224:1498  if(keccak256(abi.encodePacked((arr[i].id)))==keccak256(abi.encodePacked((id))) && keccak256(abi.encodePacked((arr[i].password)))==keccak256(abi.encodePacked((p)))){... */\n    tag_102:\n        /* \"assignments/buyer.sol\":1477:1482  false */\n      0x00\n        /* \"assignments/buyer.sol\":1470:1482  return false */\n      swap2\n      pop\n      pop\n      jump(tag_87)\n        /* \"assignments/buyer.sol\":1179:1509  for(uint i=0;i<arr.length;i++){... */\n    tag_89:\n      pop\n        /* \"assignments/buyer.sol\":1093:1516  function verify(string memory id,string memory p) public view returns(bool){... */\n    tag_87:\n      swap3\n      swap2\n      pop\n      pop\n      jump\t// out\n        /* \"#utility.yul\":7:82   */\n    tag_105:\n        /* \"#utility.yul\":40:46   */\n      0x00\n        /* \"#utility.yul\":73:75   */\n      0x40\n        /* \"#utility.yul\":67:76   */\n      mload\n        /* \"#utility.yul\":57:76   */\n      swap1\n      pop\n        /* \"#utility.yul\":7:82   */\n      swap1\n      jump\t// out\n        /* \"#utility.yul\":88:205   */\n    tag_106:\n        /* \"#utility.yul\":197:198   */\n      0x00\n        /* \"#utility.yul\":194:195   */\n      dup1\n        /* \"#utility.yul\":187:199   */\n      revert\n        /* \"#utility.yul\":211:328   */\n    tag_107:\n        /* \"#utility.yul\":320:321   */\n      0x00\n        /* \"#utility.yul\":317:318   */\n      dup1\n        /* \"#utility.yul\":310:322   */\n      revert\n        /* \"#utility.yul\":334:451   */\n    tag_108:\n        /* \"#utility.yul\":443:444   */\n      0x00\n        /* \"#utility.yul\":440:441   */\n      dup1\n        /* \"#utility.yul\":433:445   */\n      revert\n        /* \"#utility.yul\":457:574   */\n    tag_109:\n        /* \"#utility.yul\":566:567   */\n      0x00\n        /* \"#utility.yul\":563:564   */\n      dup1\n        /* \"#utility.yul\":556:568   */\n      revert\n        /* \"#utility.yul\":580:682   */\n    tag_110:\n        /* \"#utility.yul\":621:627   */\n      0x00\n        /* \"#utility.yul\":672:674   */\n      0x1f\n        /* \"#utility.yul\":668:675   */\n      not\n        /* \"#utility.yul\":663:665   */\n      0x1f\n        /* \"#utility.yul\":656:661   */\n      dup4\n        /* \"#utility.yul\":652:666   */\n      add\n        /* \"#utility.yul\":648:676   */\n      and\n        /* \"#utility.yul\":638:676   */\n      swap1\n      pop\n        /* \"#utility.yul\":580:682   */\n      swap2\n      swap1\n      pop\n      jump\t// out\n        /* \"#utility.yul\":688:868   */\n    tag_111:\n        /* \"#utility.yul\":736:813   */\n      0x4e487b7100000000000000000000000000000000000000000000000000000000\n        /* \"#utility.yul\":733:734   */\n      0x00\n        /* \"#utility.yul\":726:814   */\n      mstore\n        /* \"#utility.yul\":833:837   */\n      0x41\n        /* \"#utility.yul\":830:831   */\n      0x04\n        /* \"#utility.yul\":823:838   */\n      mstore\n        /* \"#utility.yul\":857:861   */\n      0x24\n        /* \"#utility.yul\":854:855   */\n      0x00\n        /* \"#utility.yul\":847:862   */\n      revert\n        /* \"#utility.yul\":874:1155   */\n    tag_112:\n        /* \"#utility.yul\":957:984   */\n      tag_163\n        /* \"#utility.yul\":979:983   */\n      dup3\n        /* \"#utility.yul\":957:984   */\n      tag_110\n      jump\t// in\n    tag_163:\n        /* \"#utility.yul\":949:955   */\n      dup2\n        /* \"#utility.yul\":945:985   */\n      add\n        /* \"#utility.yul\":1087:1093   */\n      dup2\n        /* \"#utility.yul\":1075:1085   */\n      dup2\n        /* \"#utility.yul\":1072:1094   */\n      lt\n        /* \"#utility.yul\":1051:1069   */\n      0xffffffffffffffff\n        /* \"#utility.yul\":1039:1049   */\n      dup3\n        /* \"#utility.yul\":1036:1070   */\n      gt\n        /* \"#utility.yul\":1033:1095   */\n      or\n        /* \"#utility.yul\":1030:1118   */\n      iszero\n      tag_164\n      jumpi\n        /* \"#utility.yul\":1098:1116   */\n      tag_165\n      tag_111\n      jump\t// in\n    tag_165:\n        /* \"#utility.yul\":1030:1118   */\n    tag_164:\n        /* \"#utility.yul\":1138:1148   */\n      dup1\n        /* \"#utility.yul\":1134:1136   */\n      0x40\n        /* \"#utility.yul\":1127:1149   */\n      mstore\n        /* \"#utility.yul\":917:1155   */\n      pop\n        /* \"#utility.yul\":874:1155   */\n      pop\n      pop\n      jump\t// out\n        /* \"#utility.yul\":1161:1290   */\n    tag_113:\n        /* \"#utility.yul\":1195:1201   */\n      0x00\n        /* \"#utility.yul\":1222:1242   */\n      tag_167\n      tag_105\n      jump\t// in\n    tag_167:\n        /* \"#utility.yul\":1212:1242   */\n      swap1\n      pop\n        /* \"#utility.yul\":1251:1284   */\n      tag_168\n        /* \"#utility.yul\":1279:1283   */\n      dup3\n        /* \"#utility.yul\":1271:1277   */\n      dup3\n        /* \"#utility.yul\":1251:1284   */\n      tag_112\n      jump\t// in\n    tag_168:\n        /* \"#utility.yul\":1161:1290   */\n      swap2\n      swap1\n      pop\n      jump\t// out\n        /* \"#utility.yul\":1296:1604   */\n    tag_114:\n        /* \"#utility.yul\":1358:1362   */\n      0x00\n        /* \"#utility.yul\":1448:1466   */\n      0xffffffffffffffff\n        /* \"#utility.yul\":1440:1446   */\n      dup3\n        /* \"#utility.yul\":1437:1467   */\n      gt\n        /* \"#utility.yul\":1434:1490   */\n      iszero\n      tag_170\n      jumpi\n        /* \"#utility.yul\":1470:1488   */\n      tag_171\n      tag_111\n      jump\t// in\n    tag_171:\n        /* \"#utility.yul\":1434:1490   */\n    tag_170:\n        /* \"#utility.yul\":1508:1537   */\n      tag_172\n        /* \"#utility.yul\":1530:1536   */\n      dup3\n        /* \"#utility.yul\":1508:1537   */\n      tag_110\n      jump\t// in\n    tag_172:\n        /* \"#utility.yul\":1500:1537   */\n      swap1\n      pop\n        /* \"#utility.yul\":1592:1596   */\n      0x20\n        /* \"#utility.yul\":1586:1590   */\n      dup2\n        /* \"#utility.yul\":1582:1597   */\n      add\n        /* \"#utility.yul\":1574:1597   */\n      swap1\n      pop\n        /* \"#utility.yul\":1296:1604   */\n      swap2\n      swap1\n      pop\n      jump\t// out\n        /* \"#utility.yul\":1610:1756   */\n    tag_115:\n        /* \"#utility.yul\":1707:1713   */\n      dup3\n        /* \"#utility.yul\":1702:1705   */\n      dup2\n        /* \"#utility.yul\":1697:1700   */\n      dup4\n        /* \"#utility.yul\":1684:1714   */\n      calldatacopy\n        /* \"#utility.yul\":1748:1749   */\n      0x00\n        /* \"#utility.yul\":1739:1745   */\n      dup4\n        /* \"#utility.yul\":1734:1737   */\n      dup4\n        /* \"#utility.yul\":1730:1746   */\n      add\n        /* \"#utility.yul\":1723:1750   */\n      mstore\n        /* \"#utility.yul\":1610:1756   */\n      pop\n      pop\n      pop\n      jump\t// out\n        /* \"#utility.yul\":1762:2187   */\n    tag_116:\n        /* \"#utility.yul\":1840:1845   */\n      0x00\n        /* \"#utility.yul\":1865:1931   */\n      tag_175\n        /* \"#utility.yul\":1881:1930   */\n      tag_176\n        /* \"#utility.yul\":1923:1929   */\n      dup5\n        /* \"#utility.yul\":1881:1930   */\n      tag_114\n      jump\t// in\n    tag_176:\n        /* \"#utility.yul\":1865:1931   */\n      tag_113\n      jump\t// in\n    tag_175:\n        /* \"#utility.yul\":1856:1931   */\n      swap1\n      pop\n        /* \"#utility.yul\":1954:1960   */\n      dup3\n        /* \"#utility.yul\":1947:1952   */\n      dup2\n        /* \"#utility.yul\":1940:1961   */\n      mstore\n        /* \"#utility.yul\":1992:1996   */\n      0x20\n        /* \"#utility.yul\":1985:1990   */\n      dup2\n        /* \"#utility.yul\":1981:1997   */\n      add\n        /* \"#utility.yul\":2030:2033   */\n      dup5\n        /* \"#utility.yul\":2021:2027   */\n      dup5\n        /* \"#utility.yul\":2016:2019   */\n      dup5\n        /* \"#utility.yul\":2012:2028   */\n      add\n        /* \"#utility.yul\":2009:2034   */\n      gt\n        /* \"#utility.yul\":2006:2118   */\n      iszero\n      tag_177\n      jumpi\n        /* \"#utility.yul\":2037:2116   */\n      tag_178\n      tag_109\n      jump\t// in\n    tag_178:\n        /* \"#utility.yul\":2006:2118   */\n    tag_177:\n        /* \"#utility.yul\":2127:2181   */\n      tag_179\n        /* \"#utility.yul\":2174:2180   */\n      dup5\n        /* \"#utility.yul\":2169:2172   */\n      dup3\n        /* \"#utility.yul\":2164:2167   */\n      dup6\n        /* \"#utility.yul\":2127:2181   */\n      tag_115\n      jump\t// in\n    tag_179:\n        /* \"#utility.yul\":1846:2187   */\n      pop\n        /* \"#utility.yul\":1762:2187   */\n      swap4\n      swap3\n      pop\n      pop\n      pop\n      jump\t// out\n        /* \"#utility.yul\":2207:2547   */\n    tag_117:\n        /* \"#utility.yul\":2263:2268   */\n      0x00\n        /* \"#utility.yul\":2312:2315   */\n      dup3\n        /* \"#utility.yul\":2305:2309   */\n      0x1f\n        /* \"#utility.yul\":2297:2303   */\n      dup4\n        /* \"#utility.yul\":2293:2310   */\n      add\n        /* \"#utility.yul\":2289:2316   */\n      slt\n        /* \"#utility.yul\":2279:2401   */\n      tag_181\n      jumpi\n        /* \"#utility.yul\":2320:2399   */\n      tag_182\n      tag_108\n      jump\t// in\n    tag_182:\n        /* \"#utility.yul\":2279:2401   */\n    tag_181:\n        /* \"#utility.yul\":2437:2443   */\n      dup2\n        /* \"#utility.yul\":2424:2444   */\n      calldataload\n        /* \"#utility.yul\":2462:2541   */\n      tag_183\n        /* \"#utility.yul\":2537:2540   */\n      dup5\n        /* \"#utility.yul\":2529:2535   */\n      dup3\n        /* \"#utility.yul\":2522:2526   */\n      0x20\n        /* \"#utility.yul\":2514:2520   */\n      dup7\n        /* \"#utility.yul\":2510:2527   */\n      add\n        /* \"#utility.yul\":2462:2541   */\n      tag_116\n      jump\t// in\n    tag_183:\n        /* \"#utility.yul\":2453:2541   */\n      swap2\n      pop\n        /* \"#utility.yul\":2269:2547   */\n      pop\n        /* \"#utility.yul\":2207:2547   */\n      swap3\n      swap2\n      pop\n      pop\n      jump\t// out\n        /* \"#utility.yul\":2553:3062   */\n    tag_9:\n        /* \"#utility.yul\":2622:2628   */\n      0x00\n        /* \"#utility.yul\":2671:2673   */\n      0x20\n        /* \"#utility.yul\":2659:2668   */\n      dup3\n        /* \"#utility.yul\":2650:2657   */\n      dup5\n        /* \"#utility.yul\":2646:2669   */\n      sub\n        /* \"#utility.yul\":2642:2674   */\n      slt\n        /* \"#utility.yul\":2639:2758   */\n      iszero\n      tag_185\n      jumpi\n        /* \"#utility.yul\":2677:2756   */\n      tag_186\n      tag_106\n      jump\t// in\n    tag_186:\n        /* \"#utility.yul\":2639:2758   */\n    tag_185:\n        /* \"#utility.yul\":2825:2826   */\n      0x00\n        /* \"#utility.yul\":2814:2823   */\n      dup3\n        /* \"#utility.yul\":2810:2827   */\n      add\n        /* \"#utility.yul\":2797:2828   */\n      calldataload\n        /* \"#utility.yul\":2855:2873   */\n      0xffffffffffffffff\n        /* \"#utility.yul\":2847:2853   */\n      dup2\n        /* \"#utility.yul\":2844:2874   */\n      gt\n        /* \"#utility.yul\":2841:2958   */\n      iszero\n      tag_187\n      jumpi\n        /* \"#utility.yul\":2877:2956   */\n      tag_188\n      tag_107\n      jump\t// in\n    tag_188:\n        /* \"#utility.yul\":2841:2958   */\n    tag_187:\n        /* \"#utility.yul\":2982:3045   */\n      tag_189\n        /* \"#utility.yul\":3037:3044   */\n      dup5\n        /* \"#utility.yul\":3028:3034   */\n      dup3\n        /* \"#utility.yul\":3017:3026   */\n      dup6\n        /* \"#utility.yul\":3013:3035   */\n      add\n        /* \"#utility.yul\":2982:3045   */\n      tag_117\n      jump\t// in\n    tag_189:\n        /* \"#utility.yul\":2972:3045   */\n      swap2\n      pop\n        /* \"#utility.yul\":2768:3055   */\n      pop\n        /* \"#utility.yul\":2553:3062   */\n      swap3\n      swap2\n      pop\n      pop\n      jump\t// out\n        /* \"#utility.yul\":3068:3167   */\n    tag_118:\n        /* \"#utility.yul\":3120:3126   */\n      0x00\n        /* \"#utility.yul\":3154:3159   */\n      dup2\n        /* \"#utility.yul\":3148:3160   */\n      mload\n        /* \"#utility.yul\":3138:3160   */\n      swap1\n      pop\n        /* \"#utility.yul\":3068:3167   */\n      swap2\n      swap1\n      pop\n      jump\t// out\n        /* \"#utility.yul\":3173:3342   */\n    tag_119:\n        /* \"#utility.yul\":3257:3268   */\n      0x00\n        /* \"#utility.yul\":3291:3297   */\n      dup3\n        /* \"#utility.yul\":3286:3289   */\n      dup3\n        /* \"#utility.yul\":3279:3298   */\n      mstore\n        /* \"#utility.yul\":3331:3335   */\n      0x20\n        /* \"#utility.yul\":3326:3329   */\n      dup3\n        /* \"#utility.yul\":3322:3336   */\n      add\n        /* \"#utility.yul\":3307:3336   */\n      swap1\n      pop\n        /* \"#utility.yul\":3173:3342   */\n      swap3\n      swap2\n      pop\n      pop\n      jump\t// out\n        /* \"#utility.yul\":3348:3594   */\n    tag_120:\n        /* \"#utility.yul\":3429:3430   */\n      0x00\n        /* \"#utility.yul\":3439:3552   */\n    tag_193:\n        /* \"#utility.yul\":3453:3459   */\n      dup4\n        /* \"#utility.yul\":3450:3451   */\n      dup2\n        /* \"#utility.yul\":3447:3460   */\n      lt\n        /* \"#utility.yul\":3439:3552   */\n      iszero\n      tag_195\n      jumpi\n        /* \"#utility.yul\":3538:3539   */\n      dup1\n        /* \"#utility.yul\":3533:3536   */\n      dup3\n        /* \"#utility.yul\":3529:3540   */\n      add\n        /* \"#utility.yul\":3523:3541   */\n      mload\n        /* \"#utility.yul\":3519:3520   */\n      dup2\n        /* \"#utility.yul\":3514:3517   */\n      dup5\n        /* \"#utility.yul\":3510:3521   */\n      add\n        /* \"#utility.yul\":3503:3542   */\n      mstore\n        /* \"#utility.yul\":3475:3477   */\n      0x20\n        /* \"#utility.yul\":3472:3473   */\n      dup2\n        /* \"#utility.yul\":3468:3478   */\n      add\n        /* \"#utility.yul\":3463:3478   */\n      swap1\n      pop\n        /* \"#utility.yul\":3439:3552   */\n      jump(tag_193)\n    tag_195:\n        /* \"#utility.yul\":3586:3587   */\n      0x00\n        /* \"#utility.yul\":3577:3583   */\n      dup5\n        /* \"#utility.yul\":3572:3575   */\n      dup5\n        /* \"#utility.yul\":3568:3584   */\n      add\n        /* \"#utility.yul\":3561:3588   */\n      mstore\n        /* \"#utility.yul\":3410:3594   */\n      pop\n        /* \"#utility.yul\":3348:3594   */\n      pop\n      pop\n      pop\n      jump\t// out\n        /* \"#utility.yul\":3600:3977   */\n    tag_121:\n        /* \"#utility.yul\":3688:3691   */\n      0x00\n        /* \"#utility.yul\":3716:3755   */\n      tag_197\n        /* \"#utility.yul\":3749:3754   */\n      dup3\n        /* \"#utility.yul\":3716:3755   */\n      tag_118\n      jump\t// in\n    tag_197:\n        /* \"#utility.yul\":3771:3842   */\n      tag_198\n        /* \"#utility.yul\":3835:3841   */\n      dup2\n        /* \"#utility.yul\":3830:3833   */\n      dup6\n        /* \"#utility.yul\":3771:3842   */\n      tag_119\n      jump\t// in\n    tag_198:\n        /* \"#utility.yul\":3764:3842   */\n      swap4\n      pop\n        /* \"#utility.yul\":3851:3916   */\n      tag_199\n        /* \"#utility.yul\":3909:3915   */\n      dup2\n        /* \"#utility.yul\":3904:3907   */\n      dup6\n        /* \"#utility.yul\":3897:3901   */\n      0x20\n        /* \"#utility.yul\":3890:3895   */\n      dup7\n        /* \"#utility.yul\":3886:3902   */\n      add\n        /* \"#utility.yul\":3851:3916   */\n      tag_120\n      jump\t// in\n    tag_199:\n        /* \"#utility.yul\":3941:3970   */\n      tag_200\n        /* \"#utility.yul\":3963:3969   */\n      dup2\n        /* \"#utility.yul\":3941:3970   */\n      tag_110\n      jump\t// in\n    tag_200:\n        /* \"#utility.yul\":3936:3939   */\n      dup5\n        /* \"#utility.yul\":3932:3971   */\n      add\n        /* \"#utility.yul\":3925:3971   */\n      swap2\n      pop\n        /* \"#utility.yul\":3692:3977   */\n      pop\n        /* \"#utility.yul\":3600:3977   */\n      swap3\n      swap2\n      pop\n      pop\n      jump\t// out\n        /* \"#utility.yul\":3983:4296   */\n    tag_12:\n        /* \"#utility.yul\":4096:4100   */\n      0x00\n        /* \"#utility.yul\":4134:4136   */\n      0x20\n        /* \"#utility.yul\":4123:4132   */\n      dup3\n        /* \"#utility.yul\":4119:4137   */\n      add\n        /* \"#utility.yul\":4111:4137   */\n      swap1\n      pop\n        /* \"#utility.yul\":4183:4192   */\n      dup2\n        /* \"#utility.yul\":4177:4181   */\n      dup2\n        /* \"#utility.yul\":4173:4193   */\n      sub\n        /* \"#utility.yul\":4169:4170   */\n      0x00\n        /* \"#utility.yul\":4158:4167   */\n      dup4\n        /* \"#utility.yul\":4154:4171   */\n      add\n        /* \"#utility.yul\":4147:4194   */\n      mstore\n        /* \"#utility.yul\":4211:4289   */\n      tag_202\n        /* \"#utility.yul\":4284:4288   */\n      dup2\n        /* \"#utility.yul\":4275:4281   */\n      dup5\n        /* \"#utility.yul\":4211:4289   */\n      tag_121\n      jump\t// in\n    tag_202:\n        /* \"#utility.yul\":4203:4289   */\n      swap1\n      pop\n        /* \"#utility.yul\":3983:4296   */\n      swap3\n      swap2\n      pop\n      pop\n      jump\t// out\n        /* \"#utility.yul\":4302:4379   */\n    tag_122:\n        /* \"#utility.yul\":4339:4346   */\n      0x00\n        /* \"#utility.yul\":4368:4373   */\n      dup2\n        /* \"#utility.yul\":4357:4373   */\n      swap1\n      pop\n        /* \"#utility.yul\":4302:4379   */\n      swap2\n      swap1\n      pop\n      jump\t// out\n        /* \"#utility.yul\":4385:4507   */\n    tag_123:\n        /* \"#utility.yul\":4458:4482   */\n      tag_205\n        /* \"#utility.yul\":4476:4481   */\n      dup2\n        /* \"#utility.yul\":4458:4482   */\n      tag_122\n      jump\t// in\n    tag_205:\n        /* \"#utility.yul\":4451:4456   */\n      dup2\n        /* \"#utility.yul\":4448:4483   */\n      eq\n        /* \"#utility.yul\":4438:4501   */\n      tag_206\n      jumpi\n        /* \"#utility.yul\":4497:4498   */\n      0x00\n        /* \"#utility.yul\":4494:4495   */\n      dup1\n        /* \"#utility.yul\":4487:4499   */\n      revert\n        /* \"#utility.yul\":4438:4501   */\n    tag_206:\n        /* \"#utility.yul\":4385:4507   */\n      pop\n      jump\t// out\n        /* \"#utility.yul\":4513:4652   */\n    tag_124:\n        /* \"#utility.yul\":4559:4564   */\n      0x00\n        /* \"#utility.yul\":4597:4603   */\n      dup2\n        /* \"#utility.yul\":4584:4604   */\n      calldataload\n        /* \"#utility.yul\":4575:4604   */\n      swap1\n      pop\n        /* \"#utility.yul\":4613:4646   */\n      tag_208\n        /* \"#utility.yul\":4640:4645   */\n      dup2\n        /* \"#utility.yul\":4613:4646   */\n      tag_123\n      jump\t// in\n    tag_208:\n        /* \"#utility.yul\":4513:4652   */\n      swap3\n      swap2\n      pop\n      pop\n      jump\t// out\n        /* \"#utility.yul\":4658:4987   */\n    tag_15:\n        /* \"#utility.yul\":4717:4723   */\n      0x00\n        /* \"#utility.yul\":4766:4768   */\n      0x20\n        /* \"#utility.yul\":4754:4763   */\n      dup3\n        /* \"#utility.yul\":4745:4752   */\n      dup5\n        /* \"#utility.yul\":4741:4764   */\n      sub\n        /* \"#utility.yul\":4737:4769   */\n      slt\n        /* \"#utility.yul\":4734:4853   */\n      iszero\n      tag_210\n      jumpi\n        /* \"#utility.yul\":4772:4851   */\n      tag_211\n      tag_106\n      jump\t// in\n    tag_211:\n        /* \"#utility.yul\":4734:4853   */\n    tag_210:\n        /* \"#utility.yul\":4892:4893   */\n      0x00\n        /* \"#utility.yul\":4917:4970   */\n      tag_212\n        /* \"#utility.yul\":4962:4969   */\n      dup5\n        /* \"#utility.yul\":4953:4959   */\n      dup3\n        /* \"#utility.yul\":4942:4951   */\n      dup6\n        /* \"#utility.yul\":4938:4960   */\n      add\n        /* \"#utility.yul\":4917:4970   */\n      tag_124\n      jump\t// in\n    tag_212:\n        /* \"#utility.yul\":4907:4970   */\n      swap2\n      pop\n        /* \"#utility.yul\":4863:4980   */\n      pop\n        /* \"#utility.yul\":4658:4987   */\n      swap3\n      swap2\n      pop\n      pop\n      jump\t// out\n        /* \"#utility.yul\":4993:5069   */\n    tag_125:\n        /* \"#utility.yul\":5029:5036   */\n      0x00\n        /* \"#utility.yul\":5058:5063   */\n      dup2\n        /* \"#utility.yul\":5047:5063   */\n      swap1\n      pop\n        /* \"#utility.yul\":4993:5069   */\n      swap2\n      swap1\n      pop\n      jump\t// out\n        /* \"#utility.yul\":5075:5190   */\n    tag_126:\n        /* \"#utility.yul\":5160:5183   */\n      tag_215\n        /* \"#utility.yul\":5177:5182   */\n      dup2\n        /* \"#utility.yul\":5160:5183   */\n      tag_125\n      jump\t// in\n    tag_215:\n        /* \"#utility.yul\":5155:5158   */\n      dup3\n        /* \"#utility.yul\":5148:5184   */\n      mstore\n        /* \"#utility.yul\":5075:5190   */\n      pop\n      pop\n      jump\t// out\n        /* \"#utility.yul\":5196:6018   */\n    tag_18:\n        /* \"#utility.yul\":5431:5435   */\n      0x00\n        /* \"#utility.yul\":5469:5472   */\n      0x80\n        /* \"#utility.yul\":5458:5467   */\n      dup3\n        /* \"#utility.yul\":5454:5473   */\n      add\n        /* \"#utility.yul\":5446:5473   */\n      swap1\n      pop\n        /* \"#utility.yul\":5519:5528   */\n      dup2\n        /* \"#utility.yul\":5513:5517   */\n      dup2\n        /* \"#utility.yul\":5509:5529   */\n      sub\n        /* \"#utility.yul\":5505:5506   */\n      0x00\n        /* \"#utility.yul\":5494:5503   */\n      dup4\n        /* \"#utility.yul\":5490:5507   */\n      add\n        /* \"#utility.yul\":5483:5530   */\n      mstore\n        /* \"#utility.yul\":5547:5625   */\n      tag_217\n        /* \"#utility.yul\":5620:5624   */\n      dup2\n        /* \"#utility.yul\":5611:5617   */\n      dup8\n        /* \"#utility.yul\":5547:5625   */\n      tag_121\n      jump\t// in\n    tag_217:\n        /* \"#utility.yul\":5539:5625   */\n      swap1\n      pop\n        /* \"#utility.yul\":5635:5705   */\n      tag_218\n        /* \"#utility.yul\":5701:5703   */\n      0x20\n        /* \"#utility.yul\":5690:5699   */\n      dup4\n        /* \"#utility.yul\":5686:5704   */\n      add\n        /* \"#utility.yul\":5677:5683   */\n      dup7\n        /* \"#utility.yul\":5635:5705   */\n      tag_126\n      jump\t// in\n    tag_218:\n        /* \"#utility.yul\":5752:5761   */\n      dup2\n        /* \"#utility.yul\":5746:5750   */\n      dup2\n        /* \"#utility.yul\":5742:5762   */\n      sub\n        /* \"#utility.yul\":5737:5739   */\n      0x40\n        /* \"#utility.yul\":5726:5735   */\n      dup4\n        /* \"#utility.yul\":5722:5740   */\n      add\n        /* \"#utility.yul\":5715:5763   */\n      mstore\n        /* \"#utility.yul\":5780:5858   */\n      tag_219\n        /* \"#utility.yul\":5853:5857   */\n      dup2\n        /* \"#utility.yul\":5844:5850   */\n      dup6\n        /* \"#utility.yul\":5780:5858   */\n      tag_121\n      jump\t// in\n    tag_219:\n        /* \"#utility.yul\":5772:5858   */\n      swap1\n      pop\n        /* \"#utility.yul\":5905:5914   */\n      dup2\n        /* \"#utility.yul\":5899:5903   */\n      dup2\n        /* \"#utility.yul\":5895:5915   */\n      sub\n        /* \"#utility.yul\":5890:5892   */\n      0x60\n        /* \"#utility.yul\":5879:5888   */\n      dup4\n        /* \"#utility.yul\":5875:5893   */\n      add\n        /* \"#utility.yul\":5868:5916   */\n      mstore\n        /* \"#utility.yul\":5933:6011   */\n      tag_220\n        /* \"#utility.yul\":6006:6010   */\n      dup2\n        /* \"#utility.yul\":5997:6003   */\n      dup5\n        /* \"#utility.yul\":5933:6011   */\n      tag_121\n      jump\t// in\n    tag_220:\n        /* \"#utility.yul\":5925:6011   */\n      swap1\n      pop\n        /* \"#utility.yul\":5196:6018   */\n      swap6\n      swap5\n      pop\n      pop\n      pop\n      pop\n      pop\n      jump\t// out\n        /* \"#utility.yul\":6024:6141   */\n    tag_127:\n        /* \"#utility.yul\":6133:6134   */\n      0x00\n        /* \"#utility.yul\":6130:6131   */\n      dup1\n        /* \"#utility.yul\":6123:6135   */\n      revert\n        /* \"#utility.yul\":6147:6264   */\n    tag_128:\n        /* \"#utility.yul\":6256:6257   */\n      0x00\n        /* \"#utility.yul\":6253:6254   */\n      dup1\n        /* \"#utility.yul\":6246:6258   */\n      revert\n        /* \"#utility.yul\":6270:6390   */\n    tag_129:\n        /* \"#utility.yul\":6342:6365   */\n      tag_224\n        /* \"#utility.yul\":6359:6364   */\n      dup2\n        /* \"#utility.yul\":6342:6365   */\n      tag_125\n      jump\t// in\n    tag_224:\n        /* \"#utility.yul\":6335:6340   */\n      dup2\n        /* \"#utility.yul\":6332:6366   */\n      eq\n        /* \"#utility.yul\":6322:6384   */\n      tag_225\n      jumpi\n        /* \"#utility.yul\":6380:6381   */\n      0x00\n        /* \"#utility.yul\":6377:6378   */\n      dup1\n        /* \"#utility.yul\":6370:6382   */\n      revert\n        /* \"#utility.yul\":6322:6384   */\n    tag_225:\n        /* \"#utility.yul\":6270:6390   */\n      pop\n      jump\t// out\n        /* \"#utility.yul\":6396:6533   */\n    tag_130:\n        /* \"#utility.yul\":6441:6446   */\n      0x00\n        /* \"#utility.yul\":6479:6485   */\n      dup2\n        /* \"#utility.yul\":6466:6486   */\n      calldataload\n        /* \"#utility.yul\":6457:6486   */\n      swap1\n      pop\n        /* \"#utility.yul\":6495:6527   */\n      tag_227\n        /* \"#utility.yul\":6521:6526   */\n      dup2\n        /* \"#utility.yul\":6495:6527   */\n      tag_129\n      jump\t// in\n    tag_227:\n        /* \"#utility.yul\":6396:6533   */\n      swap3\n      swap2\n      pop\n      pop\n      jump\t// out\n        /* \"#utility.yul\":6561:7959   */\n    tag_131:\n        /* \"#utility.yul\":6627:6632   */\n      0x00\n        /* \"#utility.yul\":6671:6675   */\n      0x80\n        /* \"#utility.yul\":6659:6668   */\n      dup3\n        /* \"#utility.yul\":6654:6657   */\n      dup5\n        /* \"#utility.yul\":6650:6669   */\n      sub\n        /* \"#utility.yul\":6646:6676   */\n      slt\n        /* \"#utility.yul\":6643:6760   */\n      iszero\n      tag_229\n      jumpi\n        /* \"#utility.yul\":6679:6758   */\n      tag_230\n      tag_127\n      jump\t// in\n    tag_230:\n        /* \"#utility.yul\":6643:6760   */\n    tag_229:\n        /* \"#utility.yul\":6778:6799   */\n      tag_231\n        /* \"#utility.yul\":6794:6798   */\n      0x80\n        /* \"#utility.yul\":6778:6799   */\n      tag_113\n      jump\t// in\n    tag_231:\n        /* \"#utility.yul\":6769:6799   */\n      swap1\n      pop\n        /* \"#utility.yul\":6884:6885   */\n      0x00\n        /* \"#utility.yul\":6873:6882   */\n      dup3\n        /* \"#utility.yul\":6869:6886   */\n      add\n        /* \"#utility.yul\":6856:6887   */\n      calldataload\n        /* \"#utility.yul\":6914:6932   */\n      0xffffffffffffffff\n        /* \"#utility.yul\":6906:6912   */\n      dup2\n        /* \"#utility.yul\":6903:6933   */\n      gt\n        /* \"#utility.yul\":6900:7017   */\n      iszero\n      tag_232\n      jumpi\n        /* \"#utility.yul\":6936:7015   */\n      tag_233\n      tag_128\n      jump\t// in\n    tag_233:\n        /* \"#utility.yul\":6900:7017   */\n    tag_232:\n        /* \"#utility.yul\":7056:7115   */\n      tag_234\n        /* \"#utility.yul\":7111:7114   */\n      dup5\n        /* \"#utility.yul\":7102:7108   */\n      dup3\n        /* \"#utility.yul\":7091:7100   */\n      dup6\n        /* \"#utility.yul\":7087:7109   */\n      add\n        /* \"#utility.yul\":7056:7115   */\n      tag_117\n      jump\t// in\n    tag_234:\n        /* \"#utility.yul\":7049:7053   */\n      0x00\n        /* \"#utility.yul\":7042:7047   */\n      dup4\n        /* \"#utility.yul\":7038:7054   */\n      add\n        /* \"#utility.yul\":7031:7116   */\n      mstore\n        /* \"#utility.yul\":6809:7127   */\n      pop\n        /* \"#utility.yul\":7186:7188   */\n      0x20\n        /* \"#utility.yul\":7227:7275   */\n      tag_235\n        /* \"#utility.yul\":7271:7274   */\n      dup5\n        /* \"#utility.yul\":7262:7268   */\n      dup3\n        /* \"#utility.yul\":7251:7260   */\n      dup6\n        /* \"#utility.yul\":7247:7269   */\n      add\n        /* \"#utility.yul\":7227:7275   */\n      tag_130\n      jump\t// in\n    tag_235:\n        /* \"#utility.yul\":7220:7224   */\n      0x20\n        /* \"#utility.yul\":7213:7218   */\n      dup4\n        /* \"#utility.yul\":7209:7225   */\n      add\n        /* \"#utility.yul\":7202:7276   */\n      mstore\n        /* \"#utility.yul\":7137:7287   */\n      pop\n        /* \"#utility.yul\":7373:7375   */\n      0x40\n        /* \"#utility.yul\":7362:7371   */\n      dup3\n        /* \"#utility.yul\":7358:7376   */\n      add\n        /* \"#utility.yul\":7345:7377   */\n      calldataload\n        /* \"#utility.yul\":7404:7422   */\n      0xffffffffffffffff\n        /* \"#utility.yul\":7396:7402   */\n      dup2\n        /* \"#utility.yul\":7393:7423   */\n      gt\n        /* \"#utility.yul\":7390:7507   */\n      iszero\n      tag_236\n      jumpi\n        /* \"#utility.yul\":7426:7505   */\n      tag_237\n      tag_128\n      jump\t// in\n    tag_237:\n        /* \"#utility.yul\":7390:7507   */\n    tag_236:\n        /* \"#utility.yul\":7546:7605   */\n      tag_238\n        /* \"#utility.yul\":7601:7604   */\n      dup5\n        /* \"#utility.yul\":7592:7598   */\n      dup3\n        /* \"#utility.yul\":7581:7590   */\n      dup6\n        /* \"#utility.yul\":7577:7599   */\n      add\n        /* \"#utility.yul\":7546:7605   */\n      tag_117\n      jump\t// in\n    tag_238:\n        /* \"#utility.yul\":7539:7543   */\n      0x40\n        /* \"#utility.yul\":7532:7537   */\n      dup4\n        /* \"#utility.yul\":7528:7544   */\n      add\n        /* \"#utility.yul\":7521:7606   */\n      mstore\n        /* \"#utility.yul\":7297:7617   */\n      pop\n        /* \"#utility.yul\":7708:7710   */\n      0x60\n        /* \"#utility.yul\":7697:7706   */\n      dup3\n        /* \"#utility.yul\":7693:7711   */\n      add\n        /* \"#utility.yul\":7680:7712   */\n      calldataload\n        /* \"#utility.yul\":7739:7757   */\n      0xffffffffffffffff\n        /* \"#utility.yul\":7731:7737   */\n      dup2\n        /* \"#utility.yul\":7728:7758   */\n      gt\n        /* \"#utility.yul\":7725:7842   */\n      iszero\n      tag_239\n      jumpi\n        /* \"#utility.yul\":7761:7840   */\n      tag_240\n      tag_128\n      jump\t// in\n    tag_240:\n        /* \"#utility.yul\":7725:7842   */\n    tag_239:\n        /* \"#utility.yul\":7881:7940   */\n      tag_241\n        /* \"#utility.yul\":7936:7939   */\n      dup5\n        /* \"#utility.yul\":7927:7933   */\n      dup3\n        /* \"#utility.yul\":7916:7925   */\n      dup6\n        /* \"#utility.yul\":7912:7934   */\n      add\n        /* \"#utility.yul\":7881:7940   */\n      tag_117\n      jump\t// in\n    tag_241:\n        /* \"#utility.yul\":7874:7878   */\n      0x60\n        /* \"#utility.yul\":7867:7872   */\n      dup4\n        /* \"#utility.yul\":7863:7879   */\n      add\n        /* \"#utility.yul\":7856:7941   */\n      mstore\n        /* \"#utility.yul\":7627:7952   */\n      pop\n        /* \"#utility.yul\":6561:7959   */\n      swap3\n      swap2\n      pop\n      pop\n      jump\t// out\n        /* \"#utility.yul\":7965:8488   */\n    tag_21:\n        /* \"#utility.yul\":8041:8047   */\n      0x00\n        /* \"#utility.yul\":8090:8092   */\n      0x20\n        /* \"#utility.yul\":8078:8087   */\n      dup3\n        /* \"#utility.yul\":8069:8076   */\n      dup5\n        /* \"#utility.yul\":8065:8088   */\n      sub\n        /* \"#utility.yul\":8061:8093   */\n      slt\n        /* \"#utility.yul\":8058:8177   */\n      iszero\n      tag_243\n      jumpi\n        /* \"#utility.yul\":8096:8175   */\n      tag_244\n      tag_106\n      jump\t// in\n    tag_244:\n        /* \"#utility.yul\":8058:8177   */\n    tag_243:\n        /* \"#utility.yul\":8244:8245   */\n      0x00\n        /* \"#utility.yul\":8233:8242   */\n      dup3\n        /* \"#utility.yul\":8229:8246   */\n      add\n        /* \"#utility.yul\":8216:8247   */\n      calldataload\n        /* \"#utility.yul\":8274:8292   */\n      0xffffffffffffffff\n        /* \"#utility.yul\":8266:8272   */\n      dup2\n        /* \"#utility.yul\":8263:8293   */\n      gt\n        /* \"#utility.yul\":8260:8377   */\n      iszero\n      tag_245\n      jumpi\n        /* \"#utility.yul\":8296:8375   */\n      tag_246\n      tag_107\n      jump\t// in\n    tag_246:\n        /* \"#utility.yul\":8260:8377   */\n    tag_245:\n        /* \"#utility.yul\":8401:8471   */\n      tag_247\n        /* \"#utility.yul\":8463:8470   */\n      dup5\n        /* \"#utility.yul\":8454:8460   */\n      dup3\n        /* \"#utility.yul\":8443:8452   */\n      dup6\n        /* \"#utility.yul\":8439:8461   */\n      add\n        /* \"#utility.yul\":8401:8471   */\n      tag_131\n      jump\t// in\n    tag_247:\n        /* \"#utility.yul\":8391:8471   */\n      swap2\n      pop\n        /* \"#utility.yul\":8187:8481   */\n      pop\n        /* \"#utility.yul\":7965:8488   */\n      swap3\n      swap2\n      pop\n      pop\n      jump\t// out\n        /* \"#utility.yul\":8494:9328   */\n    tag_25:\n        /* \"#utility.yul\":8582:8588   */\n      0x00\n        /* \"#utility.yul\":8590:8596   */\n      dup1\n        /* \"#utility.yul\":8639:8641   */\n      0x40\n        /* \"#utility.yul\":8627:8636   */\n      dup4\n        /* \"#utility.yul\":8618:8625   */\n      dup6\n        /* \"#utility.yul\":8614:8637   */\n      sub\n        /* \"#utility.yul\":8610:8642   */\n      slt\n        /* \"#utility.yul\":8607:8726   */\n      iszero\n      tag_249\n      jumpi\n        /* \"#utility.yul\":8645:8724   */\n      tag_250\n      tag_106\n      jump\t// in\n    tag_250:\n        /* \"#utility.yul\":8607:8726   */\n    tag_249:\n        /* \"#utility.yul\":8793:8794   */\n      0x00\n        /* \"#utility.yul\":8782:8791   */\n      dup4\n        /* \"#utility.yul\":8778:8795   */\n      add\n        /* \"#utility.yul\":8765:8796   */\n      calldataload\n        /* \"#utility.yul\":8823:8841   */\n      0xffffffffffffffff\n        /* \"#utility.yul\":8815:8821   */\n      dup2\n        /* \"#utility.yul\":8812:8842   */\n      gt\n        /* \"#utility.yul\":8809:8926   */\n      iszero\n      tag_251\n      jumpi\n        /* \"#utility.yul\":8845:8924   */\n      tag_252\n      tag_107\n      jump\t// in\n    tag_252:\n        /* \"#utility.yul\":8809:8926   */\n    tag_251:\n        /* \"#utility.yul\":8950:9013   */\n      tag_253\n        /* \"#utility.yul\":9005:9012   */\n      dup6\n        /* \"#utility.yul\":8996:9002   */\n      dup3\n        /* \"#utility.yul\":8985:8994   */\n      dup7\n        /* \"#utility.yul\":8981:9003   */\n      add\n        /* \"#utility.yul\":8950:9013   */\n      tag_117\n      jump\t// in\n    tag_253:\n        /* \"#utility.yul\":8940:9013   */\n      swap3\n      pop\n        /* \"#utility.yul\":8736:9023   */\n      pop\n        /* \"#utility.yul\":9090:9092   */\n      0x20\n        /* \"#utility.yul\":9079:9088   */\n      dup4\n        /* \"#utility.yul\":9075:9093   */\n      add\n        /* \"#utility.yul\":9062:9094   */\n      calldataload\n        /* \"#utility.yul\":9121:9139   */\n      0xffffffffffffffff\n        /* \"#utility.yul\":9113:9119   */\n      dup2\n        /* \"#utility.yul\":9110:9140   */\n      gt\n        /* \"#utility.yul\":9107:9224   */\n      iszero\n      tag_254\n      jumpi\n        /* \"#utility.yul\":9143:9222   */\n      tag_255\n      tag_107\n      jump\t// in\n    tag_255:\n        /* \"#utility.yul\":9107:9224   */\n    tag_254:\n        /* \"#utility.yul\":9248:9311   */\n      tag_256\n        /* \"#utility.yul\":9303:9310   */\n      dup6\n        /* \"#utility.yul\":9294:9300   */\n      dup3\n        /* \"#utility.yul\":9283:9292   */\n      dup7\n        /* \"#utility.yul\":9279:9301   */\n      add\n        /* \"#utility.yul\":9248:9311   */\n      tag_117\n      jump\t// in\n    tag_256:\n        /* \"#utility.yul\":9238:9311   */\n      swap2\n      pop\n        /* \"#utility.yul\":9033:9321   */\n      pop\n        /* \"#utility.yul\":8494:9328   */\n      swap3\n      pop\n      swap3\n      swap1\n      pop\n      jump\t// out\n        /* \"#utility.yul\":9334:9424   */\n    tag_132:\n        /* \"#utility.yul\":9368:9375   */\n      0x00\n        /* \"#utility.yul\":9411:9416   */\n      dup2\n        /* \"#utility.yul\":9404:9417   */\n      iszero\n        /* \"#utility.yul\":9397:9418   */\n      iszero\n        /* \"#utility.yul\":9386:9418   */\n      swap1\n      pop\n        /* \"#utility.yul\":9334:9424   */\n      swap2\n      swap1\n      pop\n      jump\t// out\n        /* \"#utility.yul\":9430:9539   */\n    tag_133:\n        /* \"#utility.yul\":9511:9532   */\n      tag_259\n        /* \"#utility.yul\":9526:9531   */\n      dup2\n        /* \"#utility.yul\":9511:9532   */\n      tag_132\n      jump\t// in\n    tag_259:\n        /* \"#utility.yul\":9506:9509   */\n      dup3\n        /* \"#utility.yul\":9499:9533   */\n      mstore\n        /* \"#utility.yul\":9430:9539   */\n      pop\n      pop\n      jump\t// out\n        /* \"#utility.yul\":9545:9755   */\n    tag_28:\n        /* \"#utility.yul\":9632:9636   */\n      0x00\n        /* \"#utility.yul\":9670:9672   */\n      0x20\n        /* \"#utility.yul\":9659:9668   */\n      dup3\n        /* \"#utility.yul\":9655:9673   */\n      add\n        /* \"#utility.yul\":9647:9673   */\n      swap1\n      pop\n        /* \"#utility.yul\":9683:9748   */\n      tag_261\n        /* \"#utility.yul\":9745:9746   */\n      0x00\n        /* \"#utility.yul\":9734:9743   */\n      dup4\n        /* \"#utility.yul\":9730:9747   */\n      add\n        /* \"#utility.yul\":9721:9727   */\n      dup5\n        /* \"#utility.yul\":9683:9748   */\n      tag_133\n      jump\t// in\n    tag_261:\n        /* \"#utility.yul\":9545:9755   */\n      swap3\n      swap2\n      pop\n      pop\n      jump\t// out\n        /* \"#utility.yul\":9761:9909   */\n    tag_134:\n        /* \"#utility.yul\":9863:9874   */\n      0x00\n        /* \"#utility.yul\":9900:9903   */\n      dup2\n        /* \"#utility.yul\":9885:9903   */\n      swap1\n      pop\n        /* \"#utility.yul\":9761:9909   */\n      swap3\n      swap2\n      pop\n      pop\n      jump\t// out\n        /* \"#utility.yul\":9915:10305   */\n    tag_135:\n        /* \"#utility.yul\":10021:10024   */\n      0x00\n        /* \"#utility.yul\":10049:10088   */\n      tag_264\n        /* \"#utility.yul\":10082:10087   */\n      dup3\n        /* \"#utility.yul\":10049:10088   */\n      tag_118\n      jump\t// in\n    tag_264:\n        /* \"#utility.yul\":10104:10193   */\n      tag_265\n        /* \"#utility.yul\":10186:10192   */\n      dup2\n        /* \"#utility.yul\":10181:10184   */\n      dup6\n        /* \"#utility.yul\":10104:10193   */\n      tag_134\n      jump\t// in\n    tag_265:\n        /* \"#utility.yul\":10097:10193   */\n      swap4\n      pop\n        /* \"#utility.yul\":10202:10267   */\n      tag_266\n        /* \"#utility.yul\":10260:10266   */\n      dup2\n        /* \"#utility.yul\":10255:10258   */\n      dup6\n        /* \"#utility.yul\":10248:10252   */\n      0x20\n        /* \"#utility.yul\":10241:10246   */\n      dup7\n        /* \"#utility.yul\":10237:10253   */\n      add\n        /* \"#utility.yul\":10202:10267   */\n      tag_120\n      jump\t// in\n    tag_266:\n        /* \"#utility.yul\":10292:10298   */\n      dup1\n        /* \"#utility.yul\":10287:10290   */\n      dup5\n        /* \"#utility.yul\":10283:10299   */\n      add\n        /* \"#utility.yul\":10276:10299   */\n      swap2\n      pop\n        /* \"#utility.yul\":10025:10305   */\n      pop\n        /* \"#utility.yul\":9915:10305   */\n      swap3\n      swap2\n      pop\n      pop\n      jump\t// out\n        /* \"#utility.yul\":10311:10586   */\n    tag_34:\n        /* \"#utility.yul\":10443:10446   */\n      0x00\n        /* \"#utility.yul\":10465:10560   */\n      tag_268\n        /* \"#utility.yul\":10556:10559   */\n      dup3\n        /* \"#utility.yul\":10547:10553   */\n      dup5\n        /* \"#utility.yul\":10465:10560   */\n      tag_135\n      jump\t// in\n    tag_268:\n        /* \"#utility.yul\":10458:10560   */\n      swap2\n      pop\n        /* \"#utility.yul\":10577:10580   */\n      dup2\n        /* \"#utility.yul\":10570:10580   */\n      swap1\n      pop\n        /* \"#utility.yul\":10311:10586   */\n      swap3\n      swap2\n      pop\n      pop\n      jump\t// out\n        /* \"#utility.yul\":10592:10772   */\n    tag_37:\n        /* \"#utility.yul\":10640:10717   */\n      0x4e487b7100000000000000000000000000000000000000000000000000000000\n        /* \"#utility.yul\":10637:10638   */\n      0x00\n        /* \"#utility.yul\":10630:10718   */\n      mstore\n        /* \"#utility.yul\":10737:10741   */\n      0x32\n        /* \"#utility.yul\":10734:10735   */\n      0x04\n        /* \"#utility.yul\":10727:10742   */\n      mstore\n        /* \"#utility.yul\":10761:10765   */\n      0x24\n        /* \"#utility.yul\":10758:10759   */\n      0x00\n        /* \"#utility.yul\":10751:10766   */\n      revert\n        /* \"#utility.yul\":10778:10958   */\n    tag_136:\n        /* \"#utility.yul\":10826:10903   */\n      0x4e487b7100000000000000000000000000000000000000000000000000000000\n        /* \"#utility.yul\":10823:10824   */\n      0x00\n        /* \"#utility.yul\":10816:10904   */\n      mstore\n        /* \"#utility.yul\":10923:10927   */\n      0x22\n        /* \"#utility.yul\":10920:10921   */\n      0x04\n        /* \"#utility.yul\":10913:10928   */\n      mstore\n        /* \"#utility.yul\":10947:10951   */\n      0x24\n        /* \"#utility.yul\":10944:10945   */\n      0x00\n        /* \"#utility.yul\":10937:10952   */\n      revert\n        /* \"#utility.yul\":10964:11284   */\n    tag_46:\n        /* \"#utility.yul\":11008:11014   */\n      0x00\n        /* \"#utility.yul\":11045:11046   */\n      0x02\n        /* \"#utility.yul\":11039:11043   */\n      dup3\n        /* \"#utility.yul\":11035:11047   */\n      div\n        /* \"#utility.yul\":11025:11047   */\n      swap1\n      pop\n        /* \"#utility.yul\":11092:11093   */\n      0x01\n        /* \"#utility.yul\":11086:11090   */\n      dup3\n        /* \"#utility.yul\":11082:11094   */\n      and\n        /* \"#utility.yul\":11113:11131   */\n      dup1\n        /* \"#utility.yul\":11103:11184   */\n      tag_272\n      jumpi\n        /* \"#utility.yul\":11169:11173   */\n      0x7f\n        /* \"#utility.yul\":11161:11167   */\n      dup3\n        /* \"#utility.yul\":11157:11174   */\n      and\n        /* \"#utility.yul\":11147:11174   */\n      swap2\n      pop\n        /* \"#utility.yul\":11103:11184   */\n    tag_272:\n        /* \"#utility.yul\":11231:11233   */\n      0x20\n        /* \"#utility.yul\":11223:11229   */\n      dup3\n        /* \"#utility.yul\":11220:11234   */\n      lt\n        /* \"#utility.yul\":11200:11218   */\n      dup2\n        /* \"#utility.yul\":11197:11235   */\n      sub\n        /* \"#utility.yul\":11194:11278   */\n      tag_273\n      jumpi\n        /* \"#utility.yul\":11250:11268   */\n      tag_274\n      tag_136\n      jump\t// in\n    tag_274:\n        /* \"#utility.yul\":11194:11278   */\n    tag_273:\n        /* \"#utility.yul\":11015:11284   */\n      pop\n        /* \"#utility.yul\":10964:11284   */\n      swap2\n      swap1\n      pop\n      jump\t// out\n        /* \"#utility.yul\":11290:11431   */\n    tag_137:\n        /* \"#utility.yul\":11339:11343   */\n      0x00\n        /* \"#utility.yul\":11362:11365   */\n      dup2\n        /* \"#utility.yul\":11354:11365   */\n      swap1\n      pop\n        /* \"#utility.yul\":11385:11388   */\n      dup2\n        /* \"#utility.yul\":11382:11383   */\n      0x00\n        /* \"#utility.yul\":11375:11389   */\n      mstore\n        /* \"#utility.yul\":11419:11423   */\n      0x20\n        /* \"#utility.yul\":11416:11417   */\n      0x00\n        /* \"#utility.yul\":11406:11424   */\n      keccak256\n        /* \"#utility.yul\":11398:11424   */\n      swap1\n      pop\n        /* \"#utility.yul\":11290:11431   */\n      swap2\n      swap1\n      pop\n      jump\t// out\n        /* \"#utility.yul\":11461:12335   */\n    tag_138:\n        /* \"#utility.yul\":11564:11567   */\n      0x00\n        /* \"#utility.yul\":11601:11606   */\n      dup2\n        /* \"#utility.yul\":11595:11607   */\n      sload\n        /* \"#utility.yul\":11630:11666   */\n      tag_277\n        /* \"#utility.yul\":11656:11665   */\n      dup2\n        /* \"#utility.yul\":11630:11666   */\n      tag_46\n      jump\t// in\n    tag_277:\n        /* \"#utility.yul\":11682:11771   */\n      tag_278\n        /* \"#utility.yul\":11764:11770   */\n      dup2\n        /* \"#utility.yul\":11759:11762   */\n      dup7\n        /* \"#utility.yul\":11682:11771   */\n      tag_134\n      jump\t// in\n    tag_278:\n        /* \"#utility.yul\":11675:11771   */\n      swap5\n      pop\n        /* \"#utility.yul\":11802:11803   */\n      0x01\n        /* \"#utility.yul\":11791:11800   */\n      dup3\n        /* \"#utility.yul\":11787:11804   */\n      and\n        /* \"#utility.yul\":11818:11819   */\n      0x00\n        /* \"#utility.yul\":11813:11979   */\n      dup2\n      eq\n      tag_280\n      jumpi\n        /* \"#utility.yul\":11993:11994   */\n      0x01\n        /* \"#utility.yul\":11988:12329   */\n      dup2\n      eq\n      tag_281\n      jumpi\n        /* \"#utility.yul\":11780:12329   */\n      jump(tag_279)\n        /* \"#utility.yul\":11813:11979   */\n    tag_280:\n        /* \"#utility.yul\":11897:11901   */\n      0xff\n        /* \"#utility.yul\":11893:11902   */\n      not\n        /* \"#utility.yul\":11882:11891   */\n      dup4\n        /* \"#utility.yul\":11878:11903   */\n      and\n        /* \"#utility.yul\":11873:11876   */\n      dup7\n        /* \"#utility.yul\":11866:11904   */\n      mstore\n        /* \"#utility.yul\":11959:11965   */\n      dup2\n        /* \"#utility.yul\":11952:11966   */\n      iszero\n        /* \"#utility.yul\":11945:11967   */\n      iszero\n        /* \"#utility.yul\":11937:11943   */\n      dup3\n        /* \"#utility.yul\":11933:11968   */\n      mul\n        /* \"#utility.yul\":11928:11931   */\n      dup7\n        /* \"#utility.yul\":11924:11969   */\n      add\n        /* \"#utility.yul\":11917:11969   */\n      swap4\n      pop\n        /* \"#utility.yul\":11813:11979   */\n      jump(tag_279)\n        /* \"#utility.yul\":11988:12329   */\n    tag_281:\n        /* \"#utility.yul\":12055:12093   */\n      tag_282\n        /* \"#utility.yul\":12087:12092   */\n      dup6\n        /* \"#utility.yul\":12055:12093   */\n      tag_137\n      jump\t// in\n    tag_282:\n        /* \"#utility.yul\":12115:12116   */\n      0x00\n        /* \"#utility.yul\":12129:12283   */\n    tag_283:\n        /* \"#utility.yul\":12143:12149   */\n      dup4\n        /* \"#utility.yul\":12140:12141   */\n      dup2\n        /* \"#utility.yul\":12137:12150   */\n      lt\n        /* \"#utility.yul\":12129:12283   */\n      iszero\n      tag_285\n      jumpi\n        /* \"#utility.yul\":12217:12224   */\n      dup2\n        /* \"#utility.yul\":12211:12225   */\n      sload\n        /* \"#utility.yul\":12207:12208   */\n      dup2\n        /* \"#utility.yul\":12202:12205   */\n      dup10\n        /* \"#utility.yul\":12198:12209   */\n      add\n        /* \"#utility.yul\":12191:12226   */\n      mstore\n        /* \"#utility.yul\":12267:12268   */\n      0x01\n        /* \"#utility.yul\":12258:12265   */\n      dup3\n        /* \"#utility.yul\":12254:12269   */\n      add\n        /* \"#utility.yul\":12243:12269   */\n      swap2\n      pop\n        /* \"#utility.yul\":12165:12169   */\n      0x20\n        /* \"#utility.yul\":12162:12163   */\n      dup2\n        /* \"#utility.yul\":12158:12170   */\n      add\n        /* \"#utility.yul\":12153:12170   */\n      swap1\n      pop\n        /* \"#utility.yul\":12129:12283   */\n      jump(tag_283)\n    tag_285:\n        /* \"#utility.yul\":12312:12318   */\n      dup4\n        /* \"#utility.yul\":12307:12310   */\n      dup9\n        /* \"#utility.yul\":12303:12319   */\n      add\n        /* \"#utility.yul\":12296:12319   */\n      swap6\n      pop\n        /* \"#utility.yul\":11995:12329   */\n      pop\n      pop\n        /* \"#utility.yul\":11780:12329   */\n    tag_279:\n      pop\n        /* \"#utility.yul\":11568:12335   */\n      pop\n      pop\n        /* \"#utility.yul\":11461:12335   */\n      swap3\n      swap2\n      pop\n      pop\n      jump\t// out\n        /* \"#utility.yul\":12341:12610   */\n    tag_40:\n        /* \"#utility.yul\":12470:12473   */\n      0x00\n        /* \"#utility.yul\":12492:12584   */\n      tag_287\n        /* \"#utility.yul\":12580:12583   */\n      dup3\n        /* \"#utility.yul\":12571:12577   */\n      dup5\n        /* \"#utility.yul\":12492:12584   */\n      tag_138\n      jump\t// in\n    tag_287:\n        /* \"#utility.yul\":12485:12584   */\n      swap2\n      pop\n        /* \"#utility.yul\":12601:12604   */\n      dup2\n        /* \"#utility.yul\":12594:12604   */\n      swap1\n      pop\n        /* \"#utility.yul\":12341:12610   */\n      swap3\n      swap2\n      pop\n      pop\n      jump\t// out\n        /* \"#utility.yul\":12616:12796   */\n    tag_139:\n        /* \"#utility.yul\":12664:12741   */\n      0x4e487b7100000000000000000000000000000000000000000000000000000000\n        /* \"#utility.yul\":12661:12662   */\n      0x00\n        /* \"#utility.yul\":12654:12742   */\n      mstore\n        /* \"#utility.yul\":12761:12765   */\n      0x11\n        /* \"#utility.yul\":12758:12759   */\n      0x04\n        /* \"#utility.yul\":12751:12766   */\n      mstore\n        /* \"#utility.yul\":12785:12789   */\n      0x24\n        /* \"#utility.yul\":12782:12783   */\n      0x00\n        /* \"#utility.yul\":12775:12790   */\n      revert\n        /* \"#utility.yul\":12802:13035   */\n    tag_52:\n        /* \"#utility.yul\":12841:12844   */\n      0x00\n        /* \"#utility.yul\":12864:12888   */\n      tag_290\n        /* \"#utility.yul\":12882:12887   */\n      dup3\n        /* \"#utility.yul\":12864:12888   */\n      tag_122\n      jump\t// in\n    tag_290:\n        /* \"#utility.yul\":12855:12888   */\n      swap2\n      pop\n        /* \"#utility.yul\":12910:12976   */\n      0xffffffffffffffffffffffffffffffffffffffffffffffffffffffffffffffff\n        /* \"#utility.yul\":12903:12908   */\n      dup3\n        /* \"#utility.yul\":12900:12977   */\n      sub\n        /* \"#utility.yul\":12897:13000   */\n      tag_291\n      jumpi\n        /* \"#utility.yul\":12980:12998   */\n      tag_292\n      tag_139\n      jump\t// in\n    tag_292:\n        /* \"#utility.yul\":12897:13000   */\n    tag_291:\n        /* \"#utility.yul\":13027:13028   */\n      0x01\n        /* \"#utility.yul\":13020:13025   */\n      dup3\n        /* \"#utility.yul\":13016:13029   */\n      add\n        /* \"#utility.yul\":13009:13029   */\n      swap1\n      pop\n        /* \"#utility.yul\":12802:13035   */\n      swap2\n      swap1\n      pop\n      jump\t// out\n        /* \"#utility.yul\":13041:13134   */\n    tag_140:\n        /* \"#utility.yul\":13078:13084   */\n      0x00\n        /* \"#utility.yul\":13125:13127   */\n      0x20\n        /* \"#utility.yul\":13120:13122   */\n      0x1f\n        /* \"#utility.yul\":13113:13118   */\n      dup4\n        /* \"#utility.yul\":13109:13123   */\n      add\n        /* \"#utility.yul\":13105:13128   */\n      div\n        /* \"#utility.yul\":13095:13128   */\n      swap1\n      pop\n        /* \"#utility.yul\":13041:13134   */\n      swap2\n      swap1\n      pop\n      jump\t// out\n        /* \"#utility.yul\":13140:13247   */\n    tag_141:\n        /* \"#utility.yul\":13184:13192   */\n      0x00\n        /* \"#utility.yul\":13234:13239   */\n      dup3\n        /* \"#utility.yul\":13228:13232   */\n      dup3\n        /* \"#utility.yul\":13224:13240   */\n      shl\n        /* \"#utility.yul\":13203:13240   */\n      swap1\n      pop\n        /* \"#utility.yul\":13140:13247   */\n      swap3\n      swap2\n      pop\n      pop\n      jump\t// out\n        /* \"#utility.yul\":13253:13646   */\n    tag_142:\n        /* \"#utility.yul\":13322:13328   */\n      0x00\n        /* \"#utility.yul\":13372:13373   */\n      0x08\n        /* \"#utility.yul\":13360:13370   */\n      dup4\n        /* \"#utility.yul\":13356:13374   */\n      mul\n        /* \"#utility.yul\":13395:13492   */\n      tag_296\n        /* \"#utility.yul\":13425:13491   */\n      0xffffffffffffffffffffffffffffffffffffffffffffffffffffffffffffffff\n        /* \"#utility.yul\":13414:13423   */\n      dup3\n        /* \"#utility.yul\":13395:13492   */\n      tag_141\n      jump\t// in\n    tag_296:\n        /* \"#utility.yul\":13513:13552   */\n      tag_297\n        /* \"#utility.yul\":13543:13551   */\n      dup7\n        /* \"#utility.yul\":13532:13541   */\n      dup4\n        /* \"#utility.yul\":13513:13552   */\n      tag_141\n      jump\t// in\n    tag_297:\n        /* \"#utility.yul\":13501:13552   */\n      swap6\n      pop\n        /* \"#utility.yul\":13585:13589   */\n      dup1\n        /* \"#utility.yul\":13581:13590   */\n      not\n        /* \"#utility.yul\":13574:13579   */\n      dup5\n        /* \"#utility.yul\":13570:13591   */\n      and\n        /* \"#utility.yul\":13561:13591   */\n      swap4\n      pop\n        /* \"#utility.yul\":13634:13638   */\n      dup1\n        /* \"#utility.yul\":13624:13632   */\n      dup7\n        /* \"#utility.yul\":13620:13639   */\n      and\n        /* \"#utility.yul\":13613:13618   */\n      dup5\n        /* \"#utility.yul\":13610:13640   */\n      or\n        /* \"#utility.yul\":13600:13640   */\n      swap3\n      pop\n        /* \"#utility.yul\":13329:13646   */\n      pop\n      pop\n        /* \"#utility.yul\":13253:13646   */\n      swap4\n      swap3\n      pop\n      pop\n      pop\n      jump\t// out\n        /* \"#utility.yul\":13652:13712   */\n    tag_143:\n        /* \"#utility.yul\":13680:13683   */\n      0x00\n        /* \"#utility.yul\":13701:13706   */\n      dup2\n        /* \"#utility.yul\":13694:13706   */\n      swap1\n      pop\n        /* \"#utility.yul\":13652:13712   */\n      swap2\n      swap1\n      pop\n      jump\t// out\n        /* \"#utility.yul\":13718:13860   */\n    tag_144:\n        /* \"#utility.yul\":13768:13777   */\n      0x00\n        /* \"#utility.yul\":13801:13854   */\n      tag_300\n        /* \"#utility.yul\":13819:13853   */\n      tag_301\n        /* \"#utility.yul\":13828:13852   */\n      tag_302\n        /* \"#utility.yul\":13846:13851   */\n      dup5\n        /* \"#utility.yul\":13828:13852   */\n      tag_122\n      jump\t// in\n    tag_302:\n        /* \"#utility.yul\":13819:13853   */\n      tag_143\n      jump\t// in\n    tag_301:\n        /* \"#utility.yul\":13801:13854   */\n      tag_122\n      jump\t// in\n    tag_300:\n        /* \"#utility.yul\":13788:13854   */\n      swap1\n      pop\n        /* \"#utility.yul\":13718:13860   */\n      swap2\n      swap1\n      pop\n      jump\t// out\n        /* \"#utility.yul\":13866:13941   */\n    tag_145:\n        /* \"#utility.yul\":13909:13912   */\n      0x00\n        /* \"#utility.yul\":13930:13935   */\n      dup2\n        /* \"#utility.yul\":13923:13935   */\n      swap1\n      pop\n        /* \"#utility.yul\":13866:13941   */\n      swap2\n      swap1\n      pop\n      jump\t// out\n        /* \"#utility.yul\":13947:14216   */\n    tag_146:\n        /* \"#utility.yul\":14057:14096   */\n      tag_305\n        /* \"#utility.yul\":14088:14095   */\n      dup4\n        /* \"#utility.yul\":14057:14096   */\n      tag_144\n      jump\t// in\n    tag_305:\n        /* \"#utility.yul\":14118:14209   */\n      tag_306\n        /* \"#utility.yul\":14167:14208   */\n      tag_307\n        /* \"#utility.yul\":14191:14207   */\n      dup3\n        /* \"#utility.yul\":14167:14208   */\n      tag_145\n      jump\t// in\n    tag_307:\n        /* \"#utility.yul\":14159:14165   */\n      dup5\n        /* \"#utility.yul\":14152:14156   */\n      dup5\n        /* \"#utility.yul\":14146:14157   */\n      sload\n        /* \"#utility.yul\":14118:14209   */\n      tag_142\n      jump\t// in\n    tag_306:\n        /* \"#utility.yul\":14112:14116   */\n      dup3\n        /* \"#utility.yul\":14105:14210   */\n      sstore\n        /* \"#utility.yul\":14023:14216   */\n      pop\n        /* \"#utility.yul\":13947:14216   */\n      pop\n      pop\n      pop\n      jump\t// out\n        /* \"#utility.yul\":14222:14295   */\n    tag_147:\n        /* \"#utility.yul\":14267:14270   */\n      0x00\n        /* \"#utility.yul\":14222:14295   */\n      swap1\n      jump\t// out\n        /* \"#utility.yul\":14301:14490   */\n    tag_148:\n        /* \"#utility.yul\":14378:14410   */\n      tag_310\n      tag_147\n      jump\t// in\n    tag_310:\n        /* \"#utility.yul\":14419:14484   */\n      tag_311\n        /* \"#utility.yul\":14477:14483   */\n      dup2\n        /* \"#utility.yul\":14469:14475   */\n      dup5\n        /* \"#utility.yul\":14463:14467   */\n      dup5\n        /* \"#utility.yul\":14419:14484   */\n      tag_146\n      jump\t// in\n    tag_311:\n        /* \"#utility.yul\":14354:14490   */\n      pop\n        /* \"#utility.yul\":14301:14490   */\n      pop\n      pop\n      jump\t// out\n        /* \"#utility.yul\":14496:14682   */\n    tag_149:\n        /* \"#utility.yul\":14556:14676   */\n    tag_313:\n        /* \"#utility.yul\":14573:14576   */\n      dup2\n        /* \"#utility.yul\":14566:14571   */\n      dup2\n        /* \"#utility.yul\":14563:14577   */\n      lt\n        /* \"#utility.yul\":14556:14676   */\n      iszero\n      tag_315\n      jumpi\n        /* \"#utility.yul\":14627:14666   */\n      tag_316\n        /* \"#utility.yul\":14664:14665   */\n      0x00\n        /* \"#utility.yul\":14657:14662   */\n      dup3\n        /* \"#utility.yul\":14627:14666   */\n      tag_148\n      jump\t// in\n    tag_316:\n        /* \"#utility.yul\":14600:14601   */\n      0x01\n        /* \"#utility.yul\":14593:14598   */\n      dup2\n        /* \"#utility.yul\":14589:14602   */\n      add\n        /* \"#utility.yul\":14580:14602   */\n      swap1\n      pop\n        /* \"#utility.yul\":14556:14676   */\n      jump(tag_313)\n    tag_315:\n        /* \"#utility.yul\":14496:14682   */\n      pop\n      pop\n      jump\t// out\n        /* \"#utility.yul\":14688:15231   */\n    tag_150:\n        /* \"#utility.yul\":14789:14791   */\n      0x1f\n        /* \"#utility.yul\":14784:14787   */\n      dup3\n        /* \"#utility.yul\":14781:14792   */\n      gt\n        /* \"#utility.yul\":14778:15224   */\n      iszero\n      tag_318\n      jumpi\n        /* \"#utility.yul\":14823:14861   */\n      tag_319\n        /* \"#utility.yul\":14855:14860   */\n      dup2\n        /* \"#utility.yul\":14823:14861   */\n      tag_137\n      jump\t// in\n    tag_319:\n        /* \"#utility.yul\":14907:14936   */\n      tag_320\n        /* \"#utility.yul\":14925:14935   */\n      dup5\n        /* \"#utility.yul\":14907:14936   */\n      tag_140\n      jump\t// in\n    tag_320:\n        /* \"#utility.yul\":14897:14905   */\n      dup2\n        /* \"#utility.yul\":14893:14937   */\n      add\n        /* \"#utility.yul\":15090:15092   */\n      0x20\n        /* \"#utility.yul\":15078:15088   */\n      dup6\n        /* \"#utility.yul\":15075:15093   */\n      lt\n        /* \"#utility.yul\":15072:15121   */\n      iszero\n      tag_321\n      jumpi\n        /* \"#utility.yul\":15111:15119   */\n      dup2\n        /* \"#utility.yul\":15096:15119   */\n      swap1\n      pop\n        /* \"#utility.yul\":15072:15121   */\n    tag_321:\n        /* \"#utility.yul\":15134:15214   */\n      tag_322\n        /* \"#utility.yul\":15190:15212   */\n      tag_323\n        /* \"#utility.yul\":15208:15211   */\n      dup6\n        /* \"#utility.yul\":15190:15212   */\n      tag_140\n      jump\t// in\n    tag_323:\n        /* \"#utility.yul\":15180:15188   */\n      dup4\n        /* \"#utility.yul\":15176:15213   */\n      add\n        /* \"#utility.yul\":15163:15174   */\n      dup3\n        /* \"#utility.yul\":15134:15214   */\n      tag_149\n      jump\t// in\n    tag_322:\n        /* \"#utility.yul\":14793:15224   */\n      pop\n      pop\n        /* \"#utility.yul\":14778:15224   */\n    tag_318:\n        /* \"#utility.yul\":14688:15231   */\n      pop\n      pop\n      pop\n      jump\t// out\n        /* \"#utility.yul\":15237:15354   */\n    tag_151:\n        /* \"#utility.yul\":15291:15299   */\n      0x00\n        /* \"#utility.yul\":15341:15346   */\n      dup3\n        /* \"#utility.yul\":15335:15339   */\n      dup3\n        /* \"#utility.yul\":15331:15347   */\n      shr\n        /* \"#utility.yul\":15310:15347   */\n      swap1\n      pop\n        /* \"#utility.yul\":15237:15354   */\n      swap3\n      swap2\n      pop\n      pop\n      jump\t// out\n        /* \"#utility.yul\":15360:15529   */\n    tag_152:\n        /* \"#utility.yul\":15404:15410   */\n      0x00\n        /* \"#utility.yul\":15437:15488   */\n      tag_326\n        /* \"#utility.yul\":15485:15486   */\n      0x00\n        /* \"#utility.yul\":15481:15487   */\n      not\n        /* \"#utility.yul\":15473:15478   */\n      dup5\n        /* \"#utility.yul\":15470:15471   */\n      0x08\n        /* \"#utility.yul\":15466:15479   */\n      mul\n        /* \"#utility.yul\":15437:15488   */\n      tag_151\n      jump\t// in\n    tag_326:\n        /* \"#utility.yul\":15433:15489   */\n      not\n        /* \"#utility.yul\":15518:15522   */\n      dup1\n        /* \"#utility.yul\":15512:15516   */\n      dup4\n        /* \"#utility.yul\":15508:15523   */\n      and\n        /* \"#utility.yul\":15498:15523   */\n      swap2\n      pop\n        /* \"#utility.yul\":15411:15529   */\n      pop\n        /* \"#utility.yul\":15360:15529   */\n      swap3\n      swap2\n      pop\n      pop\n      jump\t// out\n        /* \"#utility.yul\":15534:15829   */\n    tag_153:\n        /* \"#utility.yul\":15610:15614   */\n      0x00\n        /* \"#utility.yul\":15756:15785   */\n      tag_328\n        /* \"#utility.yul\":15781:15784   */\n      dup4\n        /* \"#utility.yul\":15775:15779   */\n      dup4\n        /* \"#utility.yul\":15756:15785   */\n      tag_152\n      jump\t// in\n    tag_328:\n        /* \"#utility.yul\":15748:15785   */\n      swap2\n      pop\n        /* \"#utility.yul\":15818:15821   */\n      dup3\n        /* \"#utility.yul\":15815:15816   */\n      0x02\n        /* \"#utility.yul\":15811:15822   */\n      mul\n        /* \"#utility.yul\":15805:15809   */\n      dup3\n        /* \"#utility.yul\":15802:15823   */\n      or\n        /* \"#utility.yul\":15794:15823   */\n      swap1\n      pop\n        /* \"#utility.yul\":15534:15829   */\n      swap3\n      swap2\n      pop\n      pop\n      jump\t// out\n        /* \"#utility.yul\":15834:17229   */\n    tag_84:\n        /* \"#utility.yul\":15951:15988   */\n      tag_330\n        /* \"#utility.yul\":15984:15987   */\n      dup3\n        /* \"#utility.yul\":15951:15988   */\n      tag_118\n      jump\t// in\n    tag_330:\n        /* \"#utility.yul\":16053:16071   */\n      0xffffffffffffffff\n        /* \"#utility.yul\":16045:16051   */\n      dup2\n        /* \"#utility.yul\":16042:16072   */\n      gt\n        /* \"#utility.yul\":16039:16095   */\n      iszero\n      tag_331\n      jumpi\n        /* \"#utility.yul\":16075:16093   */\n      tag_332\n      tag_111\n      jump\t// in\n    tag_332:\n        /* \"#utility.yul\":16039:16095   */\n    tag_331:\n        /* \"#utility.yul\":16119:16157   */\n      tag_333\n        /* \"#utility.yul\":16151:16155   */\n      dup3\n        /* \"#utility.yul\":16145:16156   */\n      sload\n        /* \"#utility.yul\":16119:16157   */\n      tag_46\n      jump\t// in\n    tag_333:\n        /* \"#utility.yul\":16204:16271   */\n      tag_334\n        /* \"#utility.yul\":16264:16270   */\n      dup3\n        /* \"#utility.yul\":16256:16262   */\n      dup3\n        /* \"#utility.yul\":16250:16254   */\n      dup6\n        /* \"#utility.yul\":16204:16271   */\n      tag_150\n      jump\t// in\n    tag_334:\n        /* \"#utility.yul\":16298:16299   */\n      0x00\n        /* \"#utility.yul\":16322:16326   */\n      0x20\n        /* \"#utility.yul\":16309:16326   */\n      swap1\n      pop\n        /* \"#utility.yul\":16354:16356   */\n      0x1f\n        /* \"#utility.yul\":16346:16352   */\n      dup4\n        /* \"#utility.yul\":16343:16357   */\n      gt\n        /* \"#utility.yul\":16371:16372   */\n      0x01\n        /* \"#utility.yul\":16366:16984   */\n      dup2\n      eq\n      tag_336\n      jumpi\n        /* \"#utility.yul\":17028:17029   */\n      0x00\n        /* \"#utility.yul\":17045:17051   */\n      dup5\n        /* \"#utility.yul\":17042:17119   */\n      iszero\n      tag_337\n      jumpi\n        /* \"#utility.yul\":17094:17103   */\n      dup3\n        /* \"#utility.yul\":17089:17092   */\n      dup8\n        /* \"#utility.yul\":17085:17104   */\n      add\n        /* \"#utility.yul\":17079:17105   */\n      mload\n        /* \"#utility.yul\":17070:17105   */\n      swap1\n      pop\n        /* \"#utility.yul\":17042:17119   */\n    tag_337:\n        /* \"#utility.yul\":17145:17212   */\n      tag_338\n        /* \"#utility.yul\":17205:17211   */\n      dup6\n        /* \"#utility.yul\":17198:17203   */\n      dup3\n        /* \"#utility.yul\":17145:17212   */\n      tag_153\n      jump\t// in\n    tag_338:\n        /* \"#utility.yul\":17139:17143   */\n      dup7\n        /* \"#utility.yul\":17132:17213   */\n      sstore\n        /* \"#utility.yul\":17001:17223   */\n      pop\n        /* \"#utility.yul\":16336:17223   */\n      jump(tag_335)\n        /* \"#utility.yul\":16366:16984   */\n    tag_336:\n        /* \"#utility.yul\":16418:16422   */\n      0x1f\n        /* \"#utility.yul\":16414:16423   */\n      not\n        /* \"#utility.yul\":16406:16412   */\n      dup5\n        /* \"#utility.yul\":16402:16424   */\n      and\n        /* \"#utility.yul\":16452:16489   */\n      tag_339\n        /* \"#utility.yul\":16484:16488   */\n      dup7\n        /* \"#utility.yul\":16452:16489   */\n      tag_137\n      jump\t// in\n    tag_339:\n        /* \"#utility.yul\":16511:16512   */\n      0x00\n        /* \"#utility.yul\":16525:16733   */\n    tag_340:\n        /* \"#utility.yul\":16539:16546   */\n      dup3\n        /* \"#utility.yul\":16536:16537   */\n      dup2\n        /* \"#utility.yul\":16533:16547   */\n      lt\n        /* \"#utility.yul\":16525:16733   */\n      iszero\n      tag_342\n      jumpi\n        /* \"#utility.yul\":16618:16627   */\n      dup5\n        /* \"#utility.yul\":16613:16616   */\n      dup10\n        /* \"#utility.yul\":16609:16628   */\n      add\n        /* \"#utility.yul\":16603:16629   */\n      mload\n        /* \"#utility.yul\":16595:16601   */\n      dup3\n        /* \"#utility.yul\":16588:16630   */\n      sstore\n        /* \"#utility.yul\":16669:16670   */\n      0x01\n        /* \"#utility.yul\":16661:16667   */\n      dup3\n        /* \"#utility.yul\":16657:16671   */\n      add\n        /* \"#utility.yul\":16647:16671   */\n      swap2\n      pop\n        /* \"#utility.yul\":16716:16718   */\n      0x20\n        /* \"#utility.yul\":16705:16714   */\n      dup6\n        /* \"#utility.yul\":16701:16719   */\n      add\n        /* \"#utility.yul\":16688:16719   */\n      swap5\n      pop\n        /* \"#utility.yul\":16562:16566   */\n      0x20\n        /* \"#utility.yul\":16559:16560   */\n      dup2\n        /* \"#utility.yul\":16555:16567   */\n      add\n        /* \"#utility.yul\":16550:16567   */\n      swap1\n      pop\n        /* \"#utility.yul\":16525:16733   */\n      jump(tag_340)\n    tag_342:\n        /* \"#utility.yul\":16761:16767   */\n      dup7\n        /* \"#utility.yul\":16752:16759   */\n      dup4\n        /* \"#utility.yul\":16749:16768   */\n      lt\n        /* \"#utility.yul\":16746:16925   */\n      iszero\n      tag_343\n      jumpi\n        /* \"#utility.yul\":16819:16828   */\n      dup5\n        /* \"#utility.yul\":16814:16817   */\n      dup10\n        /* \"#utility.yul\":16810:16829   */\n      add\n        /* \"#utility.yul\":16804:16830   */\n      mload\n        /* \"#utility.yul\":16862:16910   */\n      tag_344\n        /* \"#utility.yul\":16904:16908   */\n      0x1f\n        /* \"#utility.yul\":16896:16902   */\n      dup10\n        /* \"#utility.yul\":16892:16909   */\n      and\n        /* \"#utility.yul\":16881:16890   */\n      dup3\n        /* \"#utility.yul\":16862:16910   */\n      tag_152\n      jump\t// in\n    tag_344:\n        /* \"#utility.yul\":16854:16860   */\n      dup4\n        /* \"#utility.yul\":16847:16911   */\n      sstore\n        /* \"#utility.yul\":16769:16925   */\n      pop\n        /* \"#utility.yul\":16746:16925   */\n    tag_343:\n        /* \"#utility.yul\":16971:16972   */\n      0x01\n        /* \"#utility.yul\":16967:16968   */\n      0x02\n        /* \"#utility.yul\":16959:16965   */\n      dup9\n        /* \"#utility.yul\":16955:16969   */\n      mul\n        /* \"#utility.yul\":16951:16973   */\n      add\n        /* \"#utility.yul\":16945:16949   */\n      dup9\n        /* \"#utility.yul\":16938:16974   */\n      sstore\n        /* \"#utility.yul\":16373:16984   */\n      pop\n      pop\n      pop\n        /* \"#utility.yul\":16336:17223   */\n    tag_335:\n      pop\n        /* \"#utility.yul\":15926:17229   */\n      pop\n      pop\n      pop\n        /* \"#utility.yul\":15834:17229   */\n      pop\n      pop\n      jump\t// out\n\n    auxdata: 0xa26469706673582212205bd6dcb4152f48206a0a2702b164f929e70b8310e3c62133608250c92c5a03c264736f6c63430008120033\n}\n",
				"bytecode": {
					"linkReferences": {},
					"object": "60806040523480156200001157600080fd5b506040518060400160405280600f81526020017f736169383940676d61696c2e636f6d0000000000000000000000000000000000815250600160000190816200005b91906200067e565b506040518060400160405280600f81526020017f6b6972616e40676d61696c2e636f6d000000000000000000000000000000000081525060056000019081620000a591906200067e565b506040518060400160405280601081526020017f64656c65657040676d61696c2e636f6d0000000000000000000000000000000081525060096000019081620000ef91906200067e565b506402171619b860018001819055506040518060600160405280602a81526020016200191c602a9139600160020190816200012b91906200067e565b506040518060400160405280600381526020017f3132330000000000000000000000000000000000000000000000000000000000815250600160030190816200017591906200067e565b50640205e74e4c6005600101819055506040518060600160405280602a8152602001620018c8602a913960056002019081620001b291906200067e565b506040518060400160405280600381526020017f313233000000000000000000000000000000000000000000000000000000000081525060056003019081620001fc91906200067e565b5064017666f7e26005600101819055506040518060600160405280602a8152602001620018f2602a9139600960020190816200023991906200067e565b506040518060400160405280600381526020017f3132330000000000000000000000000000000000000000000000000000000000815250600960030190816200028391906200067e565b5060006001908060018154018082558091505060019003906000526020600020906004020160009091909190915060008201816000019081620002c791906200077d565b506001820154816001015560028201816002019081620002e891906200077d565b5060038201816003019081620002ff91906200077d565b505050600060059080600181540180825580915050600190039060005260206000209060040201600090919091909150600082018160000190816200034591906200077d565b5060018201548160010155600282018160020190816200036691906200077d565b50600382018160030190816200037d91906200077d565b50505060006009908060018154018082558091505060019003906000526020600020906004020160009091909190915060008201816000019081620003c391906200077d565b506001820154816001015560028201816002019081620003e491906200077d565b5060038201816003019081620003fb91906200077d565b5050506200087e565b600081519050919050565b7f4e487b7100000000000000000000000000000000000000000000000000000000600052604160045260246000fd5b7f4e487b7100000000000000000000000000000000000000000000000000000000600052602260045260246000fd5b600060028204905060018216806200048657607f821691505b6020821081036200049c576200049b6200043e565b5b50919050565b60008190508160005260206000209050919050565b60006020601f8301049050919050565b600082821b905092915050565b600060088302620005067fffffffffffffffffffffffffffffffffffffffffffffffffffffffffffffffff82620004c7565b620005128683620004c7565b95508019841693508086168417925050509392505050565b6000819050919050565b6000819050919050565b60006200055f6200055962000553846200052a565b62000534565b6200052a565b9050919050565b6000819050919050565b6200057b836200053e565b620005936200058a8262000566565b848454620004d4565b825550505050565b600090565b620005aa6200059b565b620005b781848462000570565b505050565b5b81811015620005df57620005d3600082620005a0565b600181019050620005bd565b5050565b601f8211156200062e57620005f881620004a2565b6200060384620004b7565b8101602085101562000613578190505b6200062b6200062285620004b7565b830182620005bc565b50505b505050565b600082821c905092915050565b6000620006536000198460080262000633565b1980831691505092915050565b60006200066e838362000640565b9150826002028217905092915050565b620006898262000404565b67ffffffffffffffff811115620006a557620006a46200040f565b5b620006b182546200046d565b620006be828285620005e3565b600060209050601f831160018114620006f65760008415620006e1578287015190505b620006ed858262000660565b8655506200075d565b601f1984166200070686620004a2565b60005b82811015620007305784890151825560018201915060208501945060208101905062000709565b868310156200075057848901516200074c601f89168262000640565b8355505b6001600288020188555050505b505050505050565b60008154905062000776816200046d565b9050919050565b8181036200078d5750506200087c565b620007988262000765565b67ffffffffffffffff811115620007b457620007b36200040f565b5b620007c082546200046d565b620007cd828285620005e3565b6000601f831160018114620008015760008415620007ec578287015490505b620007f8858262000660565b86555062000875565b601f1984166200081187620004a2565b96506200081e86620004a2565b60005b82811015620008485784890154825560018201915060018501945060208101905062000821565b8683101562000868578489015462000864601f89168262000640565b8355505b6001600288020188555050505b5050505050505b565b61103a806200088e6000396000f3fe608060405234801561001057600080fd5b506004361061004c5760003560e01c8063693ec85e1461005157806371e5ee5f1461008157806384f0a9dc146100b45780639deb17f5146100d0575b600080fd5b61006b600480360381019061006691906107da565b610100565b60405161007891906108a2565b60405180910390f35b61009b600480360381019061009691906108fa565b610259565b6040516100ab9493929190610940565b60405180910390f35b6100ce60048036038101906100c99190610a9c565b610431565b005b6100ea60048036038101906100e59190610ae5565b61055d565b6040516100f79190610b78565b60405180910390f35b606060005b60008054905081101561025257826040516020016101239190610bcf565b604051602081830303815290604052805190602001206000828154811061014d5761014c610be6565b5b906000526020600020906004020160000160405160200161016e9190610d0d565b604051602081830303815290604052805190602001200361023f576000818154811061019d5761019c610be6565b5b906000526020600020906004020160020180546101b990610c44565b80601f01602080910402602001604051908101604052809291908181526020018280546101e590610c44565b80156102325780601f1061020757610100808354040283529160200191610232565b820191906000526020600020905b81548152906001019060200180831161021557829003601f168201915b5050505050915050610254565b808061024a90610d53565b915050610105565b505b919050565b6000818154811061026957600080fd5b906000526020600020906004020160009150905080600001805461028c90610c44565b80601f01602080910402602001604051908101604052809291908181526020018280546102b890610c44565b80156103055780601f106102da57610100808354040283529160200191610305565b820191906000526020600020905b8154815290600101906020018083116102e857829003601f168201915b50505050509080600101549080600201805461032090610c44565b80601f016020809104026020016040519081016040528092919081815260200182805461034c90610c44565b80156103995780601f1061036e57610100808354040283529160200191610399565b820191906000526020600020905b81548152906001019060200180831161037c57829003601f168201915b5050505050908060030180546103ae90610c44565b80601f01602080910402602001604051908101604052809291908181526020018280546103da90610c44565b80156104275780601f106103fc57610100808354040283529160200191610427565b820191906000526020600020905b81548152906001019060200180831161040a57829003601f168201915b5050505050905084565b6000805b6000805490508110156104d55782600001516040516020016104579190610bcf565b604051602081830303815290604052805190602001206000828154811061048157610480610be6565b5b90600052602060002090600402016000016040516020016104a29190610d0d565b60405160208183030381529060405280519060200120036104c257600191505b80806104cd90610d53565b915050610435565b5060008103610559576000829080600181540180825580915050600190039060005260206000209060040201600090919091909150600082015181600001908161051f9190610f32565b5060208201518160010155604082015181600201908161053f9190610f32565b5060608201518160030190816105559190610f32565b5050505b5050565b6000806000905060008054905081101561067857836040516020016105829190610bcf565b60405160208183030381529060405280519060200120600082815481106105ac576105ab610be6565b5b90600052602060002090600402016000016040516020016105cd9190610d0d565b6040516020818303038152906040528051906020012014801561065f5750826040516020016105fc9190610bcf565b604051602081830303815290604052805190602001206000828154811061062657610625610be6565b5b90600052602060002090600402016003016040516020016106479190610d0d565b60405160208183030381529060405280519060200120145b1561066e57600191505061067a565b600091505061067a565b505b92915050565b6000604051905090565b600080fd5b600080fd5b600080fd5b600080fd5b6000601f19601f8301169050919050565b7f4e487b7100000000000000000000000000000000000000000000000000000000600052604160045260246000fd5b6106e78261069e565b810181811067ffffffffffffffff82111715610706576107056106af565b5b80604052505050565b6000610719610680565b905061072582826106de565b919050565b600067ffffffffffffffff821115610745576107446106af565b5b61074e8261069e565b9050602081019050919050565b82818337600083830152505050565b600061077d6107788461072a565b61070f565b90508281526020810184848401111561079957610798610699565b5b6107a484828561075b565b509392505050565b600082601f8301126107c1576107c0610694565b5b81356107d184826020860161076a565b91505092915050565b6000602082840312156107f0576107ef61068a565b5b600082013567ffffffffffffffff81111561080e5761080d61068f565b5b61081a848285016107ac565b91505092915050565b600081519050919050565b600082825260208201905092915050565b60005b8381101561085d578082015181840152602081019050610842565b60008484015250505050565b600061087482610823565b61087e818561082e565b935061088e81856020860161083f565b6108978161069e565b840191505092915050565b600060208201905081810360008301526108bc8184610869565b905092915050565b6000819050919050565b6108d7816108c4565b81146108e257600080fd5b50565b6000813590506108f4816108ce565b92915050565b6000602082840312156109105761090f61068a565b5b600061091e848285016108e5565b91505092915050565b6000819050919050565b61093a81610927565b82525050565b6000608082019050818103600083015261095a8187610869565b90506109696020830186610931565b818103604083015261097b8185610869565b9050818103606083015261098f8184610869565b905095945050505050565b600080fd5b600080fd5b6109ad81610927565b81146109b857600080fd5b50565b6000813590506109ca816109a4565b92915050565b6000608082840312156109e6576109e561099a565b5b6109f0608061070f565b9050600082013567ffffffffffffffff811115610a1057610a0f61099f565b5b610a1c848285016107ac565b6000830152506020610a30848285016109bb565b602083015250604082013567ffffffffffffffff811115610a5457610a5361099f565b5b610a60848285016107ac565b604083015250606082013567ffffffffffffffff811115610a8457610a8361099f565b5b610a90848285016107ac565b60608301525092915050565b600060208284031215610ab257610ab161068a565b5b600082013567ffffffffffffffff811115610ad057610acf61068f565b5b610adc848285016109d0565b91505092915050565b60008060408385031215610afc57610afb61068a565b5b600083013567ffffffffffffffff811115610b1a57610b1961068f565b5b610b26858286016107ac565b925050602083013567ffffffffffffffff811115610b4757610b4661068f565b5b610b53858286016107ac565b9150509250929050565b60008115159050919050565b610b7281610b5d565b82525050565b6000602082019050610b8d6000830184610b69565b92915050565b600081905092915050565b6000610ba982610823565b610bb38185610b93565b9350610bc381856020860161083f565b80840191505092915050565b6000610bdb8284610b9e565b915081905092915050565b7f4e487b7100000000000000000000000000000000000000000000000000000000600052603260045260246000fd5b7f4e487b7100000000000000000000000000000000000000000000000000000000600052602260045260246000fd5b60006002820490506001821680610c5c57607f821691505b602082108103610c6f57610c6e610c15565b5b50919050565b60008190508160005260206000209050919050565b60008154610c9781610c44565b610ca18186610b93565b94506001821660008114610cbc5760018114610cd157610d04565b60ff1983168652811515820286019350610d04565b610cda85610c75565b60005b83811015610cfc57815481890152600182019150602081019050610cdd565b838801955050505b50505092915050565b6000610d198284610c8a565b915081905092915050565b7f4e487b7100000000000000000000000000000000000000000000000000000000600052601160045260246000fd5b6000610d5e826108c4565b91507fffffffffffffffffffffffffffffffffffffffffffffffffffffffffffffffff8203610d9057610d8f610d24565b5b600182019050919050565b60006020601f8301049050919050565b600082821b905092915050565b600060088302610de87fffffffffffffffffffffffffffffffffffffffffffffffffffffffffffffffff82610dab565b610df28683610dab565b95508019841693508086168417925050509392505050565b6000819050919050565b6000610e2f610e2a610e25846108c4565b610e0a565b6108c4565b9050919050565b6000819050919050565b610e4983610e14565b610e5d610e5582610e36565b848454610db8565b825550505050565b600090565b610e72610e65565b610e7d818484610e40565b505050565b5b81811015610ea157610e96600082610e6a565b600181019050610e83565b5050565b601f821115610ee657610eb781610c75565b610ec084610d9b565b81016020851015610ecf578190505b610ee3610edb85610d9b565b830182610e82565b50505b505050565b600082821c905092915050565b6000610f0960001984600802610eeb565b1980831691505092915050565b6000610f228383610ef8565b9150826002028217905092915050565b610f3b82610823565b67ffffffffffffffff811115610f5457610f536106af565b5b610f5e8254610c44565b610f69828285610ea5565b600060209050601f831160018114610f9c5760008415610f8a578287015190505b610f948582610f16565b865550610ffc565b601f198416610faa86610c75565b60005b82811015610fd257848901518255600182019150602085019450602081019050610fad565b86831015610fef5784890151610feb601f891682610ef8565b8355505b6001600288020188555050505b50505050505056fea26469706673582212205bd6dcb4152f48206a0a2702b164f929e70b8310e3c62133608250c92c5a03c264736f6c63430008120033307865654330343834653263416131663537636439384532413561333733353843383035376533346538307863626465324136333141303234384239324534663633316631324635343236663736644261383438307833343236304644654138423830303143333937346339346236633832353133443736623635343342",
					"opcodes": "PUSH1 0x80 PUSH1 0x40 MSTORE CALLVALUE DUP1 ISZERO PUSH3 0x11 JUMPI PUSH1 0x0 DUP1 REVERT JUMPDEST POP PUSH1 0x40 MLOAD DUP1 PUSH1 0x40 ADD PUSH1 0x40 MSTORE DUP1 PUSH1 0xF DUP2 MSTORE PUSH1 0x20 ADD PUSH32 0x736169383940676D61696C2E636F6D0000000000000000000000000000000000 DUP2 MSTORE POP PUSH1 0x1 PUSH1 0x0 ADD SWAP1 DUP2 PUSH3 0x5B SWAP2 SWAP1 PUSH3 0x67E JUMP JUMPDEST POP PUSH1 0x40 MLOAD DUP1 PUSH1 0x40 ADD PUSH1 0x40 MSTORE DUP1 PUSH1 0xF DUP2 MSTORE PUSH1 0x20 ADD PUSH32 0x6B6972616E40676D61696C2E636F6D0000000000000000000000000000000000 DUP2 MSTORE POP PUSH1 0x5 PUSH1 0x0 ADD SWAP1 DUP2 PUSH3 0xA5 SWAP2 SWAP1 PUSH3 0x67E JUMP JUMPDEST POP PUSH1 0x40 MLOAD DUP1 PUSH1 0x40 ADD PUSH1 0x40 MSTORE DUP1 PUSH1 0x10 DUP2 MSTORE PUSH1 0x20 ADD PUSH32 0x64656C65657040676D61696C2E636F6D00000000000000000000000000000000 DUP2 MSTORE POP PUSH1 0x9 PUSH1 0x0 ADD SWAP1 DUP2 PUSH3 0xEF SWAP2 SWAP1 PUSH3 0x67E JUMP JUMPDEST POP PUSH5 0x2171619B8 PUSH1 0x1 DUP1 ADD DUP2 SWAP1 SSTORE POP PUSH1 0x40 MLOAD DUP1 PUSH1 0x60 ADD PUSH1 0x40 MSTORE DUP1 PUSH1 0x2A DUP2 MSTORE PUSH1 0x20 ADD PUSH3 0x191C PUSH1 0x2A SWAP2 CODECOPY PUSH1 0x1 PUSH1 0x2 ADD SWAP1 DUP2 PUSH3 0x12B SWAP2 SWAP1 PUSH3 0x67E JUMP JUMPDEST POP PUSH1 0x40 MLOAD DUP1 PUSH1 0x40 ADD PUSH1 0x40 MSTORE DUP1 PUSH1 0x3 DUP2 MSTORE PUSH1 0x20 ADD PUSH32 0x3132330000000000000000000000000000000000000000000000000000000000 DUP2 MSTORE POP PUSH1 0x1 PUSH1 0x3 ADD SWAP1 DUP2 PUSH3 0x175 SWAP2 SWAP1 PUSH3 0x67E JUMP JUMPDEST POP PUSH5 0x205E74E4C PUSH1 0x5 PUSH1 0x1 ADD DUP2 SWAP1 SSTORE POP PUSH1 0x40 MLOAD DUP1 PUSH1 0x60 ADD PUSH1 0x40 MSTORE DUP1 PUSH1 0x2A DUP2 MSTORE PUSH1 0x20 ADD PUSH3 0x18C8 PUSH1 0x2A SWAP2 CODECOPY PUSH1 0x5 PUSH1 0x2 ADD SWAP1 DUP2 PUSH3 0x1B2 SWAP2 SWAP1 PUSH3 0x67E JUMP JUMPDEST POP PUSH1 0x40 MLOAD DUP1 PUSH1 0x40 ADD PUSH1 0x40 MSTORE DUP1 PUSH1 0x3 DUP2 MSTORE PUSH1 0x20 ADD PUSH32 0x3132330000000000000000000000000000000000000000000000000000000000 DUP2 MSTORE POP PUSH1 0x5 PUSH1 0x3 ADD SWAP1 DUP2 PUSH3 0x1FC SWAP2 SWAP1 PUSH3 0x67E JUMP JUMPDEST POP PUSH5 0x17666F7E2 PUSH1 0x5 PUSH1 0x1 ADD DUP2 SWAP1 SSTORE POP PUSH1 0x40 MLOAD DUP1 PUSH1 0x60 ADD PUSH1 0x40 MSTORE DUP1 PUSH1 0x2A DUP2 MSTORE PUSH1 0x20 ADD PUSH3 0x18F2 PUSH1 0x2A SWAP2 CODECOPY PUSH1 0x9 PUSH1 0x2 ADD SWAP1 DUP2 PUSH3 0x239 SWAP2 SWAP1 PUSH3 0x67E JUMP JUMPDEST POP PUSH1 0x40 MLOAD DUP1 PUSH1 0x40 ADD PUSH1 0x40 MSTORE DUP1 PUSH1 0x3 DUP2 MSTORE PUSH1 0x20 ADD PUSH32 0x3132330000000000000000000000000000000000000000000000000000000000 DUP2 MSTORE POP PUSH1 0x9 PUSH1 0x3 ADD SWAP1 DUP2 PUSH3 0x283 SWAP2 SWAP1 PUSH3 0x67E JUMP JUMPDEST POP PUSH1 0x0 PUSH1 0x1 SWAP1 DUP1 PUSH1 0x1 DUP2 SLOAD ADD DUP1 DUP3 SSTORE DUP1 SWAP2 POP POP PUSH1 0x1 SWAP1 SUB SWAP1 PUSH1 0x0 MSTORE PUSH1 0x20 PUSH1 0x0 KECCAK256 SWAP1 PUSH1 0x4 MUL ADD PUSH1 0x0 SWAP1 SWAP2 SWAP1 SWAP2 SWAP1 SWAP2 POP PUSH1 0x0 DUP3 ADD DUP2 PUSH1 0x0 ADD SWAP1 DUP2 PUSH3 0x2C7 SWAP2 SWAP1 PUSH3 0x77D JUMP JUMPDEST POP PUSH1 0x1 DUP3 ADD SLOAD DUP2 PUSH1 0x1 ADD SSTORE PUSH1 0x2 DUP3 ADD DUP2 PUSH1 0x2 ADD SWAP1 DUP2 PUSH3 0x2E8 SWAP2 SWAP1 PUSH3 0x77D JUMP JUMPDEST POP PUSH1 0x3 DUP3 ADD DUP2 PUSH1 0x3 ADD SWAP1 DUP2 PUSH3 0x2FF SWAP2 SWAP1 PUSH3 0x77D JUMP JUMPDEST POP POP POP PUSH1 0x0 PUSH1 0x5 SWAP1 DUP1 PUSH1 0x1 DUP2 SLOAD ADD DUP1 DUP3 SSTORE DUP1 SWAP2 POP POP PUSH1 0x1 SWAP1 SUB SWAP1 PUSH1 0x0 MSTORE PUSH1 0x20 PUSH1 0x0 KECCAK256 SWAP1 PUSH1 0x4 MUL ADD PUSH1 0x0 SWAP1 SWAP2 SWAP1 SWAP2 SWAP1 SWAP2 POP PUSH1 0x0 DUP3 ADD DUP2 PUSH1 0x0 ADD SWAP1 DUP2 PUSH3 0x345 SWAP2 SWAP1 PUSH3 0x77D JUMP JUMPDEST POP PUSH1 0x1 DUP3 ADD SLOAD DUP2 PUSH1 0x1 ADD SSTORE PUSH1 0x2 DUP3 ADD DUP2 PUSH1 0x2 ADD SWAP1 DUP2 PUSH3 0x366 SWAP2 SWAP1 PUSH3 0x77D JUMP JUMPDEST POP PUSH1 0x3 DUP3 ADD DUP2 PUSH1 0x3 ADD SWAP1 DUP2 PUSH3 0x37D SWAP2 SWAP1 PUSH3 0x77D JUMP JUMPDEST POP POP POP PUSH1 0x0 PUSH1 0x9 SWAP1 DUP1 PUSH1 0x1 DUP2 SLOAD ADD DUP1 DUP3 SSTORE DUP1 SWAP2 POP POP PUSH1 0x1 SWAP1 SUB SWAP1 PUSH1 0x0 MSTORE PUSH1 0x20 PUSH1 0x0 KECCAK256 SWAP1 PUSH1 0x4 MUL ADD PUSH1 0x0 SWAP1 SWAP2 SWAP1 SWAP2 SWAP1 SWAP2 POP PUSH1 0x0 DUP3 ADD DUP2 PUSH1 0x0 ADD SWAP1 DUP2 PUSH3 0x3C3 SWAP2 SWAP1 PUSH3 0x77D JUMP JUMPDEST POP PUSH1 0x1 DUP3 ADD SLOAD DUP2 PUSH1 0x1 ADD SSTORE PUSH1 0x2 DUP3 ADD DUP2 PUSH1 0x2 ADD SWAP1 DUP2 PUSH3 0x3E4 SWAP2 SWAP1 PUSH3 0x77D JUMP JUMPDEST POP PUSH1 0x3 DUP3 ADD DUP2 PUSH1 0x3 ADD SWAP1 DUP2 PUSH3 0x3FB SWAP2 SWAP1 PUSH3 0x77D JUMP JUMPDEST POP POP POP PUSH3 0x87E JUMP JUMPDEST PUSH1 0x0 DUP2 MLOAD SWAP1 POP SWAP2 SWAP1 POP JUMP JUMPDEST PUSH32 0x4E487B7100000000000000000000000000000000000000000000000000000000 PUSH1 0x0 MSTORE PUSH1 0x41 PUSH1 0x4 MSTORE PUSH1 0x24 PUSH1 0x0 REVERT JUMPDEST PUSH32 0x4E487B7100000000000000000000000000000000000000000000000000000000 PUSH1 0x0 MSTORE PUSH1 0x22 PUSH1 0x4 MSTORE PUSH1 0x24 PUSH1 0x0 REVERT JUMPDEST PUSH1 0x0 PUSH1 0x2 DUP3 DIV SWAP1 POP PUSH1 0x1 DUP3 AND DUP1 PUSH3 0x486 JUMPI PUSH1 0x7F DUP3 AND SWAP2 POP JUMPDEST PUSH1 0x20 DUP3 LT DUP2 SUB PUSH3 0x49C JUMPI PUSH3 0x49B PUSH3 0x43E JUMP JUMPDEST JUMPDEST POP SWAP2 SWAP1 POP JUMP JUMPDEST PUSH1 0x0 DUP2 SWAP1 POP DUP2 PUSH1 0x0 MSTORE PUSH1 0x20 PUSH1 0x0 KECCAK256 SWAP1 POP SWAP2 SWAP1 POP JUMP JUMPDEST PUSH1 0x0 PUSH1 0x20 PUSH1 0x1F DUP4 ADD DIV SWAP1 POP SWAP2 SWAP1 POP JUMP JUMPDEST PUSH1 0x0 DUP3 DUP3 SHL SWAP1 POP SWAP3 SWAP2 POP POP JUMP JUMPDEST PUSH1 0x0 PUSH1 0x8 DUP4 MUL PUSH3 0x506 PUSH32 0xFFFFFFFFFFFFFFFFFFFFFFFFFFFFFFFFFFFFFFFFFFFFFFFFFFFFFFFFFFFFFFFF DUP3 PUSH3 0x4C7 JUMP JUMPDEST PUSH3 0x512 DUP7 DUP4 PUSH3 0x4C7 JUMP JUMPDEST SWAP6 POP DUP1 NOT DUP5 AND SWAP4 POP DUP1 DUP7 AND DUP5 OR SWAP3 POP POP POP SWAP4 SWAP3 POP POP POP JUMP JUMPDEST PUSH1 0x0 DUP2 SWAP1 POP SWAP2 SWAP1 POP JUMP JUMPDEST PUSH1 0x0 DUP2 SWAP1 POP SWAP2 SWAP1 POP JUMP JUMPDEST PUSH1 0x0 PUSH3 0x55F PUSH3 0x559 PUSH3 0x553 DUP5 PUSH3 0x52A JUMP JUMPDEST PUSH3 0x534 JUMP JUMPDEST PUSH3 0x52A JUMP JUMPDEST SWAP1 POP SWAP2 SWAP1 POP JUMP JUMPDEST PUSH1 0x0 DUP2 SWAP1 POP SWAP2 SWAP1 POP JUMP JUMPDEST PUSH3 0x57B DUP4 PUSH3 0x53E JUMP JUMPDEST PUSH3 0x593 PUSH3 0x58A DUP3 PUSH3 0x566 JUMP JUMPDEST DUP5 DUP5 SLOAD PUSH3 0x4D4 JUMP JUMPDEST DUP3 SSTORE POP POP POP POP JUMP JUMPDEST PUSH1 0x0 SWAP1 JUMP JUMPDEST PUSH3 0x5AA PUSH3 0x59B JUMP JUMPDEST PUSH3 0x5B7 DUP2 DUP5 DUP5 PUSH3 0x570 JUMP JUMPDEST POP POP POP JUMP JUMPDEST JUMPDEST DUP2 DUP2 LT ISZERO PUSH3 0x5DF JUMPI PUSH3 0x5D3 PUSH1 0x0 DUP3 PUSH3 0x5A0 JUMP JUMPDEST PUSH1 0x1 DUP2 ADD SWAP1 POP PUSH3 0x5BD JUMP JUMPDEST POP POP JUMP JUMPDEST PUSH1 0x1F DUP3 GT ISZERO PUSH3 0x62E JUMPI PUSH3 0x5F8 DUP2 PUSH3 0x4A2 JUMP JUMPDEST PUSH3 0x603 DUP5 PUSH3 0x4B7 JUMP JUMPDEST DUP2 ADD PUSH1 0x20 DUP6 LT ISZERO PUSH3 0x613 JUMPI DUP2 SWAP1 POP JUMPDEST PUSH3 0x62B PUSH3 0x622 DUP6 PUSH3 0x4B7 JUMP JUMPDEST DUP4 ADD DUP3 PUSH3 0x5BC JUMP JUMPDEST POP POP JUMPDEST POP POP POP JUMP JUMPDEST PUSH1 0x0 DUP3 DUP3 SHR SWAP1 POP SWAP3 SWAP2 POP POP JUMP JUMPDEST PUSH1 0x0 PUSH3 0x653 PUSH1 0x0 NOT DUP5 PUSH1 0x8 MUL PUSH3 0x633 JUMP JUMPDEST NOT DUP1 DUP4 AND SWAP2 POP POP SWAP3 SWAP2 POP POP JUMP JUMPDEST PUSH1 0x0 PUSH3 0x66E DUP4 DUP4 PUSH3 0x640 JUMP JUMPDEST SWAP2 POP DUP3 PUSH1 0x2 MUL DUP3 OR SWAP1 POP SWAP3 SWAP2 POP POP JUMP JUMPDEST PUSH3 0x689 DUP3 PUSH3 0x404 JUMP JUMPDEST PUSH8 0xFFFFFFFFFFFFFFFF DUP2 GT ISZERO PUSH3 0x6A5 JUMPI PUSH3 0x6A4 PUSH3 0x40F JUMP JUMPDEST JUMPDEST PUSH3 0x6B1 DUP3 SLOAD PUSH3 0x46D JUMP JUMPDEST PUSH3 0x6BE DUP3 DUP3 DUP6 PUSH3 0x5E3 JUMP JUMPDEST PUSH1 0x0 PUSH1 0x20 SWAP1 POP PUSH1 0x1F DUP4 GT PUSH1 0x1 DUP2 EQ PUSH3 0x6F6 JUMPI PUSH1 0x0 DUP5 ISZERO PUSH3 0x6E1 JUMPI DUP3 DUP8 ADD MLOAD SWAP1 POP JUMPDEST PUSH3 0x6ED DUP6 DUP3 PUSH3 0x660 JUMP JUMPDEST DUP7 SSTORE POP PUSH3 0x75D JUMP JUMPDEST PUSH1 0x1F NOT DUP5 AND PUSH3 0x706 DUP7 PUSH3 0x4A2 JUMP JUMPDEST PUSH1 0x0 JUMPDEST DUP3 DUP2 LT ISZERO PUSH3 0x730 JUMPI DUP5 DUP10 ADD MLOAD DUP3 SSTORE PUSH1 0x1 DUP3 ADD SWAP2 POP PUSH1 0x20 DUP6 ADD SWAP5 POP PUSH1 0x20 DUP2 ADD SWAP1 POP PUSH3 0x709 JUMP JUMPDEST DUP7 DUP4 LT ISZERO PUSH3 0x750 JUMPI DUP5 DUP10 ADD MLOAD PUSH3 0x74C PUSH1 0x1F DUP10 AND DUP3 PUSH3 0x640 JUMP JUMPDEST DUP4 SSTORE POP JUMPDEST PUSH1 0x1 PUSH1 0x2 DUP9 MUL ADD DUP9 SSTORE POP POP POP JUMPDEST POP POP POP POP POP POP JUMP JUMPDEST PUSH1 0x0 DUP2 SLOAD SWAP1 POP PUSH3 0x776 DUP2 PUSH3 0x46D JUMP JUMPDEST SWAP1 POP SWAP2 SWAP1 POP JUMP JUMPDEST DUP2 DUP2 SUB PUSH3 0x78D JUMPI POP POP PUSH3 0x87C JUMP JUMPDEST PUSH3 0x798 DUP3 PUSH3 0x765 JUMP JUMPDEST PUSH8 0xFFFFFFFFFFFFFFFF DUP2 GT ISZERO PUSH3 0x7B4 JUMPI PUSH3 0x7B3 PUSH3 0x40F JUMP JUMPDEST JUMPDEST PUSH3 0x7C0 DUP3 SLOAD PUSH3 0x46D JUMP JUMPDEST PUSH3 0x7CD DUP3 DUP3 DUP6 PUSH3 0x5E3 JUMP JUMPDEST PUSH1 0x0 PUSH1 0x1F DUP4 GT PUSH1 0x1 DUP2 EQ PUSH3 0x801 JUMPI PUSH1 0x0 DUP5 ISZERO PUSH3 0x7EC JUMPI DUP3 DUP8 ADD SLOAD SWAP1 POP JUMPDEST PUSH3 0x7F8 DUP6 DUP3 PUSH3 0x660 JUMP JUMPDEST DUP7 SSTORE POP PUSH3 0x875 JUMP JUMPDEST PUSH1 0x1F NOT DUP5 AND PUSH3 0x811 DUP8 PUSH3 0x4A2 JUMP JUMPDEST SWAP7 POP PUSH3 0x81E DUP7 PUSH3 0x4A2 JUMP JUMPDEST PUSH1 0x0 JUMPDEST DUP3 DUP2 LT ISZERO PUSH3 0x848 JUMPI DUP5 DUP10 ADD SLOAD DUP3 SSTORE PUSH1 0x1 DUP3 ADD SWAP2 POP PUSH1 0x1 DUP6 ADD SWAP5 POP PUSH1 0x20 DUP2 ADD SWAP1 POP PUSH3 0x821 JUMP JUMPDEST DUP7 DUP4 LT ISZERO PUSH3 0x868 JUMPI DUP5 DUP10 ADD SLOAD PUSH3 0x864 PUSH1 0x1F DUP10 AND DUP3 PUSH3 0x640 JUMP JUMPDEST DUP4 SSTORE POP JUMPDEST PUSH1 0x1 PUSH1 0x2 DUP9 MUL ADD DUP9 SSTORE POP POP POP JUMPDEST POP POP POP POP POP POP JUMPDEST JUMP JUMPDEST PUSH2 0x103A DUP1 PUSH3 0x88E PUSH1 0x0 CODECOPY PUSH1 0x0 RETURN INVALID PUSH1 0x80 PUSH1 0x40 MSTORE CALLVALUE DUP1 ISZERO PUSH2 0x10 JUMPI PUSH1 0x0 DUP1 REVERT JUMPDEST POP PUSH1 0x4 CALLDATASIZE LT PUSH2 0x4C JUMPI PUSH1 0x0 CALLDATALOAD PUSH1 0xE0 SHR DUP1 PUSH4 0x693EC85E EQ PUSH2 0x51 JUMPI DUP1 PUSH4 0x71E5EE5F EQ PUSH2 0x81 JUMPI DUP1 PUSH4 0x84F0A9DC EQ PUSH2 0xB4 JUMPI DUP1 PUSH4 0x9DEB17F5 EQ PUSH2 0xD0 JUMPI JUMPDEST PUSH1 0x0 DUP1 REVERT JUMPDEST PUSH2 0x6B PUSH1 0x4 DUP1 CALLDATASIZE SUB DUP2 ADD SWAP1 PUSH2 0x66 SWAP2 SWAP1 PUSH2 0x7DA JUMP JUMPDEST PUSH2 0x100 JUMP JUMPDEST PUSH1 0x40 MLOAD PUSH2 0x78 SWAP2 SWAP1 PUSH2 0x8A2 JUMP JUMPDEST PUSH1 0x40 MLOAD DUP1 SWAP2 SUB SWAP1 RETURN JUMPDEST PUSH2 0x9B PUSH1 0x4 DUP1 CALLDATASIZE SUB DUP2 ADD SWAP1 PUSH2 0x96 SWAP2 SWAP1 PUSH2 0x8FA JUMP JUMPDEST PUSH2 0x259 JUMP JUMPDEST PUSH1 0x40 MLOAD PUSH2 0xAB SWAP5 SWAP4 SWAP3 SWAP2 SWAP1 PUSH2 0x940 JUMP JUMPDEST PUSH1 0x40 MLOAD DUP1 SWAP2 SUB SWAP1 RETURN JUMPDEST PUSH2 0xCE PUSH1 0x4 DUP1 CALLDATASIZE SUB DUP2 ADD SWAP1 PUSH2 0xC9 SWAP2 SWAP1 PUSH2 0xA9C JUMP JUMPDEST PUSH2 0x431 JUMP JUMPDEST STOP JUMPDEST PUSH2 0xEA PUSH1 0x4 DUP1 CALLDATASIZE SUB DUP2 ADD SWAP1 PUSH2 0xE5 SWAP2 SWAP1 PUSH2 0xAE5 JUMP JUMPDEST PUSH2 0x55D JUMP JUMPDEST PUSH1 0x40 MLOAD PUSH2 0xF7 SWAP2 SWAP1 PUSH2 0xB78 JUMP JUMPDEST PUSH1 0x40 MLOAD DUP1 SWAP2 SUB SWAP1 RETURN JUMPDEST PUSH1 0x60 PUSH1 0x0 JUMPDEST PUSH1 0x0 DUP1 SLOAD SWAP1 POP DUP2 LT ISZERO PUSH2 0x252 JUMPI DUP3 PUSH1 0x40 MLOAD PUSH1 0x20 ADD PUSH2 0x123 SWAP2 SWAP1 PUSH2 0xBCF JUMP JUMPDEST PUSH1 0x40 MLOAD PUSH1 0x20 DUP2 DUP4 SUB SUB DUP2 MSTORE SWAP1 PUSH1 0x40 MSTORE DUP1 MLOAD SWAP1 PUSH1 0x20 ADD KECCAK256 PUSH1 0x0 DUP3 DUP2 SLOAD DUP2 LT PUSH2 0x14D JUMPI PUSH2 0x14C PUSH2 0xBE6 JUMP JUMPDEST JUMPDEST SWAP1 PUSH1 0x0 MSTORE PUSH1 0x20 PUSH1 0x0 KECCAK256 SWAP1 PUSH1 0x4 MUL ADD PUSH1 0x0 ADD PUSH1 0x40 MLOAD PUSH1 0x20 ADD PUSH2 0x16E SWAP2 SWAP1 PUSH2 0xD0D JUMP JUMPDEST PUSH1 0x40 MLOAD PUSH1 0x20 DUP2 DUP4 SUB SUB DUP2 MSTORE SWAP1 PUSH1 0x40 MSTORE DUP1 MLOAD SWAP1 PUSH1 0x20 ADD KECCAK256 SUB PUSH2 0x23F JUMPI PUSH1 0x0 DUP2 DUP2 SLOAD DUP2 LT PUSH2 0x19D JUMPI PUSH2 0x19C PUSH2 0xBE6 JUMP JUMPDEST JUMPDEST SWAP1 PUSH1 0x0 MSTORE PUSH1 0x20 PUSH1 0x0 KECCAK256 SWAP1 PUSH1 0x4 MUL ADD PUSH1 0x2 ADD DUP1 SLOAD PUSH2 0x1B9 SWAP1 PUSH2 0xC44 JUMP JUMPDEST DUP1 PUSH1 0x1F ADD PUSH1 0x20 DUP1 SWAP2 DIV MUL PUSH1 0x20 ADD PUSH1 0x40 MLOAD SWAP1 DUP2 ADD PUSH1 0x40 MSTORE DUP1 SWAP3 SWAP2 SWAP1 DUP2 DUP2 MSTORE PUSH1 0x20 ADD DUP3 DUP1 SLOAD PUSH2 0x1E5 SWAP1 PUSH2 0xC44 JUMP JUMPDEST DUP1 ISZERO PUSH2 0x232 JUMPI DUP1 PUSH1 0x1F LT PUSH2 0x207 JUMPI PUSH2 0x100 DUP1 DUP4 SLOAD DIV MUL DUP4 MSTORE SWAP2 PUSH1 0x20 ADD SWAP2 PUSH2 0x232 JUMP JUMPDEST DUP3 ADD SWAP2 SWAP1 PUSH1 0x0 MSTORE PUSH1 0x20 PUSH1 0x0 KECCAK256 SWAP1 JUMPDEST DUP2 SLOAD DUP2 MSTORE SWAP1 PUSH1 0x1 ADD SWAP1 PUSH1 0x20 ADD DUP1 DUP4 GT PUSH2 0x215 JUMPI DUP3 SWAP1 SUB PUSH1 0x1F AND DUP3 ADD SWAP2 JUMPDEST POP POP POP POP POP SWAP2 POP POP PUSH2 0x254 JUMP JUMPDEST DUP1 DUP1 PUSH2 0x24A SWAP1 PUSH2 0xD53 JUMP JUMPDEST SWAP2 POP POP PUSH2 0x105 JUMP JUMPDEST POP JUMPDEST SWAP2 SWAP1 POP JUMP JUMPDEST PUSH1 0x0 DUP2 DUP2 SLOAD DUP2 LT PUSH2 0x269 JUMPI PUSH1 0x0 DUP1 REVERT JUMPDEST SWAP1 PUSH1 0x0 MSTORE PUSH1 0x20 PUSH1 0x0 KECCAK256 SWAP1 PUSH1 0x4 MUL ADD PUSH1 0x0 SWAP2 POP SWAP1 POP DUP1 PUSH1 0x0 ADD DUP1 SLOAD PUSH2 0x28C SWAP1 PUSH2 0xC44 JUMP JUMPDEST DUP1 PUSH1 0x1F ADD PUSH1 0x20 DUP1 SWAP2 DIV MUL PUSH1 0x20 ADD PUSH1 0x40 MLOAD SWAP1 DUP2 ADD PUSH1 0x40 MSTORE DUP1 SWAP3 SWAP2 SWAP1 DUP2 DUP2 MSTORE PUSH1 0x20 ADD DUP3 DUP1 SLOAD PUSH2 0x2B8 SWAP1 PUSH2 0xC44 JUMP JUMPDEST DUP1 ISZERO PUSH2 0x305 JUMPI DUP1 PUSH1 0x1F LT PUSH2 0x2DA JUMPI PUSH2 0x100 DUP1 DUP4 SLOAD DIV MUL DUP4 MSTORE SWAP2 PUSH1 0x20 ADD SWAP2 PUSH2 0x305 JUMP JUMPDEST DUP3 ADD SWAP2 SWAP1 PUSH1 0x0 MSTORE PUSH1 0x20 PUSH1 0x0 KECCAK256 SWAP1 JUMPDEST DUP2 SLOAD DUP2 MSTORE SWAP1 PUSH1 0x1 ADD SWAP1 PUSH1 0x20 ADD DUP1 DUP4 GT PUSH2 0x2E8 JUMPI DUP3 SWAP1 SUB PUSH1 0x1F AND DUP3 ADD SWAP2 JUMPDEST POP POP POP POP POP SWAP1 DUP1 PUSH1 0x1 ADD SLOAD SWAP1 DUP1 PUSH1 0x2 ADD DUP1 SLOAD PUSH2 0x320 SWAP1 PUSH2 0xC44 JUMP JUMPDEST DUP1 PUSH1 0x1F ADD PUSH1 0x20 DUP1 SWAP2 DIV MUL PUSH1 0x20 ADD PUSH1 0x40 MLOAD SWAP1 DUP2 ADD PUSH1 0x40 MSTORE DUP1 SWAP3 SWAP2 SWAP1 DUP2 DUP2 MSTORE PUSH1 0x20 ADD DUP3 DUP1 SLOAD PUSH2 0x34C SWAP1 PUSH2 0xC44 JUMP JUMPDEST DUP1 ISZERO PUSH2 0x399 JUMPI DUP1 PUSH1 0x1F LT PUSH2 0x36E JUMPI PUSH2 0x100 DUP1 DUP4 SLOAD DIV MUL DUP4 MSTORE SWAP2 PUSH1 0x20 ADD SWAP2 PUSH2 0x399 JUMP JUMPDEST DUP3 ADD SWAP2 SWAP1 PUSH1 0x0 MSTORE PUSH1 0x20 PUSH1 0x0 KECCAK256 SWAP1 JUMPDEST DUP2 SLOAD DUP2 MSTORE SWAP1 PUSH1 0x1 ADD SWAP1 PUSH1 0x20 ADD DUP1 DUP4 GT PUSH2 0x37C JUMPI DUP3 SWAP1 SUB PUSH1 0x1F AND DUP3 ADD SWAP2 JUMPDEST POP POP POP POP POP SWAP1 DUP1 PUSH1 0x3 ADD DUP1 SLOAD PUSH2 0x3AE SWAP1 PUSH2 0xC44 JUMP JUMPDEST DUP1 PUSH1 0x1F ADD PUSH1 0x20 DUP1 SWAP2 DIV MUL PUSH1 0x20 ADD PUSH1 0x40 MLOAD SWAP1 DUP2 ADD PUSH1 0x40 MSTORE DUP1 SWAP3 SWAP2 SWAP1 DUP2 DUP2 MSTORE PUSH1 0x20 ADD DUP3 DUP1 SLOAD PUSH2 0x3DA SWAP1 PUSH2 0xC44 JUMP JUMPDEST DUP1 ISZERO PUSH2 0x427 JUMPI DUP1 PUSH1 0x1F LT PUSH2 0x3FC JUMPI PUSH2 0x100 DUP1 DUP4 SLOAD DIV MUL DUP4 MSTORE SWAP2 PUSH1 0x20 ADD SWAP2 PUSH2 0x427 JUMP JUMPDEST DUP3 ADD SWAP2 SWAP1 PUSH1 0x0 MSTORE PUSH1 0x20 PUSH1 0x0 KECCAK256 SWAP1 JUMPDEST DUP2 SLOAD DUP2 MSTORE SWAP1 PUSH1 0x1 ADD SWAP1 PUSH1 0x20 ADD DUP1 DUP4 GT PUSH2 0x40A JUMPI DUP3 SWAP1 SUB PUSH1 0x1F AND DUP3 ADD SWAP2 JUMPDEST POP POP POP POP POP SWAP1 POP DUP5 JUMP JUMPDEST PUSH1 0x0 DUP1 JUMPDEST PUSH1 0x0 DUP1 SLOAD SWAP1 POP DUP2 LT ISZERO PUSH2 0x4D5 JUMPI DUP3 PUSH1 0x0 ADD MLOAD PUSH1 0x40 MLOAD PUSH1 0x20 ADD PUSH2 0x457 SWAP2 SWAP1 PUSH2 0xBCF JUMP JUMPDEST PUSH1 0x40 MLOAD PUSH1 0x20 DUP2 DUP4 SUB SUB DUP2 MSTORE SWAP1 PUSH1 0x40 MSTORE DUP1 MLOAD SWAP1 PUSH1 0x20 ADD KECCAK256 PUSH1 0x0 DUP3 DUP2 SLOAD DUP2 LT PUSH2 0x481 JUMPI PUSH2 0x480 PUSH2 0xBE6 JUMP JUMPDEST JUMPDEST SWAP1 PUSH1 0x0 MSTORE PUSH1 0x20 PUSH1 0x0 KECCAK256 SWAP1 PUSH1 0x4 MUL ADD PUSH1 0x0 ADD PUSH1 0x40 MLOAD PUSH1 0x20 ADD PUSH2 0x4A2 SWAP2 SWAP1 PUSH2 0xD0D JUMP JUMPDEST PUSH1 0x40 MLOAD PUSH1 0x20 DUP2 DUP4 SUB SUB DUP2 MSTORE SWAP1 PUSH1 0x40 MSTORE DUP1 MLOAD SWAP1 PUSH1 0x20 ADD KECCAK256 SUB PUSH2 0x4C2 JUMPI PUSH1 0x1 SWAP2 POP JUMPDEST DUP1 DUP1 PUSH2 0x4CD SWAP1 PUSH2 0xD53 JUMP JUMPDEST SWAP2 POP POP PUSH2 0x435 JUMP JUMPDEST POP PUSH1 0x0 DUP2 SUB PUSH2 0x559 JUMPI PUSH1 0x0 DUP3 SWAP1 DUP1 PUSH1 0x1 DUP2 SLOAD ADD DUP1 DUP3 SSTORE DUP1 SWAP2 POP POP PUSH1 0x1 SWAP1 SUB SWAP1 PUSH1 0x0 MSTORE PUSH1 0x20 PUSH1 0x0 KECCAK256 SWAP1 PUSH1 0x4 MUL ADD PUSH1 0x0 SWAP1 SWAP2 SWAP1 SWAP2 SWAP1 SWAP2 POP PUSH1 0x0 DUP3 ADD MLOAD DUP2 PUSH1 0x0 ADD SWAP1 DUP2 PUSH2 0x51F SWAP2 SWAP1 PUSH2 0xF32 JUMP JUMPDEST POP PUSH1 0x20 DUP3 ADD MLOAD DUP2 PUSH1 0x1 ADD SSTORE PUSH1 0x40 DUP3 ADD MLOAD DUP2 PUSH1 0x2 ADD SWAP1 DUP2 PUSH2 0x53F SWAP2 SWAP1 PUSH2 0xF32 JUMP JUMPDEST POP PUSH1 0x60 DUP3 ADD MLOAD DUP2 PUSH1 0x3 ADD SWAP1 DUP2 PUSH2 0x555 SWAP2 SWAP1 PUSH2 0xF32 JUMP JUMPDEST POP POP POP JUMPDEST POP POP JUMP JUMPDEST PUSH1 0x0 DUP1 PUSH1 0x0 SWAP1 POP PUSH1 0x0 DUP1 SLOAD SWAP1 POP DUP2 LT ISZERO PUSH2 0x678 JUMPI DUP4 PUSH1 0x40 MLOAD PUSH1 0x20 ADD PUSH2 0x582 SWAP2 SWAP1 PUSH2 0xBCF JUMP JUMPDEST PUSH1 0x40 MLOAD PUSH1 0x20 DUP2 DUP4 SUB SUB DUP2 MSTORE SWAP1 PUSH1 0x40 MSTORE DUP1 MLOAD SWAP1 PUSH1 0x20 ADD KECCAK256 PUSH1 0x0 DUP3 DUP2 SLOAD DUP2 LT PUSH2 0x5AC JUMPI PUSH2 0x5AB PUSH2 0xBE6 JUMP JUMPDEST JUMPDEST SWAP1 PUSH1 0x0 MSTORE PUSH1 0x20 PUSH1 0x0 KECCAK256 SWAP1 PUSH1 0x4 MUL ADD PUSH1 0x0 ADD PUSH1 0x40 MLOAD PUSH1 0x20 ADD PUSH2 0x5CD SWAP2 SWAP1 PUSH2 0xD0D JUMP JUMPDEST PUSH1 0x40 MLOAD PUSH1 0x20 DUP2 DUP4 SUB SUB DUP2 MSTORE SWAP1 PUSH1 0x40 MSTORE DUP1 MLOAD SWAP1 PUSH1 0x20 ADD KECCAK256 EQ DUP1 ISZERO PUSH2 0x65F JUMPI POP DUP3 PUSH1 0x40 MLOAD PUSH1 0x20 ADD PUSH2 0x5FC SWAP2 SWAP1 PUSH2 0xBCF JUMP JUMPDEST PUSH1 0x40 MLOAD PUSH1 0x20 DUP2 DUP4 SUB SUB DUP2 MSTORE SWAP1 PUSH1 0x40 MSTORE DUP1 MLOAD SWAP1 PUSH1 0x20 ADD KECCAK256 PUSH1 0x0 DUP3 DUP2 SLOAD DUP2 LT PUSH2 0x626 JUMPI PUSH2 0x625 PUSH2 0xBE6 JUMP JUMPDEST JUMPDEST SWAP1 PUSH1 0x0 MSTORE PUSH1 0x20 PUSH1 0x0 KECCAK256 SWAP1 PUSH1 0x4 MUL ADD PUSH1 0x3 ADD PUSH1 0x40 MLOAD PUSH1 0x20 ADD PUSH2 0x647 SWAP2 SWAP1 PUSH2 0xD0D JUMP JUMPDEST PUSH1 0x40 MLOAD PUSH1 0x20 DUP2 DUP4 SUB SUB DUP2 MSTORE SWAP1 PUSH1 0x40 MSTORE DUP1 MLOAD SWAP1 PUSH1 0x20 ADD KECCAK256 EQ JUMPDEST ISZERO PUSH2 0x66E JUMPI PUSH1 0x1 SWAP2 POP POP PUSH2 0x67A JUMP JUMPDEST PUSH1 0x0 SWAP2 POP POP PUSH2 0x67A JUMP JUMPDEST POP JUMPDEST SWAP3 SWAP2 POP POP JUMP JUMPDEST PUSH1 0x0 PUSH1 0x40 MLOAD SWAP1 POP SWAP1 JUMP JUMPDEST PUSH1 0x0 DUP1 REVERT JUMPDEST PUSH1 0x0 DUP1 REVERT JUMPDEST PUSH1 0x0 DUP1 REVERT JUMPDEST PUSH1 0x0 DUP1 REVERT JUMPDEST PUSH1 0x0 PUSH1 0x1F NOT PUSH1 0x1F DUP4 ADD AND SWAP1 POP SWAP2 SWAP1 POP JUMP JUMPDEST PUSH32 0x4E487B7100000000000000000000000000000000000000000000000000000000 PUSH1 0x0 MSTORE PUSH1 0x41 PUSH1 0x4 MSTORE PUSH1 0x24 PUSH1 0x0 REVERT JUMPDEST PUSH2 0x6E7 DUP3 PUSH2 0x69E JUMP JUMPDEST DUP2 ADD DUP2 DUP2 LT PUSH8 0xFFFFFFFFFFFFFFFF DUP3 GT OR ISZERO PUSH2 0x706 JUMPI PUSH2 0x705 PUSH2 0x6AF JUMP JUMPDEST JUMPDEST DUP1 PUSH1 0x40 MSTORE POP POP POP JUMP JUMPDEST PUSH1 0x0 PUSH2 0x719 PUSH2 0x680 JUMP JUMPDEST SWAP1 POP PUSH2 0x725 DUP3 DUP3 PUSH2 0x6DE JUMP JUMPDEST SWAP2 SWAP1 POP JUMP JUMPDEST PUSH1 0x0 PUSH8 0xFFFFFFFFFFFFFFFF DUP3 GT ISZERO PUSH2 0x745 JUMPI PUSH2 0x744 PUSH2 0x6AF JUMP JUMPDEST JUMPDEST PUSH2 0x74E DUP3 PUSH2 0x69E JUMP JUMPDEST SWAP1 POP PUSH1 0x20 DUP2 ADD SWAP1 POP SWAP2 SWAP1 POP JUMP JUMPDEST DUP3 DUP2 DUP4 CALLDATACOPY PUSH1 0x0 DUP4 DUP4 ADD MSTORE POP POP POP JUMP JUMPDEST PUSH1 0x0 PUSH2 0x77D PUSH2 0x778 DUP5 PUSH2 0x72A JUMP JUMPDEST PUSH2 0x70F JUMP JUMPDEST SWAP1 POP DUP3 DUP2 MSTORE PUSH1 0x20 DUP2 ADD DUP5 DUP5 DUP5 ADD GT ISZERO PUSH2 0x799 JUMPI PUSH2 0x798 PUSH2 0x699 JUMP JUMPDEST JUMPDEST PUSH2 0x7A4 DUP5 DUP3 DUP6 PUSH2 0x75B JUMP JUMPDEST POP SWAP4 SWAP3 POP POP POP JUMP JUMPDEST PUSH1 0x0 DUP3 PUSH1 0x1F DUP4 ADD SLT PUSH2 0x7C1 JUMPI PUSH2 0x7C0 PUSH2 0x694 JUMP JUMPDEST JUMPDEST DUP2 CALLDATALOAD PUSH2 0x7D1 DUP5 DUP3 PUSH1 0x20 DUP7 ADD PUSH2 0x76A JUMP JUMPDEST SWAP2 POP POP SWAP3 SWAP2 POP POP JUMP JUMPDEST PUSH1 0x0 PUSH1 0x20 DUP3 DUP5 SUB SLT ISZERO PUSH2 0x7F0 JUMPI PUSH2 0x7EF PUSH2 0x68A JUMP JUMPDEST JUMPDEST PUSH1 0x0 DUP3 ADD CALLDATALOAD PUSH8 0xFFFFFFFFFFFFFFFF DUP2 GT ISZERO PUSH2 0x80E JUMPI PUSH2 0x80D PUSH2 0x68F JUMP JUMPDEST JUMPDEST PUSH2 0x81A DUP5 DUP3 DUP6 ADD PUSH2 0x7AC JUMP JUMPDEST SWAP2 POP POP SWAP3 SWAP2 POP POP JUMP JUMPDEST PUSH1 0x0 DUP2 MLOAD SWAP1 POP SWAP2 SWAP1 POP JUMP JUMPDEST PUSH1 0x0 DUP3 DUP3 MSTORE PUSH1 0x20 DUP3 ADD SWAP1 POP SWAP3 SWAP2 POP POP JUMP JUMPDEST PUSH1 0x0 JUMPDEST DUP4 DUP2 LT ISZERO PUSH2 0x85D JUMPI DUP1 DUP3 ADD MLOAD DUP2 DUP5 ADD MSTORE PUSH1 0x20 DUP2 ADD SWAP1 POP PUSH2 0x842 JUMP JUMPDEST PUSH1 0x0 DUP5 DUP5 ADD MSTORE POP POP POP POP JUMP JUMPDEST PUSH1 0x0 PUSH2 0x874 DUP3 PUSH2 0x823 JUMP JUMPDEST PUSH2 0x87E DUP2 DUP6 PUSH2 0x82E JUMP JUMPDEST SWAP4 POP PUSH2 0x88E DUP2 DUP6 PUSH1 0x20 DUP7 ADD PUSH2 0x83F JUMP JUMPDEST PUSH2 0x897 DUP2 PUSH2 0x69E JUMP JUMPDEST DUP5 ADD SWAP2 POP POP SWAP3 SWAP2 POP POP JUMP JUMPDEST PUSH1 0x0 PUSH1 0x20 DUP3 ADD SWAP1 POP DUP2 DUP2 SUB PUSH1 0x0 DUP4 ADD MSTORE PUSH2 0x8BC DUP2 DUP5 PUSH2 0x869 JUMP JUMPDEST SWAP1 POP SWAP3 SWAP2 POP POP JUMP JUMPDEST PUSH1 0x0 DUP2 SWAP1 POP SWAP2 SWAP1 POP JUMP JUMPDEST PUSH2 0x8D7 DUP2 PUSH2 0x8C4 JUMP JUMPDEST DUP2 EQ PUSH2 0x8E2 JUMPI PUSH1 0x0 DUP1 REVERT JUMPDEST POP JUMP JUMPDEST PUSH1 0x0 DUP2 CALLDATALOAD SWAP1 POP PUSH2 0x8F4 DUP2 PUSH2 0x8CE JUMP JUMPDEST SWAP3 SWAP2 POP POP JUMP JUMPDEST PUSH1 0x0 PUSH1 0x20 DUP3 DUP5 SUB SLT ISZERO PUSH2 0x910 JUMPI PUSH2 0x90F PUSH2 0x68A JUMP JUMPDEST JUMPDEST PUSH1 0x0 PUSH2 0x91E DUP5 DUP3 DUP6 ADD PUSH2 0x8E5 JUMP JUMPDEST SWAP2 POP POP SWAP3 SWAP2 POP POP JUMP JUMPDEST PUSH1 0x0 DUP2 SWAP1 POP SWAP2 SWAP1 POP JUMP JUMPDEST PUSH2 0x93A DUP2 PUSH2 0x927 JUMP JUMPDEST DUP3 MSTORE POP POP JUMP JUMPDEST PUSH1 0x0 PUSH1 0x80 DUP3 ADD SWAP1 POP DUP2 DUP2 SUB PUSH1 0x0 DUP4 ADD MSTORE PUSH2 0x95A DUP2 DUP8 PUSH2 0x869 JUMP JUMPDEST SWAP1 POP PUSH2 0x969 PUSH1 0x20 DUP4 ADD DUP7 PUSH2 0x931 JUMP JUMPDEST DUP2 DUP2 SUB PUSH1 0x40 DUP4 ADD MSTORE PUSH2 0x97B DUP2 DUP6 PUSH2 0x869 JUMP JUMPDEST SWAP1 POP DUP2 DUP2 SUB PUSH1 0x60 DUP4 ADD MSTORE PUSH2 0x98F DUP2 DUP5 PUSH2 0x869 JUMP JUMPDEST SWAP1 POP SWAP6 SWAP5 POP POP POP POP POP JUMP JUMPDEST PUSH1 0x0 DUP1 REVERT JUMPDEST PUSH1 0x0 DUP1 REVERT JUMPDEST PUSH2 0x9AD DUP2 PUSH2 0x927 JUMP JUMPDEST DUP2 EQ PUSH2 0x9B8 JUMPI PUSH1 0x0 DUP1 REVERT JUMPDEST POP JUMP JUMPDEST PUSH1 0x0 DUP2 CALLDATALOAD SWAP1 POP PUSH2 0x9CA DUP2 PUSH2 0x9A4 JUMP JUMPDEST SWAP3 SWAP2 POP POP JUMP JUMPDEST PUSH1 0x0 PUSH1 0x80 DUP3 DUP5 SUB SLT ISZERO PUSH2 0x9E6 JUMPI PUSH2 0x9E5 PUSH2 0x99A JUMP JUMPDEST JUMPDEST PUSH2 0x9F0 PUSH1 0x80 PUSH2 0x70F JUMP JUMPDEST SWAP1 POP PUSH1 0x0 DUP3 ADD CALLDATALOAD PUSH8 0xFFFFFFFFFFFFFFFF DUP2 GT ISZERO PUSH2 0xA10 JUMPI PUSH2 0xA0F PUSH2 0x99F JUMP JUMPDEST JUMPDEST PUSH2 0xA1C DUP5 DUP3 DUP6 ADD PUSH2 0x7AC JUMP JUMPDEST PUSH1 0x0 DUP4 ADD MSTORE POP PUSH1 0x20 PUSH2 0xA30 DUP5 DUP3 DUP6 ADD PUSH2 0x9BB JUMP JUMPDEST PUSH1 0x20 DUP4 ADD MSTORE POP PUSH1 0x40 DUP3 ADD CALLDATALOAD PUSH8 0xFFFFFFFFFFFFFFFF DUP2 GT ISZERO PUSH2 0xA54 JUMPI PUSH2 0xA53 PUSH2 0x99F JUMP JUMPDEST JUMPDEST PUSH2 0xA60 DUP5 DUP3 DUP6 ADD PUSH2 0x7AC JUMP JUMPDEST PUSH1 0x40 DUP4 ADD MSTORE POP PUSH1 0x60 DUP3 ADD CALLDATALOAD PUSH8 0xFFFFFFFFFFFFFFFF DUP2 GT ISZERO PUSH2 0xA84 JUMPI PUSH2 0xA83 PUSH2 0x99F JUMP JUMPDEST JUMPDEST PUSH2 0xA90 DUP5 DUP3 DUP6 ADD PUSH2 0x7AC JUMP JUMPDEST PUSH1 0x60 DUP4 ADD MSTORE POP SWAP3 SWAP2 POP POP JUMP JUMPDEST PUSH1 0x0 PUSH1 0x20 DUP3 DUP5 SUB SLT ISZERO PUSH2 0xAB2 JUMPI PUSH2 0xAB1 PUSH2 0x68A JUMP JUMPDEST JUMPDEST PUSH1 0x0 DUP3 ADD CALLDATALOAD PUSH8 0xFFFFFFFFFFFFFFFF DUP2 GT ISZERO PUSH2 0xAD0 JUMPI PUSH2 0xACF PUSH2 0x68F JUMP JUMPDEST JUMPDEST PUSH2 0xADC DUP5 DUP3 DUP6 ADD PUSH2 0x9D0 JUMP JUMPDEST SWAP2 POP POP SWAP3 SWAP2 POP POP JUMP JUMPDEST PUSH1 0x0 DUP1 PUSH1 0x40 DUP4 DUP6 SUB SLT ISZERO PUSH2 0xAFC JUMPI PUSH2 0xAFB PUSH2 0x68A JUMP JUMPDEST JUMPDEST PUSH1 0x0 DUP4 ADD CALLDATALOAD PUSH8 0xFFFFFFFFFFFFFFFF DUP2 GT ISZERO PUSH2 0xB1A JUMPI PUSH2 0xB19 PUSH2 0x68F JUMP JUMPDEST JUMPDEST PUSH2 0xB26 DUP6 DUP3 DUP7 ADD PUSH2 0x7AC JUMP JUMPDEST SWAP3 POP POP PUSH1 0x20 DUP4 ADD CALLDATALOAD PUSH8 0xFFFFFFFFFFFFFFFF DUP2 GT ISZERO PUSH2 0xB47 JUMPI PUSH2 0xB46 PUSH2 0x68F JUMP JUMPDEST JUMPDEST PUSH2 0xB53 DUP6 DUP3 DUP7 ADD PUSH2 0x7AC JUMP JUMPDEST SWAP2 POP POP SWAP3 POP SWAP3 SWAP1 POP JUMP JUMPDEST PUSH1 0x0 DUP2 ISZERO ISZERO SWAP1 POP SWAP2 SWAP1 POP JUMP JUMPDEST PUSH2 0xB72 DUP2 PUSH2 0xB5D JUMP JUMPDEST DUP3 MSTORE POP POP JUMP JUMPDEST PUSH1 0x0 PUSH1 0x20 DUP3 ADD SWAP1 POP PUSH2 0xB8D PUSH1 0x0 DUP4 ADD DUP5 PUSH2 0xB69 JUMP JUMPDEST SWAP3 SWAP2 POP POP JUMP JUMPDEST PUSH1 0x0 DUP2 SWAP1 POP SWAP3 SWAP2 POP POP JUMP JUMPDEST PUSH1 0x0 PUSH2 0xBA9 DUP3 PUSH2 0x823 JUMP JUMPDEST PUSH2 0xBB3 DUP2 DUP6 PUSH2 0xB93 JUMP JUMPDEST SWAP4 POP PUSH2 0xBC3 DUP2 DUP6 PUSH1 0x20 DUP7 ADD PUSH2 0x83F JUMP JUMPDEST DUP1 DUP5 ADD SWAP2 POP POP SWAP3 SWAP2 POP POP JUMP JUMPDEST PUSH1 0x0 PUSH2 0xBDB DUP3 DUP5 PUSH2 0xB9E JUMP JUMPDEST SWAP2 POP DUP2 SWAP1 POP SWAP3 SWAP2 POP POP JUMP JUMPDEST PUSH32 0x4E487B7100000000000000000000000000000000000000000000000000000000 PUSH1 0x0 MSTORE PUSH1 0x32 PUSH1 0x4 MSTORE PUSH1 0x24 PUSH1 0x0 REVERT JUMPDEST PUSH32 0x4E487B7100000000000000000000000000000000000000000000000000000000 PUSH1 0x0 MSTORE PUSH1 0x22 PUSH1 0x4 MSTORE PUSH1 0x24 PUSH1 0x0 REVERT JUMPDEST PUSH1 0x0 PUSH1 0x2 DUP3 DIV SWAP1 POP PUSH1 0x1 DUP3 AND DUP1 PUSH2 0xC5C JUMPI PUSH1 0x7F DUP3 AND SWAP2 POP JUMPDEST PUSH1 0x20 DUP3 LT DUP2 SUB PUSH2 0xC6F JUMPI PUSH2 0xC6E PUSH2 0xC15 JUMP JUMPDEST JUMPDEST POP SWAP2 SWAP1 POP JUMP JUMPDEST PUSH1 0x0 DUP2 SWAP1 POP DUP2 PUSH1 0x0 MSTORE PUSH1 0x20 PUSH1 0x0 KECCAK256 SWAP1 POP SWAP2 SWAP1 POP JUMP JUMPDEST PUSH1 0x0 DUP2 SLOAD PUSH2 0xC97 DUP2 PUSH2 0xC44 JUMP JUMPDEST PUSH2 0xCA1 DUP2 DUP7 PUSH2 0xB93 JUMP JUMPDEST SWAP5 POP PUSH1 0x1 DUP3 AND PUSH1 0x0 DUP2 EQ PUSH2 0xCBC JUMPI PUSH1 0x1 DUP2 EQ PUSH2 0xCD1 JUMPI PUSH2 0xD04 JUMP JUMPDEST PUSH1 0xFF NOT DUP4 AND DUP7 MSTORE DUP2 ISZERO ISZERO DUP3 MUL DUP7 ADD SWAP4 POP PUSH2 0xD04 JUMP JUMPDEST PUSH2 0xCDA DUP6 PUSH2 0xC75 JUMP JUMPDEST PUSH1 0x0 JUMPDEST DUP4 DUP2 LT ISZERO PUSH2 0xCFC JUMPI DUP2 SLOAD DUP2 DUP10 ADD MSTORE PUSH1 0x1 DUP3 ADD SWAP2 POP PUSH1 0x20 DUP2 ADD SWAP1 POP PUSH2 0xCDD JUMP JUMPDEST DUP4 DUP9 ADD SWAP6 POP POP POP JUMPDEST POP POP POP SWAP3 SWAP2 POP POP JUMP JUMPDEST PUSH1 0x0 PUSH2 0xD19 DUP3 DUP5 PUSH2 0xC8A JUMP JUMPDEST SWAP2 POP DUP2 SWAP1 POP SWAP3 SWAP2 POP POP JUMP JUMPDEST PUSH32 0x4E487B7100000000000000000000000000000000000000000000000000000000 PUSH1 0x0 MSTORE PUSH1 0x11 PUSH1 0x4 MSTORE PUSH1 0x24 PUSH1 0x0 REVERT JUMPDEST PUSH1 0x0 PUSH2 0xD5E DUP3 PUSH2 0x8C4 JUMP JUMPDEST SWAP2 POP PUSH32 0xFFFFFFFFFFFFFFFFFFFFFFFFFFFFFFFFFFFFFFFFFFFFFFFFFFFFFFFFFFFFFFFF DUP3 SUB PUSH2 0xD90 JUMPI PUSH2 0xD8F PUSH2 0xD24 JUMP JUMPDEST JUMPDEST PUSH1 0x1 DUP3 ADD SWAP1 POP SWAP2 SWAP1 POP JUMP JUMPDEST PUSH1 0x0 PUSH1 0x20 PUSH1 0x1F DUP4 ADD DIV SWAP1 POP SWAP2 SWAP1 POP JUMP JUMPDEST PUSH1 0x0 DUP3 DUP3 SHL SWAP1 POP SWAP3 SWAP2 POP POP JUMP JUMPDEST PUSH1 0x0 PUSH1 0x8 DUP4 MUL PUSH2 0xDE8 PUSH32 0xFFFFFFFFFFFFFFFFFFFFFFFFFFFFFFFFFFFFFFFFFFFFFFFFFFFFFFFFFFFFFFFF DUP3 PUSH2 0xDAB JUMP JUMPDEST PUSH2 0xDF2 DUP7 DUP4 PUSH2 0xDAB JUMP JUMPDEST SWAP6 POP DUP1 NOT DUP5 AND SWAP4 POP DUP1 DUP7 AND DUP5 OR SWAP3 POP POP POP SWAP4 SWAP3 POP POP POP JUMP JUMPDEST PUSH1 0x0 DUP2 SWAP1 POP SWAP2 SWAP1 POP JUMP JUMPDEST PUSH1 0x0 PUSH2 0xE2F PUSH2 0xE2A PUSH2 0xE25 DUP5 PUSH2 0x8C4 JUMP JUMPDEST PUSH2 0xE0A JUMP JUMPDEST PUSH2 0x8C4 JUMP JUMPDEST SWAP1 POP SWAP2 SWAP1 POP JUMP JUMPDEST PUSH1 0x0 DUP2 SWAP1 POP SWAP2 SWAP1 POP JUMP JUMPDEST PUSH2 0xE49 DUP4 PUSH2 0xE14 JUMP JUMPDEST PUSH2 0xE5D PUSH2 0xE55 DUP3 PUSH2 0xE36 JUMP JUMPDEST DUP5 DUP5 SLOAD PUSH2 0xDB8 JUMP JUMPDEST DUP3 SSTORE POP POP POP POP JUMP JUMPDEST PUSH1 0x0 SWAP1 JUMP JUMPDEST PUSH2 0xE72 PUSH2 0xE65 JUMP JUMPDEST PUSH2 0xE7D DUP2 DUP5 DUP5 PUSH2 0xE40 JUMP JUMPDEST POP POP POP JUMP JUMPDEST JUMPDEST DUP2 DUP2 LT ISZERO PUSH2 0xEA1 JUMPI PUSH2 0xE96 PUSH1 0x0 DUP3 PUSH2 0xE6A JUMP JUMPDEST PUSH1 0x1 DUP2 ADD SWAP1 POP PUSH2 0xE83 JUMP JUMPDEST POP POP JUMP JUMPDEST PUSH1 0x1F DUP3 GT ISZERO PUSH2 0xEE6 JUMPI PUSH2 0xEB7 DUP2 PUSH2 0xC75 JUMP JUMPDEST PUSH2 0xEC0 DUP5 PUSH2 0xD9B JUMP JUMPDEST DUP2 ADD PUSH1 0x20 DUP6 LT ISZERO PUSH2 0xECF JUMPI DUP2 SWAP1 POP JUMPDEST PUSH2 0xEE3 PUSH2 0xEDB DUP6 PUSH2 0xD9B JUMP JUMPDEST DUP4 ADD DUP3 PUSH2 0xE82 JUMP JUMPDEST POP POP JUMPDEST POP POP POP JUMP JUMPDEST PUSH1 0x0 DUP3 DUP3 SHR SWAP1 POP SWAP3 SWAP2 POP POP JUMP JUMPDEST PUSH1 0x0 PUSH2 0xF09 PUSH1 0x0 NOT DUP5 PUSH1 0x8 MUL PUSH2 0xEEB JUMP JUMPDEST NOT DUP1 DUP4 AND SWAP2 POP POP SWAP3 SWAP2 POP POP JUMP JUMPDEST PUSH1 0x0 PUSH2 0xF22 DUP4 DUP4 PUSH2 0xEF8 JUMP JUMPDEST SWAP2 POP DUP3 PUSH1 0x2 MUL DUP3 OR SWAP1 POP SWAP3 SWAP2 POP POP JUMP JUMPDEST PUSH2 0xF3B DUP3 PUSH2 0x823 JUMP JUMPDEST PUSH8 0xFFFFFFFFFFFFFFFF DUP2 GT ISZERO PUSH2 0xF54 JUMPI PUSH2 0xF53 PUSH2 0x6AF JUMP JUMPDEST JUMPDEST PUSH2 0xF5E DUP3 SLOAD PUSH2 0xC44 JUMP JUMPDEST PUSH2 0xF69 DUP3 DUP3 DUP6 PUSH2 0xEA5 JUMP JUMPDEST PUSH1 0x0 PUSH1 0x20 SWAP1 POP PUSH1 0x1F DUP4 GT PUSH1 0x1 DUP2 EQ PUSH2 0xF9C JUMPI PUSH1 0x0 DUP5 ISZERO PUSH2 0xF8A JUMPI DUP3 DUP8 ADD MLOAD SWAP1 POP JUMPDEST PUSH2 0xF94 DUP6 DUP3 PUSH2 0xF16 JUMP JUMPDEST DUP7 SSTORE POP PUSH2 0xFFC JUMP JUMPDEST PUSH1 0x1F NOT DUP5 AND PUSH2 0xFAA DUP7 PUSH2 0xC75 JUMP JUMPDEST PUSH1 0x0 JUMPDEST DUP3 DUP2 LT ISZERO PUSH2 0xFD2 JUMPI DUP5 DUP10 ADD MLOAD DUP3 SSTORE PUSH1 0x1 DUP3 ADD SWAP2 POP PUSH1 0x20 DUP6 ADD SWAP5 POP PUSH1 0x20 DUP2 ADD SWAP1 POP PUSH2 0xFAD JUMP JUMPDEST DUP7 DUP4 LT ISZERO PUSH2 0xFEF JUMPI DUP5 DUP10 ADD MLOAD PUSH2 0xFEB PUSH1 0x1F DUP10 AND DUP3 PUSH2 0xEF8 JUMP JUMPDEST DUP4 SSTORE POP JUMPDEST PUSH1 0x1 PUSH1 0x2 DUP9 MUL ADD DUP9 SSTORE POP POP POP JUMPDEST POP POP POP POP POP POP JUMP INVALID LOG2 PUSH5 0x6970667358 0x22 SLT KECCAK256 JUMPDEST 0xD6 0xDC 0xB4 ISZERO 0x2F BASEFEE KECCAK256 PUSH11 0xA2702B164F929E70B8310 0xE3 0xC6 0x21 CALLER PUSH1 0x82 POP 0xC9 0x2C GAS SUB 0xC2 PUSH5 0x736F6C6343 STOP ADDMOD SLT STOP CALLER ADDRESS PUSH25 0x65654330343834653263416131663537636439384532413561 CALLER CALLDATACOPY CALLER CALLDATALOAD CODESIZE NUMBER CODESIZE ADDRESS CALLDATALOAD CALLDATACOPY PUSH6 0x333465383078 PUSH4 0x62646532 COINBASE CALLDATASIZE CALLER BALANCE COINBASE ADDRESS ORIGIN CALLVALUE CODESIZE TIMESTAMP CODECOPY ORIGIN GASLIMIT CALLVALUE PUSH7 0x36333166313246 CALLDATALOAD CALLVALUE ORIGIN CALLDATASIZE PUSH7 0x37366442613834 CODESIZE ADDRESS PUSH25 0x33343236304644654138423830303143333937346339346236 PUSH4 0x38323531 CALLER PREVRANDAO CALLDATACOPY CALLDATASIZE PUSH3 0x363534 CALLER TIMESTAMP "
				},
				"gasEstimates": {
					"creation": {
						"codeDepositCost": "830800",
						"executionCost": "infinite",
						"totalCost": "infinite"
					},
					"external": {
						"arr(uint256)": "infinite",
						"get(string)": "infinite",
						"register((string,int256,string,string))": "infinite",
						"verify(string,string)": "infinite"
					}
				},
				"methodIdentifiers": {
					"arr(uint256)": "71e5ee5f",
					"get(string)": "693ec85e",
					"register((string,int256,string,string))": "84f0a9dc",
					"verify(string,string)": "9deb17f5"
				}
			},
			"storageLayout": {
				"storage": [
					{
						"astId": 13,
						"contract": "assignments/buyer.sol:vend",
						"label": "arr",
						"offset": 0,
						"slot": "0",
						"type": "t_array(t_struct(l1)9_storage)dyn_storage"
					},
					{
						"astId": 16,
						"contract": "assignments/buyer.sol:vend",
						"label": "s1",
						"offset": 0,
						"slot": "1",
						"type": "t_struct(l1)9_storage"
					},
					{
						"astId": 19,
						"contract": "assignments/buyer.sol:vend",
						"label": "s2",
						"offset": 0,
						"slot": "5",
						"type": "t_struct(l1)9_storage"
					},
					{
						"astId": 22,
						"contract": "assignments/buyer.sol:vend",
						"label": "s3",
						"offset": 0,
						"slot": "9",
						"type": "t_struct(l1)9_storage"
					}
				],
				"types": {
					"t_array(t_struct(l1)9_storage)dyn_storage": {
						"base": "t_struct(l1)9_storage",
						"encoding": "dynamic_array",
						"label": "struct vend.l1[]",
						"numberOfBytes": "32"
					},
					"t_int256": {
						"encoding": "inplace",
						"label": "int256",
						"numberOfBytes": "32"
					},
					"t_string_storage": {
						"encoding": "bytes",
						"label": "string",
						"numberOfBytes": "32"
					},
					"t_struct(l1)9_storage": {
						"encoding": "inplace",
						"label": "struct vend.l1",
						"members": [
							{
								"astId": 2,
								"contract": "assignments/buyer.sol:vend",
								"label": "id",
								"offset": 0,
								"slot": "0",
								"type": "t_string_storage"
							},
							{
								"astId": 4,
								"contract": "assignments/buyer.sol:vend",
								"label": "phno",
								"offset": 0,
								"slot": "1",
								"type": "t_int256"
							},
							{
								"astId": 6,
								"contract": "assignments/buyer.sol:vend",
								"label": "Add",
								"offset": 0,
								"slot": "2",
								"type": "t_string_storage"
							},
							{
								"astId": 8,
								"contract": "assignments/buyer.sol:vend",
								"label": "password",
								"offset": 0,
								"slot": "3",
								"type": "t_string_storage"
							}
						],
						"numberOfBytes": "128"
					}
				}
			},
			"userdoc": {
				"kind": "user",
				"methods": {},
				"version": 1
			}
		}
	}
}