{
	"assignments/vend.sol": {
		"vend": {
			"abi": [
				{
					"inputs": [],
					"stateMutability": "nonpayable",
					"type": "constructor"
				},
				{
					"inputs": [
						{
							"internalType": "uint256",
							"name": "",
							"type": "uint256"
						}
					],
					"name": "arr",
					"outputs": [
						{
							"internalType": "string",
							"name": "id",
							"type": "string"
						},
						{
							"internalType": "string",
							"name": "Add",
							"type": "string"
						}
					],
					"stateMutability": "view",
					"type": "function"
				},
				{
					"inputs": [
						{
							"internalType": "string",
							"name": "id",
							"type": "string"
						}
					],
					"name": "get",
					"outputs": [
						{
							"internalType": "string",
							"name": "",
							"type": "string"
						}
					],
					"stateMutability": "view",
					"type": "function"
				},
				{
					"inputs": [
						{
							"internalType": "string",
							"name": "id",
							"type": "string"
						}
					],
					"name": "getProd",
					"outputs": [
						{
							"internalType": "string[]",
							"name": "",
							"type": "string[]"
						}
					],
					"stateMutability": "view",
					"type": "function"
				}
			],
			"devdoc": {
				"kind": "dev",
				"methods": {},
				"version": 1
			},
			"evm": {
				"assembly": "    /* \"assignments/vend.sol\":32:1460  contract vend{... */\n  mstore(0x40, 0x80)\n    /* \"assignments/vend.sol\":198:893  constructor() public{... */\n  callvalue\n  dup1\n  iszero\n  tag_1\n  jumpi\n  0x00\n  dup1\n  revert\ntag_1:\n  pop\n    /* \"assignments/vend.sol\":229:244  s1.id=\"vendor1\" */\n  mload(0x40)\n  dup1\n  0x40\n  add\n  0x40\n  mstore\n  dup1\n  0x07\n  dup2\n  mstore\n  0x20\n  add\n  0x76656e646f723100000000000000000000000000000000000000000000000000\n  dup2\n  mstore\n  pop\n    /* \"assignments/vend.sol\":229:231  s1 */\n  0x01\n    /* \"assignments/vend.sol\":229:234  s1.id */\n  0x00\n  add\n    /* \"assignments/vend.sol\":229:244  s1.id=\"vendor1\" */\n  swap1\n  dup2\n  tag_4\n  swap2\n  swap1\n  tag_5\n  jump\t// in\ntag_4:\n  pop\n    /* \"assignments/vend.sol\":255:270  s2.id=\"vendor2\" */\n  mload(0x40)\n  dup1\n  0x40\n  add\n  0x40\n  mstore\n  dup1\n  0x07\n  dup2\n  mstore\n  0x20\n  add\n  0x76656e646f723200000000000000000000000000000000000000000000000000\n  dup2\n  mstore\n  pop\n    /* \"assignments/vend.sol\":255:257  s2 */\n  0x04\n    /* \"assignments/vend.sol\":255:260  s2.id */\n  0x00\n  add\n    /* \"assignments/vend.sol\":255:270  s2.id=\"vendor2\" */\n  swap1\n  dup2\n  tag_6\n  swap2\n  swap1\n  tag_5\n  jump\t// in\ntag_6:\n  pop\n    /* \"assignments/vend.sol\":281:296  s3.id=\"vendor3\" */\n  mload(0x40)\n  dup1\n  0x40\n  add\n  0x40\n  mstore\n  dup1\n  0x07\n  dup2\n  mstore\n  0x20\n  add\n  0x76656e646f723300000000000000000000000000000000000000000000000000\n  dup2\n  mstore\n  pop\n    /* \"assignments/vend.sol\":281:283  s3 */\n  0x07\n    /* \"assignments/vend.sol\":281:286  s3.id */\n  0x00\n  add\n    /* \"assignments/vend.sol\":281:296  s3.id=\"vendor3\" */\n  swap1\n  dup2\n  tag_7\n  swap2\n  swap1\n  tag_5\n  jump\t// in\ntag_7:\n  pop\n    /* \"assignments/vend.sol\":307:358  s1.Add=\"0x4055F84B12A4b33f67bB4Bd067598Efc55a04e9C\" */\n  mload(0x40)\n  dup1\n  0x60\n  add\n  0x40\n  mstore\n  dup1\n  0x2a\n  dup2\n  mstore\n  0x20\n  add\n  data_6b8c7a66a1c81dbd23d2c1e4a68b59518a4c636fc39dbc03341b8a27d9787e7c\n  0x2a\n  swap2\n  codecopy\n    /* \"assignments/vend.sol\":307:309  s1 */\n  0x01\n    /* \"assignments/vend.sol\":307:313  s1.Add */\n  dup1\n  add\n    /* \"assignments/vend.sol\":307:358  s1.Add=\"0x4055F84B12A4b33f67bB4Bd067598Efc55a04e9C\" */\n  swap1\n  dup2\n  tag_8\n  swap2\n  swap1\n  tag_5\n  jump\t// in\ntag_8:\n  pop\n    /* \"assignments/vend.sol\":369:509  s1.prod=[\"rice\",\"wheat\",\"medicines\",\"carrot\",\"beetroot\",\"cycles\",\"cars\",\"jeeps\",\"trucks\",\"meat\",\"milk\",\"eggs\",\"chana\",\"potatoes\",\"tomatoes\"] */\n  mload(0x40)\n  dup1\n  0x01e0\n  add\n  0x40\n  mstore\n  dup1\n  mload(0x40)\n  dup1\n  0x40\n  add\n  0x40\n  mstore\n  dup1\n  0x04\n  dup2\n  mstore\n  0x20\n  add\n  0x7269636500000000000000000000000000000000000000000000000000000000\n  dup2\n  mstore\n  pop\n  dup2\n  mstore\n  0x20\n  add\n  mload(0x40)\n  dup1\n  0x40\n  add\n  0x40\n  mstore\n  dup1\n  0x05\n  dup2\n  mstore\n  0x20\n  add\n  0x7768656174000000000000000000000000000000000000000000000000000000\n  dup2\n  mstore\n  pop\n  dup2\n  mstore\n  0x20\n  add\n  mload(0x40)\n  dup1\n  0x40\n  add\n  0x40\n  mstore\n  dup1\n  0x09\n  dup2\n  mstore\n  0x20\n  add\n  0x6d65646963696e65730000000000000000000000000000000000000000000000\n  dup2\n  mstore\n  pop\n  dup2\n  mstore\n  0x20\n  add\n  mload(0x40)\n  dup1\n  0x40\n  add\n  0x40\n  mstore\n  dup1\n  0x06\n  dup2\n  mstore\n  0x20\n  add\n  0x636172726f740000000000000000000000000000000000000000000000000000\n  dup2\n  mstore\n  pop\n  dup2\n  mstore\n  0x20\n  add\n  mload(0x40)\n  dup1\n  0x40\n  add\n  0x40\n  mstore\n  dup1\n  0x08\n  dup2\n  mstore\n  0x20\n  add\n  0x62656574726f6f74000000000000000000000000000000000000000000000000\n  dup2\n  mstore\n  pop\n  dup2\n  mstore\n  0x20\n  add\n  mload(0x40)\n  dup1\n  0x40\n  add\n  0x40\n  mstore\n  dup1\n  0x06\n  dup2\n  mstore\n  0x20\n  add\n  0x6379636c65730000000000000000000000000000000000000000000000000000\n  dup2\n  mstore\n  pop\n  dup2\n  mstore\n  0x20\n  add\n  mload(0x40)\n  dup1\n  0x40\n  add\n  0x40\n  mstore\n  dup1\n  0x04\n  dup2\n  mstore\n  0x20\n  add\n  0x6361727300000000000000000000000000000000000000000000000000000000\n  dup2\n  mstore\n  pop\n  dup2\n  mstore\n  0x20\n  add\n  mload(0x40)\n  dup1\n  0x40\n  add\n  0x40\n  mstore\n  dup1\n  0x05\n  dup2\n  mstore\n  0x20\n  add\n  0x6a65657073000000000000000000000000000000000000000000000000000000\n  dup2\n  mstore\n  pop\n  dup2\n  mstore\n  0x20\n  add\n  mload(0x40)\n  dup1\n  0x40\n  add\n  0x40\n  mstore\n  dup1\n  0x06\n  dup2\n  mstore\n  0x20\n  add\n  0x747275636b730000000000000000000000000000000000000000000000000000\n  dup2\n  mstore\n  pop\n  dup2\n  mstore\n  0x20\n  add\n  mload(0x40)\n  dup1\n  0x40\n  add\n  0x40\n  mstore\n  dup1\n  0x04\n  dup2\n  mstore\n  0x20\n  add\n  0x6d65617400000000000000000000000000000000000000000000000000000000\n  dup2\n  mstore\n  pop\n  dup2\n  mstore\n  0x20\n  add\n  mload(0x40)\n  dup1\n  0x40\n  add\n  0x40\n  mstore\n  dup1\n  0x04\n  dup2\n  mstore\n  0x20\n  add\n  0x6d696c6b00000000000000000000000000000000000000000000000000000000\n  dup2\n  mstore\n  pop\n  dup2\n  mstore\n  0x20\n  add\n  mload(0x40)\n  dup1\n  0x40\n  add\n  0x40\n  mstore\n  dup1\n  0x04\n  dup2\n  mstore\n  0x20\n  add\n  0x6567677300000000000000000000000000000000000000000000000000000000\n  dup2\n  mstore\n  pop\n  dup2\n  mstore\n  0x20\n  add\n  mload(0x40)\n  dup1\n  0x40\n  add\n  0x40\n  mstore\n  dup1\n  0x05\n  dup2\n  mstore\n  0x20\n  add\n  0x6368616e61000000000000000000000000000000000000000000000000000000\n  dup2\n  mstore\n  pop\n  dup2\n  mstore\n  0x20\n  add\n  mload(0x40)\n  dup1\n  0x40\n  add\n  0x40\n  mstore\n  dup1\n  0x08\n  dup2\n  mstore\n  0x20\n  add\n  0x706f7461746f6573000000000000000000000000000000000000000000000000\n  dup2\n  mstore\n  pop\n  dup2\n  mstore\n  0x20\n  add\n  mload(0x40)\n  dup1\n  0x40\n  add\n  0x40\n  mstore\n  dup1\n  0x08\n  dup2\n  mstore\n  0x20\n  add\n  0x746f6d61746f6573000000000000000000000000000000000000000000000000\n  dup2\n  mstore\n  pop\n  dup2\n  mstore\n  pop\n    /* \"assignments/vend.sol\":369:371  s1 */\n  0x01\n    /* \"assignments/vend.sol\":369:376  s1.prod */\n  0x02\n  add\n    /* \"assignments/vend.sol\":369:509  s1.prod=[\"rice\",\"wheat\",\"medicines\",\"carrot\",\"beetroot\",\"cycles\",\"cars\",\"jeeps\",\"trucks\",\"meat\",\"milk\",\"eggs\",\"chana\",\"potatoes\",\"tomatoes\"] */\n  swap1\n  0x0f\n  tag_9\n  swap3\n  swap2\n  swap1\n  tag_10\n  jump\t// in\ntag_9:\n  pop\n    /* \"assignments/vend.sol\":520:571  s2.Add=\"0x651e91BA2bCE3a41311594cE3142be83e7D0cFde\" */\n  mload(0x40)\n  dup1\n  0x60\n  add\n  0x40\n  mstore\n  dup1\n  0x2a\n  dup2\n  mstore\n  0x20\n  add\n  data_adf2cf5a13dbdc282682aba2f2fa850b601bf4a8af61aea12ab25dfaa0f2d7d9\n  0x2a\n  swap2\n  codecopy\n    /* \"assignments/vend.sol\":520:522  s2 */\n  0x04\n    /* \"assignments/vend.sol\":520:526  s2.Add */\n  0x01\n  add\n    /* \"assignments/vend.sol\":520:571  s2.Add=\"0x651e91BA2bCE3a41311594cE3142be83e7D0cFde\" */\n  swap1\n  dup2\n  tag_11\n  swap2\n  swap1\n  tag_5\n  jump\t// in\ntag_11:\n  pop\n    /* \"assignments/vend.sol\":582:689  s2.prod=[\"rice\",\"wheat\",\"medicines\",\"carrot\",\"beetroot\",\"meat\",\"milk\",\"eggs\",\"chana\",\"potatoes\",\"tomatoes\"] */\n  mload(0x40)\n  dup1\n  0x0160\n  add\n  0x40\n  mstore\n  dup1\n  mload(0x40)\n  dup1\n  0x40\n  add\n  0x40\n  mstore\n  dup1\n  0x04\n  dup2\n  mstore\n  0x20\n  add\n  0x7269636500000000000000000000000000000000000000000000000000000000\n  dup2\n  mstore\n  pop\n  dup2\n  mstore\n  0x20\n  add\n  mload(0x40)\n  dup1\n  0x40\n  add\n  0x40\n  mstore\n  dup1\n  0x05\n  dup2\n  mstore\n  0x20\n  add\n  0x7768656174000000000000000000000000000000000000000000000000000000\n  dup2\n  mstore\n  pop\n  dup2\n  mstore\n  0x20\n  add\n  mload(0x40)\n  dup1\n  0x40\n  add\n  0x40\n  mstore\n  dup1\n  0x09\n  dup2\n  mstore\n  0x20\n  add\n  0x6d65646963696e65730000000000000000000000000000000000000000000000\n  dup2\n  mstore\n  pop\n  dup2\n  mstore\n  0x20\n  add\n  mload(0x40)\n  dup1\n  0x40\n  add\n  0x40\n  mstore\n  dup1\n  0x06\n  dup2\n  mstore\n  0x20\n  add\n  0x636172726f740000000000000000000000000000000000000000000000000000\n  dup2\n  mstore\n  pop\n  dup2\n  mstore\n  0x20\n  add\n  mload(0x40)\n  dup1\n  0x40\n  add\n  0x40\n  mstore\n  dup1\n  0x08\n  dup2\n  mstore\n  0x20\n  add\n  0x62656574726f6f74000000000000000000000000000000000000000000000000\n  dup2\n  mstore\n  pop\n  dup2\n  mstore\n  0x20\n  add\n  mload(0x40)\n  dup1\n  0x40\n  add\n  0x40\n  mstore\n  dup1\n  0x04\n  dup2\n  mstore\n  0x20\n  add\n  0x6d65617400000000000000000000000000000000000000000000000000000000\n  dup2\n  mstore\n  pop\n  dup2\n  mstore\n  0x20\n  add\n  mload(0x40)\n  dup1\n  0x40\n  add\n  0x40\n  mstore\n  dup1\n  0x04\n  dup2\n  mstore\n  0x20\n  add\n  0x6d696c6b00000000000000000000000000000000000000000000000000000000\n  dup2\n  mstore\n  pop\n  dup2\n  mstore\n  0x20\n  add\n  mload(0x40)\n  dup1\n  0x40\n  add\n  0x40\n  mstore\n  dup1\n  0x04\n  dup2\n  mstore\n  0x20\n  add\n  0x6567677300000000000000000000000000000000000000000000000000000000\n  dup2\n  mstore\n  pop\n  dup2\n  mstore\n  0x20\n  add\n  mload(0x40)\n  dup1\n  0x40\n  add\n  0x40\n  mstore\n  dup1\n  0x05\n  dup2\n  mstore\n  0x20\n  add\n  0x6368616e61000000000000000000000000000000000000000000000000000000\n  dup2\n  mstore\n  pop\n  dup2\n  mstore\n  0x20\n  add\n  mload(0x40)\n  dup1\n  0x40\n  add\n  0x40\n  mstore\n  dup1\n  0x08\n  dup2\n  mstore\n  0x20\n  add\n  0x706f7461746f6573000000000000000000000000000000000000000000000000\n  dup2\n  mstore\n  pop\n  dup2\n  mstore\n  0x20\n  add\n  mload(0x40)\n  dup1\n  0x40\n  add\n  0x40\n  mstore\n  dup1\n  0x08\n  dup2\n  mstore\n  0x20\n  add\n  0x746f6d61746f6573000000000000000000000000000000000000000000000000\n  dup2\n  mstore\n  pop\n  dup2\n  mstore\n  pop\n    /* \"assignments/vend.sol\":582:584  s2 */\n  0x04\n    /* \"assignments/vend.sol\":582:589  s2.prod */\n  0x02\n  add\n    /* \"assignments/vend.sol\":582:689  s2.prod=[\"rice\",\"wheat\",\"medicines\",\"carrot\",\"beetroot\",\"meat\",\"milk\",\"eggs\",\"chana\",\"potatoes\",\"tomatoes\"] */\n  swap1\n  0x0b\n  tag_12\n  swap3\n  swap2\n  swap1\n  tag_13\n  jump\t// in\ntag_12:\n  pop\n    /* \"assignments/vend.sol\":700:751  s3.Add=\"0xaf6d107fe287e2ad53121881ca4624957e8d8f3a\" */\n  mload(0x40)\n  dup1\n  0x60\n  add\n  0x40\n  mstore\n  dup1\n  0x2a\n  dup2\n  mstore\n  0x20\n  add\n  data_a97111c44390327b7c98753c8f1a7583ce22152cb1cc7e724025f5d0ebd9c193\n  0x2a\n  swap2\n  codecopy\n    /* \"assignments/vend.sol\":700:702  s3 */\n  0x07\n    /* \"assignments/vend.sol\":700:706  s3.Add */\n  0x01\n  add\n    /* \"assignments/vend.sol\":700:751  s3.Add=\"0xaf6d107fe287e2ad53121881ca4624957e8d8f3a\" */\n  swap1\n  dup2\n  tag_14\n  swap2\n  swap1\n  tag_5\n  jump\t// in\ntag_14:\n  pop\n    /* \"assignments/vend.sol\":762:816  s3.prod=[\"medicines\",\"cycles\",\"cars\",\"jeeps\",\"trucks\"] */\n  mload(0x40)\n  dup1\n  0xa0\n  add\n  0x40\n  mstore\n  dup1\n  mload(0x40)\n  dup1\n  0x40\n  add\n  0x40\n  mstore\n  dup1\n  0x09\n  dup2\n  mstore\n  0x20\n  add\n  0x6d65646963696e65730000000000000000000000000000000000000000000000\n  dup2\n  mstore\n  pop\n  dup2\n  mstore\n  0x20\n  add\n  mload(0x40)\n  dup1\n  0x40\n  add\n  0x40\n  mstore\n  dup1\n  0x06\n  dup2\n  mstore\n  0x20\n  add\n  0x6379636c65730000000000000000000000000000000000000000000000000000\n  dup2\n  mstore\n  pop\n  dup2\n  mstore\n  0x20\n  add\n  mload(0x40)\n  dup1\n  0x40\n  add\n  0x40\n  mstore\n  dup1\n  0x04\n  dup2\n  mstore\n  0x20\n  add\n  0x6361727300000000000000000000000000000000000000000000000000000000\n  dup2\n  mstore\n  pop\n  dup2\n  mstore\n  0x20\n  add\n  mload(0x40)\n  dup1\n  0x40\n  add\n  0x40\n  mstore\n  dup1\n  0x05\n  dup2\n  mstore\n  0x20\n  add\n  0x6a65657073000000000000000000000000000000000000000000000000000000\n  dup2\n  mstore\n  pop\n  dup2\n  mstore\n  0x20\n  add\n  mload(0x40)\n  dup1\n  0x40\n  add\n  0x40\n  mstore\n  dup1\n  0x06\n  dup2\n  mstore\n  0x20\n  add\n  0x747275636b730000000000000000000000000000000000000000000000000000\n  dup2\n  mstore\n  pop\n  dup2\n  mstore\n  pop\n    /* \"assignments/vend.sol\":762:764  s3 */\n  0x07\n    /* \"assignments/vend.sol\":762:769  s3.prod */\n  0x02\n  add\n    /* \"assignments/vend.sol\":762:816  s3.prod=[\"medicines\",\"cycles\",\"cars\",\"jeeps\",\"trucks\"] */\n  swap1\n  0x05\n  tag_15\n  swap3\n  swap2\n  swap1\n  tag_16\n  jump\t// in\ntag_15:\n  pop\n    /* \"assignments/vend.sol\":827:830  arr */\n  0x00\n    /* \"assignments/vend.sol\":836:838  s1 */\n  0x01\n    /* \"assignments/vend.sol\":827:839  arr.push(s1) */\n  swap1\n  dup1\n  0x01\n  dup2\n  sload\n  add\n  dup1\n  dup3\n  sstore\n  dup1\n  swap2\n  pop\n  pop\n  0x01\n  swap1\n  sub\n  swap1\n  0x00\n  mstore\n  keccak256(0x00, 0x20)\n  swap1\n  0x03\n  mul\n  add\n  0x00\n  swap1\n  swap2\n  swap1\n  swap2\n  swap1\n  swap2\n  pop\n  0x00\n  dup3\n  add\n  dup2\n  0x00\n  add\n  swap1\n  dup2\n  tag_18\n  swap2\n  swap1\n  tag_19\n  jump\t// in\ntag_18:\n  pop\n  0x01\n  dup3\n  add\n  dup2\n  0x01\n  add\n  swap1\n  dup2\n  tag_20\n  swap2\n  swap1\n  tag_19\n  jump\t// in\ntag_20:\n  pop\n  0x02\n  dup3\n  add\n  dup2\n  0x02\n  add\n  swap1\n  dup1\n  sload\n  tag_21\n  swap3\n  swap2\n  swap1\n  tag_22\n  jump\t// in\ntag_21:\n  pop\n  pop\n  pop\n    /* \"assignments/vend.sol\":850:853  arr */\n  0x00\n    /* \"assignments/vend.sol\":859:861  s2 */\n  0x04\n    /* \"assignments/vend.sol\":850:862  arr.push(s2) */\n  swap1\n  dup1\n  0x01\n  dup2\n  sload\n  add\n  dup1\n  dup3\n  sstore\n  dup1\n  swap2\n  pop\n  pop\n  0x01\n  swap1\n  sub\n  swap1\n  0x00\n  mstore\n  keccak256(0x00, 0x20)\n  swap1\n  0x03\n  mul\n  add\n  0x00\n  swap1\n  swap2\n  swap1\n  swap2\n  swap1\n  swap2\n  pop\n  0x00\n  dup3\n  add\n  dup2\n  0x00\n  add\n  swap1\n  dup2\n  tag_24\n  swap2\n  swap1\n  tag_19\n  jump\t// in\ntag_24:\n  pop\n  0x01\n  dup3\n  add\n  dup2\n  0x01\n  add\n  swap1\n  dup2\n  tag_25\n  swap2\n  swap1\n  tag_19\n  jump\t// in\ntag_25:\n  pop\n  0x02\n  dup3\n  add\n  dup2\n  0x02\n  add\n  swap1\n  dup1\n  sload\n  tag_26\n  swap3\n  swap2\n  swap1\n  tag_22\n  jump\t// in\ntag_26:\n  pop\n  pop\n  pop\n    /* \"assignments/vend.sol\":873:876  arr */\n  0x00\n    /* \"assignments/vend.sol\":882:884  s3 */\n  0x07\n    /* \"assignments/vend.sol\":873:885  arr.push(s3) */\n  swap1\n  dup1\n  0x01\n  dup2\n  sload\n  add\n  dup1\n  dup3\n  sstore\n  dup1\n  swap2\n  pop\n  pop\n  0x01\n  swap1\n  sub\n  swap1\n  0x00\n  mstore\n  keccak256(0x00, 0x20)\n  swap1\n  0x03\n  mul\n  add\n  0x00\n  swap1\n  swap2\n  swap1\n  swap2\n  swap1\n  swap2\n  pop\n  0x00\n  dup3\n  add\n  dup2\n  0x00\n  add\n  swap1\n  dup2\n  tag_28\n  swap2\n  swap1\n  tag_19\n  jump\t// in\ntag_28:\n  pop\n  0x01\n  dup3\n  add\n  dup2\n  0x01\n  add\n  swap1\n  dup2\n  tag_29\n  swap2\n  swap1\n  tag_19\n  jump\t// in\ntag_29:\n  pop\n  0x02\n  dup3\n  add\n  dup2\n  0x02\n  add\n  swap1\n  dup1\n  sload\n  tag_30\n  swap3\n  swap2\n  swap1\n  tag_22\n  jump\t// in\ntag_30:\n  pop\n  pop\n  pop\n    /* \"assignments/vend.sol\":32:1460  contract vend{... */\n  jump(tag_31)\ntag_10:\n  dup3\n  dup1\n  sload\n  dup3\n  dup3\n  sstore\n  swap1\n  0x00\n  mstore\n  keccak256(0x00, 0x20)\n  swap1\n  dup2\n  add\n  swap3\n  dup3\n  iszero\n  tag_32\n  jumpi\n  swap2\n  0x20\n  mul\n  dup3\n  add\ntag_33:\n  dup3\n  dup2\n  gt\n  iszero\n  tag_34\n  jumpi\n  dup3\n  mload\n  dup3\n  swap1\n  dup2\n  tag_35\n  swap2\n  swap1\n  tag_5\n  jump\t// in\ntag_35:\n  pop\n  swap2\n  0x20\n  add\n  swap2\n  swap1\n  0x01\n  add\n  swap1\n  jump(tag_33)\ntag_34:\ntag_32:\n  pop\n  swap1\n  pop\n  tag_36\n  swap2\n  swap1\n  tag_37\n  jump\t// in\ntag_36:\n  pop\n  swap1\n  jump\t// out\ntag_13:\n  dup3\n  dup1\n  sload\n  dup3\n  dup3\n  sstore\n  swap1\n  0x00\n  mstore\n  keccak256(0x00, 0x20)\n  swap1\n  dup2\n  add\n  swap3\n  dup3\n  iszero\n  tag_38\n  jumpi\n  swap2\n  0x20\n  mul\n  dup3\n  add\ntag_39:\n  dup3\n  dup2\n  gt\n  iszero\n  tag_40\n  jumpi\n  dup3\n  mload\n  dup3\n  swap1\n  dup2\n  tag_41\n  swap2\n  swap1\n  tag_5\n  jump\t// in\ntag_41:\n  pop\n  swap2\n  0x20\n  add\n  swap2\n  swap1\n  0x01\n  add\n  swap1\n  jump(tag_39)\ntag_40:\ntag_38:\n  pop\n  swap1\n  pop\n  tag_42\n  swap2\n  swap1\n  tag_37\n  jump\t// in\ntag_42:\n  pop\n  swap1\n  jump\t// out\ntag_16:\n  dup3\n  dup1\n  sload\n  dup3\n  dup3\n  sstore\n  swap1\n  0x00\n  mstore\n  keccak256(0x00, 0x20)\n  swap1\n  dup2\n  add\n  swap3\n  dup3\n  iszero\n  tag_43\n  jumpi\n  swap2\n  0x20\n  mul\n  dup3\n  add\ntag_44:\n  dup3\n  dup2\n  gt\n  iszero\n  tag_45\n  jumpi\n  dup3\n  mload\n  dup3\n  swap1\n  dup2\n  tag_46\n  swap2\n  swap1\n  tag_5\n  jump\t// in\ntag_46:\n  pop\n  swap2\n  0x20\n  add\n  swap2\n  swap1\n  0x01\n  add\n  swap1\n  jump(tag_44)\ntag_45:\ntag_43:\n  pop\n  swap1\n  pop\n  tag_47\n  swap2\n  swap1\n  tag_37\n  jump\t// in\ntag_47:\n  pop\n  swap1\n  jump\t// out\ntag_22:\n  dup3\n  dup1\n  sload\n  dup3\n  dup3\n  sstore\n  swap1\n  0x00\n  mstore\n  keccak256(0x00, 0x20)\n  swap1\n  dup2\n  add\n  swap3\n  dup3\n  iszero\n  tag_48\n  jumpi\n  0x00\n  mstore\n  keccak256(0x00, 0x20)\n  swap2\n  dup3\n  add\ntag_49:\n  dup3\n  dup2\n  gt\n  iszero\n  tag_50\n  jumpi\n  dup3\n  dup3\n  swap1\n  dup2\n  tag_51\n  swap2\n  swap1\n  tag_19\n  jump\t// in\ntag_51:\n  pop\n  swap2\n  0x01\n  add\n  swap2\n  swap1\n  0x01\n  add\n  swap1\n  jump(tag_49)\ntag_50:\ntag_48:\n  pop\n  swap1\n  pop\n  tag_52\n  swap2\n  swap1\n  tag_37\n  jump\t// in\ntag_52:\n  pop\n  swap1\n  jump\t// out\ntag_37:\ntag_53:\n  dup1\n  dup3\n  gt\n  iszero\n  tag_54\n  jumpi\n  0x00\n  dup2\n  dup2\n  tag_55\n  swap2\n  swap1\n  tag_56\n  jump\t// in\ntag_55:\n  pop\n  0x01\n  add\n  jump(tag_53)\ntag_54:\n  pop\n  swap1\n  jump\t// out\ntag_56:\n  pop\n  dup1\n  sload\n  tag_57\n  swap1\n  tag_58\n  jump\t// in\ntag_57:\n  0x00\n  dup3\n  sstore\n  dup1\n  0x1f\n  lt\n  tag_60\n  jumpi\n  pop\n  jump(tag_59)\ntag_60:\n  0x1f\n  add\n  0x20\n  swap1\n  div\n  swap1\n  0x00\n  mstore\n  keccak256(0x00, 0x20)\n  swap1\n  dup2\n  add\n  swap1\n  tag_61\n  swap2\n  swap1\n  tag_62\n  jump\t// in\ntag_61:\ntag_59:\n  pop\n  jump\t// out\ntag_62:\ntag_63:\n  dup1\n  dup3\n  gt\n  iszero\n  tag_64\n  jumpi\n  0x00\n  dup2\n  0x00\n  swap1\n  sstore\n  pop\n  0x01\n  add\n  jump(tag_63)\ntag_64:\n  pop\n  swap1\n  jump\t// out\n    /* \"#utility.yul\":7:106   */\ntag_65:\n    /* \"#utility.yul\":59:65   */\n  0x00\n    /* \"#utility.yul\":93:98   */\n  dup2\n    /* \"#utility.yul\":87:99   */\n  mload\n    /* \"#utility.yul\":77:99   */\n  swap1\n  pop\n    /* \"#utility.yul\":7:106   */\n  swap2\n  swap1\n  pop\n  jump\t// out\n    /* \"#utility.yul\":112:292   */\ntag_66:\n    /* \"#utility.yul\":160:237   */\n  0x4e487b7100000000000000000000000000000000000000000000000000000000\n    /* \"#utility.yul\":157:158   */\n  0x00\n    /* \"#utility.yul\":150:238   */\n  mstore\n    /* \"#utility.yul\":257:261   */\n  0x41\n    /* \"#utility.yul\":254:255   */\n  0x04\n    /* \"#utility.yul\":247:262   */\n  mstore\n    /* \"#utility.yul\":281:285   */\n  0x24\n    /* \"#utility.yul\":278:279   */\n  0x00\n    /* \"#utility.yul\":271:286   */\n  revert\n    /* \"#utility.yul\":298:478   */\ntag_67:\n    /* \"#utility.yul\":346:423   */\n  0x4e487b7100000000000000000000000000000000000000000000000000000000\n    /* \"#utility.yul\":343:344   */\n  0x00\n    /* \"#utility.yul\":336:424   */\n  mstore\n    /* \"#utility.yul\":443:447   */\n  0x22\n    /* \"#utility.yul\":440:441   */\n  0x04\n    /* \"#utility.yul\":433:448   */\n  mstore\n    /* \"#utility.yul\":467:471   */\n  0x24\n    /* \"#utility.yul\":464:465   */\n  0x00\n    /* \"#utility.yul\":457:472   */\n  revert\n    /* \"#utility.yul\":484:804   */\ntag_58:\n    /* \"#utility.yul\":528:534   */\n  0x00\n    /* \"#utility.yul\":565:566   */\n  0x02\n    /* \"#utility.yul\":559:563   */\n  dup3\n    /* \"#utility.yul\":555:567   */\n  div\n    /* \"#utility.yul\":545:567   */\n  swap1\n  pop\n    /* \"#utility.yul\":612:613   */\n  0x01\n    /* \"#utility.yul\":606:610   */\n  dup3\n    /* \"#utility.yul\":602:614   */\n  and\n    /* \"#utility.yul\":633:651   */\n  dup1\n    /* \"#utility.yul\":623:704   */\n  tag_90\n  jumpi\n    /* \"#utility.yul\":689:693   */\n  0x7f\n    /* \"#utility.yul\":681:687   */\n  dup3\n    /* \"#utility.yul\":677:694   */\n  and\n    /* \"#utility.yul\":667:694   */\n  swap2\n  pop\n    /* \"#utility.yul\":623:704   */\ntag_90:\n    /* \"#utility.yul\":751:753   */\n  0x20\n    /* \"#utility.yul\":743:749   */\n  dup3\n    /* \"#utility.yul\":740:754   */\n  lt\n    /* \"#utility.yul\":720:738   */\n  dup2\n    /* \"#utility.yul\":717:755   */\n  sub\n    /* \"#utility.yul\":714:798   */\n  tag_91\n  jumpi\n    /* \"#utility.yul\":770:788   */\n  tag_92\n  tag_67\n  jump\t// in\ntag_92:\n    /* \"#utility.yul\":714:798   */\ntag_91:\n    /* \"#utility.yul\":535:804   */\n  pop\n    /* \"#utility.yul\":484:804   */\n  swap2\n  swap1\n  pop\n  jump\t// out\n    /* \"#utility.yul\":810:951   */\ntag_68:\n    /* \"#utility.yul\":859:863   */\n  0x00\n    /* \"#utility.yul\":882:885   */\n  dup2\n    /* \"#utility.yul\":874:885   */\n  swap1\n  pop\n    /* \"#utility.yul\":905:908   */\n  dup2\n    /* \"#utility.yul\":902:903   */\n  0x00\n    /* \"#utility.yul\":895:909   */\n  mstore\n    /* \"#utility.yul\":939:943   */\n  0x20\n    /* \"#utility.yul\":936:937   */\n  0x00\n    /* \"#utility.yul\":926:944   */\n  keccak256\n    /* \"#utility.yul\":918:944   */\n  swap1\n  pop\n    /* \"#utility.yul\":810:951   */\n  swap2\n  swap1\n  pop\n  jump\t// out\n    /* \"#utility.yul\":957:1050   */\ntag_69:\n    /* \"#utility.yul\":994:1000   */\n  0x00\n    /* \"#utility.yul\":1041:1043   */\n  0x20\n    /* \"#utility.yul\":1036:1038   */\n  0x1f\n    /* \"#utility.yul\":1029:1034   */\n  dup4\n    /* \"#utility.yul\":1025:1039   */\n  add\n    /* \"#utility.yul\":1021:1044   */\n  div\n    /* \"#utility.yul\":1011:1044   */\n  swap1\n  pop\n    /* \"#utility.yul\":957:1050   */\n  swap2\n  swap1\n  pop\n  jump\t// out\n    /* \"#utility.yul\":1056:1163   */\ntag_70:\n    /* \"#utility.yul\":1100:1108   */\n  0x00\n    /* \"#utility.yul\":1150:1155   */\n  dup3\n    /* \"#utility.yul\":1144:1148   */\n  dup3\n    /* \"#utility.yul\":1140:1156   */\n  shl\n    /* \"#utility.yul\":1119:1156   */\n  swap1\n  pop\n    /* \"#utility.yul\":1056:1163   */\n  swap3\n  swap2\n  pop\n  pop\n  jump\t// out\n    /* \"#utility.yul\":1169:1562   */\ntag_71:\n    /* \"#utility.yul\":1238:1244   */\n  0x00\n    /* \"#utility.yul\":1288:1289   */\n  0x08\n    /* \"#utility.yul\":1276:1286   */\n  dup4\n    /* \"#utility.yul\":1272:1290   */\n  mul\n    /* \"#utility.yul\":1311:1408   */\n  tag_97\n    /* \"#utility.yul\":1341:1407   */\n  0xffffffffffffffffffffffffffffffffffffffffffffffffffffffffffffffff\n    /* \"#utility.yul\":1330:1339   */\n  dup3\n    /* \"#utility.yul\":1311:1408   */\n  tag_70\n  jump\t// in\ntag_97:\n    /* \"#utility.yul\":1429:1468   */\n  tag_98\n    /* \"#utility.yul\":1459:1467   */\n  dup7\n    /* \"#utility.yul\":1448:1457   */\n  dup4\n    /* \"#utility.yul\":1429:1468   */\n  tag_70\n  jump\t// in\ntag_98:\n    /* \"#utility.yul\":1417:1468   */\n  swap6\n  pop\n    /* \"#utility.yul\":1501:1505   */\n  dup1\n    /* \"#utility.yul\":1497:1506   */\n  not\n    /* \"#utility.yul\":1490:1495   */\n  dup5\n    /* \"#utility.yul\":1486:1507   */\n  and\n    /* \"#utility.yul\":1477:1507   */\n  swap4\n  pop\n    /* \"#utility.yul\":1550:1554   */\n  dup1\n    /* \"#utility.yul\":1540:1548   */\n  dup7\n    /* \"#utility.yul\":1536:1555   */\n  and\n    /* \"#utility.yul\":1529:1534   */\n  dup5\n    /* \"#utility.yul\":1526:1556   */\n  or\n    /* \"#utility.yul\":1516:1556   */\n  swap3\n  pop\n    /* \"#utility.yul\":1245:1562   */\n  pop\n  pop\n    /* \"#utility.yul\":1169:1562   */\n  swap4\n  swap3\n  pop\n  pop\n  pop\n  jump\t// out\n    /* \"#utility.yul\":1568:1645   */\ntag_72:\n    /* \"#utility.yul\":1605:1612   */\n  0x00\n    /* \"#utility.yul\":1634:1639   */\n  dup2\n    /* \"#utility.yul\":1623:1639   */\n  swap1\n  pop\n    /* \"#utility.yul\":1568:1645   */\n  swap2\n  swap1\n  pop\n  jump\t// out\n    /* \"#utility.yul\":1651:1711   */\ntag_73:\n    /* \"#utility.yul\":1679:1682   */\n  0x00\n    /* \"#utility.yul\":1700:1705   */\n  dup2\n    /* \"#utility.yul\":1693:1705   */\n  swap1\n  pop\n    /* \"#utility.yul\":1651:1711   */\n  swap2\n  swap1\n  pop\n  jump\t// out\n    /* \"#utility.yul\":1717:1859   */\ntag_74:\n    /* \"#utility.yul\":1767:1776   */\n  0x00\n    /* \"#utility.yul\":1800:1853   */\n  tag_102\n    /* \"#utility.yul\":1818:1852   */\n  tag_103\n    /* \"#utility.yul\":1827:1851   */\n  tag_104\n    /* \"#utility.yul\":1845:1850   */\n  dup5\n    /* \"#utility.yul\":1827:1851   */\n  tag_72\n  jump\t// in\ntag_104:\n    /* \"#utility.yul\":1818:1852   */\n  tag_73\n  jump\t// in\ntag_103:\n    /* \"#utility.yul\":1800:1853   */\n  tag_72\n  jump\t// in\ntag_102:\n    /* \"#utility.yul\":1787:1853   */\n  swap1\n  pop\n    /* \"#utility.yul\":1717:1859   */\n  swap2\n  swap1\n  pop\n  jump\t// out\n    /* \"#utility.yul\":1865:1940   */\ntag_75:\n    /* \"#utility.yul\":1908:1911   */\n  0x00\n    /* \"#utility.yul\":1929:1934   */\n  dup2\n    /* \"#utility.yul\":1922:1934   */\n  swap1\n  pop\n    /* \"#utility.yul\":1865:1940   */\n  swap2\n  swap1\n  pop\n  jump\t// out\n    /* \"#utility.yul\":1946:2215   */\ntag_76:\n    /* \"#utility.yul\":2056:2095   */\n  tag_107\n    /* \"#utility.yul\":2087:2094   */\n  dup4\n    /* \"#utility.yul\":2056:2095   */\n  tag_74\n  jump\t// in\ntag_107:\n    /* \"#utility.yul\":2117:2208   */\n  tag_108\n    /* \"#utility.yul\":2166:2207   */\n  tag_109\n    /* \"#utility.yul\":2190:2206   */\n  dup3\n    /* \"#utility.yul\":2166:2207   */\n  tag_75\n  jump\t// in\ntag_109:\n    /* \"#utility.yul\":2158:2164   */\n  dup5\n    /* \"#utility.yul\":2151:2155   */\n  dup5\n    /* \"#utility.yul\":2145:2156   */\n  sload\n    /* \"#utility.yul\":2117:2208   */\n  tag_71\n  jump\t// in\ntag_108:\n    /* \"#utility.yul\":2111:2115   */\n  dup3\n    /* \"#utility.yul\":2104:2209   */\n  sstore\n    /* \"#utility.yul\":2022:2215   */\n  pop\n    /* \"#utility.yul\":1946:2215   */\n  pop\n  pop\n  pop\n  jump\t// out\n    /* \"#utility.yul\":2221:2294   */\ntag_77:\n    /* \"#utility.yul\":2266:2269   */\n  0x00\n    /* \"#utility.yul\":2221:2294   */\n  swap1\n  jump\t// out\n    /* \"#utility.yul\":2300:2489   */\ntag_78:\n    /* \"#utility.yul\":2377:2409   */\n  tag_112\n  tag_77\n  jump\t// in\ntag_112:\n    /* \"#utility.yul\":2418:2483   */\n  tag_113\n    /* \"#utility.yul\":2476:2482   */\n  dup2\n    /* \"#utility.yul\":2468:2474   */\n  dup5\n    /* \"#utility.yul\":2462:2466   */\n  dup5\n    /* \"#utility.yul\":2418:2483   */\n  tag_76\n  jump\t// in\ntag_113:\n    /* \"#utility.yul\":2353:2489   */\n  pop\n    /* \"#utility.yul\":2300:2489   */\n  pop\n  pop\n  jump\t// out\n    /* \"#utility.yul\":2495:2681   */\ntag_79:\n    /* \"#utility.yul\":2555:2675   */\ntag_115:\n    /* \"#utility.yul\":2572:2575   */\n  dup2\n    /* \"#utility.yul\":2565:2570   */\n  dup2\n    /* \"#utility.yul\":2562:2576   */\n  lt\n    /* \"#utility.yul\":2555:2675   */\n  iszero\n  tag_117\n  jumpi\n    /* \"#utility.yul\":2626:2665   */\n  tag_118\n    /* \"#utility.yul\":2663:2664   */\n  0x00\n    /* \"#utility.yul\":2656:2661   */\n  dup3\n    /* \"#utility.yul\":2626:2665   */\n  tag_78\n  jump\t// in\ntag_118:\n    /* \"#utility.yul\":2599:2600   */\n  0x01\n    /* \"#utility.yul\":2592:2597   */\n  dup2\n    /* \"#utility.yul\":2588:2601   */\n  add\n    /* \"#utility.yul\":2579:2601   */\n  swap1\n  pop\n    /* \"#utility.yul\":2555:2675   */\n  jump(tag_115)\ntag_117:\n    /* \"#utility.yul\":2495:2681   */\n  pop\n  pop\n  jump\t// out\n    /* \"#utility.yul\":2687:3230   */\ntag_80:\n    /* \"#utility.yul\":2788:2790   */\n  0x1f\n    /* \"#utility.yul\":2783:2786   */\n  dup3\n    /* \"#utility.yul\":2780:2791   */\n  gt\n    /* \"#utility.yul\":2777:3223   */\n  iszero\n  tag_120\n  jumpi\n    /* \"#utility.yul\":2822:2860   */\n  tag_121\n    /* \"#utility.yul\":2854:2859   */\n  dup2\n    /* \"#utility.yul\":2822:2860   */\n  tag_68\n  jump\t// in\ntag_121:\n    /* \"#utility.yul\":2906:2935   */\n  tag_122\n    /* \"#utility.yul\":2924:2934   */\n  dup5\n    /* \"#utility.yul\":2906:2935   */\n  tag_69\n  jump\t// in\ntag_122:\n    /* \"#utility.yul\":2896:2904   */\n  dup2\n    /* \"#utility.yul\":2892:2936   */\n  add\n    /* \"#utility.yul\":3089:3091   */\n  0x20\n    /* \"#utility.yul\":3077:3087   */\n  dup6\n    /* \"#utility.yul\":3074:3092   */\n  lt\n    /* \"#utility.yul\":3071:3120   */\n  iszero\n  tag_123\n  jumpi\n    /* \"#utility.yul\":3110:3118   */\n  dup2\n    /* \"#utility.yul\":3095:3118   */\n  swap1\n  pop\n    /* \"#utility.yul\":3071:3120   */\ntag_123:\n    /* \"#utility.yul\":3133:3213   */\n  tag_124\n    /* \"#utility.yul\":3189:3211   */\n  tag_125\n    /* \"#utility.yul\":3207:3210   */\n  dup6\n    /* \"#utility.yul\":3189:3211   */\n  tag_69\n  jump\t// in\ntag_125:\n    /* \"#utility.yul\":3179:3187   */\n  dup4\n    /* \"#utility.yul\":3175:3212   */\n  add\n    /* \"#utility.yul\":3162:3173   */\n  dup3\n    /* \"#utility.yul\":3133:3213   */\n  tag_79\n  jump\t// in\ntag_124:\n    /* \"#utility.yul\":2792:3223   */\n  pop\n  pop\n    /* \"#utility.yul\":2777:3223   */\ntag_120:\n    /* \"#utility.yul\":2687:3230   */\n  pop\n  pop\n  pop\n  jump\t// out\n    /* \"#utility.yul\":3236:3353   */\ntag_81:\n    /* \"#utility.yul\":3290:3298   */\n  0x00\n    /* \"#utility.yul\":3340:3345   */\n  dup3\n    /* \"#utility.yul\":3334:3338   */\n  dup3\n    /* \"#utility.yul\":3330:3346   */\n  shr\n    /* \"#utility.yul\":3309:3346   */\n  swap1\n  pop\n    /* \"#utility.yul\":3236:3353   */\n  swap3\n  swap2\n  pop\n  pop\n  jump\t// out\n    /* \"#utility.yul\":3359:3528   */\ntag_82:\n    /* \"#utility.yul\":3403:3409   */\n  0x00\n    /* \"#utility.yul\":3436:3487   */\n  tag_128\n    /* \"#utility.yul\":3484:3485   */\n  0x00\n    /* \"#utility.yul\":3480:3486   */\n  not\n    /* \"#utility.yul\":3472:3477   */\n  dup5\n    /* \"#utility.yul\":3469:3470   */\n  0x08\n    /* \"#utility.yul\":3465:3478   */\n  mul\n    /* \"#utility.yul\":3436:3487   */\n  tag_81\n  jump\t// in\ntag_128:\n    /* \"#utility.yul\":3432:3488   */\n  not\n    /* \"#utility.yul\":3517:3521   */\n  dup1\n    /* \"#utility.yul\":3511:3515   */\n  dup4\n    /* \"#utility.yul\":3507:3522   */\n  and\n    /* \"#utility.yul\":3497:3522   */\n  swap2\n  pop\n    /* \"#utility.yul\":3410:3528   */\n  pop\n    /* \"#utility.yul\":3359:3528   */\n  swap3\n  swap2\n  pop\n  pop\n  jump\t// out\n    /* \"#utility.yul\":3533:3828   */\ntag_83:\n    /* \"#utility.yul\":3609:3613   */\n  0x00\n    /* \"#utility.yul\":3755:3784   */\n  tag_130\n    /* \"#utility.yul\":3780:3783   */\n  dup4\n    /* \"#utility.yul\":3774:3778   */\n  dup4\n    /* \"#utility.yul\":3755:3784   */\n  tag_82\n  jump\t// in\ntag_130:\n    /* \"#utility.yul\":3747:3784   */\n  swap2\n  pop\n    /* \"#utility.yul\":3817:3820   */\n  dup3\n    /* \"#utility.yul\":3814:3815   */\n  0x02\n    /* \"#utility.yul\":3810:3821   */\n  mul\n    /* \"#utility.yul\":3804:3808   */\n  dup3\n    /* \"#utility.yul\":3801:3822   */\n  or\n    /* \"#utility.yul\":3793:3822   */\n  swap1\n  pop\n    /* \"#utility.yul\":3533:3828   */\n  swap3\n  swap2\n  pop\n  pop\n  jump\t// out\n    /* \"#utility.yul\":3833:5228   */\ntag_5:\n    /* \"#utility.yul\":3950:3987   */\n  tag_132\n    /* \"#utility.yul\":3983:3986   */\n  dup3\n    /* \"#utility.yul\":3950:3987   */\n  tag_65\n  jump\t// in\ntag_132:\n    /* \"#utility.yul\":4052:4070   */\n  0xffffffffffffffff\n    /* \"#utility.yul\":4044:4050   */\n  dup2\n    /* \"#utility.yul\":4041:4071   */\n  gt\n    /* \"#utility.yul\":4038:4094   */\n  iszero\n  tag_133\n  jumpi\n    /* \"#utility.yul\":4074:4092   */\n  tag_134\n  tag_66\n  jump\t// in\ntag_134:\n    /* \"#utility.yul\":4038:4094   */\ntag_133:\n    /* \"#utility.yul\":4118:4156   */\n  tag_135\n    /* \"#utility.yul\":4150:4154   */\n  dup3\n    /* \"#utility.yul\":4144:4155   */\n  sload\n    /* \"#utility.yul\":4118:4156   */\n  tag_58\n  jump\t// in\ntag_135:\n    /* \"#utility.yul\":4203:4270   */\n  tag_136\n    /* \"#utility.yul\":4263:4269   */\n  dup3\n    /* \"#utility.yul\":4255:4261   */\n  dup3\n    /* \"#utility.yul\":4249:4253   */\n  dup6\n    /* \"#utility.yul\":4203:4270   */\n  tag_80\n  jump\t// in\ntag_136:\n    /* \"#utility.yul\":4297:4298   */\n  0x00\n    /* \"#utility.yul\":4321:4325   */\n  0x20\n    /* \"#utility.yul\":4308:4325   */\n  swap1\n  pop\n    /* \"#utility.yul\":4353:4355   */\n  0x1f\n    /* \"#utility.yul\":4345:4351   */\n  dup4\n    /* \"#utility.yul\":4342:4356   */\n  gt\n    /* \"#utility.yul\":4370:4371   */\n  0x01\n    /* \"#utility.yul\":4365:4983   */\n  dup2\n  eq\n  tag_138\n  jumpi\n    /* \"#utility.yul\":5027:5028   */\n  0x00\n    /* \"#utility.yul\":5044:5050   */\n  dup5\n    /* \"#utility.yul\":5041:5118   */\n  iszero\n  tag_139\n  jumpi\n    /* \"#utility.yul\":5093:5102   */\n  dup3\n    /* \"#utility.yul\":5088:5091   */\n  dup8\n    /* \"#utility.yul\":5084:5103   */\n  add\n    /* \"#utility.yul\":5078:5104   */\n  mload\n    /* \"#utility.yul\":5069:5104   */\n  swap1\n  pop\n    /* \"#utility.yul\":5041:5118   */\ntag_139:\n    /* \"#utility.yul\":5144:5211   */\n  tag_140\n    /* \"#utility.yul\":5204:5210   */\n  dup6\n    /* \"#utility.yul\":5197:5202   */\n  dup3\n    /* \"#utility.yul\":5144:5211   */\n  tag_83\n  jump\t// in\ntag_140:\n    /* \"#utility.yul\":5138:5142   */\n  dup7\n    /* \"#utility.yul\":5131:5212   */\n  sstore\n    /* \"#utility.yul\":5000:5222   */\n  pop\n    /* \"#utility.yul\":4335:5222   */\n  jump(tag_137)\n    /* \"#utility.yul\":4365:4983   */\ntag_138:\n    /* \"#utility.yul\":4417:4421   */\n  0x1f\n    /* \"#utility.yul\":4413:4422   */\n  not\n    /* \"#utility.yul\":4405:4411   */\n  dup5\n    /* \"#utility.yul\":4401:4423   */\n  and\n    /* \"#utility.yul\":4451:4488   */\n  tag_141\n    /* \"#utility.yul\":4483:4487   */\n  dup7\n    /* \"#utility.yul\":4451:4488   */\n  tag_68\n  jump\t// in\ntag_141:\n    /* \"#utility.yul\":4510:4511   */\n  0x00\n    /* \"#utility.yul\":4524:4732   */\ntag_142:\n    /* \"#utility.yul\":4538:4545   */\n  dup3\n    /* \"#utility.yul\":4535:4536   */\n  dup2\n    /* \"#utility.yul\":4532:4546   */\n  lt\n    /* \"#utility.yul\":4524:4732   */\n  iszero\n  tag_144\n  jumpi\n    /* \"#utility.yul\":4617:4626   */\n  dup5\n    /* \"#utility.yul\":4612:4615   */\n  dup10\n    /* \"#utility.yul\":4608:4627   */\n  add\n    /* \"#utility.yul\":4602:4628   */\n  mload\n    /* \"#utility.yul\":4594:4600   */\n  dup3\n    /* \"#utility.yul\":4587:4629   */\n  sstore\n    /* \"#utility.yul\":4668:4669   */\n  0x01\n    /* \"#utility.yul\":4660:4666   */\n  dup3\n    /* \"#utility.yul\":4656:4670   */\n  add\n    /* \"#utility.yul\":4646:4670   */\n  swap2\n  pop\n    /* \"#utility.yul\":4715:4717   */\n  0x20\n    /* \"#utility.yul\":4704:4713   */\n  dup6\n    /* \"#utility.yul\":4700:4718   */\n  add\n    /* \"#utility.yul\":4687:4718   */\n  swap5\n  pop\n    /* \"#utility.yul\":4561:4565   */\n  0x20\n    /* \"#utility.yul\":4558:4559   */\n  dup2\n    /* \"#utility.yul\":4554:4566   */\n  add\n    /* \"#utility.yul\":4549:4566   */\n  swap1\n  pop\n    /* \"#utility.yul\":4524:4732   */\n  jump(tag_142)\ntag_144:\n    /* \"#utility.yul\":4760:4766   */\n  dup7\n    /* \"#utility.yul\":4751:4758   */\n  dup4\n    /* \"#utility.yul\":4748:4767   */\n  lt\n    /* \"#utility.yul\":4745:4924   */\n  iszero\n  tag_145\n  jumpi\n    /* \"#utility.yul\":4818:4827   */\n  dup5\n    /* \"#utility.yul\":4813:4816   */\n  dup10\n    /* \"#utility.yul\":4809:4828   */\n  add\n    /* \"#utility.yul\":4803:4829   */\n  mload\n    /* \"#utility.yul\":4861:4909   */\n  tag_146\n    /* \"#utility.yul\":4903:4907   */\n  0x1f\n    /* \"#utility.yul\":4895:4901   */\n  dup10\n    /* \"#utility.yul\":4891:4908   */\n  and\n    /* \"#utility.yul\":4880:4889   */\n  dup3\n    /* \"#utility.yul\":4861:4909   */\n  tag_82\n  jump\t// in\ntag_146:\n    /* \"#utility.yul\":4853:4859   */\n  dup4\n    /* \"#utility.yul\":4846:4910   */\n  sstore\n    /* \"#utility.yul\":4768:4924   */\n  pop\n    /* \"#utility.yul\":4745:4924   */\ntag_145:\n    /* \"#utility.yul\":4970:4971   */\n  0x01\n    /* \"#utility.yul\":4966:4967   */\n  0x02\n    /* \"#utility.yul\":4958:4964   */\n  dup9\n    /* \"#utility.yul\":4954:4968   */\n  mul\n    /* \"#utility.yul\":4950:4972   */\n  add\n    /* \"#utility.yul\":4944:4948   */\n  dup9\n    /* \"#utility.yul\":4937:4973   */\n  sstore\n    /* \"#utility.yul\":4372:4983   */\n  pop\n  pop\n  pop\n    /* \"#utility.yul\":4335:5222   */\ntag_137:\n  pop\n    /* \"#utility.yul\":3925:5228   */\n  pop\n  pop\n  pop\n    /* \"#utility.yul\":3833:5228   */\n  pop\n  pop\n  jump\t// out\n    /* \"#utility.yul\":5234:5383   */\ntag_84:\n    /* \"#utility.yul\":5283:5289   */\n  0x00\n    /* \"#utility.yul\":5317:5322   */\n  dup2\n    /* \"#utility.yul\":5311:5323   */\n  sload\n    /* \"#utility.yul\":5301:5323   */\n  swap1\n  pop\n    /* \"#utility.yul\":5343:5376   */\n  tag_148\n    /* \"#utility.yul\":5369:5375   */\n  dup2\n    /* \"#utility.yul\":5343:5376   */\n  tag_58\n  jump\t// in\ntag_148:\n    /* \"#utility.yul\":5333:5376   */\n  swap1\n  pop\n    /* \"#utility.yul\":5234:5383   */\n  swap2\n  swap1\n  pop\n  jump\t// out\n    /* \"#utility.yul\":5389:6840   */\ntag_19:\n    /* \"#utility.yul\":5500:5503   */\n  dup2\n    /* \"#utility.yul\":5494:5498   */\n  dup2\n    /* \"#utility.yul\":5491:5504   */\n  sub\n    /* \"#utility.yul\":5488:5514   */\n  tag_150\n  jumpi\n    /* \"#utility.yul\":5507:5512   */\n  pop\n  pop\n  jump(tag_149)\n    /* \"#utility.yul\":5488:5514   */\ntag_150:\n    /* \"#utility.yul\":5538:5572   */\n  tag_151\n    /* \"#utility.yul\":5568:5571   */\n  dup3\n    /* \"#utility.yul\":5538:5572   */\n  tag_84\n  jump\t// in\ntag_151:\n    /* \"#utility.yul\":5637:5655   */\n  0xffffffffffffffff\n    /* \"#utility.yul\":5629:5635   */\n  dup2\n    /* \"#utility.yul\":5626:5656   */\n  gt\n    /* \"#utility.yul\":5623:5679   */\n  iszero\n  tag_152\n  jumpi\n    /* \"#utility.yul\":5659:5677   */\n  tag_153\n  tag_66\n  jump\t// in\ntag_153:\n    /* \"#utility.yul\":5623:5679   */\ntag_152:\n    /* \"#utility.yul\":5703:5741   */\n  tag_154\n    /* \"#utility.yul\":5735:5739   */\n  dup3\n    /* \"#utility.yul\":5729:5740   */\n  sload\n    /* \"#utility.yul\":5703:5741   */\n  tag_58\n  jump\t// in\ntag_154:\n    /* \"#utility.yul\":5788:5855   */\n  tag_155\n    /* \"#utility.yul\":5848:5854   */\n  dup3\n    /* \"#utility.yul\":5840:5846   */\n  dup3\n    /* \"#utility.yul\":5834:5838   */\n  dup6\n    /* \"#utility.yul\":5788:5855   */\n  tag_80\n  jump\t// in\ntag_155:\n    /* \"#utility.yul\":5882:5883   */\n  0x00\n    /* \"#utility.yul\":5911:5913   */\n  0x1f\n    /* \"#utility.yul\":5903:5909   */\n  dup4\n    /* \"#utility.yul\":5900:5914   */\n  gt\n    /* \"#utility.yul\":5928:5929   */\n  0x01\n    /* \"#utility.yul\":5923:6595   */\n  dup2\n  eq\n  tag_157\n  jumpi\n    /* \"#utility.yul\":6639:6640   */\n  0x00\n    /* \"#utility.yul\":6656:6662   */\n  dup5\n    /* \"#utility.yul\":6653:6730   */\n  iszero\n  tag_158\n  jumpi\n    /* \"#utility.yul\":6705:6714   */\n  dup3\n    /* \"#utility.yul\":6700:6703   */\n  dup8\n    /* \"#utility.yul\":6696:6715   */\n  add\n    /* \"#utility.yul\":6690:6716   */\n  sload\n    /* \"#utility.yul\":6681:6716   */\n  swap1\n  pop\n    /* \"#utility.yul\":6653:6730   */\ntag_158:\n    /* \"#utility.yul\":6756:6823   */\n  tag_159\n    /* \"#utility.yul\":6816:6822   */\n  dup6\n    /* \"#utility.yul\":6809:6814   */\n  dup3\n    /* \"#utility.yul\":6756:6823   */\n  tag_83\n  jump\t// in\ntag_159:\n    /* \"#utility.yul\":6750:6754   */\n  dup7\n    /* \"#utility.yul\":6743:6824   */\n  sstore\n    /* \"#utility.yul\":6612:6834   */\n  pop\n    /* \"#utility.yul\":5893:6834   */\n  jump(tag_156)\n    /* \"#utility.yul\":5923:6595   */\ntag_157:\n    /* \"#utility.yul\":5975:5979   */\n  0x1f\n    /* \"#utility.yul\":5971:5980   */\n  not\n    /* \"#utility.yul\":5963:5969   */\n  dup5\n    /* \"#utility.yul\":5959:5981   */\n  and\n    /* \"#utility.yul\":6001:6037   */\n  tag_160\n    /* \"#utility.yul\":6033:6036   */\n  dup8\n    /* \"#utility.yul\":6001:6037   */\n  tag_68\n  jump\t// in\ntag_160:\n    /* \"#utility.yul\":5994:6037   */\n  swap7\n  pop\n    /* \"#utility.yul\":6064:6101   */\n  tag_161\n    /* \"#utility.yul\":6096:6100   */\n  dup7\n    /* \"#utility.yul\":6064:6101   */\n  tag_68\n  jump\t// in\ntag_161:\n    /* \"#utility.yul\":6123:6124   */\n  0x00\n    /* \"#utility.yul\":6137:6344   */\ntag_162:\n    /* \"#utility.yul\":6151:6158   */\n  dup3\n    /* \"#utility.yul\":6148:6149   */\n  dup2\n    /* \"#utility.yul\":6145:6159   */\n  lt\n    /* \"#utility.yul\":6137:6344   */\n  iszero\n  tag_164\n  jumpi\n    /* \"#utility.yul\":6230:6239   */\n  dup5\n    /* \"#utility.yul\":6225:6228   */\n  dup10\n    /* \"#utility.yul\":6221:6240   */\n  add\n    /* \"#utility.yul\":6215:6241   */\n  sload\n    /* \"#utility.yul\":6207:6213   */\n  dup3\n    /* \"#utility.yul\":6200:6242   */\n  sstore\n    /* \"#utility.yul\":6281:6282   */\n  0x01\n    /* \"#utility.yul\":6273:6279   */\n  dup3\n    /* \"#utility.yul\":6269:6283   */\n  add\n    /* \"#utility.yul\":6259:6283   */\n  swap2\n  pop\n    /* \"#utility.yul\":6328:6329   */\n  0x01\n    /* \"#utility.yul\":6317:6326   */\n  dup6\n    /* \"#utility.yul\":6313:6330   */\n  add\n    /* \"#utility.yul\":6300:6330   */\n  swap5\n  pop\n    /* \"#utility.yul\":6174:6178   */\n  0x20\n    /* \"#utility.yul\":6171:6172   */\n  dup2\n    /* \"#utility.yul\":6167:6179   */\n  add\n    /* \"#utility.yul\":6162:6179   */\n  swap1\n  pop\n    /* \"#utility.yul\":6137:6344   */\n  jump(tag_162)\ntag_164:\n    /* \"#utility.yul\":6372:6378   */\n  dup7\n    /* \"#utility.yul\":6363:6370   */\n  dup4\n    /* \"#utility.yul\":6360:6379   */\n  lt\n    /* \"#utility.yul\":6357:6536   */\n  iszero\n  tag_165\n  jumpi\n    /* \"#utility.yul\":6430:6439   */\n  dup5\n    /* \"#utility.yul\":6425:6428   */\n  dup10\n    /* \"#utility.yul\":6421:6440   */\n  add\n    /* \"#utility.yul\":6415:6441   */\n  sload\n    /* \"#utility.yul\":6473:6521   */\n  tag_166\n    /* \"#utility.yul\":6515:6519   */\n  0x1f\n    /* \"#utility.yul\":6507:6513   */\n  dup10\n    /* \"#utility.yul\":6503:6520   */\n  and\n    /* \"#utility.yul\":6492:6501   */\n  dup3\n    /* \"#utility.yul\":6473:6521   */\n  tag_82\n  jump\t// in\ntag_166:\n    /* \"#utility.yul\":6465:6471   */\n  dup4\n    /* \"#utility.yul\":6458:6522   */\n  sstore\n    /* \"#utility.yul\":6380:6536   */\n  pop\n    /* \"#utility.yul\":6357:6536   */\ntag_165:\n    /* \"#utility.yul\":6582:6583   */\n  0x01\n    /* \"#utility.yul\":6578:6579   */\n  0x02\n    /* \"#utility.yul\":6570:6576   */\n  dup9\n    /* \"#utility.yul\":6566:6580   */\n  mul\n    /* \"#utility.yul\":6562:6584   */\n  add\n    /* \"#utility.yul\":6556:6560   */\n  dup9\n    /* \"#utility.yul\":6549:6585   */\n  sstore\n    /* \"#utility.yul\":5930:6595   */\n  pop\n  pop\n  pop\n    /* \"#utility.yul\":5893:6834   */\ntag_156:\n  pop\n    /* \"#utility.yul\":5478:6840   */\n  pop\n  pop\n  pop\n    /* \"#utility.yul\":5389:6840   */\n  pop\n  pop\ntag_149:\n  jump\t// out\n    /* \"assignments/vend.sol\":32:1460  contract vend{... */\ntag_31:\n  dataSize(sub_0)\n  dup1\n  dataOffset(sub_0)\n  0x00\n  codecopy\n  0x00\n  return\nstop\ndata_6b8c7a66a1c81dbd23d2c1e4a68b59518a4c636fc39dbc03341b8a27d9787e7c 307834303535463834423132413462333366363762423442643036373539384566633535613034653943\ndata_a97111c44390327b7c98753c8f1a7583ce22152cb1cc7e724025f5d0ebd9c193 307861663664313037666532383765326164353331323138383163613436323439353765386438663361\ndata_adf2cf5a13dbdc282682aba2f2fa850b601bf4a8af61aea12ab25dfaa0f2d7d9 307836353165393142413262434533613431333131353934634533313432626538336537443063466465\n\nsub_0: assembly {\n        /* \"assignments/vend.sol\":32:1460  contract vend{... */\n      mstore(0x40, 0x80)\n      callvalue\n      dup1\n      iszero\n      tag_1\n      jumpi\n      0x00\n      dup1\n      revert\n    tag_1:\n      pop\n      jumpi(tag_2, lt(calldatasize, 0x04))\n      shr(0xe0, calldataload(0x00))\n      dup1\n      0x693ec85e\n      eq\n      tag_3\n      jumpi\n      dup1\n      0x71e5ee5f\n      eq\n      tag_4\n      jumpi\n      dup1\n      0xd91dd1e0\n      eq\n      tag_5\n      jumpi\n    tag_2:\n      0x00\n      dup1\n      revert\n        /* \"assignments/vend.sol\":1187:1457  function get(string memory id) public view returns(string memory){... */\n    tag_3:\n      tag_6\n      0x04\n      dup1\n      calldatasize\n      sub\n      dup2\n      add\n      swap1\n      tag_7\n      swap2\n      swap1\n      tag_8\n      jump\t// in\n    tag_7:\n      tag_9\n      jump\t// in\n    tag_6:\n      mload(0x40)\n      tag_10\n      swap2\n      swap1\n      tag_11\n      jump\t// in\n    tag_10:\n      mload(0x40)\n      dup1\n      swap2\n      sub\n      swap1\n      return\n        /* \"assignments/vend.sol\":140:155  l1[] public arr */\n    tag_4:\n      tag_12\n      0x04\n      dup1\n      calldatasize\n      sub\n      dup2\n      add\n      swap1\n      tag_13\n      swap2\n      swap1\n      tag_14\n      jump\t// in\n    tag_13:\n      tag_15\n      jump\t// in\n    tag_12:\n      mload(0x40)\n      tag_16\n      swap3\n      swap2\n      swap1\n      tag_17\n      jump\t// in\n    tag_16:\n      mload(0x40)\n      dup1\n      swap2\n      sub\n      swap1\n      return\n        /* \"assignments/vend.sol\":898:1175  function getProd(string memory id) public view returns(string[] memory){... */\n    tag_5:\n      tag_18\n      0x04\n      dup1\n      calldatasize\n      sub\n      dup2\n      add\n      swap1\n      tag_19\n      swap2\n      swap1\n      tag_8\n      jump\t// in\n    tag_19:\n      tag_20\n      jump\t// in\n    tag_18:\n      mload(0x40)\n      tag_21\n      swap2\n      swap1\n      tag_22\n      jump\t// in\n    tag_21:\n      mload(0x40)\n      dup1\n      swap2\n      sub\n      swap1\n      return\n        /* \"assignments/vend.sol\":1187:1457  function get(string memory id) public view returns(string memory){... */\n    tag_9:\n        /* \"assignments/vend.sol\":1238:1251  string memory */\n      0x60\n        /* \"assignments/vend.sol\":1267:1273  uint i */\n      0x00\n        /* \"assignments/vend.sol\":1263:1450  for(uint i=0;i<arr.length;i++){... */\n    tag_24:\n        /* \"assignments/vend.sol\":1278:1281  arr */\n      0x00\n        /* \"assignments/vend.sol\":1278:1288  arr.length */\n      dup1\n      sload\n      swap1\n      pop\n        /* \"assignments/vend.sol\":1276:1277  i */\n      dup2\n        /* \"assignments/vend.sol\":1276:1288  i<arr.length */\n      lt\n        /* \"assignments/vend.sol\":1263:1450  for(uint i=0;i<arr.length;i++){... */\n      iszero\n      tag_25\n      jumpi\n        /* \"assignments/vend.sol\":1381:1383  id */\n      dup3\n        /* \"assignments/vend.sol\":1363:1385  abi.encodePacked((id)) */\n      add(0x20, mload(0x40))\n      tag_27\n      swap2\n      swap1\n      tag_28\n      jump\t// in\n    tag_27:\n      mload(0x40)\n      0x20\n      dup2\n      dup4\n      sub\n      sub\n      dup2\n      mstore\n      swap1\n      0x40\n      mstore\n        /* \"assignments/vend.sol\":1353:1386  keccak256(abi.encodePacked((id))) */\n      dup1\n      mload\n      swap1\n      0x20\n      add\n      keccak256\n        /* \"assignments/vend.sol\":1339:1342  arr */\n      0x00\n        /* \"assignments/vend.sol\":1343:1344  i */\n      dup3\n        /* \"assignments/vend.sol\":1339:1345  arr[i] */\n      dup2\n      sload\n      dup2\n      lt\n      tag_29\n      jumpi\n      tag_30\n      tag_31\n      jump\t// in\n    tag_30:\n    tag_29:\n      swap1\n      0x00\n      mstore\n      keccak256(0x00, 0x20)\n      swap1\n      0x03\n      mul\n      add\n        /* \"assignments/vend.sol\":1339:1348  arr[i].id */\n      0x00\n      add\n        /* \"assignments/vend.sol\":1321:1350  abi.encodePacked((arr[i].id)) */\n      add(0x20, mload(0x40))\n      tag_33\n      swap2\n      swap1\n      tag_34\n      jump\t// in\n    tag_33:\n      mload(0x40)\n      0x20\n      dup2\n      dup4\n      sub\n      sub\n      dup2\n      mstore\n      swap1\n      0x40\n      mstore\n        /* \"assignments/vend.sol\":1311:1351  keccak256(abi.encodePacked((arr[i].id))) */\n      dup1\n      mload\n      swap1\n      0x20\n      add\n      keccak256\n        /* \"assignments/vend.sol\":1311:1386  keccak256(abi.encodePacked((arr[i].id)))==keccak256(abi.encodePacked((id))) */\n      sub\n        /* \"assignments/vend.sol\":1308:1439  if(keccak256(abi.encodePacked((arr[i].id)))==keccak256(abi.encodePacked((id)))){... */\n      tag_35\n      jumpi\n        /* \"assignments/vend.sol\":1413:1416  arr */\n      0x00\n        /* \"assignments/vend.sol\":1417:1418  i */\n      dup2\n        /* \"assignments/vend.sol\":1413:1419  arr[i] */\n      dup2\n      sload\n      dup2\n      lt\n      tag_36\n      jumpi\n      tag_37\n      tag_31\n      jump\t// in\n    tag_37:\n    tag_36:\n      swap1\n      0x00\n      mstore\n      keccak256(0x00, 0x20)\n      swap1\n      0x03\n      mul\n      add\n        /* \"assignments/vend.sol\":1413:1423  arr[i].Add */\n      0x01\n      add\n        /* \"assignments/vend.sol\":1406:1423  return arr[i].Add */\n      dup1\n      sload\n      tag_39\n      swap1\n      tag_40\n      jump\t// in\n    tag_39:\n      dup1\n      0x1f\n      add\n      0x20\n      dup1\n      swap2\n      div\n      mul\n      0x20\n      add\n      mload(0x40)\n      swap1\n      dup2\n      add\n      0x40\n      mstore\n      dup1\n      swap3\n      swap2\n      swap1\n      dup2\n      dup2\n      mstore\n      0x20\n      add\n      dup3\n      dup1\n      sload\n      tag_41\n      swap1\n      tag_40\n      jump\t// in\n    tag_41:\n      dup1\n      iszero\n      tag_42\n      jumpi\n      dup1\n      0x1f\n      lt\n      tag_43\n      jumpi\n      0x0100\n      dup1\n      dup4\n      sload\n      div\n      mul\n      dup4\n      mstore\n      swap2\n      0x20\n      add\n      swap2\n      jump(tag_42)\n    tag_43:\n      dup3\n      add\n      swap2\n      swap1\n      0x00\n      mstore\n      keccak256(0x00, 0x20)\n      swap1\n    tag_44:\n      dup2\n      sload\n      dup2\n      mstore\n      swap1\n      0x01\n      add\n      swap1\n      0x20\n      add\n      dup1\n      dup4\n      gt\n      tag_44\n      jumpi\n      dup3\n      swap1\n      sub\n      0x1f\n      and\n      dup3\n      add\n      swap2\n    tag_42:\n      pop\n      pop\n      pop\n      pop\n      pop\n      swap2\n      pop\n      pop\n      jump(tag_23)\n        /* \"assignments/vend.sol\":1308:1439  if(keccak256(abi.encodePacked((arr[i].id)))==keccak256(abi.encodePacked((id)))){... */\n    tag_35:\n        /* \"assignments/vend.sol\":1289:1292  i++ */\n      dup1\n      dup1\n      tag_45\n      swap1\n      tag_46\n      jump\t// in\n    tag_45:\n      swap2\n      pop\n      pop\n        /* \"assignments/vend.sol\":1263:1450  for(uint i=0;i<arr.length;i++){... */\n      jump(tag_24)\n    tag_25:\n      pop\n        /* \"assignments/vend.sol\":1187:1457  function get(string memory id) public view returns(string memory){... */\n    tag_23:\n      swap2\n      swap1\n      pop\n      jump\t// out\n        /* \"assignments/vend.sol\":140:155  l1[] public arr */\n    tag_15:\n      0x00\n      dup2\n      dup2\n      sload\n      dup2\n      lt\n      tag_47\n      jumpi\n      0x00\n      dup1\n      revert\n    tag_47:\n      swap1\n      0x00\n      mstore\n      keccak256(0x00, 0x20)\n      swap1\n      0x03\n      mul\n      add\n      0x00\n      swap2\n      pop\n      swap1\n      pop\n      dup1\n      0x00\n      add\n      dup1\n      sload\n      tag_49\n      swap1\n      tag_40\n      jump\t// in\n    tag_49:\n      dup1\n      0x1f\n      add\n      0x20\n      dup1\n      swap2\n      div\n      mul\n      0x20\n      add\n      mload(0x40)\n      swap1\n      dup2\n      add\n      0x40\n      mstore\n      dup1\n      swap3\n      swap2\n      swap1\n      dup2\n      dup2\n      mstore\n      0x20\n      add\n      dup3\n      dup1\n      sload\n      tag_50\n      swap1\n      tag_40\n      jump\t// in\n    tag_50:\n      dup1\n      iszero\n      tag_51\n      jumpi\n      dup1\n      0x1f\n      lt\n      tag_52\n      jumpi\n      0x0100\n      dup1\n      dup4\n      sload\n      div\n      mul\n      dup4\n      mstore\n      swap2\n      0x20\n      add\n      swap2\n      jump(tag_51)\n    tag_52:\n      dup3\n      add\n      swap2\n      swap1\n      0x00\n      mstore\n      keccak256(0x00, 0x20)\n      swap1\n    tag_53:\n      dup2\n      sload\n      dup2\n      mstore\n      swap1\n      0x01\n      add\n      swap1\n      0x20\n      add\n      dup1\n      dup4\n      gt\n      tag_53\n      jumpi\n      dup3\n      swap1\n      sub\n      0x1f\n      and\n      dup3\n      add\n      swap2\n    tag_51:\n      pop\n      pop\n      pop\n      pop\n      pop\n      swap1\n      dup1\n      0x01\n      add\n      dup1\n      sload\n      tag_54\n      swap1\n      tag_40\n      jump\t// in\n    tag_54:\n      dup1\n      0x1f\n      add\n      0x20\n      dup1\n      swap2\n      div\n      mul\n      0x20\n      add\n      mload(0x40)\n      swap1\n      dup2\n      add\n      0x40\n      mstore\n      dup1\n      swap3\n      swap2\n      swap1\n      dup2\n      dup2\n      mstore\n      0x20\n      add\n      dup3\n      dup1\n      sload\n      tag_55\n      swap1\n      tag_40\n      jump\t// in\n    tag_55:\n      dup1\n      iszero\n      tag_56\n      jumpi\n      dup1\n      0x1f\n      lt\n      tag_57\n      jumpi\n      0x0100\n      dup1\n      dup4\n      sload\n      div\n      mul\n      dup4\n      mstore\n      swap2\n      0x20\n      add\n      swap2\n      jump(tag_56)\n    tag_57:\n      dup3\n      add\n      swap2\n      swap1\n      0x00\n      mstore\n      keccak256(0x00, 0x20)\n      swap1\n    tag_58:\n      dup2\n      sload\n      dup2\n      mstore\n      swap1\n      0x01\n      add\n      swap1\n      0x20\n      add\n      dup1\n      dup4\n      gt\n      tag_58\n      jumpi\n      dup3\n      swap1\n      sub\n      0x1f\n      and\n      dup3\n      add\n      swap2\n    tag_56:\n      pop\n      pop\n      pop\n      pop\n      pop\n      swap1\n      pop\n      dup3\n      jump\t// out\n        /* \"assignments/vend.sol\":898:1175  function getProd(string memory id) public view returns(string[] memory){... */\n    tag_20:\n        /* \"assignments/vend.sol\":953:968  string[] memory */\n      0x60\n        /* \"assignments/vend.sol\":984:990  uint i */\n      0x00\n        /* \"assignments/vend.sol\":980:1168  for(uint i=0;i<arr.length;i++){... */\n    tag_60:\n        /* \"assignments/vend.sol\":995:998  arr */\n      0x00\n        /* \"assignments/vend.sol\":995:1005  arr.length */\n      dup1\n      sload\n      swap1\n      pop\n        /* \"assignments/vend.sol\":993:994  i */\n      dup2\n        /* \"assignments/vend.sol\":993:1005  i<arr.length */\n      lt\n        /* \"assignments/vend.sol\":980:1168  for(uint i=0;i<arr.length;i++){... */\n      iszero\n      tag_61\n      jumpi\n        /* \"assignments/vend.sol\":1098:1100  id */\n      dup3\n        /* \"assignments/vend.sol\":1080:1102  abi.encodePacked((id)) */\n      add(0x20, mload(0x40))\n      tag_63\n      swap2\n      swap1\n      tag_28\n      jump\t// in\n    tag_63:\n      mload(0x40)\n      0x20\n      dup2\n      dup4\n      sub\n      sub\n      dup2\n      mstore\n      swap1\n      0x40\n      mstore\n        /* \"assignments/vend.sol\":1070:1103  keccak256(abi.encodePacked((id))) */\n      dup1\n      mload\n      swap1\n      0x20\n      add\n      keccak256\n        /* \"assignments/vend.sol\":1056:1059  arr */\n      0x00\n        /* \"assignments/vend.sol\":1060:1061  i */\n      dup3\n        /* \"assignments/vend.sol\":1056:1062  arr[i] */\n      dup2\n      sload\n      dup2\n      lt\n      tag_64\n      jumpi\n      tag_65\n      tag_31\n      jump\t// in\n    tag_65:\n    tag_64:\n      swap1\n      0x00\n      mstore\n      keccak256(0x00, 0x20)\n      swap1\n      0x03\n      mul\n      add\n        /* \"assignments/vend.sol\":1056:1065  arr[i].id */\n      0x00\n      add\n        /* \"assignments/vend.sol\":1038:1067  abi.encodePacked((arr[i].id)) */\n      add(0x20, mload(0x40))\n      tag_67\n      swap2\n      swap1\n      tag_34\n      jump\t// in\n    tag_67:\n      mload(0x40)\n      0x20\n      dup2\n      dup4\n      sub\n      sub\n      dup2\n      mstore\n      swap1\n      0x40\n      mstore\n        /* \"assignments/vend.sol\":1028:1068  keccak256(abi.encodePacked((arr[i].id))) */\n      dup1\n      mload\n      swap1\n      0x20\n      add\n      keccak256\n        /* \"assignments/vend.sol\":1028:1103  keccak256(abi.encodePacked((arr[i].id)))==keccak256(abi.encodePacked((id))) */\n      sub\n        /* \"assignments/vend.sol\":1025:1157  if(keccak256(abi.encodePacked((arr[i].id)))==keccak256(abi.encodePacked((id)))){... */\n      tag_68\n      jumpi\n        /* \"assignments/vend.sol\":1130:1133  arr */\n      0x00\n        /* \"assignments/vend.sol\":1134:1135  i */\n      dup2\n        /* \"assignments/vend.sol\":1130:1136  arr[i] */\n      dup2\n      sload\n      dup2\n      lt\n      tag_69\n      jumpi\n      tag_70\n      tag_31\n      jump\t// in\n    tag_70:\n    tag_69:\n      swap1\n      0x00\n      mstore\n      keccak256(0x00, 0x20)\n      swap1\n      0x03\n      mul\n      add\n        /* \"assignments/vend.sol\":1130:1141  arr[i].prod */\n      0x02\n      add\n        /* \"assignments/vend.sol\":1123:1141  return arr[i].prod */\n      dup1\n      sload\n      dup1\n      0x20\n      mul\n      0x20\n      add\n      mload(0x40)\n      swap1\n      dup2\n      add\n      0x40\n      mstore\n      dup1\n      swap3\n      swap2\n      swap1\n      dup2\n      dup2\n      mstore\n      0x20\n      add\n      0x00\n      swap1\n    tag_72:\n      dup3\n      dup3\n      lt\n      iszero\n      tag_73\n      jumpi\n      dup4\n      dup3\n      swap1\n      0x00\n      mstore\n      keccak256(0x00, 0x20)\n      add\n      dup1\n      sload\n      tag_75\n      swap1\n      tag_40\n      jump\t// in\n    tag_75:\n      dup1\n      0x1f\n      add\n      0x20\n      dup1\n      swap2\n      div\n      mul\n      0x20\n      add\n      mload(0x40)\n      swap1\n      dup2\n      add\n      0x40\n      mstore\n      dup1\n      swap3\n      swap2\n      swap1\n      dup2\n      dup2\n      mstore\n      0x20\n      add\n      dup3\n      dup1\n      sload\n      tag_76\n      swap1\n      tag_40\n      jump\t// in\n    tag_76:\n      dup1\n      iszero\n      tag_77\n      jumpi\n      dup1\n      0x1f\n      lt\n      tag_78\n      jumpi\n      0x0100\n      dup1\n      dup4\n      sload\n      div\n      mul\n      dup4\n      mstore\n      swap2\n      0x20\n      add\n      swap2\n      jump(tag_77)\n    tag_78:\n      dup3\n      add\n      swap2\n      swap1\n      0x00\n      mstore\n      keccak256(0x00, 0x20)\n      swap1\n    tag_79:\n      dup2\n      sload\n      dup2\n      mstore\n      swap1\n      0x01\n      add\n      swap1\n      0x20\n      add\n      dup1\n      dup4\n      gt\n      tag_79\n      jumpi\n      dup3\n      swap1\n      sub\n      0x1f\n      and\n      dup3\n      add\n      swap2\n    tag_77:\n      pop\n      pop\n      pop\n      pop\n      pop\n      dup2\n      mstore\n      0x20\n      add\n      swap1\n      0x01\n      add\n      swap1\n      jump(tag_72)\n    tag_73:\n      pop\n      pop\n      pop\n      pop\n      swap2\n      pop\n      pop\n      jump(tag_59)\n        /* \"assignments/vend.sol\":1025:1157  if(keccak256(abi.encodePacked((arr[i].id)))==keccak256(abi.encodePacked((id)))){... */\n    tag_68:\n        /* \"assignments/vend.sol\":1006:1009  i++ */\n      dup1\n      dup1\n      tag_80\n      swap1\n      tag_46\n      jump\t// in\n    tag_80:\n      swap2\n      pop\n      pop\n        /* \"assignments/vend.sol\":980:1168  for(uint i=0;i<arr.length;i++){... */\n      jump(tag_60)\n    tag_61:\n      pop\n        /* \"assignments/vend.sol\":898:1175  function getProd(string memory id) public view returns(string[] memory){... */\n    tag_59:\n      swap2\n      swap1\n      pop\n      jump\t// out\n        /* \"#utility.yul\":7:82   */\n    tag_81:\n        /* \"#utility.yul\":40:46   */\n      0x00\n        /* \"#utility.yul\":73:75   */\n      0x40\n        /* \"#utility.yul\":67:76   */\n      mload\n        /* \"#utility.yul\":57:76   */\n      swap1\n      pop\n        /* \"#utility.yul\":7:82   */\n      swap1\n      jump\t// out\n        /* \"#utility.yul\":88:205   */\n    tag_82:\n        /* \"#utility.yul\":197:198   */\n      0x00\n        /* \"#utility.yul\":194:195   */\n      dup1\n        /* \"#utility.yul\":187:199   */\n      revert\n        /* \"#utility.yul\":211:328   */\n    tag_83:\n        /* \"#utility.yul\":320:321   */\n      0x00\n        /* \"#utility.yul\":317:318   */\n      dup1\n        /* \"#utility.yul\":310:322   */\n      revert\n        /* \"#utility.yul\":334:451   */\n    tag_84:\n        /* \"#utility.yul\":443:444   */\n      0x00\n        /* \"#utility.yul\":440:441   */\n      dup1\n        /* \"#utility.yul\":433:445   */\n      revert\n        /* \"#utility.yul\":457:574   */\n    tag_85:\n        /* \"#utility.yul\":566:567   */\n      0x00\n        /* \"#utility.yul\":563:564   */\n      dup1\n        /* \"#utility.yul\":556:568   */\n      revert\n        /* \"#utility.yul\":580:682   */\n    tag_86:\n        /* \"#utility.yul\":621:627   */\n      0x00\n        /* \"#utility.yul\":672:674   */\n      0x1f\n        /* \"#utility.yul\":668:675   */\n      not\n        /* \"#utility.yul\":663:665   */\n      0x1f\n        /* \"#utility.yul\":656:661   */\n      dup4\n        /* \"#utility.yul\":652:666   */\n      add\n        /* \"#utility.yul\":648:676   */\n      and\n        /* \"#utility.yul\":638:676   */\n      swap1\n      pop\n        /* \"#utility.yul\":580:682   */\n      swap2\n      swap1\n      pop\n      jump\t// out\n        /* \"#utility.yul\":688:868   */\n    tag_87:\n        /* \"#utility.yul\":736:813   */\n      0x4e487b7100000000000000000000000000000000000000000000000000000000\n        /* \"#utility.yul\":733:734   */\n      0x00\n        /* \"#utility.yul\":726:814   */\n      mstore\n        /* \"#utility.yul\":833:837   */\n      0x41\n        /* \"#utility.yul\":830:831   */\n      0x04\n        /* \"#utility.yul\":823:838   */\n      mstore\n        /* \"#utility.yul\":857:861   */\n      0x24\n        /* \"#utility.yul\":854:855   */\n      0x00\n        /* \"#utility.yul\":847:862   */\n      revert\n        /* \"#utility.yul\":874:1155   */\n    tag_88:\n        /* \"#utility.yul\":957:984   */\n      tag_124\n        /* \"#utility.yul\":979:983   */\n      dup3\n        /* \"#utility.yul\":957:984   */\n      tag_86\n      jump\t// in\n    tag_124:\n        /* \"#utility.yul\":949:955   */\n      dup2\n        /* \"#utility.yul\":945:985   */\n      add\n        /* \"#utility.yul\":1087:1093   */\n      dup2\n        /* \"#utility.yul\":1075:1085   */\n      dup2\n        /* \"#utility.yul\":1072:1094   */\n      lt\n        /* \"#utility.yul\":1051:1069   */\n      0xffffffffffffffff\n        /* \"#utility.yul\":1039:1049   */\n      dup3\n        /* \"#utility.yul\":1036:1070   */\n      gt\n        /* \"#utility.yul\":1033:1095   */\n      or\n        /* \"#utility.yul\":1030:1118   */\n      iszero\n      tag_125\n      jumpi\n        /* \"#utility.yul\":1098:1116   */\n      tag_126\n      tag_87\n      jump\t// in\n    tag_126:\n        /* \"#utility.yul\":1030:1118   */\n    tag_125:\n        /* \"#utility.yul\":1138:1148   */\n      dup1\n        /* \"#utility.yul\":1134:1136   */\n      0x40\n        /* \"#utility.yul\":1127:1149   */\n      mstore\n        /* \"#utility.yul\":917:1155   */\n      pop\n        /* \"#utility.yul\":874:1155   */\n      pop\n      pop\n      jump\t// out\n        /* \"#utility.yul\":1161:1290   */\n    tag_89:\n        /* \"#utility.yul\":1195:1201   */\n      0x00\n        /* \"#utility.yul\":1222:1242   */\n      tag_128\n      tag_81\n      jump\t// in\n    tag_128:\n        /* \"#utility.yul\":1212:1242   */\n      swap1\n      pop\n        /* \"#utility.yul\":1251:1284   */\n      tag_129\n        /* \"#utility.yul\":1279:1283   */\n      dup3\n        /* \"#utility.yul\":1271:1277   */\n      dup3\n        /* \"#utility.yul\":1251:1284   */\n      tag_88\n      jump\t// in\n    tag_129:\n        /* \"#utility.yul\":1161:1290   */\n      swap2\n      swap1\n      pop\n      jump\t// out\n        /* \"#utility.yul\":1296:1604   */\n    tag_90:\n        /* \"#utility.yul\":1358:1362   */\n      0x00\n        /* \"#utility.yul\":1448:1466   */\n      0xffffffffffffffff\n        /* \"#utility.yul\":1440:1446   */\n      dup3\n        /* \"#utility.yul\":1437:1467   */\n      gt\n        /* \"#utility.yul\":1434:1490   */\n      iszero\n      tag_131\n      jumpi\n        /* \"#utility.yul\":1470:1488   */\n      tag_132\n      tag_87\n      jump\t// in\n    tag_132:\n        /* \"#utility.yul\":1434:1490   */\n    tag_131:\n        /* \"#utility.yul\":1508:1537   */\n      tag_133\n        /* \"#utility.yul\":1530:1536   */\n      dup3\n        /* \"#utility.yul\":1508:1537   */\n      tag_86\n      jump\t// in\n    tag_133:\n        /* \"#utility.yul\":1500:1537   */\n      swap1\n      pop\n        /* \"#utility.yul\":1592:1596   */\n      0x20\n        /* \"#utility.yul\":1586:1590   */\n      dup2\n        /* \"#utility.yul\":1582:1597   */\n      add\n        /* \"#utility.yul\":1574:1597   */\n      swap1\n      pop\n        /* \"#utility.yul\":1296:1604   */\n      swap2\n      swap1\n      pop\n      jump\t// out\n        /* \"#utility.yul\":1610:1756   */\n    tag_91:\n        /* \"#utility.yul\":1707:1713   */\n      dup3\n        /* \"#utility.yul\":1702:1705   */\n      dup2\n        /* \"#utility.yul\":1697:1700   */\n      dup4\n        /* \"#utility.yul\":1684:1714   */\n      calldatacopy\n        /* \"#utility.yul\":1748:1749   */\n      0x00\n        /* \"#utility.yul\":1739:1745   */\n      dup4\n        /* \"#utility.yul\":1734:1737   */\n      dup4\n        /* \"#utility.yul\":1730:1746   */\n      add\n        /* \"#utility.yul\":1723:1750   */\n      mstore\n        /* \"#utility.yul\":1610:1756   */\n      pop\n      pop\n      pop\n      jump\t// out\n        /* \"#utility.yul\":1762:2187   */\n    tag_92:\n        /* \"#utility.yul\":1840:1845   */\n      0x00\n        /* \"#utility.yul\":1865:1931   */\n      tag_136\n        /* \"#utility.yul\":1881:1930   */\n      tag_137\n        /* \"#utility.yul\":1923:1929   */\n      dup5\n        /* \"#utility.yul\":1881:1930   */\n      tag_90\n      jump\t// in\n    tag_137:\n        /* \"#utility.yul\":1865:1931   */\n      tag_89\n      jump\t// in\n    tag_136:\n        /* \"#utility.yul\":1856:1931   */\n      swap1\n      pop\n        /* \"#utility.yul\":1954:1960   */\n      dup3\n        /* \"#utility.yul\":1947:1952   */\n      dup2\n        /* \"#utility.yul\":1940:1961   */\n      mstore\n        /* \"#utility.yul\":1992:1996   */\n      0x20\n        /* \"#utility.yul\":1985:1990   */\n      dup2\n        /* \"#utility.yul\":1981:1997   */\n      add\n        /* \"#utility.yul\":2030:2033   */\n      dup5\n        /* \"#utility.yul\":2021:2027   */\n      dup5\n        /* \"#utility.yul\":2016:2019   */\n      dup5\n        /* \"#utility.yul\":2012:2028   */\n      add\n        /* \"#utility.yul\":2009:2034   */\n      gt\n        /* \"#utility.yul\":2006:2118   */\n      iszero\n      tag_138\n      jumpi\n        /* \"#utility.yul\":2037:2116   */\n      tag_139\n      tag_85\n      jump\t// in\n    tag_139:\n        /* \"#utility.yul\":2006:2118   */\n    tag_138:\n        /* \"#utility.yul\":2127:2181   */\n      tag_140\n        /* \"#utility.yul\":2174:2180   */\n      dup5\n        /* \"#utility.yul\":2169:2172   */\n      dup3\n        /* \"#utility.yul\":2164:2167   */\n      dup6\n        /* \"#utility.yul\":2127:2181   */\n      tag_91\n      jump\t// in\n    tag_140:\n        /* \"#utility.yul\":1846:2187   */\n      pop\n        /* \"#utility.yul\":1762:2187   */\n      swap4\n      swap3\n      pop\n      pop\n      pop\n      jump\t// out\n        /* \"#utility.yul\":2207:2547   */\n    tag_93:\n        /* \"#utility.yul\":2263:2268   */\n      0x00\n        /* \"#utility.yul\":2312:2315   */\n      dup3\n        /* \"#utility.yul\":2305:2309   */\n      0x1f\n        /* \"#utility.yul\":2297:2303   */\n      dup4\n        /* \"#utility.yul\":2293:2310   */\n      add\n        /* \"#utility.yul\":2289:2316   */\n      slt\n        /* \"#utility.yul\":2279:2401   */\n      tag_142\n      jumpi\n        /* \"#utility.yul\":2320:2399   */\n      tag_143\n      tag_84\n      jump\t// in\n    tag_143:\n        /* \"#utility.yul\":2279:2401   */\n    tag_142:\n        /* \"#utility.yul\":2437:2443   */\n      dup2\n        /* \"#utility.yul\":2424:2444   */\n      calldataload\n        /* \"#utility.yul\":2462:2541   */\n      tag_144\n        /* \"#utility.yul\":2537:2540   */\n      dup5\n        /* \"#utility.yul\":2529:2535   */\n      dup3\n        /* \"#utility.yul\":2522:2526   */\n      0x20\n        /* \"#utility.yul\":2514:2520   */\n      dup7\n        /* \"#utility.yul\":2510:2527   */\n      add\n        /* \"#utility.yul\":2462:2541   */\n      tag_92\n      jump\t// in\n    tag_144:\n        /* \"#utility.yul\":2453:2541   */\n      swap2\n      pop\n        /* \"#utility.yul\":2269:2547   */\n      pop\n        /* \"#utility.yul\":2207:2547   */\n      swap3\n      swap2\n      pop\n      pop\n      jump\t// out\n        /* \"#utility.yul\":2553:3062   */\n    tag_8:\n        /* \"#utility.yul\":2622:2628   */\n      0x00\n        /* \"#utility.yul\":2671:2673   */\n      0x20\n        /* \"#utility.yul\":2659:2668   */\n      dup3\n        /* \"#utility.yul\":2650:2657   */\n      dup5\n        /* \"#utility.yul\":2646:2669   */\n      sub\n        /* \"#utility.yul\":2642:2674   */\n      slt\n        /* \"#utility.yul\":2639:2758   */\n      iszero\n      tag_146\n      jumpi\n        /* \"#utility.yul\":2677:2756   */\n      tag_147\n      tag_82\n      jump\t// in\n    tag_147:\n        /* \"#utility.yul\":2639:2758   */\n    tag_146:\n        /* \"#utility.yul\":2825:2826   */\n      0x00\n        /* \"#utility.yul\":2814:2823   */\n      dup3\n        /* \"#utility.yul\":2810:2827   */\n      add\n        /* \"#utility.yul\":2797:2828   */\n      calldataload\n        /* \"#utility.yul\":2855:2873   */\n      0xffffffffffffffff\n        /* \"#utility.yul\":2847:2853   */\n      dup2\n        /* \"#utility.yul\":2844:2874   */\n      gt\n        /* \"#utility.yul\":2841:2958   */\n      iszero\n      tag_148\n      jumpi\n        /* \"#utility.yul\":2877:2956   */\n      tag_149\n      tag_83\n      jump\t// in\n    tag_149:\n        /* \"#utility.yul\":2841:2958   */\n    tag_148:\n        /* \"#utility.yul\":2982:3045   */\n      tag_150\n        /* \"#utility.yul\":3037:3044   */\n      dup5\n        /* \"#utility.yul\":3028:3034   */\n      dup3\n        /* \"#utility.yul\":3017:3026   */\n      dup6\n        /* \"#utility.yul\":3013:3035   */\n      add\n        /* \"#utility.yul\":2982:3045   */\n      tag_93\n      jump\t// in\n    tag_150:\n        /* \"#utility.yul\":2972:3045   */\n      swap2\n      pop\n        /* \"#utility.yul\":2768:3055   */\n      pop\n        /* \"#utility.yul\":2553:3062   */\n      swap3\n      swap2\n      pop\n      pop\n      jump\t// out\n        /* \"#utility.yul\":3068:3167   */\n    tag_94:\n        /* \"#utility.yul\":3120:3126   */\n      0x00\n        /* \"#utility.yul\":3154:3159   */\n      dup2\n        /* \"#utility.yul\":3148:3160   */\n      mload\n        /* \"#utility.yul\":3138:3160   */\n      swap1\n      pop\n        /* \"#utility.yul\":3068:3167   */\n      swap2\n      swap1\n      pop\n      jump\t// out\n        /* \"#utility.yul\":3173:3342   */\n    tag_95:\n        /* \"#utility.yul\":3257:3268   */\n      0x00\n        /* \"#utility.yul\":3291:3297   */\n      dup3\n        /* \"#utility.yul\":3286:3289   */\n      dup3\n        /* \"#utility.yul\":3279:3298   */\n      mstore\n        /* \"#utility.yul\":3331:3335   */\n      0x20\n        /* \"#utility.yul\":3326:3329   */\n      dup3\n        /* \"#utility.yul\":3322:3336   */\n      add\n        /* \"#utility.yul\":3307:3336   */\n      swap1\n      pop\n        /* \"#utility.yul\":3173:3342   */\n      swap3\n      swap2\n      pop\n      pop\n      jump\t// out\n        /* \"#utility.yul\":3348:3594   */\n    tag_96:\n        /* \"#utility.yul\":3429:3430   */\n      0x00\n        /* \"#utility.yul\":3439:3552   */\n    tag_154:\n        /* \"#utility.yul\":3453:3459   */\n      dup4\n        /* \"#utility.yul\":3450:3451   */\n      dup2\n        /* \"#utility.yul\":3447:3460   */\n      lt\n        /* \"#utility.yul\":3439:3552   */\n      iszero\n      tag_156\n      jumpi\n        /* \"#utility.yul\":3538:3539   */\n      dup1\n        /* \"#utility.yul\":3533:3536   */\n      dup3\n        /* \"#utility.yul\":3529:3540   */\n      add\n        /* \"#utility.yul\":3523:3541   */\n      mload\n        /* \"#utility.yul\":3519:3520   */\n      dup2\n        /* \"#utility.yul\":3514:3517   */\n      dup5\n        /* \"#utility.yul\":3510:3521   */\n      add\n        /* \"#utility.yul\":3503:3542   */\n      mstore\n        /* \"#utility.yul\":3475:3477   */\n      0x20\n        /* \"#utility.yul\":3472:3473   */\n      dup2\n        /* \"#utility.yul\":3468:3478   */\n      add\n        /* \"#utility.yul\":3463:3478   */\n      swap1\n      pop\n        /* \"#utility.yul\":3439:3552   */\n      jump(tag_154)\n    tag_156:\n        /* \"#utility.yul\":3586:3587   */\n      0x00\n        /* \"#utility.yul\":3577:3583   */\n      dup5\n        /* \"#utility.yul\":3572:3575   */\n      dup5\n        /* \"#utility.yul\":3568:3584   */\n      add\n        /* \"#utility.yul\":3561:3588   */\n      mstore\n        /* \"#utility.yul\":3410:3594   */\n      pop\n        /* \"#utility.yul\":3348:3594   */\n      pop\n      pop\n      pop\n      jump\t// out\n        /* \"#utility.yul\":3600:3977   */\n    tag_97:\n        /* \"#utility.yul\":3688:3691   */\n      0x00\n        /* \"#utility.yul\":3716:3755   */\n      tag_158\n        /* \"#utility.yul\":3749:3754   */\n      dup3\n        /* \"#utility.yul\":3716:3755   */\n      tag_94\n      jump\t// in\n    tag_158:\n        /* \"#utility.yul\":3771:3842   */\n      tag_159\n        /* \"#utility.yul\":3835:3841   */\n      dup2\n        /* \"#utility.yul\":3830:3833   */\n      dup6\n        /* \"#utility.yul\":3771:3842   */\n      tag_95\n      jump\t// in\n    tag_159:\n        /* \"#utility.yul\":3764:3842   */\n      swap4\n      pop\n        /* \"#utility.yul\":3851:3916   */\n      tag_160\n        /* \"#utility.yul\":3909:3915   */\n      dup2\n        /* \"#utility.yul\":3904:3907   */\n      dup6\n        /* \"#utility.yul\":3897:3901   */\n      0x20\n        /* \"#utility.yul\":3890:3895   */\n      dup7\n        /* \"#utility.yul\":3886:3902   */\n      add\n        /* \"#utility.yul\":3851:3916   */\n      tag_96\n      jump\t// in\n    tag_160:\n        /* \"#utility.yul\":3941:3970   */\n      tag_161\n        /* \"#utility.yul\":3963:3969   */\n      dup2\n        /* \"#utility.yul\":3941:3970   */\n      tag_86\n      jump\t// in\n    tag_161:\n        /* \"#utility.yul\":3936:3939   */\n      dup5\n        /* \"#utility.yul\":3932:3971   */\n      add\n        /* \"#utility.yul\":3925:3971   */\n      swap2\n      pop\n        /* \"#utility.yul\":3692:3977   */\n      pop\n        /* \"#utility.yul\":3600:3977   */\n      swap3\n      swap2\n      pop\n      pop\n      jump\t// out\n        /* \"#utility.yul\":3983:4296   */\n    tag_11:\n        /* \"#utility.yul\":4096:4100   */\n      0x00\n        /* \"#utility.yul\":4134:4136   */\n      0x20\n        /* \"#utility.yul\":4123:4132   */\n      dup3\n        /* \"#utility.yul\":4119:4137   */\n      add\n        /* \"#utility.yul\":4111:4137   */\n      swap1\n      pop\n        /* \"#utility.yul\":4183:4192   */\n      dup2\n        /* \"#utility.yul\":4177:4181   */\n      dup2\n        /* \"#utility.yul\":4173:4193   */\n      sub\n        /* \"#utility.yul\":4169:4170   */\n      0x00\n        /* \"#utility.yul\":4158:4167   */\n      dup4\n        /* \"#utility.yul\":4154:4171   */\n      add\n        /* \"#utility.yul\":4147:4194   */\n      mstore\n        /* \"#utility.yul\":4211:4289   */\n      tag_163\n        /* \"#utility.yul\":4284:4288   */\n      dup2\n        /* \"#utility.yul\":4275:4281   */\n      dup5\n        /* \"#utility.yul\":4211:4289   */\n      tag_97\n      jump\t// in\n    tag_163:\n        /* \"#utility.yul\":4203:4289   */\n      swap1\n      pop\n        /* \"#utility.yul\":3983:4296   */\n      swap3\n      swap2\n      pop\n      pop\n      jump\t// out\n        /* \"#utility.yul\":4302:4379   */\n    tag_98:\n        /* \"#utility.yul\":4339:4346   */\n      0x00\n        /* \"#utility.yul\":4368:4373   */\n      dup2\n        /* \"#utility.yul\":4357:4373   */\n      swap1\n      pop\n        /* \"#utility.yul\":4302:4379   */\n      swap2\n      swap1\n      pop\n      jump\t// out\n        /* \"#utility.yul\":4385:4507   */\n    tag_99:\n        /* \"#utility.yul\":4458:4482   */\n      tag_166\n        /* \"#utility.yul\":4476:4481   */\n      dup2\n        /* \"#utility.yul\":4458:4482   */\n      tag_98\n      jump\t// in\n    tag_166:\n        /* \"#utility.yul\":4451:4456   */\n      dup2\n        /* \"#utility.yul\":4448:4483   */\n      eq\n        /* \"#utility.yul\":4438:4501   */\n      tag_167\n      jumpi\n        /* \"#utility.yul\":4497:4498   */\n      0x00\n        /* \"#utility.yul\":4494:4495   */\n      dup1\n        /* \"#utility.yul\":4487:4499   */\n      revert\n        /* \"#utility.yul\":4438:4501   */\n    tag_167:\n        /* \"#utility.yul\":4385:4507   */\n      pop\n      jump\t// out\n        /* \"#utility.yul\":4513:4652   */\n    tag_100:\n        /* \"#utility.yul\":4559:4564   */\n      0x00\n        /* \"#utility.yul\":4597:4603   */\n      dup2\n        /* \"#utility.yul\":4584:4604   */\n      calldataload\n        /* \"#utility.yul\":4575:4604   */\n      swap1\n      pop\n        /* \"#utility.yul\":4613:4646   */\n      tag_169\n        /* \"#utility.yul\":4640:4645   */\n      dup2\n        /* \"#utility.yul\":4613:4646   */\n      tag_99\n      jump\t// in\n    tag_169:\n        /* \"#utility.yul\":4513:4652   */\n      swap3\n      swap2\n      pop\n      pop\n      jump\t// out\n        /* \"#utility.yul\":4658:4987   */\n    tag_14:\n        /* \"#utility.yul\":4717:4723   */\n      0x00\n        /* \"#utility.yul\":4766:4768   */\n      0x20\n        /* \"#utility.yul\":4754:4763   */\n      dup3\n        /* \"#utility.yul\":4745:4752   */\n      dup5\n        /* \"#utility.yul\":4741:4764   */\n      sub\n        /* \"#utility.yul\":4737:4769   */\n      slt\n        /* \"#utility.yul\":4734:4853   */\n      iszero\n      tag_171\n      jumpi\n        /* \"#utility.yul\":4772:4851   */\n      tag_172\n      tag_82\n      jump\t// in\n    tag_172:\n        /* \"#utility.yul\":4734:4853   */\n    tag_171:\n        /* \"#utility.yul\":4892:4893   */\n      0x00\n        /* \"#utility.yul\":4917:4970   */\n      tag_173\n        /* \"#utility.yul\":4962:4969   */\n      dup5\n        /* \"#utility.yul\":4953:4959   */\n      dup3\n        /* \"#utility.yul\":4942:4951   */\n      dup6\n        /* \"#utility.yul\":4938:4960   */\n      add\n        /* \"#utility.yul\":4917:4970   */\n      tag_100\n      jump\t// in\n    tag_173:\n        /* \"#utility.yul\":4907:4970   */\n      swap2\n      pop\n        /* \"#utility.yul\":4863:4980   */\n      pop\n        /* \"#utility.yul\":4658:4987   */\n      swap3\n      swap2\n      pop\n      pop\n      jump\t// out\n        /* \"#utility.yul\":4993:5507   */\n    tag_17:\n        /* \"#utility.yul\":5154:5158   */\n      0x00\n        /* \"#utility.yul\":5192:5194   */\n      0x40\n        /* \"#utility.yul\":5181:5190   */\n      dup3\n        /* \"#utility.yul\":5177:5195   */\n      add\n        /* \"#utility.yul\":5169:5195   */\n      swap1\n      pop\n        /* \"#utility.yul\":5241:5250   */\n      dup2\n        /* \"#utility.yul\":5235:5239   */\n      dup2\n        /* \"#utility.yul\":5231:5251   */\n      sub\n        /* \"#utility.yul\":5227:5228   */\n      0x00\n        /* \"#utility.yul\":5216:5225   */\n      dup4\n        /* \"#utility.yul\":5212:5229   */\n      add\n        /* \"#utility.yul\":5205:5252   */\n      mstore\n        /* \"#utility.yul\":5269:5347   */\n      tag_175\n        /* \"#utility.yul\":5342:5346   */\n      dup2\n        /* \"#utility.yul\":5333:5339   */\n      dup6\n        /* \"#utility.yul\":5269:5347   */\n      tag_97\n      jump\t// in\n    tag_175:\n        /* \"#utility.yul\":5261:5347   */\n      swap1\n      pop\n        /* \"#utility.yul\":5394:5403   */\n      dup2\n        /* \"#utility.yul\":5388:5392   */\n      dup2\n        /* \"#utility.yul\":5384:5404   */\n      sub\n        /* \"#utility.yul\":5379:5381   */\n      0x20\n        /* \"#utility.yul\":5368:5377   */\n      dup4\n        /* \"#utility.yul\":5364:5382   */\n      add\n        /* \"#utility.yul\":5357:5405   */\n      mstore\n        /* \"#utility.yul\":5422:5500   */\n      tag_176\n        /* \"#utility.yul\":5495:5499   */\n      dup2\n        /* \"#utility.yul\":5486:5492   */\n      dup5\n        /* \"#utility.yul\":5422:5500   */\n      tag_97\n      jump\t// in\n    tag_176:\n        /* \"#utility.yul\":5414:5500   */\n      swap1\n      pop\n        /* \"#utility.yul\":4993:5507   */\n      swap4\n      swap3\n      pop\n      pop\n      pop\n      jump\t// out\n        /* \"#utility.yul\":5513:5637   */\n    tag_101:\n        /* \"#utility.yul\":5590:5596   */\n      0x00\n        /* \"#utility.yul\":5624:5629   */\n      dup2\n        /* \"#utility.yul\":5618:5630   */\n      mload\n        /* \"#utility.yul\":5608:5630   */\n      swap1\n      pop\n        /* \"#utility.yul\":5513:5637   */\n      swap2\n      swap1\n      pop\n      jump\t// out\n        /* \"#utility.yul\":5643:5837   */\n    tag_102:\n        /* \"#utility.yul\":5752:5763   */\n      0x00\n        /* \"#utility.yul\":5786:5792   */\n      dup3\n        /* \"#utility.yul\":5781:5784   */\n      dup3\n        /* \"#utility.yul\":5774:5793   */\n      mstore\n        /* \"#utility.yul\":5826:5830   */\n      0x20\n        /* \"#utility.yul\":5821:5824   */\n      dup3\n        /* \"#utility.yul\":5817:5831   */\n      add\n        /* \"#utility.yul\":5802:5831   */\n      swap1\n      pop\n        /* \"#utility.yul\":5643:5837   */\n      swap3\n      swap2\n      pop\n      pop\n      jump\t// out\n        /* \"#utility.yul\":5843:5985   */\n    tag_103:\n        /* \"#utility.yul\":5920:5924   */\n      0x00\n        /* \"#utility.yul\":5943:5946   */\n      dup2\n        /* \"#utility.yul\":5935:5946   */\n      swap1\n      pop\n        /* \"#utility.yul\":5973:5977   */\n      0x20\n        /* \"#utility.yul\":5968:5971   */\n      dup3\n        /* \"#utility.yul\":5964:5978   */\n      add\n        /* \"#utility.yul\":5956:5978   */\n      swap1\n      pop\n        /* \"#utility.yul\":5843:5985   */\n      swap2\n      swap1\n      pop\n      jump\t// out\n        /* \"#utility.yul\":5991:6150   */\n    tag_104:\n        /* \"#utility.yul\":6065:6076   */\n      0x00\n        /* \"#utility.yul\":6099:6105   */\n      dup3\n        /* \"#utility.yul\":6094:6097   */\n      dup3\n        /* \"#utility.yul\":6087:6106   */\n      mstore\n        /* \"#utility.yul\":6139:6143   */\n      0x20\n        /* \"#utility.yul\":6134:6137   */\n      dup3\n        /* \"#utility.yul\":6130:6144   */\n      add\n        /* \"#utility.yul\":6115:6144   */\n      swap1\n      pop\n        /* \"#utility.yul\":5991:6150   */\n      swap3\n      swap2\n      pop\n      pop\n      jump\t// out\n        /* \"#utility.yul\":6156:6513   */\n    tag_105:\n        /* \"#utility.yul\":6234:6237   */\n      0x00\n        /* \"#utility.yul\":6262:6301   */\n      tag_182\n        /* \"#utility.yul\":6295:6300   */\n      dup3\n        /* \"#utility.yul\":6262:6301   */\n      tag_94\n      jump\t// in\n    tag_182:\n        /* \"#utility.yul\":6317:6378   */\n      tag_183\n        /* \"#utility.yul\":6371:6377   */\n      dup2\n        /* \"#utility.yul\":6366:6369   */\n      dup6\n        /* \"#utility.yul\":6317:6378   */\n      tag_104\n      jump\t// in\n    tag_183:\n        /* \"#utility.yul\":6310:6378   */\n      swap4\n      pop\n        /* \"#utility.yul\":6387:6452   */\n      tag_184\n        /* \"#utility.yul\":6445:6451   */\n      dup2\n        /* \"#utility.yul\":6440:6443   */\n      dup6\n        /* \"#utility.yul\":6433:6437   */\n      0x20\n        /* \"#utility.yul\":6426:6431   */\n      dup7\n        /* \"#utility.yul\":6422:6438   */\n      add\n        /* \"#utility.yul\":6387:6452   */\n      tag_96\n      jump\t// in\n    tag_184:\n        /* \"#utility.yul\":6477:6506   */\n      tag_185\n        /* \"#utility.yul\":6499:6505   */\n      dup2\n        /* \"#utility.yul\":6477:6506   */\n      tag_86\n      jump\t// in\n    tag_185:\n        /* \"#utility.yul\":6472:6475   */\n      dup5\n        /* \"#utility.yul\":6468:6507   */\n      add\n        /* \"#utility.yul\":6461:6507   */\n      swap2\n      pop\n        /* \"#utility.yul\":6238:6513   */\n      pop\n        /* \"#utility.yul\":6156:6513   */\n      swap3\n      swap2\n      pop\n      pop\n      jump\t// out\n        /* \"#utility.yul\":6519:6715   */\n    tag_106:\n        /* \"#utility.yul\":6608:6618   */\n      0x00\n        /* \"#utility.yul\":6643:6709   */\n      tag_187\n        /* \"#utility.yul\":6705:6708   */\n      dup4\n        /* \"#utility.yul\":6697:6703   */\n      dup4\n        /* \"#utility.yul\":6643:6709   */\n      tag_105\n      jump\t// in\n    tag_187:\n        /* \"#utility.yul\":6629:6709   */\n      swap1\n      pop\n        /* \"#utility.yul\":6519:6715   */\n      swap3\n      swap2\n      pop\n      pop\n      jump\t// out\n        /* \"#utility.yul\":6721:6844   */\n    tag_107:\n        /* \"#utility.yul\":6801:6805   */\n      0x00\n        /* \"#utility.yul\":6833:6837   */\n      0x20\n        /* \"#utility.yul\":6828:6831   */\n      dup3\n        /* \"#utility.yul\":6824:6838   */\n      add\n        /* \"#utility.yul\":6816:6838   */\n      swap1\n      pop\n        /* \"#utility.yul\":6721:6844   */\n      swap2\n      swap1\n      pop\n      jump\t// out\n        /* \"#utility.yul\":6878:7869   */\n    tag_108:\n        /* \"#utility.yul\":7017:7020   */\n      0x00\n        /* \"#utility.yul\":7046:7110   */\n      tag_190\n        /* \"#utility.yul\":7104:7109   */\n      dup3\n        /* \"#utility.yul\":7046:7110   */\n      tag_101\n      jump\t// in\n    tag_190:\n        /* \"#utility.yul\":7126:7222   */\n      tag_191\n        /* \"#utility.yul\":7215:7221   */\n      dup2\n        /* \"#utility.yul\":7210:7213   */\n      dup6\n        /* \"#utility.yul\":7126:7222   */\n      tag_102\n      jump\t// in\n    tag_191:\n        /* \"#utility.yul\":7119:7222   */\n      swap4\n      pop\n        /* \"#utility.yul\":7248:7251   */\n      dup4\n        /* \"#utility.yul\":7293:7297   */\n      0x20\n        /* \"#utility.yul\":7285:7291   */\n      dup3\n        /* \"#utility.yul\":7281:7298   */\n      mul\n        /* \"#utility.yul\":7276:7279   */\n      dup6\n        /* \"#utility.yul\":7272:7299   */\n      add\n        /* \"#utility.yul\":7323:7389   */\n      tag_192\n        /* \"#utility.yul\":7383:7388   */\n      dup6\n        /* \"#utility.yul\":7323:7389   */\n      tag_103\n      jump\t// in\n    tag_192:\n        /* \"#utility.yul\":7412:7419   */\n      dup1\n        /* \"#utility.yul\":7443:7444   */\n      0x00\n        /* \"#utility.yul\":7428:7824   */\n    tag_193:\n        /* \"#utility.yul\":7453:7459   */\n      dup6\n        /* \"#utility.yul\":7450:7451   */\n      dup2\n        /* \"#utility.yul\":7447:7460   */\n      lt\n        /* \"#utility.yul\":7428:7824   */\n      iszero\n      tag_195\n      jumpi\n        /* \"#utility.yul\":7524:7533   */\n      dup5\n        /* \"#utility.yul\":7518:7522   */\n      dup5\n        /* \"#utility.yul\":7514:7534   */\n      sub\n        /* \"#utility.yul\":7509:7512   */\n      dup10\n        /* \"#utility.yul\":7502:7535   */\n      mstore\n        /* \"#utility.yul\":7575:7581   */\n      dup2\n        /* \"#utility.yul\":7569:7582   */\n      mload\n        /* \"#utility.yul\":7603:7687   */\n      tag_196\n        /* \"#utility.yul\":7682:7686   */\n      dup6\n        /* \"#utility.yul\":7667:7680   */\n      dup3\n        /* \"#utility.yul\":7603:7687   */\n      tag_106\n      jump\t// in\n    tag_196:\n        /* \"#utility.yul\":7595:7687   */\n      swap5\n      pop\n        /* \"#utility.yul\":7710:7780   */\n      tag_197\n        /* \"#utility.yul\":7773:7779   */\n      dup4\n        /* \"#utility.yul\":7710:7780   */\n      tag_107\n      jump\t// in\n    tag_197:\n        /* \"#utility.yul\":7700:7780   */\n      swap3\n      pop\n        /* \"#utility.yul\":7809:7813   */\n      0x20\n        /* \"#utility.yul\":7804:7807   */\n      dup11\n        /* \"#utility.yul\":7800:7814   */\n      add\n        /* \"#utility.yul\":7793:7814   */\n      swap10\n      pop\n        /* \"#utility.yul\":7488:7824   */\n      pop\n        /* \"#utility.yul\":7475:7476   */\n      0x01\n        /* \"#utility.yul\":7472:7473   */\n      dup2\n        /* \"#utility.yul\":7468:7477   */\n      add\n        /* \"#utility.yul\":7463:7477   */\n      swap1\n      pop\n        /* \"#utility.yul\":7428:7824   */\n      jump(tag_193)\n    tag_195:\n        /* \"#utility.yul\":7432:7446   */\n      pop\n        /* \"#utility.yul\":7840:7844   */\n      dup3\n        /* \"#utility.yul\":7833:7844   */\n      swap8\n      pop\n        /* \"#utility.yul\":7860:7863   */\n      dup8\n        /* \"#utility.yul\":7853:7863   */\n      swap6\n      pop\n        /* \"#utility.yul\":7022:7869   */\n      pop\n      pop\n      pop\n      pop\n      pop\n        /* \"#utility.yul\":6878:7869   */\n      swap3\n      swap2\n      pop\n      pop\n      jump\t// out\n        /* \"#utility.yul\":7875:8288   */\n    tag_22:\n        /* \"#utility.yul\":8038:8042   */\n      0x00\n        /* \"#utility.yul\":8076:8078   */\n      0x20\n        /* \"#utility.yul\":8065:8074   */\n      dup3\n        /* \"#utility.yul\":8061:8079   */\n      add\n        /* \"#utility.yul\":8053:8079   */\n      swap1\n      pop\n        /* \"#utility.yul\":8125:8134   */\n      dup2\n        /* \"#utility.yul\":8119:8123   */\n      dup2\n        /* \"#utility.yul\":8115:8135   */\n      sub\n        /* \"#utility.yul\":8111:8112   */\n      0x00\n        /* \"#utility.yul\":8100:8109   */\n      dup4\n        /* \"#utility.yul\":8096:8113   */\n      add\n        /* \"#utility.yul\":8089:8136   */\n      mstore\n        /* \"#utility.yul\":8153:8281   */\n      tag_199\n        /* \"#utility.yul\":8276:8280   */\n      dup2\n        /* \"#utility.yul\":8267:8273   */\n      dup5\n        /* \"#utility.yul\":8153:8281   */\n      tag_108\n      jump\t// in\n    tag_199:\n        /* \"#utility.yul\":8145:8281   */\n      swap1\n      pop\n        /* \"#utility.yul\":7875:8288   */\n      swap3\n      swap2\n      pop\n      pop\n      jump\t// out\n        /* \"#utility.yul\":8294:8442   */\n    tag_109:\n        /* \"#utility.yul\":8396:8407   */\n      0x00\n        /* \"#utility.yul\":8433:8436   */\n      dup2\n        /* \"#utility.yul\":8418:8436   */\n      swap1\n      pop\n        /* \"#utility.yul\":8294:8442   */\n      swap3\n      swap2\n      pop\n      pop\n      jump\t// out\n        /* \"#utility.yul\":8448:8838   */\n    tag_110:\n        /* \"#utility.yul\":8554:8557   */\n      0x00\n        /* \"#utility.yul\":8582:8621   */\n      tag_202\n        /* \"#utility.yul\":8615:8620   */\n      dup3\n        /* \"#utility.yul\":8582:8621   */\n      tag_94\n      jump\t// in\n    tag_202:\n        /* \"#utility.yul\":8637:8726   */\n      tag_203\n        /* \"#utility.yul\":8719:8725   */\n      dup2\n        /* \"#utility.yul\":8714:8717   */\n      dup6\n        /* \"#utility.yul\":8637:8726   */\n      tag_109\n      jump\t// in\n    tag_203:\n        /* \"#utility.yul\":8630:8726   */\n      swap4\n      pop\n        /* \"#utility.yul\":8735:8800   */\n      tag_204\n        /* \"#utility.yul\":8793:8799   */\n      dup2\n        /* \"#utility.yul\":8788:8791   */\n      dup6\n        /* \"#utility.yul\":8781:8785   */\n      0x20\n        /* \"#utility.yul\":8774:8779   */\n      dup7\n        /* \"#utility.yul\":8770:8786   */\n      add\n        /* \"#utility.yul\":8735:8800   */\n      tag_96\n      jump\t// in\n    tag_204:\n        /* \"#utility.yul\":8825:8831   */\n      dup1\n        /* \"#utility.yul\":8820:8823   */\n      dup5\n        /* \"#utility.yul\":8816:8832   */\n      add\n        /* \"#utility.yul\":8809:8832   */\n      swap2\n      pop\n        /* \"#utility.yul\":8558:8838   */\n      pop\n        /* \"#utility.yul\":8448:8838   */\n      swap3\n      swap2\n      pop\n      pop\n      jump\t// out\n        /* \"#utility.yul\":8844:9119   */\n    tag_28:\n        /* \"#utility.yul\":8976:8979   */\n      0x00\n        /* \"#utility.yul\":8998:9093   */\n      tag_206\n        /* \"#utility.yul\":9089:9092   */\n      dup3\n        /* \"#utility.yul\":9080:9086   */\n      dup5\n        /* \"#utility.yul\":8998:9093   */\n      tag_110\n      jump\t// in\n    tag_206:\n        /* \"#utility.yul\":8991:9093   */\n      swap2\n      pop\n        /* \"#utility.yul\":9110:9113   */\n      dup2\n        /* \"#utility.yul\":9103:9113   */\n      swap1\n      pop\n        /* \"#utility.yul\":8844:9119   */\n      swap3\n      swap2\n      pop\n      pop\n      jump\t// out\n        /* \"#utility.yul\":9125:9305   */\n    tag_31:\n        /* \"#utility.yul\":9173:9250   */\n      0x4e487b7100000000000000000000000000000000000000000000000000000000\n        /* \"#utility.yul\":9170:9171   */\n      0x00\n        /* \"#utility.yul\":9163:9251   */\n      mstore\n        /* \"#utility.yul\":9270:9274   */\n      0x32\n        /* \"#utility.yul\":9267:9268   */\n      0x04\n        /* \"#utility.yul\":9260:9275   */\n      mstore\n        /* \"#utility.yul\":9294:9298   */\n      0x24\n        /* \"#utility.yul\":9291:9292   */\n      0x00\n        /* \"#utility.yul\":9284:9299   */\n      revert\n        /* \"#utility.yul\":9311:9491   */\n    tag_111:\n        /* \"#utility.yul\":9359:9436   */\n      0x4e487b7100000000000000000000000000000000000000000000000000000000\n        /* \"#utility.yul\":9356:9357   */\n      0x00\n        /* \"#utility.yul\":9349:9437   */\n      mstore\n        /* \"#utility.yul\":9456:9460   */\n      0x22\n        /* \"#utility.yul\":9453:9454   */\n      0x04\n        /* \"#utility.yul\":9446:9461   */\n      mstore\n        /* \"#utility.yul\":9480:9484   */\n      0x24\n        /* \"#utility.yul\":9477:9478   */\n      0x00\n        /* \"#utility.yul\":9470:9485   */\n      revert\n        /* \"#utility.yul\":9497:9817   */\n    tag_40:\n        /* \"#utility.yul\":9541:9547   */\n      0x00\n        /* \"#utility.yul\":9578:9579   */\n      0x02\n        /* \"#utility.yul\":9572:9576   */\n      dup3\n        /* \"#utility.yul\":9568:9580   */\n      div\n        /* \"#utility.yul\":9558:9580   */\n      swap1\n      pop\n        /* \"#utility.yul\":9625:9626   */\n      0x01\n        /* \"#utility.yul\":9619:9623   */\n      dup3\n        /* \"#utility.yul\":9615:9627   */\n      and\n        /* \"#utility.yul\":9646:9664   */\n      dup1\n        /* \"#utility.yul\":9636:9717   */\n      tag_210\n      jumpi\n        /* \"#utility.yul\":9702:9706   */\n      0x7f\n        /* \"#utility.yul\":9694:9700   */\n      dup3\n        /* \"#utility.yul\":9690:9707   */\n      and\n        /* \"#utility.yul\":9680:9707   */\n      swap2\n      pop\n        /* \"#utility.yul\":9636:9717   */\n    tag_210:\n        /* \"#utility.yul\":9764:9766   */\n      0x20\n        /* \"#utility.yul\":9756:9762   */\n      dup3\n        /* \"#utility.yul\":9753:9767   */\n      lt\n        /* \"#utility.yul\":9733:9751   */\n      dup2\n        /* \"#utility.yul\":9730:9768   */\n      sub\n        /* \"#utility.yul\":9727:9811   */\n      tag_211\n      jumpi\n        /* \"#utility.yul\":9783:9801   */\n      tag_212\n      tag_111\n      jump\t// in\n    tag_212:\n        /* \"#utility.yul\":9727:9811   */\n    tag_211:\n        /* \"#utility.yul\":9548:9817   */\n      pop\n        /* \"#utility.yul\":9497:9817   */\n      swap2\n      swap1\n      pop\n      jump\t// out\n        /* \"#utility.yul\":9823:9964   */\n    tag_112:\n        /* \"#utility.yul\":9872:9876   */\n      0x00\n        /* \"#utility.yul\":9895:9898   */\n      dup2\n        /* \"#utility.yul\":9887:9898   */\n      swap1\n      pop\n        /* \"#utility.yul\":9918:9921   */\n      dup2\n        /* \"#utility.yul\":9915:9916   */\n      0x00\n        /* \"#utility.yul\":9908:9922   */\n      mstore\n        /* \"#utility.yul\":9952:9956   */\n      0x20\n        /* \"#utility.yul\":9949:9950   */\n      0x00\n        /* \"#utility.yul\":9939:9957   */\n      keccak256\n        /* \"#utility.yul\":9931:9957   */\n      swap1\n      pop\n        /* \"#utility.yul\":9823:9964   */\n      swap2\n      swap1\n      pop\n      jump\t// out\n        /* \"#utility.yul\":9994:10868   */\n    tag_113:\n        /* \"#utility.yul\":10097:10100   */\n      0x00\n        /* \"#utility.yul\":10134:10139   */\n      dup2\n        /* \"#utility.yul\":10128:10140   */\n      sload\n        /* \"#utility.yul\":10163:10199   */\n      tag_215\n        /* \"#utility.yul\":10189:10198   */\n      dup2\n        /* \"#utility.yul\":10163:10199   */\n      tag_40\n      jump\t// in\n    tag_215:\n        /* \"#utility.yul\":10215:10304   */\n      tag_216\n        /* \"#utility.yul\":10297:10303   */\n      dup2\n        /* \"#utility.yul\":10292:10295   */\n      dup7\n        /* \"#utility.yul\":10215:10304   */\n      tag_109\n      jump\t// in\n    tag_216:\n        /* \"#utility.yul\":10208:10304   */\n      swap5\n      pop\n        /* \"#utility.yul\":10335:10336   */\n      0x01\n        /* \"#utility.yul\":10324:10333   */\n      dup3\n        /* \"#utility.yul\":10320:10337   */\n      and\n        /* \"#utility.yul\":10351:10352   */\n      0x00\n        /* \"#utility.yul\":10346:10512   */\n      dup2\n      eq\n      tag_218\n      jumpi\n        /* \"#utility.yul\":10526:10527   */\n      0x01\n        /* \"#utility.yul\":10521:10862   */\n      dup2\n      eq\n      tag_219\n      jumpi\n        /* \"#utility.yul\":10313:10862   */\n      jump(tag_217)\n        /* \"#utility.yul\":10346:10512   */\n    tag_218:\n        /* \"#utility.yul\":10430:10434   */\n      0xff\n        /* \"#utility.yul\":10426:10435   */\n      not\n        /* \"#utility.yul\":10415:10424   */\n      dup4\n        /* \"#utility.yul\":10411:10436   */\n      and\n        /* \"#utility.yul\":10406:10409   */\n      dup7\n        /* \"#utility.yul\":10399:10437   */\n      mstore\n        /* \"#utility.yul\":10492:10498   */\n      dup2\n        /* \"#utility.yul\":10485:10499   */\n      iszero\n        /* \"#utility.yul\":10478:10500   */\n      iszero\n        /* \"#utility.yul\":10470:10476   */\n      dup3\n        /* \"#utility.yul\":10466:10501   */\n      mul\n        /* \"#utility.yul\":10461:10464   */\n      dup7\n        /* \"#utility.yul\":10457:10502   */\n      add\n        /* \"#utility.yul\":10450:10502   */\n      swap4\n      pop\n        /* \"#utility.yul\":10346:10512   */\n      jump(tag_217)\n        /* \"#utility.yul\":10521:10862   */\n    tag_219:\n        /* \"#utility.yul\":10588:10626   */\n      tag_220\n        /* \"#utility.yul\":10620:10625   */\n      dup6\n        /* \"#utility.yul\":10588:10626   */\n      tag_112\n      jump\t// in\n    tag_220:\n        /* \"#utility.yul\":10648:10649   */\n      0x00\n        /* \"#utility.yul\":10662:10816   */\n    tag_221:\n        /* \"#utility.yul\":10676:10682   */\n      dup4\n        /* \"#utility.yul\":10673:10674   */\n      dup2\n        /* \"#utility.yul\":10670:10683   */\n      lt\n        /* \"#utility.yul\":10662:10816   */\n      iszero\n      tag_223\n      jumpi\n        /* \"#utility.yul\":10750:10757   */\n      dup2\n        /* \"#utility.yul\":10744:10758   */\n      sload\n        /* \"#utility.yul\":10740:10741   */\n      dup2\n        /* \"#utility.yul\":10735:10738   */\n      dup10\n        /* \"#utility.yul\":10731:10742   */\n      add\n        /* \"#utility.yul\":10724:10759   */\n      mstore\n        /* \"#utility.yul\":10800:10801   */\n      0x01\n        /* \"#utility.yul\":10791:10798   */\n      dup3\n        /* \"#utility.yul\":10787:10802   */\n      add\n        /* \"#utility.yul\":10776:10802   */\n      swap2\n      pop\n        /* \"#utility.yul\":10698:10702   */\n      0x20\n        /* \"#utility.yul\":10695:10696   */\n      dup2\n        /* \"#utility.yul\":10691:10703   */\n      add\n        /* \"#utility.yul\":10686:10703   */\n      swap1\n      pop\n        /* \"#utility.yul\":10662:10816   */\n      jump(tag_221)\n    tag_223:\n        /* \"#utility.yul\":10845:10851   */\n      dup4\n        /* \"#utility.yul\":10840:10843   */\n      dup9\n        /* \"#utility.yul\":10836:10852   */\n      add\n        /* \"#utility.yul\":10829:10852   */\n      swap6\n      pop\n        /* \"#utility.yul\":10528:10862   */\n      pop\n      pop\n        /* \"#utility.yul\":10313:10862   */\n    tag_217:\n      pop\n        /* \"#utility.yul\":10101:10868   */\n      pop\n      pop\n        /* \"#utility.yul\":9994:10868   */\n      swap3\n      swap2\n      pop\n      pop\n      jump\t// out\n        /* \"#utility.yul\":10874:11143   */\n    tag_34:\n        /* \"#utility.yul\":11003:11006   */\n      0x00\n        /* \"#utility.yul\":11025:11117   */\n      tag_225\n        /* \"#utility.yul\":11113:11116   */\n      dup3\n        /* \"#utility.yul\":11104:11110   */\n      dup5\n        /* \"#utility.yul\":11025:11117   */\n      tag_113\n      jump\t// in\n    tag_225:\n        /* \"#utility.yul\":11018:11117   */\n      swap2\n      pop\n        /* \"#utility.yul\":11134:11137   */\n      dup2\n        /* \"#utility.yul\":11127:11137   */\n      swap1\n      pop\n        /* \"#utility.yul\":10874:11143   */\n      swap3\n      swap2\n      pop\n      pop\n      jump\t// out\n        /* \"#utility.yul\":11149:11329   */\n    tag_114:\n        /* \"#utility.yul\":11197:11274   */\n      0x4e487b7100000000000000000000000000000000000000000000000000000000\n        /* \"#utility.yul\":11194:11195   */\n      0x00\n        /* \"#utility.yul\":11187:11275   */\n      mstore\n        /* \"#utility.yul\":11294:11298   */\n      0x11\n        /* \"#utility.yul\":11291:11292   */\n      0x04\n        /* \"#utility.yul\":11284:11299   */\n      mstore\n        /* \"#utility.yul\":11318:11322   */\n      0x24\n        /* \"#utility.yul\":11315:11316   */\n      0x00\n        /* \"#utility.yul\":11308:11323   */\n      revert\n        /* \"#utility.yul\":11335:11568   */\n    tag_46:\n        /* \"#utility.yul\":11374:11377   */\n      0x00\n        /* \"#utility.yul\":11397:11421   */\n      tag_228\n        /* \"#utility.yul\":11415:11420   */\n      dup3\n        /* \"#utility.yul\":11397:11421   */\n      tag_98\n      jump\t// in\n    tag_228:\n        /* \"#utility.yul\":11388:11421   */\n      swap2\n      pop\n        /* \"#utility.yul\":11443:11509   */\n      0xffffffffffffffffffffffffffffffffffffffffffffffffffffffffffffffff\n        /* \"#utility.yul\":11436:11441   */\n      dup3\n        /* \"#utility.yul\":11433:11510   */\n      sub\n        /* \"#utility.yul\":11430:11533   */\n      tag_229\n      jumpi\n        /* \"#utility.yul\":11513:11531   */\n      tag_230\n      tag_114\n      jump\t// in\n    tag_230:\n        /* \"#utility.yul\":11430:11533   */\n    tag_229:\n        /* \"#utility.yul\":11560:11561   */\n      0x01\n        /* \"#utility.yul\":11553:11558   */\n      dup3\n        /* \"#utility.yul\":11549:11562   */\n      add\n        /* \"#utility.yul\":11542:11562   */\n      swap1\n      pop\n        /* \"#utility.yul\":11335:11568   */\n      swap2\n      swap1\n      pop\n      jump\t// out\n\n    auxdata: 0xa26469706673582212206d8d922e6ed21dab31f3e0ac3a0cb5b7d138cf6e8427163e8a341fdd9c4204cc64736f6c63430008120033\n}\n",
				"bytecode": {
					"linkReferences": {},
					"object": "60806040523480156200001157600080fd5b506040518060400160405280600781526020017f76656e646f723100000000000000000000000000000000000000000000000000815250600160000190816200005b919062000ef0565b506040518060400160405280600781526020017f76656e646f72320000000000000000000000000000000000000000000000000081525060046000019081620000a5919062000ef0565b506040518060400160405280600781526020017f76656e646f72330000000000000000000000000000000000000000000000000081525060076000019081620000ef919062000ef0565b506040518060600160405280602a815260200162001c5e602a91396001800190816200011c919062000ef0565b50604051806101e001604052806040518060400160405280600481526020017f726963650000000000000000000000000000000000000000000000000000000081525081526020016040518060400160405280600581526020017f776865617400000000000000000000000000000000000000000000000000000081525081526020016040518060400160405280600981526020017f6d65646963696e6573000000000000000000000000000000000000000000000081525081526020016040518060400160405280600681526020017f636172726f74000000000000000000000000000000000000000000000000000081525081526020016040518060400160405280600881526020017f62656574726f6f7400000000000000000000000000000000000000000000000081525081526020016040518060400160405280600681526020017f6379636c6573000000000000000000000000000000000000000000000000000081525081526020016040518060400160405280600481526020017f636172730000000000000000000000000000000000000000000000000000000081525081526020016040518060400160405280600581526020017f6a6565707300000000000000000000000000000000000000000000000000000081525081526020016040518060400160405280600681526020017f747275636b73000000000000000000000000000000000000000000000000000081525081526020016040518060400160405280600481526020017f6d6561740000000000000000000000000000000000000000000000000000000081525081526020016040518060400160405280600481526020017f6d696c6b0000000000000000000000000000000000000000000000000000000081525081526020016040518060400160405280600481526020017f656767730000000000000000000000000000000000000000000000000000000081525081526020016040518060400160405280600581526020017f6368616e6100000000000000000000000000000000000000000000000000000081525081526020016040518060400160405280600881526020017f706f7461746f657300000000000000000000000000000000000000000000000081525081526020016040518060400160405280600881526020017f746f6d61746f6573000000000000000000000000000000000000000000000000815250815250600160020190600f620004b192919062000a65565b506040518060600160405280602a815260200162001cb2602a913960046001019081620004df919062000ef0565b506040518061016001604052806040518060400160405280600481526020017f726963650000000000000000000000000000000000000000000000000000000081525081526020016040518060400160405280600581526020017f776865617400000000000000000000000000000000000000000000000000000081525081526020016040518060400160405280600981526020017f6d65646963696e6573000000000000000000000000000000000000000000000081525081526020016040518060400160405280600681526020017f636172726f74000000000000000000000000000000000000000000000000000081525081526020016040518060400160405280600881526020017f62656574726f6f7400000000000000000000000000000000000000000000000081525081526020016040518060400160405280600481526020017f6d6561740000000000000000000000000000000000000000000000000000000081525081526020016040518060400160405280600481526020017f6d696c6b0000000000000000000000000000000000000000000000000000000081525081526020016040518060400160405280600481526020017f656767730000000000000000000000000000000000000000000000000000000081525081526020016040518060400160405280600581526020017f6368616e6100000000000000000000000000000000000000000000000000000081525081526020016040518060400160405280600881526020017f706f7461746f657300000000000000000000000000000000000000000000000081525081526020016040518060400160405280600881526020017f746f6d61746f6573000000000000000000000000000000000000000000000000815250815250600460020190600b6200078892919062000ac5565b506040518060600160405280602a815260200162001c88602a913960076001019081620007b6919062000ef0565b506040518060a001604052806040518060400160405280600981526020017f6d65646963696e6573000000000000000000000000000000000000000000000081525081526020016040518060400160405280600681526020017f6379636c6573000000000000000000000000000000000000000000000000000081525081526020016040518060400160405280600481526020017f636172730000000000000000000000000000000000000000000000000000000081525081526020016040518060400160405280600581526020017f6a6565707300000000000000000000000000000000000000000000000000000081525081526020016040518060400160405280600681526020017f747275636b7300000000000000000000000000000000000000000000000000008152508152506007600201906005620008fc92919062000b25565b506000600190806001815401808255809150506001900390600052602060002090600302016000909190919091506000820181600001908162000940919062000fef565b506001820181600101908162000957919062000fef565b5060028201816002019080546200097092919062000b85565b50505060006004908060018154018082558091505060019003906000526020600020906003020160009091909190915060008201816000019081620009b6919062000fef565b5060018201816001019081620009cd919062000fef565b506002820181600201908054620009e692919062000b85565b5050506000600790806001815401808255809150506001900390600052602060002090600302016000909190919091506000820181600001908162000a2c919062000fef565b506001820181600101908162000a43919062000fef565b50600282018160020190805462000a5c92919062000b85565b505050620010f0565b82805482825590600052602060002090810192821562000ab2579160200282015b8281111562000ab157825182908162000aa0919062000ef0565b509160200191906001019062000a86565b5b50905062000ac1919062000be9565b5090565b82805482825590600052602060002090810192821562000b12579160200282015b8281111562000b1157825182908162000b00919062000ef0565b509160200191906001019062000ae6565b5b50905062000b21919062000be9565b5090565b82805482825590600052602060002090810192821562000b72579160200282015b8281111562000b7157825182908162000b60919062000ef0565b509160200191906001019062000b46565b5b50905062000b81919062000be9565b5090565b82805482825590600052602060002090810192821562000bd65760005260206000209182015b8281111562000bd5578282908162000bc4919062000fef565b509160010191906001019062000bab565b5b50905062000be5919062000be9565b5090565b5b8082111562000c0d576000818162000c03919062000c11565b5060010162000bea565b5090565b50805462000c1f9062000cdf565b6000825580601f1062000c33575062000c54565b601f01602090049060005260206000209081019062000c53919062000c57565b5b50565b5b8082111562000c7257600081600090555060010162000c58565b5090565b600081519050919050565b7f4e487b7100000000000000000000000000000000000000000000000000000000600052604160045260246000fd5b7f4e487b7100000000000000000000000000000000000000000000000000000000600052602260045260246000fd5b6000600282049050600182168062000cf857607f821691505b60208210810362000d0e5762000d0d62000cb0565b5b50919050565b60008190508160005260206000209050919050565b60006020601f8301049050919050565b600082821b905092915050565b60006008830262000d787fffffffffffffffffffffffffffffffffffffffffffffffffffffffffffffffff8262000d39565b62000d84868362000d39565b95508019841693508086168417925050509392505050565b6000819050919050565b6000819050919050565b600062000dd162000dcb62000dc58462000d9c565b62000da6565b62000d9c565b9050919050565b6000819050919050565b62000ded8362000db0565b62000e0562000dfc8262000dd8565b84845462000d46565b825550505050565b600090565b62000e1c62000e0d565b62000e2981848462000de2565b505050565b5b8181101562000e515762000e4560008262000e12565b60018101905062000e2f565b5050565b601f82111562000ea05762000e6a8162000d14565b62000e758462000d29565b8101602085101562000e85578190505b62000e9d62000e948562000d29565b83018262000e2e565b50505b505050565b600082821c905092915050565b600062000ec56000198460080262000ea5565b1980831691505092915050565b600062000ee0838362000eb2565b9150826002028217905092915050565b62000efb8262000c76565b67ffffffffffffffff81111562000f175762000f1662000c81565b5b62000f23825462000cdf565b62000f3082828562000e55565b600060209050601f83116001811462000f68576000841562000f53578287015190505b62000f5f858262000ed2565b86555062000fcf565b601f19841662000f788662000d14565b60005b8281101562000fa25784890151825560018201915060208501945060208101905062000f7b565b8683101562000fc2578489015162000fbe601f89168262000eb2565b8355505b6001600288020188555050505b505050505050565b60008154905062000fe88162000cdf565b9050919050565b81810362000fff575050620010ee565b6200100a8262000fd7565b67ffffffffffffffff81111562001026576200102562000c81565b5b62001032825462000cdf565b6200103f82828562000e55565b6000601f8311600181146200107357600084156200105e578287015490505b6200106a858262000ed2565b865550620010e7565b601f198416620010838762000d14565b9650620010908662000d14565b60005b82811015620010ba5784890154825560018201915060018501945060208101905062001093565b86831015620010da5784890154620010d6601f89168262000eb2565b8355505b6001600288020188555050505b5050505050505b565b610b5e80620011006000396000f3fe608060405234801561001057600080fd5b50600436106100415760003560e01c8063693ec85e1461004657806371e5ee5f14610076578063d91dd1e0146100a7575b600080fd5b610060600480360381019061005b919061066e565b6100d7565b60405161006d9190610736565b60405180910390f35b610090600480360381019061008b919061078e565b610230565b60405161009e9291906107bb565b60405180910390f35b6100c160048036038101906100bc919061066e565b610374565b6040516100ce91906108fe565b60405180910390f35b606060005b60008054905081101561022957826040516020016100fa919061095c565b604051602081830303815290604052805190602001206000828154811061012457610123610973565b5b90600052602060002090600302016000016040516020016101459190610a9a565b6040516020818303038152906040528051906020012003610216576000818154811061017457610173610973565b5b90600052602060002090600302016001018054610190906109d1565b80601f01602080910402602001604051908101604052809291908181526020018280546101bc906109d1565b80156102095780601f106101de57610100808354040283529160200191610209565b820191906000526020600020905b8154815290600101906020018083116101ec57829003601f168201915b505050505091505061022b565b808061022190610ae0565b9150506100dc565b505b919050565b6000818154811061024057600080fd5b9060005260206000209060030201600091509050806000018054610263906109d1565b80601f016020809104026020016040519081016040528092919081815260200182805461028f906109d1565b80156102dc5780601f106102b1576101008083540402835291602001916102dc565b820191906000526020600020905b8154815290600101906020018083116102bf57829003601f168201915b5050505050908060010180546102f1906109d1565b80601f016020809104026020016040519081016040528092919081815260200182805461031d906109d1565b801561036a5780601f1061033f5761010080835404028352916020019161036a565b820191906000526020600020905b81548152906001019060200180831161034d57829003601f168201915b5050505050905082565b606060005b60008054905081101561050d5782604051602001610397919061095c565b60405160208183030381529060405280519060200120600082815481106103c1576103c0610973565b5b90600052602060002090600302016000016040516020016103e29190610a9a565b60405160208183030381529060405280519060200120036104fa576000818154811061041157610410610973565b5b9060005260206000209060030201600201805480602002602001604051908101604052809291908181526020016000905b828210156104ee578382906000526020600020018054610461906109d1565b80601f016020809104026020016040519081016040528092919081815260200182805461048d906109d1565b80156104da5780601f106104af576101008083540402835291602001916104da565b820191906000526020600020905b8154815290600101906020018083116104bd57829003601f168201915b505050505081526020019060010190610442565b5050505091505061050f565b808061050590610ae0565b915050610379565b505b919050565b6000604051905090565b600080fd5b600080fd5b600080fd5b600080fd5b6000601f19601f8301169050919050565b7f4e487b7100000000000000000000000000000000000000000000000000000000600052604160045260246000fd5b61057b82610532565b810181811067ffffffffffffffff8211171561059a57610599610543565b5b80604052505050565b60006105ad610514565b90506105b98282610572565b919050565b600067ffffffffffffffff8211156105d9576105d8610543565b5b6105e282610532565b9050602081019050919050565b82818337600083830152505050565b600061061161060c846105be565b6105a3565b90508281526020810184848401111561062d5761062c61052d565b5b6106388482856105ef565b509392505050565b600082601f83011261065557610654610528565b5b81356106658482602086016105fe565b91505092915050565b6000602082840312156106845761068361051e565b5b600082013567ffffffffffffffff8111156106a2576106a1610523565b5b6106ae84828501610640565b91505092915050565b600081519050919050565b600082825260208201905092915050565b60005b838110156106f15780820151818401526020810190506106d6565b60008484015250505050565b6000610708826106b7565b61071281856106c2565b93506107228185602086016106d3565b61072b81610532565b840191505092915050565b6000602082019050818103600083015261075081846106fd565b905092915050565b6000819050919050565b61076b81610758565b811461077657600080fd5b50565b60008135905061078881610762565b92915050565b6000602082840312156107a4576107a361051e565b5b60006107b284828501610779565b91505092915050565b600060408201905081810360008301526107d581856106fd565b905081810360208301526107e981846106fd565b90509392505050565b600081519050919050565b600082825260208201905092915050565b6000819050602082019050919050565b600082825260208201905092915050565b600061083a826106b7565b610844818561081e565b93506108548185602086016106d3565b61085d81610532565b840191505092915050565b6000610874838361082f565b905092915050565b6000602082019050919050565b6000610894826107f2565b61089e81856107fd565b9350836020820285016108b08561080e565b8060005b858110156108ec57848403895281516108cd8582610868565b94506108d88361087c565b925060208a019950506001810190506108b4565b50829750879550505050505092915050565b600060208201905081810360008301526109188184610889565b905092915050565b600081905092915050565b6000610936826106b7565b6109408185610920565b93506109508185602086016106d3565b80840191505092915050565b6000610968828461092b565b915081905092915050565b7f4e487b7100000000000000000000000000000000000000000000000000000000600052603260045260246000fd5b7f4e487b7100000000000000000000000000000000000000000000000000000000600052602260045260246000fd5b600060028204905060018216806109e957607f821691505b6020821081036109fc576109fb6109a2565b5b50919050565b60008190508160005260206000209050919050565b60008154610a24816109d1565b610a2e8186610920565b94506001821660008114610a495760018114610a5e57610a91565b60ff1983168652811515820286019350610a91565b610a6785610a02565b60005b83811015610a8957815481890152600182019150602081019050610a6a565b838801955050505b50505092915050565b6000610aa68284610a17565b915081905092915050565b7f4e487b7100000000000000000000000000000000000000000000000000000000600052601160045260246000fd5b6000610aeb82610758565b91507fffffffffffffffffffffffffffffffffffffffffffffffffffffffffffffffff8203610b1d57610b1c610ab1565b5b60018201905091905056fea26469706673582212206d8d922e6ed21dab31f3e0ac3a0cb5b7d138cf6e8427163e8a341fdd9c4204cc64736f6c63430008120033307834303535463834423132413462333366363762423442643036373539384566633535613034653943307861663664313037666532383765326164353331323138383163613436323439353765386438663361307836353165393142413262434533613431333131353934634533313432626538336537443063466465",
					"opcodes": "PUSH1 0x80 PUSH1 0x40 MSTORE CALLVALUE DUP1 ISZERO PUSH3 0x11 JUMPI PUSH1 0x0 DUP1 REVERT JUMPDEST POP PUSH1 0x40 MLOAD DUP1 PUSH1 0x40 ADD PUSH1 0x40 MSTORE DUP1 PUSH1 0x7 DUP2 MSTORE PUSH1 0x20 ADD PUSH32 0x76656E646F723100000000000000000000000000000000000000000000000000 DUP2 MSTORE POP PUSH1 0x1 PUSH1 0x0 ADD SWAP1 DUP2 PUSH3 0x5B SWAP2 SWAP1 PUSH3 0xEF0 JUMP JUMPDEST POP PUSH1 0x40 MLOAD DUP1 PUSH1 0x40 ADD PUSH1 0x40 MSTORE DUP1 PUSH1 0x7 DUP2 MSTORE PUSH1 0x20 ADD PUSH32 0x76656E646F723200000000000000000000000000000000000000000000000000 DUP2 MSTORE POP PUSH1 0x4 PUSH1 0x0 ADD SWAP1 DUP2 PUSH3 0xA5 SWAP2 SWAP1 PUSH3 0xEF0 JUMP JUMPDEST POP PUSH1 0x40 MLOAD DUP1 PUSH1 0x40 ADD PUSH1 0x40 MSTORE DUP1 PUSH1 0x7 DUP2 MSTORE PUSH1 0x20 ADD PUSH32 0x76656E646F723300000000000000000000000000000000000000000000000000 DUP2 MSTORE POP PUSH1 0x7 PUSH1 0x0 ADD SWAP1 DUP2 PUSH3 0xEF SWAP2 SWAP1 PUSH3 0xEF0 JUMP JUMPDEST POP PUSH1 0x40 MLOAD DUP1 PUSH1 0x60 ADD PUSH1 0x40 MSTORE DUP1 PUSH1 0x2A DUP2 MSTORE PUSH1 0x20 ADD PUSH3 0x1C5E PUSH1 0x2A SWAP2 CODECOPY PUSH1 0x1 DUP1 ADD SWAP1 DUP2 PUSH3 0x11C SWAP2 SWAP1 PUSH3 0xEF0 JUMP JUMPDEST POP PUSH1 0x40 MLOAD DUP1 PUSH2 0x1E0 ADD PUSH1 0x40 MSTORE DUP1 PUSH1 0x40 MLOAD DUP1 PUSH1 0x40 ADD PUSH1 0x40 MSTORE DUP1 PUSH1 0x4 DUP2 MSTORE PUSH1 0x20 ADD PUSH32 0x7269636500000000000000000000000000000000000000000000000000000000 DUP2 MSTORE POP DUP2 MSTORE PUSH1 0x20 ADD PUSH1 0x40 MLOAD DUP1 PUSH1 0x40 ADD PUSH1 0x40 MSTORE DUP1 PUSH1 0x5 DUP2 MSTORE PUSH1 0x20 ADD PUSH32 0x7768656174000000000000000000000000000000000000000000000000000000 DUP2 MSTORE POP DUP2 MSTORE PUSH1 0x20 ADD PUSH1 0x40 MLOAD DUP1 PUSH1 0x40 ADD PUSH1 0x40 MSTORE DUP1 PUSH1 0x9 DUP2 MSTORE PUSH1 0x20 ADD PUSH32 0x6D65646963696E65730000000000000000000000000000000000000000000000 DUP2 MSTORE POP DUP2 MSTORE PUSH1 0x20 ADD PUSH1 0x40 MLOAD DUP1 PUSH1 0x40 ADD PUSH1 0x40 MSTORE DUP1 PUSH1 0x6 DUP2 MSTORE PUSH1 0x20 ADD PUSH32 0x636172726F740000000000000000000000000000000000000000000000000000 DUP2 MSTORE POP DUP2 MSTORE PUSH1 0x20 ADD PUSH1 0x40 MLOAD DUP1 PUSH1 0x40 ADD PUSH1 0x40 MSTORE DUP1 PUSH1 0x8 DUP2 MSTORE PUSH1 0x20 ADD PUSH32 0x62656574726F6F74000000000000000000000000000000000000000000000000 DUP2 MSTORE POP DUP2 MSTORE PUSH1 0x20 ADD PUSH1 0x40 MLOAD DUP1 PUSH1 0x40 ADD PUSH1 0x40 MSTORE DUP1 PUSH1 0x6 DUP2 MSTORE PUSH1 0x20 ADD PUSH32 0x6379636C65730000000000000000000000000000000000000000000000000000 DUP2 MSTORE POP DUP2 MSTORE PUSH1 0x20 ADD PUSH1 0x40 MLOAD DUP1 PUSH1 0x40 ADD PUSH1 0x40 MSTORE DUP1 PUSH1 0x4 DUP2 MSTORE PUSH1 0x20 ADD PUSH32 0x6361727300000000000000000000000000000000000000000000000000000000 DUP2 MSTORE POP DUP2 MSTORE PUSH1 0x20 ADD PUSH1 0x40 MLOAD DUP1 PUSH1 0x40 ADD PUSH1 0x40 MSTORE DUP1 PUSH1 0x5 DUP2 MSTORE PUSH1 0x20 ADD PUSH32 0x6A65657073000000000000000000000000000000000000000000000000000000 DUP2 MSTORE POP DUP2 MSTORE PUSH1 0x20 ADD PUSH1 0x40 MLOAD DUP1 PUSH1 0x40 ADD PUSH1 0x40 MSTORE DUP1 PUSH1 0x6 DUP2 MSTORE PUSH1 0x20 ADD PUSH32 0x747275636B730000000000000000000000000000000000000000000000000000 DUP2 MSTORE POP DUP2 MSTORE PUSH1 0x20 ADD PUSH1 0x40 MLOAD DUP1 PUSH1 0x40 ADD PUSH1 0x40 MSTORE DUP1 PUSH1 0x4 DUP2 MSTORE PUSH1 0x20 ADD PUSH32 0x6D65617400000000000000000000000000000000000000000000000000000000 DUP2 MSTORE POP DUP2 MSTORE PUSH1 0x20 ADD PUSH1 0x40 MLOAD DUP1 PUSH1 0x40 ADD PUSH1 0x40 MSTORE DUP1 PUSH1 0x4 DUP2 MSTORE PUSH1 0x20 ADD PUSH32 0x6D696C6B00000000000000000000000000000000000000000000000000000000 DUP2 MSTORE POP DUP2 MSTORE PUSH1 0x20 ADD PUSH1 0x40 MLOAD DUP1 PUSH1 0x40 ADD PUSH1 0x40 MSTORE DUP1 PUSH1 0x4 DUP2 MSTORE PUSH1 0x20 ADD PUSH32 0x6567677300000000000000000000000000000000000000000000000000000000 DUP2 MSTORE POP DUP2 MSTORE PUSH1 0x20 ADD PUSH1 0x40 MLOAD DUP1 PUSH1 0x40 ADD PUSH1 0x40 MSTORE DUP1 PUSH1 0x5 DUP2 MSTORE PUSH1 0x20 ADD PUSH32 0x6368616E61000000000000000000000000000000000000000000000000000000 DUP2 MSTORE POP DUP2 MSTORE PUSH1 0x20 ADD PUSH1 0x40 MLOAD DUP1 PUSH1 0x40 ADD PUSH1 0x40 MSTORE DUP1 PUSH1 0x8 DUP2 MSTORE PUSH1 0x20 ADD PUSH32 0x706F7461746F6573000000000000000000000000000000000000000000000000 DUP2 MSTORE POP DUP2 MSTORE PUSH1 0x20 ADD PUSH1 0x40 MLOAD DUP1 PUSH1 0x40 ADD PUSH1 0x40 MSTORE DUP1 PUSH1 0x8 DUP2 MSTORE PUSH1 0x20 ADD PUSH32 0x746F6D61746F6573000000000000000000000000000000000000000000000000 DUP2 MSTORE POP DUP2 MSTORE POP PUSH1 0x1 PUSH1 0x2 ADD SWAP1 PUSH1 0xF PUSH3 0x4B1 SWAP3 SWAP2 SWAP1 PUSH3 0xA65 JUMP JUMPDEST POP PUSH1 0x40 MLOAD DUP1 PUSH1 0x60 ADD PUSH1 0x40 MSTORE DUP1 PUSH1 0x2A DUP2 MSTORE PUSH1 0x20 ADD PUSH3 0x1CB2 PUSH1 0x2A SWAP2 CODECOPY PUSH1 0x4 PUSH1 0x1 ADD SWAP1 DUP2 PUSH3 0x4DF SWAP2 SWAP1 PUSH3 0xEF0 JUMP JUMPDEST POP PUSH1 0x40 MLOAD DUP1 PUSH2 0x160 ADD PUSH1 0x40 MSTORE DUP1 PUSH1 0x40 MLOAD DUP1 PUSH1 0x40 ADD PUSH1 0x40 MSTORE DUP1 PUSH1 0x4 DUP2 MSTORE PUSH1 0x20 ADD PUSH32 0x7269636500000000000000000000000000000000000000000000000000000000 DUP2 MSTORE POP DUP2 MSTORE PUSH1 0x20 ADD PUSH1 0x40 MLOAD DUP1 PUSH1 0x40 ADD PUSH1 0x40 MSTORE DUP1 PUSH1 0x5 DUP2 MSTORE PUSH1 0x20 ADD PUSH32 0x7768656174000000000000000000000000000000000000000000000000000000 DUP2 MSTORE POP DUP2 MSTORE PUSH1 0x20 ADD PUSH1 0x40 MLOAD DUP1 PUSH1 0x40 ADD PUSH1 0x40 MSTORE DUP1 PUSH1 0x9 DUP2 MSTORE PUSH1 0x20 ADD PUSH32 0x6D65646963696E65730000000000000000000000000000000000000000000000 DUP2 MSTORE POP DUP2 MSTORE PUSH1 0x20 ADD PUSH1 0x40 MLOAD DUP1 PUSH1 0x40 ADD PUSH1 0x40 MSTORE DUP1 PUSH1 0x6 DUP2 MSTORE PUSH1 0x20 ADD PUSH32 0x636172726F740000000000000000000000000000000000000000000000000000 DUP2 MSTORE POP DUP2 MSTORE PUSH1 0x20 ADD PUSH1 0x40 MLOAD DUP1 PUSH1 0x40 ADD PUSH1 0x40 MSTORE DUP1 PUSH1 0x8 DUP2 MSTORE PUSH1 0x20 ADD PUSH32 0x62656574726F6F74000000000000000000000000000000000000000000000000 DUP2 MSTORE POP DUP2 MSTORE PUSH1 0x20 ADD PUSH1 0x40 MLOAD DUP1 PUSH1 0x40 ADD PUSH1 0x40 MSTORE DUP1 PUSH1 0x4 DUP2 MSTORE PUSH1 0x20 ADD PUSH32 0x6D65617400000000000000000000000000000000000000000000000000000000 DUP2 MSTORE POP DUP2 MSTORE PUSH1 0x20 ADD PUSH1 0x40 MLOAD DUP1 PUSH1 0x40 ADD PUSH1 0x40 MSTORE DUP1 PUSH1 0x4 DUP2 MSTORE PUSH1 0x20 ADD PUSH32 0x6D696C6B00000000000000000000000000000000000000000000000000000000 DUP2 MSTORE POP DUP2 MSTORE PUSH1 0x20 ADD PUSH1 0x40 MLOAD DUP1 PUSH1 0x40 ADD PUSH1 0x40 MSTORE DUP1 PUSH1 0x4 DUP2 MSTORE PUSH1 0x20 ADD PUSH32 0x6567677300000000000000000000000000000000000000000000000000000000 DUP2 MSTORE POP DUP2 MSTORE PUSH1 0x20 ADD PUSH1 0x40 MLOAD DUP1 PUSH1 0x40 ADD PUSH1 0x40 MSTORE DUP1 PUSH1 0x5 DUP2 MSTORE PUSH1 0x20 ADD PUSH32 0x6368616E61000000000000000000000000000000000000000000000000000000 DUP2 MSTORE POP DUP2 MSTORE PUSH1 0x20 ADD PUSH1 0x40 MLOAD DUP1 PUSH1 0x40 ADD PUSH1 0x40 MSTORE DUP1 PUSH1 0x8 DUP2 MSTORE PUSH1 0x20 ADD PUSH32 0x706F7461746F6573000000000000000000000000000000000000000000000000 DUP2 MSTORE POP DUP2 MSTORE PUSH1 0x20 ADD PUSH1 0x40 MLOAD DUP1 PUSH1 0x40 ADD PUSH1 0x40 MSTORE DUP1 PUSH1 0x8 DUP2 MSTORE PUSH1 0x20 ADD PUSH32 0x746F6D61746F6573000000000000000000000000000000000000000000000000 DUP2 MSTORE POP DUP2 MSTORE POP PUSH1 0x4 PUSH1 0x2 ADD SWAP1 PUSH1 0xB PUSH3 0x788 SWAP3 SWAP2 SWAP1 PUSH3 0xAC5 JUMP JUMPDEST POP PUSH1 0x40 MLOAD DUP1 PUSH1 0x60 ADD PUSH1 0x40 MSTORE DUP1 PUSH1 0x2A DUP2 MSTORE PUSH1 0x20 ADD PUSH3 0x1C88 PUSH1 0x2A SWAP2 CODECOPY PUSH1 0x7 PUSH1 0x1 ADD SWAP1 DUP2 PUSH3 0x7B6 SWAP2 SWAP1 PUSH3 0xEF0 JUMP JUMPDEST POP PUSH1 0x40 MLOAD DUP1 PUSH1 0xA0 ADD PUSH1 0x40 MSTORE DUP1 PUSH1 0x40 MLOAD DUP1 PUSH1 0x40 ADD PUSH1 0x40 MSTORE DUP1 PUSH1 0x9 DUP2 MSTORE PUSH1 0x20 ADD PUSH32 0x6D65646963696E65730000000000000000000000000000000000000000000000 DUP2 MSTORE POP DUP2 MSTORE PUSH1 0x20 ADD PUSH1 0x40 MLOAD DUP1 PUSH1 0x40 ADD PUSH1 0x40 MSTORE DUP1 PUSH1 0x6 DUP2 MSTORE PUSH1 0x20 ADD PUSH32 0x6379636C65730000000000000000000000000000000000000000000000000000 DUP2 MSTORE POP DUP2 MSTORE PUSH1 0x20 ADD PUSH1 0x40 MLOAD DUP1 PUSH1 0x40 ADD PUSH1 0x40 MSTORE DUP1 PUSH1 0x4 DUP2 MSTORE PUSH1 0x20 ADD PUSH32 0x6361727300000000000000000000000000000000000000000000000000000000 DUP2 MSTORE POP DUP2 MSTORE PUSH1 0x20 ADD PUSH1 0x40 MLOAD DUP1 PUSH1 0x40 ADD PUSH1 0x40 MSTORE DUP1 PUSH1 0x5 DUP2 MSTORE PUSH1 0x20 ADD PUSH32 0x6A65657073000000000000000000000000000000000000000000000000000000 DUP2 MSTORE POP DUP2 MSTORE PUSH1 0x20 ADD PUSH1 0x40 MLOAD DUP1 PUSH1 0x40 ADD PUSH1 0x40 MSTORE DUP1 PUSH1 0x6 DUP2 MSTORE PUSH1 0x20 ADD PUSH32 0x747275636B730000000000000000000000000000000000000000000000000000 DUP2 MSTORE POP DUP2 MSTORE POP PUSH1 0x7 PUSH1 0x2 ADD SWAP1 PUSH1 0x5 PUSH3 0x8FC SWAP3 SWAP2 SWAP1 PUSH3 0xB25 JUMP JUMPDEST POP PUSH1 0x0 PUSH1 0x1 SWAP1 DUP1 PUSH1 0x1 DUP2 SLOAD ADD DUP1 DUP3 SSTORE DUP1 SWAP2 POP POP PUSH1 0x1 SWAP1 SUB SWAP1 PUSH1 0x0 MSTORE PUSH1 0x20 PUSH1 0x0 KECCAK256 SWAP1 PUSH1 0x3 MUL ADD PUSH1 0x0 SWAP1 SWAP2 SWAP1 SWAP2 SWAP1 SWAP2 POP PUSH1 0x0 DUP3 ADD DUP2 PUSH1 0x0 ADD SWAP1 DUP2 PUSH3 0x940 SWAP2 SWAP1 PUSH3 0xFEF JUMP JUMPDEST POP PUSH1 0x1 DUP3 ADD DUP2 PUSH1 0x1 ADD SWAP1 DUP2 PUSH3 0x957 SWAP2 SWAP1 PUSH3 0xFEF JUMP JUMPDEST POP PUSH1 0x2 DUP3 ADD DUP2 PUSH1 0x2 ADD SWAP1 DUP1 SLOAD PUSH3 0x970 SWAP3 SWAP2 SWAP1 PUSH3 0xB85 JUMP JUMPDEST POP POP POP PUSH1 0x0 PUSH1 0x4 SWAP1 DUP1 PUSH1 0x1 DUP2 SLOAD ADD DUP1 DUP3 SSTORE DUP1 SWAP2 POP POP PUSH1 0x1 SWAP1 SUB SWAP1 PUSH1 0x0 MSTORE PUSH1 0x20 PUSH1 0x0 KECCAK256 SWAP1 PUSH1 0x3 MUL ADD PUSH1 0x0 SWAP1 SWAP2 SWAP1 SWAP2 SWAP1 SWAP2 POP PUSH1 0x0 DUP3 ADD DUP2 PUSH1 0x0 ADD SWAP1 DUP2 PUSH3 0x9B6 SWAP2 SWAP1 PUSH3 0xFEF JUMP JUMPDEST POP PUSH1 0x1 DUP3 ADD DUP2 PUSH1 0x1 ADD SWAP1 DUP2 PUSH3 0x9CD SWAP2 SWAP1 PUSH3 0xFEF JUMP JUMPDEST POP PUSH1 0x2 DUP3 ADD DUP2 PUSH1 0x2 ADD SWAP1 DUP1 SLOAD PUSH3 0x9E6 SWAP3 SWAP2 SWAP1 PUSH3 0xB85 JUMP JUMPDEST POP POP POP PUSH1 0x0 PUSH1 0x7 SWAP1 DUP1 PUSH1 0x1 DUP2 SLOAD ADD DUP1 DUP3 SSTORE DUP1 SWAP2 POP POP PUSH1 0x1 SWAP1 SUB SWAP1 PUSH1 0x0 MSTORE PUSH1 0x20 PUSH1 0x0 KECCAK256 SWAP1 PUSH1 0x3 MUL ADD PUSH1 0x0 SWAP1 SWAP2 SWAP1 SWAP2 SWAP1 SWAP2 POP PUSH1 0x0 DUP3 ADD DUP2 PUSH1 0x0 ADD SWAP1 DUP2 PUSH3 0xA2C SWAP2 SWAP1 PUSH3 0xFEF JUMP JUMPDEST POP PUSH1 0x1 DUP3 ADD DUP2 PUSH1 0x1 ADD SWAP1 DUP2 PUSH3 0xA43 SWAP2 SWAP1 PUSH3 0xFEF JUMP JUMPDEST POP PUSH1 0x2 DUP3 ADD DUP2 PUSH1 0x2 ADD SWAP1 DUP1 SLOAD PUSH3 0xA5C SWAP3 SWAP2 SWAP1 PUSH3 0xB85 JUMP JUMPDEST POP POP POP PUSH3 0x10F0 JUMP JUMPDEST DUP3 DUP1 SLOAD DUP3 DUP3 SSTORE SWAP1 PUSH1 0x0 MSTORE PUSH1 0x20 PUSH1 0x0 KECCAK256 SWAP1 DUP2 ADD SWAP3 DUP3 ISZERO PUSH3 0xAB2 JUMPI SWAP2 PUSH1 0x20 MUL DUP3 ADD JUMPDEST DUP3 DUP2 GT ISZERO PUSH3 0xAB1 JUMPI DUP3 MLOAD DUP3 SWAP1 DUP2 PUSH3 0xAA0 SWAP2 SWAP1 PUSH3 0xEF0 JUMP JUMPDEST POP SWAP2 PUSH1 0x20 ADD SWAP2 SWAP1 PUSH1 0x1 ADD SWAP1 PUSH3 0xA86 JUMP JUMPDEST JUMPDEST POP SWAP1 POP PUSH3 0xAC1 SWAP2 SWAP1 PUSH3 0xBE9 JUMP JUMPDEST POP SWAP1 JUMP JUMPDEST DUP3 DUP1 SLOAD DUP3 DUP3 SSTORE SWAP1 PUSH1 0x0 MSTORE PUSH1 0x20 PUSH1 0x0 KECCAK256 SWAP1 DUP2 ADD SWAP3 DUP3 ISZERO PUSH3 0xB12 JUMPI SWAP2 PUSH1 0x20 MUL DUP3 ADD JUMPDEST DUP3 DUP2 GT ISZERO PUSH3 0xB11 JUMPI DUP3 MLOAD DUP3 SWAP1 DUP2 PUSH3 0xB00 SWAP2 SWAP1 PUSH3 0xEF0 JUMP JUMPDEST POP SWAP2 PUSH1 0x20 ADD SWAP2 SWAP1 PUSH1 0x1 ADD SWAP1 PUSH3 0xAE6 JUMP JUMPDEST JUMPDEST POP SWAP1 POP PUSH3 0xB21 SWAP2 SWAP1 PUSH3 0xBE9 JUMP JUMPDEST POP SWAP1 JUMP JUMPDEST DUP3 DUP1 SLOAD DUP3 DUP3 SSTORE SWAP1 PUSH1 0x0 MSTORE PUSH1 0x20 PUSH1 0x0 KECCAK256 SWAP1 DUP2 ADD SWAP3 DUP3 ISZERO PUSH3 0xB72 JUMPI SWAP2 PUSH1 0x20 MUL DUP3 ADD JUMPDEST DUP3 DUP2 GT ISZERO PUSH3 0xB71 JUMPI DUP3 MLOAD DUP3 SWAP1 DUP2 PUSH3 0xB60 SWAP2 SWAP1 PUSH3 0xEF0 JUMP JUMPDEST POP SWAP2 PUSH1 0x20 ADD SWAP2 SWAP1 PUSH1 0x1 ADD SWAP1 PUSH3 0xB46 JUMP JUMPDEST JUMPDEST POP SWAP1 POP PUSH3 0xB81 SWAP2 SWAP1 PUSH3 0xBE9 JUMP JUMPDEST POP SWAP1 JUMP JUMPDEST DUP3 DUP1 SLOAD DUP3 DUP3 SSTORE SWAP1 PUSH1 0x0 MSTORE PUSH1 0x20 PUSH1 0x0 KECCAK256 SWAP1 DUP2 ADD SWAP3 DUP3 ISZERO PUSH3 0xBD6 JUMPI PUSH1 0x0 MSTORE PUSH1 0x20 PUSH1 0x0 KECCAK256 SWAP2 DUP3 ADD JUMPDEST DUP3 DUP2 GT ISZERO PUSH3 0xBD5 JUMPI DUP3 DUP3 SWAP1 DUP2 PUSH3 0xBC4 SWAP2 SWAP1 PUSH3 0xFEF JUMP JUMPDEST POP SWAP2 PUSH1 0x1 ADD SWAP2 SWAP1 PUSH1 0x1 ADD SWAP1 PUSH3 0xBAB JUMP JUMPDEST JUMPDEST POP SWAP1 POP PUSH3 0xBE5 SWAP2 SWAP1 PUSH3 0xBE9 JUMP JUMPDEST POP SWAP1 JUMP JUMPDEST JUMPDEST DUP1 DUP3 GT ISZERO PUSH3 0xC0D JUMPI PUSH1 0x0 DUP2 DUP2 PUSH3 0xC03 SWAP2 SWAP1 PUSH3 0xC11 JUMP JUMPDEST POP PUSH1 0x1 ADD PUSH3 0xBEA JUMP JUMPDEST POP SWAP1 JUMP JUMPDEST POP DUP1 SLOAD PUSH3 0xC1F SWAP1 PUSH3 0xCDF JUMP JUMPDEST PUSH1 0x0 DUP3 SSTORE DUP1 PUSH1 0x1F LT PUSH3 0xC33 JUMPI POP PUSH3 0xC54 JUMP JUMPDEST PUSH1 0x1F ADD PUSH1 0x20 SWAP1 DIV SWAP1 PUSH1 0x0 MSTORE PUSH1 0x20 PUSH1 0x0 KECCAK256 SWAP1 DUP2 ADD SWAP1 PUSH3 0xC53 SWAP2 SWAP1 PUSH3 0xC57 JUMP JUMPDEST JUMPDEST POP JUMP JUMPDEST JUMPDEST DUP1 DUP3 GT ISZERO PUSH3 0xC72 JUMPI PUSH1 0x0 DUP2 PUSH1 0x0 SWAP1 SSTORE POP PUSH1 0x1 ADD PUSH3 0xC58 JUMP JUMPDEST POP SWAP1 JUMP JUMPDEST PUSH1 0x0 DUP2 MLOAD SWAP1 POP SWAP2 SWAP1 POP JUMP JUMPDEST PUSH32 0x4E487B7100000000000000000000000000000000000000000000000000000000 PUSH1 0x0 MSTORE PUSH1 0x41 PUSH1 0x4 MSTORE PUSH1 0x24 PUSH1 0x0 REVERT JUMPDEST PUSH32 0x4E487B7100000000000000000000000000000000000000000000000000000000 PUSH1 0x0 MSTORE PUSH1 0x22 PUSH1 0x4 MSTORE PUSH1 0x24 PUSH1 0x0 REVERT JUMPDEST PUSH1 0x0 PUSH1 0x2 DUP3 DIV SWAP1 POP PUSH1 0x1 DUP3 AND DUP1 PUSH3 0xCF8 JUMPI PUSH1 0x7F DUP3 AND SWAP2 POP JUMPDEST PUSH1 0x20 DUP3 LT DUP2 SUB PUSH3 0xD0E JUMPI PUSH3 0xD0D PUSH3 0xCB0 JUMP JUMPDEST JUMPDEST POP SWAP2 SWAP1 POP JUMP JUMPDEST PUSH1 0x0 DUP2 SWAP1 POP DUP2 PUSH1 0x0 MSTORE PUSH1 0x20 PUSH1 0x0 KECCAK256 SWAP1 POP SWAP2 SWAP1 POP JUMP JUMPDEST PUSH1 0x0 PUSH1 0x20 PUSH1 0x1F DUP4 ADD DIV SWAP1 POP SWAP2 SWAP1 POP JUMP JUMPDEST PUSH1 0x0 DUP3 DUP3 SHL SWAP1 POP SWAP3 SWAP2 POP POP JUMP JUMPDEST PUSH1 0x0 PUSH1 0x8 DUP4 MUL PUSH3 0xD78 PUSH32 0xFFFFFFFFFFFFFFFFFFFFFFFFFFFFFFFFFFFFFFFFFFFFFFFFFFFFFFFFFFFFFFFF DUP3 PUSH3 0xD39 JUMP JUMPDEST PUSH3 0xD84 DUP7 DUP4 PUSH3 0xD39 JUMP JUMPDEST SWAP6 POP DUP1 NOT DUP5 AND SWAP4 POP DUP1 DUP7 AND DUP5 OR SWAP3 POP POP POP SWAP4 SWAP3 POP POP POP JUMP JUMPDEST PUSH1 0x0 DUP2 SWAP1 POP SWAP2 SWAP1 POP JUMP JUMPDEST PUSH1 0x0 DUP2 SWAP1 POP SWAP2 SWAP1 POP JUMP JUMPDEST PUSH1 0x0 PUSH3 0xDD1 PUSH3 0xDCB PUSH3 0xDC5 DUP5 PUSH3 0xD9C JUMP JUMPDEST PUSH3 0xDA6 JUMP JUMPDEST PUSH3 0xD9C JUMP JUMPDEST SWAP1 POP SWAP2 SWAP1 POP JUMP JUMPDEST PUSH1 0x0 DUP2 SWAP1 POP SWAP2 SWAP1 POP JUMP JUMPDEST PUSH3 0xDED DUP4 PUSH3 0xDB0 JUMP JUMPDEST PUSH3 0xE05 PUSH3 0xDFC DUP3 PUSH3 0xDD8 JUMP JUMPDEST DUP5 DUP5 SLOAD PUSH3 0xD46 JUMP JUMPDEST DUP3 SSTORE POP POP POP POP JUMP JUMPDEST PUSH1 0x0 SWAP1 JUMP JUMPDEST PUSH3 0xE1C PUSH3 0xE0D JUMP JUMPDEST PUSH3 0xE29 DUP2 DUP5 DUP5 PUSH3 0xDE2 JUMP JUMPDEST POP POP POP JUMP JUMPDEST JUMPDEST DUP2 DUP2 LT ISZERO PUSH3 0xE51 JUMPI PUSH3 0xE45 PUSH1 0x0 DUP3 PUSH3 0xE12 JUMP JUMPDEST PUSH1 0x1 DUP2 ADD SWAP1 POP PUSH3 0xE2F JUMP JUMPDEST POP POP JUMP JUMPDEST PUSH1 0x1F DUP3 GT ISZERO PUSH3 0xEA0 JUMPI PUSH3 0xE6A DUP2 PUSH3 0xD14 JUMP JUMPDEST PUSH3 0xE75 DUP5 PUSH3 0xD29 JUMP JUMPDEST DUP2 ADD PUSH1 0x20 DUP6 LT ISZERO PUSH3 0xE85 JUMPI DUP2 SWAP1 POP JUMPDEST PUSH3 0xE9D PUSH3 0xE94 DUP6 PUSH3 0xD29 JUMP JUMPDEST DUP4 ADD DUP3 PUSH3 0xE2E JUMP JUMPDEST POP POP JUMPDEST POP POP POP JUMP JUMPDEST PUSH1 0x0 DUP3 DUP3 SHR SWAP1 POP SWAP3 SWAP2 POP POP JUMP JUMPDEST PUSH1 0x0 PUSH3 0xEC5 PUSH1 0x0 NOT DUP5 PUSH1 0x8 MUL PUSH3 0xEA5 JUMP JUMPDEST NOT DUP1 DUP4 AND SWAP2 POP POP SWAP3 SWAP2 POP POP JUMP JUMPDEST PUSH1 0x0 PUSH3 0xEE0 DUP4 DUP4 PUSH3 0xEB2 JUMP JUMPDEST SWAP2 POP DUP3 PUSH1 0x2 MUL DUP3 OR SWAP1 POP SWAP3 SWAP2 POP POP JUMP JUMPDEST PUSH3 0xEFB DUP3 PUSH3 0xC76 JUMP JUMPDEST PUSH8 0xFFFFFFFFFFFFFFFF DUP2 GT ISZERO PUSH3 0xF17 JUMPI PUSH3 0xF16 PUSH3 0xC81 JUMP JUMPDEST JUMPDEST PUSH3 0xF23 DUP3 SLOAD PUSH3 0xCDF JUMP JUMPDEST PUSH3 0xF30 DUP3 DUP3 DUP6 PUSH3 0xE55 JUMP JUMPDEST PUSH1 0x0 PUSH1 0x20 SWAP1 POP PUSH1 0x1F DUP4 GT PUSH1 0x1 DUP2 EQ PUSH3 0xF68 JUMPI PUSH1 0x0 DUP5 ISZERO PUSH3 0xF53 JUMPI DUP3 DUP8 ADD MLOAD SWAP1 POP JUMPDEST PUSH3 0xF5F DUP6 DUP3 PUSH3 0xED2 JUMP JUMPDEST DUP7 SSTORE POP PUSH3 0xFCF JUMP JUMPDEST PUSH1 0x1F NOT DUP5 AND PUSH3 0xF78 DUP7 PUSH3 0xD14 JUMP JUMPDEST PUSH1 0x0 JUMPDEST DUP3 DUP2 LT ISZERO PUSH3 0xFA2 JUMPI DUP5 DUP10 ADD MLOAD DUP3 SSTORE PUSH1 0x1 DUP3 ADD SWAP2 POP PUSH1 0x20 DUP6 ADD SWAP5 POP PUSH1 0x20 DUP2 ADD SWAP1 POP PUSH3 0xF7B JUMP JUMPDEST DUP7 DUP4 LT ISZERO PUSH3 0xFC2 JUMPI DUP5 DUP10 ADD MLOAD PUSH3 0xFBE PUSH1 0x1F DUP10 AND DUP3 PUSH3 0xEB2 JUMP JUMPDEST DUP4 SSTORE POP JUMPDEST PUSH1 0x1 PUSH1 0x2 DUP9 MUL ADD DUP9 SSTORE POP POP POP JUMPDEST POP POP POP POP POP POP JUMP JUMPDEST PUSH1 0x0 DUP2 SLOAD SWAP1 POP PUSH3 0xFE8 DUP2 PUSH3 0xCDF JUMP JUMPDEST SWAP1 POP SWAP2 SWAP1 POP JUMP JUMPDEST DUP2 DUP2 SUB PUSH3 0xFFF JUMPI POP POP PUSH3 0x10EE JUMP JUMPDEST PUSH3 0x100A DUP3 PUSH3 0xFD7 JUMP JUMPDEST PUSH8 0xFFFFFFFFFFFFFFFF DUP2 GT ISZERO PUSH3 0x1026 JUMPI PUSH3 0x1025 PUSH3 0xC81 JUMP JUMPDEST JUMPDEST PUSH3 0x1032 DUP3 SLOAD PUSH3 0xCDF JUMP JUMPDEST PUSH3 0x103F DUP3 DUP3 DUP6 PUSH3 0xE55 JUMP JUMPDEST PUSH1 0x0 PUSH1 0x1F DUP4 GT PUSH1 0x1 DUP2 EQ PUSH3 0x1073 JUMPI PUSH1 0x0 DUP5 ISZERO PUSH3 0x105E JUMPI DUP3 DUP8 ADD SLOAD SWAP1 POP JUMPDEST PUSH3 0x106A DUP6 DUP3 PUSH3 0xED2 JUMP JUMPDEST DUP7 SSTORE POP PUSH3 0x10E7 JUMP JUMPDEST PUSH1 0x1F NOT DUP5 AND PUSH3 0x1083 DUP8 PUSH3 0xD14 JUMP JUMPDEST SWAP7 POP PUSH3 0x1090 DUP7 PUSH3 0xD14 JUMP JUMPDEST PUSH1 0x0 JUMPDEST DUP3 DUP2 LT ISZERO PUSH3 0x10BA JUMPI DUP5 DUP10 ADD SLOAD DUP3 SSTORE PUSH1 0x1 DUP3 ADD SWAP2 POP PUSH1 0x1 DUP6 ADD SWAP5 POP PUSH1 0x20 DUP2 ADD SWAP1 POP PUSH3 0x1093 JUMP JUMPDEST DUP7 DUP4 LT ISZERO PUSH3 0x10DA JUMPI DUP5 DUP10 ADD SLOAD PUSH3 0x10D6 PUSH1 0x1F DUP10 AND DUP3 PUSH3 0xEB2 JUMP JUMPDEST DUP4 SSTORE POP JUMPDEST PUSH1 0x1 PUSH1 0x2 DUP9 MUL ADD DUP9 SSTORE POP POP POP JUMPDEST POP POP POP POP POP POP JUMPDEST JUMP JUMPDEST PUSH2 0xB5E DUP1 PUSH3 0x1100 PUSH1 0x0 CODECOPY PUSH1 0x0 RETURN INVALID PUSH1 0x80 PUSH1 0x40 MSTORE CALLVALUE DUP1 ISZERO PUSH2 0x10 JUMPI PUSH1 0x0 DUP1 REVERT JUMPDEST POP PUSH1 0x4 CALLDATASIZE LT PUSH2 0x41 JUMPI PUSH1 0x0 CALLDATALOAD PUSH1 0xE0 SHR DUP1 PUSH4 0x693EC85E EQ PUSH2 0x46 JUMPI DUP1 PUSH4 0x71E5EE5F EQ PUSH2 0x76 JUMPI DUP1 PUSH4 0xD91DD1E0 EQ PUSH2 0xA7 JUMPI JUMPDEST PUSH1 0x0 DUP1 REVERT JUMPDEST PUSH2 0x60 PUSH1 0x4 DUP1 CALLDATASIZE SUB DUP2 ADD SWAP1 PUSH2 0x5B SWAP2 SWAP1 PUSH2 0x66E JUMP JUMPDEST PUSH2 0xD7 JUMP JUMPDEST PUSH1 0x40 MLOAD PUSH2 0x6D SWAP2 SWAP1 PUSH2 0x736 JUMP JUMPDEST PUSH1 0x40 MLOAD DUP1 SWAP2 SUB SWAP1 RETURN JUMPDEST PUSH2 0x90 PUSH1 0x4 DUP1 CALLDATASIZE SUB DUP2 ADD SWAP1 PUSH2 0x8B SWAP2 SWAP1 PUSH2 0x78E JUMP JUMPDEST PUSH2 0x230 JUMP JUMPDEST PUSH1 0x40 MLOAD PUSH2 0x9E SWAP3 SWAP2 SWAP1 PUSH2 0x7BB JUMP JUMPDEST PUSH1 0x40 MLOAD DUP1 SWAP2 SUB SWAP1 RETURN JUMPDEST PUSH2 0xC1 PUSH1 0x4 DUP1 CALLDATASIZE SUB DUP2 ADD SWAP1 PUSH2 0xBC SWAP2 SWAP1 PUSH2 0x66E JUMP JUMPDEST PUSH2 0x374 JUMP JUMPDEST PUSH1 0x40 MLOAD PUSH2 0xCE SWAP2 SWAP1 PUSH2 0x8FE JUMP JUMPDEST PUSH1 0x40 MLOAD DUP1 SWAP2 SUB SWAP1 RETURN JUMPDEST PUSH1 0x60 PUSH1 0x0 JUMPDEST PUSH1 0x0 DUP1 SLOAD SWAP1 POP DUP2 LT ISZERO PUSH2 0x229 JUMPI DUP3 PUSH1 0x40 MLOAD PUSH1 0x20 ADD PUSH2 0xFA SWAP2 SWAP1 PUSH2 0x95C JUMP JUMPDEST PUSH1 0x40 MLOAD PUSH1 0x20 DUP2 DUP4 SUB SUB DUP2 MSTORE SWAP1 PUSH1 0x40 MSTORE DUP1 MLOAD SWAP1 PUSH1 0x20 ADD KECCAK256 PUSH1 0x0 DUP3 DUP2 SLOAD DUP2 LT PUSH2 0x124 JUMPI PUSH2 0x123 PUSH2 0x973 JUMP JUMPDEST JUMPDEST SWAP1 PUSH1 0x0 MSTORE PUSH1 0x20 PUSH1 0x0 KECCAK256 SWAP1 PUSH1 0x3 MUL ADD PUSH1 0x0 ADD PUSH1 0x40 MLOAD PUSH1 0x20 ADD PUSH2 0x145 SWAP2 SWAP1 PUSH2 0xA9A JUMP JUMPDEST PUSH1 0x40 MLOAD PUSH1 0x20 DUP2 DUP4 SUB SUB DUP2 MSTORE SWAP1 PUSH1 0x40 MSTORE DUP1 MLOAD SWAP1 PUSH1 0x20 ADD KECCAK256 SUB PUSH2 0x216 JUMPI PUSH1 0x0 DUP2 DUP2 SLOAD DUP2 LT PUSH2 0x174 JUMPI PUSH2 0x173 PUSH2 0x973 JUMP JUMPDEST JUMPDEST SWAP1 PUSH1 0x0 MSTORE PUSH1 0x20 PUSH1 0x0 KECCAK256 SWAP1 PUSH1 0x3 MUL ADD PUSH1 0x1 ADD DUP1 SLOAD PUSH2 0x190 SWAP1 PUSH2 0x9D1 JUMP JUMPDEST DUP1 PUSH1 0x1F ADD PUSH1 0x20 DUP1 SWAP2 DIV MUL PUSH1 0x20 ADD PUSH1 0x40 MLOAD SWAP1 DUP2 ADD PUSH1 0x40 MSTORE DUP1 SWAP3 SWAP2 SWAP1 DUP2 DUP2 MSTORE PUSH1 0x20 ADD DUP3 DUP1 SLOAD PUSH2 0x1BC SWAP1 PUSH2 0x9D1 JUMP JUMPDEST DUP1 ISZERO PUSH2 0x209 JUMPI DUP1 PUSH1 0x1F LT PUSH2 0x1DE JUMPI PUSH2 0x100 DUP1 DUP4 SLOAD DIV MUL DUP4 MSTORE SWAP2 PUSH1 0x20 ADD SWAP2 PUSH2 0x209 JUMP JUMPDEST DUP3 ADD SWAP2 SWAP1 PUSH1 0x0 MSTORE PUSH1 0x20 PUSH1 0x0 KECCAK256 SWAP1 JUMPDEST DUP2 SLOAD DUP2 MSTORE SWAP1 PUSH1 0x1 ADD SWAP1 PUSH1 0x20 ADD DUP1 DUP4 GT PUSH2 0x1EC JUMPI DUP3 SWAP1 SUB PUSH1 0x1F AND DUP3 ADD SWAP2 JUMPDEST POP POP POP POP POP SWAP2 POP POP PUSH2 0x22B JUMP JUMPDEST DUP1 DUP1 PUSH2 0x221 SWAP1 PUSH2 0xAE0 JUMP JUMPDEST SWAP2 POP POP PUSH2 0xDC JUMP JUMPDEST POP JUMPDEST SWAP2 SWAP1 POP JUMP JUMPDEST PUSH1 0x0 DUP2 DUP2 SLOAD DUP2 LT PUSH2 0x240 JUMPI PUSH1 0x0 DUP1 REVERT JUMPDEST SWAP1 PUSH1 0x0 MSTORE PUSH1 0x20 PUSH1 0x0 KECCAK256 SWAP1 PUSH1 0x3 MUL ADD PUSH1 0x0 SWAP2 POP SWAP1 POP DUP1 PUSH1 0x0 ADD DUP1 SLOAD PUSH2 0x263 SWAP1 PUSH2 0x9D1 JUMP JUMPDEST DUP1 PUSH1 0x1F ADD PUSH1 0x20 DUP1 SWAP2 DIV MUL PUSH1 0x20 ADD PUSH1 0x40 MLOAD SWAP1 DUP2 ADD PUSH1 0x40 MSTORE DUP1 SWAP3 SWAP2 SWAP1 DUP2 DUP2 MSTORE PUSH1 0x20 ADD DUP3 DUP1 SLOAD PUSH2 0x28F SWAP1 PUSH2 0x9D1 JUMP JUMPDEST DUP1 ISZERO PUSH2 0x2DC JUMPI DUP1 PUSH1 0x1F LT PUSH2 0x2B1 JUMPI PUSH2 0x100 DUP1 DUP4 SLOAD DIV MUL DUP4 MSTORE SWAP2 PUSH1 0x20 ADD SWAP2 PUSH2 0x2DC JUMP JUMPDEST DUP3 ADD SWAP2 SWAP1 PUSH1 0x0 MSTORE PUSH1 0x20 PUSH1 0x0 KECCAK256 SWAP1 JUMPDEST DUP2 SLOAD DUP2 MSTORE SWAP1 PUSH1 0x1 ADD SWAP1 PUSH1 0x20 ADD DUP1 DUP4 GT PUSH2 0x2BF JUMPI DUP3 SWAP1 SUB PUSH1 0x1F AND DUP3 ADD SWAP2 JUMPDEST POP POP POP POP POP SWAP1 DUP1 PUSH1 0x1 ADD DUP1 SLOAD PUSH2 0x2F1 SWAP1 PUSH2 0x9D1 JUMP JUMPDEST DUP1 PUSH1 0x1F ADD PUSH1 0x20 DUP1 SWAP2 DIV MUL PUSH1 0x20 ADD PUSH1 0x40 MLOAD SWAP1 DUP2 ADD PUSH1 0x40 MSTORE DUP1 SWAP3 SWAP2 SWAP1 DUP2 DUP2 MSTORE PUSH1 0x20 ADD DUP3 DUP1 SLOAD PUSH2 0x31D SWAP1 PUSH2 0x9D1 JUMP JUMPDEST DUP1 ISZERO PUSH2 0x36A JUMPI DUP1 PUSH1 0x1F LT PUSH2 0x33F JUMPI PUSH2 0x100 DUP1 DUP4 SLOAD DIV MUL DUP4 MSTORE SWAP2 PUSH1 0x20 ADD SWAP2 PUSH2 0x36A JUMP JUMPDEST DUP3 ADD SWAP2 SWAP1 PUSH1 0x0 MSTORE PUSH1 0x20 PUSH1 0x0 KECCAK256 SWAP1 JUMPDEST DUP2 SLOAD DUP2 MSTORE SWAP1 PUSH1 0x1 ADD SWAP1 PUSH1 0x20 ADD DUP1 DUP4 GT PUSH2 0x34D JUMPI DUP3 SWAP1 SUB PUSH1 0x1F AND DUP3 ADD SWAP2 JUMPDEST POP POP POP POP POP SWAP1 POP DUP3 JUMP JUMPDEST PUSH1 0x60 PUSH1 0x0 JUMPDEST PUSH1 0x0 DUP1 SLOAD SWAP1 POP DUP2 LT ISZERO PUSH2 0x50D JUMPI DUP3 PUSH1 0x40 MLOAD PUSH1 0x20 ADD PUSH2 0x397 SWAP2 SWAP1 PUSH2 0x95C JUMP JUMPDEST PUSH1 0x40 MLOAD PUSH1 0x20 DUP2 DUP4 SUB SUB DUP2 MSTORE SWAP1 PUSH1 0x40 MSTORE DUP1 MLOAD SWAP1 PUSH1 0x20 ADD KECCAK256 PUSH1 0x0 DUP3 DUP2 SLOAD DUP2 LT PUSH2 0x3C1 JUMPI PUSH2 0x3C0 PUSH2 0x973 JUMP JUMPDEST JUMPDEST SWAP1 PUSH1 0x0 MSTORE PUSH1 0x20 PUSH1 0x0 KECCAK256 SWAP1 PUSH1 0x3 MUL ADD PUSH1 0x0 ADD PUSH1 0x40 MLOAD PUSH1 0x20 ADD PUSH2 0x3E2 SWAP2 SWAP1 PUSH2 0xA9A JUMP JUMPDEST PUSH1 0x40 MLOAD PUSH1 0x20 DUP2 DUP4 SUB SUB DUP2 MSTORE SWAP1 PUSH1 0x40 MSTORE DUP1 MLOAD SWAP1 PUSH1 0x20 ADD KECCAK256 SUB PUSH2 0x4FA JUMPI PUSH1 0x0 DUP2 DUP2 SLOAD DUP2 LT PUSH2 0x411 JUMPI PUSH2 0x410 PUSH2 0x973 JUMP JUMPDEST JUMPDEST SWAP1 PUSH1 0x0 MSTORE PUSH1 0x20 PUSH1 0x0 KECCAK256 SWAP1 PUSH1 0x3 MUL ADD PUSH1 0x2 ADD DUP1 SLOAD DUP1 PUSH1 0x20 MUL PUSH1 0x20 ADD PUSH1 0x40 MLOAD SWAP1 DUP2 ADD PUSH1 0x40 MSTORE DUP1 SWAP3 SWAP2 SWAP1 DUP2 DUP2 MSTORE PUSH1 0x20 ADD PUSH1 0x0 SWAP1 JUMPDEST DUP3 DUP3 LT ISZERO PUSH2 0x4EE JUMPI DUP4 DUP3 SWAP1 PUSH1 0x0 MSTORE PUSH1 0x20 PUSH1 0x0 KECCAK256 ADD DUP1 SLOAD PUSH2 0x461 SWAP1 PUSH2 0x9D1 JUMP JUMPDEST DUP1 PUSH1 0x1F ADD PUSH1 0x20 DUP1 SWAP2 DIV MUL PUSH1 0x20 ADD PUSH1 0x40 MLOAD SWAP1 DUP2 ADD PUSH1 0x40 MSTORE DUP1 SWAP3 SWAP2 SWAP1 DUP2 DUP2 MSTORE PUSH1 0x20 ADD DUP3 DUP1 SLOAD PUSH2 0x48D SWAP1 PUSH2 0x9D1 JUMP JUMPDEST DUP1 ISZERO PUSH2 0x4DA JUMPI DUP1 PUSH1 0x1F LT PUSH2 0x4AF JUMPI PUSH2 0x100 DUP1 DUP4 SLOAD DIV MUL DUP4 MSTORE SWAP2 PUSH1 0x20 ADD SWAP2 PUSH2 0x4DA JUMP JUMPDEST DUP3 ADD SWAP2 SWAP1 PUSH1 0x0 MSTORE PUSH1 0x20 PUSH1 0x0 KECCAK256 SWAP1 JUMPDEST DUP2 SLOAD DUP2 MSTORE SWAP1 PUSH1 0x1 ADD SWAP1 PUSH1 0x20 ADD DUP1 DUP4 GT PUSH2 0x4BD JUMPI DUP3 SWAP1 SUB PUSH1 0x1F AND DUP3 ADD SWAP2 JUMPDEST POP POP POP POP POP DUP2 MSTORE PUSH1 0x20 ADD SWAP1 PUSH1 0x1 ADD SWAP1 PUSH2 0x442 JUMP JUMPDEST POP POP POP POP SWAP2 POP POP PUSH2 0x50F JUMP JUMPDEST DUP1 DUP1 PUSH2 0x505 SWAP1 PUSH2 0xAE0 JUMP JUMPDEST SWAP2 POP POP PUSH2 0x379 JUMP JUMPDEST POP JUMPDEST SWAP2 SWAP1 POP JUMP JUMPDEST PUSH1 0x0 PUSH1 0x40 MLOAD SWAP1 POP SWAP1 JUMP JUMPDEST PUSH1 0x0 DUP1 REVERT JUMPDEST PUSH1 0x0 DUP1 REVERT JUMPDEST PUSH1 0x0 DUP1 REVERT JUMPDEST PUSH1 0x0 DUP1 REVERT JUMPDEST PUSH1 0x0 PUSH1 0x1F NOT PUSH1 0x1F DUP4 ADD AND SWAP1 POP SWAP2 SWAP1 POP JUMP JUMPDEST PUSH32 0x4E487B7100000000000000000000000000000000000000000000000000000000 PUSH1 0x0 MSTORE PUSH1 0x41 PUSH1 0x4 MSTORE PUSH1 0x24 PUSH1 0x0 REVERT JUMPDEST PUSH2 0x57B DUP3 PUSH2 0x532 JUMP JUMPDEST DUP2 ADD DUP2 DUP2 LT PUSH8 0xFFFFFFFFFFFFFFFF DUP3 GT OR ISZERO PUSH2 0x59A JUMPI PUSH2 0x599 PUSH2 0x543 JUMP JUMPDEST JUMPDEST DUP1 PUSH1 0x40 MSTORE POP POP POP JUMP JUMPDEST PUSH1 0x0 PUSH2 0x5AD PUSH2 0x514 JUMP JUMPDEST SWAP1 POP PUSH2 0x5B9 DUP3 DUP3 PUSH2 0x572 JUMP JUMPDEST SWAP2 SWAP1 POP JUMP JUMPDEST PUSH1 0x0 PUSH8 0xFFFFFFFFFFFFFFFF DUP3 GT ISZERO PUSH2 0x5D9 JUMPI PUSH2 0x5D8 PUSH2 0x543 JUMP JUMPDEST JUMPDEST PUSH2 0x5E2 DUP3 PUSH2 0x532 JUMP JUMPDEST SWAP1 POP PUSH1 0x20 DUP2 ADD SWAP1 POP SWAP2 SWAP1 POP JUMP JUMPDEST DUP3 DUP2 DUP4 CALLDATACOPY PUSH1 0x0 DUP4 DUP4 ADD MSTORE POP POP POP JUMP JUMPDEST PUSH1 0x0 PUSH2 0x611 PUSH2 0x60C DUP5 PUSH2 0x5BE JUMP JUMPDEST PUSH2 0x5A3 JUMP JUMPDEST SWAP1 POP DUP3 DUP2 MSTORE PUSH1 0x20 DUP2 ADD DUP5 DUP5 DUP5 ADD GT ISZERO PUSH2 0x62D JUMPI PUSH2 0x62C PUSH2 0x52D JUMP JUMPDEST JUMPDEST PUSH2 0x638 DUP5 DUP3 DUP6 PUSH2 0x5EF JUMP JUMPDEST POP SWAP4 SWAP3 POP POP POP JUMP JUMPDEST PUSH1 0x0 DUP3 PUSH1 0x1F DUP4 ADD SLT PUSH2 0x655 JUMPI PUSH2 0x654 PUSH2 0x528 JUMP JUMPDEST JUMPDEST DUP2 CALLDATALOAD PUSH2 0x665 DUP5 DUP3 PUSH1 0x20 DUP7 ADD PUSH2 0x5FE JUMP JUMPDEST SWAP2 POP POP SWAP3 SWAP2 POP POP JUMP JUMPDEST PUSH1 0x0 PUSH1 0x20 DUP3 DUP5 SUB SLT ISZERO PUSH2 0x684 JUMPI PUSH2 0x683 PUSH2 0x51E JUMP JUMPDEST JUMPDEST PUSH1 0x0 DUP3 ADD CALLDATALOAD PUSH8 0xFFFFFFFFFFFFFFFF DUP2 GT ISZERO PUSH2 0x6A2 JUMPI PUSH2 0x6A1 PUSH2 0x523 JUMP JUMPDEST JUMPDEST PUSH2 0x6AE DUP5 DUP3 DUP6 ADD PUSH2 0x640 JUMP JUMPDEST SWAP2 POP POP SWAP3 SWAP2 POP POP JUMP JUMPDEST PUSH1 0x0 DUP2 MLOAD SWAP1 POP SWAP2 SWAP1 POP JUMP JUMPDEST PUSH1 0x0 DUP3 DUP3 MSTORE PUSH1 0x20 DUP3 ADD SWAP1 POP SWAP3 SWAP2 POP POP JUMP JUMPDEST PUSH1 0x0 JUMPDEST DUP4 DUP2 LT ISZERO PUSH2 0x6F1 JUMPI DUP1 DUP3 ADD MLOAD DUP2 DUP5 ADD MSTORE PUSH1 0x20 DUP2 ADD SWAP1 POP PUSH2 0x6D6 JUMP JUMPDEST PUSH1 0x0 DUP5 DUP5 ADD MSTORE POP POP POP POP JUMP JUMPDEST PUSH1 0x0 PUSH2 0x708 DUP3 PUSH2 0x6B7 JUMP JUMPDEST PUSH2 0x712 DUP2 DUP6 PUSH2 0x6C2 JUMP JUMPDEST SWAP4 POP PUSH2 0x722 DUP2 DUP6 PUSH1 0x20 DUP7 ADD PUSH2 0x6D3 JUMP JUMPDEST PUSH2 0x72B DUP2 PUSH2 0x532 JUMP JUMPDEST DUP5 ADD SWAP2 POP POP SWAP3 SWAP2 POP POP JUMP JUMPDEST PUSH1 0x0 PUSH1 0x20 DUP3 ADD SWAP1 POP DUP2 DUP2 SUB PUSH1 0x0 DUP4 ADD MSTORE PUSH2 0x750 DUP2 DUP5 PUSH2 0x6FD JUMP JUMPDEST SWAP1 POP SWAP3 SWAP2 POP POP JUMP JUMPDEST PUSH1 0x0 DUP2 SWAP1 POP SWAP2 SWAP1 POP JUMP JUMPDEST PUSH2 0x76B DUP2 PUSH2 0x758 JUMP JUMPDEST DUP2 EQ PUSH2 0x776 JUMPI PUSH1 0x0 DUP1 REVERT JUMPDEST POP JUMP JUMPDEST PUSH1 0x0 DUP2 CALLDATALOAD SWAP1 POP PUSH2 0x788 DUP2 PUSH2 0x762 JUMP JUMPDEST SWAP3 SWAP2 POP POP JUMP JUMPDEST PUSH1 0x0 PUSH1 0x20 DUP3 DUP5 SUB SLT ISZERO PUSH2 0x7A4 JUMPI PUSH2 0x7A3 PUSH2 0x51E JUMP JUMPDEST JUMPDEST PUSH1 0x0 PUSH2 0x7B2 DUP5 DUP3 DUP6 ADD PUSH2 0x779 JUMP JUMPDEST SWAP2 POP POP SWAP3 SWAP2 POP POP JUMP JUMPDEST PUSH1 0x0 PUSH1 0x40 DUP3 ADD SWAP1 POP DUP2 DUP2 SUB PUSH1 0x0 DUP4 ADD MSTORE PUSH2 0x7D5 DUP2 DUP6 PUSH2 0x6FD JUMP JUMPDEST SWAP1 POP DUP2 DUP2 SUB PUSH1 0x20 DUP4 ADD MSTORE PUSH2 0x7E9 DUP2 DUP5 PUSH2 0x6FD JUMP JUMPDEST SWAP1 POP SWAP4 SWAP3 POP POP POP JUMP JUMPDEST PUSH1 0x0 DUP2 MLOAD SWAP1 POP SWAP2 SWAP1 POP JUMP JUMPDEST PUSH1 0x0 DUP3 DUP3 MSTORE PUSH1 0x20 DUP3 ADD SWAP1 POP SWAP3 SWAP2 POP POP JUMP JUMPDEST PUSH1 0x0 DUP2 SWAP1 POP PUSH1 0x20 DUP3 ADD SWAP1 POP SWAP2 SWAP1 POP JUMP JUMPDEST PUSH1 0x0 DUP3 DUP3 MSTORE PUSH1 0x20 DUP3 ADD SWAP1 POP SWAP3 SWAP2 POP POP JUMP JUMPDEST PUSH1 0x0 PUSH2 0x83A DUP3 PUSH2 0x6B7 JUMP JUMPDEST PUSH2 0x844 DUP2 DUP6 PUSH2 0x81E JUMP JUMPDEST SWAP4 POP PUSH2 0x854 DUP2 DUP6 PUSH1 0x20 DUP7 ADD PUSH2 0x6D3 JUMP JUMPDEST PUSH2 0x85D DUP2 PUSH2 0x532 JUMP JUMPDEST DUP5 ADD SWAP2 POP POP SWAP3 SWAP2 POP POP JUMP JUMPDEST PUSH1 0x0 PUSH2 0x874 DUP4 DUP4 PUSH2 0x82F JUMP JUMPDEST SWAP1 POP SWAP3 SWAP2 POP POP JUMP JUMPDEST PUSH1 0x0 PUSH1 0x20 DUP3 ADD SWAP1 POP SWAP2 SWAP1 POP JUMP JUMPDEST PUSH1 0x0 PUSH2 0x894 DUP3 PUSH2 0x7F2 JUMP JUMPDEST PUSH2 0x89E DUP2 DUP6 PUSH2 0x7FD JUMP JUMPDEST SWAP4 POP DUP4 PUSH1 0x20 DUP3 MUL DUP6 ADD PUSH2 0x8B0 DUP6 PUSH2 0x80E JUMP JUMPDEST DUP1 PUSH1 0x0 JUMPDEST DUP6 DUP2 LT ISZERO PUSH2 0x8EC JUMPI DUP5 DUP5 SUB DUP10 MSTORE DUP2 MLOAD PUSH2 0x8CD DUP6 DUP3 PUSH2 0x868 JUMP JUMPDEST SWAP5 POP PUSH2 0x8D8 DUP4 PUSH2 0x87C JUMP JUMPDEST SWAP3 POP PUSH1 0x20 DUP11 ADD SWAP10 POP POP PUSH1 0x1 DUP2 ADD SWAP1 POP PUSH2 0x8B4 JUMP JUMPDEST POP DUP3 SWAP8 POP DUP8 SWAP6 POP POP POP POP POP POP SWAP3 SWAP2 POP POP JUMP JUMPDEST PUSH1 0x0 PUSH1 0x20 DUP3 ADD SWAP1 POP DUP2 DUP2 SUB PUSH1 0x0 DUP4 ADD MSTORE PUSH2 0x918 DUP2 DUP5 PUSH2 0x889 JUMP JUMPDEST SWAP1 POP SWAP3 SWAP2 POP POP JUMP JUMPDEST PUSH1 0x0 DUP2 SWAP1 POP SWAP3 SWAP2 POP POP JUMP JUMPDEST PUSH1 0x0 PUSH2 0x936 DUP3 PUSH2 0x6B7 JUMP JUMPDEST PUSH2 0x940 DUP2 DUP6 PUSH2 0x920 JUMP JUMPDEST SWAP4 POP PUSH2 0x950 DUP2 DUP6 PUSH1 0x20 DUP7 ADD PUSH2 0x6D3 JUMP JUMPDEST DUP1 DUP5 ADD SWAP2 POP POP SWAP3 SWAP2 POP POP JUMP JUMPDEST PUSH1 0x0 PUSH2 0x968 DUP3 DUP5 PUSH2 0x92B JUMP JUMPDEST SWAP2 POP DUP2 SWAP1 POP SWAP3 SWAP2 POP POP JUMP JUMPDEST PUSH32 0x4E487B7100000000000000000000000000000000000000000000000000000000 PUSH1 0x0 MSTORE PUSH1 0x32 PUSH1 0x4 MSTORE PUSH1 0x24 PUSH1 0x0 REVERT JUMPDEST PUSH32 0x4E487B7100000000000000000000000000000000000000000000000000000000 PUSH1 0x0 MSTORE PUSH1 0x22 PUSH1 0x4 MSTORE PUSH1 0x24 PUSH1 0x0 REVERT JUMPDEST PUSH1 0x0 PUSH1 0x2 DUP3 DIV SWAP1 POP PUSH1 0x1 DUP3 AND DUP1 PUSH2 0x9E9 JUMPI PUSH1 0x7F DUP3 AND SWAP2 POP JUMPDEST PUSH1 0x20 DUP3 LT DUP2 SUB PUSH2 0x9FC JUMPI PUSH2 0x9FB PUSH2 0x9A2 JUMP JUMPDEST JUMPDEST POP SWAP2 SWAP1 POP JUMP JUMPDEST PUSH1 0x0 DUP2 SWAP1 POP DUP2 PUSH1 0x0 MSTORE PUSH1 0x20 PUSH1 0x0 KECCAK256 SWAP1 POP SWAP2 SWAP1 POP JUMP JUMPDEST PUSH1 0x0 DUP2 SLOAD PUSH2 0xA24 DUP2 PUSH2 0x9D1 JUMP JUMPDEST PUSH2 0xA2E DUP2 DUP7 PUSH2 0x920 JUMP JUMPDEST SWAP5 POP PUSH1 0x1 DUP3 AND PUSH1 0x0 DUP2 EQ PUSH2 0xA49 JUMPI PUSH1 0x1 DUP2 EQ PUSH2 0xA5E JUMPI PUSH2 0xA91 JUMP JUMPDEST PUSH1 0xFF NOT DUP4 AND DUP7 MSTORE DUP2 ISZERO ISZERO DUP3 MUL DUP7 ADD SWAP4 POP PUSH2 0xA91 JUMP JUMPDEST PUSH2 0xA67 DUP6 PUSH2 0xA02 JUMP JUMPDEST PUSH1 0x0 JUMPDEST DUP4 DUP2 LT ISZERO PUSH2 0xA89 JUMPI DUP2 SLOAD DUP2 DUP10 ADD MSTORE PUSH1 0x1 DUP3 ADD SWAP2 POP PUSH1 0x20 DUP2 ADD SWAP1 POP PUSH2 0xA6A JUMP JUMPDEST DUP4 DUP9 ADD SWAP6 POP POP POP JUMPDEST POP POP POP SWAP3 SWAP2 POP POP JUMP JUMPDEST PUSH1 0x0 PUSH2 0xAA6 DUP3 DUP5 PUSH2 0xA17 JUMP JUMPDEST SWAP2 POP DUP2 SWAP1 POP SWAP3 SWAP2 POP POP JUMP JUMPDEST PUSH32 0x4E487B7100000000000000000000000000000000000000000000000000000000 PUSH1 0x0 MSTORE PUSH1 0x11 PUSH1 0x4 MSTORE PUSH1 0x24 PUSH1 0x0 REVERT JUMPDEST PUSH1 0x0 PUSH2 0xAEB DUP3 PUSH2 0x758 JUMP JUMPDEST SWAP2 POP PUSH32 0xFFFFFFFFFFFFFFFFFFFFFFFFFFFFFFFFFFFFFFFFFFFFFFFFFFFFFFFFFFFFFFFF DUP3 SUB PUSH2 0xB1D JUMPI PUSH2 0xB1C PUSH2 0xAB1 JUMP JUMPDEST JUMPDEST PUSH1 0x1 DUP3 ADD SWAP1 POP SWAP2 SWAP1 POP JUMP INVALID LOG2 PUSH5 0x6970667358 0x22 SLT KECCAK256 PUSH14 0x8D922E6ED21DAB31F3E0AC3A0CB5 0xB7 0xD1 CODESIZE 0xCF PUSH15 0x8427163E8A341FDD9C4204CC64736F PUSH13 0x63430008120033307834303535 CHAINID CODESIZE CALLVALUE TIMESTAMP BALANCE ORIGIN COINBASE CALLVALUE PUSH3 0x333366 CALLDATASIZE CALLDATACOPY PUSH3 0x423442 PUSH5 0x3036373539 CODESIZE GASLIMIT PUSH7 0x63353561303465 CODECOPY NUMBER ADDRESS PUSH25 0x61663664313037666532383765326164353331323138383163 PUSH2 0x3436 ORIGIN CALLVALUE CODECOPY CALLDATALOAD CALLDATACOPY PUSH6 0x386438663361 ADDRESS PUSH25 0x36353165393142413262434533613431333131353934634533 BALANCE CALLVALUE ORIGIN PUSH3 0x653833 PUSH6 0x374430634664 PUSH6 0x0 "
				},
				"gasEstimates": {
					"creation": {
						"codeDepositCost": "582000",
						"executionCost": "infinite",
						"totalCost": "infinite"
					},
					"external": {
						"arr(uint256)": "infinite",
						"get(string)": "infinite",
						"getProd(string)": "infinite"
					}
				},
				"methodIdentifiers": {
					"arr(uint256)": "71e5ee5f",
					"get(string)": "693ec85e",
					"getProd(string)": "d91dd1e0"
				}
			},
			"storageLayout": {
				"storage": [
					{
						"astId": 12,
						"contract": "assignments/vend.sol:vend",
						"label": "arr",
						"offset": 0,
						"slot": "0",
						"type": "t_array(t_struct(l1)8_storage)dyn_storage"
					},
					{
						"astId": 15,
						"contract": "assignments/vend.sol:vend",
						"label": "s1",
						"offset": 0,
						"slot": "1",
						"type": "t_struct(l1)8_storage"
					},
					{
						"astId": 18,
						"contract": "assignments/vend.sol:vend",
						"label": "s2",
						"offset": 0,
						"slot": "4",
						"type": "t_struct(l1)8_storage"
					},
					{
						"astId": 21,
						"contract": "assignments/vend.sol:vend",
						"label": "s3",
						"offset": 0,
						"slot": "7",
						"type": "t_struct(l1)8_storage"
					}
				],
				"types": {
					"t_array(t_string_storage)dyn_storage": {
						"base": "t_string_storage",
						"encoding": "dynamic_array",
						"label": "string[]",
						"numberOfBytes": "32"
					},
					"t_array(t_struct(l1)8_storage)dyn_storage": {
						"base": "t_struct(l1)8_storage",
						"encoding": "dynamic_array",
						"label": "struct vend.l1[]",
						"numberOfBytes": "32"
					},
					"t_string_storage": {
						"encoding": "bytes",
						"label": "string",
						"numberOfBytes": "32"
					},
					"t_struct(l1)8_storage": {
						"encoding": "inplace",
						"label": "struct vend.l1",
						"members": [
							{
								"astId": 2,
								"contract": "assignments/vend.sol:vend",
								"label": "id",
								"offset": 0,
								"slot": "0",
								"type": "t_string_storage"
							},
							{
								"astId": 4,
								"contract": "assignments/vend.sol:vend",
								"label": "Add",
								"offset": 0,
								"slot": "1",
								"type": "t_string_storage"
							},
							{
								"astId": 7,
								"contract": "assignments/vend.sol:vend",
								"label": "prod",
								"offset": 0,
								"slot": "2",
								"type": "t_array(t_string_storage)dyn_storage"
							}
						],
						"numberOfBytes": "96"
					}
				}
			},
			"userdoc": {
				"kind": "user",
				"methods": {},
				"version": 1
			}
		}
	}
}