{
	"assignments/coustomer.sol": {
		"vender1": {
			"abi": [
				{
					"inputs": [
						{
							"internalType": "uint256",
							"name": "",
							"type": "uint256"
						}
					],
					"name": "arr",
					"outputs": [
						{
							"internalType": "string",
							"name": "user_id",
							"type": "string"
						},
						{
							"internalType": "string",
							"name": "date",
							"type": "string"
						},
						{
							"internalType": "string",
							"name": "status",
							"type": "string"
						}
					],
					"stateMutability": "view",
					"type": "function"
				},
				{
					"inputs": [
						{
							"internalType": "uint256",
							"name": "",
							"type": "uint256"
						}
					],
					"name": "arr2",
					"outputs": [
						{
							"internalType": "string",
							"name": "user_id",
							"type": "string"
						},
						{
							"internalType": "string",
							"name": "date",
							"type": "string"
						},
						{
							"internalType": "string",
							"name": "ven_id",
							"type": "string"
						},
						{
							"internalType": "string",
							"name": "ED",
							"type": "string"
						},
						{
							"internalType": "string",
							"name": "id",
							"type": "string"
						},
						{
							"internalType": "string",
							"name": "status",
							"type": "string"
						},
						{
							"internalType": "string",
							"name": "trans",
							"type": "string"
						}
					],
					"stateMutability": "view",
					"type": "function"
				},
				{
					"inputs": [],
					"name": "getMyStructs",
					"outputs": [
						{
							"components": [
								{
									"internalType": "string",
									"name": "user_id",
									"type": "string"
								},
								{
									"internalType": "string[]",
									"name": "prod",
									"type": "string[]"
								},
								{
									"internalType": "int256[]",
									"name": "quantity",
									"type": "int256[]"
								},
								{
									"internalType": "string",
									"name": "date",
									"type": "string"
								},
								{
									"internalType": "string",
									"name": "status",
									"type": "string"
								}
							],
							"internalType": "struct vender1.l1[]",
							"name": "",
							"type": "tuple[]"
						}
					],
					"stateMutability": "view",
					"type": "function"
				},
				{
					"inputs": [],
					"name": "getquotes",
					"outputs": [
						{
							"components": [
								{
									"internalType": "string",
									"name": "user_id",
									"type": "string"
								},
								{
									"internalType": "string[]",
									"name": "prod",
									"type": "string[]"
								},
								{
									"internalType": "int256[]",
									"name": "quantity",
									"type": "int256[]"
								},
								{
									"internalType": "string",
									"name": "date",
									"type": "string"
								},
								{
									"internalType": "string",
									"name": "ven_id",
									"type": "string"
								},
								{
									"internalType": "int256[]",
									"name": "price",
									"type": "int256[]"
								},
								{
									"internalType": "string",
									"name": "ED",
									"type": "string"
								},
								{
									"internalType": "string",
									"name": "id",
									"type": "string"
								},
								{
									"internalType": "string",
									"name": "status",
									"type": "string"
								},
								{
									"internalType": "string",
									"name": "trans",
									"type": "string"
								}
							],
							"internalType": "struct vender1.l2[]",
							"name": "",
							"type": "tuple[]"
						}
					],
					"stateMutability": "view",
					"type": "function"
				},
				{
					"inputs": [],
					"name": "len",
					"outputs": [
						{
							"internalType": "uint256",
							"name": "",
							"type": "uint256"
						}
					],
					"stateMutability": "view",
					"type": "function"
				},
				{
					"inputs": [
						{
							"internalType": "string",
							"name": "u",
							"type": "string"
						},
						{
							"internalType": "string[]",
							"name": "p",
							"type": "string[]"
						},
						{
							"internalType": "int256[]",
							"name": "n1",
							"type": "int256[]"
						},
						{
							"internalType": "string",
							"name": "x",
							"type": "string"
						},
						{
							"internalType": "string",
							"name": "y",
							"type": "string"
						}
					],
					"name": "push_element",
					"outputs": [],
					"stateMutability": "nonpayable",
					"type": "function"
				},
				{
					"inputs": [
						{
							"components": [
								{
									"internalType": "string",
									"name": "user_id",
									"type": "string"
								},
								{
									"internalType": "string[]",
									"name": "prod",
									"type": "string[]"
								},
								{
									"internalType": "int256[]",
									"name": "quantity",
									"type": "int256[]"
								},
								{
									"internalType": "string",
									"name": "date",
									"type": "string"
								},
								{
									"internalType": "string",
									"name": "ven_id",
									"type": "string"
								},
								{
									"internalType": "int256[]",
									"name": "price",
									"type": "int256[]"
								},
								{
									"internalType": "string",
									"name": "ED",
									"type": "string"
								},
								{
									"internalType": "string",
									"name": "id",
									"type": "string"
								},
								{
									"internalType": "string",
									"name": "status",
									"type": "string"
								},
								{
									"internalType": "string",
									"name": "trans",
									"type": "string"
								}
							],
							"internalType": "struct vender1.l2",
							"name": "x",
							"type": "tuple"
						}
					],
					"name": "push_element1",
					"outputs": [],
					"stateMutability": "nonpayable",
					"type": "function"
				},
				{
					"inputs": [
						{
							"internalType": "uint256",
							"name": "x",
							"type": "uint256"
						},
						{
							"internalType": "string",
							"name": "id",
							"type": "string"
						}
					],
					"name": "update",
					"outputs": [],
					"stateMutability": "nonpayable",
					"type": "function"
				}
			],
			"devdoc": {
				"kind": "dev",
				"methods": {},
				"version": 1
			},
			"evm": {
				"assembly": "    /* \"assignments/coustomer.sol\":60:1857  contract vender1{... */\n  mstore(0x40, 0x80)\n    /* \"assignments/coustomer.sol\":532:533  0 */\n  0x00\n    /* \"assignments/coustomer.sol\":525:533  uint i=0 */\n  0x02\n  sstore\n    /* \"assignments/coustomer.sol\":60:1857  contract vender1{... */\n  callvalue\n  dup1\n  iszero\n  tag_1\n  jumpi\n  0x00\n  dup1\n  revert\ntag_1:\n  pop\n  dataSize(sub_0)\n  dup1\n  dataOffset(sub_0)\n  0x00\n  codecopy\n  0x00\n  return\nstop\n\nsub_0: assembly {\n        /* \"assignments/coustomer.sol\":60:1857  contract vender1{... */\n      mstore(0x40, 0x80)\n      callvalue\n      dup1\n      iszero\n      tag_1\n      jumpi\n      0x00\n      dup1\n      revert\n    tag_1:\n      pop\n      jumpi(tag_2, lt(calldatasize, 0x04))\n      shr(0xe0, calldataload(0x00))\n      dup1\n      0x71e5ee5f\n      gt\n      tag_11\n      jumpi\n      dup1\n      0x71e5ee5f\n      eq\n      tag_7\n      jumpi\n      dup1\n      0xe56fe289\n      eq\n      tag_8\n      jumpi\n      dup1\n      0xedf0099b\n      eq\n      tag_9\n      jumpi\n      dup1\n      0xf745630f\n      eq\n      tag_10\n      jumpi\n      jump(tag_2)\n    tag_11:\n      dup1\n      0x1dcdffac\n      eq\n      tag_3\n      jumpi\n      dup1\n      0x2be725ad\n      eq\n      tag_4\n      jumpi\n      dup1\n      0x4d395307\n      eq\n      tag_5\n      jumpi\n      dup1\n      0x56d88e27\n      eq\n      tag_6\n      jumpi\n    tag_2:\n      0x00\n      dup1\n      revert\n        /* \"assignments/coustomer.sol\":822:1236  function push_element1(l2 memory x) public{... */\n    tag_3:\n      tag_12\n      0x04\n      dup1\n      calldatasize\n      sub\n      dup2\n      add\n      swap1\n      tag_13\n      swap2\n      swap1\n      tag_14\n      jump\t// in\n    tag_13:\n      tag_15\n      jump\t// in\n    tag_12:\n      stop\n        /* \"assignments/coustomer.sol\":540:816  function push_element(string memory u,string[] memory p,int[] memory n1,string memory x,string memory y) public {... */\n    tag_4:\n      tag_16\n      0x04\n      dup1\n      calldatasize\n      sub\n      dup2\n      add\n      swap1\n      tag_17\n      swap2\n      swap1\n      tag_18\n      jump\t// in\n    tag_17:\n      tag_19\n      jump\t// in\n    tag_16:\n      stop\n        /* \"assignments/coustomer.sol\":1594:1681  function getMyStructs() public view returns (l1[] memory) {... */\n    tag_5:\n      tag_20\n      tag_21\n      jump\t// in\n    tag_20:\n      mload(0x40)\n      tag_22\n      swap2\n      swap1\n      tag_23\n      jump\t// in\n    tag_22:\n      mload(0x40)\n      dup1\n      swap2\n      sub\n      swap1\n      return\n        /* \"assignments/coustomer.sol\":1778:1854  function len() public view returns(uint){... */\n    tag_6:\n      tag_24\n      tag_25\n      jump\t// in\n    tag_24:\n      mload(0x40)\n      tag_26\n      swap2\n      swap1\n      tag_27\n      jump\t// in\n    tag_26:\n      mload(0x40)\n      dup1\n      swap2\n      sub\n      swap1\n      return\n        /* \"assignments/coustomer.sol\":480:495  l1[] public arr */\n    tag_7:\n      tag_28\n      0x04\n      dup1\n      calldatasize\n      sub\n      dup2\n      add\n      swap1\n      tag_29\n      swap2\n      swap1\n      tag_30\n      jump\t// in\n    tag_29:\n      tag_31\n      jump\t// in\n    tag_28:\n      mload(0x40)\n      tag_32\n      swap4\n      swap3\n      swap2\n      swap1\n      tag_33\n      jump\t// in\n    tag_32:\n      mload(0x40)\n      dup1\n      swap2\n      sub\n      swap1\n      return\n        /* \"assignments/coustomer.sol\":1687:1772  function getquotes() public view returns (l2[] memory) {... */\n    tag_8:\n      tag_34\n      tag_35\n      jump\t// in\n    tag_34:\n      mload(0x40)\n      tag_36\n      swap2\n      swap1\n      tag_37\n      jump\t// in\n    tag_36:\n      mload(0x40)\n      dup1\n      swap2\n      sub\n      swap1\n      return\n        /* \"assignments/coustomer.sol\":502:518  l2[] public arr2 */\n    tag_9:\n      tag_38\n      0x04\n      dup1\n      calldatasize\n      sub\n      dup2\n      add\n      swap1\n      tag_39\n      swap2\n      swap1\n      tag_30\n      jump\t// in\n    tag_39:\n      tag_40\n      jump\t// in\n    tag_38:\n      mload(0x40)\n      tag_41\n      swap8\n      swap7\n      swap6\n      swap5\n      swap4\n      swap3\n      swap2\n      swap1\n      tag_42\n      jump\t// in\n    tag_41:\n      mload(0x40)\n      dup1\n      swap2\n      sub\n      swap1\n      return\n        /* \"assignments/coustomer.sol\":1243:1588  function update(uint x,string memory id) public{... */\n    tag_10:\n      tag_43\n      0x04\n      dup1\n      calldatasize\n      sub\n      dup2\n      add\n      swap1\n      tag_44\n      swap2\n      swap1\n      tag_45\n      jump\t// in\n    tag_44:\n      tag_46\n      jump\t// in\n    tag_43:\n      stop\n        /* \"assignments/coustomer.sol\":822:1236  function push_element1(l2 memory x) public{... */\n    tag_15:\n        /* \"assignments/coustomer.sol\":880:892  l2 memory s2 */\n      tag_48\n      tag_49\n      jump\t// in\n    tag_48:\n        /* \"assignments/coustomer.sol\":918:919  x */\n      dup2\n        /* \"assignments/coustomer.sol\":918:927  x.user_id */\n      0x00\n      add\n      mload\n        /* \"assignments/coustomer.sol\":907:909  s2 */\n      dup2\n        /* \"assignments/coustomer.sol\":907:917  s2.user_id */\n      0x00\n      add\n        /* \"assignments/coustomer.sol\":907:927  s2.user_id=x.user_id */\n      dup2\n      swap1\n      mstore\n      pop\n        /* \"assignments/coustomer.sol\":950:951  x */\n      dup2\n        /* \"assignments/coustomer.sol\":950:956  x.prod */\n      0x20\n      add\n      mload\n        /* \"assignments/coustomer.sol\":942:944  s2 */\n      dup2\n        /* \"assignments/coustomer.sol\":942:949  s2.prod */\n      0x20\n      add\n        /* \"assignments/coustomer.sol\":942:956  s2.prod=x.prod */\n      dup2\n      swap1\n      mstore\n      pop\n        /* \"assignments/coustomer.sol\":983:984  x */\n      dup2\n        /* \"assignments/coustomer.sol\":983:993  x.quantity */\n      0x40\n      add\n      mload\n        /* \"assignments/coustomer.sol\":971:973  s2 */\n      dup2\n        /* \"assignments/coustomer.sol\":971:982  s2.quantity */\n      0x40\n      add\n        /* \"assignments/coustomer.sol\":971:993  s2.quantity=x.quantity */\n      dup2\n      swap1\n      mstore\n      pop\n        /* \"assignments/coustomer.sol\":1016:1017  x */\n      dup2\n        /* \"assignments/coustomer.sol\":1016:1022  x.date */\n      0x60\n      add\n      mload\n        /* \"assignments/coustomer.sol\":1008:1010  s2 */\n      dup2\n        /* \"assignments/coustomer.sol\":1008:1015  s2.date */\n      0x60\n      add\n        /* \"assignments/coustomer.sol\":1008:1022  s2.date=x.date */\n      dup2\n      swap1\n      mstore\n      pop\n        /* \"assignments/coustomer.sol\":1047:1048  x */\n      dup2\n        /* \"assignments/coustomer.sol\":1047:1055  x.ven_id */\n      0x80\n      add\n      mload\n        /* \"assignments/coustomer.sol\":1037:1039  s2 */\n      dup2\n        /* \"assignments/coustomer.sol\":1037:1046  s2.ven_id */\n      0x80\n      add\n        /* \"assignments/coustomer.sol\":1037:1055  s2.ven_id=x.ven_id */\n      dup2\n      swap1\n      mstore\n      pop\n        /* \"assignments/coustomer.sol\":1079:1080  x */\n      dup2\n        /* \"assignments/coustomer.sol\":1079:1086  x.price */\n      0xa0\n      add\n      mload\n        /* \"assignments/coustomer.sol\":1070:1072  s2 */\n      dup2\n        /* \"assignments/coustomer.sol\":1070:1078  s2.price */\n      0xa0\n      add\n        /* \"assignments/coustomer.sol\":1070:1086  s2.price=x.price */\n      dup2\n      swap1\n      mstore\n      pop\n        /* \"assignments/coustomer.sol\":1107:1108  x */\n      dup2\n        /* \"assignments/coustomer.sol\":1107:1111  x.ED */\n      0xc0\n      add\n      mload\n        /* \"assignments/coustomer.sol\":1101:1103  s2 */\n      dup2\n        /* \"assignments/coustomer.sol\":1101:1106  s2.ED */\n      0xc0\n      add\n        /* \"assignments/coustomer.sol\":1101:1111  s2.ED=x.ED */\n      dup2\n      swap1\n      mstore\n      pop\n        /* \"assignments/coustomer.sol\":1132:1133  x */\n      dup2\n        /* \"assignments/coustomer.sol\":1132:1136  x.id */\n      0xe0\n      add\n      mload\n        /* \"assignments/coustomer.sol\":1126:1128  s2 */\n      dup2\n        /* \"assignments/coustomer.sol\":1126:1131  s2.id */\n      0xe0\n      add\n        /* \"assignments/coustomer.sol\":1126:1136  s2.id=x.id */\n      dup2\n      swap1\n      mstore\n      pop\n        /* \"assignments/coustomer.sol\":1161:1162  x */\n      dup2\n        /* \"assignments/coustomer.sol\":1161:1169  x.status */\n      0x0100\n      add\n      mload\n        /* \"assignments/coustomer.sol\":1151:1153  s2 */\n      dup2\n        /* \"assignments/coustomer.sol\":1151:1160  s2.status */\n      0x0100\n      add\n        /* \"assignments/coustomer.sol\":1151:1169  s2.status=x.status */\n      dup2\n      swap1\n      mstore\n      pop\n        /* \"assignments/coustomer.sol\":1193:1194  x */\n      dup2\n        /* \"assignments/coustomer.sol\":1193:1200  x.trans */\n      0x0120\n      add\n      mload\n        /* \"assignments/coustomer.sol\":1184:1186  s2 */\n      dup2\n        /* \"assignments/coustomer.sol\":1184:1192  s2.trans */\n      0x0120\n      add\n        /* \"assignments/coustomer.sol\":1184:1200  s2.trans=x.trans */\n      dup2\n      swap1\n      mstore\n      pop\n        /* \"assignments/coustomer.sol\":1215:1219  arr2 */\n      0x01\n        /* \"assignments/coustomer.sol\":1225:1227  s2 */\n      dup2\n        /* \"assignments/coustomer.sol\":1215:1228  arr2.push(s2) */\n      swap1\n      dup1\n      0x01\n      dup2\n      sload\n      add\n      dup1\n      dup3\n      sstore\n      dup1\n      swap2\n      pop\n      pop\n      0x01\n      swap1\n      sub\n      swap1\n      0x00\n      mstore\n      keccak256(0x00, 0x20)\n      swap1\n      0x0a\n      mul\n      add\n      0x00\n      swap1\n      swap2\n      swap1\n      swap2\n      swap1\n      swap2\n      pop\n      0x00\n      dup3\n      add\n      mload\n      dup2\n      0x00\n      add\n      swap1\n      dup2\n      tag_51\n      swap2\n      swap1\n      tag_52\n      jump\t// in\n    tag_51:\n      pop\n      0x20\n      dup3\n      add\n      mload\n      dup2\n      0x01\n      add\n      swap1\n      dup1\n      mload\n      swap1\n      0x20\n      add\n      swap1\n      tag_53\n      swap3\n      swap2\n      swap1\n      tag_54\n      jump\t// in\n    tag_53:\n      pop\n      0x40\n      dup3\n      add\n      mload\n      dup2\n      0x02\n      add\n      swap1\n      dup1\n      mload\n      swap1\n      0x20\n      add\n      swap1\n      tag_55\n      swap3\n      swap2\n      swap1\n      tag_56\n      jump\t// in\n    tag_55:\n      pop\n      0x60\n      dup3\n      add\n      mload\n      dup2\n      0x03\n      add\n      swap1\n      dup2\n      tag_57\n      swap2\n      swap1\n      tag_52\n      jump\t// in\n    tag_57:\n      pop\n      0x80\n      dup3\n      add\n      mload\n      dup2\n      0x04\n      add\n      swap1\n      dup2\n      tag_58\n      swap2\n      swap1\n      tag_52\n      jump\t// in\n    tag_58:\n      pop\n      0xa0\n      dup3\n      add\n      mload\n      dup2\n      0x05\n      add\n      swap1\n      dup1\n      mload\n      swap1\n      0x20\n      add\n      swap1\n      tag_59\n      swap3\n      swap2\n      swap1\n      tag_56\n      jump\t// in\n    tag_59:\n      pop\n      0xc0\n      dup3\n      add\n      mload\n      dup2\n      0x06\n      add\n      swap1\n      dup2\n      tag_60\n      swap2\n      swap1\n      tag_52\n      jump\t// in\n    tag_60:\n      pop\n      0xe0\n      dup3\n      add\n      mload\n      dup2\n      0x07\n      add\n      swap1\n      dup2\n      tag_61\n      swap2\n      swap1\n      tag_52\n      jump\t// in\n    tag_61:\n      pop\n      0x0100\n      dup3\n      add\n      mload\n      dup2\n      0x08\n      add\n      swap1\n      dup2\n      tag_62\n      swap2\n      swap1\n      tag_52\n      jump\t// in\n    tag_62:\n      pop\n      0x0120\n      dup3\n      add\n      mload\n      dup2\n      0x09\n      add\n      swap1\n      dup2\n      tag_63\n      swap2\n      swap1\n      tag_52\n      jump\t// in\n    tag_63:\n      pop\n      pop\n      pop\n        /* \"assignments/coustomer.sol\":864:1236  {... */\n      pop\n        /* \"assignments/coustomer.sol\":822:1236  function push_element1(l2 memory x) public{... */\n      pop\n      jump\t// out\n        /* \"assignments/coustomer.sol\":540:816  function push_element(string memory u,string[] memory p,int[] memory n1,string memory x,string memory y) public {... */\n    tag_19:\n        /* \"assignments/coustomer.sol\":663:675  l1 memory s1 */\n      tag_65\n      tag_66\n      jump\t// in\n    tag_65:\n        /* \"assignments/coustomer.sol\":697:698  u */\n      dup6\n        /* \"assignments/coustomer.sol\":686:688  s1 */\n      dup2\n        /* \"assignments/coustomer.sol\":686:696  s1.user_id */\n      0x00\n      add\n        /* \"assignments/coustomer.sol\":686:698  s1.user_id=u */\n      dup2\n      swap1\n      mstore\n      pop\n        /* \"assignments/coustomer.sol\":717:718  p */\n      dup5\n        /* \"assignments/coustomer.sol\":709:711  s1 */\n      dup2\n        /* \"assignments/coustomer.sol\":709:716  s1.prod */\n      0x20\n      add\n        /* \"assignments/coustomer.sol\":709:718  s1.prod=p */\n      dup2\n      swap1\n      mstore\n      pop\n        /* \"assignments/coustomer.sol\":741:743  n1 */\n      dup4\n        /* \"assignments/coustomer.sol\":729:731  s1 */\n      dup2\n        /* \"assignments/coustomer.sol\":729:740  s1.quantity */\n      0x40\n      add\n        /* \"assignments/coustomer.sol\":729:743  s1.quantity=n1 */\n      dup2\n      swap1\n      mstore\n      pop\n        /* \"assignments/coustomer.sol\":762:763  x */\n      dup3\n        /* \"assignments/coustomer.sol\":754:756  s1 */\n      dup2\n        /* \"assignments/coustomer.sol\":754:761  s1.date */\n      0x60\n      add\n        /* \"assignments/coustomer.sol\":754:763  s1.date=x */\n      dup2\n      swap1\n      mstore\n      pop\n        /* \"assignments/coustomer.sol\":784:785  y */\n      dup2\n        /* \"assignments/coustomer.sol\":774:776  s1 */\n      dup2\n        /* \"assignments/coustomer.sol\":774:783  s1.status */\n      0x80\n      add\n        /* \"assignments/coustomer.sol\":774:785  s1.status=y */\n      dup2\n      swap1\n      mstore\n      pop\n        /* \"assignments/coustomer.sol\":796:799  arr */\n      0x00\n        /* \"assignments/coustomer.sol\":805:807  s1 */\n      dup2\n        /* \"assignments/coustomer.sol\":796:808  arr.push(s1) */\n      swap1\n      dup1\n      0x01\n      dup2\n      sload\n      add\n      dup1\n      dup3\n      sstore\n      dup1\n      swap2\n      pop\n      pop\n      0x01\n      swap1\n      sub\n      swap1\n      0x00\n      mstore\n      keccak256(0x00, 0x20)\n      swap1\n      0x05\n      mul\n      add\n      0x00\n      swap1\n      swap2\n      swap1\n      swap2\n      swap1\n      swap2\n      pop\n      0x00\n      dup3\n      add\n      mload\n      dup2\n      0x00\n      add\n      swap1\n      dup2\n      tag_68\n      swap2\n      swap1\n      tag_52\n      jump\t// in\n    tag_68:\n      pop\n      0x20\n      dup3\n      add\n      mload\n      dup2\n      0x01\n      add\n      swap1\n      dup1\n      mload\n      swap1\n      0x20\n      add\n      swap1\n      tag_69\n      swap3\n      swap2\n      swap1\n      tag_54\n      jump\t// in\n    tag_69:\n      pop\n      0x40\n      dup3\n      add\n      mload\n      dup2\n      0x02\n      add\n      swap1\n      dup1\n      mload\n      swap1\n      0x20\n      add\n      swap1\n      tag_70\n      swap3\n      swap2\n      swap1\n      tag_56\n      jump\t// in\n    tag_70:\n      pop\n      0x60\n      dup3\n      add\n      mload\n      dup2\n      0x03\n      add\n      swap1\n      dup2\n      tag_71\n      swap2\n      swap1\n      tag_52\n      jump\t// in\n    tag_71:\n      pop\n      0x80\n      dup3\n      add\n      mload\n      dup2\n      0x04\n      add\n      swap1\n      dup2\n      tag_72\n      swap2\n      swap1\n      tag_52\n      jump\t// in\n    tag_72:\n      pop\n      pop\n      pop\n        /* \"assignments/coustomer.sol\":652:816  {... */\n      pop\n        /* \"assignments/coustomer.sol\":540:816  function push_element(string memory u,string[] memory p,int[] memory n1,string memory x,string memory y) public {... */\n      pop\n      pop\n      pop\n      pop\n      pop\n      jump\t// out\n        /* \"assignments/coustomer.sol\":1594:1681  function getMyStructs() public view returns (l1[] memory) {... */\n    tag_21:\n        /* \"assignments/coustomer.sol\":1639:1650  l1[] memory */\n      0x60\n        /* \"assignments/coustomer.sol\":1670:1673  arr */\n      0x00\n        /* \"assignments/coustomer.sol\":1663:1673  return arr */\n      dup1\n      sload\n      dup1\n      0x20\n      mul\n      0x20\n      add\n      mload(0x40)\n      swap1\n      dup2\n      add\n      0x40\n      mstore\n      dup1\n      swap3\n      swap2\n      swap1\n      dup2\n      dup2\n      mstore\n      0x20\n      add\n      0x00\n      swap1\n    tag_74:\n      dup3\n      dup3\n      lt\n      iszero\n      tag_75\n      jumpi\n      dup4\n      dup3\n      swap1\n      0x00\n      mstore\n      keccak256(0x00, 0x20)\n      swap1\n      0x05\n      mul\n      add\n      mload(0x40)\n      dup1\n      0xa0\n      add\n      0x40\n      mstore\n      swap1\n      dup2\n      0x00\n      dup3\n      add\n      dup1\n      sload\n      tag_77\n      swap1\n      tag_78\n      jump\t// in\n    tag_77:\n      dup1\n      0x1f\n      add\n      0x20\n      dup1\n      swap2\n      div\n      mul\n      0x20\n      add\n      mload(0x40)\n      swap1\n      dup2\n      add\n      0x40\n      mstore\n      dup1\n      swap3\n      swap2\n      swap1\n      dup2\n      dup2\n      mstore\n      0x20\n      add\n      dup3\n      dup1\n      sload\n      tag_79\n      swap1\n      tag_78\n      jump\t// in\n    tag_79:\n      dup1\n      iszero\n      tag_80\n      jumpi\n      dup1\n      0x1f\n      lt\n      tag_81\n      jumpi\n      0x0100\n      dup1\n      dup4\n      sload\n      div\n      mul\n      dup4\n      mstore\n      swap2\n      0x20\n      add\n      swap2\n      jump(tag_80)\n    tag_81:\n      dup3\n      add\n      swap2\n      swap1\n      0x00\n      mstore\n      keccak256(0x00, 0x20)\n      swap1\n    tag_82:\n      dup2\n      sload\n      dup2\n      mstore\n      swap1\n      0x01\n      add\n      swap1\n      0x20\n      add\n      dup1\n      dup4\n      gt\n      tag_82\n      jumpi\n      dup3\n      swap1\n      sub\n      0x1f\n      and\n      dup3\n      add\n      swap2\n    tag_80:\n      pop\n      pop\n      pop\n      pop\n      pop\n      dup2\n      mstore\n      0x20\n      add\n      0x01\n      dup3\n      add\n      dup1\n      sload\n      dup1\n      0x20\n      mul\n      0x20\n      add\n      mload(0x40)\n      swap1\n      dup2\n      add\n      0x40\n      mstore\n      dup1\n      swap3\n      swap2\n      swap1\n      dup2\n      dup2\n      mstore\n      0x20\n      add\n      0x00\n      swap1\n    tag_83:\n      dup3\n      dup3\n      lt\n      iszero\n      tag_84\n      jumpi\n      dup4\n      dup3\n      swap1\n      0x00\n      mstore\n      keccak256(0x00, 0x20)\n      add\n      dup1\n      sload\n      tag_86\n      swap1\n      tag_78\n      jump\t// in\n    tag_86:\n      dup1\n      0x1f\n      add\n      0x20\n      dup1\n      swap2\n      div\n      mul\n      0x20\n      add\n      mload(0x40)\n      swap1\n      dup2\n      add\n      0x40\n      mstore\n      dup1\n      swap3\n      swap2\n      swap1\n      dup2\n      dup2\n      mstore\n      0x20\n      add\n      dup3\n      dup1\n      sload\n      tag_87\n      swap1\n      tag_78\n      jump\t// in\n    tag_87:\n      dup1\n      iszero\n      tag_88\n      jumpi\n      dup1\n      0x1f\n      lt\n      tag_89\n      jumpi\n      0x0100\n      dup1\n      dup4\n      sload\n      div\n      mul\n      dup4\n      mstore\n      swap2\n      0x20\n      add\n      swap2\n      jump(tag_88)\n    tag_89:\n      dup3\n      add\n      swap2\n      swap1\n      0x00\n      mstore\n      keccak256(0x00, 0x20)\n      swap1\n    tag_90:\n      dup2\n      sload\n      dup2\n      mstore\n      swap1\n      0x01\n      add\n      swap1\n      0x20\n      add\n      dup1\n      dup4\n      gt\n      tag_90\n      jumpi\n      dup3\n      swap1\n      sub\n      0x1f\n      and\n      dup3\n      add\n      swap2\n    tag_88:\n      pop\n      pop\n      pop\n      pop\n      pop\n      dup2\n      mstore\n      0x20\n      add\n      swap1\n      0x01\n      add\n      swap1\n      jump(tag_83)\n    tag_84:\n      pop\n      pop\n      pop\n      pop\n      dup2\n      mstore\n      0x20\n      add\n      0x02\n      dup3\n      add\n      dup1\n      sload\n      dup1\n      0x20\n      mul\n      0x20\n      add\n      mload(0x40)\n      swap1\n      dup2\n      add\n      0x40\n      mstore\n      dup1\n      swap3\n      swap2\n      swap1\n      dup2\n      dup2\n      mstore\n      0x20\n      add\n      dup3\n      dup1\n      sload\n      dup1\n      iszero\n      tag_91\n      jumpi\n      0x20\n      mul\n      dup3\n      add\n      swap2\n      swap1\n      0x00\n      mstore\n      keccak256(0x00, 0x20)\n      swap1\n    tag_92:\n      dup2\n      sload\n      dup2\n      mstore\n      0x20\n      add\n      swap1\n      0x01\n      add\n      swap1\n      dup1\n      dup4\n      gt\n      tag_92\n      jumpi\n    tag_91:\n      pop\n      pop\n      pop\n      pop\n      pop\n      dup2\n      mstore\n      0x20\n      add\n      0x03\n      dup3\n      add\n      dup1\n      sload\n      tag_93\n      swap1\n      tag_78\n      jump\t// in\n    tag_93:\n      dup1\n      0x1f\n      add\n      0x20\n      dup1\n      swap2\n      div\n      mul\n      0x20\n      add\n      mload(0x40)\n      swap1\n      dup2\n      add\n      0x40\n      mstore\n      dup1\n      swap3\n      swap2\n      swap1\n      dup2\n      dup2\n      mstore\n      0x20\n      add\n      dup3\n      dup1\n      sload\n      tag_94\n      swap1\n      tag_78\n      jump\t// in\n    tag_94:\n      dup1\n      iszero\n      tag_95\n      jumpi\n      dup1\n      0x1f\n      lt\n      tag_96\n      jumpi\n      0x0100\n      dup1\n      dup4\n      sload\n      div\n      mul\n      dup4\n      mstore\n      swap2\n      0x20\n      add\n      swap2\n      jump(tag_95)\n    tag_96:\n      dup3\n      add\n      swap2\n      swap1\n      0x00\n      mstore\n      keccak256(0x00, 0x20)\n      swap1\n    tag_97:\n      dup2\n      sload\n      dup2\n      mstore\n      swap1\n      0x01\n      add\n      swap1\n      0x20\n      add\n      dup1\n      dup4\n      gt\n      tag_97\n      jumpi\n      dup3\n      swap1\n      sub\n      0x1f\n      and\n      dup3\n      add\n      swap2\n    tag_95:\n      pop\n      pop\n      pop\n      pop\n      pop\n      dup2\n      mstore\n      0x20\n      add\n      0x04\n      dup3\n      add\n      dup1\n      sload\n      tag_98\n      swap1\n      tag_78\n      jump\t// in\n    tag_98:\n      dup1\n      0x1f\n      add\n      0x20\n      dup1\n      swap2\n      div\n      mul\n      0x20\n      add\n      mload(0x40)\n      swap1\n      dup2\n      add\n      0x40\n      mstore\n      dup1\n      swap3\n      swap2\n      swap1\n      dup2\n      dup2\n      mstore\n      0x20\n      add\n      dup3\n      dup1\n      sload\n      tag_99\n      swap1\n      tag_78\n      jump\t// in\n    tag_99:\n      dup1\n      iszero\n      tag_100\n      jumpi\n      dup1\n      0x1f\n      lt\n      tag_101\n      jumpi\n      0x0100\n      dup1\n      dup4\n      sload\n      div\n      mul\n      dup4\n      mstore\n      swap2\n      0x20\n      add\n      swap2\n      jump(tag_100)\n    tag_101:\n      dup3\n      add\n      swap2\n      swap1\n      0x00\n      mstore\n      keccak256(0x00, 0x20)\n      swap1\n    tag_102:\n      dup2\n      sload\n      dup2\n      mstore\n      swap1\n      0x01\n      add\n      swap1\n      0x20\n      add\n      dup1\n      dup4\n      gt\n      tag_102\n      jumpi\n      dup3\n      swap1\n      sub\n      0x1f\n      and\n      dup3\n      add\n      swap2\n    tag_100:\n      pop\n      pop\n      pop\n      pop\n      pop\n      dup2\n      mstore\n      pop\n      pop\n      dup2\n      mstore\n      0x20\n      add\n      swap1\n      0x01\n      add\n      swap1\n      jump(tag_74)\n    tag_75:\n      pop\n      pop\n      pop\n      pop\n      swap1\n      pop\n        /* \"assignments/coustomer.sol\":1594:1681  function getMyStructs() public view returns (l1[] memory) {... */\n      swap1\n      jump\t// out\n        /* \"assignments/coustomer.sol\":1778:1854  function len() public view returns(uint){... */\n    tag_25:\n        /* \"assignments/coustomer.sol\":1813:1817  uint */\n      0x00\n        /* \"assignments/coustomer.sol\":1836:1839  arr */\n      dup1\n        /* \"assignments/coustomer.sol\":1836:1846  arr.length */\n      dup1\n      sload\n      swap1\n      pop\n        /* \"assignments/coustomer.sol\":1829:1846  return arr.length */\n      swap1\n      pop\n        /* \"assignments/coustomer.sol\":1778:1854  function len() public view returns(uint){... */\n      swap1\n      jump\t// out\n        /* \"assignments/coustomer.sol\":480:495  l1[] public arr */\n    tag_31:\n      0x00\n      dup2\n      dup2\n      sload\n      dup2\n      lt\n      tag_104\n      jumpi\n      0x00\n      dup1\n      revert\n    tag_104:\n      swap1\n      0x00\n      mstore\n      keccak256(0x00, 0x20)\n      swap1\n      0x05\n      mul\n      add\n      0x00\n      swap2\n      pop\n      swap1\n      pop\n      dup1\n      0x00\n      add\n      dup1\n      sload\n      tag_106\n      swap1\n      tag_78\n      jump\t// in\n    tag_106:\n      dup1\n      0x1f\n      add\n      0x20\n      dup1\n      swap2\n      div\n      mul\n      0x20\n      add\n      mload(0x40)\n      swap1\n      dup2\n      add\n      0x40\n      mstore\n      dup1\n      swap3\n      swap2\n      swap1\n      dup2\n      dup2\n      mstore\n      0x20\n      add\n      dup3\n      dup1\n      sload\n      tag_107\n      swap1\n      tag_78\n      jump\t// in\n    tag_107:\n      dup1\n      iszero\n      tag_108\n      jumpi\n      dup1\n      0x1f\n      lt\n      tag_109\n      jumpi\n      0x0100\n      dup1\n      dup4\n      sload\n      div\n      mul\n      dup4\n      mstore\n      swap2\n      0x20\n      add\n      swap2\n      jump(tag_108)\n    tag_109:\n      dup3\n      add\n      swap2\n      swap1\n      0x00\n      mstore\n      keccak256(0x00, 0x20)\n      swap1\n    tag_110:\n      dup2\n      sload\n      dup2\n      mstore\n      swap1\n      0x01\n      add\n      swap1\n      0x20\n      add\n      dup1\n      dup4\n      gt\n      tag_110\n      jumpi\n      dup3\n      swap1\n      sub\n      0x1f\n      and\n      dup3\n      add\n      swap2\n    tag_108:\n      pop\n      pop\n      pop\n      pop\n      pop\n      swap1\n      dup1\n      0x03\n      add\n      dup1\n      sload\n      tag_111\n      swap1\n      tag_78\n      jump\t// in\n    tag_111:\n      dup1\n      0x1f\n      add\n      0x20\n      dup1\n      swap2\n      div\n      mul\n      0x20\n      add\n      mload(0x40)\n      swap1\n      dup2\n      add\n      0x40\n      mstore\n      dup1\n      swap3\n      swap2\n      swap1\n      dup2\n      dup2\n      mstore\n      0x20\n      add\n      dup3\n      dup1\n      sload\n      tag_112\n      swap1\n      tag_78\n      jump\t// in\n    tag_112:\n      dup1\n      iszero\n      tag_113\n      jumpi\n      dup1\n      0x1f\n      lt\n      tag_114\n      jumpi\n      0x0100\n      dup1\n      dup4\n      sload\n      div\n      mul\n      dup4\n      mstore\n      swap2\n      0x20\n      add\n      swap2\n      jump(tag_113)\n    tag_114:\n      dup3\n      add\n      swap2\n      swap1\n      0x00\n      mstore\n      keccak256(0x00, 0x20)\n      swap1\n    tag_115:\n      dup2\n      sload\n      dup2\n      mstore\n      swap1\n      0x01\n      add\n      swap1\n      0x20\n      add\n      dup1\n      dup4\n      gt\n      tag_115\n      jumpi\n      dup3\n      swap1\n      sub\n      0x1f\n      and\n      dup3\n      add\n      swap2\n    tag_113:\n      pop\n      pop\n      pop\n      pop\n      pop\n      swap1\n      dup1\n      0x04\n      add\n      dup1\n      sload\n      tag_116\n      swap1\n      tag_78\n      jump\t// in\n    tag_116:\n      dup1\n      0x1f\n      add\n      0x20\n      dup1\n      swap2\n      div\n      mul\n      0x20\n      add\n      mload(0x40)\n      swap1\n      dup2\n      add\n      0x40\n      mstore\n      dup1\n      swap3\n      swap2\n      swap1\n      dup2\n      dup2\n      mstore\n      0x20\n      add\n      dup3\n      dup1\n      sload\n      tag_117\n      swap1\n      tag_78\n      jump\t// in\n    tag_117:\n      dup1\n      iszero\n      tag_118\n      jumpi\n      dup1\n      0x1f\n      lt\n      tag_119\n      jumpi\n      0x0100\n      dup1\n      dup4\n      sload\n      div\n      mul\n      dup4\n      mstore\n      swap2\n      0x20\n      add\n      swap2\n      jump(tag_118)\n    tag_119:\n      dup3\n      add\n      swap2\n      swap1\n      0x00\n      mstore\n      keccak256(0x00, 0x20)\n      swap1\n    tag_120:\n      dup2\n      sload\n      dup2\n      mstore\n      swap1\n      0x01\n      add\n      swap1\n      0x20\n      add\n      dup1\n      dup4\n      gt\n      tag_120\n      jumpi\n      dup3\n      swap1\n      sub\n      0x1f\n      and\n      dup3\n      add\n      swap2\n    tag_118:\n      pop\n      pop\n      pop\n      pop\n      pop\n      swap1\n      pop\n      dup4\n      jump\t// out\n        /* \"assignments/coustomer.sol\":1687:1772  function getquotes() public view returns (l2[] memory) {... */\n    tag_35:\n        /* \"assignments/coustomer.sol\":1729:1740  l2[] memory */\n      0x60\n        /* \"assignments/coustomer.sol\":1760:1764  arr2 */\n      0x01\n        /* \"assignments/coustomer.sol\":1753:1764  return arr2 */\n      dup1\n      sload\n      dup1\n      0x20\n      mul\n      0x20\n      add\n      mload(0x40)\n      swap1\n      dup2\n      add\n      0x40\n      mstore\n      dup1\n      swap3\n      swap2\n      swap1\n      dup2\n      dup2\n      mstore\n      0x20\n      add\n      0x00\n      swap1\n    tag_122:\n      dup3\n      dup3\n      lt\n      iszero\n      tag_123\n      jumpi\n      dup4\n      dup3\n      swap1\n      0x00\n      mstore\n      keccak256(0x00, 0x20)\n      swap1\n      0x0a\n      mul\n      add\n      mload(0x40)\n      dup1\n      0x0140\n      add\n      0x40\n      mstore\n      swap1\n      dup2\n      0x00\n      dup3\n      add\n      dup1\n      sload\n      tag_125\n      swap1\n      tag_78\n      jump\t// in\n    tag_125:\n      dup1\n      0x1f\n      add\n      0x20\n      dup1\n      swap2\n      div\n      mul\n      0x20\n      add\n      mload(0x40)\n      swap1\n      dup2\n      add\n      0x40\n      mstore\n      dup1\n      swap3\n      swap2\n      swap1\n      dup2\n      dup2\n      mstore\n      0x20\n      add\n      dup3\n      dup1\n      sload\n      tag_126\n      swap1\n      tag_78\n      jump\t// in\n    tag_126:\n      dup1\n      iszero\n      tag_127\n      jumpi\n      dup1\n      0x1f\n      lt\n      tag_128\n      jumpi\n      0x0100\n      dup1\n      dup4\n      sload\n      div\n      mul\n      dup4\n      mstore\n      swap2\n      0x20\n      add\n      swap2\n      jump(tag_127)\n    tag_128:\n      dup3\n      add\n      swap2\n      swap1\n      0x00\n      mstore\n      keccak256(0x00, 0x20)\n      swap1\n    tag_129:\n      dup2\n      sload\n      dup2\n      mstore\n      swap1\n      0x01\n      add\n      swap1\n      0x20\n      add\n      dup1\n      dup4\n      gt\n      tag_129\n      jumpi\n      dup3\n      swap1\n      sub\n      0x1f\n      and\n      dup3\n      add\n      swap2\n    tag_127:\n      pop\n      pop\n      pop\n      pop\n      pop\n      dup2\n      mstore\n      0x20\n      add\n      0x01\n      dup3\n      add\n      dup1\n      sload\n      dup1\n      0x20\n      mul\n      0x20\n      add\n      mload(0x40)\n      swap1\n      dup2\n      add\n      0x40\n      mstore\n      dup1\n      swap3\n      swap2\n      swap1\n      dup2\n      dup2\n      mstore\n      0x20\n      add\n      0x00\n      swap1\n    tag_130:\n      dup3\n      dup3\n      lt\n      iszero\n      tag_131\n      jumpi\n      dup4\n      dup3\n      swap1\n      0x00\n      mstore\n      keccak256(0x00, 0x20)\n      add\n      dup1\n      sload\n      tag_133\n      swap1\n      tag_78\n      jump\t// in\n    tag_133:\n      dup1\n      0x1f\n      add\n      0x20\n      dup1\n      swap2\n      div\n      mul\n      0x20\n      add\n      mload(0x40)\n      swap1\n      dup2\n      add\n      0x40\n      mstore\n      dup1\n      swap3\n      swap2\n      swap1\n      dup2\n      dup2\n      mstore\n      0x20\n      add\n      dup3\n      dup1\n      sload\n      tag_134\n      swap1\n      tag_78\n      jump\t// in\n    tag_134:\n      dup1\n      iszero\n      tag_135\n      jumpi\n      dup1\n      0x1f\n      lt\n      tag_136\n      jumpi\n      0x0100\n      dup1\n      dup4\n      sload\n      div\n      mul\n      dup4\n      mstore\n      swap2\n      0x20\n      add\n      swap2\n      jump(tag_135)\n    tag_136:\n      dup3\n      add\n      swap2\n      swap1\n      0x00\n      mstore\n      keccak256(0x00, 0x20)\n      swap1\n    tag_137:\n      dup2\n      sload\n      dup2\n      mstore\n      swap1\n      0x01\n      add\n      swap1\n      0x20\n      add\n      dup1\n      dup4\n      gt\n      tag_137\n      jumpi\n      dup3\n      swap1\n      sub\n      0x1f\n      and\n      dup3\n      add\n      swap2\n    tag_135:\n      pop\n      pop\n      pop\n      pop\n      pop\n      dup2\n      mstore\n      0x20\n      add\n      swap1\n      0x01\n      add\n      swap1\n      jump(tag_130)\n    tag_131:\n      pop\n      pop\n      pop\n      pop\n      dup2\n      mstore\n      0x20\n      add\n      0x02\n      dup3\n      add\n      dup1\n      sload\n      dup1\n      0x20\n      mul\n      0x20\n      add\n      mload(0x40)\n      swap1\n      dup2\n      add\n      0x40\n      mstore\n      dup1\n      swap3\n      swap2\n      swap1\n      dup2\n      dup2\n      mstore\n      0x20\n      add\n      dup3\n      dup1\n      sload\n      dup1\n      iszero\n      tag_138\n      jumpi\n      0x20\n      mul\n      dup3\n      add\n      swap2\n      swap1\n      0x00\n      mstore\n      keccak256(0x00, 0x20)\n      swap1\n    tag_139:\n      dup2\n      sload\n      dup2\n      mstore\n      0x20\n      add\n      swap1\n      0x01\n      add\n      swap1\n      dup1\n      dup4\n      gt\n      tag_139\n      jumpi\n    tag_138:\n      pop\n      pop\n      pop\n      pop\n      pop\n      dup2\n      mstore\n      0x20\n      add\n      0x03\n      dup3\n      add\n      dup1\n      sload\n      tag_140\n      swap1\n      tag_78\n      jump\t// in\n    tag_140:\n      dup1\n      0x1f\n      add\n      0x20\n      dup1\n      swap2\n      div\n      mul\n      0x20\n      add\n      mload(0x40)\n      swap1\n      dup2\n      add\n      0x40\n      mstore\n      dup1\n      swap3\n      swap2\n      swap1\n      dup2\n      dup2\n      mstore\n      0x20\n      add\n      dup3\n      dup1\n      sload\n      tag_141\n      swap1\n      tag_78\n      jump\t// in\n    tag_141:\n      dup1\n      iszero\n      tag_142\n      jumpi\n      dup1\n      0x1f\n      lt\n      tag_143\n      jumpi\n      0x0100\n      dup1\n      dup4\n      sload\n      div\n      mul\n      dup4\n      mstore\n      swap2\n      0x20\n      add\n      swap2\n      jump(tag_142)\n    tag_143:\n      dup3\n      add\n      swap2\n      swap1\n      0x00\n      mstore\n      keccak256(0x00, 0x20)\n      swap1\n    tag_144:\n      dup2\n      sload\n      dup2\n      mstore\n      swap1\n      0x01\n      add\n      swap1\n      0x20\n      add\n      dup1\n      dup4\n      gt\n      tag_144\n      jumpi\n      dup3\n      swap1\n      sub\n      0x1f\n      and\n      dup3\n      add\n      swap2\n    tag_142:\n      pop\n      pop\n      pop\n      pop\n      pop\n      dup2\n      mstore\n      0x20\n      add\n      0x04\n      dup3\n      add\n      dup1\n      sload\n      tag_145\n      swap1\n      tag_78\n      jump\t// in\n    tag_145:\n      dup1\n      0x1f\n      add\n      0x20\n      dup1\n      swap2\n      div\n      mul\n      0x20\n      add\n      mload(0x40)\n      swap1\n      dup2\n      add\n      0x40\n      mstore\n      dup1\n      swap3\n      swap2\n      swap1\n      dup2\n      dup2\n      mstore\n      0x20\n      add\n      dup3\n      dup1\n      sload\n      tag_146\n      swap1\n      tag_78\n      jump\t// in\n    tag_146:\n      dup1\n      iszero\n      tag_147\n      jumpi\n      dup1\n      0x1f\n      lt\n      tag_148\n      jumpi\n      0x0100\n      dup1\n      dup4\n      sload\n      div\n      mul\n      dup4\n      mstore\n      swap2\n      0x20\n      add\n      swap2\n      jump(tag_147)\n    tag_148:\n      dup3\n      add\n      swap2\n      swap1\n      0x00\n      mstore\n      keccak256(0x00, 0x20)\n      swap1\n    tag_149:\n      dup2\n      sload\n      dup2\n      mstore\n      swap1\n      0x01\n      add\n      swap1\n      0x20\n      add\n      dup1\n      dup4\n      gt\n      tag_149\n      jumpi\n      dup3\n      swap1\n      sub\n      0x1f\n      and\n      dup3\n      add\n      swap2\n    tag_147:\n      pop\n      pop\n      pop\n      pop\n      pop\n      dup2\n      mstore\n      0x20\n      add\n      0x05\n      dup3\n      add\n      dup1\n      sload\n      dup1\n      0x20\n      mul\n      0x20\n      add\n      mload(0x40)\n      swap1\n      dup2\n      add\n      0x40\n      mstore\n      dup1\n      swap3\n      swap2\n      swap1\n      dup2\n      dup2\n      mstore\n      0x20\n      add\n      dup3\n      dup1\n      sload\n      dup1\n      iszero\n      tag_150\n      jumpi\n      0x20\n      mul\n      dup3\n      add\n      swap2\n      swap1\n      0x00\n      mstore\n      keccak256(0x00, 0x20)\n      swap1\n    tag_151:\n      dup2\n      sload\n      dup2\n      mstore\n      0x20\n      add\n      swap1\n      0x01\n      add\n      swap1\n      dup1\n      dup4\n      gt\n      tag_151\n      jumpi\n    tag_150:\n      pop\n      pop\n      pop\n      pop\n      pop\n      dup2\n      mstore\n      0x20\n      add\n      0x06\n      dup3\n      add\n      dup1\n      sload\n      tag_152\n      swap1\n      tag_78\n      jump\t// in\n    tag_152:\n      dup1\n      0x1f\n      add\n      0x20\n      dup1\n      swap2\n      div\n      mul\n      0x20\n      add\n      mload(0x40)\n      swap1\n      dup2\n      add\n      0x40\n      mstore\n      dup1\n      swap3\n      swap2\n      swap1\n      dup2\n      dup2\n      mstore\n      0x20\n      add\n      dup3\n      dup1\n      sload\n      tag_153\n      swap1\n      tag_78\n      jump\t// in\n    tag_153:\n      dup1\n      iszero\n      tag_154\n      jumpi\n      dup1\n      0x1f\n      lt\n      tag_155\n      jumpi\n      0x0100\n      dup1\n      dup4\n      sload\n      div\n      mul\n      dup4\n      mstore\n      swap2\n      0x20\n      add\n      swap2\n      jump(tag_154)\n    tag_155:\n      dup3\n      add\n      swap2\n      swap1\n      0x00\n      mstore\n      keccak256(0x00, 0x20)\n      swap1\n    tag_156:\n      dup2\n      sload\n      dup2\n      mstore\n      swap1\n      0x01\n      add\n      swap1\n      0x20\n      add\n      dup1\n      dup4\n      gt\n      tag_156\n      jumpi\n      dup3\n      swap1\n      sub\n      0x1f\n      and\n      dup3\n      add\n      swap2\n    tag_154:\n      pop\n      pop\n      pop\n      pop\n      pop\n      dup2\n      mstore\n      0x20\n      add\n      0x07\n      dup3\n      add\n      dup1\n      sload\n      tag_157\n      swap1\n      tag_78\n      jump\t// in\n    tag_157:\n      dup1\n      0x1f\n      add\n      0x20\n      dup1\n      swap2\n      div\n      mul\n      0x20\n      add\n      mload(0x40)\n      swap1\n      dup2\n      add\n      0x40\n      mstore\n      dup1\n      swap3\n      swap2\n      swap1\n      dup2\n      dup2\n      mstore\n      0x20\n      add\n      dup3\n      dup1\n      sload\n      tag_158\n      swap1\n      tag_78\n      jump\t// in\n    tag_158:\n      dup1\n      iszero\n      tag_159\n      jumpi\n      dup1\n      0x1f\n      lt\n      tag_160\n      jumpi\n      0x0100\n      dup1\n      dup4\n      sload\n      div\n      mul\n      dup4\n      mstore\n      swap2\n      0x20\n      add\n      swap2\n      jump(tag_159)\n    tag_160:\n      dup3\n      add\n      swap2\n      swap1\n      0x00\n      mstore\n      keccak256(0x00, 0x20)\n      swap1\n    tag_161:\n      dup2\n      sload\n      dup2\n      mstore\n      swap1\n      0x01\n      add\n      swap1\n      0x20\n      add\n      dup1\n      dup4\n      gt\n      tag_161\n      jumpi\n      dup3\n      swap1\n      sub\n      0x1f\n      and\n      dup3\n      add\n      swap2\n    tag_159:\n      pop\n      pop\n      pop\n      pop\n      pop\n      dup2\n      mstore\n      0x20\n      add\n      0x08\n      dup3\n      add\n      dup1\n      sload\n      tag_162\n      swap1\n      tag_78\n      jump\t// in\n    tag_162:\n      dup1\n      0x1f\n      add\n      0x20\n      dup1\n      swap2\n      div\n      mul\n      0x20\n      add\n      mload(0x40)\n      swap1\n      dup2\n      add\n      0x40\n      mstore\n      dup1\n      swap3\n      swap2\n      swap1\n      dup2\n      dup2\n      mstore\n      0x20\n      add\n      dup3\n      dup1\n      sload\n      tag_163\n      swap1\n      tag_78\n      jump\t// in\n    tag_163:\n      dup1\n      iszero\n      tag_164\n      jumpi\n      dup1\n      0x1f\n      lt\n      tag_165\n      jumpi\n      0x0100\n      dup1\n      dup4\n      sload\n      div\n      mul\n      dup4\n      mstore\n      swap2\n      0x20\n      add\n      swap2\n      jump(tag_164)\n    tag_165:\n      dup3\n      add\n      swap2\n      swap1\n      0x00\n      mstore\n      keccak256(0x00, 0x20)\n      swap1\n    tag_166:\n      dup2\n      sload\n      dup2\n      mstore\n      swap1\n      0x01\n      add\n      swap1\n      0x20\n      add\n      dup1\n      dup4\n      gt\n      tag_166\n      jumpi\n      dup3\n      swap1\n      sub\n      0x1f\n      and\n      dup3\n      add\n      swap2\n    tag_164:\n      pop\n      pop\n      pop\n      pop\n      pop\n      dup2\n      mstore\n      0x20\n      add\n      0x09\n      dup3\n      add\n      dup1\n      sload\n      tag_167\n      swap1\n      tag_78\n      jump\t// in\n    tag_167:\n      dup1\n      0x1f\n      add\n      0x20\n      dup1\n      swap2\n      div\n      mul\n      0x20\n      add\n      mload(0x40)\n      swap1\n      dup2\n      add\n      0x40\n      mstore\n      dup1\n      swap3\n      swap2\n      swap1\n      dup2\n      dup2\n      mstore\n      0x20\n      add\n      dup3\n      dup1\n      sload\n      tag_168\n      swap1\n      tag_78\n      jump\t// in\n    tag_168:\n      dup1\n      iszero\n      tag_169\n      jumpi\n      dup1\n      0x1f\n      lt\n      tag_170\n      jumpi\n      0x0100\n      dup1\n      dup4\n      sload\n      div\n      mul\n      dup4\n      mstore\n      swap2\n      0x20\n      add\n      swap2\n      jump(tag_169)\n    tag_170:\n      dup3\n      add\n      swap2\n      swap1\n      0x00\n      mstore\n      keccak256(0x00, 0x20)\n      swap1\n    tag_171:\n      dup2\n      sload\n      dup2\n      mstore\n      swap1\n      0x01\n      add\n      swap1\n      0x20\n      add\n      dup1\n      dup4\n      gt\n      tag_171\n      jumpi\n      dup3\n      swap1\n      sub\n      0x1f\n      and\n      dup3\n      add\n      swap2\n    tag_169:\n      pop\n      pop\n      pop\n      pop\n      pop\n      dup2\n      mstore\n      pop\n      pop\n      dup2\n      mstore\n      0x20\n      add\n      swap1\n      0x01\n      add\n      swap1\n      jump(tag_122)\n    tag_123:\n      pop\n      pop\n      pop\n      pop\n      swap1\n      pop\n        /* \"assignments/coustomer.sol\":1687:1772  function getquotes() public view returns (l2[] memory) {... */\n      swap1\n      jump\t// out\n        /* \"assignments/coustomer.sol\":502:518  l2[] public arr2 */\n    tag_40:\n      0x01\n      dup2\n      dup2\n      sload\n      dup2\n      lt\n      tag_172\n      jumpi\n      0x00\n      dup1\n      revert\n    tag_172:\n      swap1\n      0x00\n      mstore\n      keccak256(0x00, 0x20)\n      swap1\n      0x0a\n      mul\n      add\n      0x00\n      swap2\n      pop\n      swap1\n      pop\n      dup1\n      0x00\n      add\n      dup1\n      sload\n      tag_174\n      swap1\n      tag_78\n      jump\t// in\n    tag_174:\n      dup1\n      0x1f\n      add\n      0x20\n      dup1\n      swap2\n      div\n      mul\n      0x20\n      add\n      mload(0x40)\n      swap1\n      dup2\n      add\n      0x40\n      mstore\n      dup1\n      swap3\n      swap2\n      swap1\n      dup2\n      dup2\n      mstore\n      0x20\n      add\n      dup3\n      dup1\n      sload\n      tag_175\n      swap1\n      tag_78\n      jump\t// in\n    tag_175:\n      dup1\n      iszero\n      tag_176\n      jumpi\n      dup1\n      0x1f\n      lt\n      tag_177\n      jumpi\n      0x0100\n      dup1\n      dup4\n      sload\n      div\n      mul\n      dup4\n      mstore\n      swap2\n      0x20\n      add\n      swap2\n      jump(tag_176)\n    tag_177:\n      dup3\n      add\n      swap2\n      swap1\n      0x00\n      mstore\n      keccak256(0x00, 0x20)\n      swap1\n    tag_178:\n      dup2\n      sload\n      dup2\n      mstore\n      swap1\n      0x01\n      add\n      swap1\n      0x20\n      add\n      dup1\n      dup4\n      gt\n      tag_178\n      jumpi\n      dup3\n      swap1\n      sub\n      0x1f\n      and\n      dup3\n      add\n      swap2\n    tag_176:\n      pop\n      pop\n      pop\n      pop\n      pop\n      swap1\n      dup1\n      0x03\n      add\n      dup1\n      sload\n      tag_179\n      swap1\n      tag_78\n      jump\t// in\n    tag_179:\n      dup1\n      0x1f\n      add\n      0x20\n      dup1\n      swap2\n      div\n      mul\n      0x20\n      add\n      mload(0x40)\n      swap1\n      dup2\n      add\n      0x40\n      mstore\n      dup1\n      swap3\n      swap2\n      swap1\n      dup2\n      dup2\n      mstore\n      0x20\n      add\n      dup3\n      dup1\n      sload\n      tag_180\n      swap1\n      tag_78\n      jump\t// in\n    tag_180:\n      dup1\n      iszero\n      tag_181\n      jumpi\n      dup1\n      0x1f\n      lt\n      tag_182\n      jumpi\n      0x0100\n      dup1\n      dup4\n      sload\n      div\n      mul\n      dup4\n      mstore\n      swap2\n      0x20\n      add\n      swap2\n      jump(tag_181)\n    tag_182:\n      dup3\n      add\n      swap2\n      swap1\n      0x00\n      mstore\n      keccak256(0x00, 0x20)\n      swap1\n    tag_183:\n      dup2\n      sload\n      dup2\n      mstore\n      swap1\n      0x01\n      add\n      swap1\n      0x20\n      add\n      dup1\n      dup4\n      gt\n      tag_183\n      jumpi\n      dup3\n      swap1\n      sub\n      0x1f\n      and\n      dup3\n      add\n      swap2\n    tag_181:\n      pop\n      pop\n      pop\n      pop\n      pop\n      swap1\n      dup1\n      0x04\n      add\n      dup1\n      sload\n      tag_184\n      swap1\n      tag_78\n      jump\t// in\n    tag_184:\n      dup1\n      0x1f\n      add\n      0x20\n      dup1\n      swap2\n      div\n      mul\n      0x20\n      add\n      mload(0x40)\n      swap1\n      dup2\n      add\n      0x40\n      mstore\n      dup1\n      swap3\n      swap2\n      swap1\n      dup2\n      dup2\n      mstore\n      0x20\n      add\n      dup3\n      dup1\n      sload\n      tag_185\n      swap1\n      tag_78\n      jump\t// in\n    tag_185:\n      dup1\n      iszero\n      tag_186\n      jumpi\n      dup1\n      0x1f\n      lt\n      tag_187\n      jumpi\n      0x0100\n      dup1\n      dup4\n      sload\n      div\n      mul\n      dup4\n      mstore\n      swap2\n      0x20\n      add\n      swap2\n      jump(tag_186)\n    tag_187:\n      dup3\n      add\n      swap2\n      swap1\n      0x00\n      mstore\n      keccak256(0x00, 0x20)\n      swap1\n    tag_188:\n      dup2\n      sload\n      dup2\n      mstore\n      swap1\n      0x01\n      add\n      swap1\n      0x20\n      add\n      dup1\n      dup4\n      gt\n      tag_188\n      jumpi\n      dup3\n      swap1\n      sub\n      0x1f\n      and\n      dup3\n      add\n      swap2\n    tag_186:\n      pop\n      pop\n      pop\n      pop\n      pop\n      swap1\n      dup1\n      0x06\n      add\n      dup1\n      sload\n      tag_189\n      swap1\n      tag_78\n      jump\t// in\n    tag_189:\n      dup1\n      0x1f\n      add\n      0x20\n      dup1\n      swap2\n      div\n      mul\n      0x20\n      add\n      mload(0x40)\n      swap1\n      dup2\n      add\n      0x40\n      mstore\n      dup1\n      swap3\n      swap2\n      swap1\n      dup2\n      dup2\n      mstore\n      0x20\n      add\n      dup3\n      dup1\n      sload\n      tag_190\n      swap1\n      tag_78\n      jump\t// in\n    tag_190:\n      dup1\n      iszero\n      tag_191\n      jumpi\n      dup1\n      0x1f\n      lt\n      tag_192\n      jumpi\n      0x0100\n      dup1\n      dup4\n      sload\n      div\n      mul\n      dup4\n      mstore\n      swap2\n      0x20\n      add\n      swap2\n      jump(tag_191)\n    tag_192:\n      dup3\n      add\n      swap2\n      swap1\n      0x00\n      mstore\n      keccak256(0x00, 0x20)\n      swap1\n    tag_193:\n      dup2\n      sload\n      dup2\n      mstore\n      swap1\n      0x01\n      add\n      swap1\n      0x20\n      add\n      dup1\n      dup4\n      gt\n      tag_193\n      jumpi\n      dup3\n      swap1\n      sub\n      0x1f\n      and\n      dup3\n      add\n      swap2\n    tag_191:\n      pop\n      pop\n      pop\n      pop\n      pop\n      swap1\n      dup1\n      0x07\n      add\n      dup1\n      sload\n      tag_194\n      swap1\n      tag_78\n      jump\t// in\n    tag_194:\n      dup1\n      0x1f\n      add\n      0x20\n      dup1\n      swap2\n      div\n      mul\n      0x20\n      add\n      mload(0x40)\n      swap1\n      dup2\n      add\n      0x40\n      mstore\n      dup1\n      swap3\n      swap2\n      swap1\n      dup2\n      dup2\n      mstore\n      0x20\n      add\n      dup3\n      dup1\n      sload\n      tag_195\n      swap1\n      tag_78\n      jump\t// in\n    tag_195:\n      dup1\n      iszero\n      tag_196\n      jumpi\n      dup1\n      0x1f\n      lt\n      tag_197\n      jumpi\n      0x0100\n      dup1\n      dup4\n      sload\n      div\n      mul\n      dup4\n      mstore\n      swap2\n      0x20\n      add\n      swap2\n      jump(tag_196)\n    tag_197:\n      dup3\n      add\n      swap2\n      swap1\n      0x00\n      mstore\n      keccak256(0x00, 0x20)\n      swap1\n    tag_198:\n      dup2\n      sload\n      dup2\n      mstore\n      swap1\n      0x01\n      add\n      swap1\n      0x20\n      add\n      dup1\n      dup4\n      gt\n      tag_198\n      jumpi\n      dup3\n      swap1\n      sub\n      0x1f\n      and\n      dup3\n      add\n      swap2\n    tag_196:\n      pop\n      pop\n      pop\n      pop\n      pop\n      swap1\n      dup1\n      0x08\n      add\n      dup1\n      sload\n      tag_199\n      swap1\n      tag_78\n      jump\t// in\n    tag_199:\n      dup1\n      0x1f\n      add\n      0x20\n      dup1\n      swap2\n      div\n      mul\n      0x20\n      add\n      mload(0x40)\n      swap1\n      dup2\n      add\n      0x40\n      mstore\n      dup1\n      swap3\n      swap2\n      swap1\n      dup2\n      dup2\n      mstore\n      0x20\n      add\n      dup3\n      dup1\n      sload\n      tag_200\n      swap1\n      tag_78\n      jump\t// in\n    tag_200:\n      dup1\n      iszero\n      tag_201\n      jumpi\n      dup1\n      0x1f\n      lt\n      tag_202\n      jumpi\n      0x0100\n      dup1\n      dup4\n      sload\n      div\n      mul\n      dup4\n      mstore\n      swap2\n      0x20\n      add\n      swap2\n      jump(tag_201)\n    tag_202:\n      dup3\n      add\n      swap2\n      swap1\n      0x00\n      mstore\n      keccak256(0x00, 0x20)\n      swap1\n    tag_203:\n      dup2\n      sload\n      dup2\n      mstore\n      swap1\n      0x01\n      add\n      swap1\n      0x20\n      add\n      dup1\n      dup4\n      gt\n      tag_203\n      jumpi\n      dup3\n      swap1\n      sub\n      0x1f\n      and\n      dup3\n      add\n      swap2\n    tag_201:\n      pop\n      pop\n      pop\n      pop\n      pop\n      swap1\n      dup1\n      0x09\n      add\n      dup1\n      sload\n      tag_204\n      swap1\n      tag_78\n      jump\t// in\n    tag_204:\n      dup1\n      0x1f\n      add\n      0x20\n      dup1\n      swap2\n      div\n      mul\n      0x20\n      add\n      mload(0x40)\n      swap1\n      dup2\n      add\n      0x40\n      mstore\n      dup1\n      swap3\n      swap2\n      swap1\n      dup2\n      dup2\n      mstore\n      0x20\n      add\n      dup3\n      dup1\n      sload\n      tag_205\n      swap1\n      tag_78\n      jump\t// in\n    tag_205:\n      dup1\n      iszero\n      tag_206\n      jumpi\n      dup1\n      0x1f\n      lt\n      tag_207\n      jumpi\n      0x0100\n      dup1\n      dup4\n      sload\n      div\n      mul\n      dup4\n      mstore\n      swap2\n      0x20\n      add\n      swap2\n      jump(tag_206)\n    tag_207:\n      dup3\n      add\n      swap2\n      swap1\n      0x00\n      mstore\n      keccak256(0x00, 0x20)\n      swap1\n    tag_208:\n      dup2\n      sload\n      dup2\n      mstore\n      swap1\n      0x01\n      add\n      swap1\n      0x20\n      add\n      dup1\n      dup4\n      gt\n      tag_208\n      jumpi\n      dup3\n      swap1\n      sub\n      0x1f\n      and\n      dup3\n      add\n      swap2\n    tag_206:\n      pop\n      pop\n      pop\n      pop\n      pop\n      swap1\n      pop\n      dup8\n      jump\t// out\n        /* \"assignments/coustomer.sol\":1243:1588  function update(uint x,string memory id) public{... */\n    tag_46:\n        /* \"assignments/coustomer.sol\":1307:1308  0 */\n      0x00\n        /* \"assignments/coustomer.sol\":1305:1306  i */\n      0x02\n        /* \"assignments/coustomer.sol\":1305:1308  i=0 */\n      dup2\n      swap1\n      sstore\n      pop\n        /* \"assignments/coustomer.sol\":1301:1581  for(i=0;i<arr2.length;i++){... */\n    tag_210:\n        /* \"assignments/coustomer.sol\":1311:1315  arr2 */\n      0x01\n        /* \"assignments/coustomer.sol\":1311:1322  arr2.length */\n      dup1\n      sload\n      swap1\n      pop\n        /* \"assignments/coustomer.sol\":1309:1310  i */\n      sload(0x02)\n        /* \"assignments/coustomer.sol\":1309:1322  i<arr2.length */\n      lt\n        /* \"assignments/coustomer.sol\":1301:1581  for(i=0;i<arr2.length;i++){... */\n      iszero\n      tag_211\n      jumpi\n        /* \"assignments/coustomer.sol\":1348:1349  x */\n      dup2\n        /* \"assignments/coustomer.sol\":1345:1346  i */\n      sload(0x02)\n        /* \"assignments/coustomer.sol\":1345:1349  i==x */\n      sub\n        /* \"assignments/coustomer.sol\":1342:1570  if(i==x ){... */\n      tag_213\n      jumpi\n        /* \"assignments/coustomer.sol\":1370:1395  arr2[i].status=\"accepted\" */\n      mload(0x40)\n      dup1\n      0x40\n      add\n      0x40\n      mstore\n      dup1\n      0x08\n      dup2\n      mstore\n      0x20\n      add\n      0x6163636570746564000000000000000000000000000000000000000000000000\n      dup2\n      mstore\n      pop\n        /* \"assignments/coustomer.sol\":1370:1374  arr2 */\n      0x01\n        /* \"assignments/coustomer.sol\":1375:1376  i */\n      sload(0x02)\n        /* \"assignments/coustomer.sol\":1370:1377  arr2[i] */\n      dup2\n      sload\n      dup2\n      lt\n      tag_214\n      jumpi\n      tag_215\n      tag_216\n      jump\t// in\n    tag_215:\n    tag_214:\n      swap1\n      0x00\n      mstore\n      keccak256(0x00, 0x20)\n      swap1\n      0x0a\n      mul\n      add\n        /* \"assignments/coustomer.sol\":1370:1384  arr2[i].status */\n      0x08\n      add\n        /* \"assignments/coustomer.sol\":1370:1395  arr2[i].status=\"accepted\" */\n      swap1\n      dup2\n      tag_218\n      swap2\n      swap1\n      tag_52\n      jump\t// in\n    tag_218:\n      pop\n        /* \"assignments/coustomer.sol\":1342:1570  if(i==x ){... */\n      jump(tag_219)\n    tag_213:\n        /* \"assignments/coustomer.sol\":1504:1506  id */\n      dup1\n        /* \"assignments/coustomer.sol\":1486:1508  abi.encodePacked((id)) */\n      add(0x20, mload(0x40))\n      tag_220\n      swap2\n      swap1\n      tag_221\n      jump\t// in\n    tag_220:\n      mload(0x40)\n      0x20\n      dup2\n      dup4\n      sub\n      sub\n      dup2\n      mstore\n      swap1\n      0x40\n      mstore\n        /* \"assignments/coustomer.sol\":1476:1509  keccak256(abi.encodePacked((id))) */\n      dup1\n      mload\n      swap1\n      0x20\n      add\n      keccak256\n        /* \"assignments/coustomer.sol\":1461:1465  arr2 */\n      0x01\n        /* \"assignments/coustomer.sol\":1466:1467  i */\n      sload(0x02)\n        /* \"assignments/coustomer.sol\":1461:1468  arr2[i] */\n      dup2\n      sload\n      dup2\n      lt\n      tag_222\n      jumpi\n      tag_223\n      tag_216\n      jump\t// in\n    tag_223:\n    tag_222:\n      swap1\n      0x00\n      mstore\n      keccak256(0x00, 0x20)\n      swap1\n      0x0a\n      mul\n      add\n        /* \"assignments/coustomer.sol\":1461:1471  arr2[i].id */\n      0x07\n      add\n        /* \"assignments/coustomer.sol\":1443:1473  abi.encodePacked((arr2[i].id)) */\n      add(0x20, mload(0x40))\n      tag_225\n      swap2\n      swap1\n      tag_226\n      jump\t// in\n    tag_225:\n      mload(0x40)\n      0x20\n      dup2\n      dup4\n      sub\n      sub\n      dup2\n      mstore\n      swap1\n      0x40\n      mstore\n        /* \"assignments/coustomer.sol\":1433:1474  keccak256(abi.encodePacked((arr2[i].id))) */\n      dup1\n      mload\n      swap1\n      0x20\n      add\n      keccak256\n        /* \"assignments/coustomer.sol\":1433:1509  keccak256(abi.encodePacked((arr2[i].id)))==keccak256(abi.encodePacked((id))) */\n      sub\n        /* \"assignments/coustomer.sol\":1430:1570  if(keccak256(abi.encodePacked((arr2[i].id)))==keccak256(abi.encodePacked((id)))){... */\n      tag_227\n      jumpi\n        /* \"assignments/coustomer.sol\":1529:1554  arr2[i].status=\"rejected\" */\n      mload(0x40)\n      dup1\n      0x40\n      add\n      0x40\n      mstore\n      dup1\n      0x08\n      dup2\n      mstore\n      0x20\n      add\n      0x72656a6563746564000000000000000000000000000000000000000000000000\n      dup2\n      mstore\n      pop\n        /* \"assignments/coustomer.sol\":1529:1533  arr2 */\n      0x01\n        /* \"assignments/coustomer.sol\":1534:1535  i */\n      sload(0x02)\n        /* \"assignments/coustomer.sol\":1529:1536  arr2[i] */\n      dup2\n      sload\n      dup2\n      lt\n      tag_228\n      jumpi\n      tag_229\n      tag_216\n      jump\t// in\n    tag_229:\n    tag_228:\n      swap1\n      0x00\n      mstore\n      keccak256(0x00, 0x20)\n      swap1\n      0x0a\n      mul\n      add\n        /* \"assignments/coustomer.sol\":1529:1543  arr2[i].status */\n      0x08\n      add\n        /* \"assignments/coustomer.sol\":1529:1554  arr2[i].status=\"rejected\" */\n      swap1\n      dup2\n      tag_231\n      swap2\n      swap1\n      tag_52\n      jump\t// in\n    tag_231:\n      pop\n        /* \"assignments/coustomer.sol\":1430:1570  if(keccak256(abi.encodePacked((arr2[i].id)))==keccak256(abi.encodePacked((id)))){... */\n    tag_227:\n        /* \"assignments/coustomer.sol\":1342:1570  if(i==x ){... */\n    tag_219:\n        /* \"assignments/coustomer.sol\":1323:1324  i */\n      0x02\n      0x00\n        /* \"assignments/coustomer.sol\":1323:1326  i++ */\n      dup2\n      sload\n      dup1\n      swap3\n      swap2\n      swap1\n      tag_232\n      swap1\n      tag_233\n      jump\t// in\n    tag_232:\n      swap2\n      swap1\n      pop\n      sstore\n      pop\n        /* \"assignments/coustomer.sol\":1301:1581  for(i=0;i<arr2.length;i++){... */\n      jump(tag_210)\n    tag_211:\n        /* \"assignments/coustomer.sol\":1243:1588  function update(uint x,string memory id) public{... */\n      pop\n      pop\n      jump\t// out\n    tag_49:\n      mload(0x40)\n      dup1\n      0x0140\n      add\n      0x40\n      mstore\n      dup1\n      0x60\n      dup2\n      mstore\n      0x20\n      add\n      0x60\n      dup2\n      mstore\n      0x20\n      add\n      0x60\n      dup2\n      mstore\n      0x20\n      add\n      0x60\n      dup2\n      mstore\n      0x20\n      add\n      0x60\n      dup2\n      mstore\n      0x20\n      add\n      0x60\n      dup2\n      mstore\n      0x20\n      add\n      0x60\n      dup2\n      mstore\n      0x20\n      add\n      0x60\n      dup2\n      mstore\n      0x20\n      add\n      0x60\n      dup2\n      mstore\n      0x20\n      add\n      0x60\n      dup2\n      mstore\n      pop\n      swap1\n      jump\t// out\n    tag_54:\n      dup3\n      dup1\n      sload\n      dup3\n      dup3\n      sstore\n      swap1\n      0x00\n      mstore\n      keccak256(0x00, 0x20)\n      swap1\n      dup2\n      add\n      swap3\n      dup3\n      iszero\n      tag_234\n      jumpi\n      swap2\n      0x20\n      mul\n      dup3\n      add\n    tag_235:\n      dup3\n      dup2\n      gt\n      iszero\n      tag_236\n      jumpi\n      dup3\n      mload\n      dup3\n      swap1\n      dup2\n      tag_237\n      swap2\n      swap1\n      tag_52\n      jump\t// in\n    tag_237:\n      pop\n      swap2\n      0x20\n      add\n      swap2\n      swap1\n      0x01\n      add\n      swap1\n      jump(tag_235)\n    tag_236:\n    tag_234:\n      pop\n      swap1\n      pop\n      tag_238\n      swap2\n      swap1\n      tag_239\n      jump\t// in\n    tag_238:\n      pop\n      swap1\n      jump\t// out\n    tag_56:\n      dup3\n      dup1\n      sload\n      dup3\n      dup3\n      sstore\n      swap1\n      0x00\n      mstore\n      keccak256(0x00, 0x20)\n      swap1\n      dup2\n      add\n      swap3\n      dup3\n      iszero\n      tag_240\n      jumpi\n      swap2\n      0x20\n      mul\n      dup3\n      add\n    tag_241:\n      dup3\n      dup2\n      gt\n      iszero\n      tag_242\n      jumpi\n      dup3\n      mload\n      dup3\n      sstore\n      swap2\n      0x20\n      add\n      swap2\n      swap1\n      0x01\n      add\n      swap1\n      jump(tag_241)\n    tag_242:\n    tag_240:\n      pop\n      swap1\n      pop\n      tag_243\n      swap2\n      swap1\n      tag_244\n      jump\t// in\n    tag_243:\n      pop\n      swap1\n      jump\t// out\n    tag_66:\n      mload(0x40)\n      dup1\n      0xa0\n      add\n      0x40\n      mstore\n      dup1\n      0x60\n      dup2\n      mstore\n      0x20\n      add\n      0x60\n      dup2\n      mstore\n      0x20\n      add\n      0x60\n      dup2\n      mstore\n      0x20\n      add\n      0x60\n      dup2\n      mstore\n      0x20\n      add\n      0x60\n      dup2\n      mstore\n      pop\n      swap1\n      jump\t// out\n    tag_239:\n    tag_245:\n      dup1\n      dup3\n      gt\n      iszero\n      tag_246\n      jumpi\n      0x00\n      dup2\n      dup2\n      tag_247\n      swap2\n      swap1\n      tag_248\n      jump\t// in\n    tag_247:\n      pop\n      0x01\n      add\n      jump(tag_245)\n    tag_246:\n      pop\n      swap1\n      jump\t// out\n    tag_244:\n    tag_249:\n      dup1\n      dup3\n      gt\n      iszero\n      tag_250\n      jumpi\n      0x00\n      dup2\n      0x00\n      swap1\n      sstore\n      pop\n      0x01\n      add\n      jump(tag_249)\n    tag_250:\n      pop\n      swap1\n      jump\t// out\n    tag_248:\n      pop\n      dup1\n      sload\n      tag_251\n      swap1\n      tag_78\n      jump\t// in\n    tag_251:\n      0x00\n      dup3\n      sstore\n      dup1\n      0x1f\n      lt\n      tag_253\n      jumpi\n      pop\n      jump(tag_252)\n    tag_253:\n      0x1f\n      add\n      0x20\n      swap1\n      div\n      swap1\n      0x00\n      mstore\n      keccak256(0x00, 0x20)\n      swap1\n      dup2\n      add\n      swap1\n      tag_254\n      swap2\n      swap1\n      tag_255\n      jump\t// in\n    tag_254:\n    tag_252:\n      pop\n      jump\t// out\n    tag_255:\n    tag_256:\n      dup1\n      dup3\n      gt\n      iszero\n      tag_257\n      jumpi\n      0x00\n      dup2\n      0x00\n      swap1\n      sstore\n      pop\n      0x01\n      add\n      jump(tag_256)\n    tag_257:\n      pop\n      swap1\n      jump\t// out\n        /* \"#utility.yul\":7:82   */\n    tag_258:\n        /* \"#utility.yul\":40:46   */\n      0x00\n        /* \"#utility.yul\":73:75   */\n      0x40\n        /* \"#utility.yul\":67:76   */\n      mload\n        /* \"#utility.yul\":57:76   */\n      swap1\n      pop\n        /* \"#utility.yul\":7:82   */\n      swap1\n      jump\t// out\n        /* \"#utility.yul\":88:205   */\n    tag_259:\n        /* \"#utility.yul\":197:198   */\n      0x00\n        /* \"#utility.yul\":194:195   */\n      dup1\n        /* \"#utility.yul\":187:199   */\n      revert\n        /* \"#utility.yul\":211:328   */\n    tag_260:\n        /* \"#utility.yul\":320:321   */\n      0x00\n        /* \"#utility.yul\":317:318   */\n      dup1\n        /* \"#utility.yul\":310:322   */\n      revert\n        /* \"#utility.yul\":334:451   */\n    tag_261:\n        /* \"#utility.yul\":443:444   */\n      0x00\n        /* \"#utility.yul\":440:441   */\n      dup1\n        /* \"#utility.yul\":433:445   */\n      revert\n        /* \"#utility.yul\":457:559   */\n    tag_262:\n        /* \"#utility.yul\":498:504   */\n      0x00\n        /* \"#utility.yul\":549:551   */\n      0x1f\n        /* \"#utility.yul\":545:552   */\n      not\n        /* \"#utility.yul\":540:542   */\n      0x1f\n        /* \"#utility.yul\":533:538   */\n      dup4\n        /* \"#utility.yul\":529:543   */\n      add\n        /* \"#utility.yul\":525:553   */\n      and\n        /* \"#utility.yul\":515:553   */\n      swap1\n      pop\n        /* \"#utility.yul\":457:559   */\n      swap2\n      swap1\n      pop\n      jump\t// out\n        /* \"#utility.yul\":565:745   */\n    tag_263:\n        /* \"#utility.yul\":613:690   */\n      0x4e487b7100000000000000000000000000000000000000000000000000000000\n        /* \"#utility.yul\":610:611   */\n      0x00\n        /* \"#utility.yul\":603:691   */\n      mstore\n        /* \"#utility.yul\":710:714   */\n      0x41\n        /* \"#utility.yul\":707:708   */\n      0x04\n        /* \"#utility.yul\":700:715   */\n      mstore\n        /* \"#utility.yul\":734:738   */\n      0x24\n        /* \"#utility.yul\":731:732   */\n      0x00\n        /* \"#utility.yul\":724:739   */\n      revert\n        /* \"#utility.yul\":751:1032   */\n    tag_264:\n        /* \"#utility.yul\":834:861   */\n      tag_349\n        /* \"#utility.yul\":856:860   */\n      dup3\n        /* \"#utility.yul\":834:861   */\n      tag_262\n      jump\t// in\n    tag_349:\n        /* \"#utility.yul\":826:832   */\n      dup2\n        /* \"#utility.yul\":822:862   */\n      add\n        /* \"#utility.yul\":964:970   */\n      dup2\n        /* \"#utility.yul\":952:962   */\n      dup2\n        /* \"#utility.yul\":949:971   */\n      lt\n        /* \"#utility.yul\":928:946   */\n      0xffffffffffffffff\n        /* \"#utility.yul\":916:926   */\n      dup3\n        /* \"#utility.yul\":913:947   */\n      gt\n        /* \"#utility.yul\":910:972   */\n      or\n        /* \"#utility.yul\":907:995   */\n      iszero\n      tag_350\n      jumpi\n        /* \"#utility.yul\":975:993   */\n      tag_351\n      tag_263\n      jump\t// in\n    tag_351:\n        /* \"#utility.yul\":907:995   */\n    tag_350:\n        /* \"#utility.yul\":1015:1025   */\n      dup1\n        /* \"#utility.yul\":1011:1013   */\n      0x40\n        /* \"#utility.yul\":1004:1026   */\n      mstore\n        /* \"#utility.yul\":794:1032   */\n      pop\n        /* \"#utility.yul\":751:1032   */\n      pop\n      pop\n      jump\t// out\n        /* \"#utility.yul\":1038:1167   */\n    tag_265:\n        /* \"#utility.yul\":1072:1078   */\n      0x00\n        /* \"#utility.yul\":1099:1119   */\n      tag_353\n      tag_258\n      jump\t// in\n    tag_353:\n        /* \"#utility.yul\":1089:1119   */\n      swap1\n      pop\n        /* \"#utility.yul\":1128:1161   */\n      tag_354\n        /* \"#utility.yul\":1156:1160   */\n      dup3\n        /* \"#utility.yul\":1148:1154   */\n      dup3\n        /* \"#utility.yul\":1128:1161   */\n      tag_264\n      jump\t// in\n    tag_354:\n        /* \"#utility.yul\":1038:1167   */\n      swap2\n      swap1\n      pop\n      jump\t// out\n        /* \"#utility.yul\":1173:1290   */\n    tag_266:\n        /* \"#utility.yul\":1282:1283   */\n      0x00\n        /* \"#utility.yul\":1279:1280   */\n      dup1\n        /* \"#utility.yul\":1272:1284   */\n      revert\n        /* \"#utility.yul\":1296:1413   */\n    tag_267:\n        /* \"#utility.yul\":1405:1406   */\n      0x00\n        /* \"#utility.yul\":1402:1403   */\n      dup1\n        /* \"#utility.yul\":1395:1407   */\n      revert\n        /* \"#utility.yul\":1419:1536   */\n    tag_268:\n        /* \"#utility.yul\":1528:1529   */\n      0x00\n        /* \"#utility.yul\":1525:1526   */\n      dup1\n        /* \"#utility.yul\":1518:1530   */\n      revert\n        /* \"#utility.yul\":1542:1850   */\n    tag_269:\n        /* \"#utility.yul\":1604:1608   */\n      0x00\n        /* \"#utility.yul\":1694:1712   */\n      0xffffffffffffffff\n        /* \"#utility.yul\":1686:1692   */\n      dup3\n        /* \"#utility.yul\":1683:1713   */\n      gt\n        /* \"#utility.yul\":1680:1736   */\n      iszero\n      tag_359\n      jumpi\n        /* \"#utility.yul\":1716:1734   */\n      tag_360\n      tag_263\n      jump\t// in\n    tag_360:\n        /* \"#utility.yul\":1680:1736   */\n    tag_359:\n        /* \"#utility.yul\":1754:1783   */\n      tag_361\n        /* \"#utility.yul\":1776:1782   */\n      dup3\n        /* \"#utility.yul\":1754:1783   */\n      tag_262\n      jump\t// in\n    tag_361:\n        /* \"#utility.yul\":1746:1783   */\n      swap1\n      pop\n        /* \"#utility.yul\":1838:1842   */\n      0x20\n        /* \"#utility.yul\":1832:1836   */\n      dup2\n        /* \"#utility.yul\":1828:1843   */\n      add\n        /* \"#utility.yul\":1820:1843   */\n      swap1\n      pop\n        /* \"#utility.yul\":1542:1850   */\n      swap2\n      swap1\n      pop\n      jump\t// out\n        /* \"#utility.yul\":1856:2002   */\n    tag_270:\n        /* \"#utility.yul\":1953:1959   */\n      dup3\n        /* \"#utility.yul\":1948:1951   */\n      dup2\n        /* \"#utility.yul\":1943:1946   */\n      dup4\n        /* \"#utility.yul\":1930:1960   */\n      calldatacopy\n        /* \"#utility.yul\":1994:1995   */\n      0x00\n        /* \"#utility.yul\":1985:1991   */\n      dup4\n        /* \"#utility.yul\":1980:1983   */\n      dup4\n        /* \"#utility.yul\":1976:1992   */\n      add\n        /* \"#utility.yul\":1969:1996   */\n      mstore\n        /* \"#utility.yul\":1856:2002   */\n      pop\n      pop\n      pop\n      jump\t// out\n        /* \"#utility.yul\":2008:2433   */\n    tag_271:\n        /* \"#utility.yul\":2086:2091   */\n      0x00\n        /* \"#utility.yul\":2111:2177   */\n      tag_364\n        /* \"#utility.yul\":2127:2176   */\n      tag_365\n        /* \"#utility.yul\":2169:2175   */\n      dup5\n        /* \"#utility.yul\":2127:2176   */\n      tag_269\n      jump\t// in\n    tag_365:\n        /* \"#utility.yul\":2111:2177   */\n      tag_265\n      jump\t// in\n    tag_364:\n        /* \"#utility.yul\":2102:2177   */\n      swap1\n      pop\n        /* \"#utility.yul\":2200:2206   */\n      dup3\n        /* \"#utility.yul\":2193:2198   */\n      dup2\n        /* \"#utility.yul\":2186:2207   */\n      mstore\n        /* \"#utility.yul\":2238:2242   */\n      0x20\n        /* \"#utility.yul\":2231:2236   */\n      dup2\n        /* \"#utility.yul\":2227:2243   */\n      add\n        /* \"#utility.yul\":2276:2279   */\n      dup5\n        /* \"#utility.yul\":2267:2273   */\n      dup5\n        /* \"#utility.yul\":2262:2265   */\n      dup5\n        /* \"#utility.yul\":2258:2274   */\n      add\n        /* \"#utility.yul\":2255:2280   */\n      gt\n        /* \"#utility.yul\":2252:2364   */\n      iszero\n      tag_366\n      jumpi\n        /* \"#utility.yul\":2283:2362   */\n      tag_367\n      tag_268\n      jump\t// in\n    tag_367:\n        /* \"#utility.yul\":2252:2364   */\n    tag_366:\n        /* \"#utility.yul\":2373:2427   */\n      tag_368\n        /* \"#utility.yul\":2420:2426   */\n      dup5\n        /* \"#utility.yul\":2415:2418   */\n      dup3\n        /* \"#utility.yul\":2410:2413   */\n      dup6\n        /* \"#utility.yul\":2373:2427   */\n      tag_270\n      jump\t// in\n    tag_368:\n        /* \"#utility.yul\":2092:2433   */\n      pop\n        /* \"#utility.yul\":2008:2433   */\n      swap4\n      swap3\n      pop\n      pop\n      pop\n      jump\t// out\n        /* \"#utility.yul\":2453:2793   */\n    tag_272:\n        /* \"#utility.yul\":2509:2514   */\n      0x00\n        /* \"#utility.yul\":2558:2561   */\n      dup3\n        /* \"#utility.yul\":2551:2555   */\n      0x1f\n        /* \"#utility.yul\":2543:2549   */\n      dup4\n        /* \"#utility.yul\":2539:2556   */\n      add\n        /* \"#utility.yul\":2535:2562   */\n      slt\n        /* \"#utility.yul\":2525:2647   */\n      tag_370\n      jumpi\n        /* \"#utility.yul\":2566:2645   */\n      tag_371\n      tag_267\n      jump\t// in\n    tag_371:\n        /* \"#utility.yul\":2525:2647   */\n    tag_370:\n        /* \"#utility.yul\":2683:2689   */\n      dup2\n        /* \"#utility.yul\":2670:2690   */\n      calldataload\n        /* \"#utility.yul\":2708:2787   */\n      tag_372\n        /* \"#utility.yul\":2783:2786   */\n      dup5\n        /* \"#utility.yul\":2775:2781   */\n      dup3\n        /* \"#utility.yul\":2768:2772   */\n      0x20\n        /* \"#utility.yul\":2760:2766   */\n      dup7\n        /* \"#utility.yul\":2756:2773   */\n      add\n        /* \"#utility.yul\":2708:2787   */\n      tag_271\n      jump\t// in\n    tag_372:\n        /* \"#utility.yul\":2699:2787   */\n      swap2\n      pop\n        /* \"#utility.yul\":2515:2793   */\n      pop\n        /* \"#utility.yul\":2453:2793   */\n      swap3\n      swap2\n      pop\n      pop\n      jump\t// out\n        /* \"#utility.yul\":2799:3120   */\n    tag_273:\n        /* \"#utility.yul\":2886:2890   */\n      0x00\n        /* \"#utility.yul\":2976:2994   */\n      0xffffffffffffffff\n        /* \"#utility.yul\":2968:2974   */\n      dup3\n        /* \"#utility.yul\":2965:2995   */\n      gt\n        /* \"#utility.yul\":2962:3018   */\n      iszero\n      tag_374\n      jumpi\n        /* \"#utility.yul\":2998:3016   */\n      tag_375\n      tag_263\n      jump\t// in\n    tag_375:\n        /* \"#utility.yul\":2962:3018   */\n    tag_374:\n        /* \"#utility.yul\":3048:3052   */\n      0x20\n        /* \"#utility.yul\":3040:3046   */\n      dup3\n        /* \"#utility.yul\":3036:3053   */\n      mul\n        /* \"#utility.yul\":3028:3053   */\n      swap1\n      pop\n        /* \"#utility.yul\":3108:3112   */\n      0x20\n        /* \"#utility.yul\":3102:3106   */\n      dup2\n        /* \"#utility.yul\":3098:3113   */\n      add\n        /* \"#utility.yul\":3090:3113   */\n      swap1\n      pop\n        /* \"#utility.yul\":2799:3120   */\n      swap2\n      swap1\n      pop\n      jump\t// out\n        /* \"#utility.yul\":3126:3243   */\n    tag_274:\n        /* \"#utility.yul\":3235:3236   */\n      0x00\n        /* \"#utility.yul\":3232:3233   */\n      dup1\n        /* \"#utility.yul\":3225:3237   */\n      revert\n        /* \"#utility.yul\":3265:4210   */\n    tag_275:\n        /* \"#utility.yul\":3371:3376   */\n      0x00\n        /* \"#utility.yul\":3396:3487   */\n      tag_378\n        /* \"#utility.yul\":3412:3486   */\n      tag_379\n        /* \"#utility.yul\":3479:3485   */\n      dup5\n        /* \"#utility.yul\":3412:3486   */\n      tag_273\n      jump\t// in\n    tag_379:\n        /* \"#utility.yul\":3396:3487   */\n      tag_265\n      jump\t// in\n    tag_378:\n        /* \"#utility.yul\":3387:3487   */\n      swap1\n      pop\n        /* \"#utility.yul\":3507:3512   */\n      dup1\n        /* \"#utility.yul\":3536:3542   */\n      dup4\n        /* \"#utility.yul\":3529:3534   */\n      dup3\n        /* \"#utility.yul\":3522:3543   */\n      mstore\n        /* \"#utility.yul\":3570:3574   */\n      0x20\n        /* \"#utility.yul\":3563:3568   */\n      dup3\n        /* \"#utility.yul\":3559:3575   */\n      add\n        /* \"#utility.yul\":3552:3575   */\n      swap1\n      pop\n        /* \"#utility.yul\":3623:3627   */\n      0x20\n        /* \"#utility.yul\":3615:3621   */\n      dup5\n        /* \"#utility.yul\":3611:3628   */\n      mul\n        /* \"#utility.yul\":3603:3609   */\n      dup4\n        /* \"#utility.yul\":3599:3629   */\n      add\n        /* \"#utility.yul\":3652:3655   */\n      dup6\n        /* \"#utility.yul\":3644:3650   */\n      dup2\n        /* \"#utility.yul\":3641:3656   */\n      gt\n        /* \"#utility.yul\":3638:3760   */\n      iszero\n      tag_380\n      jumpi\n        /* \"#utility.yul\":3671:3750   */\n      tag_381\n      tag_274\n      jump\t// in\n    tag_381:\n        /* \"#utility.yul\":3638:3760   */\n    tag_380:\n        /* \"#utility.yul\":3786:3792   */\n      dup4\n        /* \"#utility.yul\":3769:4204   */\n    tag_382:\n        /* \"#utility.yul\":3803:3809   */\n      dup2\n        /* \"#utility.yul\":3798:3801   */\n      dup2\n        /* \"#utility.yul\":3795:3810   */\n      lt\n        /* \"#utility.yul\":3769:4204   */\n      iszero\n      tag_384\n      jumpi\n        /* \"#utility.yul\":3892:3895   */\n      dup1\n        /* \"#utility.yul\":3879:3896   */\n      calldataload\n        /* \"#utility.yul\":3928:3946   */\n      0xffffffffffffffff\n        /* \"#utility.yul\":3915:3926   */\n      dup2\n        /* \"#utility.yul\":3912:3947   */\n      gt\n        /* \"#utility.yul\":3909:4031   */\n      iszero\n      tag_385\n      jumpi\n        /* \"#utility.yul\":3950:4029   */\n      tag_386\n      tag_267\n      jump\t// in\n    tag_386:\n        /* \"#utility.yul\":3909:4031   */\n    tag_385:\n        /* \"#utility.yul\":4074:4085   */\n      dup1\n        /* \"#utility.yul\":4066:4072   */\n      dup7\n        /* \"#utility.yul\":4062:4086   */\n      add\n        /* \"#utility.yul\":4112:4159   */\n      tag_387\n        /* \"#utility.yul\":4155:4158   */\n      dup10\n        /* \"#utility.yul\":4143:4153   */\n      dup3\n        /* \"#utility.yul\":4112:4159   */\n      tag_272\n      jump\t// in\n    tag_387:\n        /* \"#utility.yul\":4107:4110   */\n      dup6\n        /* \"#utility.yul\":4100:4160   */\n      mstore\n        /* \"#utility.yul\":4189:4193   */\n      0x20\n        /* \"#utility.yul\":4184:4187   */\n      dup6\n        /* \"#utility.yul\":4180:4194   */\n      add\n        /* \"#utility.yul\":4173:4194   */\n      swap5\n      pop\n        /* \"#utility.yul\":3845:4204   */\n      pop\n      pop\n        /* \"#utility.yul\":3829:3833   */\n      0x20\n        /* \"#utility.yul\":3824:3827   */\n      dup2\n        /* \"#utility.yul\":3820:3834   */\n      add\n        /* \"#utility.yul\":3813:3834   */\n      swap1\n      pop\n        /* \"#utility.yul\":3769:4204   */\n      jump(tag_382)\n    tag_384:\n        /* \"#utility.yul\":3773:3794   */\n      pop\n        /* \"#utility.yul\":3377:4210   */\n      pop\n      pop\n        /* \"#utility.yul\":3265:4210   */\n      swap4\n      swap3\n      pop\n      pop\n      pop\n      jump\t// out\n        /* \"#utility.yul\":4232:4622   */\n    tag_276:\n        /* \"#utility.yul\":4313:4318   */\n      0x00\n        /* \"#utility.yul\":4362:4365   */\n      dup3\n        /* \"#utility.yul\":4355:4359   */\n      0x1f\n        /* \"#utility.yul\":4347:4353   */\n      dup4\n        /* \"#utility.yul\":4343:4360   */\n      add\n        /* \"#utility.yul\":4339:4366   */\n      slt\n        /* \"#utility.yul\":4329:4451   */\n      tag_389\n      jumpi\n        /* \"#utility.yul\":4370:4449   */\n      tag_390\n      tag_267\n      jump\t// in\n    tag_390:\n        /* \"#utility.yul\":4329:4451   */\n    tag_389:\n        /* \"#utility.yul\":4487:4493   */\n      dup2\n        /* \"#utility.yul\":4474:4494   */\n      calldataload\n        /* \"#utility.yul\":4512:4616   */\n      tag_391\n        /* \"#utility.yul\":4612:4615   */\n      dup5\n        /* \"#utility.yul\":4604:4610   */\n      dup3\n        /* \"#utility.yul\":4597:4601   */\n      0x20\n        /* \"#utility.yul\":4589:4595   */\n      dup7\n        /* \"#utility.yul\":4585:4602   */\n      add\n        /* \"#utility.yul\":4512:4616   */\n      tag_275\n      jump\t// in\n    tag_391:\n        /* \"#utility.yul\":4503:4616   */\n      swap2\n      pop\n        /* \"#utility.yul\":4319:4622   */\n      pop\n        /* \"#utility.yul\":4232:4622   */\n      swap3\n      swap2\n      pop\n      pop\n      jump\t// out\n        /* \"#utility.yul\":4628:4938   */\n    tag_277:\n        /* \"#utility.yul\":4704:4708   */\n      0x00\n        /* \"#utility.yul\":4794:4812   */\n      0xffffffffffffffff\n        /* \"#utility.yul\":4786:4792   */\n      dup3\n        /* \"#utility.yul\":4783:4813   */\n      gt\n        /* \"#utility.yul\":4780:4836   */\n      iszero\n      tag_393\n      jumpi\n        /* \"#utility.yul\":4816:4834   */\n      tag_394\n      tag_263\n      jump\t// in\n    tag_394:\n        /* \"#utility.yul\":4780:4836   */\n    tag_393:\n        /* \"#utility.yul\":4866:4870   */\n      0x20\n        /* \"#utility.yul\":4858:4864   */\n      dup3\n        /* \"#utility.yul\":4854:4871   */\n      mul\n        /* \"#utility.yul\":4846:4871   */\n      swap1\n      pop\n        /* \"#utility.yul\":4926:4930   */\n      0x20\n        /* \"#utility.yul\":4920:4924   */\n      dup2\n        /* \"#utility.yul\":4916:4931   */\n      add\n        /* \"#utility.yul\":4908:4931   */\n      swap1\n      pop\n        /* \"#utility.yul\":4628:4938   */\n      swap2\n      swap1\n      pop\n      jump\t// out\n        /* \"#utility.yul\":4944:5020   */\n    tag_278:\n        /* \"#utility.yul\":4980:4987   */\n      0x00\n        /* \"#utility.yul\":5009:5014   */\n      dup2\n        /* \"#utility.yul\":4998:5014   */\n      swap1\n      pop\n        /* \"#utility.yul\":4944:5020   */\n      swap2\n      swap1\n      pop\n      jump\t// out\n        /* \"#utility.yul\":5026:5146   */\n    tag_279:\n        /* \"#utility.yul\":5098:5121   */\n      tag_397\n        /* \"#utility.yul\":5115:5120   */\n      dup2\n        /* \"#utility.yul\":5098:5121   */\n      tag_278\n      jump\t// in\n    tag_397:\n        /* \"#utility.yul\":5091:5096   */\n      dup2\n        /* \"#utility.yul\":5088:5122   */\n      eq\n        /* \"#utility.yul\":5078:5140   */\n      tag_398\n      jumpi\n        /* \"#utility.yul\":5136:5137   */\n      0x00\n        /* \"#utility.yul\":5133:5134   */\n      dup1\n        /* \"#utility.yul\":5126:5138   */\n      revert\n        /* \"#utility.yul\":5078:5140   */\n    tag_398:\n        /* \"#utility.yul\":5026:5146   */\n      pop\n      jump\t// out\n        /* \"#utility.yul\":5152:5289   */\n    tag_280:\n        /* \"#utility.yul\":5197:5202   */\n      0x00\n        /* \"#utility.yul\":5235:5241   */\n      dup2\n        /* \"#utility.yul\":5222:5242   */\n      calldataload\n        /* \"#utility.yul\":5213:5242   */\n      swap1\n      pop\n        /* \"#utility.yul\":5251:5283   */\n      tag_400\n        /* \"#utility.yul\":5277:5282   */\n      dup2\n        /* \"#utility.yul\":5251:5283   */\n      tag_279\n      jump\t// in\n    tag_400:\n        /* \"#utility.yul\":5152:5289   */\n      swap3\n      swap2\n      pop\n      pop\n      jump\t// out\n        /* \"#utility.yul\":5311:6018   */\n    tag_281:\n        /* \"#utility.yul\":5406:5411   */\n      0x00\n        /* \"#utility.yul\":5431:5511   */\n      tag_402\n        /* \"#utility.yul\":5447:5510   */\n      tag_403\n        /* \"#utility.yul\":5503:5509   */\n      dup5\n        /* \"#utility.yul\":5447:5510   */\n      tag_277\n      jump\t// in\n    tag_403:\n        /* \"#utility.yul\":5431:5511   */\n      tag_265\n      jump\t// in\n    tag_402:\n        /* \"#utility.yul\":5422:5511   */\n      swap1\n      pop\n        /* \"#utility.yul\":5531:5536   */\n      dup1\n        /* \"#utility.yul\":5560:5566   */\n      dup4\n        /* \"#utility.yul\":5553:5558   */\n      dup3\n        /* \"#utility.yul\":5546:5567   */\n      mstore\n        /* \"#utility.yul\":5594:5598   */\n      0x20\n        /* \"#utility.yul\":5587:5592   */\n      dup3\n        /* \"#utility.yul\":5583:5599   */\n      add\n        /* \"#utility.yul\":5576:5599   */\n      swap1\n      pop\n        /* \"#utility.yul\":5647:5651   */\n      0x20\n        /* \"#utility.yul\":5639:5645   */\n      dup5\n        /* \"#utility.yul\":5635:5652   */\n      mul\n        /* \"#utility.yul\":5627:5633   */\n      dup4\n        /* \"#utility.yul\":5623:5653   */\n      add\n        /* \"#utility.yul\":5676:5679   */\n      dup6\n        /* \"#utility.yul\":5668:5674   */\n      dup2\n        /* \"#utility.yul\":5665:5680   */\n      gt\n        /* \"#utility.yul\":5662:5784   */\n      iszero\n      tag_404\n      jumpi\n        /* \"#utility.yul\":5695:5774   */\n      tag_405\n      tag_274\n      jump\t// in\n    tag_405:\n        /* \"#utility.yul\":5662:5784   */\n    tag_404:\n        /* \"#utility.yul\":5810:5816   */\n      dup4\n        /* \"#utility.yul\":5793:6012   */\n    tag_406:\n        /* \"#utility.yul\":5827:5833   */\n      dup2\n        /* \"#utility.yul\":5822:5825   */\n      dup2\n        /* \"#utility.yul\":5819:5834   */\n      lt\n        /* \"#utility.yul\":5793:6012   */\n      iszero\n      tag_408\n      jumpi\n        /* \"#utility.yul\":5902:5905   */\n      dup1\n        /* \"#utility.yul\":5931:5967   */\n      tag_409\n        /* \"#utility.yul\":5963:5966   */\n      dup9\n        /* \"#utility.yul\":5951:5961   */\n      dup3\n        /* \"#utility.yul\":5931:5967   */\n      tag_280\n      jump\t// in\n    tag_409:\n        /* \"#utility.yul\":5926:5929   */\n      dup5\n        /* \"#utility.yul\":5919:5968   */\n      mstore\n        /* \"#utility.yul\":5997:6001   */\n      0x20\n        /* \"#utility.yul\":5992:5995   */\n      dup5\n        /* \"#utility.yul\":5988:6002   */\n      add\n        /* \"#utility.yul\":5981:6002   */\n      swap4\n      pop\n        /* \"#utility.yul\":5869:6012   */\n      pop\n        /* \"#utility.yul\":5853:5857   */\n      0x20\n        /* \"#utility.yul\":5848:5851   */\n      dup2\n        /* \"#utility.yul\":5844:5858   */\n      add\n        /* \"#utility.yul\":5837:5858   */\n      swap1\n      pop\n        /* \"#utility.yul\":5793:6012   */\n      jump(tag_406)\n    tag_408:\n        /* \"#utility.yul\":5797:5818   */\n      pop\n        /* \"#utility.yul\":5412:6018   */\n      pop\n      pop\n        /* \"#utility.yul\":5311:6018   */\n      swap4\n      swap3\n      pop\n      pop\n      pop\n      jump\t// out\n        /* \"#utility.yul\":6040:6408   */\n    tag_282:\n        /* \"#utility.yul\":6110:6115   */\n      0x00\n        /* \"#utility.yul\":6159:6162   */\n      dup3\n        /* \"#utility.yul\":6152:6156   */\n      0x1f\n        /* \"#utility.yul\":6144:6150   */\n      dup4\n        /* \"#utility.yul\":6140:6157   */\n      add\n        /* \"#utility.yul\":6136:6163   */\n      slt\n        /* \"#utility.yul\":6126:6248   */\n      tag_411\n      jumpi\n        /* \"#utility.yul\":6167:6246   */\n      tag_412\n      tag_267\n      jump\t// in\n    tag_412:\n        /* \"#utility.yul\":6126:6248   */\n    tag_411:\n        /* \"#utility.yul\":6284:6290   */\n      dup2\n        /* \"#utility.yul\":6271:6291   */\n      calldataload\n        /* \"#utility.yul\":6309:6402   */\n      tag_413\n        /* \"#utility.yul\":6398:6401   */\n      dup5\n        /* \"#utility.yul\":6390:6396   */\n      dup3\n        /* \"#utility.yul\":6383:6387   */\n      0x20\n        /* \"#utility.yul\":6375:6381   */\n      dup7\n        /* \"#utility.yul\":6371:6388   */\n      add\n        /* \"#utility.yul\":6309:6402   */\n      tag_281\n      jump\t// in\n    tag_413:\n        /* \"#utility.yul\":6300:6402   */\n      swap2\n      pop\n        /* \"#utility.yul\":6116:6408   */\n      pop\n        /* \"#utility.yul\":6040:6408   */\n      swap3\n      swap2\n      pop\n      pop\n      jump\t// out\n        /* \"#utility.yul\":6439:10070   */\n    tag_283:\n        /* \"#utility.yul\":6506:6511   */\n      0x00\n        /* \"#utility.yul\":6550:6556   */\n      0x0140\n        /* \"#utility.yul\":6538:6547   */\n      dup3\n        /* \"#utility.yul\":6533:6536   */\n      dup5\n        /* \"#utility.yul\":6529:6548   */\n      sub\n        /* \"#utility.yul\":6525:6557   */\n      slt\n        /* \"#utility.yul\":6522:6641   */\n      iszero\n      tag_415\n      jumpi\n        /* \"#utility.yul\":6560:6639   */\n      tag_416\n      tag_261\n      jump\t// in\n    tag_416:\n        /* \"#utility.yul\":6522:6641   */\n    tag_415:\n        /* \"#utility.yul\":6659:6682   */\n      tag_417\n        /* \"#utility.yul\":6675:6681   */\n      0x0140\n        /* \"#utility.yul\":6659:6682   */\n      tag_265\n      jump\t// in\n    tag_417:\n        /* \"#utility.yul\":6650:6682   */\n      swap1\n      pop\n        /* \"#utility.yul\":6772:6773   */\n      0x00\n        /* \"#utility.yul\":6761:6770   */\n      dup3\n        /* \"#utility.yul\":6757:6774   */\n      add\n        /* \"#utility.yul\":6744:6775   */\n      calldataload\n        /* \"#utility.yul\":6802:6820   */\n      0xffffffffffffffff\n        /* \"#utility.yul\":6794:6800   */\n      dup2\n        /* \"#utility.yul\":6791:6821   */\n      gt\n        /* \"#utility.yul\":6788:6905   */\n      iszero\n      tag_418\n      jumpi\n        /* \"#utility.yul\":6824:6903   */\n      tag_419\n      tag_266\n      jump\t// in\n    tag_419:\n        /* \"#utility.yul\":6788:6905   */\n    tag_418:\n        /* \"#utility.yul\":6944:7003   */\n      tag_420\n        /* \"#utility.yul\":6999:7002   */\n      dup5\n        /* \"#utility.yul\":6990:6996   */\n      dup3\n        /* \"#utility.yul\":6979:6988   */\n      dup6\n        /* \"#utility.yul\":6975:6997   */\n      add\n        /* \"#utility.yul\":6944:7003   */\n      tag_272\n      jump\t// in\n    tag_420:\n        /* \"#utility.yul\":6937:6941   */\n      0x00\n        /* \"#utility.yul\":6930:6935   */\n      dup4\n        /* \"#utility.yul\":6926:6942   */\n      add\n        /* \"#utility.yul\":6919:7004   */\n      mstore\n        /* \"#utility.yul\":6692:7015   */\n      pop\n        /* \"#utility.yul\":7102:7104   */\n      0x20\n        /* \"#utility.yul\":7091:7100   */\n      dup3\n        /* \"#utility.yul\":7087:7105   */\n      add\n        /* \"#utility.yul\":7074:7106   */\n      calldataload\n        /* \"#utility.yul\":7133:7151   */\n      0xffffffffffffffff\n        /* \"#utility.yul\":7125:7131   */\n      dup2\n        /* \"#utility.yul\":7122:7152   */\n      gt\n        /* \"#utility.yul\":7119:7236   */\n      iszero\n      tag_421\n      jumpi\n        /* \"#utility.yul\":7155:7234   */\n      tag_422\n      tag_266\n      jump\t// in\n    tag_422:\n        /* \"#utility.yul\":7119:7236   */\n    tag_421:\n        /* \"#utility.yul\":7275:7359   */\n      tag_423\n        /* \"#utility.yul\":7355:7358   */\n      dup5\n        /* \"#utility.yul\":7346:7352   */\n      dup3\n        /* \"#utility.yul\":7335:7344   */\n      dup6\n        /* \"#utility.yul\":7331:7353   */\n      add\n        /* \"#utility.yul\":7275:7359   */\n      tag_276\n      jump\t// in\n    tag_423:\n        /* \"#utility.yul\":7268:7272   */\n      0x20\n        /* \"#utility.yul\":7261:7266   */\n      dup4\n        /* \"#utility.yul\":7257:7273   */\n      add\n        /* \"#utility.yul\":7250:7360   */\n      mstore\n        /* \"#utility.yul\":7025:7371   */\n      pop\n        /* \"#utility.yul\":7462:7464   */\n      0x40\n        /* \"#utility.yul\":7451:7460   */\n      dup3\n        /* \"#utility.yul\":7447:7465   */\n      add\n        /* \"#utility.yul\":7434:7466   */\n      calldataload\n        /* \"#utility.yul\":7493:7511   */\n      0xffffffffffffffff\n        /* \"#utility.yul\":7485:7491   */\n      dup2\n        /* \"#utility.yul\":7482:7512   */\n      gt\n        /* \"#utility.yul\":7479:7596   */\n      iszero\n      tag_424\n      jumpi\n        /* \"#utility.yul\":7515:7594   */\n      tag_425\n      tag_266\n      jump\t// in\n    tag_425:\n        /* \"#utility.yul\":7479:7596   */\n    tag_424:\n        /* \"#utility.yul\":7635:7708   */\n      tag_426\n        /* \"#utility.yul\":7704:7707   */\n      dup5\n        /* \"#utility.yul\":7695:7701   */\n      dup3\n        /* \"#utility.yul\":7684:7693   */\n      dup6\n        /* \"#utility.yul\":7680:7702   */\n      add\n        /* \"#utility.yul\":7635:7708   */\n      tag_282\n      jump\t// in\n    tag_426:\n        /* \"#utility.yul\":7628:7632   */\n      0x40\n        /* \"#utility.yul\":7621:7626   */\n      dup4\n        /* \"#utility.yul\":7617:7633   */\n      add\n        /* \"#utility.yul\":7610:7709   */\n      mstore\n        /* \"#utility.yul\":7381:7720   */\n      pop\n        /* \"#utility.yul\":7807:7809   */\n      0x60\n        /* \"#utility.yul\":7796:7805   */\n      dup3\n        /* \"#utility.yul\":7792:7810   */\n      add\n        /* \"#utility.yul\":7779:7811   */\n      calldataload\n        /* \"#utility.yul\":7838:7856   */\n      0xffffffffffffffff\n        /* \"#utility.yul\":7830:7836   */\n      dup2\n        /* \"#utility.yul\":7827:7857   */\n      gt\n        /* \"#utility.yul\":7824:7941   */\n      iszero\n      tag_427\n      jumpi\n        /* \"#utility.yul\":7860:7939   */\n      tag_428\n      tag_266\n      jump\t// in\n    tag_428:\n        /* \"#utility.yul\":7824:7941   */\n    tag_427:\n        /* \"#utility.yul\":7980:8039   */\n      tag_429\n        /* \"#utility.yul\":8035:8038   */\n      dup5\n        /* \"#utility.yul\":8026:8032   */\n      dup3\n        /* \"#utility.yul\":8015:8024   */\n      dup6\n        /* \"#utility.yul\":8011:8033   */\n      add\n        /* \"#utility.yul\":7980:8039   */\n      tag_272\n      jump\t// in\n    tag_429:\n        /* \"#utility.yul\":7973:7977   */\n      0x60\n        /* \"#utility.yul\":7966:7971   */\n      dup4\n        /* \"#utility.yul\":7962:7978   */\n      add\n        /* \"#utility.yul\":7955:8040   */\n      mstore\n        /* \"#utility.yul\":7730:8051   */\n      pop\n        /* \"#utility.yul\":8140:8143   */\n      0x80\n        /* \"#utility.yul\":8129:8138   */\n      dup3\n        /* \"#utility.yul\":8125:8144   */\n      add\n        /* \"#utility.yul\":8112:8145   */\n      calldataload\n        /* \"#utility.yul\":8172:8190   */\n      0xffffffffffffffff\n        /* \"#utility.yul\":8164:8170   */\n      dup2\n        /* \"#utility.yul\":8161:8191   */\n      gt\n        /* \"#utility.yul\":8158:8275   */\n      iszero\n      tag_430\n      jumpi\n        /* \"#utility.yul\":8194:8273   */\n      tag_431\n      tag_266\n      jump\t// in\n    tag_431:\n        /* \"#utility.yul\":8158:8275   */\n    tag_430:\n        /* \"#utility.yul\":8314:8373   */\n      tag_432\n        /* \"#utility.yul\":8369:8372   */\n      dup5\n        /* \"#utility.yul\":8360:8366   */\n      dup3\n        /* \"#utility.yul\":8349:8358   */\n      dup6\n        /* \"#utility.yul\":8345:8367   */\n      add\n        /* \"#utility.yul\":8314:8373   */\n      tag_272\n      jump\t// in\n    tag_432:\n        /* \"#utility.yul\":8307:8311   */\n      0x80\n        /* \"#utility.yul\":8300:8305   */\n      dup4\n        /* \"#utility.yul\":8296:8312   */\n      add\n        /* \"#utility.yul\":8289:8374   */\n      mstore\n        /* \"#utility.yul\":8061:8385   */\n      pop\n        /* \"#utility.yul\":8473:8476   */\n      0xa0\n        /* \"#utility.yul\":8462:8471   */\n      dup3\n        /* \"#utility.yul\":8458:8477   */\n      add\n        /* \"#utility.yul\":8445:8478   */\n      calldataload\n        /* \"#utility.yul\":8505:8523   */\n      0xffffffffffffffff\n        /* \"#utility.yul\":8497:8503   */\n      dup2\n        /* \"#utility.yul\":8494:8524   */\n      gt\n        /* \"#utility.yul\":8491:8608   */\n      iszero\n      tag_433\n      jumpi\n        /* \"#utility.yul\":8527:8606   */\n      tag_434\n      tag_266\n      jump\t// in\n    tag_434:\n        /* \"#utility.yul\":8491:8608   */\n    tag_433:\n        /* \"#utility.yul\":8647:8720   */\n      tag_435\n        /* \"#utility.yul\":8716:8719   */\n      dup5\n        /* \"#utility.yul\":8707:8713   */\n      dup3\n        /* \"#utility.yul\":8696:8705   */\n      dup6\n        /* \"#utility.yul\":8692:8714   */\n      add\n        /* \"#utility.yul\":8647:8720   */\n      tag_282\n      jump\t// in\n    tag_435:\n        /* \"#utility.yul\":8640:8644   */\n      0xa0\n        /* \"#utility.yul\":8633:8638   */\n      dup4\n        /* \"#utility.yul\":8629:8645   */\n      add\n        /* \"#utility.yul\":8622:8721   */\n      mstore\n        /* \"#utility.yul\":8395:8732   */\n      pop\n        /* \"#utility.yul\":8817:8820   */\n      0xc0\n        /* \"#utility.yul\":8806:8815   */\n      dup3\n        /* \"#utility.yul\":8802:8821   */\n      add\n        /* \"#utility.yul\":8789:8822   */\n      calldataload\n        /* \"#utility.yul\":8849:8867   */\n      0xffffffffffffffff\n        /* \"#utility.yul\":8841:8847   */\n      dup2\n        /* \"#utility.yul\":8838:8868   */\n      gt\n        /* \"#utility.yul\":8835:8952   */\n      iszero\n      tag_436\n      jumpi\n        /* \"#utility.yul\":8871:8950   */\n      tag_437\n      tag_266\n      jump\t// in\n    tag_437:\n        /* \"#utility.yul\":8835:8952   */\n    tag_436:\n        /* \"#utility.yul\":8991:9050   */\n      tag_438\n        /* \"#utility.yul\":9046:9049   */\n      dup5\n        /* \"#utility.yul\":9037:9043   */\n      dup3\n        /* \"#utility.yul\":9026:9035   */\n      dup6\n        /* \"#utility.yul\":9022:9044   */\n      add\n        /* \"#utility.yul\":8991:9050   */\n      tag_272\n      jump\t// in\n    tag_438:\n        /* \"#utility.yul\":8984:8988   */\n      0xc0\n        /* \"#utility.yul\":8977:8982   */\n      dup4\n        /* \"#utility.yul\":8973:8989   */\n      add\n        /* \"#utility.yul\":8966:9051   */\n      mstore\n        /* \"#utility.yul\":8742:9062   */\n      pop\n        /* \"#utility.yul\":9147:9150   */\n      0xe0\n        /* \"#utility.yul\":9136:9145   */\n      dup3\n        /* \"#utility.yul\":9132:9151   */\n      add\n        /* \"#utility.yul\":9119:9152   */\n      calldataload\n        /* \"#utility.yul\":9179:9197   */\n      0xffffffffffffffff\n        /* \"#utility.yul\":9171:9177   */\n      dup2\n        /* \"#utility.yul\":9168:9198   */\n      gt\n        /* \"#utility.yul\":9165:9282   */\n      iszero\n      tag_439\n      jumpi\n        /* \"#utility.yul\":9201:9280   */\n      tag_440\n      tag_266\n      jump\t// in\n    tag_440:\n        /* \"#utility.yul\":9165:9282   */\n    tag_439:\n        /* \"#utility.yul\":9321:9380   */\n      tag_441\n        /* \"#utility.yul\":9376:9379   */\n      dup5\n        /* \"#utility.yul\":9367:9373   */\n      dup3\n        /* \"#utility.yul\":9356:9365   */\n      dup6\n        /* \"#utility.yul\":9352:9374   */\n      add\n        /* \"#utility.yul\":9321:9380   */\n      tag_272\n      jump\t// in\n    tag_441:\n        /* \"#utility.yul\":9314:9318   */\n      0xe0\n        /* \"#utility.yul\":9307:9312   */\n      dup4\n        /* \"#utility.yul\":9303:9319   */\n      add\n        /* \"#utility.yul\":9296:9381   */\n      mstore\n        /* \"#utility.yul\":9072:9392   */\n      pop\n        /* \"#utility.yul\":9481:9484   */\n      0x0100\n        /* \"#utility.yul\":9470:9479   */\n      dup3\n        /* \"#utility.yul\":9466:9485   */\n      add\n        /* \"#utility.yul\":9453:9486   */\n      calldataload\n        /* \"#utility.yul\":9513:9531   */\n      0xffffffffffffffff\n        /* \"#utility.yul\":9505:9511   */\n      dup2\n        /* \"#utility.yul\":9502:9532   */\n      gt\n        /* \"#utility.yul\":9499:9616   */\n      iszero\n      tag_442\n      jumpi\n        /* \"#utility.yul\":9535:9614   */\n      tag_443\n      tag_266\n      jump\t// in\n    tag_443:\n        /* \"#utility.yul\":9499:9616   */\n    tag_442:\n        /* \"#utility.yul\":9657:9716   */\n      tag_444\n        /* \"#utility.yul\":9712:9715   */\n      dup5\n        /* \"#utility.yul\":9703:9709   */\n      dup3\n        /* \"#utility.yul\":9692:9701   */\n      dup6\n        /* \"#utility.yul\":9688:9710   */\n      add\n        /* \"#utility.yul\":9657:9716   */\n      tag_272\n      jump\t// in\n    tag_444:\n        /* \"#utility.yul\":9648:9654   */\n      0x0100\n        /* \"#utility.yul\":9641:9646   */\n      dup4\n        /* \"#utility.yul\":9637:9655   */\n      add\n        /* \"#utility.yul\":9630:9717   */\n      mstore\n        /* \"#utility.yul\":9402:9728   */\n      pop\n        /* \"#utility.yul\":9816:9819   */\n      0x0120\n        /* \"#utility.yul\":9805:9814   */\n      dup3\n        /* \"#utility.yul\":9801:9820   */\n      add\n        /* \"#utility.yul\":9788:9821   */\n      calldataload\n        /* \"#utility.yul\":9848:9866   */\n      0xffffffffffffffff\n        /* \"#utility.yul\":9840:9846   */\n      dup2\n        /* \"#utility.yul\":9837:9867   */\n      gt\n        /* \"#utility.yul\":9834:9951   */\n      iszero\n      tag_445\n      jumpi\n        /* \"#utility.yul\":9870:9949   */\n      tag_446\n      tag_266\n      jump\t// in\n    tag_446:\n        /* \"#utility.yul\":9834:9951   */\n    tag_445:\n        /* \"#utility.yul\":9992:10051   */\n      tag_447\n        /* \"#utility.yul\":10047:10050   */\n      dup5\n        /* \"#utility.yul\":10038:10044   */\n      dup3\n        /* \"#utility.yul\":10027:10036   */\n      dup6\n        /* \"#utility.yul\":10023:10045   */\n      add\n        /* \"#utility.yul\":9992:10051   */\n      tag_272\n      jump\t// in\n    tag_447:\n        /* \"#utility.yul\":9983:9989   */\n      0x0120\n        /* \"#utility.yul\":9976:9981   */\n      dup4\n        /* \"#utility.yul\":9972:9990   */\n      add\n        /* \"#utility.yul\":9965:10052   */\n      mstore\n        /* \"#utility.yul\":9738:10063   */\n      pop\n        /* \"#utility.yul\":6439:10070   */\n      swap3\n      swap2\n      pop\n      pop\n      jump\t// out\n        /* \"#utility.yul\":10076:10601   */\n    tag_14:\n        /* \"#utility.yul\":10153:10159   */\n      0x00\n        /* \"#utility.yul\":10202:10204   */\n      0x20\n        /* \"#utility.yul\":10190:10199   */\n      dup3\n        /* \"#utility.yul\":10181:10188   */\n      dup5\n        /* \"#utility.yul\":10177:10200   */\n      sub\n        /* \"#utility.yul\":10173:10205   */\n      slt\n        /* \"#utility.yul\":10170:10289   */\n      iszero\n      tag_449\n      jumpi\n        /* \"#utility.yul\":10208:10287   */\n      tag_450\n      tag_259\n      jump\t// in\n    tag_450:\n        /* \"#utility.yul\":10170:10289   */\n    tag_449:\n        /* \"#utility.yul\":10356:10357   */\n      0x00\n        /* \"#utility.yul\":10345:10354   */\n      dup3\n        /* \"#utility.yul\":10341:10358   */\n      add\n        /* \"#utility.yul\":10328:10359   */\n      calldataload\n        /* \"#utility.yul\":10386:10404   */\n      0xffffffffffffffff\n        /* \"#utility.yul\":10378:10384   */\n      dup2\n        /* \"#utility.yul\":10375:10405   */\n      gt\n        /* \"#utility.yul\":10372:10489   */\n      iszero\n      tag_451\n      jumpi\n        /* \"#utility.yul\":10408:10487   */\n      tag_452\n      tag_260\n      jump\t// in\n    tag_452:\n        /* \"#utility.yul\":10372:10489   */\n    tag_451:\n        /* \"#utility.yul\":10513:10584   */\n      tag_453\n        /* \"#utility.yul\":10576:10583   */\n      dup5\n        /* \"#utility.yul\":10567:10573   */\n      dup3\n        /* \"#utility.yul\":10556:10565   */\n      dup6\n        /* \"#utility.yul\":10552:10574   */\n      add\n        /* \"#utility.yul\":10513:10584   */\n      tag_283\n      jump\t// in\n    tag_453:\n        /* \"#utility.yul\":10503:10584   */\n      swap2\n      pop\n        /* \"#utility.yul\":10299:10594   */\n      pop\n        /* \"#utility.yul\":10076:10601   */\n      swap3\n      swap2\n      pop\n      pop\n      jump\t// out\n        /* \"#utility.yul\":10607:12496   */\n    tag_18:\n        /* \"#utility.yul\":10791:10797   */\n      0x00\n        /* \"#utility.yul\":10799:10805   */\n      dup1\n        /* \"#utility.yul\":10807:10813   */\n      0x00\n        /* \"#utility.yul\":10815:10821   */\n      dup1\n        /* \"#utility.yul\":10823:10829   */\n      0x00\n        /* \"#utility.yul\":10872:10875   */\n      0xa0\n        /* \"#utility.yul\":10860:10869   */\n      dup7\n        /* \"#utility.yul\":10851:10858   */\n      dup9\n        /* \"#utility.yul\":10847:10870   */\n      sub\n        /* \"#utility.yul\":10843:10876   */\n      slt\n        /* \"#utility.yul\":10840:10960   */\n      iszero\n      tag_455\n      jumpi\n        /* \"#utility.yul\":10879:10958   */\n      tag_456\n      tag_259\n      jump\t// in\n    tag_456:\n        /* \"#utility.yul\":10840:10960   */\n    tag_455:\n        /* \"#utility.yul\":11027:11028   */\n      0x00\n        /* \"#utility.yul\":11016:11025   */\n      dup7\n        /* \"#utility.yul\":11012:11029   */\n      add\n        /* \"#utility.yul\":10999:11030   */\n      calldataload\n        /* \"#utility.yul\":11057:11075   */\n      0xffffffffffffffff\n        /* \"#utility.yul\":11049:11055   */\n      dup2\n        /* \"#utility.yul\":11046:11076   */\n      gt\n        /* \"#utility.yul\":11043:11160   */\n      iszero\n      tag_457\n      jumpi\n        /* \"#utility.yul\":11079:11158   */\n      tag_458\n      tag_260\n      jump\t// in\n    tag_458:\n        /* \"#utility.yul\":11043:11160   */\n    tag_457:\n        /* \"#utility.yul\":11184:11247   */\n      tag_459\n        /* \"#utility.yul\":11239:11246   */\n      dup9\n        /* \"#utility.yul\":11230:11236   */\n      dup3\n        /* \"#utility.yul\":11219:11228   */\n      dup10\n        /* \"#utility.yul\":11215:11237   */\n      add\n        /* \"#utility.yul\":11184:11247   */\n      tag_272\n      jump\t// in\n    tag_459:\n        /* \"#utility.yul\":11174:11247   */\n      swap6\n      pop\n        /* \"#utility.yul\":10970:11257   */\n      pop\n        /* \"#utility.yul\":11324:11326   */\n      0x20\n        /* \"#utility.yul\":11313:11322   */\n      dup7\n        /* \"#utility.yul\":11309:11327   */\n      add\n        /* \"#utility.yul\":11296:11328   */\n      calldataload\n        /* \"#utility.yul\":11355:11373   */\n      0xffffffffffffffff\n        /* \"#utility.yul\":11347:11353   */\n      dup2\n        /* \"#utility.yul\":11344:11374   */\n      gt\n        /* \"#utility.yul\":11341:11458   */\n      iszero\n      tag_460\n      jumpi\n        /* \"#utility.yul\":11377:11456   */\n      tag_461\n      tag_260\n      jump\t// in\n    tag_461:\n        /* \"#utility.yul\":11341:11458   */\n    tag_460:\n        /* \"#utility.yul\":11482:11570   */\n      tag_462\n        /* \"#utility.yul\":11562:11569   */\n      dup9\n        /* \"#utility.yul\":11553:11559   */\n      dup3\n        /* \"#utility.yul\":11542:11551   */\n      dup10\n        /* \"#utility.yul\":11538:11560   */\n      add\n        /* \"#utility.yul\":11482:11570   */\n      tag_276\n      jump\t// in\n    tag_462:\n        /* \"#utility.yul\":11472:11570   */\n      swap5\n      pop\n        /* \"#utility.yul\":11267:11580   */\n      pop\n        /* \"#utility.yul\":11647:11649   */\n      0x40\n        /* \"#utility.yul\":11636:11645   */\n      dup7\n        /* \"#utility.yul\":11632:11650   */\n      add\n        /* \"#utility.yul\":11619:11651   */\n      calldataload\n        /* \"#utility.yul\":11678:11696   */\n      0xffffffffffffffff\n        /* \"#utility.yul\":11670:11676   */\n      dup2\n        /* \"#utility.yul\":11667:11697   */\n      gt\n        /* \"#utility.yul\":11664:11781   */\n      iszero\n      tag_463\n      jumpi\n        /* \"#utility.yul\":11700:11779   */\n      tag_464\n      tag_260\n      jump\t// in\n    tag_464:\n        /* \"#utility.yul\":11664:11781   */\n    tag_463:\n        /* \"#utility.yul\":11805:11882   */\n      tag_465\n        /* \"#utility.yul\":11874:11881   */\n      dup9\n        /* \"#utility.yul\":11865:11871   */\n      dup3\n        /* \"#utility.yul\":11854:11863   */\n      dup10\n        /* \"#utility.yul\":11850:11872   */\n      add\n        /* \"#utility.yul\":11805:11882   */\n      tag_282\n      jump\t// in\n    tag_465:\n        /* \"#utility.yul\":11795:11882   */\n      swap4\n      pop\n        /* \"#utility.yul\":11590:11892   */\n      pop\n        /* \"#utility.yul\":11959:11961   */\n      0x60\n        /* \"#utility.yul\":11948:11957   */\n      dup7\n        /* \"#utility.yul\":11944:11962   */\n      add\n        /* \"#utility.yul\":11931:11963   */\n      calldataload\n        /* \"#utility.yul\":11990:12008   */\n      0xffffffffffffffff\n        /* \"#utility.yul\":11982:11988   */\n      dup2\n        /* \"#utility.yul\":11979:12009   */\n      gt\n        /* \"#utility.yul\":11976:12093   */\n      iszero\n      tag_466\n      jumpi\n        /* \"#utility.yul\":12012:12091   */\n      tag_467\n      tag_260\n      jump\t// in\n    tag_467:\n        /* \"#utility.yul\":11976:12093   */\n    tag_466:\n        /* \"#utility.yul\":12117:12180   */\n      tag_468\n        /* \"#utility.yul\":12172:12179   */\n      dup9\n        /* \"#utility.yul\":12163:12169   */\n      dup3\n        /* \"#utility.yul\":12152:12161   */\n      dup10\n        /* \"#utility.yul\":12148:12170   */\n      add\n        /* \"#utility.yul\":12117:12180   */\n      tag_272\n      jump\t// in\n    tag_468:\n        /* \"#utility.yul\":12107:12180   */\n      swap3\n      pop\n        /* \"#utility.yul\":11902:12190   */\n      pop\n        /* \"#utility.yul\":12257:12260   */\n      0x80\n        /* \"#utility.yul\":12246:12255   */\n      dup7\n        /* \"#utility.yul\":12242:12261   */\n      add\n        /* \"#utility.yul\":12229:12262   */\n      calldataload\n        /* \"#utility.yul\":12289:12307   */\n      0xffffffffffffffff\n        /* \"#utility.yul\":12281:12287   */\n      dup2\n        /* \"#utility.yul\":12278:12308   */\n      gt\n        /* \"#utility.yul\":12275:12392   */\n      iszero\n      tag_469\n      jumpi\n        /* \"#utility.yul\":12311:12390   */\n      tag_470\n      tag_260\n      jump\t// in\n    tag_470:\n        /* \"#utility.yul\":12275:12392   */\n    tag_469:\n        /* \"#utility.yul\":12416:12479   */\n      tag_471\n        /* \"#utility.yul\":12471:12478   */\n      dup9\n        /* \"#utility.yul\":12462:12468   */\n      dup3\n        /* \"#utility.yul\":12451:12460   */\n      dup10\n        /* \"#utility.yul\":12447:12469   */\n      add\n        /* \"#utility.yul\":12416:12479   */\n      tag_272\n      jump\t// in\n    tag_471:\n        /* \"#utility.yul\":12406:12479   */\n      swap2\n      pop\n        /* \"#utility.yul\":12200:12489   */\n      pop\n        /* \"#utility.yul\":10607:12496   */\n      swap3\n      swap6\n      pop\n      swap3\n      swap6\n      swap1\n      swap4\n      pop\n      jump\t// out\n        /* \"#utility.yul\":12502:12634   */\n    tag_284:\n        /* \"#utility.yul\":12587:12593   */\n      0x00\n        /* \"#utility.yul\":12621:12626   */\n      dup2\n        /* \"#utility.yul\":12615:12627   */\n      mload\n        /* \"#utility.yul\":12605:12627   */\n      swap1\n      pop\n        /* \"#utility.yul\":12502:12634   */\n      swap2\n      swap1\n      pop\n      jump\t// out\n        /* \"#utility.yul\":12640:12842   */\n    tag_285:\n        /* \"#utility.yul\":12757:12768   */\n      0x00\n        /* \"#utility.yul\":12791:12797   */\n      dup3\n        /* \"#utility.yul\":12786:12789   */\n      dup3\n        /* \"#utility.yul\":12779:12798   */\n      mstore\n        /* \"#utility.yul\":12831:12835   */\n      0x20\n        /* \"#utility.yul\":12826:12829   */\n      dup3\n        /* \"#utility.yul\":12822:12836   */\n      add\n        /* \"#utility.yul\":12807:12836   */\n      swap1\n      pop\n        /* \"#utility.yul\":12640:12842   */\n      swap3\n      swap2\n      pop\n      pop\n      jump\t// out\n        /* \"#utility.yul\":12848:12998   */\n    tag_286:\n        /* \"#utility.yul\":12933:12937   */\n      0x00\n        /* \"#utility.yul\":12956:12959   */\n      dup2\n        /* \"#utility.yul\":12948:12959   */\n      swap1\n      pop\n        /* \"#utility.yul\":12986:12990   */\n      0x20\n        /* \"#utility.yul\":12981:12984   */\n      dup3\n        /* \"#utility.yul\":12977:12991   */\n      add\n        /* \"#utility.yul\":12969:12991   */\n      swap1\n      pop\n        /* \"#utility.yul\":12848:12998   */\n      swap2\n      swap1\n      pop\n      jump\t// out\n        /* \"#utility.yul\":13004:13103   */\n    tag_287:\n        /* \"#utility.yul\":13056:13062   */\n      0x00\n        /* \"#utility.yul\":13090:13095   */\n      dup2\n        /* \"#utility.yul\":13084:13096   */\n      mload\n        /* \"#utility.yul\":13074:13096   */\n      swap1\n      pop\n        /* \"#utility.yul\":13004:13103   */\n      swap2\n      swap1\n      pop\n      jump\t// out\n        /* \"#utility.yul\":13109:13268   */\n    tag_288:\n        /* \"#utility.yul\":13183:13194   */\n      0x00\n        /* \"#utility.yul\":13217:13223   */\n      dup3\n        /* \"#utility.yul\":13212:13215   */\n      dup3\n        /* \"#utility.yul\":13205:13224   */\n      mstore\n        /* \"#utility.yul\":13257:13261   */\n      0x20\n        /* \"#utility.yul\":13252:13255   */\n      dup3\n        /* \"#utility.yul\":13248:13262   */\n      add\n        /* \"#utility.yul\":13233:13262   */\n      swap1\n      pop\n        /* \"#utility.yul\":13109:13268   */\n      swap3\n      swap2\n      pop\n      pop\n      jump\t// out\n        /* \"#utility.yul\":13274:13520   */\n    tag_289:\n        /* \"#utility.yul\":13355:13356   */\n      0x00\n        /* \"#utility.yul\":13365:13478   */\n    tag_478:\n        /* \"#utility.yul\":13379:13385   */\n      dup4\n        /* \"#utility.yul\":13376:13377   */\n      dup2\n        /* \"#utility.yul\":13373:13386   */\n      lt\n        /* \"#utility.yul\":13365:13478   */\n      iszero\n      tag_480\n      jumpi\n        /* \"#utility.yul\":13464:13465   */\n      dup1\n        /* \"#utility.yul\":13459:13462   */\n      dup3\n        /* \"#utility.yul\":13455:13466   */\n      add\n        /* \"#utility.yul\":13449:13467   */\n      mload\n        /* \"#utility.yul\":13445:13446   */\n      dup2\n        /* \"#utility.yul\":13440:13443   */\n      dup5\n        /* \"#utility.yul\":13436:13447   */\n      add\n        /* \"#utility.yul\":13429:13468   */\n      mstore\n        /* \"#utility.yul\":13401:13403   */\n      0x20\n        /* \"#utility.yul\":13398:13399   */\n      dup2\n        /* \"#utility.yul\":13394:13404   */\n      add\n        /* \"#utility.yul\":13389:13404   */\n      swap1\n      pop\n        /* \"#utility.yul\":13365:13478   */\n      jump(tag_478)\n    tag_480:\n        /* \"#utility.yul\":13512:13513   */\n      0x00\n        /* \"#utility.yul\":13503:13509   */\n      dup5\n        /* \"#utility.yul\":13498:13501   */\n      dup5\n        /* \"#utility.yul\":13494:13510   */\n      add\n        /* \"#utility.yul\":13487:13514   */\n      mstore\n        /* \"#utility.yul\":13336:13520   */\n      pop\n        /* \"#utility.yul\":13274:13520   */\n      pop\n      pop\n      pop\n      jump\t// out\n        /* \"#utility.yul\":13526:13883   */\n    tag_290:\n        /* \"#utility.yul\":13604:13607   */\n      0x00\n        /* \"#utility.yul\":13632:13671   */\n      tag_482\n        /* \"#utility.yul\":13665:13670   */\n      dup3\n        /* \"#utility.yul\":13632:13671   */\n      tag_287\n      jump\t// in\n    tag_482:\n        /* \"#utility.yul\":13687:13748   */\n      tag_483\n        /* \"#utility.yul\":13741:13747   */\n      dup2\n        /* \"#utility.yul\":13736:13739   */\n      dup6\n        /* \"#utility.yul\":13687:13748   */\n      tag_288\n      jump\t// in\n    tag_483:\n        /* \"#utility.yul\":13680:13748   */\n      swap4\n      pop\n        /* \"#utility.yul\":13757:13822   */\n      tag_484\n        /* \"#utility.yul\":13815:13821   */\n      dup2\n        /* \"#utility.yul\":13810:13813   */\n      dup6\n        /* \"#utility.yul\":13803:13807   */\n      0x20\n        /* \"#utility.yul\":13796:13801   */\n      dup7\n        /* \"#utility.yul\":13792:13808   */\n      add\n        /* \"#utility.yul\":13757:13822   */\n      tag_289\n      jump\t// in\n    tag_484:\n        /* \"#utility.yul\":13847:13876   */\n      tag_485\n        /* \"#utility.yul\":13869:13875   */\n      dup2\n        /* \"#utility.yul\":13847:13876   */\n      tag_262\n      jump\t// in\n    tag_485:\n        /* \"#utility.yul\":13842:13845   */\n      dup5\n        /* \"#utility.yul\":13838:13877   */\n      add\n        /* \"#utility.yul\":13831:13877   */\n      swap2\n      pop\n        /* \"#utility.yul\":13608:13883   */\n      pop\n        /* \"#utility.yul\":13526:13883   */\n      swap3\n      swap2\n      pop\n      pop\n      jump\t// out\n        /* \"#utility.yul\":13889:14013   */\n    tag_291:\n        /* \"#utility.yul\":13966:13972   */\n      0x00\n        /* \"#utility.yul\":14000:14005   */\n      dup2\n        /* \"#utility.yul\":13994:14006   */\n      mload\n        /* \"#utility.yul\":13984:14006   */\n      swap1\n      pop\n        /* \"#utility.yul\":13889:14013   */\n      swap2\n      swap1\n      pop\n      jump\t// out\n        /* \"#utility.yul\":14019:14203   */\n    tag_292:\n        /* \"#utility.yul\":14118:14129   */\n      0x00\n        /* \"#utility.yul\":14152:14158   */\n      dup3\n        /* \"#utility.yul\":14147:14150   */\n      dup3\n        /* \"#utility.yul\":14140:14159   */\n      mstore\n        /* \"#utility.yul\":14192:14196   */\n      0x20\n        /* \"#utility.yul\":14187:14190   */\n      dup3\n        /* \"#utility.yul\":14183:14197   */\n      add\n        /* \"#utility.yul\":14168:14197   */\n      swap1\n      pop\n        /* \"#utility.yul\":14019:14203   */\n      swap3\n      swap2\n      pop\n      pop\n      jump\t// out\n        /* \"#utility.yul\":14209:14351   */\n    tag_293:\n        /* \"#utility.yul\":14286:14290   */\n      0x00\n        /* \"#utility.yul\":14309:14312   */\n      dup2\n        /* \"#utility.yul\":14301:14312   */\n      swap1\n      pop\n        /* \"#utility.yul\":14339:14343   */\n      0x20\n        /* \"#utility.yul\":14334:14337   */\n      dup3\n        /* \"#utility.yul\":14330:14344   */\n      add\n        /* \"#utility.yul\":14322:14344   */\n      swap1\n      pop\n        /* \"#utility.yul\":14209:14351   */\n      swap2\n      swap1\n      pop\n      jump\t// out\n        /* \"#utility.yul\":14357:14553   */\n    tag_294:\n        /* \"#utility.yul\":14446:14456   */\n      0x00\n        /* \"#utility.yul\":14481:14547   */\n      tag_490\n        /* \"#utility.yul\":14543:14546   */\n      dup4\n        /* \"#utility.yul\":14535:14541   */\n      dup4\n        /* \"#utility.yul\":14481:14547   */\n      tag_290\n      jump\t// in\n    tag_490:\n        /* \"#utility.yul\":14467:14547   */\n      swap1\n      pop\n        /* \"#utility.yul\":14357:14553   */\n      swap3\n      swap2\n      pop\n      pop\n      jump\t// out\n        /* \"#utility.yul\":14559:14682   */\n    tag_295:\n        /* \"#utility.yul\":14639:14643   */\n      0x00\n        /* \"#utility.yul\":14671:14675   */\n      0x20\n        /* \"#utility.yul\":14666:14669   */\n      dup3\n        /* \"#utility.yul\":14662:14676   */\n      add\n        /* \"#utility.yul\":14654:14676   */\n      swap1\n      pop\n        /* \"#utility.yul\":14559:14682   */\n      swap2\n      swap1\n      pop\n      jump\t// out\n        /* \"#utility.yul\":14716:15687   */\n    tag_296:\n        /* \"#utility.yul\":14845:14848   */\n      0x00\n        /* \"#utility.yul\":14874:14938   */\n      tag_493\n        /* \"#utility.yul\":14932:14937   */\n      dup3\n        /* \"#utility.yul\":14874:14938   */\n      tag_291\n      jump\t// in\n    tag_493:\n        /* \"#utility.yul\":14954:15040   */\n      tag_494\n        /* \"#utility.yul\":15033:15039   */\n      dup2\n        /* \"#utility.yul\":15028:15031   */\n      dup6\n        /* \"#utility.yul\":14954:15040   */\n      tag_292\n      jump\t// in\n    tag_494:\n        /* \"#utility.yul\":14947:15040   */\n      swap4\n      pop\n        /* \"#utility.yul\":15066:15069   */\n      dup4\n        /* \"#utility.yul\":15111:15115   */\n      0x20\n        /* \"#utility.yul\":15103:15109   */\n      dup3\n        /* \"#utility.yul\":15099:15116   */\n      mul\n        /* \"#utility.yul\":15094:15097   */\n      dup6\n        /* \"#utility.yul\":15090:15117   */\n      add\n        /* \"#utility.yul\":15141:15207   */\n      tag_495\n        /* \"#utility.yul\":15201:15206   */\n      dup6\n        /* \"#utility.yul\":15141:15207   */\n      tag_293\n      jump\t// in\n    tag_495:\n        /* \"#utility.yul\":15230:15237   */\n      dup1\n        /* \"#utility.yul\":15261:15262   */\n      0x00\n        /* \"#utility.yul\":15246:15642   */\n    tag_496:\n        /* \"#utility.yul\":15271:15277   */\n      dup6\n        /* \"#utility.yul\":15268:15269   */\n      dup2\n        /* \"#utility.yul\":15265:15278   */\n      lt\n        /* \"#utility.yul\":15246:15642   */\n      iszero\n      tag_498\n      jumpi\n        /* \"#utility.yul\":15342:15351   */\n      dup5\n        /* \"#utility.yul\":15336:15340   */\n      dup5\n        /* \"#utility.yul\":15332:15352   */\n      sub\n        /* \"#utility.yul\":15327:15330   */\n      dup10\n        /* \"#utility.yul\":15320:15353   */\n      mstore\n        /* \"#utility.yul\":15393:15399   */\n      dup2\n        /* \"#utility.yul\":15387:15400   */\n      mload\n        /* \"#utility.yul\":15421:15505   */\n      tag_499\n        /* \"#utility.yul\":15500:15504   */\n      dup6\n        /* \"#utility.yul\":15485:15498   */\n      dup3\n        /* \"#utility.yul\":15421:15505   */\n      tag_294\n      jump\t// in\n    tag_499:\n        /* \"#utility.yul\":15413:15505   */\n      swap5\n      pop\n        /* \"#utility.yul\":15528:15598   */\n      tag_500\n        /* \"#utility.yul\":15591:15597   */\n      dup4\n        /* \"#utility.yul\":15528:15598   */\n      tag_295\n      jump\t// in\n    tag_500:\n        /* \"#utility.yul\":15518:15598   */\n      swap3\n      pop\n        /* \"#utility.yul\":15627:15631   */\n      0x20\n        /* \"#utility.yul\":15622:15625   */\n      dup11\n        /* \"#utility.yul\":15618:15632   */\n      add\n        /* \"#utility.yul\":15611:15632   */\n      swap10\n      pop\n        /* \"#utility.yul\":15306:15642   */\n      pop\n        /* \"#utility.yul\":15293:15294   */\n      0x01\n        /* \"#utility.yul\":15290:15291   */\n      dup2\n        /* \"#utility.yul\":15286:15295   */\n      add\n        /* \"#utility.yul\":15281:15295   */\n      swap1\n      pop\n        /* \"#utility.yul\":15246:15642   */\n      jump(tag_496)\n    tag_498:\n        /* \"#utility.yul\":15250:15264   */\n      pop\n        /* \"#utility.yul\":15658:15662   */\n      dup3\n        /* \"#utility.yul\":15651:15662   */\n      swap8\n      pop\n        /* \"#utility.yul\":15678:15681   */\n      dup8\n        /* \"#utility.yul\":15671:15681   */\n      swap6\n      pop\n        /* \"#utility.yul\":14850:15687   */\n      pop\n      pop\n      pop\n      pop\n      pop\n        /* \"#utility.yul\":14716:15687   */\n      swap3\n      swap2\n      pop\n      pop\n      jump\t// out\n        /* \"#utility.yul\":15693:15806   */\n    tag_297:\n        /* \"#utility.yul\":15759:15765   */\n      0x00\n        /* \"#utility.yul\":15793:15798   */\n      dup2\n        /* \"#utility.yul\":15787:15799   */\n      mload\n        /* \"#utility.yul\":15777:15799   */\n      swap1\n      pop\n        /* \"#utility.yul\":15693:15806   */\n      swap2\n      swap1\n      pop\n      jump\t// out\n        /* \"#utility.yul\":15812:15985   */\n    tag_298:\n        /* \"#utility.yul\":15900:15911   */\n      0x00\n        /* \"#utility.yul\":15934:15940   */\n      dup3\n        /* \"#utility.yul\":15929:15932   */\n      dup3\n        /* \"#utility.yul\":15922:15941   */\n      mstore\n        /* \"#utility.yul\":15974:15978   */\n      0x20\n        /* \"#utility.yul\":15969:15972   */\n      dup3\n        /* \"#utility.yul\":15965:15979   */\n      add\n        /* \"#utility.yul\":15950:15979   */\n      swap1\n      pop\n        /* \"#utility.yul\":15812:15985   */\n      swap3\n      swap2\n      pop\n      pop\n      jump\t// out\n        /* \"#utility.yul\":15991:16122   */\n    tag_299:\n        /* \"#utility.yul\":16057:16061   */\n      0x00\n        /* \"#utility.yul\":16080:16083   */\n      dup2\n        /* \"#utility.yul\":16072:16083   */\n      swap1\n      pop\n        /* \"#utility.yul\":16110:16114   */\n      0x20\n        /* \"#utility.yul\":16105:16108   */\n      dup3\n        /* \"#utility.yul\":16101:16115   */\n      add\n        /* \"#utility.yul\":16093:16115   */\n      swap1\n      pop\n        /* \"#utility.yul\":15991:16122   */\n      swap2\n      swap1\n      pop\n      jump\t// out\n        /* \"#utility.yul\":16128:16233   */\n    tag_300:\n        /* \"#utility.yul\":16203:16226   */\n      tag_505\n        /* \"#utility.yul\":16220:16225   */\n      dup2\n        /* \"#utility.yul\":16203:16226   */\n      tag_278\n      jump\t// in\n    tag_505:\n        /* \"#utility.yul\":16198:16201   */\n      dup3\n        /* \"#utility.yul\":16191:16227   */\n      mstore\n        /* \"#utility.yul\":16128:16233   */\n      pop\n      pop\n      jump\t// out\n        /* \"#utility.yul\":16239:16414   */\n    tag_301:\n        /* \"#utility.yul\":16306:16316   */\n      0x00\n        /* \"#utility.yul\":16327:16371   */\n      tag_507\n        /* \"#utility.yul\":16367:16370   */\n      dup4\n        /* \"#utility.yul\":16359:16365   */\n      dup4\n        /* \"#utility.yul\":16327:16371   */\n      tag_300\n      jump\t// in\n    tag_507:\n        /* \"#utility.yul\":16403:16407   */\n      0x20\n        /* \"#utility.yul\":16398:16401   */\n      dup4\n        /* \"#utility.yul\":16394:16408   */\n      add\n        /* \"#utility.yul\":16380:16408   */\n      swap1\n      pop\n        /* \"#utility.yul\":16239:16414   */\n      swap3\n      swap2\n      pop\n      pop\n      jump\t// out\n        /* \"#utility.yul\":16420:16532   */\n    tag_302:\n        /* \"#utility.yul\":16489:16493   */\n      0x00\n        /* \"#utility.yul\":16521:16525   */\n      0x20\n        /* \"#utility.yul\":16516:16519   */\n      dup3\n        /* \"#utility.yul\":16512:16526   */\n      add\n        /* \"#utility.yul\":16504:16526   */\n      swap1\n      pop\n        /* \"#utility.yul\":16420:16532   */\n      swap2\n      swap1\n      pop\n      jump\t// out\n        /* \"#utility.yul\":16566:17270   */\n    tag_303:\n        /* \"#utility.yul\":16673:16676   */\n      0x00\n        /* \"#utility.yul\":16702:16755   */\n      tag_510\n        /* \"#utility.yul\":16749:16754   */\n      dup3\n        /* \"#utility.yul\":16702:16755   */\n      tag_297\n      jump\t// in\n    tag_510:\n        /* \"#utility.yul\":16771:16846   */\n      tag_511\n        /* \"#utility.yul\":16839:16845   */\n      dup2\n        /* \"#utility.yul\":16834:16837   */\n      dup6\n        /* \"#utility.yul\":16771:16846   */\n      tag_298\n      jump\t// in\n    tag_511:\n        /* \"#utility.yul\":16764:16846   */\n      swap4\n      pop\n        /* \"#utility.yul\":16870:16925   */\n      tag_512\n        /* \"#utility.yul\":16919:16924   */\n      dup4\n        /* \"#utility.yul\":16870:16925   */\n      tag_299\n      jump\t// in\n    tag_512:\n        /* \"#utility.yul\":16948:16955   */\n      dup1\n        /* \"#utility.yul\":16979:16980   */\n      0x00\n        /* \"#utility.yul\":16964:17245   */\n    tag_513:\n        /* \"#utility.yul\":16989:16995   */\n      dup4\n        /* \"#utility.yul\":16986:16987   */\n      dup2\n        /* \"#utility.yul\":16983:16996   */\n      lt\n        /* \"#utility.yul\":16964:17245   */\n      iszero\n      tag_515\n      jumpi\n        /* \"#utility.yul\":17065:17071   */\n      dup2\n        /* \"#utility.yul\":17059:17072   */\n      mload\n        /* \"#utility.yul\":17092:17153   */\n      tag_516\n        /* \"#utility.yul\":17149:17152   */\n      dup9\n        /* \"#utility.yul\":17134:17147   */\n      dup3\n        /* \"#utility.yul\":17092:17153   */\n      tag_301\n      jump\t// in\n    tag_516:\n        /* \"#utility.yul\":17085:17153   */\n      swap8\n      pop\n        /* \"#utility.yul\":17176:17235   */\n      tag_517\n        /* \"#utility.yul\":17228:17234   */\n      dup4\n        /* \"#utility.yul\":17176:17235   */\n      tag_302\n      jump\t// in\n    tag_517:\n        /* \"#utility.yul\":17166:17235   */\n      swap3\n      pop\n        /* \"#utility.yul\":17024:17245   */\n      pop\n        /* \"#utility.yul\":17011:17012   */\n      0x01\n        /* \"#utility.yul\":17008:17009   */\n      dup2\n        /* \"#utility.yul\":17004:17013   */\n      add\n        /* \"#utility.yul\":16999:17013   */\n      swap1\n      pop\n        /* \"#utility.yul\":16964:17245   */\n      jump(tag_513)\n    tag_515:\n        /* \"#utility.yul\":16968:16982   */\n      pop\n        /* \"#utility.yul\":17261:17264   */\n      dup6\n        /* \"#utility.yul\":17254:17264   */\n      swap4\n      pop\n        /* \"#utility.yul\":16678:17270   */\n      pop\n      pop\n      pop\n        /* \"#utility.yul\":16566:17270   */\n      swap3\n      swap2\n      pop\n      pop\n      jump\t// out\n        /* \"#utility.yul\":17322:18797   */\n    tag_304:\n        /* \"#utility.yul\":17417:17420   */\n      0x00\n        /* \"#utility.yul\":17453:17457   */\n      0xa0\n        /* \"#utility.yul\":17448:17451   */\n      dup4\n        /* \"#utility.yul\":17444:17458   */\n      add\n        /* \"#utility.yul\":17543:17547   */\n      0x00\n        /* \"#utility.yul\":17536:17541   */\n      dup4\n        /* \"#utility.yul\":17532:17548   */\n      add\n        /* \"#utility.yul\":17526:17549   */\n      mload\n        /* \"#utility.yul\":17596:17599   */\n      dup5\n        /* \"#utility.yul\":17590:17594   */\n      dup3\n        /* \"#utility.yul\":17586:17600   */\n      sub\n        /* \"#utility.yul\":17579:17583   */\n      0x00\n        /* \"#utility.yul\":17574:17577   */\n      dup7\n        /* \"#utility.yul\":17570:17584   */\n      add\n        /* \"#utility.yul\":17563:17601   */\n      mstore\n        /* \"#utility.yul\":17622:17695   */\n      tag_519\n        /* \"#utility.yul\":17690:17694   */\n      dup3\n        /* \"#utility.yul\":17676:17688   */\n      dup3\n        /* \"#utility.yul\":17622:17695   */\n      tag_290\n      jump\t// in\n    tag_519:\n        /* \"#utility.yul\":17614:17695   */\n      swap2\n      pop\n        /* \"#utility.yul\":17468:17706   */\n      pop\n        /* \"#utility.yul\":17788:17792   */\n      0x20\n        /* \"#utility.yul\":17781:17786   */\n      dup4\n        /* \"#utility.yul\":17777:17793   */\n      add\n        /* \"#utility.yul\":17771:17794   */\n      mload\n        /* \"#utility.yul\":17841:17844   */\n      dup5\n        /* \"#utility.yul\":17835:17839   */\n      dup3\n        /* \"#utility.yul\":17831:17845   */\n      sub\n        /* \"#utility.yul\":17824:17828   */\n      0x20\n        /* \"#utility.yul\":17819:17822   */\n      dup7\n        /* \"#utility.yul\":17815:17829   */\n      add\n        /* \"#utility.yul\":17808:17846   */\n      mstore\n        /* \"#utility.yul\":17867:17990   */\n      tag_520\n        /* \"#utility.yul\":17985:17989   */\n      dup3\n        /* \"#utility.yul\":17971:17983   */\n      dup3\n        /* \"#utility.yul\":17867:17990   */\n      tag_296\n      jump\t// in\n    tag_520:\n        /* \"#utility.yul\":17859:17990   */\n      swap2\n      pop\n        /* \"#utility.yul\":17716:18001   */\n      pop\n        /* \"#utility.yul\":18087:18091   */\n      0x40\n        /* \"#utility.yul\":18080:18085   */\n      dup4\n        /* \"#utility.yul\":18076:18092   */\n      add\n        /* \"#utility.yul\":18070:18093   */\n      mload\n        /* \"#utility.yul\":18140:18143   */\n      dup5\n        /* \"#utility.yul\":18134:18138   */\n      dup3\n        /* \"#utility.yul\":18130:18144   */\n      sub\n        /* \"#utility.yul\":18123:18127   */\n      0x40\n        /* \"#utility.yul\":18118:18121   */\n      dup7\n        /* \"#utility.yul\":18114:18128   */\n      add\n        /* \"#utility.yul\":18107:18145   */\n      mstore\n        /* \"#utility.yul\":18166:18267   */\n      tag_521\n        /* \"#utility.yul\":18262:18266   */\n      dup3\n        /* \"#utility.yul\":18248:18260   */\n      dup3\n        /* \"#utility.yul\":18166:18267   */\n      tag_303\n      jump\t// in\n    tag_521:\n        /* \"#utility.yul\":18158:18267   */\n      swap2\n      pop\n        /* \"#utility.yul\":18011:18278   */\n      pop\n        /* \"#utility.yul\":18360:18364   */\n      0x60\n        /* \"#utility.yul\":18353:18358   */\n      dup4\n        /* \"#utility.yul\":18349:18365   */\n      add\n        /* \"#utility.yul\":18343:18366   */\n      mload\n        /* \"#utility.yul\":18413:18416   */\n      dup5\n        /* \"#utility.yul\":18407:18411   */\n      dup3\n        /* \"#utility.yul\":18403:18417   */\n      sub\n        /* \"#utility.yul\":18396:18400   */\n      0x60\n        /* \"#utility.yul\":18391:18394   */\n      dup7\n        /* \"#utility.yul\":18387:18401   */\n      add\n        /* \"#utility.yul\":18380:18418   */\n      mstore\n        /* \"#utility.yul\":18439:18512   */\n      tag_522\n        /* \"#utility.yul\":18507:18511   */\n      dup3\n        /* \"#utility.yul\":18493:18505   */\n      dup3\n        /* \"#utility.yul\":18439:18512   */\n      tag_290\n      jump\t// in\n    tag_522:\n        /* \"#utility.yul\":18431:18512   */\n      swap2\n      pop\n        /* \"#utility.yul\":18288:18523   */\n      pop\n        /* \"#utility.yul\":18607:18611   */\n      0x80\n        /* \"#utility.yul\":18600:18605   */\n      dup4\n        /* \"#utility.yul\":18596:18612   */\n      add\n        /* \"#utility.yul\":18590:18613   */\n      mload\n        /* \"#utility.yul\":18660:18663   */\n      dup5\n        /* \"#utility.yul\":18654:18658   */\n      dup3\n        /* \"#utility.yul\":18650:18664   */\n      sub\n        /* \"#utility.yul\":18643:18647   */\n      0x80\n        /* \"#utility.yul\":18638:18641   */\n      dup7\n        /* \"#utility.yul\":18634:18648   */\n      add\n        /* \"#utility.yul\":18627:18665   */\n      mstore\n        /* \"#utility.yul\":18686:18759   */\n      tag_523\n        /* \"#utility.yul\":18754:18758   */\n      dup3\n        /* \"#utility.yul\":18740:18752   */\n      dup3\n        /* \"#utility.yul\":18686:18759   */\n      tag_290\n      jump\t// in\n    tag_523:\n        /* \"#utility.yul\":18678:18759   */\n      swap2\n      pop\n        /* \"#utility.yul\":18533:18770   */\n      pop\n        /* \"#utility.yul\":18787:18791   */\n      dup1\n        /* \"#utility.yul\":18780:18791   */\n      swap2\n      pop\n        /* \"#utility.yul\":17422:18797   */\n      pop\n        /* \"#utility.yul\":17322:18797   */\n      swap3\n      swap2\n      pop\n      pop\n      jump\t// out\n        /* \"#utility.yul\":18803:19031   */\n    tag_305:\n        /* \"#utility.yul\":18908:18918   */\n      0x00\n        /* \"#utility.yul\":18943:19025   */\n      tag_525\n        /* \"#utility.yul\":19021:19024   */\n      dup4\n        /* \"#utility.yul\":19013:19019   */\n      dup4\n        /* \"#utility.yul\":18943:19025   */\n      tag_304\n      jump\t// in\n    tag_525:\n        /* \"#utility.yul\":18929:19025   */\n      swap1\n      pop\n        /* \"#utility.yul\":18803:19031   */\n      swap3\n      swap2\n      pop\n      pop\n      jump\t// out\n        /* \"#utility.yul\":19037:19168   */\n    tag_306:\n        /* \"#utility.yul\":19125:19129   */\n      0x00\n        /* \"#utility.yul\":19157:19161   */\n      0x20\n        /* \"#utility.yul\":19152:19155   */\n      dup3\n        /* \"#utility.yul\":19148:19162   */\n      add\n        /* \"#utility.yul\":19140:19162   */\n      swap1\n      pop\n        /* \"#utility.yul\":19037:19168   */\n      swap2\n      swap1\n      pop\n      jump\t// out\n        /* \"#utility.yul\":19224:20279   */\n    tag_307:\n        /* \"#utility.yul\":19379:19382   */\n      0x00\n        /* \"#utility.yul\":19408:19480   */\n      tag_528\n        /* \"#utility.yul\":19474:19479   */\n      dup3\n        /* \"#utility.yul\":19408:19480   */\n      tag_284\n      jump\t// in\n    tag_528:\n        /* \"#utility.yul\":19496:19600   */\n      tag_529\n        /* \"#utility.yul\":19593:19599   */\n      dup2\n        /* \"#utility.yul\":19588:19591   */\n      dup6\n        /* \"#utility.yul\":19496:19600   */\n      tag_285\n      jump\t// in\n    tag_529:\n        /* \"#utility.yul\":19489:19600   */\n      swap4\n      pop\n        /* \"#utility.yul\":19626:19629   */\n      dup4\n        /* \"#utility.yul\":19671:19675   */\n      0x20\n        /* \"#utility.yul\":19663:19669   */\n      dup3\n        /* \"#utility.yul\":19659:19676   */\n      mul\n        /* \"#utility.yul\":19654:19657   */\n      dup6\n        /* \"#utility.yul\":19650:19677   */\n      add\n        /* \"#utility.yul\":19701:19775   */\n      tag_530\n        /* \"#utility.yul\":19769:19774   */\n      dup6\n        /* \"#utility.yul\":19701:19775   */\n      tag_286\n      jump\t// in\n    tag_530:\n        /* \"#utility.yul\":19798:19805   */\n      dup1\n        /* \"#utility.yul\":19829:19830   */\n      0x00\n        /* \"#utility.yul\":19814:20234   */\n    tag_531:\n        /* \"#utility.yul\":19839:19845   */\n      dup6\n        /* \"#utility.yul\":19836:19837   */\n      dup2\n        /* \"#utility.yul\":19833:19846   */\n      lt\n        /* \"#utility.yul\":19814:20234   */\n      iszero\n      tag_533\n      jumpi\n        /* \"#utility.yul\":19910:19919   */\n      dup5\n        /* \"#utility.yul\":19904:19908   */\n      dup5\n        /* \"#utility.yul\":19900:19920   */\n      sub\n        /* \"#utility.yul\":19895:19898   */\n      dup10\n        /* \"#utility.yul\":19888:19921   */\n      mstore\n        /* \"#utility.yul\":19961:19967   */\n      dup2\n        /* \"#utility.yul\":19955:19968   */\n      mload\n        /* \"#utility.yul\":19989:20089   */\n      tag_534\n        /* \"#utility.yul\":20084:20088   */\n      dup6\n        /* \"#utility.yul\":20069:20082   */\n      dup3\n        /* \"#utility.yul\":19989:20089   */\n      tag_305\n      jump\t// in\n    tag_534:\n        /* \"#utility.yul\":19981:20089   */\n      swap5\n      pop\n        /* \"#utility.yul\":20112:20190   */\n      tag_535\n        /* \"#utility.yul\":20183:20189   */\n      dup4\n        /* \"#utility.yul\":20112:20190   */\n      tag_306\n      jump\t// in\n    tag_535:\n        /* \"#utility.yul\":20102:20190   */\n      swap3\n      pop\n        /* \"#utility.yul\":20219:20223   */\n      0x20\n        /* \"#utility.yul\":20214:20217   */\n      dup11\n        /* \"#utility.yul\":20210:20224   */\n      add\n        /* \"#utility.yul\":20203:20224   */\n      swap10\n      pop\n        /* \"#utility.yul\":19874:20234   */\n      pop\n        /* \"#utility.yul\":19861:19862   */\n      0x01\n        /* \"#utility.yul\":19858:19859   */\n      dup2\n        /* \"#utility.yul\":19854:19863   */\n      add\n        /* \"#utility.yul\":19849:19863   */\n      swap1\n      pop\n        /* \"#utility.yul\":19814:20234   */\n      jump(tag_531)\n    tag_533:\n        /* \"#utility.yul\":19818:19832   */\n      pop\n        /* \"#utility.yul\":20250:20254   */\n      dup3\n        /* \"#utility.yul\":20243:20254   */\n      swap8\n      pop\n        /* \"#utility.yul\":20270:20273   */\n      dup8\n        /* \"#utility.yul\":20263:20273   */\n      swap6\n      pop\n        /* \"#utility.yul\":19384:20279   */\n      pop\n      pop\n      pop\n      pop\n      pop\n        /* \"#utility.yul\":19224:20279   */\n      swap3\n      swap2\n      pop\n      pop\n      jump\t// out\n        /* \"#utility.yul\":20285:20730   */\n    tag_23:\n        /* \"#utility.yul\":20464:20468   */\n      0x00\n        /* \"#utility.yul\":20502:20504   */\n      0x20\n        /* \"#utility.yul\":20491:20500   */\n      dup3\n        /* \"#utility.yul\":20487:20505   */\n      add\n        /* \"#utility.yul\":20479:20505   */\n      swap1\n      pop\n        /* \"#utility.yul\":20551:20560   */\n      dup2\n        /* \"#utility.yul\":20545:20549   */\n      dup2\n        /* \"#utility.yul\":20541:20561   */\n      sub\n        /* \"#utility.yul\":20537:20538   */\n      0x00\n        /* \"#utility.yul\":20526:20535   */\n      dup4\n        /* \"#utility.yul\":20522:20539   */\n      add\n        /* \"#utility.yul\":20515:20562   */\n      mstore\n        /* \"#utility.yul\":20579:20723   */\n      tag_537\n        /* \"#utility.yul\":20718:20722   */\n      dup2\n        /* \"#utility.yul\":20709:20715   */\n      dup5\n        /* \"#utility.yul\":20579:20723   */\n      tag_307\n      jump\t// in\n    tag_537:\n        /* \"#utility.yul\":20571:20723   */\n      swap1\n      pop\n        /* \"#utility.yul\":20285:20730   */\n      swap3\n      swap2\n      pop\n      pop\n      jump\t// out\n        /* \"#utility.yul\":20736:20813   */\n    tag_308:\n        /* \"#utility.yul\":20773:20780   */\n      0x00\n        /* \"#utility.yul\":20802:20807   */\n      dup2\n        /* \"#utility.yul\":20791:20807   */\n      swap1\n      pop\n        /* \"#utility.yul\":20736:20813   */\n      swap2\n      swap1\n      pop\n      jump\t// out\n        /* \"#utility.yul\":20819:20937   */\n    tag_309:\n        /* \"#utility.yul\":20906:20930   */\n      tag_540\n        /* \"#utility.yul\":20924:20929   */\n      dup2\n        /* \"#utility.yul\":20906:20930   */\n      tag_308\n      jump\t// in\n    tag_540:\n        /* \"#utility.yul\":20901:20904   */\n      dup3\n        /* \"#utility.yul\":20894:20931   */\n      mstore\n        /* \"#utility.yul\":20819:20937   */\n      pop\n      pop\n      jump\t// out\n        /* \"#utility.yul\":20943:21165   */\n    tag_27:\n        /* \"#utility.yul\":21036:21040   */\n      0x00\n        /* \"#utility.yul\":21074:21076   */\n      0x20\n        /* \"#utility.yul\":21063:21072   */\n      dup3\n        /* \"#utility.yul\":21059:21077   */\n      add\n        /* \"#utility.yul\":21051:21077   */\n      swap1\n      pop\n        /* \"#utility.yul\":21087:21158   */\n      tag_542\n        /* \"#utility.yul\":21155:21156   */\n      0x00\n        /* \"#utility.yul\":21144:21153   */\n      dup4\n        /* \"#utility.yul\":21140:21157   */\n      add\n        /* \"#utility.yul\":21131:21137   */\n      dup5\n        /* \"#utility.yul\":21087:21158   */\n      tag_309\n      jump\t// in\n    tag_542:\n        /* \"#utility.yul\":20943:21165   */\n      swap3\n      swap2\n      pop\n      pop\n      jump\t// out\n        /* \"#utility.yul\":21171:21293   */\n    tag_310:\n        /* \"#utility.yul\":21244:21268   */\n      tag_544\n        /* \"#utility.yul\":21262:21267   */\n      dup2\n        /* \"#utility.yul\":21244:21268   */\n      tag_308\n      jump\t// in\n    tag_544:\n        /* \"#utility.yul\":21237:21242   */\n      dup2\n        /* \"#utility.yul\":21234:21269   */\n      eq\n        /* \"#utility.yul\":21224:21287   */\n      tag_545\n      jumpi\n        /* \"#utility.yul\":21283:21284   */\n      0x00\n        /* \"#utility.yul\":21280:21281   */\n      dup1\n        /* \"#utility.yul\":21273:21285   */\n      revert\n        /* \"#utility.yul\":21224:21287   */\n    tag_545:\n        /* \"#utility.yul\":21171:21293   */\n      pop\n      jump\t// out\n        /* \"#utility.yul\":21299:21438   */\n    tag_311:\n        /* \"#utility.yul\":21345:21350   */\n      0x00\n        /* \"#utility.yul\":21383:21389   */\n      dup2\n        /* \"#utility.yul\":21370:21390   */\n      calldataload\n        /* \"#utility.yul\":21361:21390   */\n      swap1\n      pop\n        /* \"#utility.yul\":21399:21432   */\n      tag_547\n        /* \"#utility.yul\":21426:21431   */\n      dup2\n        /* \"#utility.yul\":21399:21432   */\n      tag_310\n      jump\t// in\n    tag_547:\n        /* \"#utility.yul\":21299:21438   */\n      swap3\n      swap2\n      pop\n      pop\n      jump\t// out\n        /* \"#utility.yul\":21444:21773   */\n    tag_30:\n        /* \"#utility.yul\":21503:21509   */\n      0x00\n        /* \"#utility.yul\":21552:21554   */\n      0x20\n        /* \"#utility.yul\":21540:21549   */\n      dup3\n        /* \"#utility.yul\":21531:21538   */\n      dup5\n        /* \"#utility.yul\":21527:21550   */\n      sub\n        /* \"#utility.yul\":21523:21555   */\n      slt\n        /* \"#utility.yul\":21520:21639   */\n      iszero\n      tag_549\n      jumpi\n        /* \"#utility.yul\":21558:21637   */\n      tag_550\n      tag_259\n      jump\t// in\n    tag_550:\n        /* \"#utility.yul\":21520:21639   */\n    tag_549:\n        /* \"#utility.yul\":21678:21679   */\n      0x00\n        /* \"#utility.yul\":21703:21756   */\n      tag_551\n        /* \"#utility.yul\":21748:21755   */\n      dup5\n        /* \"#utility.yul\":21739:21745   */\n      dup3\n        /* \"#utility.yul\":21728:21737   */\n      dup6\n        /* \"#utility.yul\":21724:21746   */\n      add\n        /* \"#utility.yul\":21703:21756   */\n      tag_311\n      jump\t// in\n    tag_551:\n        /* \"#utility.yul\":21693:21756   */\n      swap2\n      pop\n        /* \"#utility.yul\":21649:21766   */\n      pop\n        /* \"#utility.yul\":21444:21773   */\n      swap3\n      swap2\n      pop\n      pop\n      jump\t// out\n        /* \"#utility.yul\":21779:21948   */\n    tag_312:\n        /* \"#utility.yul\":21863:21874   */\n      0x00\n        /* \"#utility.yul\":21897:21903   */\n      dup3\n        /* \"#utility.yul\":21892:21895   */\n      dup3\n        /* \"#utility.yul\":21885:21904   */\n      mstore\n        /* \"#utility.yul\":21937:21941   */\n      0x20\n        /* \"#utility.yul\":21932:21935   */\n      dup3\n        /* \"#utility.yul\":21928:21942   */\n      add\n        /* \"#utility.yul\":21913:21942   */\n      swap1\n      pop\n        /* \"#utility.yul\":21779:21948   */\n      swap3\n      swap2\n      pop\n      pop\n      jump\t// out\n        /* \"#utility.yul\":21954:22331   */\n    tag_313:\n        /* \"#utility.yul\":22042:22045   */\n      0x00\n        /* \"#utility.yul\":22070:22109   */\n      tag_554\n        /* \"#utility.yul\":22103:22108   */\n      dup3\n        /* \"#utility.yul\":22070:22109   */\n      tag_287\n      jump\t// in\n    tag_554:\n        /* \"#utility.yul\":22125:22196   */\n      tag_555\n        /* \"#utility.yul\":22189:22195   */\n      dup2\n        /* \"#utility.yul\":22184:22187   */\n      dup6\n        /* \"#utility.yul\":22125:22196   */\n      tag_312\n      jump\t// in\n    tag_555:\n        /* \"#utility.yul\":22118:22196   */\n      swap4\n      pop\n        /* \"#utility.yul\":22205:22270   */\n      tag_556\n        /* \"#utility.yul\":22263:22269   */\n      dup2\n        /* \"#utility.yul\":22258:22261   */\n      dup6\n        /* \"#utility.yul\":22251:22255   */\n      0x20\n        /* \"#utility.yul\":22244:22249   */\n      dup7\n        /* \"#utility.yul\":22240:22256   */\n      add\n        /* \"#utility.yul\":22205:22270   */\n      tag_289\n      jump\t// in\n    tag_556:\n        /* \"#utility.yul\":22295:22324   */\n      tag_557\n        /* \"#utility.yul\":22317:22323   */\n      dup2\n        /* \"#utility.yul\":22295:22324   */\n      tag_262\n      jump\t// in\n    tag_557:\n        /* \"#utility.yul\":22290:22293   */\n      dup5\n        /* \"#utility.yul\":22286:22325   */\n      add\n        /* \"#utility.yul\":22279:22325   */\n      swap2\n      pop\n        /* \"#utility.yul\":22046:22331   */\n      pop\n        /* \"#utility.yul\":21954:22331   */\n      swap3\n      swap2\n      pop\n      pop\n      jump\t// out\n        /* \"#utility.yul\":22337:23052   */\n    tag_33:\n        /* \"#utility.yul\":22546:22550   */\n      0x00\n        /* \"#utility.yul\":22584:22586   */\n      0x60\n        /* \"#utility.yul\":22573:22582   */\n      dup3\n        /* \"#utility.yul\":22569:22587   */\n      add\n        /* \"#utility.yul\":22561:22587   */\n      swap1\n      pop\n        /* \"#utility.yul\":22633:22642   */\n      dup2\n        /* \"#utility.yul\":22627:22631   */\n      dup2\n        /* \"#utility.yul\":22623:22643   */\n      sub\n        /* \"#utility.yul\":22619:22620   */\n      0x00\n        /* \"#utility.yul\":22608:22617   */\n      dup4\n        /* \"#utility.yul\":22604:22621   */\n      add\n        /* \"#utility.yul\":22597:22644   */\n      mstore\n        /* \"#utility.yul\":22661:22739   */\n      tag_559\n        /* \"#utility.yul\":22734:22738   */\n      dup2\n        /* \"#utility.yul\":22725:22731   */\n      dup7\n        /* \"#utility.yul\":22661:22739   */\n      tag_313\n      jump\t// in\n    tag_559:\n        /* \"#utility.yul\":22653:22739   */\n      swap1\n      pop\n        /* \"#utility.yul\":22786:22795   */\n      dup2\n        /* \"#utility.yul\":22780:22784   */\n      dup2\n        /* \"#utility.yul\":22776:22796   */\n      sub\n        /* \"#utility.yul\":22771:22773   */\n      0x20\n        /* \"#utility.yul\":22760:22769   */\n      dup4\n        /* \"#utility.yul\":22756:22774   */\n      add\n        /* \"#utility.yul\":22749:22797   */\n      mstore\n        /* \"#utility.yul\":22814:22892   */\n      tag_560\n        /* \"#utility.yul\":22887:22891   */\n      dup2\n        /* \"#utility.yul\":22878:22884   */\n      dup6\n        /* \"#utility.yul\":22814:22892   */\n      tag_313\n      jump\t// in\n    tag_560:\n        /* \"#utility.yul\":22806:22892   */\n      swap1\n      pop\n        /* \"#utility.yul\":22939:22948   */\n      dup2\n        /* \"#utility.yul\":22933:22937   */\n      dup2\n        /* \"#utility.yul\":22929:22949   */\n      sub\n        /* \"#utility.yul\":22924:22926   */\n      0x40\n        /* \"#utility.yul\":22913:22922   */\n      dup4\n        /* \"#utility.yul\":22909:22927   */\n      add\n        /* \"#utility.yul\":22902:22950   */\n      mstore\n        /* \"#utility.yul\":22967:23045   */\n      tag_561\n        /* \"#utility.yul\":23040:23044   */\n      dup2\n        /* \"#utility.yul\":23031:23037   */\n      dup5\n        /* \"#utility.yul\":22967:23045   */\n      tag_313\n      jump\t// in\n    tag_561:\n        /* \"#utility.yul\":22959:23045   */\n      swap1\n      pop\n        /* \"#utility.yul\":22337:23052   */\n      swap5\n      swap4\n      pop\n      pop\n      pop\n      pop\n      jump\t// out\n        /* \"#utility.yul\":23058:23190   */\n    tag_314:\n        /* \"#utility.yul\":23143:23149   */\n      0x00\n        /* \"#utility.yul\":23177:23182   */\n      dup2\n        /* \"#utility.yul\":23171:23183   */\n      mload\n        /* \"#utility.yul\":23161:23183   */\n      swap1\n      pop\n        /* \"#utility.yul\":23058:23190   */\n      swap2\n      swap1\n      pop\n      jump\t// out\n        /* \"#utility.yul\":23196:23398   */\n    tag_315:\n        /* \"#utility.yul\":23313:23324   */\n      0x00\n        /* \"#utility.yul\":23347:23353   */\n      dup3\n        /* \"#utility.yul\":23342:23345   */\n      dup3\n        /* \"#utility.yul\":23335:23354   */\n      mstore\n        /* \"#utility.yul\":23387:23391   */\n      0x20\n        /* \"#utility.yul\":23382:23385   */\n      dup3\n        /* \"#utility.yul\":23378:23392   */\n      add\n        /* \"#utility.yul\":23363:23392   */\n      swap1\n      pop\n        /* \"#utility.yul\":23196:23398   */\n      swap3\n      swap2\n      pop\n      pop\n      jump\t// out\n        /* \"#utility.yul\":23404:23554   */\n    tag_316:\n        /* \"#utility.yul\":23489:23493   */\n      0x00\n        /* \"#utility.yul\":23512:23515   */\n      dup2\n        /* \"#utility.yul\":23504:23515   */\n      swap1\n      pop\n        /* \"#utility.yul\":23542:23546   */\n      0x20\n        /* \"#utility.yul\":23537:23540   */\n      dup3\n        /* \"#utility.yul\":23533:23547   */\n      add\n        /* \"#utility.yul\":23525:23547   */\n      swap1\n      pop\n        /* \"#utility.yul\":23404:23554   */\n      swap2\n      swap1\n      pop\n      jump\t// out\n        /* \"#utility.yul\":23606:26344   */\n    tag_317:\n        /* \"#utility.yul\":23701:23704   */\n      0x00\n        /* \"#utility.yul\":23737:23743   */\n      0x0140\n        /* \"#utility.yul\":23732:23735   */\n      dup4\n        /* \"#utility.yul\":23728:23744   */\n      add\n        /* \"#utility.yul\":23829:23833   */\n      0x00\n        /* \"#utility.yul\":23822:23827   */\n      dup4\n        /* \"#utility.yul\":23818:23834   */\n      add\n        /* \"#utility.yul\":23812:23835   */\n      mload\n        /* \"#utility.yul\":23882:23885   */\n      dup5\n        /* \"#utility.yul\":23876:23880   */\n      dup3\n        /* \"#utility.yul\":23872:23886   */\n      sub\n        /* \"#utility.yul\":23865:23869   */\n      0x00\n        /* \"#utility.yul\":23860:23863   */\n      dup7\n        /* \"#utility.yul\":23856:23870   */\n      add\n        /* \"#utility.yul\":23849:23887   */\n      mstore\n        /* \"#utility.yul\":23908:23981   */\n      tag_566\n        /* \"#utility.yul\":23976:23980   */\n      dup3\n        /* \"#utility.yul\":23962:23974   */\n      dup3\n        /* \"#utility.yul\":23908:23981   */\n      tag_290\n      jump\t// in\n    tag_566:\n        /* \"#utility.yul\":23900:23981   */\n      swap2\n      pop\n        /* \"#utility.yul\":23754:23992   */\n      pop\n        /* \"#utility.yul\":24074:24078   */\n      0x20\n        /* \"#utility.yul\":24067:24072   */\n      dup4\n        /* \"#utility.yul\":24063:24079   */\n      add\n        /* \"#utility.yul\":24057:24080   */\n      mload\n        /* \"#utility.yul\":24127:24130   */\n      dup5\n        /* \"#utility.yul\":24121:24125   */\n      dup3\n        /* \"#utility.yul\":24117:24131   */\n      sub\n        /* \"#utility.yul\":24110:24114   */\n      0x20\n        /* \"#utility.yul\":24105:24108   */\n      dup7\n        /* \"#utility.yul\":24101:24115   */\n      add\n        /* \"#utility.yul\":24094:24132   */\n      mstore\n        /* \"#utility.yul\":24153:24276   */\n      tag_567\n        /* \"#utility.yul\":24271:24275   */\n      dup3\n        /* \"#utility.yul\":24257:24269   */\n      dup3\n        /* \"#utility.yul\":24153:24276   */\n      tag_296\n      jump\t// in\n    tag_567:\n        /* \"#utility.yul\":24145:24276   */\n      swap2\n      pop\n        /* \"#utility.yul\":24002:24287   */\n      pop\n        /* \"#utility.yul\":24373:24377   */\n      0x40\n        /* \"#utility.yul\":24366:24371   */\n      dup4\n        /* \"#utility.yul\":24362:24378   */\n      add\n        /* \"#utility.yul\":24356:24379   */\n      mload\n        /* \"#utility.yul\":24426:24429   */\n      dup5\n        /* \"#utility.yul\":24420:24424   */\n      dup3\n        /* \"#utility.yul\":24416:24430   */\n      sub\n        /* \"#utility.yul\":24409:24413   */\n      0x40\n        /* \"#utility.yul\":24404:24407   */\n      dup7\n        /* \"#utility.yul\":24400:24414   */\n      add\n        /* \"#utility.yul\":24393:24431   */\n      mstore\n        /* \"#utility.yul\":24452:24553   */\n      tag_568\n        /* \"#utility.yul\":24548:24552   */\n      dup3\n        /* \"#utility.yul\":24534:24546   */\n      dup3\n        /* \"#utility.yul\":24452:24553   */\n      tag_303\n      jump\t// in\n    tag_568:\n        /* \"#utility.yul\":24444:24553   */\n      swap2\n      pop\n        /* \"#utility.yul\":24297:24564   */\n      pop\n        /* \"#utility.yul\":24646:24650   */\n      0x60\n        /* \"#utility.yul\":24639:24644   */\n      dup4\n        /* \"#utility.yul\":24635:24651   */\n      add\n        /* \"#utility.yul\":24629:24652   */\n      mload\n        /* \"#utility.yul\":24699:24702   */\n      dup5\n        /* \"#utility.yul\":24693:24697   */\n      dup3\n        /* \"#utility.yul\":24689:24703   */\n      sub\n        /* \"#utility.yul\":24682:24686   */\n      0x60\n        /* \"#utility.yul\":24677:24680   */\n      dup7\n        /* \"#utility.yul\":24673:24687   */\n      add\n        /* \"#utility.yul\":24666:24704   */\n      mstore\n        /* \"#utility.yul\":24725:24798   */\n      tag_569\n        /* \"#utility.yul\":24793:24797   */\n      dup3\n        /* \"#utility.yul\":24779:24791   */\n      dup3\n        /* \"#utility.yul\":24725:24798   */\n      tag_290\n      jump\t// in\n    tag_569:\n        /* \"#utility.yul\":24717:24798   */\n      swap2\n      pop\n        /* \"#utility.yul\":24574:24809   */\n      pop\n        /* \"#utility.yul\":24893:24897   */\n      0x80\n        /* \"#utility.yul\":24886:24891   */\n      dup4\n        /* \"#utility.yul\":24882:24898   */\n      add\n        /* \"#utility.yul\":24876:24899   */\n      mload\n        /* \"#utility.yul\":24946:24949   */\n      dup5\n        /* \"#utility.yul\":24940:24944   */\n      dup3\n        /* \"#utility.yul\":24936:24950   */\n      sub\n        /* \"#utility.yul\":24929:24933   */\n      0x80\n        /* \"#utility.yul\":24924:24927   */\n      dup7\n        /* \"#utility.yul\":24920:24934   */\n      add\n        /* \"#utility.yul\":24913:24951   */\n      mstore\n        /* \"#utility.yul\":24972:25045   */\n      tag_570\n        /* \"#utility.yul\":25040:25044   */\n      dup3\n        /* \"#utility.yul\":25026:25038   */\n      dup3\n        /* \"#utility.yul\":24972:25045   */\n      tag_290\n      jump\t// in\n    tag_570:\n        /* \"#utility.yul\":24964:25045   */\n      swap2\n      pop\n        /* \"#utility.yul\":24819:25056   */\n      pop\n        /* \"#utility.yul\":25139:25143   */\n      0xa0\n        /* \"#utility.yul\":25132:25137   */\n      dup4\n        /* \"#utility.yul\":25128:25144   */\n      add\n        /* \"#utility.yul\":25122:25145   */\n      mload\n        /* \"#utility.yul\":25192:25195   */\n      dup5\n        /* \"#utility.yul\":25186:25190   */\n      dup3\n        /* \"#utility.yul\":25182:25196   */\n      sub\n        /* \"#utility.yul\":25175:25179   */\n      0xa0\n        /* \"#utility.yul\":25170:25173   */\n      dup7\n        /* \"#utility.yul\":25166:25180   */\n      add\n        /* \"#utility.yul\":25159:25197   */\n      mstore\n        /* \"#utility.yul\":25218:25319   */\n      tag_571\n        /* \"#utility.yul\":25314:25318   */\n      dup3\n        /* \"#utility.yul\":25300:25312   */\n      dup3\n        /* \"#utility.yul\":25218:25319   */\n      tag_303\n      jump\t// in\n    tag_571:\n        /* \"#utility.yul\":25210:25319   */\n      swap2\n      pop\n        /* \"#utility.yul\":25066:25330   */\n      pop\n        /* \"#utility.yul\":25410:25414   */\n      0xc0\n        /* \"#utility.yul\":25403:25408   */\n      dup4\n        /* \"#utility.yul\":25399:25415   */\n      add\n        /* \"#utility.yul\":25393:25416   */\n      mload\n        /* \"#utility.yul\":25463:25466   */\n      dup5\n        /* \"#utility.yul\":25457:25461   */\n      dup3\n        /* \"#utility.yul\":25453:25467   */\n      sub\n        /* \"#utility.yul\":25446:25450   */\n      0xc0\n        /* \"#utility.yul\":25441:25444   */\n      dup7\n        /* \"#utility.yul\":25437:25451   */\n      add\n        /* \"#utility.yul\":25430:25468   */\n      mstore\n        /* \"#utility.yul\":25489:25562   */\n      tag_572\n        /* \"#utility.yul\":25557:25561   */\n      dup3\n        /* \"#utility.yul\":25543:25555   */\n      dup3\n        /* \"#utility.yul\":25489:25562   */\n      tag_290\n      jump\t// in\n    tag_572:\n        /* \"#utility.yul\":25481:25562   */\n      swap2\n      pop\n        /* \"#utility.yul\":25340:25573   */\n      pop\n        /* \"#utility.yul\":25653:25657   */\n      0xe0\n        /* \"#utility.yul\":25646:25651   */\n      dup4\n        /* \"#utility.yul\":25642:25658   */\n      add\n        /* \"#utility.yul\":25636:25659   */\n      mload\n        /* \"#utility.yul\":25706:25709   */\n      dup5\n        /* \"#utility.yul\":25700:25704   */\n      dup3\n        /* \"#utility.yul\":25696:25710   */\n      sub\n        /* \"#utility.yul\":25689:25693   */\n      0xe0\n        /* \"#utility.yul\":25684:25687   */\n      dup7\n        /* \"#utility.yul\":25680:25694   */\n      add\n        /* \"#utility.yul\":25673:25711   */\n      mstore\n        /* \"#utility.yul\":25732:25805   */\n      tag_573\n        /* \"#utility.yul\":25800:25804   */\n      dup3\n        /* \"#utility.yul\":25786:25798   */\n      dup3\n        /* \"#utility.yul\":25732:25805   */\n      tag_290\n      jump\t// in\n    tag_573:\n        /* \"#utility.yul\":25724:25805   */\n      swap2\n      pop\n        /* \"#utility.yul\":25583:25816   */\n      pop\n        /* \"#utility.yul\":25900:25906   */\n      0x0100\n        /* \"#utility.yul\":25893:25898   */\n      dup4\n        /* \"#utility.yul\":25889:25907   */\n      add\n        /* \"#utility.yul\":25883:25908   */\n      mload\n        /* \"#utility.yul\":25957:25960   */\n      dup5\n        /* \"#utility.yul\":25951:25955   */\n      dup3\n        /* \"#utility.yul\":25947:25961   */\n      sub\n        /* \"#utility.yul\":25938:25944   */\n      0x0100\n        /* \"#utility.yul\":25933:25936   */\n      dup7\n        /* \"#utility.yul\":25929:25945   */\n      add\n        /* \"#utility.yul\":25922:25962   */\n      mstore\n        /* \"#utility.yul\":25983:26056   */\n      tag_574\n        /* \"#utility.yul\":26051:26055   */\n      dup3\n        /* \"#utility.yul\":26037:26049   */\n      dup3\n        /* \"#utility.yul\":25983:26056   */\n      tag_290\n      jump\t// in\n    tag_574:\n        /* \"#utility.yul\":25975:26056   */\n      swap2\n      pop\n        /* \"#utility.yul\":25826:26067   */\n      pop\n        /* \"#utility.yul\":26150:26156   */\n      0x0120\n        /* \"#utility.yul\":26143:26148   */\n      dup4\n        /* \"#utility.yul\":26139:26157   */\n      add\n        /* \"#utility.yul\":26133:26158   */\n      mload\n        /* \"#utility.yul\":26207:26210   */\n      dup5\n        /* \"#utility.yul\":26201:26205   */\n      dup3\n        /* \"#utility.yul\":26197:26211   */\n      sub\n        /* \"#utility.yul\":26188:26194   */\n      0x0120\n        /* \"#utility.yul\":26183:26186   */\n      dup7\n        /* \"#utility.yul\":26179:26195   */\n      add\n        /* \"#utility.yul\":26172:26212   */\n      mstore\n        /* \"#utility.yul\":26233:26306   */\n      tag_575\n        /* \"#utility.yul\":26301:26305   */\n      dup3\n        /* \"#utility.yul\":26287:26299   */\n      dup3\n        /* \"#utility.yul\":26233:26306   */\n      tag_290\n      jump\t// in\n    tag_575:\n        /* \"#utility.yul\":26225:26306   */\n      swap2\n      pop\n        /* \"#utility.yul\":26077:26317   */\n      pop\n        /* \"#utility.yul\":26334:26338   */\n      dup1\n        /* \"#utility.yul\":26327:26338   */\n      swap2\n      pop\n        /* \"#utility.yul\":23706:26344   */\n      pop\n        /* \"#utility.yul\":23606:26344   */\n      swap3\n      swap2\n      pop\n      pop\n      jump\t// out\n        /* \"#utility.yul\":26350:26578   */\n    tag_318:\n        /* \"#utility.yul\":26455:26465   */\n      0x00\n        /* \"#utility.yul\":26490:26572   */\n      tag_577\n        /* \"#utility.yul\":26568:26571   */\n      dup4\n        /* \"#utility.yul\":26560:26566   */\n      dup4\n        /* \"#utility.yul\":26490:26572   */\n      tag_317\n      jump\t// in\n    tag_577:\n        /* \"#utility.yul\":26476:26572   */\n      swap1\n      pop\n        /* \"#utility.yul\":26350:26578   */\n      swap3\n      swap2\n      pop\n      pop\n      jump\t// out\n        /* \"#utility.yul\":26584:26715   */\n    tag_319:\n        /* \"#utility.yul\":26672:26676   */\n      0x00\n        /* \"#utility.yul\":26704:26708   */\n      0x20\n        /* \"#utility.yul\":26699:26702   */\n      dup3\n        /* \"#utility.yul\":26695:26709   */\n      add\n        /* \"#utility.yul\":26687:26709   */\n      swap1\n      pop\n        /* \"#utility.yul\":26584:26715   */\n      swap2\n      swap1\n      pop\n      jump\t// out\n        /* \"#utility.yul\":26771:27826   */\n    tag_320:\n        /* \"#utility.yul\":26926:26929   */\n      0x00\n        /* \"#utility.yul\":26955:27027   */\n      tag_580\n        /* \"#utility.yul\":27021:27026   */\n      dup3\n        /* \"#utility.yul\":26955:27027   */\n      tag_314\n      jump\t// in\n    tag_580:\n        /* \"#utility.yul\":27043:27147   */\n      tag_581\n        /* \"#utility.yul\":27140:27146   */\n      dup2\n        /* \"#utility.yul\":27135:27138   */\n      dup6\n        /* \"#utility.yul\":27043:27147   */\n      tag_315\n      jump\t// in\n    tag_581:\n        /* \"#utility.yul\":27036:27147   */\n      swap4\n      pop\n        /* \"#utility.yul\":27173:27176   */\n      dup4\n        /* \"#utility.yul\":27218:27222   */\n      0x20\n        /* \"#utility.yul\":27210:27216   */\n      dup3\n        /* \"#utility.yul\":27206:27223   */\n      mul\n        /* \"#utility.yul\":27201:27204   */\n      dup6\n        /* \"#utility.yul\":27197:27224   */\n      add\n        /* \"#utility.yul\":27248:27322   */\n      tag_582\n        /* \"#utility.yul\":27316:27321   */\n      dup6\n        /* \"#utility.yul\":27248:27322   */\n      tag_316\n      jump\t// in\n    tag_582:\n        /* \"#utility.yul\":27345:27352   */\n      dup1\n        /* \"#utility.yul\":27376:27377   */\n      0x00\n        /* \"#utility.yul\":27361:27781   */\n    tag_583:\n        /* \"#utility.yul\":27386:27392   */\n      dup6\n        /* \"#utility.yul\":27383:27384   */\n      dup2\n        /* \"#utility.yul\":27380:27393   */\n      lt\n        /* \"#utility.yul\":27361:27781   */\n      iszero\n      tag_585\n      jumpi\n        /* \"#utility.yul\":27457:27466   */\n      dup5\n        /* \"#utility.yul\":27451:27455   */\n      dup5\n        /* \"#utility.yul\":27447:27467   */\n      sub\n        /* \"#utility.yul\":27442:27445   */\n      dup10\n        /* \"#utility.yul\":27435:27468   */\n      mstore\n        /* \"#utility.yul\":27508:27514   */\n      dup2\n        /* \"#utility.yul\":27502:27515   */\n      mload\n        /* \"#utility.yul\":27536:27636   */\n      tag_586\n        /* \"#utility.yul\":27631:27635   */\n      dup6\n        /* \"#utility.yul\":27616:27629   */\n      dup3\n        /* \"#utility.yul\":27536:27636   */\n      tag_318\n      jump\t// in\n    tag_586:\n        /* \"#utility.yul\":27528:27636   */\n      swap5\n      pop\n        /* \"#utility.yul\":27659:27737   */\n      tag_587\n        /* \"#utility.yul\":27730:27736   */\n      dup4\n        /* \"#utility.yul\":27659:27737   */\n      tag_319\n      jump\t// in\n    tag_587:\n        /* \"#utility.yul\":27649:27737   */\n      swap3\n      pop\n        /* \"#utility.yul\":27766:27770   */\n      0x20\n        /* \"#utility.yul\":27761:27764   */\n      dup11\n        /* \"#utility.yul\":27757:27771   */\n      add\n        /* \"#utility.yul\":27750:27771   */\n      swap10\n      pop\n        /* \"#utility.yul\":27421:27781   */\n      pop\n        /* \"#utility.yul\":27408:27409   */\n      0x01\n        /* \"#utility.yul\":27405:27406   */\n      dup2\n        /* \"#utility.yul\":27401:27410   */\n      add\n        /* \"#utility.yul\":27396:27410   */\n      swap1\n      pop\n        /* \"#utility.yul\":27361:27781   */\n      jump(tag_583)\n    tag_585:\n        /* \"#utility.yul\":27365:27379   */\n      pop\n        /* \"#utility.yul\":27797:27801   */\n      dup3\n        /* \"#utility.yul\":27790:27801   */\n      swap8\n      pop\n        /* \"#utility.yul\":27817:27820   */\n      dup8\n        /* \"#utility.yul\":27810:27820   */\n      swap6\n      pop\n        /* \"#utility.yul\":26931:27826   */\n      pop\n      pop\n      pop\n      pop\n      pop\n        /* \"#utility.yul\":26771:27826   */\n      swap3\n      swap2\n      pop\n      pop\n      jump\t// out\n        /* \"#utility.yul\":27832:28277   */\n    tag_37:\n        /* \"#utility.yul\":28011:28015   */\n      0x00\n        /* \"#utility.yul\":28049:28051   */\n      0x20\n        /* \"#utility.yul\":28038:28047   */\n      dup3\n        /* \"#utility.yul\":28034:28052   */\n      add\n        /* \"#utility.yul\":28026:28052   */\n      swap1\n      pop\n        /* \"#utility.yul\":28098:28107   */\n      dup2\n        /* \"#utility.yul\":28092:28096   */\n      dup2\n        /* \"#utility.yul\":28088:28108   */\n      sub\n        /* \"#utility.yul\":28084:28085   */\n      0x00\n        /* \"#utility.yul\":28073:28082   */\n      dup4\n        /* \"#utility.yul\":28069:28086   */\n      add\n        /* \"#utility.yul\":28062:28109   */\n      mstore\n        /* \"#utility.yul\":28126:28270   */\n      tag_589\n        /* \"#utility.yul\":28265:28269   */\n      dup2\n        /* \"#utility.yul\":28256:28262   */\n      dup5\n        /* \"#utility.yul\":28126:28270   */\n      tag_320\n      jump\t// in\n    tag_589:\n        /* \"#utility.yul\":28118:28270   */\n      swap1\n      pop\n        /* \"#utility.yul\":27832:28277   */\n      swap3\n      swap2\n      pop\n      pop\n      jump\t// out\n        /* \"#utility.yul\":28283:29806   */\n    tag_42:\n        /* \"#utility.yul\":28684:28688   */\n      0x00\n        /* \"#utility.yul\":28722:28725   */\n      0xe0\n        /* \"#utility.yul\":28711:28720   */\n      dup3\n        /* \"#utility.yul\":28707:28726   */\n      add\n        /* \"#utility.yul\":28699:28726   */\n      swap1\n      pop\n        /* \"#utility.yul\":28772:28781   */\n      dup2\n        /* \"#utility.yul\":28766:28770   */\n      dup2\n        /* \"#utility.yul\":28762:28782   */\n      sub\n        /* \"#utility.yul\":28758:28759   */\n      0x00\n        /* \"#utility.yul\":28747:28756   */\n      dup4\n        /* \"#utility.yul\":28743:28760   */\n      add\n        /* \"#utility.yul\":28736:28783   */\n      mstore\n        /* \"#utility.yul\":28800:28878   */\n      tag_591\n        /* \"#utility.yul\":28873:28877   */\n      dup2\n        /* \"#utility.yul\":28864:28870   */\n      dup11\n        /* \"#utility.yul\":28800:28878   */\n      tag_313\n      jump\t// in\n    tag_591:\n        /* \"#utility.yul\":28792:28878   */\n      swap1\n      pop\n        /* \"#utility.yul\":28925:28934   */\n      dup2\n        /* \"#utility.yul\":28919:28923   */\n      dup2\n        /* \"#utility.yul\":28915:28935   */\n      sub\n        /* \"#utility.yul\":28910:28912   */\n      0x20\n        /* \"#utility.yul\":28899:28908   */\n      dup4\n        /* \"#utility.yul\":28895:28913   */\n      add\n        /* \"#utility.yul\":28888:28936   */\n      mstore\n        /* \"#utility.yul\":28953:29031   */\n      tag_592\n        /* \"#utility.yul\":29026:29030   */\n      dup2\n        /* \"#utility.yul\":29017:29023   */\n      dup10\n        /* \"#utility.yul\":28953:29031   */\n      tag_313\n      jump\t// in\n    tag_592:\n        /* \"#utility.yul\":28945:29031   */\n      swap1\n      pop\n        /* \"#utility.yul\":29078:29087   */\n      dup2\n        /* \"#utility.yul\":29072:29076   */\n      dup2\n        /* \"#utility.yul\":29068:29088   */\n      sub\n        /* \"#utility.yul\":29063:29065   */\n      0x40\n        /* \"#utility.yul\":29052:29061   */\n      dup4\n        /* \"#utility.yul\":29048:29066   */\n      add\n        /* \"#utility.yul\":29041:29089   */\n      mstore\n        /* \"#utility.yul\":29106:29184   */\n      tag_593\n        /* \"#utility.yul\":29179:29183   */\n      dup2\n        /* \"#utility.yul\":29170:29176   */\n      dup9\n        /* \"#utility.yul\":29106:29184   */\n      tag_313\n      jump\t// in\n    tag_593:\n        /* \"#utility.yul\":29098:29184   */\n      swap1\n      pop\n        /* \"#utility.yul\":29231:29240   */\n      dup2\n        /* \"#utility.yul\":29225:29229   */\n      dup2\n        /* \"#utility.yul\":29221:29241   */\n      sub\n        /* \"#utility.yul\":29216:29218   */\n      0x60\n        /* \"#utility.yul\":29205:29214   */\n      dup4\n        /* \"#utility.yul\":29201:29219   */\n      add\n        /* \"#utility.yul\":29194:29242   */\n      mstore\n        /* \"#utility.yul\":29259:29337   */\n      tag_594\n        /* \"#utility.yul\":29332:29336   */\n      dup2\n        /* \"#utility.yul\":29323:29329   */\n      dup8\n        /* \"#utility.yul\":29259:29337   */\n      tag_313\n      jump\t// in\n    tag_594:\n        /* \"#utility.yul\":29251:29337   */\n      swap1\n      pop\n        /* \"#utility.yul\":29385:29394   */\n      dup2\n        /* \"#utility.yul\":29379:29383   */\n      dup2\n        /* \"#utility.yul\":29375:29395   */\n      sub\n        /* \"#utility.yul\":29369:29372   */\n      0x80\n        /* \"#utility.yul\":29358:29367   */\n      dup4\n        /* \"#utility.yul\":29354:29373   */\n      add\n        /* \"#utility.yul\":29347:29396   */\n      mstore\n        /* \"#utility.yul\":29413:29491   */\n      tag_595\n        /* \"#utility.yul\":29486:29490   */\n      dup2\n        /* \"#utility.yul\":29477:29483   */\n      dup7\n        /* \"#utility.yul\":29413:29491   */\n      tag_313\n      jump\t// in\n    tag_595:\n        /* \"#utility.yul\":29405:29491   */\n      swap1\n      pop\n        /* \"#utility.yul\":29539:29548   */\n      dup2\n        /* \"#utility.yul\":29533:29537   */\n      dup2\n        /* \"#utility.yul\":29529:29549   */\n      sub\n        /* \"#utility.yul\":29523:29526   */\n      0xa0\n        /* \"#utility.yul\":29512:29521   */\n      dup4\n        /* \"#utility.yul\":29508:29527   */\n      add\n        /* \"#utility.yul\":29501:29550   */\n      mstore\n        /* \"#utility.yul\":29567:29645   */\n      tag_596\n        /* \"#utility.yul\":29640:29644   */\n      dup2\n        /* \"#utility.yul\":29631:29637   */\n      dup6\n        /* \"#utility.yul\":29567:29645   */\n      tag_313\n      jump\t// in\n    tag_596:\n        /* \"#utility.yul\":29559:29645   */\n      swap1\n      pop\n        /* \"#utility.yul\":29693:29702   */\n      dup2\n        /* \"#utility.yul\":29687:29691   */\n      dup2\n        /* \"#utility.yul\":29683:29703   */\n      sub\n        /* \"#utility.yul\":29677:29680   */\n      0xc0\n        /* \"#utility.yul\":29666:29675   */\n      dup4\n        /* \"#utility.yul\":29662:29681   */\n      add\n        /* \"#utility.yul\":29655:29704   */\n      mstore\n        /* \"#utility.yul\":29721:29799   */\n      tag_597\n        /* \"#utility.yul\":29794:29798   */\n      dup2\n        /* \"#utility.yul\":29785:29791   */\n      dup5\n        /* \"#utility.yul\":29721:29799   */\n      tag_313\n      jump\t// in\n    tag_597:\n        /* \"#utility.yul\":29713:29799   */\n      swap1\n      pop\n        /* \"#utility.yul\":28283:29806   */\n      swap9\n      swap8\n      pop\n      pop\n      pop\n      pop\n      pop\n      pop\n      pop\n      pop\n      jump\t// out\n        /* \"#utility.yul\":29812:30466   */\n    tag_45:\n        /* \"#utility.yul\":29890:29896   */\n      0x00\n        /* \"#utility.yul\":29898:29904   */\n      dup1\n        /* \"#utility.yul\":29947:29949   */\n      0x40\n        /* \"#utility.yul\":29935:29944   */\n      dup4\n        /* \"#utility.yul\":29926:29933   */\n      dup6\n        /* \"#utility.yul\":29922:29945   */\n      sub\n        /* \"#utility.yul\":29918:29950   */\n      slt\n        /* \"#utility.yul\":29915:30034   */\n      iszero\n      tag_599\n      jumpi\n        /* \"#utility.yul\":29953:30032   */\n      tag_600\n      tag_259\n      jump\t// in\n    tag_600:\n        /* \"#utility.yul\":29915:30034   */\n    tag_599:\n        /* \"#utility.yul\":30073:30074   */\n      0x00\n        /* \"#utility.yul\":30098:30151   */\n      tag_601\n        /* \"#utility.yul\":30143:30150   */\n      dup6\n        /* \"#utility.yul\":30134:30140   */\n      dup3\n        /* \"#utility.yul\":30123:30132   */\n      dup7\n        /* \"#utility.yul\":30119:30141   */\n      add\n        /* \"#utility.yul\":30098:30151   */\n      tag_311\n      jump\t// in\n    tag_601:\n        /* \"#utility.yul\":30088:30151   */\n      swap3\n      pop\n        /* \"#utility.yul\":30044:30161   */\n      pop\n        /* \"#utility.yul\":30228:30230   */\n      0x20\n        /* \"#utility.yul\":30217:30226   */\n      dup4\n        /* \"#utility.yul\":30213:30231   */\n      add\n        /* \"#utility.yul\":30200:30232   */\n      calldataload\n        /* \"#utility.yul\":30259:30277   */\n      0xffffffffffffffff\n        /* \"#utility.yul\":30251:30257   */\n      dup2\n        /* \"#utility.yul\":30248:30278   */\n      gt\n        /* \"#utility.yul\":30245:30362   */\n      iszero\n      tag_602\n      jumpi\n        /* \"#utility.yul\":30281:30360   */\n      tag_603\n      tag_260\n      jump\t// in\n    tag_603:\n        /* \"#utility.yul\":30245:30362   */\n    tag_602:\n        /* \"#utility.yul\":30386:30449   */\n      tag_604\n        /* \"#utility.yul\":30441:30448   */\n      dup6\n        /* \"#utility.yul\":30432:30438   */\n      dup3\n        /* \"#utility.yul\":30421:30430   */\n      dup7\n        /* \"#utility.yul\":30417:30439   */\n      add\n        /* \"#utility.yul\":30386:30449   */\n      tag_272\n      jump\t// in\n    tag_604:\n        /* \"#utility.yul\":30376:30449   */\n      swap2\n      pop\n        /* \"#utility.yul\":30171:30459   */\n      pop\n        /* \"#utility.yul\":29812:30466   */\n      swap3\n      pop\n      swap3\n      swap1\n      pop\n      jump\t// out\n        /* \"#utility.yul\":30472:30652   */\n    tag_321:\n        /* \"#utility.yul\":30520:30597   */\n      0x4e487b7100000000000000000000000000000000000000000000000000000000\n        /* \"#utility.yul\":30517:30518   */\n      0x00\n        /* \"#utility.yul\":30510:30598   */\n      mstore\n        /* \"#utility.yul\":30617:30621   */\n      0x22\n        /* \"#utility.yul\":30614:30615   */\n      0x04\n        /* \"#utility.yul\":30607:30622   */\n      mstore\n        /* \"#utility.yul\":30641:30645   */\n      0x24\n        /* \"#utility.yul\":30638:30639   */\n      0x00\n        /* \"#utility.yul\":30631:30646   */\n      revert\n        /* \"#utility.yul\":30658:30978   */\n    tag_78:\n        /* \"#utility.yul\":30702:30708   */\n      0x00\n        /* \"#utility.yul\":30739:30740   */\n      0x02\n        /* \"#utility.yul\":30733:30737   */\n      dup3\n        /* \"#utility.yul\":30729:30741   */\n      div\n        /* \"#utility.yul\":30719:30741   */\n      swap1\n      pop\n        /* \"#utility.yul\":30786:30787   */\n      0x01\n        /* \"#utility.yul\":30780:30784   */\n      dup3\n        /* \"#utility.yul\":30776:30788   */\n      and\n        /* \"#utility.yul\":30807:30825   */\n      dup1\n        /* \"#utility.yul\":30797:30878   */\n      tag_607\n      jumpi\n        /* \"#utility.yul\":30863:30867   */\n      0x7f\n        /* \"#utility.yul\":30855:30861   */\n      dup3\n        /* \"#utility.yul\":30851:30868   */\n      and\n        /* \"#utility.yul\":30841:30868   */\n      swap2\n      pop\n        /* \"#utility.yul\":30797:30878   */\n    tag_607:\n        /* \"#utility.yul\":30925:30927   */\n      0x20\n        /* \"#utility.yul\":30917:30923   */\n      dup3\n        /* \"#utility.yul\":30914:30928   */\n      lt\n        /* \"#utility.yul\":30894:30912   */\n      dup2\n        /* \"#utility.yul\":30891:30929   */\n      sub\n        /* \"#utility.yul\":30888:30972   */\n      tag_608\n      jumpi\n        /* \"#utility.yul\":30944:30962   */\n      tag_609\n      tag_321\n      jump\t// in\n    tag_609:\n        /* \"#utility.yul\":30888:30972   */\n    tag_608:\n        /* \"#utility.yul\":30709:30978   */\n      pop\n        /* \"#utility.yul\":30658:30978   */\n      swap2\n      swap1\n      pop\n      jump\t// out\n        /* \"#utility.yul\":30984:31125   */\n    tag_322:\n        /* \"#utility.yul\":31033:31037   */\n      0x00\n        /* \"#utility.yul\":31056:31059   */\n      dup2\n        /* \"#utility.yul\":31048:31059   */\n      swap1\n      pop\n        /* \"#utility.yul\":31079:31082   */\n      dup2\n        /* \"#utility.yul\":31076:31077   */\n      0x00\n        /* \"#utility.yul\":31069:31083   */\n      mstore\n        /* \"#utility.yul\":31113:31117   */\n      0x20\n        /* \"#utility.yul\":31110:31111   */\n      0x00\n        /* \"#utility.yul\":31100:31118   */\n      keccak256\n        /* \"#utility.yul\":31092:31118   */\n      swap1\n      pop\n        /* \"#utility.yul\":30984:31125   */\n      swap2\n      swap1\n      pop\n      jump\t// out\n        /* \"#utility.yul\":31131:31224   */\n    tag_323:\n        /* \"#utility.yul\":31168:31174   */\n      0x00\n        /* \"#utility.yul\":31215:31217   */\n      0x20\n        /* \"#utility.yul\":31210:31212   */\n      0x1f\n        /* \"#utility.yul\":31203:31208   */\n      dup4\n        /* \"#utility.yul\":31199:31213   */\n      add\n        /* \"#utility.yul\":31195:31218   */\n      div\n        /* \"#utility.yul\":31185:31218   */\n      swap1\n      pop\n        /* \"#utility.yul\":31131:31224   */\n      swap2\n      swap1\n      pop\n      jump\t// out\n        /* \"#utility.yul\":31230:31337   */\n    tag_324:\n        /* \"#utility.yul\":31274:31282   */\n      0x00\n        /* \"#utility.yul\":31324:31329   */\n      dup3\n        /* \"#utility.yul\":31318:31322   */\n      dup3\n        /* \"#utility.yul\":31314:31330   */\n      shl\n        /* \"#utility.yul\":31293:31330   */\n      swap1\n      pop\n        /* \"#utility.yul\":31230:31337   */\n      swap3\n      swap2\n      pop\n      pop\n      jump\t// out\n        /* \"#utility.yul\":31343:31736   */\n    tag_325:\n        /* \"#utility.yul\":31412:31418   */\n      0x00\n        /* \"#utility.yul\":31462:31463   */\n      0x08\n        /* \"#utility.yul\":31450:31460   */\n      dup4\n        /* \"#utility.yul\":31446:31464   */\n      mul\n        /* \"#utility.yul\":31485:31582   */\n      tag_614\n        /* \"#utility.yul\":31515:31581   */\n      0xffffffffffffffffffffffffffffffffffffffffffffffffffffffffffffffff\n        /* \"#utility.yul\":31504:31513   */\n      dup3\n        /* \"#utility.yul\":31485:31582   */\n      tag_324\n      jump\t// in\n    tag_614:\n        /* \"#utility.yul\":31603:31642   */\n      tag_615\n        /* \"#utility.yul\":31633:31641   */\n      dup7\n        /* \"#utility.yul\":31622:31631   */\n      dup4\n        /* \"#utility.yul\":31603:31642   */\n      tag_324\n      jump\t// in\n    tag_615:\n        /* \"#utility.yul\":31591:31642   */\n      swap6\n      pop\n        /* \"#utility.yul\":31675:31679   */\n      dup1\n        /* \"#utility.yul\":31671:31680   */\n      not\n        /* \"#utility.yul\":31664:31669   */\n      dup5\n        /* \"#utility.yul\":31660:31681   */\n      and\n        /* \"#utility.yul\":31651:31681   */\n      swap4\n      pop\n        /* \"#utility.yul\":31724:31728   */\n      dup1\n        /* \"#utility.yul\":31714:31722   */\n      dup7\n        /* \"#utility.yul\":31710:31729   */\n      and\n        /* \"#utility.yul\":31703:31708   */\n      dup5\n        /* \"#utility.yul\":31700:31730   */\n      or\n        /* \"#utility.yul\":31690:31730   */\n      swap3\n      pop\n        /* \"#utility.yul\":31419:31736   */\n      pop\n      pop\n        /* \"#utility.yul\":31343:31736   */\n      swap4\n      swap3\n      pop\n      pop\n      pop\n      jump\t// out\n        /* \"#utility.yul\":31742:31802   */\n    tag_326:\n        /* \"#utility.yul\":31770:31773   */\n      0x00\n        /* \"#utility.yul\":31791:31796   */\n      dup2\n        /* \"#utility.yul\":31784:31796   */\n      swap1\n      pop\n        /* \"#utility.yul\":31742:31802   */\n      swap2\n      swap1\n      pop\n      jump\t// out\n        /* \"#utility.yul\":31808:31950   */\n    tag_327:\n        /* \"#utility.yul\":31858:31867   */\n      0x00\n        /* \"#utility.yul\":31891:31944   */\n      tag_618\n        /* \"#utility.yul\":31909:31943   */\n      tag_619\n        /* \"#utility.yul\":31918:31942   */\n      tag_620\n        /* \"#utility.yul\":31936:31941   */\n      dup5\n        /* \"#utility.yul\":31918:31942   */\n      tag_308\n      jump\t// in\n    tag_620:\n        /* \"#utility.yul\":31909:31943   */\n      tag_326\n      jump\t// in\n    tag_619:\n        /* \"#utility.yul\":31891:31944   */\n      tag_308\n      jump\t// in\n    tag_618:\n        /* \"#utility.yul\":31878:31944   */\n      swap1\n      pop\n        /* \"#utility.yul\":31808:31950   */\n      swap2\n      swap1\n      pop\n      jump\t// out\n        /* \"#utility.yul\":31956:32031   */\n    tag_328:\n        /* \"#utility.yul\":31999:32002   */\n      0x00\n        /* \"#utility.yul\":32020:32025   */\n      dup2\n        /* \"#utility.yul\":32013:32025   */\n      swap1\n      pop\n        /* \"#utility.yul\":31956:32031   */\n      swap2\n      swap1\n      pop\n      jump\t// out\n        /* \"#utility.yul\":32037:32306   */\n    tag_329:\n        /* \"#utility.yul\":32147:32186   */\n      tag_623\n        /* \"#utility.yul\":32178:32185   */\n      dup4\n        /* \"#utility.yul\":32147:32186   */\n      tag_327\n      jump\t// in\n    tag_623:\n        /* \"#utility.yul\":32208:32299   */\n      tag_624\n        /* \"#utility.yul\":32257:32298   */\n      tag_625\n        /* \"#utility.yul\":32281:32297   */\n      dup3\n        /* \"#utility.yul\":32257:32298   */\n      tag_328\n      jump\t// in\n    tag_625:\n        /* \"#utility.yul\":32249:32255   */\n      dup5\n        /* \"#utility.yul\":32242:32246   */\n      dup5\n        /* \"#utility.yul\":32236:32247   */\n      sload\n        /* \"#utility.yul\":32208:32299   */\n      tag_325\n      jump\t// in\n    tag_624:\n        /* \"#utility.yul\":32202:32206   */\n      dup3\n        /* \"#utility.yul\":32195:32300   */\n      sstore\n        /* \"#utility.yul\":32113:32306   */\n      pop\n        /* \"#utility.yul\":32037:32306   */\n      pop\n      pop\n      pop\n      jump\t// out\n        /* \"#utility.yul\":32312:32385   */\n    tag_330:\n        /* \"#utility.yul\":32357:32360   */\n      0x00\n        /* \"#utility.yul\":32312:32385   */\n      swap1\n      jump\t// out\n        /* \"#utility.yul\":32391:32580   */\n    tag_331:\n        /* \"#utility.yul\":32468:32500   */\n      tag_628\n      tag_330\n      jump\t// in\n    tag_628:\n        /* \"#utility.yul\":32509:32574   */\n      tag_629\n        /* \"#utility.yul\":32567:32573   */\n      dup2\n        /* \"#utility.yul\":32559:32565   */\n      dup5\n        /* \"#utility.yul\":32553:32557   */\n      dup5\n        /* \"#utility.yul\":32509:32574   */\n      tag_329\n      jump\t// in\n    tag_629:\n        /* \"#utility.yul\":32444:32580   */\n      pop\n        /* \"#utility.yul\":32391:32580   */\n      pop\n      pop\n      jump\t// out\n        /* \"#utility.yul\":32586:32772   */\n    tag_332:\n        /* \"#utility.yul\":32646:32766   */\n    tag_631:\n        /* \"#utility.yul\":32663:32666   */\n      dup2\n        /* \"#utility.yul\":32656:32661   */\n      dup2\n        /* \"#utility.yul\":32653:32667   */\n      lt\n        /* \"#utility.yul\":32646:32766   */\n      iszero\n      tag_633\n      jumpi\n        /* \"#utility.yul\":32717:32756   */\n      tag_634\n        /* \"#utility.yul\":32754:32755   */\n      0x00\n        /* \"#utility.yul\":32747:32752   */\n      dup3\n        /* \"#utility.yul\":32717:32756   */\n      tag_331\n      jump\t// in\n    tag_634:\n        /* \"#utility.yul\":32690:32691   */\n      0x01\n        /* \"#utility.yul\":32683:32688   */\n      dup2\n        /* \"#utility.yul\":32679:32692   */\n      add\n        /* \"#utility.yul\":32670:32692   */\n      swap1\n      pop\n        /* \"#utility.yul\":32646:32766   */\n      jump(tag_631)\n    tag_633:\n        /* \"#utility.yul\":32586:32772   */\n      pop\n      pop\n      jump\t// out\n        /* \"#utility.yul\":32778:33321   */\n    tag_333:\n        /* \"#utility.yul\":32879:32881   */\n      0x1f\n        /* \"#utility.yul\":32874:32877   */\n      dup3\n        /* \"#utility.yul\":32871:32882   */\n      gt\n        /* \"#utility.yul\":32868:33314   */\n      iszero\n      tag_636\n      jumpi\n        /* \"#utility.yul\":32913:32951   */\n      tag_637\n        /* \"#utility.yul\":32945:32950   */\n      dup2\n        /* \"#utility.yul\":32913:32951   */\n      tag_322\n      jump\t// in\n    tag_637:\n        /* \"#utility.yul\":32997:33026   */\n      tag_638\n        /* \"#utility.yul\":33015:33025   */\n      dup5\n        /* \"#utility.yul\":32997:33026   */\n      tag_323\n      jump\t// in\n    tag_638:\n        /* \"#utility.yul\":32987:32995   */\n      dup2\n        /* \"#utility.yul\":32983:33027   */\n      add\n        /* \"#utility.yul\":33180:33182   */\n      0x20\n        /* \"#utility.yul\":33168:33178   */\n      dup6\n        /* \"#utility.yul\":33165:33183   */\n      lt\n        /* \"#utility.yul\":33162:33211   */\n      iszero\n      tag_639\n      jumpi\n        /* \"#utility.yul\":33201:33209   */\n      dup2\n        /* \"#utility.yul\":33186:33209   */\n      swap1\n      pop\n        /* \"#utility.yul\":33162:33211   */\n    tag_639:\n        /* \"#utility.yul\":33224:33304   */\n      tag_640\n        /* \"#utility.yul\":33280:33302   */\n      tag_641\n        /* \"#utility.yul\":33298:33301   */\n      dup6\n        /* \"#utility.yul\":33280:33302   */\n      tag_323\n      jump\t// in\n    tag_641:\n        /* \"#utility.yul\":33270:33278   */\n      dup4\n        /* \"#utility.yul\":33266:33303   */\n      add\n        /* \"#utility.yul\":33253:33264   */\n      dup3\n        /* \"#utility.yul\":33224:33304   */\n      tag_332\n      jump\t// in\n    tag_640:\n        /* \"#utility.yul\":32883:33314   */\n      pop\n      pop\n        /* \"#utility.yul\":32868:33314   */\n    tag_636:\n        /* \"#utility.yul\":32778:33321   */\n      pop\n      pop\n      pop\n      jump\t// out\n        /* \"#utility.yul\":33327:33444   */\n    tag_334:\n        /* \"#utility.yul\":33381:33389   */\n      0x00\n        /* \"#utility.yul\":33431:33436   */\n      dup3\n        /* \"#utility.yul\":33425:33429   */\n      dup3\n        /* \"#utility.yul\":33421:33437   */\n      shr\n        /* \"#utility.yul\":33400:33437   */\n      swap1\n      pop\n        /* \"#utility.yul\":33327:33444   */\n      swap3\n      swap2\n      pop\n      pop\n      jump\t// out\n        /* \"#utility.yul\":33450:33619   */\n    tag_335:\n        /* \"#utility.yul\":33494:33500   */\n      0x00\n        /* \"#utility.yul\":33527:33578   */\n      tag_644\n        /* \"#utility.yul\":33575:33576   */\n      0x00\n        /* \"#utility.yul\":33571:33577   */\n      not\n        /* \"#utility.yul\":33563:33568   */\n      dup5\n        /* \"#utility.yul\":33560:33561   */\n      0x08\n        /* \"#utility.yul\":33556:33569   */\n      mul\n        /* \"#utility.yul\":33527:33578   */\n      tag_334\n      jump\t// in\n    tag_644:\n        /* \"#utility.yul\":33523:33579   */\n      not\n        /* \"#utility.yul\":33608:33612   */\n      dup1\n        /* \"#utility.yul\":33602:33606   */\n      dup4\n        /* \"#utility.yul\":33598:33613   */\n      and\n        /* \"#utility.yul\":33588:33613   */\n      swap2\n      pop\n        /* \"#utility.yul\":33501:33619   */\n      pop\n        /* \"#utility.yul\":33450:33619   */\n      swap3\n      swap2\n      pop\n      pop\n      jump\t// out\n        /* \"#utility.yul\":33624:33919   */\n    tag_336:\n        /* \"#utility.yul\":33700:33704   */\n      0x00\n        /* \"#utility.yul\":33846:33875   */\n      tag_646\n        /* \"#utility.yul\":33871:33874   */\n      dup4\n        /* \"#utility.yul\":33865:33869   */\n      dup4\n        /* \"#utility.yul\":33846:33875   */\n      tag_335\n      jump\t// in\n    tag_646:\n        /* \"#utility.yul\":33838:33875   */\n      swap2\n      pop\n        /* \"#utility.yul\":33908:33911   */\n      dup3\n        /* \"#utility.yul\":33905:33906   */\n      0x02\n        /* \"#utility.yul\":33901:33912   */\n      mul\n        /* \"#utility.yul\":33895:33899   */\n      dup3\n        /* \"#utility.yul\":33892:33913   */\n      or\n        /* \"#utility.yul\":33884:33913   */\n      swap1\n      pop\n        /* \"#utility.yul\":33624:33919   */\n      swap3\n      swap2\n      pop\n      pop\n      jump\t// out\n        /* \"#utility.yul\":33924:35319   */\n    tag_52:\n        /* \"#utility.yul\":34041:34078   */\n      tag_648\n        /* \"#utility.yul\":34074:34077   */\n      dup3\n        /* \"#utility.yul\":34041:34078   */\n      tag_287\n      jump\t// in\n    tag_648:\n        /* \"#utility.yul\":34143:34161   */\n      0xffffffffffffffff\n        /* \"#utility.yul\":34135:34141   */\n      dup2\n        /* \"#utility.yul\":34132:34162   */\n      gt\n        /* \"#utility.yul\":34129:34185   */\n      iszero\n      tag_649\n      jumpi\n        /* \"#utility.yul\":34165:34183   */\n      tag_650\n      tag_263\n      jump\t// in\n    tag_650:\n        /* \"#utility.yul\":34129:34185   */\n    tag_649:\n        /* \"#utility.yul\":34209:34247   */\n      tag_651\n        /* \"#utility.yul\":34241:34245   */\n      dup3\n        /* \"#utility.yul\":34235:34246   */\n      sload\n        /* \"#utility.yul\":34209:34247   */\n      tag_78\n      jump\t// in\n    tag_651:\n        /* \"#utility.yul\":34294:34361   */\n      tag_652\n        /* \"#utility.yul\":34354:34360   */\n      dup3\n        /* \"#utility.yul\":34346:34352   */\n      dup3\n        /* \"#utility.yul\":34340:34344   */\n      dup6\n        /* \"#utility.yul\":34294:34361   */\n      tag_333\n      jump\t// in\n    tag_652:\n        /* \"#utility.yul\":34388:34389   */\n      0x00\n        /* \"#utility.yul\":34412:34416   */\n      0x20\n        /* \"#utility.yul\":34399:34416   */\n      swap1\n      pop\n        /* \"#utility.yul\":34444:34446   */\n      0x1f\n        /* \"#utility.yul\":34436:34442   */\n      dup4\n        /* \"#utility.yul\":34433:34447   */\n      gt\n        /* \"#utility.yul\":34461:34462   */\n      0x01\n        /* \"#utility.yul\":34456:35074   */\n      dup2\n      eq\n      tag_654\n      jumpi\n        /* \"#utility.yul\":35118:35119   */\n      0x00\n        /* \"#utility.yul\":35135:35141   */\n      dup5\n        /* \"#utility.yul\":35132:35209   */\n      iszero\n      tag_655\n      jumpi\n        /* \"#utility.yul\":35184:35193   */\n      dup3\n        /* \"#utility.yul\":35179:35182   */\n      dup8\n        /* \"#utility.yul\":35175:35194   */\n      add\n        /* \"#utility.yul\":35169:35195   */\n      mload\n        /* \"#utility.yul\":35160:35195   */\n      swap1\n      pop\n        /* \"#utility.yul\":35132:35209   */\n    tag_655:\n        /* \"#utility.yul\":35235:35302   */\n      tag_656\n        /* \"#utility.yul\":35295:35301   */\n      dup6\n        /* \"#utility.yul\":35288:35293   */\n      dup3\n        /* \"#utility.yul\":35235:35302   */\n      tag_336\n      jump\t// in\n    tag_656:\n        /* \"#utility.yul\":35229:35233   */\n      dup7\n        /* \"#utility.yul\":35222:35303   */\n      sstore\n        /* \"#utility.yul\":35091:35313   */\n      pop\n        /* \"#utility.yul\":34426:35313   */\n      jump(tag_653)\n        /* \"#utility.yul\":34456:35074   */\n    tag_654:\n        /* \"#utility.yul\":34508:34512   */\n      0x1f\n        /* \"#utility.yul\":34504:34513   */\n      not\n        /* \"#utility.yul\":34496:34502   */\n      dup5\n        /* \"#utility.yul\":34492:34514   */\n      and\n        /* \"#utility.yul\":34542:34579   */\n      tag_657\n        /* \"#utility.yul\":34574:34578   */\n      dup7\n        /* \"#utility.yul\":34542:34579   */\n      tag_322\n      jump\t// in\n    tag_657:\n        /* \"#utility.yul\":34601:34602   */\n      0x00\n        /* \"#utility.yul\":34615:34823   */\n    tag_658:\n        /* \"#utility.yul\":34629:34636   */\n      dup3\n        /* \"#utility.yul\":34626:34627   */\n      dup2\n        /* \"#utility.yul\":34623:34637   */\n      lt\n        /* \"#utility.yul\":34615:34823   */\n      iszero\n      tag_660\n      jumpi\n        /* \"#utility.yul\":34708:34717   */\n      dup5\n        /* \"#utility.yul\":34703:34706   */\n      dup10\n        /* \"#utility.yul\":34699:34718   */\n      add\n        /* \"#utility.yul\":34693:34719   */\n      mload\n        /* \"#utility.yul\":34685:34691   */\n      dup3\n        /* \"#utility.yul\":34678:34720   */\n      sstore\n        /* \"#utility.yul\":34759:34760   */\n      0x01\n        /* \"#utility.yul\":34751:34757   */\n      dup3\n        /* \"#utility.yul\":34747:34761   */\n      add\n        /* \"#utility.yul\":34737:34761   */\n      swap2\n      pop\n        /* \"#utility.yul\":34806:34808   */\n      0x20\n        /* \"#utility.yul\":34795:34804   */\n      dup6\n        /* \"#utility.yul\":34791:34809   */\n      add\n        /* \"#utility.yul\":34778:34809   */\n      swap5\n      pop\n        /* \"#utility.yul\":34652:34656   */\n      0x20\n        /* \"#utility.yul\":34649:34650   */\n      dup2\n        /* \"#utility.yul\":34645:34657   */\n      add\n        /* \"#utility.yul\":34640:34657   */\n      swap1\n      pop\n        /* \"#utility.yul\":34615:34823   */\n      jump(tag_658)\n    tag_660:\n        /* \"#utility.yul\":34851:34857   */\n      dup7\n        /* \"#utility.yul\":34842:34849   */\n      dup4\n        /* \"#utility.yul\":34839:34858   */\n      lt\n        /* \"#utility.yul\":34836:35015   */\n      iszero\n      tag_661\n      jumpi\n        /* \"#utility.yul\":34909:34918   */\n      dup5\n        /* \"#utility.yul\":34904:34907   */\n      dup10\n        /* \"#utility.yul\":34900:34919   */\n      add\n        /* \"#utility.yul\":34894:34920   */\n      mload\n        /* \"#utility.yul\":34952:35000   */\n      tag_662\n        /* \"#utility.yul\":34994:34998   */\n      0x1f\n        /* \"#utility.yul\":34986:34992   */\n      dup10\n        /* \"#utility.yul\":34982:34999   */\n      and\n        /* \"#utility.yul\":34971:34980   */\n      dup3\n        /* \"#utility.yul\":34952:35000   */\n      tag_335\n      jump\t// in\n    tag_662:\n        /* \"#utility.yul\":34944:34950   */\n      dup4\n        /* \"#utility.yul\":34937:35001   */\n      sstore\n        /* \"#utility.yul\":34859:35015   */\n      pop\n        /* \"#utility.yul\":34836:35015   */\n    tag_661:\n        /* \"#utility.yul\":35061:35062   */\n      0x01\n        /* \"#utility.yul\":35057:35058   */\n      0x02\n        /* \"#utility.yul\":35049:35055   */\n      dup9\n        /* \"#utility.yul\":35045:35059   */\n      mul\n        /* \"#utility.yul\":35041:35063   */\n      add\n        /* \"#utility.yul\":35035:35039   */\n      dup9\n        /* \"#utility.yul\":35028:35064   */\n      sstore\n        /* \"#utility.yul\":34463:35074   */\n      pop\n      pop\n      pop\n        /* \"#utility.yul\":34426:35313   */\n    tag_653:\n      pop\n        /* \"#utility.yul\":34016:35319   */\n      pop\n      pop\n      pop\n        /* \"#utility.yul\":33924:35319   */\n      pop\n      pop\n      jump\t// out\n        /* \"#utility.yul\":35325:35505   */\n    tag_216:\n        /* \"#utility.yul\":35373:35450   */\n      0x4e487b7100000000000000000000000000000000000000000000000000000000\n        /* \"#utility.yul\":35370:35371   */\n      0x00\n        /* \"#utility.yul\":35363:35451   */\n      mstore\n        /* \"#utility.yul\":35470:35474   */\n      0x32\n        /* \"#utility.yul\":35467:35468   */\n      0x04\n        /* \"#utility.yul\":35460:35475   */\n      mstore\n        /* \"#utility.yul\":35494:35498   */\n      0x24\n        /* \"#utility.yul\":35491:35492   */\n      0x00\n        /* \"#utility.yul\":35484:35499   */\n      revert\n        /* \"#utility.yul\":35511:35659   */\n    tag_337:\n        /* \"#utility.yul\":35613:35624   */\n      0x00\n        /* \"#utility.yul\":35650:35653   */\n      dup2\n        /* \"#utility.yul\":35635:35653   */\n      swap1\n      pop\n        /* \"#utility.yul\":35511:35659   */\n      swap3\n      swap2\n      pop\n      pop\n      jump\t// out\n        /* \"#utility.yul\":35665:36055   */\n    tag_338:\n        /* \"#utility.yul\":35771:35774   */\n      0x00\n        /* \"#utility.yul\":35799:35838   */\n      tag_666\n        /* \"#utility.yul\":35832:35837   */\n      dup3\n        /* \"#utility.yul\":35799:35838   */\n      tag_287\n      jump\t// in\n    tag_666:\n        /* \"#utility.yul\":35854:35943   */\n      tag_667\n        /* \"#utility.yul\":35936:35942   */\n      dup2\n        /* \"#utility.yul\":35931:35934   */\n      dup6\n        /* \"#utility.yul\":35854:35943   */\n      tag_337\n      jump\t// in\n    tag_667:\n        /* \"#utility.yul\":35847:35943   */\n      swap4\n      pop\n        /* \"#utility.yul\":35952:36017   */\n      tag_668\n        /* \"#utility.yul\":36010:36016   */\n      dup2\n        /* \"#utility.yul\":36005:36008   */\n      dup6\n        /* \"#utility.yul\":35998:36002   */\n      0x20\n        /* \"#utility.yul\":35991:35996   */\n      dup7\n        /* \"#utility.yul\":35987:36003   */\n      add\n        /* \"#utility.yul\":35952:36017   */\n      tag_289\n      jump\t// in\n    tag_668:\n        /* \"#utility.yul\":36042:36048   */\n      dup1\n        /* \"#utility.yul\":36037:36040   */\n      dup5\n        /* \"#utility.yul\":36033:36049   */\n      add\n        /* \"#utility.yul\":36026:36049   */\n      swap2\n      pop\n        /* \"#utility.yul\":35775:36055   */\n      pop\n        /* \"#utility.yul\":35665:36055   */\n      swap3\n      swap2\n      pop\n      pop\n      jump\t// out\n        /* \"#utility.yul\":36061:36336   */\n    tag_221:\n        /* \"#utility.yul\":36193:36196   */\n      0x00\n        /* \"#utility.yul\":36215:36310   */\n      tag_670\n        /* \"#utility.yul\":36306:36309   */\n      dup3\n        /* \"#utility.yul\":36297:36303   */\n      dup5\n        /* \"#utility.yul\":36215:36310   */\n      tag_338\n      jump\t// in\n    tag_670:\n        /* \"#utility.yul\":36208:36310   */\n      swap2\n      pop\n        /* \"#utility.yul\":36327:36330   */\n      dup2\n        /* \"#utility.yul\":36320:36330   */\n      swap1\n      pop\n        /* \"#utility.yul\":36061:36336   */\n      swap3\n      swap2\n      pop\n      pop\n      jump\t// out\n        /* \"#utility.yul\":36366:37240   */\n    tag_339:\n        /* \"#utility.yul\":36469:36472   */\n      0x00\n        /* \"#utility.yul\":36506:36511   */\n      dup2\n        /* \"#utility.yul\":36500:36512   */\n      sload\n        /* \"#utility.yul\":36535:36571   */\n      tag_672\n        /* \"#utility.yul\":36561:36570   */\n      dup2\n        /* \"#utility.yul\":36535:36571   */\n      tag_78\n      jump\t// in\n    tag_672:\n        /* \"#utility.yul\":36587:36676   */\n      tag_673\n        /* \"#utility.yul\":36669:36675   */\n      dup2\n        /* \"#utility.yul\":36664:36667   */\n      dup7\n        /* \"#utility.yul\":36587:36676   */\n      tag_337\n      jump\t// in\n    tag_673:\n        /* \"#utility.yul\":36580:36676   */\n      swap5\n      pop\n        /* \"#utility.yul\":36707:36708   */\n      0x01\n        /* \"#utility.yul\":36696:36705   */\n      dup3\n        /* \"#utility.yul\":36692:36709   */\n      and\n        /* \"#utility.yul\":36723:36724   */\n      0x00\n        /* \"#utility.yul\":36718:36884   */\n      dup2\n      eq\n      tag_675\n      jumpi\n        /* \"#utility.yul\":36898:36899   */\n      0x01\n        /* \"#utility.yul\":36893:37234   */\n      dup2\n      eq\n      tag_676\n      jumpi\n        /* \"#utility.yul\":36685:37234   */\n      jump(tag_674)\n        /* \"#utility.yul\":36718:36884   */\n    tag_675:\n        /* \"#utility.yul\":36802:36806   */\n      0xff\n        /* \"#utility.yul\":36798:36807   */\n      not\n        /* \"#utility.yul\":36787:36796   */\n      dup4\n        /* \"#utility.yul\":36783:36808   */\n      and\n        /* \"#utility.yul\":36778:36781   */\n      dup7\n        /* \"#utility.yul\":36771:36809   */\n      mstore\n        /* \"#utility.yul\":36864:36870   */\n      dup2\n        /* \"#utility.yul\":36857:36871   */\n      iszero\n        /* \"#utility.yul\":36850:36872   */\n      iszero\n        /* \"#utility.yul\":36842:36848   */\n      dup3\n        /* \"#utility.yul\":36838:36873   */\n      mul\n        /* \"#utility.yul\":36833:36836   */\n      dup7\n        /* \"#utility.yul\":36829:36874   */\n      add\n        /* \"#utility.yul\":36822:36874   */\n      swap4\n      pop\n        /* \"#utility.yul\":36718:36884   */\n      jump(tag_674)\n        /* \"#utility.yul\":36893:37234   */\n    tag_676:\n        /* \"#utility.yul\":36960:36998   */\n      tag_677\n        /* \"#utility.yul\":36992:36997   */\n      dup6\n        /* \"#utility.yul\":36960:36998   */\n      tag_322\n      jump\t// in\n    tag_677:\n        /* \"#utility.yul\":37020:37021   */\n      0x00\n        /* \"#utility.yul\":37034:37188   */\n    tag_678:\n        /* \"#utility.yul\":37048:37054   */\n      dup4\n        /* \"#utility.yul\":37045:37046   */\n      dup2\n        /* \"#utility.yul\":37042:37055   */\n      lt\n        /* \"#utility.yul\":37034:37188   */\n      iszero\n      tag_680\n      jumpi\n        /* \"#utility.yul\":37122:37129   */\n      dup2\n        /* \"#utility.yul\":37116:37130   */\n      sload\n        /* \"#utility.yul\":37112:37113   */\n      dup2\n        /* \"#utility.yul\":37107:37110   */\n      dup10\n        /* \"#utility.yul\":37103:37114   */\n      add\n        /* \"#utility.yul\":37096:37131   */\n      mstore\n        /* \"#utility.yul\":37172:37173   */\n      0x01\n        /* \"#utility.yul\":37163:37170   */\n      dup3\n        /* \"#utility.yul\":37159:37174   */\n      add\n        /* \"#utility.yul\":37148:37174   */\n      swap2\n      pop\n        /* \"#utility.yul\":37070:37074   */\n      0x20\n        /* \"#utility.yul\":37067:37068   */\n      dup2\n        /* \"#utility.yul\":37063:37075   */\n      add\n        /* \"#utility.yul\":37058:37075   */\n      swap1\n      pop\n        /* \"#utility.yul\":37034:37188   */\n      jump(tag_678)\n    tag_680:\n        /* \"#utility.yul\":37217:37223   */\n      dup4\n        /* \"#utility.yul\":37212:37215   */\n      dup9\n        /* \"#utility.yul\":37208:37224   */\n      add\n        /* \"#utility.yul\":37201:37224   */\n      swap6\n      pop\n        /* \"#utility.yul\":36900:37234   */\n      pop\n      pop\n        /* \"#utility.yul\":36685:37234   */\n    tag_674:\n      pop\n        /* \"#utility.yul\":36473:37240   */\n      pop\n      pop\n        /* \"#utility.yul\":36366:37240   */\n      swap3\n      swap2\n      pop\n      pop\n      jump\t// out\n        /* \"#utility.yul\":37246:37515   */\n    tag_226:\n        /* \"#utility.yul\":37375:37378   */\n      0x00\n        /* \"#utility.yul\":37397:37489   */\n      tag_682\n        /* \"#utility.yul\":37485:37488   */\n      dup3\n        /* \"#utility.yul\":37476:37482   */\n      dup5\n        /* \"#utility.yul\":37397:37489   */\n      tag_339\n      jump\t// in\n    tag_682:\n        /* \"#utility.yul\":37390:37489   */\n      swap2\n      pop\n        /* \"#utility.yul\":37506:37509   */\n      dup2\n        /* \"#utility.yul\":37499:37509   */\n      swap1\n      pop\n        /* \"#utility.yul\":37246:37515   */\n      swap3\n      swap2\n      pop\n      pop\n      jump\t// out\n        /* \"#utility.yul\":37521:37701   */\n    tag_340:\n        /* \"#utility.yul\":37569:37646   */\n      0x4e487b7100000000000000000000000000000000000000000000000000000000\n        /* \"#utility.yul\":37566:37567   */\n      0x00\n        /* \"#utility.yul\":37559:37647   */\n      mstore\n        /* \"#utility.yul\":37666:37670   */\n      0x11\n        /* \"#utility.yul\":37663:37664   */\n      0x04\n        /* \"#utility.yul\":37656:37671   */\n      mstore\n        /* \"#utility.yul\":37690:37694   */\n      0x24\n        /* \"#utility.yul\":37687:37688   */\n      0x00\n        /* \"#utility.yul\":37680:37695   */\n      revert\n        /* \"#utility.yul\":37707:37940   */\n    tag_233:\n        /* \"#utility.yul\":37746:37749   */\n      0x00\n        /* \"#utility.yul\":37769:37793   */\n      tag_685\n        /* \"#utility.yul\":37787:37792   */\n      dup3\n        /* \"#utility.yul\":37769:37793   */\n      tag_308\n      jump\t// in\n    tag_685:\n        /* \"#utility.yul\":37760:37793   */\n      swap2\n      pop\n        /* \"#utility.yul\":37815:37881   */\n      0xffffffffffffffffffffffffffffffffffffffffffffffffffffffffffffffff\n        /* \"#utility.yul\":37808:37813   */\n      dup3\n        /* \"#utility.yul\":37805:37882   */\n      sub\n        /* \"#utility.yul\":37802:37905   */\n      tag_686\n      jumpi\n        /* \"#utility.yul\":37885:37903   */\n      tag_687\n      tag_340\n      jump\t// in\n    tag_687:\n        /* \"#utility.yul\":37802:37905   */\n    tag_686:\n        /* \"#utility.yul\":37932:37933   */\n      0x01\n        /* \"#utility.yul\":37925:37930   */\n      dup3\n        /* \"#utility.yul\":37921:37934   */\n      add\n        /* \"#utility.yul\":37914:37934   */\n      swap1\n      pop\n        /* \"#utility.yul\":37707:37940   */\n      swap2\n      swap1\n      pop\n      jump\t// out\n\n    auxdata: 0xa2646970667358221220891c5d8dcb4b996d3fd91d0bc85115a25e7f232d4902af110debcd864297990064736f6c63430008120033\n}\n",
				"bytecode": {
					"linkReferences": {},
					"object": "6080604052600060025534801561001557600080fd5b50612987806100256000396000f3fe608060405234801561001057600080fd5b50600436106100885760003560e01c806371e5ee5f1161005b57806371e5ee5f14610101578063e56fe28914610133578063edf0099b14610151578063f745630f1461018757610088565b80631dcdffac1461008d5780632be725ad146100a95780634d395307146100c557806356d88e27146100e3575b600080fd5b6100a760048036038101906100a29190611bff565b6101a3565b005b6100c360048036038101906100be9190611c48565b610356565b005b6100cd61043d565b6040516100da91906120a2565b60405180910390f35b6100eb610783565b6040516100f891906120dd565b60405180910390f35b61011b60048036038101906101169190612124565b61078f565b60405161012a9392919061219b565b60405180910390f35b61013b610961565b60405161014891906123c2565b60405180910390f35b61016b60048036038101906101669190612124565b610f48565b60405161017e97969594939291906123e4565b60405180910390f35b6101a1600480360381019061019c9190612484565b611352565b005b6101ab6114e8565b81600001518160000181905250816020015181602001819052508160400151816040018190525081606001518160600181905250816080015181608001819052508160a001518160a001819052508160c001518160c001819052508160e001518160e0018190525081610100015181610100018190525081610120015181610120018190525060018190806001815401808255809150506001900390600052602060002090600a0201600090919091909150600082015181600001908161027291906126ec565b50602082015181600101908051906020019061028f92919061153b565b5060408201518160020190805190602001906102ac929190611594565b5060608201518160030190816102c291906126ec565b5060808201518160040190816102d891906126ec565b5060a08201518160050190805190602001906102f5929190611594565b5060c082015181600601908161030b91906126ec565b5060e082015181600701908161032191906126ec565b5061010082015181600801908161033891906126ec565b5061012082015181600901908161034f91906126ec565b5050505050565b61035e6115e1565b858160000181905250848160200181905250838160400181905250828160600181905250818160800181905250600081908060018154018082558091505060019003906000526020600020906005020160009091909190915060008201518160000190816103cc91906126ec565b5060208201518160010190805190602001906103e992919061153b565b506040820151816002019080519060200190610406929190611594565b50606082015181600301908161041c91906126ec565b50608082015181600401908161043291906126ec565b505050505050505050565b60606000805480602002602001604051908101604052809291908181526020016000905b8282101561077a57838290600052602060002090600502016040518060a00160405290816000820180546104949061250f565b80601f01602080910402602001604051908101604052809291908181526020018280546104c09061250f565b801561050d5780601f106104e25761010080835404028352916020019161050d565b820191906000526020600020905b8154815290600101906020018083116104f057829003601f168201915b5050505050815260200160018201805480602002602001604051908101604052809291908181526020016000905b828210156105e757838290600052602060002001805461055a9061250f565b80601f01602080910402602001604051908101604052809291908181526020018280546105869061250f565b80156105d35780601f106105a8576101008083540402835291602001916105d3565b820191906000526020600020905b8154815290600101906020018083116105b657829003601f168201915b50505050508152602001906001019061053b565b5050505081526020016002820180548060200260200160405190810160405280929190818152602001828054801561063e57602002820191906000526020600020905b81548152602001906001019080831161062a575b505050505081526020016003820180546106579061250f565b80601f01602080910402602001604051908101604052809291908181526020018280546106839061250f565b80156106d05780601f106106a5576101008083540402835291602001916106d0565b820191906000526020600020905b8154815290600101906020018083116106b357829003601f168201915b505050505081526020016004820180546106e99061250f565b80601f01602080910402602001604051908101604052809291908181526020018280546107159061250f565b80156107625780601f1061073757610100808354040283529160200191610762565b820191906000526020600020905b81548152906001019060200180831161074557829003601f168201915b50505050508152505081526020019060010190610461565b50505050905090565b60008080549050905090565b6000818154811061079f57600080fd5b90600052602060002090600502016000915090508060000180546107c29061250f565b80601f01602080910402602001604051908101604052809291908181526020018280546107ee9061250f565b801561083b5780601f106108105761010080835404028352916020019161083b565b820191906000526020600020905b81548152906001019060200180831161081e57829003601f168201915b5050505050908060030180546108509061250f565b80601f016020809104026020016040519081016040528092919081815260200182805461087c9061250f565b80156108c95780601f1061089e576101008083540402835291602001916108c9565b820191906000526020600020905b8154815290600101906020018083116108ac57829003601f168201915b5050505050908060040180546108de9061250f565b80601f016020809104026020016040519081016040528092919081815260200182805461090a9061250f565b80156109575780601f1061092c57610100808354040283529160200191610957565b820191906000526020600020905b81548152906001019060200180831161093a57829003601f168201915b5050505050905083565b60606001805480602002602001604051908101604052809291908181526020016000905b82821015610f3f57838290600052602060002090600a0201604051806101400160405290816000820180546109b99061250f565b80601f01602080910402602001604051908101604052809291908181526020018280546109e59061250f565b8015610a325780601f10610a0757610100808354040283529160200191610a32565b820191906000526020600020905b815481529060010190602001808311610a1557829003601f168201915b5050505050815260200160018201805480602002602001604051908101604052809291908181526020016000905b82821015610b0c578382906000526020600020018054610a7f9061250f565b80601f0160208091040260200160405190810160405280929190818152602001828054610aab9061250f565b8015610af85780601f10610acd57610100808354040283529160200191610af8565b820191906000526020600020905b815481529060010190602001808311610adb57829003601f168201915b505050505081526020019060010190610a60565b50505050815260200160028201805480602002602001604051908101604052809291908181526020018280548015610b6357602002820191906000526020600020905b815481526020019060010190808311610b4f575b50505050508152602001600382018054610b7c9061250f565b80601f0160208091040260200160405190810160405280929190818152602001828054610ba89061250f565b8015610bf55780601f10610bca57610100808354040283529160200191610bf5565b820191906000526020600020905b815481529060010190602001808311610bd857829003601f168201915b50505050508152602001600482018054610c0e9061250f565b80601f0160208091040260200160405190810160405280929190818152602001828054610c3a9061250f565b8015610c875780601f10610c5c57610100808354040283529160200191610c87565b820191906000526020600020905b815481529060010190602001808311610c6a57829003601f168201915b5050505050815260200160058201805480602002602001604051908101604052809291908181526020018280548015610cdf57602002820191906000526020600020905b815481526020019060010190808311610ccb575b50505050508152602001600682018054610cf89061250f565b80601f0160208091040260200160405190810160405280929190818152602001828054610d249061250f565b8015610d715780601f10610d4657610100808354040283529160200191610d71565b820191906000526020600020905b815481529060010190602001808311610d5457829003601f168201915b50505050508152602001600782018054610d8a9061250f565b80601f0160208091040260200160405190810160405280929190818152602001828054610db69061250f565b8015610e035780601f10610dd857610100808354040283529160200191610e03565b820191906000526020600020905b815481529060010190602001808311610de657829003601f168201915b50505050508152602001600882018054610e1c9061250f565b80601f0160208091040260200160405190810160405280929190818152602001828054610e489061250f565b8015610e955780601f10610e6a57610100808354040283529160200191610e95565b820191906000526020600020905b815481529060010190602001808311610e7857829003601f168201915b50505050508152602001600982018054610eae9061250f565b80601f0160208091040260200160405190810160405280929190818152602001828054610eda9061250f565b8015610f275780601f10610efc57610100808354040283529160200191610f27565b820191906000526020600020905b815481529060010190602001808311610f0a57829003601f168201915b50505050508152505081526020019060010190610985565b50505050905090565b60018181548110610f5857600080fd5b90600052602060002090600a0201600091509050806000018054610f7b9061250f565b80601f0160208091040260200160405190810160405280929190818152602001828054610fa79061250f565b8015610ff45780601f10610fc957610100808354040283529160200191610ff4565b820191906000526020600020905b815481529060010190602001808311610fd757829003601f168201915b5050505050908060030180546110099061250f565b80601f01602080910402602001604051908101604052809291908181526020018280546110359061250f565b80156110825780601f1061105757610100808354040283529160200191611082565b820191906000526020600020905b81548152906001019060200180831161106557829003601f168201915b5050505050908060040180546110979061250f565b80601f01602080910402602001604051908101604052809291908181526020018280546110c39061250f565b80156111105780601f106110e557610100808354040283529160200191611110565b820191906000526020600020905b8154815290600101906020018083116110f357829003601f168201915b5050505050908060060180546111259061250f565b80601f01602080910402602001604051908101604052809291908181526020018280546111519061250f565b801561119e5780601f106111735761010080835404028352916020019161119e565b820191906000526020600020905b81548152906001019060200180831161118157829003601f168201915b5050505050908060070180546111b39061250f565b80601f01602080910402602001604051908101604052809291908181526020018280546111df9061250f565b801561122c5780601f106112015761010080835404028352916020019161122c565b820191906000526020600020905b81548152906001019060200180831161120f57829003601f168201915b5050505050908060080180546112419061250f565b80601f016020809104026020016040519081016040528092919081815260200182805461126d9061250f565b80156112ba5780601f1061128f576101008083540402835291602001916112ba565b820191906000526020600020905b81548152906001019060200180831161129d57829003601f168201915b5050505050908060090180546112cf9061250f565b80601f01602080910402602001604051908101604052809291908181526020018280546112fb9061250f565b80156113485780601f1061131d57610100808354040283529160200191611348565b820191906000526020600020905b81548152906001019060200180831161132b57829003601f168201915b5050505050905087565b60006002819055505b60018054905060025410156114e45781600254036113e2576040518060400160405280600881526020017f61636365707465640000000000000000000000000000000000000000000000008152506001600254815481106113bf576113be6127be565b5b90600052602060002090600a020160080190816113dc91906126ec565b506114c7565b806040516020016113f39190612829565b6040516020818303038152906040528051906020012060016002548154811061141f5761141e6127be565b5b90600052602060002090600a020160070160405160200161144091906128c3565b60405160208183030381529060405280519060200120036114c6576040518060400160405280600881526020017f72656a65637465640000000000000000000000000000000000000000000000008152506001600254815481106114a7576114a66127be565b5b90600052602060002090600a020160080190816114c491906126ec565b505b5b600260008154809291906114da90612909565b919050555061135b565b5050565b604051806101400160405280606081526020016060815260200160608152602001606081526020016060815260200160608152602001606081526020016060815260200160608152602001606081525090565b828054828255906000526020600020908101928215611583579160200282015b8281111561158257825182908161157291906126ec565b509160200191906001019061155b565b5b5090506115909190611610565b5090565b8280548282559060005260206000209081019282156115d0579160200282015b828111156115cf5782518255916020019190600101906115b4565b5b5090506115dd9190611634565b5090565b6040518060a0016040528060608152602001606081526020016060815260200160608152602001606081525090565b5b8082111561163057600081816116279190611651565b50600101611611565b5090565b5b8082111561164d576000816000905550600101611635565b5090565b50805461165d9061250f565b6000825580601f1061166f575061168e565b601f01602090049060005260206000209081019061168d9190611691565b5b50565b5b808211156116aa576000816000905550600101611692565b5090565b6000604051905090565b600080fd5b600080fd5b600080fd5b6000601f19601f8301169050919050565b7f4e487b7100000000000000000000000000000000000000000000000000000000600052604160045260246000fd5b611710826116c7565b810181811067ffffffffffffffff8211171561172f5761172e6116d8565b5b80604052505050565b60006117426116ae565b905061174e8282611707565b919050565b600080fd5b600080fd5b600080fd5b600067ffffffffffffffff82111561177d5761177c6116d8565b5b611786826116c7565b9050602081019050919050565b82818337600083830152505050565b60006117b56117b084611762565b611738565b9050828152602081018484840111156117d1576117d061175d565b5b6117dc848285611793565b509392505050565b600082601f8301126117f9576117f8611758565b5b81356118098482602086016117a2565b91505092915050565b600067ffffffffffffffff82111561182d5761182c6116d8565b5b602082029050602081019050919050565b600080fd5b600061185661185184611812565b611738565b905080838252602082019050602084028301858111156118795761187861183e565b5b835b818110156118c057803567ffffffffffffffff81111561189e5761189d611758565b5b8086016118ab89826117e4565b8552602085019450505060208101905061187b565b5050509392505050565b600082601f8301126118df576118de611758565b5b81356118ef848260208601611843565b91505092915050565b600067ffffffffffffffff821115611913576119126116d8565b5b602082029050602081019050919050565b6000819050919050565b61193781611924565b811461194257600080fd5b50565b6000813590506119548161192e565b92915050565b600061196d611968846118f8565b611738565b905080838252602082019050602084028301858111156119905761198f61183e565b5b835b818110156119b957806119a58882611945565b845260208401935050602081019050611992565b5050509392505050565b600082601f8301126119d8576119d7611758565b5b81356119e884826020860161195a565b91505092915050565b60006101408284031215611a0857611a076116c2565b5b611a13610140611738565b9050600082013567ffffffffffffffff811115611a3357611a32611753565b5b611a3f848285016117e4565b600083015250602082013567ffffffffffffffff811115611a6357611a62611753565b5b611a6f848285016118ca565b602083015250604082013567ffffffffffffffff811115611a9357611a92611753565b5b611a9f848285016119c3565b604083015250606082013567ffffffffffffffff811115611ac357611ac2611753565b5b611acf848285016117e4565b606083015250608082013567ffffffffffffffff811115611af357611af2611753565b5b611aff848285016117e4565b60808301525060a082013567ffffffffffffffff811115611b2357611b22611753565b5b611b2f848285016119c3565b60a08301525060c082013567ffffffffffffffff811115611b5357611b52611753565b5b611b5f848285016117e4565b60c08301525060e082013567ffffffffffffffff811115611b8357611b82611753565b5b611b8f848285016117e4565b60e08301525061010082013567ffffffffffffffff811115611bb457611bb3611753565b5b611bc0848285016117e4565b6101008301525061012082013567ffffffffffffffff811115611be657611be5611753565b5b611bf2848285016117e4565b6101208301525092915050565b600060208284031215611c1557611c146116b8565b5b600082013567ffffffffffffffff811115611c3357611c326116bd565b5b611c3f848285016119f1565b91505092915050565b600080600080600060a08688031215611c6457611c636116b8565b5b600086013567ffffffffffffffff811115611c8257611c816116bd565b5b611c8e888289016117e4565b955050602086013567ffffffffffffffff811115611caf57611cae6116bd565b5b611cbb888289016118ca565b945050604086013567ffffffffffffffff811115611cdc57611cdb6116bd565b5b611ce8888289016119c3565b935050606086013567ffffffffffffffff811115611d0957611d086116bd565b5b611d15888289016117e4565b925050608086013567ffffffffffffffff811115611d3657611d356116bd565b5b611d42888289016117e4565b9150509295509295909350565b600081519050919050565b600082825260208201905092915050565b6000819050602082019050919050565b600081519050919050565b600082825260208201905092915050565b60005b83811015611db5578082015181840152602081019050611d9a565b60008484015250505050565b6000611dcc82611d7b565b611dd68185611d86565b9350611de6818560208601611d97565b611def816116c7565b840191505092915050565b600081519050919050565b600082825260208201905092915050565b6000819050602082019050919050565b6000611e328383611dc1565b905092915050565b6000602082019050919050565b6000611e5282611dfa565b611e5c8185611e05565b935083602082028501611e6e85611e16565b8060005b85811015611eaa5784840389528151611e8b8582611e26565b9450611e9683611e3a565b925060208a01995050600181019050611e72565b50829750879550505050505092915050565b600081519050919050565b600082825260208201905092915050565b6000819050602082019050919050565b611ef181611924565b82525050565b6000611f038383611ee8565b60208301905092915050565b6000602082019050919050565b6000611f2782611ebc565b611f318185611ec7565b9350611f3c83611ed8565b8060005b83811015611f6d578151611f548882611ef7565b9750611f5f83611f0f565b925050600181019050611f40565b5085935050505092915050565b600060a0830160008301518482036000860152611f978282611dc1565b91505060208301518482036020860152611fb18282611e47565b91505060408301518482036040860152611fcb8282611f1c565b91505060608301518482036060860152611fe58282611dc1565b91505060808301518482036080860152611fff8282611dc1565b9150508091505092915050565b60006120188383611f7a565b905092915050565b6000602082019050919050565b600061203882611d4f565b6120428185611d5a565b93508360208202850161205485611d6b565b8060005b858110156120905784840389528151612071858261200c565b945061207c83612020565b925060208a01995050600181019050612058565b50829750879550505050505092915050565b600060208201905081810360008301526120bc818461202d565b905092915050565b6000819050919050565b6120d7816120c4565b82525050565b60006020820190506120f260008301846120ce565b92915050565b612101816120c4565b811461210c57600080fd5b50565b60008135905061211e816120f8565b92915050565b60006020828403121561213a576121396116b8565b5b60006121488482850161210f565b91505092915050565b600082825260208201905092915050565b600061216d82611d7b565b6121778185612151565b9350612187818560208601611d97565b612190816116c7565b840191505092915050565b600060608201905081810360008301526121b58186612162565b905081810360208301526121c98185612162565b905081810360408301526121dd8184612162565b9050949350505050565b600081519050919050565b600082825260208201905092915050565b6000819050602082019050919050565b60006101408301600083015184820360008601526122318282611dc1565b9150506020830151848203602086015261224b8282611e47565b915050604083015184820360408601526122658282611f1c565b9150506060830151848203606086015261227f8282611dc1565b915050608083015184820360808601526122998282611dc1565b91505060a083015184820360a08601526122b38282611f1c565b91505060c083015184820360c08601526122cd8282611dc1565b91505060e083015184820360e08601526122e78282611dc1565b9150506101008301518482036101008601526123038282611dc1565b91505061012083015184820361012086015261231f8282611dc1565b9150508091505092915050565b60006123388383612213565b905092915050565b6000602082019050919050565b6000612358826121e7565b61236281856121f2565b93508360208202850161237485612203565b8060005b858110156123b05784840389528151612391858261232c565b945061239c83612340565b925060208a01995050600181019050612378565b50829750879550505050505092915050565b600060208201905081810360008301526123dc818461234d565b905092915050565b600060e08201905081810360008301526123fe818a612162565b905081810360208301526124128189612162565b905081810360408301526124268188612162565b9050818103606083015261243a8187612162565b9050818103608083015261244e8186612162565b905081810360a08301526124628185612162565b905081810360c08301526124768184612162565b905098975050505050505050565b6000806040838503121561249b5761249a6116b8565b5b60006124a98582860161210f565b925050602083013567ffffffffffffffff8111156124ca576124c96116bd565b5b6124d6858286016117e4565b9150509250929050565b7f4e487b7100000000000000000000000000000000000000000000000000000000600052602260045260246000fd5b6000600282049050600182168061252757607f821691505b60208210810361253a576125396124e0565b5b50919050565b60008190508160005260206000209050919050565b60006020601f8301049050919050565b600082821b905092915050565b6000600883026125a27fffffffffffffffffffffffffffffffffffffffffffffffffffffffffffffffff82612565565b6125ac8683612565565b95508019841693508086168417925050509392505050565b6000819050919050565b60006125e96125e46125df846120c4565b6125c4565b6120c4565b9050919050565b6000819050919050565b612603836125ce565b61261761260f826125f0565b848454612572565b825550505050565b600090565b61262c61261f565b6126378184846125fa565b505050565b5b8181101561265b57612650600082612624565b60018101905061263d565b5050565b601f8211156126a05761267181612540565b61267a84612555565b81016020851015612689578190505b61269d61269585612555565b83018261263c565b50505b505050565b600082821c905092915050565b60006126c3600019846008026126a5565b1980831691505092915050565b60006126dc83836126b2565b9150826002028217905092915050565b6126f582611d7b565b67ffffffffffffffff81111561270e5761270d6116d8565b5b612718825461250f565b61272382828561265f565b600060209050601f8311600181146127565760008415612744578287015190505b61274e85826126d0565b8655506127b6565b601f19841661276486612540565b60005b8281101561278c57848901518255600182019150602085019450602081019050612767565b868310156127a957848901516127a5601f8916826126b2565b8355505b6001600288020188555050505b505050505050565b7f4e487b7100000000000000000000000000000000000000000000000000000000600052603260045260246000fd5b600081905092915050565b600061280382611d7b565b61280d81856127ed565b935061281d818560208601611d97565b80840191505092915050565b600061283582846127f8565b915081905092915050565b6000815461284d8161250f565b61285781866127ed565b945060018216600081146128725760018114612887576128ba565b60ff19831686528115158202860193506128ba565b61289085612540565b60005b838110156128b257815481890152600182019150602081019050612893565b838801955050505b50505092915050565b60006128cf8284612840565b915081905092915050565b7f4e487b7100000000000000000000000000000000000000000000000000000000600052601160045260246000fd5b6000612914826120c4565b91507fffffffffffffffffffffffffffffffffffffffffffffffffffffffffffffffff8203612946576129456128da565b5b60018201905091905056fea2646970667358221220891c5d8dcb4b996d3fd91d0bc85115a25e7f232d4902af110debcd864297990064736f6c63430008120033",
					"opcodes": "PUSH1 0x80 PUSH1 0x40 MSTORE PUSH1 0x0 PUSH1 0x2 SSTORE CALLVALUE DUP1 ISZERO PUSH2 0x15 JUMPI PUSH1 0x0 DUP1 REVERT JUMPDEST POP PUSH2 0x2987 DUP1 PUSH2 0x25 PUSH1 0x0 CODECOPY PUSH1 0x0 RETURN INVALID PUSH1 0x80 PUSH1 0x40 MSTORE CALLVALUE DUP1 ISZERO PUSH2 0x10 JUMPI PUSH1 0x0 DUP1 REVERT JUMPDEST POP PUSH1 0x4 CALLDATASIZE LT PUSH2 0x88 JUMPI PUSH1 0x0 CALLDATALOAD PUSH1 0xE0 SHR DUP1 PUSH4 0x71E5EE5F GT PUSH2 0x5B JUMPI DUP1 PUSH4 0x71E5EE5F EQ PUSH2 0x101 JUMPI DUP1 PUSH4 0xE56FE289 EQ PUSH2 0x133 JUMPI DUP1 PUSH4 0xEDF0099B EQ PUSH2 0x151 JUMPI DUP1 PUSH4 0xF745630F EQ PUSH2 0x187 JUMPI PUSH2 0x88 JUMP JUMPDEST DUP1 PUSH4 0x1DCDFFAC EQ PUSH2 0x8D JUMPI DUP1 PUSH4 0x2BE725AD EQ PUSH2 0xA9 JUMPI DUP1 PUSH4 0x4D395307 EQ PUSH2 0xC5 JUMPI DUP1 PUSH4 0x56D88E27 EQ PUSH2 0xE3 JUMPI JUMPDEST PUSH1 0x0 DUP1 REVERT JUMPDEST PUSH2 0xA7 PUSH1 0x4 DUP1 CALLDATASIZE SUB DUP2 ADD SWAP1 PUSH2 0xA2 SWAP2 SWAP1 PUSH2 0x1BFF JUMP JUMPDEST PUSH2 0x1A3 JUMP JUMPDEST STOP JUMPDEST PUSH2 0xC3 PUSH1 0x4 DUP1 CALLDATASIZE SUB DUP2 ADD SWAP1 PUSH2 0xBE SWAP2 SWAP1 PUSH2 0x1C48 JUMP JUMPDEST PUSH2 0x356 JUMP JUMPDEST STOP JUMPDEST PUSH2 0xCD PUSH2 0x43D JUMP JUMPDEST PUSH1 0x40 MLOAD PUSH2 0xDA SWAP2 SWAP1 PUSH2 0x20A2 JUMP JUMPDEST PUSH1 0x40 MLOAD DUP1 SWAP2 SUB SWAP1 RETURN JUMPDEST PUSH2 0xEB PUSH2 0x783 JUMP JUMPDEST PUSH1 0x40 MLOAD PUSH2 0xF8 SWAP2 SWAP1 PUSH2 0x20DD JUMP JUMPDEST PUSH1 0x40 MLOAD DUP1 SWAP2 SUB SWAP1 RETURN JUMPDEST PUSH2 0x11B PUSH1 0x4 DUP1 CALLDATASIZE SUB DUP2 ADD SWAP1 PUSH2 0x116 SWAP2 SWAP1 PUSH2 0x2124 JUMP JUMPDEST PUSH2 0x78F JUMP JUMPDEST PUSH1 0x40 MLOAD PUSH2 0x12A SWAP4 SWAP3 SWAP2 SWAP1 PUSH2 0x219B JUMP JUMPDEST PUSH1 0x40 MLOAD DUP1 SWAP2 SUB SWAP1 RETURN JUMPDEST PUSH2 0x13B PUSH2 0x961 JUMP JUMPDEST PUSH1 0x40 MLOAD PUSH2 0x148 SWAP2 SWAP1 PUSH2 0x23C2 JUMP JUMPDEST PUSH1 0x40 MLOAD DUP1 SWAP2 SUB SWAP1 RETURN JUMPDEST PUSH2 0x16B PUSH1 0x4 DUP1 CALLDATASIZE SUB DUP2 ADD SWAP1 PUSH2 0x166 SWAP2 SWAP1 PUSH2 0x2124 JUMP JUMPDEST PUSH2 0xF48 JUMP JUMPDEST PUSH1 0x40 MLOAD PUSH2 0x17E SWAP8 SWAP7 SWAP6 SWAP5 SWAP4 SWAP3 SWAP2 SWAP1 PUSH2 0x23E4 JUMP JUMPDEST PUSH1 0x40 MLOAD DUP1 SWAP2 SUB SWAP1 RETURN JUMPDEST PUSH2 0x1A1 PUSH1 0x4 DUP1 CALLDATASIZE SUB DUP2 ADD SWAP1 PUSH2 0x19C SWAP2 SWAP1 PUSH2 0x2484 JUMP JUMPDEST PUSH2 0x1352 JUMP JUMPDEST STOP JUMPDEST PUSH2 0x1AB PUSH2 0x14E8 JUMP JUMPDEST DUP2 PUSH1 0x0 ADD MLOAD DUP2 PUSH1 0x0 ADD DUP2 SWAP1 MSTORE POP DUP2 PUSH1 0x20 ADD MLOAD DUP2 PUSH1 0x20 ADD DUP2 SWAP1 MSTORE POP DUP2 PUSH1 0x40 ADD MLOAD DUP2 PUSH1 0x40 ADD DUP2 SWAP1 MSTORE POP DUP2 PUSH1 0x60 ADD MLOAD DUP2 PUSH1 0x60 ADD DUP2 SWAP1 MSTORE POP DUP2 PUSH1 0x80 ADD MLOAD DUP2 PUSH1 0x80 ADD DUP2 SWAP1 MSTORE POP DUP2 PUSH1 0xA0 ADD MLOAD DUP2 PUSH1 0xA0 ADD DUP2 SWAP1 MSTORE POP DUP2 PUSH1 0xC0 ADD MLOAD DUP2 PUSH1 0xC0 ADD DUP2 SWAP1 MSTORE POP DUP2 PUSH1 0xE0 ADD MLOAD DUP2 PUSH1 0xE0 ADD DUP2 SWAP1 MSTORE POP DUP2 PUSH2 0x100 ADD MLOAD DUP2 PUSH2 0x100 ADD DUP2 SWAP1 MSTORE POP DUP2 PUSH2 0x120 ADD MLOAD DUP2 PUSH2 0x120 ADD DUP2 SWAP1 MSTORE POP PUSH1 0x1 DUP2 SWAP1 DUP1 PUSH1 0x1 DUP2 SLOAD ADD DUP1 DUP3 SSTORE DUP1 SWAP2 POP POP PUSH1 0x1 SWAP1 SUB SWAP1 PUSH1 0x0 MSTORE PUSH1 0x20 PUSH1 0x0 KECCAK256 SWAP1 PUSH1 0xA MUL ADD PUSH1 0x0 SWAP1 SWAP2 SWAP1 SWAP2 SWAP1 SWAP2 POP PUSH1 0x0 DUP3 ADD MLOAD DUP2 PUSH1 0x0 ADD SWAP1 DUP2 PUSH2 0x272 SWAP2 SWAP1 PUSH2 0x26EC JUMP JUMPDEST POP PUSH1 0x20 DUP3 ADD MLOAD DUP2 PUSH1 0x1 ADD SWAP1 DUP1 MLOAD SWAP1 PUSH1 0x20 ADD SWAP1 PUSH2 0x28F SWAP3 SWAP2 SWAP1 PUSH2 0x153B JUMP JUMPDEST POP PUSH1 0x40 DUP3 ADD MLOAD DUP2 PUSH1 0x2 ADD SWAP1 DUP1 MLOAD SWAP1 PUSH1 0x20 ADD SWAP1 PUSH2 0x2AC SWAP3 SWAP2 SWAP1 PUSH2 0x1594 JUMP JUMPDEST POP PUSH1 0x60 DUP3 ADD MLOAD DUP2 PUSH1 0x3 ADD SWAP1 DUP2 PUSH2 0x2C2 SWAP2 SWAP1 PUSH2 0x26EC JUMP JUMPDEST POP PUSH1 0x80 DUP3 ADD MLOAD DUP2 PUSH1 0x4 ADD SWAP1 DUP2 PUSH2 0x2D8 SWAP2 SWAP1 PUSH2 0x26EC JUMP JUMPDEST POP PUSH1 0xA0 DUP3 ADD MLOAD DUP2 PUSH1 0x5 ADD SWAP1 DUP1 MLOAD SWAP1 PUSH1 0x20 ADD SWAP1 PUSH2 0x2F5 SWAP3 SWAP2 SWAP1 PUSH2 0x1594 JUMP JUMPDEST POP PUSH1 0xC0 DUP3 ADD MLOAD DUP2 PUSH1 0x6 ADD SWAP1 DUP2 PUSH2 0x30B SWAP2 SWAP1 PUSH2 0x26EC JUMP JUMPDEST POP PUSH1 0xE0 DUP3 ADD MLOAD DUP2 PUSH1 0x7 ADD SWAP1 DUP2 PUSH2 0x321 SWAP2 SWAP1 PUSH2 0x26EC JUMP JUMPDEST POP PUSH2 0x100 DUP3 ADD MLOAD DUP2 PUSH1 0x8 ADD SWAP1 DUP2 PUSH2 0x338 SWAP2 SWAP1 PUSH2 0x26EC JUMP JUMPDEST POP PUSH2 0x120 DUP3 ADD MLOAD DUP2 PUSH1 0x9 ADD SWAP1 DUP2 PUSH2 0x34F SWAP2 SWAP1 PUSH2 0x26EC JUMP JUMPDEST POP POP POP POP POP JUMP JUMPDEST PUSH2 0x35E PUSH2 0x15E1 JUMP JUMPDEST DUP6 DUP2 PUSH1 0x0 ADD DUP2 SWAP1 MSTORE POP DUP5 DUP2 PUSH1 0x20 ADD DUP2 SWAP1 MSTORE POP DUP4 DUP2 PUSH1 0x40 ADD DUP2 SWAP1 MSTORE POP DUP3 DUP2 PUSH1 0x60 ADD DUP2 SWAP1 MSTORE POP DUP2 DUP2 PUSH1 0x80 ADD DUP2 SWAP1 MSTORE POP PUSH1 0x0 DUP2 SWAP1 DUP1 PUSH1 0x1 DUP2 SLOAD ADD DUP1 DUP3 SSTORE DUP1 SWAP2 POP POP PUSH1 0x1 SWAP1 SUB SWAP1 PUSH1 0x0 MSTORE PUSH1 0x20 PUSH1 0x0 KECCAK256 SWAP1 PUSH1 0x5 MUL ADD PUSH1 0x0 SWAP1 SWAP2 SWAP1 SWAP2 SWAP1 SWAP2 POP PUSH1 0x0 DUP3 ADD MLOAD DUP2 PUSH1 0x0 ADD SWAP1 DUP2 PUSH2 0x3CC SWAP2 SWAP1 PUSH2 0x26EC JUMP JUMPDEST POP PUSH1 0x20 DUP3 ADD MLOAD DUP2 PUSH1 0x1 ADD SWAP1 DUP1 MLOAD SWAP1 PUSH1 0x20 ADD SWAP1 PUSH2 0x3E9 SWAP3 SWAP2 SWAP1 PUSH2 0x153B JUMP JUMPDEST POP PUSH1 0x40 DUP3 ADD MLOAD DUP2 PUSH1 0x2 ADD SWAP1 DUP1 MLOAD SWAP1 PUSH1 0x20 ADD SWAP1 PUSH2 0x406 SWAP3 SWAP2 SWAP1 PUSH2 0x1594 JUMP JUMPDEST POP PUSH1 0x60 DUP3 ADD MLOAD DUP2 PUSH1 0x3 ADD SWAP1 DUP2 PUSH2 0x41C SWAP2 SWAP1 PUSH2 0x26EC JUMP JUMPDEST POP PUSH1 0x80 DUP3 ADD MLOAD DUP2 PUSH1 0x4 ADD SWAP1 DUP2 PUSH2 0x432 SWAP2 SWAP1 PUSH2 0x26EC JUMP JUMPDEST POP POP POP POP POP POP POP POP POP JUMP JUMPDEST PUSH1 0x60 PUSH1 0x0 DUP1 SLOAD DUP1 PUSH1 0x20 MUL PUSH1 0x20 ADD PUSH1 0x40 MLOAD SWAP1 DUP2 ADD PUSH1 0x40 MSTORE DUP1 SWAP3 SWAP2 SWAP1 DUP2 DUP2 MSTORE PUSH1 0x20 ADD PUSH1 0x0 SWAP1 JUMPDEST DUP3 DUP3 LT ISZERO PUSH2 0x77A JUMPI DUP4 DUP3 SWAP1 PUSH1 0x0 MSTORE PUSH1 0x20 PUSH1 0x0 KECCAK256 SWAP1 PUSH1 0x5 MUL ADD PUSH1 0x40 MLOAD DUP1 PUSH1 0xA0 ADD PUSH1 0x40 MSTORE SWAP1 DUP2 PUSH1 0x0 DUP3 ADD DUP1 SLOAD PUSH2 0x494 SWAP1 PUSH2 0x250F JUMP JUMPDEST DUP1 PUSH1 0x1F ADD PUSH1 0x20 DUP1 SWAP2 DIV MUL PUSH1 0x20 ADD PUSH1 0x40 MLOAD SWAP1 DUP2 ADD PUSH1 0x40 MSTORE DUP1 SWAP3 SWAP2 SWAP1 DUP2 DUP2 MSTORE PUSH1 0x20 ADD DUP3 DUP1 SLOAD PUSH2 0x4C0 SWAP1 PUSH2 0x250F JUMP JUMPDEST DUP1 ISZERO PUSH2 0x50D JUMPI DUP1 PUSH1 0x1F LT PUSH2 0x4E2 JUMPI PUSH2 0x100 DUP1 DUP4 SLOAD DIV MUL DUP4 MSTORE SWAP2 PUSH1 0x20 ADD SWAP2 PUSH2 0x50D JUMP JUMPDEST DUP3 ADD SWAP2 SWAP1 PUSH1 0x0 MSTORE PUSH1 0x20 PUSH1 0x0 KECCAK256 SWAP1 JUMPDEST DUP2 SLOAD DUP2 MSTORE SWAP1 PUSH1 0x1 ADD SWAP1 PUSH1 0x20 ADD DUP1 DUP4 GT PUSH2 0x4F0 JUMPI DUP3 SWAP1 SUB PUSH1 0x1F AND DUP3 ADD SWAP2 JUMPDEST POP POP POP POP POP DUP2 MSTORE PUSH1 0x20 ADD PUSH1 0x1 DUP3 ADD DUP1 SLOAD DUP1 PUSH1 0x20 MUL PUSH1 0x20 ADD PUSH1 0x40 MLOAD SWAP1 DUP2 ADD PUSH1 0x40 MSTORE DUP1 SWAP3 SWAP2 SWAP1 DUP2 DUP2 MSTORE PUSH1 0x20 ADD PUSH1 0x0 SWAP1 JUMPDEST DUP3 DUP3 LT ISZERO PUSH2 0x5E7 JUMPI DUP4 DUP3 SWAP1 PUSH1 0x0 MSTORE PUSH1 0x20 PUSH1 0x0 KECCAK256 ADD DUP1 SLOAD PUSH2 0x55A SWAP1 PUSH2 0x250F JUMP JUMPDEST DUP1 PUSH1 0x1F ADD PUSH1 0x20 DUP1 SWAP2 DIV MUL PUSH1 0x20 ADD PUSH1 0x40 MLOAD SWAP1 DUP2 ADD PUSH1 0x40 MSTORE DUP1 SWAP3 SWAP2 SWAP1 DUP2 DUP2 MSTORE PUSH1 0x20 ADD DUP3 DUP1 SLOAD PUSH2 0x586 SWAP1 PUSH2 0x250F JUMP JUMPDEST DUP1 ISZERO PUSH2 0x5D3 JUMPI DUP1 PUSH1 0x1F LT PUSH2 0x5A8 JUMPI PUSH2 0x100 DUP1 DUP4 SLOAD DIV MUL DUP4 MSTORE SWAP2 PUSH1 0x20 ADD SWAP2 PUSH2 0x5D3 JUMP JUMPDEST DUP3 ADD SWAP2 SWAP1 PUSH1 0x0 MSTORE PUSH1 0x20 PUSH1 0x0 KECCAK256 SWAP1 JUMPDEST DUP2 SLOAD DUP2 MSTORE SWAP1 PUSH1 0x1 ADD SWAP1 PUSH1 0x20 ADD DUP1 DUP4 GT PUSH2 0x5B6 JUMPI DUP3 SWAP1 SUB PUSH1 0x1F AND DUP3 ADD SWAP2 JUMPDEST POP POP POP POP POP DUP2 MSTORE PUSH1 0x20 ADD SWAP1 PUSH1 0x1 ADD SWAP1 PUSH2 0x53B JUMP JUMPDEST POP POP POP POP DUP2 MSTORE PUSH1 0x20 ADD PUSH1 0x2 DUP3 ADD DUP1 SLOAD DUP1 PUSH1 0x20 MUL PUSH1 0x20 ADD PUSH1 0x40 MLOAD SWAP1 DUP2 ADD PUSH1 0x40 MSTORE DUP1 SWAP3 SWAP2 SWAP1 DUP2 DUP2 MSTORE PUSH1 0x20 ADD DUP3 DUP1 SLOAD DUP1 ISZERO PUSH2 0x63E JUMPI PUSH1 0x20 MUL DUP3 ADD SWAP2 SWAP1 PUSH1 0x0 MSTORE PUSH1 0x20 PUSH1 0x0 KECCAK256 SWAP1 JUMPDEST DUP2 SLOAD DUP2 MSTORE PUSH1 0x20 ADD SWAP1 PUSH1 0x1 ADD SWAP1 DUP1 DUP4 GT PUSH2 0x62A JUMPI JUMPDEST POP POP POP POP POP DUP2 MSTORE PUSH1 0x20 ADD PUSH1 0x3 DUP3 ADD DUP1 SLOAD PUSH2 0x657 SWAP1 PUSH2 0x250F JUMP JUMPDEST DUP1 PUSH1 0x1F ADD PUSH1 0x20 DUP1 SWAP2 DIV MUL PUSH1 0x20 ADD PUSH1 0x40 MLOAD SWAP1 DUP2 ADD PUSH1 0x40 MSTORE DUP1 SWAP3 SWAP2 SWAP1 DUP2 DUP2 MSTORE PUSH1 0x20 ADD DUP3 DUP1 SLOAD PUSH2 0x683 SWAP1 PUSH2 0x250F JUMP JUMPDEST DUP1 ISZERO PUSH2 0x6D0 JUMPI DUP1 PUSH1 0x1F LT PUSH2 0x6A5 JUMPI PUSH2 0x100 DUP1 DUP4 SLOAD DIV MUL DUP4 MSTORE SWAP2 PUSH1 0x20 ADD SWAP2 PUSH2 0x6D0 JUMP JUMPDEST DUP3 ADD SWAP2 SWAP1 PUSH1 0x0 MSTORE PUSH1 0x20 PUSH1 0x0 KECCAK256 SWAP1 JUMPDEST DUP2 SLOAD DUP2 MSTORE SWAP1 PUSH1 0x1 ADD SWAP1 PUSH1 0x20 ADD DUP1 DUP4 GT PUSH2 0x6B3 JUMPI DUP3 SWAP1 SUB PUSH1 0x1F AND DUP3 ADD SWAP2 JUMPDEST POP POP POP POP POP DUP2 MSTORE PUSH1 0x20 ADD PUSH1 0x4 DUP3 ADD DUP1 SLOAD PUSH2 0x6E9 SWAP1 PUSH2 0x250F JUMP JUMPDEST DUP1 PUSH1 0x1F ADD PUSH1 0x20 DUP1 SWAP2 DIV MUL PUSH1 0x20 ADD PUSH1 0x40 MLOAD SWAP1 DUP2 ADD PUSH1 0x40 MSTORE DUP1 SWAP3 SWAP2 SWAP1 DUP2 DUP2 MSTORE PUSH1 0x20 ADD DUP3 DUP1 SLOAD PUSH2 0x715 SWAP1 PUSH2 0x250F JUMP JUMPDEST DUP1 ISZERO PUSH2 0x762 JUMPI DUP1 PUSH1 0x1F LT PUSH2 0x737 JUMPI PUSH2 0x100 DUP1 DUP4 SLOAD DIV MUL DUP4 MSTORE SWAP2 PUSH1 0x20 ADD SWAP2 PUSH2 0x762 JUMP JUMPDEST DUP3 ADD SWAP2 SWAP1 PUSH1 0x0 MSTORE PUSH1 0x20 PUSH1 0x0 KECCAK256 SWAP1 JUMPDEST DUP2 SLOAD DUP2 MSTORE SWAP1 PUSH1 0x1 ADD SWAP1 PUSH1 0x20 ADD DUP1 DUP4 GT PUSH2 0x745 JUMPI DUP3 SWAP1 SUB PUSH1 0x1F AND DUP3 ADD SWAP2 JUMPDEST POP POP POP POP POP DUP2 MSTORE POP POP DUP2 MSTORE PUSH1 0x20 ADD SWAP1 PUSH1 0x1 ADD SWAP1 PUSH2 0x461 JUMP JUMPDEST POP POP POP POP SWAP1 POP SWAP1 JUMP JUMPDEST PUSH1 0x0 DUP1 DUP1 SLOAD SWAP1 POP SWAP1 POP SWAP1 JUMP JUMPDEST PUSH1 0x0 DUP2 DUP2 SLOAD DUP2 LT PUSH2 0x79F JUMPI PUSH1 0x0 DUP1 REVERT JUMPDEST SWAP1 PUSH1 0x0 MSTORE PUSH1 0x20 PUSH1 0x0 KECCAK256 SWAP1 PUSH1 0x5 MUL ADD PUSH1 0x0 SWAP2 POP SWAP1 POP DUP1 PUSH1 0x0 ADD DUP1 SLOAD PUSH2 0x7C2 SWAP1 PUSH2 0x250F JUMP JUMPDEST DUP1 PUSH1 0x1F ADD PUSH1 0x20 DUP1 SWAP2 DIV MUL PUSH1 0x20 ADD PUSH1 0x40 MLOAD SWAP1 DUP2 ADD PUSH1 0x40 MSTORE DUP1 SWAP3 SWAP2 SWAP1 DUP2 DUP2 MSTORE PUSH1 0x20 ADD DUP3 DUP1 SLOAD PUSH2 0x7EE SWAP1 PUSH2 0x250F JUMP JUMPDEST DUP1 ISZERO PUSH2 0x83B JUMPI DUP1 PUSH1 0x1F LT PUSH2 0x810 JUMPI PUSH2 0x100 DUP1 DUP4 SLOAD DIV MUL DUP4 MSTORE SWAP2 PUSH1 0x20 ADD SWAP2 PUSH2 0x83B JUMP JUMPDEST DUP3 ADD SWAP2 SWAP1 PUSH1 0x0 MSTORE PUSH1 0x20 PUSH1 0x0 KECCAK256 SWAP1 JUMPDEST DUP2 SLOAD DUP2 MSTORE SWAP1 PUSH1 0x1 ADD SWAP1 PUSH1 0x20 ADD DUP1 DUP4 GT PUSH2 0x81E JUMPI DUP3 SWAP1 SUB PUSH1 0x1F AND DUP3 ADD SWAP2 JUMPDEST POP POP POP POP POP SWAP1 DUP1 PUSH1 0x3 ADD DUP1 SLOAD PUSH2 0x850 SWAP1 PUSH2 0x250F JUMP JUMPDEST DUP1 PUSH1 0x1F ADD PUSH1 0x20 DUP1 SWAP2 DIV MUL PUSH1 0x20 ADD PUSH1 0x40 MLOAD SWAP1 DUP2 ADD PUSH1 0x40 MSTORE DUP1 SWAP3 SWAP2 SWAP1 DUP2 DUP2 MSTORE PUSH1 0x20 ADD DUP3 DUP1 SLOAD PUSH2 0x87C SWAP1 PUSH2 0x250F JUMP JUMPDEST DUP1 ISZERO PUSH2 0x8C9 JUMPI DUP1 PUSH1 0x1F LT PUSH2 0x89E JUMPI PUSH2 0x100 DUP1 DUP4 SLOAD DIV MUL DUP4 MSTORE SWAP2 PUSH1 0x20 ADD SWAP2 PUSH2 0x8C9 JUMP JUMPDEST DUP3 ADD SWAP2 SWAP1 PUSH1 0x0 MSTORE PUSH1 0x20 PUSH1 0x0 KECCAK256 SWAP1 JUMPDEST DUP2 SLOAD DUP2 MSTORE SWAP1 PUSH1 0x1 ADD SWAP1 PUSH1 0x20 ADD DUP1 DUP4 GT PUSH2 0x8AC JUMPI DUP3 SWAP1 SUB PUSH1 0x1F AND DUP3 ADD SWAP2 JUMPDEST POP POP POP POP POP SWAP1 DUP1 PUSH1 0x4 ADD DUP1 SLOAD PUSH2 0x8DE SWAP1 PUSH2 0x250F JUMP JUMPDEST DUP1 PUSH1 0x1F ADD PUSH1 0x20 DUP1 SWAP2 DIV MUL PUSH1 0x20 ADD PUSH1 0x40 MLOAD SWAP1 DUP2 ADD PUSH1 0x40 MSTORE DUP1 SWAP3 SWAP2 SWAP1 DUP2 DUP2 MSTORE PUSH1 0x20 ADD DUP3 DUP1 SLOAD PUSH2 0x90A SWAP1 PUSH2 0x250F JUMP JUMPDEST DUP1 ISZERO PUSH2 0x957 JUMPI DUP1 PUSH1 0x1F LT PUSH2 0x92C JUMPI PUSH2 0x100 DUP1 DUP4 SLOAD DIV MUL DUP4 MSTORE SWAP2 PUSH1 0x20 ADD SWAP2 PUSH2 0x957 JUMP JUMPDEST DUP3 ADD SWAP2 SWAP1 PUSH1 0x0 MSTORE PUSH1 0x20 PUSH1 0x0 KECCAK256 SWAP1 JUMPDEST DUP2 SLOAD DUP2 MSTORE SWAP1 PUSH1 0x1 ADD SWAP1 PUSH1 0x20 ADD DUP1 DUP4 GT PUSH2 0x93A JUMPI DUP3 SWAP1 SUB PUSH1 0x1F AND DUP3 ADD SWAP2 JUMPDEST POP POP POP POP POP SWAP1 POP DUP4 JUMP JUMPDEST PUSH1 0x60 PUSH1 0x1 DUP1 SLOAD DUP1 PUSH1 0x20 MUL PUSH1 0x20 ADD PUSH1 0x40 MLOAD SWAP1 DUP2 ADD PUSH1 0x40 MSTORE DUP1 SWAP3 SWAP2 SWAP1 DUP2 DUP2 MSTORE PUSH1 0x20 ADD PUSH1 0x0 SWAP1 JUMPDEST DUP3 DUP3 LT ISZERO PUSH2 0xF3F JUMPI DUP4 DUP3 SWAP1 PUSH1 0x0 MSTORE PUSH1 0x20 PUSH1 0x0 KECCAK256 SWAP1 PUSH1 0xA MUL ADD PUSH1 0x40 MLOAD DUP1 PUSH2 0x140 ADD PUSH1 0x40 MSTORE SWAP1 DUP2 PUSH1 0x0 DUP3 ADD DUP1 SLOAD PUSH2 0x9B9 SWAP1 PUSH2 0x250F JUMP JUMPDEST DUP1 PUSH1 0x1F ADD PUSH1 0x20 DUP1 SWAP2 DIV MUL PUSH1 0x20 ADD PUSH1 0x40 MLOAD SWAP1 DUP2 ADD PUSH1 0x40 MSTORE DUP1 SWAP3 SWAP2 SWAP1 DUP2 DUP2 MSTORE PUSH1 0x20 ADD DUP3 DUP1 SLOAD PUSH2 0x9E5 SWAP1 PUSH2 0x250F JUMP JUMPDEST DUP1 ISZERO PUSH2 0xA32 JUMPI DUP1 PUSH1 0x1F LT PUSH2 0xA07 JUMPI PUSH2 0x100 DUP1 DUP4 SLOAD DIV MUL DUP4 MSTORE SWAP2 PUSH1 0x20 ADD SWAP2 PUSH2 0xA32 JUMP JUMPDEST DUP3 ADD SWAP2 SWAP1 PUSH1 0x0 MSTORE PUSH1 0x20 PUSH1 0x0 KECCAK256 SWAP1 JUMPDEST DUP2 SLOAD DUP2 MSTORE SWAP1 PUSH1 0x1 ADD SWAP1 PUSH1 0x20 ADD DUP1 DUP4 GT PUSH2 0xA15 JUMPI DUP3 SWAP1 SUB PUSH1 0x1F AND DUP3 ADD SWAP2 JUMPDEST POP POP POP POP POP DUP2 MSTORE PUSH1 0x20 ADD PUSH1 0x1 DUP3 ADD DUP1 SLOAD DUP1 PUSH1 0x20 MUL PUSH1 0x20 ADD PUSH1 0x40 MLOAD SWAP1 DUP2 ADD PUSH1 0x40 MSTORE DUP1 SWAP3 SWAP2 SWAP1 DUP2 DUP2 MSTORE PUSH1 0x20 ADD PUSH1 0x0 SWAP1 JUMPDEST DUP3 DUP3 LT ISZERO PUSH2 0xB0C JUMPI DUP4 DUP3 SWAP1 PUSH1 0x0 MSTORE PUSH1 0x20 PUSH1 0x0 KECCAK256 ADD DUP1 SLOAD PUSH2 0xA7F SWAP1 PUSH2 0x250F JUMP JUMPDEST DUP1 PUSH1 0x1F ADD PUSH1 0x20 DUP1 SWAP2 DIV MUL PUSH1 0x20 ADD PUSH1 0x40 MLOAD SWAP1 DUP2 ADD PUSH1 0x40 MSTORE DUP1 SWAP3 SWAP2 SWAP1 DUP2 DUP2 MSTORE PUSH1 0x20 ADD DUP3 DUP1 SLOAD PUSH2 0xAAB SWAP1 PUSH2 0x250F JUMP JUMPDEST DUP1 ISZERO PUSH2 0xAF8 JUMPI DUP1 PUSH1 0x1F LT PUSH2 0xACD JUMPI PUSH2 0x100 DUP1 DUP4 SLOAD DIV MUL DUP4 MSTORE SWAP2 PUSH1 0x20 ADD SWAP2 PUSH2 0xAF8 JUMP JUMPDEST DUP3 ADD SWAP2 SWAP1 PUSH1 0x0 MSTORE PUSH1 0x20 PUSH1 0x0 KECCAK256 SWAP1 JUMPDEST DUP2 SLOAD DUP2 MSTORE SWAP1 PUSH1 0x1 ADD SWAP1 PUSH1 0x20 ADD DUP1 DUP4 GT PUSH2 0xADB JUMPI DUP3 SWAP1 SUB PUSH1 0x1F AND DUP3 ADD SWAP2 JUMPDEST POP POP POP POP POP DUP2 MSTORE PUSH1 0x20 ADD SWAP1 PUSH1 0x1 ADD SWAP1 PUSH2 0xA60 JUMP JUMPDEST POP POP POP POP DUP2 MSTORE PUSH1 0x20 ADD PUSH1 0x2 DUP3 ADD DUP1 SLOAD DUP1 PUSH1 0x20 MUL PUSH1 0x20 ADD PUSH1 0x40 MLOAD SWAP1 DUP2 ADD PUSH1 0x40 MSTORE DUP1 SWAP3 SWAP2 SWAP1 DUP2 DUP2 MSTORE PUSH1 0x20 ADD DUP3 DUP1 SLOAD DUP1 ISZERO PUSH2 0xB63 JUMPI PUSH1 0x20 MUL DUP3 ADD SWAP2 SWAP1 PUSH1 0x0 MSTORE PUSH1 0x20 PUSH1 0x0 KECCAK256 SWAP1 JUMPDEST DUP2 SLOAD DUP2 MSTORE PUSH1 0x20 ADD SWAP1 PUSH1 0x1 ADD SWAP1 DUP1 DUP4 GT PUSH2 0xB4F JUMPI JUMPDEST POP POP POP POP POP DUP2 MSTORE PUSH1 0x20 ADD PUSH1 0x3 DUP3 ADD DUP1 SLOAD PUSH2 0xB7C SWAP1 PUSH2 0x250F JUMP JUMPDEST DUP1 PUSH1 0x1F ADD PUSH1 0x20 DUP1 SWAP2 DIV MUL PUSH1 0x20 ADD PUSH1 0x40 MLOAD SWAP1 DUP2 ADD PUSH1 0x40 MSTORE DUP1 SWAP3 SWAP2 SWAP1 DUP2 DUP2 MSTORE PUSH1 0x20 ADD DUP3 DUP1 SLOAD PUSH2 0xBA8 SWAP1 PUSH2 0x250F JUMP JUMPDEST DUP1 ISZERO PUSH2 0xBF5 JUMPI DUP1 PUSH1 0x1F LT PUSH2 0xBCA JUMPI PUSH2 0x100 DUP1 DUP4 SLOAD DIV MUL DUP4 MSTORE SWAP2 PUSH1 0x20 ADD SWAP2 PUSH2 0xBF5 JUMP JUMPDEST DUP3 ADD SWAP2 SWAP1 PUSH1 0x0 MSTORE PUSH1 0x20 PUSH1 0x0 KECCAK256 SWAP1 JUMPDEST DUP2 SLOAD DUP2 MSTORE SWAP1 PUSH1 0x1 ADD SWAP1 PUSH1 0x20 ADD DUP1 DUP4 GT PUSH2 0xBD8 JUMPI DUP3 SWAP1 SUB PUSH1 0x1F AND DUP3 ADD SWAP2 JUMPDEST POP POP POP POP POP DUP2 MSTORE PUSH1 0x20 ADD PUSH1 0x4 DUP3 ADD DUP1 SLOAD PUSH2 0xC0E SWAP1 PUSH2 0x250F JUMP JUMPDEST DUP1 PUSH1 0x1F ADD PUSH1 0x20 DUP1 SWAP2 DIV MUL PUSH1 0x20 ADD PUSH1 0x40 MLOAD SWAP1 DUP2 ADD PUSH1 0x40 MSTORE DUP1 SWAP3 SWAP2 SWAP1 DUP2 DUP2 MSTORE PUSH1 0x20 ADD DUP3 DUP1 SLOAD PUSH2 0xC3A SWAP1 PUSH2 0x250F JUMP JUMPDEST DUP1 ISZERO PUSH2 0xC87 JUMPI DUP1 PUSH1 0x1F LT PUSH2 0xC5C JUMPI PUSH2 0x100 DUP1 DUP4 SLOAD DIV MUL DUP4 MSTORE SWAP2 PUSH1 0x20 ADD SWAP2 PUSH2 0xC87 JUMP JUMPDEST DUP3 ADD SWAP2 SWAP1 PUSH1 0x0 MSTORE PUSH1 0x20 PUSH1 0x0 KECCAK256 SWAP1 JUMPDEST DUP2 SLOAD DUP2 MSTORE SWAP1 PUSH1 0x1 ADD SWAP1 PUSH1 0x20 ADD DUP1 DUP4 GT PUSH2 0xC6A JUMPI DUP3 SWAP1 SUB PUSH1 0x1F AND DUP3 ADD SWAP2 JUMPDEST POP POP POP POP POP DUP2 MSTORE PUSH1 0x20 ADD PUSH1 0x5 DUP3 ADD DUP1 SLOAD DUP1 PUSH1 0x20 MUL PUSH1 0x20 ADD PUSH1 0x40 MLOAD SWAP1 DUP2 ADD PUSH1 0x40 MSTORE DUP1 SWAP3 SWAP2 SWAP1 DUP2 DUP2 MSTORE PUSH1 0x20 ADD DUP3 DUP1 SLOAD DUP1 ISZERO PUSH2 0xCDF JUMPI PUSH1 0x20 MUL DUP3 ADD SWAP2 SWAP1 PUSH1 0x0 MSTORE PUSH1 0x20 PUSH1 0x0 KECCAK256 SWAP1 JUMPDEST DUP2 SLOAD DUP2 MSTORE PUSH1 0x20 ADD SWAP1 PUSH1 0x1 ADD SWAP1 DUP1 DUP4 GT PUSH2 0xCCB JUMPI JUMPDEST POP POP POP POP POP DUP2 MSTORE PUSH1 0x20 ADD PUSH1 0x6 DUP3 ADD DUP1 SLOAD PUSH2 0xCF8 SWAP1 PUSH2 0x250F JUMP JUMPDEST DUP1 PUSH1 0x1F ADD PUSH1 0x20 DUP1 SWAP2 DIV MUL PUSH1 0x20 ADD PUSH1 0x40 MLOAD SWAP1 DUP2 ADD PUSH1 0x40 MSTORE DUP1 SWAP3 SWAP2 SWAP1 DUP2 DUP2 MSTORE PUSH1 0x20 ADD DUP3 DUP1 SLOAD PUSH2 0xD24 SWAP1 PUSH2 0x250F JUMP JUMPDEST DUP1 ISZERO PUSH2 0xD71 JUMPI DUP1 PUSH1 0x1F LT PUSH2 0xD46 JUMPI PUSH2 0x100 DUP1 DUP4 SLOAD DIV MUL DUP4 MSTORE SWAP2 PUSH1 0x20 ADD SWAP2 PUSH2 0xD71 JUMP JUMPDEST DUP3 ADD SWAP2 SWAP1 PUSH1 0x0 MSTORE PUSH1 0x20 PUSH1 0x0 KECCAK256 SWAP1 JUMPDEST DUP2 SLOAD DUP2 MSTORE SWAP1 PUSH1 0x1 ADD SWAP1 PUSH1 0x20 ADD DUP1 DUP4 GT PUSH2 0xD54 JUMPI DUP3 SWAP1 SUB PUSH1 0x1F AND DUP3 ADD SWAP2 JUMPDEST POP POP POP POP POP DUP2 MSTORE PUSH1 0x20 ADD PUSH1 0x7 DUP3 ADD DUP1 SLOAD PUSH2 0xD8A SWAP1 PUSH2 0x250F JUMP JUMPDEST DUP1 PUSH1 0x1F ADD PUSH1 0x20 DUP1 SWAP2 DIV MUL PUSH1 0x20 ADD PUSH1 0x40 MLOAD SWAP1 DUP2 ADD PUSH1 0x40 MSTORE DUP1 SWAP3 SWAP2 SWAP1 DUP2 DUP2 MSTORE PUSH1 0x20 ADD DUP3 DUP1 SLOAD PUSH2 0xDB6 SWAP1 PUSH2 0x250F JUMP JUMPDEST DUP1 ISZERO PUSH2 0xE03 JUMPI DUP1 PUSH1 0x1F LT PUSH2 0xDD8 JUMPI PUSH2 0x100 DUP1 DUP4 SLOAD DIV MUL DUP4 MSTORE SWAP2 PUSH1 0x20 ADD SWAP2 PUSH2 0xE03 JUMP JUMPDEST DUP3 ADD SWAP2 SWAP1 PUSH1 0x0 MSTORE PUSH1 0x20 PUSH1 0x0 KECCAK256 SWAP1 JUMPDEST DUP2 SLOAD DUP2 MSTORE SWAP1 PUSH1 0x1 ADD SWAP1 PUSH1 0x20 ADD DUP1 DUP4 GT PUSH2 0xDE6 JUMPI DUP3 SWAP1 SUB PUSH1 0x1F AND DUP3 ADD SWAP2 JUMPDEST POP POP POP POP POP DUP2 MSTORE PUSH1 0x20 ADD PUSH1 0x8 DUP3 ADD DUP1 SLOAD PUSH2 0xE1C SWAP1 PUSH2 0x250F JUMP JUMPDEST DUP1 PUSH1 0x1F ADD PUSH1 0x20 DUP1 SWAP2 DIV MUL PUSH1 0x20 ADD PUSH1 0x40 MLOAD SWAP1 DUP2 ADD PUSH1 0x40 MSTORE DUP1 SWAP3 SWAP2 SWAP1 DUP2 DUP2 MSTORE PUSH1 0x20 ADD DUP3 DUP1 SLOAD PUSH2 0xE48 SWAP1 PUSH2 0x250F JUMP JUMPDEST DUP1 ISZERO PUSH2 0xE95 JUMPI DUP1 PUSH1 0x1F LT PUSH2 0xE6A JUMPI PUSH2 0x100 DUP1 DUP4 SLOAD DIV MUL DUP4 MSTORE SWAP2 PUSH1 0x20 ADD SWAP2 PUSH2 0xE95 JUMP JUMPDEST DUP3 ADD SWAP2 SWAP1 PUSH1 0x0 MSTORE PUSH1 0x20 PUSH1 0x0 KECCAK256 SWAP1 JUMPDEST DUP2 SLOAD DUP2 MSTORE SWAP1 PUSH1 0x1 ADD SWAP1 PUSH1 0x20 ADD DUP1 DUP4 GT PUSH2 0xE78 JUMPI DUP3 SWAP1 SUB PUSH1 0x1F AND DUP3 ADD SWAP2 JUMPDEST POP POP POP POP POP DUP2 MSTORE PUSH1 0x20 ADD PUSH1 0x9 DUP3 ADD DUP1 SLOAD PUSH2 0xEAE SWAP1 PUSH2 0x250F JUMP JUMPDEST DUP1 PUSH1 0x1F ADD PUSH1 0x20 DUP1 SWAP2 DIV MUL PUSH1 0x20 ADD PUSH1 0x40 MLOAD SWAP1 DUP2 ADD PUSH1 0x40 MSTORE DUP1 SWAP3 SWAP2 SWAP1 DUP2 DUP2 MSTORE PUSH1 0x20 ADD DUP3 DUP1 SLOAD PUSH2 0xEDA SWAP1 PUSH2 0x250F JUMP JUMPDEST DUP1 ISZERO PUSH2 0xF27 JUMPI DUP1 PUSH1 0x1F LT PUSH2 0xEFC JUMPI PUSH2 0x100 DUP1 DUP4 SLOAD DIV MUL DUP4 MSTORE SWAP2 PUSH1 0x20 ADD SWAP2 PUSH2 0xF27 JUMP JUMPDEST DUP3 ADD SWAP2 SWAP1 PUSH1 0x0 MSTORE PUSH1 0x20 PUSH1 0x0 KECCAK256 SWAP1 JUMPDEST DUP2 SLOAD DUP2 MSTORE SWAP1 PUSH1 0x1 ADD SWAP1 PUSH1 0x20 ADD DUP1 DUP4 GT PUSH2 0xF0A JUMPI DUP3 SWAP1 SUB PUSH1 0x1F AND DUP3 ADD SWAP2 JUMPDEST POP POP POP POP POP DUP2 MSTORE POP POP DUP2 MSTORE PUSH1 0x20 ADD SWAP1 PUSH1 0x1 ADD SWAP1 PUSH2 0x985 JUMP JUMPDEST POP POP POP POP SWAP1 POP SWAP1 JUMP JUMPDEST PUSH1 0x1 DUP2 DUP2 SLOAD DUP2 LT PUSH2 0xF58 JUMPI PUSH1 0x0 DUP1 REVERT JUMPDEST SWAP1 PUSH1 0x0 MSTORE PUSH1 0x20 PUSH1 0x0 KECCAK256 SWAP1 PUSH1 0xA MUL ADD PUSH1 0x0 SWAP2 POP SWAP1 POP DUP1 PUSH1 0x0 ADD DUP1 SLOAD PUSH2 0xF7B SWAP1 PUSH2 0x250F JUMP JUMPDEST DUP1 PUSH1 0x1F ADD PUSH1 0x20 DUP1 SWAP2 DIV MUL PUSH1 0x20 ADD PUSH1 0x40 MLOAD SWAP1 DUP2 ADD PUSH1 0x40 MSTORE DUP1 SWAP3 SWAP2 SWAP1 DUP2 DUP2 MSTORE PUSH1 0x20 ADD DUP3 DUP1 SLOAD PUSH2 0xFA7 SWAP1 PUSH2 0x250F JUMP JUMPDEST DUP1 ISZERO PUSH2 0xFF4 JUMPI DUP1 PUSH1 0x1F LT PUSH2 0xFC9 JUMPI PUSH2 0x100 DUP1 DUP4 SLOAD DIV MUL DUP4 MSTORE SWAP2 PUSH1 0x20 ADD SWAP2 PUSH2 0xFF4 JUMP JUMPDEST DUP3 ADD SWAP2 SWAP1 PUSH1 0x0 MSTORE PUSH1 0x20 PUSH1 0x0 KECCAK256 SWAP1 JUMPDEST DUP2 SLOAD DUP2 MSTORE SWAP1 PUSH1 0x1 ADD SWAP1 PUSH1 0x20 ADD DUP1 DUP4 GT PUSH2 0xFD7 JUMPI DUP3 SWAP1 SUB PUSH1 0x1F AND DUP3 ADD SWAP2 JUMPDEST POP POP POP POP POP SWAP1 DUP1 PUSH1 0x3 ADD DUP1 SLOAD PUSH2 0x1009 SWAP1 PUSH2 0x250F JUMP JUMPDEST DUP1 PUSH1 0x1F ADD PUSH1 0x20 DUP1 SWAP2 DIV MUL PUSH1 0x20 ADD PUSH1 0x40 MLOAD SWAP1 DUP2 ADD PUSH1 0x40 MSTORE DUP1 SWAP3 SWAP2 SWAP1 DUP2 DUP2 MSTORE PUSH1 0x20 ADD DUP3 DUP1 SLOAD PUSH2 0x1035 SWAP1 PUSH2 0x250F JUMP JUMPDEST DUP1 ISZERO PUSH2 0x1082 JUMPI DUP1 PUSH1 0x1F LT PUSH2 0x1057 JUMPI PUSH2 0x100 DUP1 DUP4 SLOAD DIV MUL DUP4 MSTORE SWAP2 PUSH1 0x20 ADD SWAP2 PUSH2 0x1082 JUMP JUMPDEST DUP3 ADD SWAP2 SWAP1 PUSH1 0x0 MSTORE PUSH1 0x20 PUSH1 0x0 KECCAK256 SWAP1 JUMPDEST DUP2 SLOAD DUP2 MSTORE SWAP1 PUSH1 0x1 ADD SWAP1 PUSH1 0x20 ADD DUP1 DUP4 GT PUSH2 0x1065 JUMPI DUP3 SWAP1 SUB PUSH1 0x1F AND DUP3 ADD SWAP2 JUMPDEST POP POP POP POP POP SWAP1 DUP1 PUSH1 0x4 ADD DUP1 SLOAD PUSH2 0x1097 SWAP1 PUSH2 0x250F JUMP JUMPDEST DUP1 PUSH1 0x1F ADD PUSH1 0x20 DUP1 SWAP2 DIV MUL PUSH1 0x20 ADD PUSH1 0x40 MLOAD SWAP1 DUP2 ADD PUSH1 0x40 MSTORE DUP1 SWAP3 SWAP2 SWAP1 DUP2 DUP2 MSTORE PUSH1 0x20 ADD DUP3 DUP1 SLOAD PUSH2 0x10C3 SWAP1 PUSH2 0x250F JUMP JUMPDEST DUP1 ISZERO PUSH2 0x1110 JUMPI DUP1 PUSH1 0x1F LT PUSH2 0x10E5 JUMPI PUSH2 0x100 DUP1 DUP4 SLOAD DIV MUL DUP4 MSTORE SWAP2 PUSH1 0x20 ADD SWAP2 PUSH2 0x1110 JUMP JUMPDEST DUP3 ADD SWAP2 SWAP1 PUSH1 0x0 MSTORE PUSH1 0x20 PUSH1 0x0 KECCAK256 SWAP1 JUMPDEST DUP2 SLOAD DUP2 MSTORE SWAP1 PUSH1 0x1 ADD SWAP1 PUSH1 0x20 ADD DUP1 DUP4 GT PUSH2 0x10F3 JUMPI DUP3 SWAP1 SUB PUSH1 0x1F AND DUP3 ADD SWAP2 JUMPDEST POP POP POP POP POP SWAP1 DUP1 PUSH1 0x6 ADD DUP1 SLOAD PUSH2 0x1125 SWAP1 PUSH2 0x250F JUMP JUMPDEST DUP1 PUSH1 0x1F ADD PUSH1 0x20 DUP1 SWAP2 DIV MUL PUSH1 0x20 ADD PUSH1 0x40 MLOAD SWAP1 DUP2 ADD PUSH1 0x40 MSTORE DUP1 SWAP3 SWAP2 SWAP1 DUP2 DUP2 MSTORE PUSH1 0x20 ADD DUP3 DUP1 SLOAD PUSH2 0x1151 SWAP1 PUSH2 0x250F JUMP JUMPDEST DUP1 ISZERO PUSH2 0x119E JUMPI DUP1 PUSH1 0x1F LT PUSH2 0x1173 JUMPI PUSH2 0x100 DUP1 DUP4 SLOAD DIV MUL DUP4 MSTORE SWAP2 PUSH1 0x20 ADD SWAP2 PUSH2 0x119E JUMP JUMPDEST DUP3 ADD SWAP2 SWAP1 PUSH1 0x0 MSTORE PUSH1 0x20 PUSH1 0x0 KECCAK256 SWAP1 JUMPDEST DUP2 SLOAD DUP2 MSTORE SWAP1 PUSH1 0x1 ADD SWAP1 PUSH1 0x20 ADD DUP1 DUP4 GT PUSH2 0x1181 JUMPI DUP3 SWAP1 SUB PUSH1 0x1F AND DUP3 ADD SWAP2 JUMPDEST POP POP POP POP POP SWAP1 DUP1 PUSH1 0x7 ADD DUP1 SLOAD PUSH2 0x11B3 SWAP1 PUSH2 0x250F JUMP JUMPDEST DUP1 PUSH1 0x1F ADD PUSH1 0x20 DUP1 SWAP2 DIV MUL PUSH1 0x20 ADD PUSH1 0x40 MLOAD SWAP1 DUP2 ADD PUSH1 0x40 MSTORE DUP1 SWAP3 SWAP2 SWAP1 DUP2 DUP2 MSTORE PUSH1 0x20 ADD DUP3 DUP1 SLOAD PUSH2 0x11DF SWAP1 PUSH2 0x250F JUMP JUMPDEST DUP1 ISZERO PUSH2 0x122C JUMPI DUP1 PUSH1 0x1F LT PUSH2 0x1201 JUMPI PUSH2 0x100 DUP1 DUP4 SLOAD DIV MUL DUP4 MSTORE SWAP2 PUSH1 0x20 ADD SWAP2 PUSH2 0x122C JUMP JUMPDEST DUP3 ADD SWAP2 SWAP1 PUSH1 0x0 MSTORE PUSH1 0x20 PUSH1 0x0 KECCAK256 SWAP1 JUMPDEST DUP2 SLOAD DUP2 MSTORE SWAP1 PUSH1 0x1 ADD SWAP1 PUSH1 0x20 ADD DUP1 DUP4 GT PUSH2 0x120F JUMPI DUP3 SWAP1 SUB PUSH1 0x1F AND DUP3 ADD SWAP2 JUMPDEST POP POP POP POP POP SWAP1 DUP1 PUSH1 0x8 ADD DUP1 SLOAD PUSH2 0x1241 SWAP1 PUSH2 0x250F JUMP JUMPDEST DUP1 PUSH1 0x1F ADD PUSH1 0x20 DUP1 SWAP2 DIV MUL PUSH1 0x20 ADD PUSH1 0x40 MLOAD SWAP1 DUP2 ADD PUSH1 0x40 MSTORE DUP1 SWAP3 SWAP2 SWAP1 DUP2 DUP2 MSTORE PUSH1 0x20 ADD DUP3 DUP1 SLOAD PUSH2 0x126D SWAP1 PUSH2 0x250F JUMP JUMPDEST DUP1 ISZERO PUSH2 0x12BA JUMPI DUP1 PUSH1 0x1F LT PUSH2 0x128F JUMPI PUSH2 0x100 DUP1 DUP4 SLOAD DIV MUL DUP4 MSTORE SWAP2 PUSH1 0x20 ADD SWAP2 PUSH2 0x12BA JUMP JUMPDEST DUP3 ADD SWAP2 SWAP1 PUSH1 0x0 MSTORE PUSH1 0x20 PUSH1 0x0 KECCAK256 SWAP1 JUMPDEST DUP2 SLOAD DUP2 MSTORE SWAP1 PUSH1 0x1 ADD SWAP1 PUSH1 0x20 ADD DUP1 DUP4 GT PUSH2 0x129D JUMPI DUP3 SWAP1 SUB PUSH1 0x1F AND DUP3 ADD SWAP2 JUMPDEST POP POP POP POP POP SWAP1 DUP1 PUSH1 0x9 ADD DUP1 SLOAD PUSH2 0x12CF SWAP1 PUSH2 0x250F JUMP JUMPDEST DUP1 PUSH1 0x1F ADD PUSH1 0x20 DUP1 SWAP2 DIV MUL PUSH1 0x20 ADD PUSH1 0x40 MLOAD SWAP1 DUP2 ADD PUSH1 0x40 MSTORE DUP1 SWAP3 SWAP2 SWAP1 DUP2 DUP2 MSTORE PUSH1 0x20 ADD DUP3 DUP1 SLOAD PUSH2 0x12FB SWAP1 PUSH2 0x250F JUMP JUMPDEST DUP1 ISZERO PUSH2 0x1348 JUMPI DUP1 PUSH1 0x1F LT PUSH2 0x131D JUMPI PUSH2 0x100 DUP1 DUP4 SLOAD DIV MUL DUP4 MSTORE SWAP2 PUSH1 0x20 ADD SWAP2 PUSH2 0x1348 JUMP JUMPDEST DUP3 ADD SWAP2 SWAP1 PUSH1 0x0 MSTORE PUSH1 0x20 PUSH1 0x0 KECCAK256 SWAP1 JUMPDEST DUP2 SLOAD DUP2 MSTORE SWAP1 PUSH1 0x1 ADD SWAP1 PUSH1 0x20 ADD DUP1 DUP4 GT PUSH2 0x132B JUMPI DUP3 SWAP1 SUB PUSH1 0x1F AND DUP3 ADD SWAP2 JUMPDEST POP POP POP POP POP SWAP1 POP DUP8 JUMP JUMPDEST PUSH1 0x0 PUSH1 0x2 DUP2 SWAP1 SSTORE POP JUMPDEST PUSH1 0x1 DUP1 SLOAD SWAP1 POP PUSH1 0x2 SLOAD LT ISZERO PUSH2 0x14E4 JUMPI DUP2 PUSH1 0x2 SLOAD SUB PUSH2 0x13E2 JUMPI PUSH1 0x40 MLOAD DUP1 PUSH1 0x40 ADD PUSH1 0x40 MSTORE DUP1 PUSH1 0x8 DUP2 MSTORE PUSH1 0x20 ADD PUSH32 0x6163636570746564000000000000000000000000000000000000000000000000 DUP2 MSTORE POP PUSH1 0x1 PUSH1 0x2 SLOAD DUP2 SLOAD DUP2 LT PUSH2 0x13BF JUMPI PUSH2 0x13BE PUSH2 0x27BE JUMP JUMPDEST JUMPDEST SWAP1 PUSH1 0x0 MSTORE PUSH1 0x20 PUSH1 0x0 KECCAK256 SWAP1 PUSH1 0xA MUL ADD PUSH1 0x8 ADD SWAP1 DUP2 PUSH2 0x13DC SWAP2 SWAP1 PUSH2 0x26EC JUMP JUMPDEST POP PUSH2 0x14C7 JUMP JUMPDEST DUP1 PUSH1 0x40 MLOAD PUSH1 0x20 ADD PUSH2 0x13F3 SWAP2 SWAP1 PUSH2 0x2829 JUMP JUMPDEST PUSH1 0x40 MLOAD PUSH1 0x20 DUP2 DUP4 SUB SUB DUP2 MSTORE SWAP1 PUSH1 0x40 MSTORE DUP1 MLOAD SWAP1 PUSH1 0x20 ADD KECCAK256 PUSH1 0x1 PUSH1 0x2 SLOAD DUP2 SLOAD DUP2 LT PUSH2 0x141F JUMPI PUSH2 0x141E PUSH2 0x27BE JUMP JUMPDEST JUMPDEST SWAP1 PUSH1 0x0 MSTORE PUSH1 0x20 PUSH1 0x0 KECCAK256 SWAP1 PUSH1 0xA MUL ADD PUSH1 0x7 ADD PUSH1 0x40 MLOAD PUSH1 0x20 ADD PUSH2 0x1440 SWAP2 SWAP1 PUSH2 0x28C3 JUMP JUMPDEST PUSH1 0x40 MLOAD PUSH1 0x20 DUP2 DUP4 SUB SUB DUP2 MSTORE SWAP1 PUSH1 0x40 MSTORE DUP1 MLOAD SWAP1 PUSH1 0x20 ADD KECCAK256 SUB PUSH2 0x14C6 JUMPI PUSH1 0x40 MLOAD DUP1 PUSH1 0x40 ADD PUSH1 0x40 MSTORE DUP1 PUSH1 0x8 DUP2 MSTORE PUSH1 0x20 ADD PUSH32 0x72656A6563746564000000000000000000000000000000000000000000000000 DUP2 MSTORE POP PUSH1 0x1 PUSH1 0x2 SLOAD DUP2 SLOAD DUP2 LT PUSH2 0x14A7 JUMPI PUSH2 0x14A6 PUSH2 0x27BE JUMP JUMPDEST JUMPDEST SWAP1 PUSH1 0x0 MSTORE PUSH1 0x20 PUSH1 0x0 KECCAK256 SWAP1 PUSH1 0xA MUL ADD PUSH1 0x8 ADD SWAP1 DUP2 PUSH2 0x14C4 SWAP2 SWAP1 PUSH2 0x26EC JUMP JUMPDEST POP JUMPDEST JUMPDEST PUSH1 0x2 PUSH1 0x0 DUP2 SLOAD DUP1 SWAP3 SWAP2 SWAP1 PUSH2 0x14DA SWAP1 PUSH2 0x2909 JUMP JUMPDEST SWAP2 SWAP1 POP SSTORE POP PUSH2 0x135B JUMP JUMPDEST POP POP JUMP JUMPDEST PUSH1 0x40 MLOAD DUP1 PUSH2 0x140 ADD PUSH1 0x40 MSTORE DUP1 PUSH1 0x60 DUP2 MSTORE PUSH1 0x20 ADD PUSH1 0x60 DUP2 MSTORE PUSH1 0x20 ADD PUSH1 0x60 DUP2 MSTORE PUSH1 0x20 ADD PUSH1 0x60 DUP2 MSTORE PUSH1 0x20 ADD PUSH1 0x60 DUP2 MSTORE PUSH1 0x20 ADD PUSH1 0x60 DUP2 MSTORE PUSH1 0x20 ADD PUSH1 0x60 DUP2 MSTORE PUSH1 0x20 ADD PUSH1 0x60 DUP2 MSTORE PUSH1 0x20 ADD PUSH1 0x60 DUP2 MSTORE PUSH1 0x20 ADD PUSH1 0x60 DUP2 MSTORE POP SWAP1 JUMP JUMPDEST DUP3 DUP1 SLOAD DUP3 DUP3 SSTORE SWAP1 PUSH1 0x0 MSTORE PUSH1 0x20 PUSH1 0x0 KECCAK256 SWAP1 DUP2 ADD SWAP3 DUP3 ISZERO PUSH2 0x1583 JUMPI SWAP2 PUSH1 0x20 MUL DUP3 ADD JUMPDEST DUP3 DUP2 GT ISZERO PUSH2 0x1582 JUMPI DUP3 MLOAD DUP3 SWAP1 DUP2 PUSH2 0x1572 SWAP2 SWAP1 PUSH2 0x26EC JUMP JUMPDEST POP SWAP2 PUSH1 0x20 ADD SWAP2 SWAP1 PUSH1 0x1 ADD SWAP1 PUSH2 0x155B JUMP JUMPDEST JUMPDEST POP SWAP1 POP PUSH2 0x1590 SWAP2 SWAP1 PUSH2 0x1610 JUMP JUMPDEST POP SWAP1 JUMP JUMPDEST DUP3 DUP1 SLOAD DUP3 DUP3 SSTORE SWAP1 PUSH1 0x0 MSTORE PUSH1 0x20 PUSH1 0x0 KECCAK256 SWAP1 DUP2 ADD SWAP3 DUP3 ISZERO PUSH2 0x15D0 JUMPI SWAP2 PUSH1 0x20 MUL DUP3 ADD JUMPDEST DUP3 DUP2 GT ISZERO PUSH2 0x15CF JUMPI DUP3 MLOAD DUP3 SSTORE SWAP2 PUSH1 0x20 ADD SWAP2 SWAP1 PUSH1 0x1 ADD SWAP1 PUSH2 0x15B4 JUMP JUMPDEST JUMPDEST POP SWAP1 POP PUSH2 0x15DD SWAP2 SWAP1 PUSH2 0x1634 JUMP JUMPDEST POP SWAP1 JUMP JUMPDEST PUSH1 0x40 MLOAD DUP1 PUSH1 0xA0 ADD PUSH1 0x40 MSTORE DUP1 PUSH1 0x60 DUP2 MSTORE PUSH1 0x20 ADD PUSH1 0x60 DUP2 MSTORE PUSH1 0x20 ADD PUSH1 0x60 DUP2 MSTORE PUSH1 0x20 ADD PUSH1 0x60 DUP2 MSTORE PUSH1 0x20 ADD PUSH1 0x60 DUP2 MSTORE POP SWAP1 JUMP JUMPDEST JUMPDEST DUP1 DUP3 GT ISZERO PUSH2 0x1630 JUMPI PUSH1 0x0 DUP2 DUP2 PUSH2 0x1627 SWAP2 SWAP1 PUSH2 0x1651 JUMP JUMPDEST POP PUSH1 0x1 ADD PUSH2 0x1611 JUMP JUMPDEST POP SWAP1 JUMP JUMPDEST JUMPDEST DUP1 DUP3 GT ISZERO PUSH2 0x164D JUMPI PUSH1 0x0 DUP2 PUSH1 0x0 SWAP1 SSTORE POP PUSH1 0x1 ADD PUSH2 0x1635 JUMP JUMPDEST POP SWAP1 JUMP JUMPDEST POP DUP1 SLOAD PUSH2 0x165D SWAP1 PUSH2 0x250F JUMP JUMPDEST PUSH1 0x0 DUP3 SSTORE DUP1 PUSH1 0x1F LT PUSH2 0x166F JUMPI POP PUSH2 0x168E JUMP JUMPDEST PUSH1 0x1F ADD PUSH1 0x20 SWAP1 DIV SWAP1 PUSH1 0x0 MSTORE PUSH1 0x20 PUSH1 0x0 KECCAK256 SWAP1 DUP2 ADD SWAP1 PUSH2 0x168D SWAP2 SWAP1 PUSH2 0x1691 JUMP JUMPDEST JUMPDEST POP JUMP JUMPDEST JUMPDEST DUP1 DUP3 GT ISZERO PUSH2 0x16AA JUMPI PUSH1 0x0 DUP2 PUSH1 0x0 SWAP1 SSTORE POP PUSH1 0x1 ADD PUSH2 0x1692 JUMP JUMPDEST POP SWAP1 JUMP JUMPDEST PUSH1 0x0 PUSH1 0x40 MLOAD SWAP1 POP SWAP1 JUMP JUMPDEST PUSH1 0x0 DUP1 REVERT JUMPDEST PUSH1 0x0 DUP1 REVERT JUMPDEST PUSH1 0x0 DUP1 REVERT JUMPDEST PUSH1 0x0 PUSH1 0x1F NOT PUSH1 0x1F DUP4 ADD AND SWAP1 POP SWAP2 SWAP1 POP JUMP JUMPDEST PUSH32 0x4E487B7100000000000000000000000000000000000000000000000000000000 PUSH1 0x0 MSTORE PUSH1 0x41 PUSH1 0x4 MSTORE PUSH1 0x24 PUSH1 0x0 REVERT JUMPDEST PUSH2 0x1710 DUP3 PUSH2 0x16C7 JUMP JUMPDEST DUP2 ADD DUP2 DUP2 LT PUSH8 0xFFFFFFFFFFFFFFFF DUP3 GT OR ISZERO PUSH2 0x172F JUMPI PUSH2 0x172E PUSH2 0x16D8 JUMP JUMPDEST JUMPDEST DUP1 PUSH1 0x40 MSTORE POP POP POP JUMP JUMPDEST PUSH1 0x0 PUSH2 0x1742 PUSH2 0x16AE JUMP JUMPDEST SWAP1 POP PUSH2 0x174E DUP3 DUP3 PUSH2 0x1707 JUMP JUMPDEST SWAP2 SWAP1 POP JUMP JUMPDEST PUSH1 0x0 DUP1 REVERT JUMPDEST PUSH1 0x0 DUP1 REVERT JUMPDEST PUSH1 0x0 DUP1 REVERT JUMPDEST PUSH1 0x0 PUSH8 0xFFFFFFFFFFFFFFFF DUP3 GT ISZERO PUSH2 0x177D JUMPI PUSH2 0x177C PUSH2 0x16D8 JUMP JUMPDEST JUMPDEST PUSH2 0x1786 DUP3 PUSH2 0x16C7 JUMP JUMPDEST SWAP1 POP PUSH1 0x20 DUP2 ADD SWAP1 POP SWAP2 SWAP1 POP JUMP JUMPDEST DUP3 DUP2 DUP4 CALLDATACOPY PUSH1 0x0 DUP4 DUP4 ADD MSTORE POP POP POP JUMP JUMPDEST PUSH1 0x0 PUSH2 0x17B5 PUSH2 0x17B0 DUP5 PUSH2 0x1762 JUMP JUMPDEST PUSH2 0x1738 JUMP JUMPDEST SWAP1 POP DUP3 DUP2 MSTORE PUSH1 0x20 DUP2 ADD DUP5 DUP5 DUP5 ADD GT ISZERO PUSH2 0x17D1 JUMPI PUSH2 0x17D0 PUSH2 0x175D JUMP JUMPDEST JUMPDEST PUSH2 0x17DC DUP5 DUP3 DUP6 PUSH2 0x1793 JUMP JUMPDEST POP SWAP4 SWAP3 POP POP POP JUMP JUMPDEST PUSH1 0x0 DUP3 PUSH1 0x1F DUP4 ADD SLT PUSH2 0x17F9 JUMPI PUSH2 0x17F8 PUSH2 0x1758 JUMP JUMPDEST JUMPDEST DUP2 CALLDATALOAD PUSH2 0x1809 DUP5 DUP3 PUSH1 0x20 DUP7 ADD PUSH2 0x17A2 JUMP JUMPDEST SWAP2 POP POP SWAP3 SWAP2 POP POP JUMP JUMPDEST PUSH1 0x0 PUSH8 0xFFFFFFFFFFFFFFFF DUP3 GT ISZERO PUSH2 0x182D JUMPI PUSH2 0x182C PUSH2 0x16D8 JUMP JUMPDEST JUMPDEST PUSH1 0x20 DUP3 MUL SWAP1 POP PUSH1 0x20 DUP2 ADD SWAP1 POP SWAP2 SWAP1 POP JUMP JUMPDEST PUSH1 0x0 DUP1 REVERT JUMPDEST PUSH1 0x0 PUSH2 0x1856 PUSH2 0x1851 DUP5 PUSH2 0x1812 JUMP JUMPDEST PUSH2 0x1738 JUMP JUMPDEST SWAP1 POP DUP1 DUP4 DUP3 MSTORE PUSH1 0x20 DUP3 ADD SWAP1 POP PUSH1 0x20 DUP5 MUL DUP4 ADD DUP6 DUP2 GT ISZERO PUSH2 0x1879 JUMPI PUSH2 0x1878 PUSH2 0x183E JUMP JUMPDEST JUMPDEST DUP4 JUMPDEST DUP2 DUP2 LT ISZERO PUSH2 0x18C0 JUMPI DUP1 CALLDATALOAD PUSH8 0xFFFFFFFFFFFFFFFF DUP2 GT ISZERO PUSH2 0x189E JUMPI PUSH2 0x189D PUSH2 0x1758 JUMP JUMPDEST JUMPDEST DUP1 DUP7 ADD PUSH2 0x18AB DUP10 DUP3 PUSH2 0x17E4 JUMP JUMPDEST DUP6 MSTORE PUSH1 0x20 DUP6 ADD SWAP5 POP POP POP PUSH1 0x20 DUP2 ADD SWAP1 POP PUSH2 0x187B JUMP JUMPDEST POP POP POP SWAP4 SWAP3 POP POP POP JUMP JUMPDEST PUSH1 0x0 DUP3 PUSH1 0x1F DUP4 ADD SLT PUSH2 0x18DF JUMPI PUSH2 0x18DE PUSH2 0x1758 JUMP JUMPDEST JUMPDEST DUP2 CALLDATALOAD PUSH2 0x18EF DUP5 DUP3 PUSH1 0x20 DUP7 ADD PUSH2 0x1843 JUMP JUMPDEST SWAP2 POP POP SWAP3 SWAP2 POP POP JUMP JUMPDEST PUSH1 0x0 PUSH8 0xFFFFFFFFFFFFFFFF DUP3 GT ISZERO PUSH2 0x1913 JUMPI PUSH2 0x1912 PUSH2 0x16D8 JUMP JUMPDEST JUMPDEST PUSH1 0x20 DUP3 MUL SWAP1 POP PUSH1 0x20 DUP2 ADD SWAP1 POP SWAP2 SWAP1 POP JUMP JUMPDEST PUSH1 0x0 DUP2 SWAP1 POP SWAP2 SWAP1 POP JUMP JUMPDEST PUSH2 0x1937 DUP2 PUSH2 0x1924 JUMP JUMPDEST DUP2 EQ PUSH2 0x1942 JUMPI PUSH1 0x0 DUP1 REVERT JUMPDEST POP JUMP JUMPDEST PUSH1 0x0 DUP2 CALLDATALOAD SWAP1 POP PUSH2 0x1954 DUP2 PUSH2 0x192E JUMP JUMPDEST SWAP3 SWAP2 POP POP JUMP JUMPDEST PUSH1 0x0 PUSH2 0x196D PUSH2 0x1968 DUP5 PUSH2 0x18F8 JUMP JUMPDEST PUSH2 0x1738 JUMP JUMPDEST SWAP1 POP DUP1 DUP4 DUP3 MSTORE PUSH1 0x20 DUP3 ADD SWAP1 POP PUSH1 0x20 DUP5 MUL DUP4 ADD DUP6 DUP2 GT ISZERO PUSH2 0x1990 JUMPI PUSH2 0x198F PUSH2 0x183E JUMP JUMPDEST JUMPDEST DUP4 JUMPDEST DUP2 DUP2 LT ISZERO PUSH2 0x19B9 JUMPI DUP1 PUSH2 0x19A5 DUP9 DUP3 PUSH2 0x1945 JUMP JUMPDEST DUP5 MSTORE PUSH1 0x20 DUP5 ADD SWAP4 POP POP PUSH1 0x20 DUP2 ADD SWAP1 POP PUSH2 0x1992 JUMP JUMPDEST POP POP POP SWAP4 SWAP3 POP POP POP JUMP JUMPDEST PUSH1 0x0 DUP3 PUSH1 0x1F DUP4 ADD SLT PUSH2 0x19D8 JUMPI PUSH2 0x19D7 PUSH2 0x1758 JUMP JUMPDEST JUMPDEST DUP2 CALLDATALOAD PUSH2 0x19E8 DUP5 DUP3 PUSH1 0x20 DUP7 ADD PUSH2 0x195A JUMP JUMPDEST SWAP2 POP POP SWAP3 SWAP2 POP POP JUMP JUMPDEST PUSH1 0x0 PUSH2 0x140 DUP3 DUP5 SUB SLT ISZERO PUSH2 0x1A08 JUMPI PUSH2 0x1A07 PUSH2 0x16C2 JUMP JUMPDEST JUMPDEST PUSH2 0x1A13 PUSH2 0x140 PUSH2 0x1738 JUMP JUMPDEST SWAP1 POP PUSH1 0x0 DUP3 ADD CALLDATALOAD PUSH8 0xFFFFFFFFFFFFFFFF DUP2 GT ISZERO PUSH2 0x1A33 JUMPI PUSH2 0x1A32 PUSH2 0x1753 JUMP JUMPDEST JUMPDEST PUSH2 0x1A3F DUP5 DUP3 DUP6 ADD PUSH2 0x17E4 JUMP JUMPDEST PUSH1 0x0 DUP4 ADD MSTORE POP PUSH1 0x20 DUP3 ADD CALLDATALOAD PUSH8 0xFFFFFFFFFFFFFFFF DUP2 GT ISZERO PUSH2 0x1A63 JUMPI PUSH2 0x1A62 PUSH2 0x1753 JUMP JUMPDEST JUMPDEST PUSH2 0x1A6F DUP5 DUP3 DUP6 ADD PUSH2 0x18CA JUMP JUMPDEST PUSH1 0x20 DUP4 ADD MSTORE POP PUSH1 0x40 DUP3 ADD CALLDATALOAD PUSH8 0xFFFFFFFFFFFFFFFF DUP2 GT ISZERO PUSH2 0x1A93 JUMPI PUSH2 0x1A92 PUSH2 0x1753 JUMP JUMPDEST JUMPDEST PUSH2 0x1A9F DUP5 DUP3 DUP6 ADD PUSH2 0x19C3 JUMP JUMPDEST PUSH1 0x40 DUP4 ADD MSTORE POP PUSH1 0x60 DUP3 ADD CALLDATALOAD PUSH8 0xFFFFFFFFFFFFFFFF DUP2 GT ISZERO PUSH2 0x1AC3 JUMPI PUSH2 0x1AC2 PUSH2 0x1753 JUMP JUMPDEST JUMPDEST PUSH2 0x1ACF DUP5 DUP3 DUP6 ADD PUSH2 0x17E4 JUMP JUMPDEST PUSH1 0x60 DUP4 ADD MSTORE POP PUSH1 0x80 DUP3 ADD CALLDATALOAD PUSH8 0xFFFFFFFFFFFFFFFF DUP2 GT ISZERO PUSH2 0x1AF3 JUMPI PUSH2 0x1AF2 PUSH2 0x1753 JUMP JUMPDEST JUMPDEST PUSH2 0x1AFF DUP5 DUP3 DUP6 ADD PUSH2 0x17E4 JUMP JUMPDEST PUSH1 0x80 DUP4 ADD MSTORE POP PUSH1 0xA0 DUP3 ADD CALLDATALOAD PUSH8 0xFFFFFFFFFFFFFFFF DUP2 GT ISZERO PUSH2 0x1B23 JUMPI PUSH2 0x1B22 PUSH2 0x1753 JUMP JUMPDEST JUMPDEST PUSH2 0x1B2F DUP5 DUP3 DUP6 ADD PUSH2 0x19C3 JUMP JUMPDEST PUSH1 0xA0 DUP4 ADD MSTORE POP PUSH1 0xC0 DUP3 ADD CALLDATALOAD PUSH8 0xFFFFFFFFFFFFFFFF DUP2 GT ISZERO PUSH2 0x1B53 JUMPI PUSH2 0x1B52 PUSH2 0x1753 JUMP JUMPDEST JUMPDEST PUSH2 0x1B5F DUP5 DUP3 DUP6 ADD PUSH2 0x17E4 JUMP JUMPDEST PUSH1 0xC0 DUP4 ADD MSTORE POP PUSH1 0xE0 DUP3 ADD CALLDATALOAD PUSH8 0xFFFFFFFFFFFFFFFF DUP2 GT ISZERO PUSH2 0x1B83 JUMPI PUSH2 0x1B82 PUSH2 0x1753 JUMP JUMPDEST JUMPDEST PUSH2 0x1B8F DUP5 DUP3 DUP6 ADD PUSH2 0x17E4 JUMP JUMPDEST PUSH1 0xE0 DUP4 ADD MSTORE POP PUSH2 0x100 DUP3 ADD CALLDATALOAD PUSH8 0xFFFFFFFFFFFFFFFF DUP2 GT ISZERO PUSH2 0x1BB4 JUMPI PUSH2 0x1BB3 PUSH2 0x1753 JUMP JUMPDEST JUMPDEST PUSH2 0x1BC0 DUP5 DUP3 DUP6 ADD PUSH2 0x17E4 JUMP JUMPDEST PUSH2 0x100 DUP4 ADD MSTORE POP PUSH2 0x120 DUP3 ADD CALLDATALOAD PUSH8 0xFFFFFFFFFFFFFFFF DUP2 GT ISZERO PUSH2 0x1BE6 JUMPI PUSH2 0x1BE5 PUSH2 0x1753 JUMP JUMPDEST JUMPDEST PUSH2 0x1BF2 DUP5 DUP3 DUP6 ADD PUSH2 0x17E4 JUMP JUMPDEST PUSH2 0x120 DUP4 ADD MSTORE POP SWAP3 SWAP2 POP POP JUMP JUMPDEST PUSH1 0x0 PUSH1 0x20 DUP3 DUP5 SUB SLT ISZERO PUSH2 0x1C15 JUMPI PUSH2 0x1C14 PUSH2 0x16B8 JUMP JUMPDEST JUMPDEST PUSH1 0x0 DUP3 ADD CALLDATALOAD PUSH8 0xFFFFFFFFFFFFFFFF DUP2 GT ISZERO PUSH2 0x1C33 JUMPI PUSH2 0x1C32 PUSH2 0x16BD JUMP JUMPDEST JUMPDEST PUSH2 0x1C3F DUP5 DUP3 DUP6 ADD PUSH2 0x19F1 JUMP JUMPDEST SWAP2 POP POP SWAP3 SWAP2 POP POP JUMP JUMPDEST PUSH1 0x0 DUP1 PUSH1 0x0 DUP1 PUSH1 0x0 PUSH1 0xA0 DUP7 DUP9 SUB SLT ISZERO PUSH2 0x1C64 JUMPI PUSH2 0x1C63 PUSH2 0x16B8 JUMP JUMPDEST JUMPDEST PUSH1 0x0 DUP7 ADD CALLDATALOAD PUSH8 0xFFFFFFFFFFFFFFFF DUP2 GT ISZERO PUSH2 0x1C82 JUMPI PUSH2 0x1C81 PUSH2 0x16BD JUMP JUMPDEST JUMPDEST PUSH2 0x1C8E DUP9 DUP3 DUP10 ADD PUSH2 0x17E4 JUMP JUMPDEST SWAP6 POP POP PUSH1 0x20 DUP7 ADD CALLDATALOAD PUSH8 0xFFFFFFFFFFFFFFFF DUP2 GT ISZERO PUSH2 0x1CAF JUMPI PUSH2 0x1CAE PUSH2 0x16BD JUMP JUMPDEST JUMPDEST PUSH2 0x1CBB DUP9 DUP3 DUP10 ADD PUSH2 0x18CA JUMP JUMPDEST SWAP5 POP POP PUSH1 0x40 DUP7 ADD CALLDATALOAD PUSH8 0xFFFFFFFFFFFFFFFF DUP2 GT ISZERO PUSH2 0x1CDC JUMPI PUSH2 0x1CDB PUSH2 0x16BD JUMP JUMPDEST JUMPDEST PUSH2 0x1CE8 DUP9 DUP3 DUP10 ADD PUSH2 0x19C3 JUMP JUMPDEST SWAP4 POP POP PUSH1 0x60 DUP7 ADD CALLDATALOAD PUSH8 0xFFFFFFFFFFFFFFFF DUP2 GT ISZERO PUSH2 0x1D09 JUMPI PUSH2 0x1D08 PUSH2 0x16BD JUMP JUMPDEST JUMPDEST PUSH2 0x1D15 DUP9 DUP3 DUP10 ADD PUSH2 0x17E4 JUMP JUMPDEST SWAP3 POP POP PUSH1 0x80 DUP7 ADD CALLDATALOAD PUSH8 0xFFFFFFFFFFFFFFFF DUP2 GT ISZERO PUSH2 0x1D36 JUMPI PUSH2 0x1D35 PUSH2 0x16BD JUMP JUMPDEST JUMPDEST PUSH2 0x1D42 DUP9 DUP3 DUP10 ADD PUSH2 0x17E4 JUMP JUMPDEST SWAP2 POP POP SWAP3 SWAP6 POP SWAP3 SWAP6 SWAP1 SWAP4 POP JUMP JUMPDEST PUSH1 0x0 DUP2 MLOAD SWAP1 POP SWAP2 SWAP1 POP JUMP JUMPDEST PUSH1 0x0 DUP3 DUP3 MSTORE PUSH1 0x20 DUP3 ADD SWAP1 POP SWAP3 SWAP2 POP POP JUMP JUMPDEST PUSH1 0x0 DUP2 SWAP1 POP PUSH1 0x20 DUP3 ADD SWAP1 POP SWAP2 SWAP1 POP JUMP JUMPDEST PUSH1 0x0 DUP2 MLOAD SWAP1 POP SWAP2 SWAP1 POP JUMP JUMPDEST PUSH1 0x0 DUP3 DUP3 MSTORE PUSH1 0x20 DUP3 ADD SWAP1 POP SWAP3 SWAP2 POP POP JUMP JUMPDEST PUSH1 0x0 JUMPDEST DUP4 DUP2 LT ISZERO PUSH2 0x1DB5 JUMPI DUP1 DUP3 ADD MLOAD DUP2 DUP5 ADD MSTORE PUSH1 0x20 DUP2 ADD SWAP1 POP PUSH2 0x1D9A JUMP JUMPDEST PUSH1 0x0 DUP5 DUP5 ADD MSTORE POP POP POP POP JUMP JUMPDEST PUSH1 0x0 PUSH2 0x1DCC DUP3 PUSH2 0x1D7B JUMP JUMPDEST PUSH2 0x1DD6 DUP2 DUP6 PUSH2 0x1D86 JUMP JUMPDEST SWAP4 POP PUSH2 0x1DE6 DUP2 DUP6 PUSH1 0x20 DUP7 ADD PUSH2 0x1D97 JUMP JUMPDEST PUSH2 0x1DEF DUP2 PUSH2 0x16C7 JUMP JUMPDEST DUP5 ADD SWAP2 POP POP SWAP3 SWAP2 POP POP JUMP JUMPDEST PUSH1 0x0 DUP2 MLOAD SWAP1 POP SWAP2 SWAP1 POP JUMP JUMPDEST PUSH1 0x0 DUP3 DUP3 MSTORE PUSH1 0x20 DUP3 ADD SWAP1 POP SWAP3 SWAP2 POP POP JUMP JUMPDEST PUSH1 0x0 DUP2 SWAP1 POP PUSH1 0x20 DUP3 ADD SWAP1 POP SWAP2 SWAP1 POP JUMP JUMPDEST PUSH1 0x0 PUSH2 0x1E32 DUP4 DUP4 PUSH2 0x1DC1 JUMP JUMPDEST SWAP1 POP SWAP3 SWAP2 POP POP JUMP JUMPDEST PUSH1 0x0 PUSH1 0x20 DUP3 ADD SWAP1 POP SWAP2 SWAP1 POP JUMP JUMPDEST PUSH1 0x0 PUSH2 0x1E52 DUP3 PUSH2 0x1DFA JUMP JUMPDEST PUSH2 0x1E5C DUP2 DUP6 PUSH2 0x1E05 JUMP JUMPDEST SWAP4 POP DUP4 PUSH1 0x20 DUP3 MUL DUP6 ADD PUSH2 0x1E6E DUP6 PUSH2 0x1E16 JUMP JUMPDEST DUP1 PUSH1 0x0 JUMPDEST DUP6 DUP2 LT ISZERO PUSH2 0x1EAA JUMPI DUP5 DUP5 SUB DUP10 MSTORE DUP2 MLOAD PUSH2 0x1E8B DUP6 DUP3 PUSH2 0x1E26 JUMP JUMPDEST SWAP5 POP PUSH2 0x1E96 DUP4 PUSH2 0x1E3A JUMP JUMPDEST SWAP3 POP PUSH1 0x20 DUP11 ADD SWAP10 POP POP PUSH1 0x1 DUP2 ADD SWAP1 POP PUSH2 0x1E72 JUMP JUMPDEST POP DUP3 SWAP8 POP DUP8 SWAP6 POP POP POP POP POP POP SWAP3 SWAP2 POP POP JUMP JUMPDEST PUSH1 0x0 DUP2 MLOAD SWAP1 POP SWAP2 SWAP1 POP JUMP JUMPDEST PUSH1 0x0 DUP3 DUP3 MSTORE PUSH1 0x20 DUP3 ADD SWAP1 POP SWAP3 SWAP2 POP POP JUMP JUMPDEST PUSH1 0x0 DUP2 SWAP1 POP PUSH1 0x20 DUP3 ADD SWAP1 POP SWAP2 SWAP1 POP JUMP JUMPDEST PUSH2 0x1EF1 DUP2 PUSH2 0x1924 JUMP JUMPDEST DUP3 MSTORE POP POP JUMP JUMPDEST PUSH1 0x0 PUSH2 0x1F03 DUP4 DUP4 PUSH2 0x1EE8 JUMP JUMPDEST PUSH1 0x20 DUP4 ADD SWAP1 POP SWAP3 SWAP2 POP POP JUMP JUMPDEST PUSH1 0x0 PUSH1 0x20 DUP3 ADD SWAP1 POP SWAP2 SWAP1 POP JUMP JUMPDEST PUSH1 0x0 PUSH2 0x1F27 DUP3 PUSH2 0x1EBC JUMP JUMPDEST PUSH2 0x1F31 DUP2 DUP6 PUSH2 0x1EC7 JUMP JUMPDEST SWAP4 POP PUSH2 0x1F3C DUP4 PUSH2 0x1ED8 JUMP JUMPDEST DUP1 PUSH1 0x0 JUMPDEST DUP4 DUP2 LT ISZERO PUSH2 0x1F6D JUMPI DUP2 MLOAD PUSH2 0x1F54 DUP9 DUP3 PUSH2 0x1EF7 JUMP JUMPDEST SWAP8 POP PUSH2 0x1F5F DUP4 PUSH2 0x1F0F JUMP JUMPDEST SWAP3 POP POP PUSH1 0x1 DUP2 ADD SWAP1 POP PUSH2 0x1F40 JUMP JUMPDEST POP DUP6 SWAP4 POP POP POP POP SWAP3 SWAP2 POP POP JUMP JUMPDEST PUSH1 0x0 PUSH1 0xA0 DUP4 ADD PUSH1 0x0 DUP4 ADD MLOAD DUP5 DUP3 SUB PUSH1 0x0 DUP7 ADD MSTORE PUSH2 0x1F97 DUP3 DUP3 PUSH2 0x1DC1 JUMP JUMPDEST SWAP2 POP POP PUSH1 0x20 DUP4 ADD MLOAD DUP5 DUP3 SUB PUSH1 0x20 DUP7 ADD MSTORE PUSH2 0x1FB1 DUP3 DUP3 PUSH2 0x1E47 JUMP JUMPDEST SWAP2 POP POP PUSH1 0x40 DUP4 ADD MLOAD DUP5 DUP3 SUB PUSH1 0x40 DUP7 ADD MSTORE PUSH2 0x1FCB DUP3 DUP3 PUSH2 0x1F1C JUMP JUMPDEST SWAP2 POP POP PUSH1 0x60 DUP4 ADD MLOAD DUP5 DUP3 SUB PUSH1 0x60 DUP7 ADD MSTORE PUSH2 0x1FE5 DUP3 DUP3 PUSH2 0x1DC1 JUMP JUMPDEST SWAP2 POP POP PUSH1 0x80 DUP4 ADD MLOAD DUP5 DUP3 SUB PUSH1 0x80 DUP7 ADD MSTORE PUSH2 0x1FFF DUP3 DUP3 PUSH2 0x1DC1 JUMP JUMPDEST SWAP2 POP POP DUP1 SWAP2 POP POP SWAP3 SWAP2 POP POP JUMP JUMPDEST PUSH1 0x0 PUSH2 0x2018 DUP4 DUP4 PUSH2 0x1F7A JUMP JUMPDEST SWAP1 POP SWAP3 SWAP2 POP POP JUMP JUMPDEST PUSH1 0x0 PUSH1 0x20 DUP3 ADD SWAP1 POP SWAP2 SWAP1 POP JUMP JUMPDEST PUSH1 0x0 PUSH2 0x2038 DUP3 PUSH2 0x1D4F JUMP JUMPDEST PUSH2 0x2042 DUP2 DUP6 PUSH2 0x1D5A JUMP JUMPDEST SWAP4 POP DUP4 PUSH1 0x20 DUP3 MUL DUP6 ADD PUSH2 0x2054 DUP6 PUSH2 0x1D6B JUMP JUMPDEST DUP1 PUSH1 0x0 JUMPDEST DUP6 DUP2 LT ISZERO PUSH2 0x2090 JUMPI DUP5 DUP5 SUB DUP10 MSTORE DUP2 MLOAD PUSH2 0x2071 DUP6 DUP3 PUSH2 0x200C JUMP JUMPDEST SWAP5 POP PUSH2 0x207C DUP4 PUSH2 0x2020 JUMP JUMPDEST SWAP3 POP PUSH1 0x20 DUP11 ADD SWAP10 POP POP PUSH1 0x1 DUP2 ADD SWAP1 POP PUSH2 0x2058 JUMP JUMPDEST POP DUP3 SWAP8 POP DUP8 SWAP6 POP POP POP POP POP POP SWAP3 SWAP2 POP POP JUMP JUMPDEST PUSH1 0x0 PUSH1 0x20 DUP3 ADD SWAP1 POP DUP2 DUP2 SUB PUSH1 0x0 DUP4 ADD MSTORE PUSH2 0x20BC DUP2 DUP5 PUSH2 0x202D JUMP JUMPDEST SWAP1 POP SWAP3 SWAP2 POP POP JUMP JUMPDEST PUSH1 0x0 DUP2 SWAP1 POP SWAP2 SWAP1 POP JUMP JUMPDEST PUSH2 0x20D7 DUP2 PUSH2 0x20C4 JUMP JUMPDEST DUP3 MSTORE POP POP JUMP JUMPDEST PUSH1 0x0 PUSH1 0x20 DUP3 ADD SWAP1 POP PUSH2 0x20F2 PUSH1 0x0 DUP4 ADD DUP5 PUSH2 0x20CE JUMP JUMPDEST SWAP3 SWAP2 POP POP JUMP JUMPDEST PUSH2 0x2101 DUP2 PUSH2 0x20C4 JUMP JUMPDEST DUP2 EQ PUSH2 0x210C JUMPI PUSH1 0x0 DUP1 REVERT JUMPDEST POP JUMP JUMPDEST PUSH1 0x0 DUP2 CALLDATALOAD SWAP1 POP PUSH2 0x211E DUP2 PUSH2 0x20F8 JUMP JUMPDEST SWAP3 SWAP2 POP POP JUMP JUMPDEST PUSH1 0x0 PUSH1 0x20 DUP3 DUP5 SUB SLT ISZERO PUSH2 0x213A JUMPI PUSH2 0x2139 PUSH2 0x16B8 JUMP JUMPDEST JUMPDEST PUSH1 0x0 PUSH2 0x2148 DUP5 DUP3 DUP6 ADD PUSH2 0x210F JUMP JUMPDEST SWAP2 POP POP SWAP3 SWAP2 POP POP JUMP JUMPDEST PUSH1 0x0 DUP3 DUP3 MSTORE PUSH1 0x20 DUP3 ADD SWAP1 POP SWAP3 SWAP2 POP POP JUMP JUMPDEST PUSH1 0x0 PUSH2 0x216D DUP3 PUSH2 0x1D7B JUMP JUMPDEST PUSH2 0x2177 DUP2 DUP6 PUSH2 0x2151 JUMP JUMPDEST SWAP4 POP PUSH2 0x2187 DUP2 DUP6 PUSH1 0x20 DUP7 ADD PUSH2 0x1D97 JUMP JUMPDEST PUSH2 0x2190 DUP2 PUSH2 0x16C7 JUMP JUMPDEST DUP5 ADD SWAP2 POP POP SWAP3 SWAP2 POP POP JUMP JUMPDEST PUSH1 0x0 PUSH1 0x60 DUP3 ADD SWAP1 POP DUP2 DUP2 SUB PUSH1 0x0 DUP4 ADD MSTORE PUSH2 0x21B5 DUP2 DUP7 PUSH2 0x2162 JUMP JUMPDEST SWAP1 POP DUP2 DUP2 SUB PUSH1 0x20 DUP4 ADD MSTORE PUSH2 0x21C9 DUP2 DUP6 PUSH2 0x2162 JUMP JUMPDEST SWAP1 POP DUP2 DUP2 SUB PUSH1 0x40 DUP4 ADD MSTORE PUSH2 0x21DD DUP2 DUP5 PUSH2 0x2162 JUMP JUMPDEST SWAP1 POP SWAP5 SWAP4 POP POP POP POP JUMP JUMPDEST PUSH1 0x0 DUP2 MLOAD SWAP1 POP SWAP2 SWAP1 POP JUMP JUMPDEST PUSH1 0x0 DUP3 DUP3 MSTORE PUSH1 0x20 DUP3 ADD SWAP1 POP SWAP3 SWAP2 POP POP JUMP JUMPDEST PUSH1 0x0 DUP2 SWAP1 POP PUSH1 0x20 DUP3 ADD SWAP1 POP SWAP2 SWAP1 POP JUMP JUMPDEST PUSH1 0x0 PUSH2 0x140 DUP4 ADD PUSH1 0x0 DUP4 ADD MLOAD DUP5 DUP3 SUB PUSH1 0x0 DUP7 ADD MSTORE PUSH2 0x2231 DUP3 DUP3 PUSH2 0x1DC1 JUMP JUMPDEST SWAP2 POP POP PUSH1 0x20 DUP4 ADD MLOAD DUP5 DUP3 SUB PUSH1 0x20 DUP7 ADD MSTORE PUSH2 0x224B DUP3 DUP3 PUSH2 0x1E47 JUMP JUMPDEST SWAP2 POP POP PUSH1 0x40 DUP4 ADD MLOAD DUP5 DUP3 SUB PUSH1 0x40 DUP7 ADD MSTORE PUSH2 0x2265 DUP3 DUP3 PUSH2 0x1F1C JUMP JUMPDEST SWAP2 POP POP PUSH1 0x60 DUP4 ADD MLOAD DUP5 DUP3 SUB PUSH1 0x60 DUP7 ADD MSTORE PUSH2 0x227F DUP3 DUP3 PUSH2 0x1DC1 JUMP JUMPDEST SWAP2 POP POP PUSH1 0x80 DUP4 ADD MLOAD DUP5 DUP3 SUB PUSH1 0x80 DUP7 ADD MSTORE PUSH2 0x2299 DUP3 DUP3 PUSH2 0x1DC1 JUMP JUMPDEST SWAP2 POP POP PUSH1 0xA0 DUP4 ADD MLOAD DUP5 DUP3 SUB PUSH1 0xA0 DUP7 ADD MSTORE PUSH2 0x22B3 DUP3 DUP3 PUSH2 0x1F1C JUMP JUMPDEST SWAP2 POP POP PUSH1 0xC0 DUP4 ADD MLOAD DUP5 DUP3 SUB PUSH1 0xC0 DUP7 ADD MSTORE PUSH2 0x22CD DUP3 DUP3 PUSH2 0x1DC1 JUMP JUMPDEST SWAP2 POP POP PUSH1 0xE0 DUP4 ADD MLOAD DUP5 DUP3 SUB PUSH1 0xE0 DUP7 ADD MSTORE PUSH2 0x22E7 DUP3 DUP3 PUSH2 0x1DC1 JUMP JUMPDEST SWAP2 POP POP PUSH2 0x100 DUP4 ADD MLOAD DUP5 DUP3 SUB PUSH2 0x100 DUP7 ADD MSTORE PUSH2 0x2303 DUP3 DUP3 PUSH2 0x1DC1 JUMP JUMPDEST SWAP2 POP POP PUSH2 0x120 DUP4 ADD MLOAD DUP5 DUP3 SUB PUSH2 0x120 DUP7 ADD MSTORE PUSH2 0x231F DUP3 DUP3 PUSH2 0x1DC1 JUMP JUMPDEST SWAP2 POP POP DUP1 SWAP2 POP POP SWAP3 SWAP2 POP POP JUMP JUMPDEST PUSH1 0x0 PUSH2 0x2338 DUP4 DUP4 PUSH2 0x2213 JUMP JUMPDEST SWAP1 POP SWAP3 SWAP2 POP POP JUMP JUMPDEST PUSH1 0x0 PUSH1 0x20 DUP3 ADD SWAP1 POP SWAP2 SWAP1 POP JUMP JUMPDEST PUSH1 0x0 PUSH2 0x2358 DUP3 PUSH2 0x21E7 JUMP JUMPDEST PUSH2 0x2362 DUP2 DUP6 PUSH2 0x21F2 JUMP JUMPDEST SWAP4 POP DUP4 PUSH1 0x20 DUP3 MUL DUP6 ADD PUSH2 0x2374 DUP6 PUSH2 0x2203 JUMP JUMPDEST DUP1 PUSH1 0x0 JUMPDEST DUP6 DUP2 LT ISZERO PUSH2 0x23B0 JUMPI DUP5 DUP5 SUB DUP10 MSTORE DUP2 MLOAD PUSH2 0x2391 DUP6 DUP3 PUSH2 0x232C JUMP JUMPDEST SWAP5 POP PUSH2 0x239C DUP4 PUSH2 0x2340 JUMP JUMPDEST SWAP3 POP PUSH1 0x20 DUP11 ADD SWAP10 POP POP PUSH1 0x1 DUP2 ADD SWAP1 POP PUSH2 0x2378 JUMP JUMPDEST POP DUP3 SWAP8 POP DUP8 SWAP6 POP POP POP POP POP POP SWAP3 SWAP2 POP POP JUMP JUMPDEST PUSH1 0x0 PUSH1 0x20 DUP3 ADD SWAP1 POP DUP2 DUP2 SUB PUSH1 0x0 DUP4 ADD MSTORE PUSH2 0x23DC DUP2 DUP5 PUSH2 0x234D JUMP JUMPDEST SWAP1 POP SWAP3 SWAP2 POP POP JUMP JUMPDEST PUSH1 0x0 PUSH1 0xE0 DUP3 ADD SWAP1 POP DUP2 DUP2 SUB PUSH1 0x0 DUP4 ADD MSTORE PUSH2 0x23FE DUP2 DUP11 PUSH2 0x2162 JUMP JUMPDEST SWAP1 POP DUP2 DUP2 SUB PUSH1 0x20 DUP4 ADD MSTORE PUSH2 0x2412 DUP2 DUP10 PUSH2 0x2162 JUMP JUMPDEST SWAP1 POP DUP2 DUP2 SUB PUSH1 0x40 DUP4 ADD MSTORE PUSH2 0x2426 DUP2 DUP9 PUSH2 0x2162 JUMP JUMPDEST SWAP1 POP DUP2 DUP2 SUB PUSH1 0x60 DUP4 ADD MSTORE PUSH2 0x243A DUP2 DUP8 PUSH2 0x2162 JUMP JUMPDEST SWAP1 POP DUP2 DUP2 SUB PUSH1 0x80 DUP4 ADD MSTORE PUSH2 0x244E DUP2 DUP7 PUSH2 0x2162 JUMP JUMPDEST SWAP1 POP DUP2 DUP2 SUB PUSH1 0xA0 DUP4 ADD MSTORE PUSH2 0x2462 DUP2 DUP6 PUSH2 0x2162 JUMP JUMPDEST SWAP1 POP DUP2 DUP2 SUB PUSH1 0xC0 DUP4 ADD MSTORE PUSH2 0x2476 DUP2 DUP5 PUSH2 0x2162 JUMP JUMPDEST SWAP1 POP SWAP9 SWAP8 POP POP POP POP POP POP POP POP JUMP JUMPDEST PUSH1 0x0 DUP1 PUSH1 0x40 DUP4 DUP6 SUB SLT ISZERO PUSH2 0x249B JUMPI PUSH2 0x249A PUSH2 0x16B8 JUMP JUMPDEST JUMPDEST PUSH1 0x0 PUSH2 0x24A9 DUP6 DUP3 DUP7 ADD PUSH2 0x210F JUMP JUMPDEST SWAP3 POP POP PUSH1 0x20 DUP4 ADD CALLDATALOAD PUSH8 0xFFFFFFFFFFFFFFFF DUP2 GT ISZERO PUSH2 0x24CA JUMPI PUSH2 0x24C9 PUSH2 0x16BD JUMP JUMPDEST JUMPDEST PUSH2 0x24D6 DUP6 DUP3 DUP7 ADD PUSH2 0x17E4 JUMP JUMPDEST SWAP2 POP POP SWAP3 POP SWAP3 SWAP1 POP JUMP JUMPDEST PUSH32 0x4E487B7100000000000000000000000000000000000000000000000000000000 PUSH1 0x0 MSTORE PUSH1 0x22 PUSH1 0x4 MSTORE PUSH1 0x24 PUSH1 0x0 REVERT JUMPDEST PUSH1 0x0 PUSH1 0x2 DUP3 DIV SWAP1 POP PUSH1 0x1 DUP3 AND DUP1 PUSH2 0x2527 JUMPI PUSH1 0x7F DUP3 AND SWAP2 POP JUMPDEST PUSH1 0x20 DUP3 LT DUP2 SUB PUSH2 0x253A JUMPI PUSH2 0x2539 PUSH2 0x24E0 JUMP JUMPDEST JUMPDEST POP SWAP2 SWAP1 POP JUMP JUMPDEST PUSH1 0x0 DUP2 SWAP1 POP DUP2 PUSH1 0x0 MSTORE PUSH1 0x20 PUSH1 0x0 KECCAK256 SWAP1 POP SWAP2 SWAP1 POP JUMP JUMPDEST PUSH1 0x0 PUSH1 0x20 PUSH1 0x1F DUP4 ADD DIV SWAP1 POP SWAP2 SWAP1 POP JUMP JUMPDEST PUSH1 0x0 DUP3 DUP3 SHL SWAP1 POP SWAP3 SWAP2 POP POP JUMP JUMPDEST PUSH1 0x0 PUSH1 0x8 DUP4 MUL PUSH2 0x25A2 PUSH32 0xFFFFFFFFFFFFFFFFFFFFFFFFFFFFFFFFFFFFFFFFFFFFFFFFFFFFFFFFFFFFFFFF DUP3 PUSH2 0x2565 JUMP JUMPDEST PUSH2 0x25AC DUP7 DUP4 PUSH2 0x2565 JUMP JUMPDEST SWAP6 POP DUP1 NOT DUP5 AND SWAP4 POP DUP1 DUP7 AND DUP5 OR SWAP3 POP POP POP SWAP4 SWAP3 POP POP POP JUMP JUMPDEST PUSH1 0x0 DUP2 SWAP1 POP SWAP2 SWAP1 POP JUMP JUMPDEST PUSH1 0x0 PUSH2 0x25E9 PUSH2 0x25E4 PUSH2 0x25DF DUP5 PUSH2 0x20C4 JUMP JUMPDEST PUSH2 0x25C4 JUMP JUMPDEST PUSH2 0x20C4 JUMP JUMPDEST SWAP1 POP SWAP2 SWAP1 POP JUMP JUMPDEST PUSH1 0x0 DUP2 SWAP1 POP SWAP2 SWAP1 POP JUMP JUMPDEST PUSH2 0x2603 DUP4 PUSH2 0x25CE JUMP JUMPDEST PUSH2 0x2617 PUSH2 0x260F DUP3 PUSH2 0x25F0 JUMP JUMPDEST DUP5 DUP5 SLOAD PUSH2 0x2572 JUMP JUMPDEST DUP3 SSTORE POP POP POP POP JUMP JUMPDEST PUSH1 0x0 SWAP1 JUMP JUMPDEST PUSH2 0x262C PUSH2 0x261F JUMP JUMPDEST PUSH2 0x2637 DUP2 DUP5 DUP5 PUSH2 0x25FA JUMP JUMPDEST POP POP POP JUMP JUMPDEST JUMPDEST DUP2 DUP2 LT ISZERO PUSH2 0x265B JUMPI PUSH2 0x2650 PUSH1 0x0 DUP3 PUSH2 0x2624 JUMP JUMPDEST PUSH1 0x1 DUP2 ADD SWAP1 POP PUSH2 0x263D JUMP JUMPDEST POP POP JUMP JUMPDEST PUSH1 0x1F DUP3 GT ISZERO PUSH2 0x26A0 JUMPI PUSH2 0x2671 DUP2 PUSH2 0x2540 JUMP JUMPDEST PUSH2 0x267A DUP5 PUSH2 0x2555 JUMP JUMPDEST DUP2 ADD PUSH1 0x20 DUP6 LT ISZERO PUSH2 0x2689 JUMPI DUP2 SWAP1 POP JUMPDEST PUSH2 0x269D PUSH2 0x2695 DUP6 PUSH2 0x2555 JUMP JUMPDEST DUP4 ADD DUP3 PUSH2 0x263C JUMP JUMPDEST POP POP JUMPDEST POP POP POP JUMP JUMPDEST PUSH1 0x0 DUP3 DUP3 SHR SWAP1 POP SWAP3 SWAP2 POP POP JUMP JUMPDEST PUSH1 0x0 PUSH2 0x26C3 PUSH1 0x0 NOT DUP5 PUSH1 0x8 MUL PUSH2 0x26A5 JUMP JUMPDEST NOT DUP1 DUP4 AND SWAP2 POP POP SWAP3 SWAP2 POP POP JUMP JUMPDEST PUSH1 0x0 PUSH2 0x26DC DUP4 DUP4 PUSH2 0x26B2 JUMP JUMPDEST SWAP2 POP DUP3 PUSH1 0x2 MUL DUP3 OR SWAP1 POP SWAP3 SWAP2 POP POP JUMP JUMPDEST PUSH2 0x26F5 DUP3 PUSH2 0x1D7B JUMP JUMPDEST PUSH8 0xFFFFFFFFFFFFFFFF DUP2 GT ISZERO PUSH2 0x270E JUMPI PUSH2 0x270D PUSH2 0x16D8 JUMP JUMPDEST JUMPDEST PUSH2 0x2718 DUP3 SLOAD PUSH2 0x250F JUMP JUMPDEST PUSH2 0x2723 DUP3 DUP3 DUP6 PUSH2 0x265F JUMP JUMPDEST PUSH1 0x0 PUSH1 0x20 SWAP1 POP PUSH1 0x1F DUP4 GT PUSH1 0x1 DUP2 EQ PUSH2 0x2756 JUMPI PUSH1 0x0 DUP5 ISZERO PUSH2 0x2744 JUMPI DUP3 DUP8 ADD MLOAD SWAP1 POP JUMPDEST PUSH2 0x274E DUP6 DUP3 PUSH2 0x26D0 JUMP JUMPDEST DUP7 SSTORE POP PUSH2 0x27B6 JUMP JUMPDEST PUSH1 0x1F NOT DUP5 AND PUSH2 0x2764 DUP7 PUSH2 0x2540 JUMP JUMPDEST PUSH1 0x0 JUMPDEST DUP3 DUP2 LT ISZERO PUSH2 0x278C JUMPI DUP5 DUP10 ADD MLOAD DUP3 SSTORE PUSH1 0x1 DUP3 ADD SWAP2 POP PUSH1 0x20 DUP6 ADD SWAP5 POP PUSH1 0x20 DUP2 ADD SWAP1 POP PUSH2 0x2767 JUMP JUMPDEST DUP7 DUP4 LT ISZERO PUSH2 0x27A9 JUMPI DUP5 DUP10 ADD MLOAD PUSH2 0x27A5 PUSH1 0x1F DUP10 AND DUP3 PUSH2 0x26B2 JUMP JUMPDEST DUP4 SSTORE POP JUMPDEST PUSH1 0x1 PUSH1 0x2 DUP9 MUL ADD DUP9 SSTORE POP POP POP JUMPDEST POP POP POP POP POP POP JUMP JUMPDEST PUSH32 0x4E487B7100000000000000000000000000000000000000000000000000000000 PUSH1 0x0 MSTORE PUSH1 0x32 PUSH1 0x4 MSTORE PUSH1 0x24 PUSH1 0x0 REVERT JUMPDEST PUSH1 0x0 DUP2 SWAP1 POP SWAP3 SWAP2 POP POP JUMP JUMPDEST PUSH1 0x0 PUSH2 0x2803 DUP3 PUSH2 0x1D7B JUMP JUMPDEST PUSH2 0x280D DUP2 DUP6 PUSH2 0x27ED JUMP JUMPDEST SWAP4 POP PUSH2 0x281D DUP2 DUP6 PUSH1 0x20 DUP7 ADD PUSH2 0x1D97 JUMP JUMPDEST DUP1 DUP5 ADD SWAP2 POP POP SWAP3 SWAP2 POP POP JUMP JUMPDEST PUSH1 0x0 PUSH2 0x2835 DUP3 DUP5 PUSH2 0x27F8 JUMP JUMPDEST SWAP2 POP DUP2 SWAP1 POP SWAP3 SWAP2 POP POP JUMP JUMPDEST PUSH1 0x0 DUP2 SLOAD PUSH2 0x284D DUP2 PUSH2 0x250F JUMP JUMPDEST PUSH2 0x2857 DUP2 DUP7 PUSH2 0x27ED JUMP JUMPDEST SWAP5 POP PUSH1 0x1 DUP3 AND PUSH1 0x0 DUP2 EQ PUSH2 0x2872 JUMPI PUSH1 0x1 DUP2 EQ PUSH2 0x2887 JUMPI PUSH2 0x28BA JUMP JUMPDEST PUSH1 0xFF NOT DUP4 AND DUP7 MSTORE DUP2 ISZERO ISZERO DUP3 MUL DUP7 ADD SWAP4 POP PUSH2 0x28BA JUMP JUMPDEST PUSH2 0x2890 DUP6 PUSH2 0x2540 JUMP JUMPDEST PUSH1 0x0 JUMPDEST DUP4 DUP2 LT ISZERO PUSH2 0x28B2 JUMPI DUP2 SLOAD DUP2 DUP10 ADD MSTORE PUSH1 0x1 DUP3 ADD SWAP2 POP PUSH1 0x20 DUP2 ADD SWAP1 POP PUSH2 0x2893 JUMP JUMPDEST DUP4 DUP9 ADD SWAP6 POP POP POP JUMPDEST POP POP POP SWAP3 SWAP2 POP POP JUMP JUMPDEST PUSH1 0x0 PUSH2 0x28CF DUP3 DUP5 PUSH2 0x2840 JUMP JUMPDEST SWAP2 POP DUP2 SWAP1 POP SWAP3 SWAP2 POP POP JUMP JUMPDEST PUSH32 0x4E487B7100000000000000000000000000000000000000000000000000000000 PUSH1 0x0 MSTORE PUSH1 0x11 PUSH1 0x4 MSTORE PUSH1 0x24 PUSH1 0x0 REVERT JUMPDEST PUSH1 0x0 PUSH2 0x2914 DUP3 PUSH2 0x20C4 JUMP JUMPDEST SWAP2 POP PUSH32 0xFFFFFFFFFFFFFFFFFFFFFFFFFFFFFFFFFFFFFFFFFFFFFFFFFFFFFFFFFFFFFFFF DUP3 SUB PUSH2 0x2946 JUMPI PUSH2 0x2945 PUSH2 0x28DA JUMP JUMPDEST JUMPDEST PUSH1 0x1 DUP3 ADD SWAP1 POP SWAP2 SWAP1 POP JUMP INVALID LOG2 PUSH5 0x6970667358 0x22 SLT KECCAK256 DUP10 SHR 0x5D DUP14 0xCB 0x4B SWAP10 PUSH14 0x3FD91D0BC85115A25E7F232D4902 0xAF GT 0xD 0xEB 0xCD DUP7 TIMESTAMP SWAP8 SWAP10 STOP PUSH5 0x736F6C6343 STOP ADDMOD SLT STOP CALLER "
				},
				"gasEstimates": {
					"creation": {
						"codeDepositCost": "2126200",
						"executionCost": "7271",
						"totalCost": "2133471"
					},
					"external": {
						"arr(uint256)": "infinite",
						"arr2(uint256)": "infinite",
						"getMyStructs()": "infinite",
						"getquotes()": "infinite",
						"len()": "2512",
						"push_element(string,string[],int256[],string,string)": "infinite",
						"push_element1((string,string[],int256[],string,string,int256[],string,string,string,string))": "infinite",
						"update(uint256,string)": "infinite"
					}
				},
				"methodIdentifiers": {
					"arr(uint256)": "71e5ee5f",
					"arr2(uint256)": "edf0099b",
					"getMyStructs()": "4d395307",
					"getquotes()": "e56fe289",
					"len()": "56d88e27",
					"push_element(string,string[],int256[],string,string)": "2be725ad",
					"push_element1((string,string[],int256[],string,string,int256[],string,string,string,string))": "1dcdffac",
					"update(uint256,string)": "f745630f"
				}
			},
			"storageLayout": {
				"storage": [
					{
						"astId": 42,
						"contract": "assignments/coustomer.sol:vender1",
						"label": "arr",
						"offset": 0,
						"slot": "0",
						"type": "t_array(t_struct(l1)14_storage)dyn_storage"
					},
					{
						"astId": 46,
						"contract": "assignments/coustomer.sol:vender1",
						"label": "arr2",
						"offset": 0,
						"slot": "1",
						"type": "t_array(t_struct(l2)38_storage)dyn_storage"
					},
					{
						"astId": 49,
						"contract": "assignments/coustomer.sol:vender1",
						"label": "i",
						"offset": 0,
						"slot": "2",
						"type": "t_uint256"
					}
				],
				"types": {
					"t_array(t_int256)dyn_storage": {
						"base": "t_int256",
						"encoding": "dynamic_array",
						"label": "int256[]",
						"numberOfBytes": "32"
					},
					"t_array(t_string_storage)dyn_storage": {
						"base": "t_string_storage",
						"encoding": "dynamic_array",
						"label": "string[]",
						"numberOfBytes": "32"
					},
					"t_array(t_struct(l1)14_storage)dyn_storage": {
						"base": "t_struct(l1)14_storage",
						"encoding": "dynamic_array",
						"label": "struct vender1.l1[]",
						"numberOfBytes": "32"
					},
					"t_array(t_struct(l2)38_storage)dyn_storage": {
						"base": "t_struct(l2)38_storage",
						"encoding": "dynamic_array",
						"label": "struct vender1.l2[]",
						"numberOfBytes": "32"
					},
					"t_int256": {
						"encoding": "inplace",
						"label": "int256",
						"numberOfBytes": "32"
					},
					"t_string_storage": {
						"encoding": "bytes",
						"label": "string",
						"numberOfBytes": "32"
					},
					"t_struct(l1)14_storage": {
						"encoding": "inplace",
						"label": "struct vender1.l1",
						"members": [
							{
								"astId": 3,
								"contract": "assignments/coustomer.sol:vender1",
								"label": "user_id",
								"offset": 0,
								"slot": "0",
								"type": "t_string_storage"
							},
							{
								"astId": 6,
								"contract": "assignments/coustomer.sol:vender1",
								"label": "prod",
								"offset": 0,
								"slot": "1",
								"type": "t_array(t_string_storage)dyn_storage"
							},
							{
								"astId": 9,
								"contract": "assignments/coustomer.sol:vender1",
								"label": "quantity",
								"offset": 0,
								"slot": "2",
								"type": "t_array(t_int256)dyn_storage"
							},
							{
								"astId": 11,
								"contract": "assignments/coustomer.sol:vender1",
								"label": "date",
								"offset": 0,
								"slot": "3",
								"type": "t_string_storage"
							},
							{
								"astId": 13,
								"contract": "assignments/coustomer.sol:vender1",
								"label": "status",
								"offset": 0,
								"slot": "4",
								"type": "t_string_storage"
							}
						],
						"numberOfBytes": "160"
					},
					"t_struct(l2)38_storage": {
						"encoding": "inplace",
						"label": "struct vender1.l2",
						"members": [
							{
								"astId": 16,
								"contract": "assignments/coustomer.sol:vender1",
								"label": "user_id",
								"offset": 0,
								"slot": "0",
								"type": "t_string_storage"
							},
							{
								"astId": 19,
								"contract": "assignments/coustomer.sol:vender1",
								"label": "prod",
								"offset": 0,
								"slot": "1",
								"type": "t_array(t_string_storage)dyn_storage"
							},
							{
								"astId": 22,
								"contract": "assignments/coustomer.sol:vender1",
								"label": "quantity",
								"offset": 0,
								"slot": "2",
								"type": "t_array(t_int256)dyn_storage"
							},
							{
								"astId": 24,
								"contract": "assignments/coustomer.sol:vender1",
								"label": "date",
								"offset": 0,
								"slot": "3",
								"type": "t_string_storage"
							},
							{
								"astId": 26,
								"contract": "assignments/coustomer.sol:vender1",
								"label": "ven_id",
								"offset": 0,
								"slot": "4",
								"type": "t_string_storage"
							},
							{
								"astId": 29,
								"contract": "assignments/coustomer.sol:vender1",
								"label": "price",
								"offset": 0,
								"slot": "5",
								"type": "t_array(t_int256)dyn_storage"
							},
							{
								"astId": 31,
								"contract": "assignments/coustomer.sol:vender1",
								"label": "ED",
								"offset": 0,
								"slot": "6",
								"type": "t_string_storage"
							},
							{
								"astId": 33,
								"contract": "assignments/coustomer.sol:vender1",
								"label": "id",
								"offset": 0,
								"slot": "7",
								"type": "t_string_storage"
							},
							{
								"astId": 35,
								"contract": "assignments/coustomer.sol:vender1",
								"label": "status",
								"offset": 0,
								"slot": "8",
								"type": "t_string_storage"
							},
							{
								"astId": 37,
								"contract": "assignments/coustomer.sol:vender1",
								"label": "trans",
								"offset": 0,
								"slot": "9",
								"type": "t_string_storage"
							}
						],
						"numberOfBytes": "320"
					},
					"t_uint256": {
						"encoding": "inplace",
						"label": "uint256",
						"numberOfBytes": "32"
					}
				}
			},
			"userdoc": {
				"kind": "user",
				"methods": {},
				"version": 1
			}
		}
	}
}