{
	"assignments/vender1.sol": {
		"vender1": {
			"abi": [
				{
					"inputs": [
						{
							"internalType": "uint256",
							"name": "",
							"type": "uint256"
						}
					],
					"name": "arr",
					"outputs": [
						{
							"internalType": "string",
							"name": "user_id",
							"type": "string"
						},
						{
							"internalType": "string",
							"name": "prod",
							"type": "string"
						},
						{
							"internalType": "int256",
							"name": "quantity",
							"type": "int256"
						},
						{
							"internalType": "string",
							"name": "date",
							"type": "string"
						}
					],
					"stateMutability": "view",
					"type": "function"
				},
				{
					"inputs": [],
					"name": "getMyStructs",
					"outputs": [
						{
							"components": [
								{
									"internalType": "string",
									"name": "user_id",
									"type": "string"
								},
								{
									"internalType": "string",
									"name": "prod",
									"type": "string"
								},
								{
									"internalType": "int256",
									"name": "quantity",
									"type": "int256"
								},
								{
									"internalType": "string",
									"name": "date",
									"type": "string"
								}
							],
							"internalType": "struct vender1.l1[]",
							"name": "",
							"type": "tuple[]"
						}
					],
					"stateMutability": "view",
					"type": "function"
				},
				{
					"inputs": [],
					"name": "len",
					"outputs": [
						{
							"internalType": "uint256",
							"name": "",
							"type": "uint256"
						}
					],
					"stateMutability": "view",
					"type": "function"
				},
				{
					"inputs": [
						{
							"internalType": "string",
							"name": "u",
							"type": "string"
						},
						{
							"internalType": "string",
							"name": "p",
							"type": "string"
						},
						{
							"internalType": "int256",
							"name": "n1",
							"type": "int256"
						},
						{
							"internalType": "string",
							"name": "x",
							"type": "string"
						},
						{
							"internalType": "string",
							"name": "y",
							"type": "string"
						}
					],
					"name": "push_element",
					"outputs": [],
					"stateMutability": "nonpayable",
					"type": "function"
				}
			],
			"devdoc": {
				"kind": "dev",
				"methods": {},
				"version": 1
			},
			"evm": {
				"assembly": "    /* \"assignments/vender1.sol\":60:656  contract vender1{... */\n  mstore(0x40, 0x80)\n    /* \"assignments/vender1.sol\":227:228  0 */\n  0x00\n    /* \"assignments/vender1.sol\":220:228  uint i=0 */\n  0x01\n  sstore\n    /* \"assignments/vender1.sol\":60:656  contract vender1{... */\n  callvalue\n  dup1\n  iszero\n  tag_1\n  jumpi\n  0x00\n  dup1\n  revert\ntag_1:\n  pop\n  dataSize(sub_0)\n  dup1\n  dataOffset(sub_0)\n  0x00\n  codecopy\n  0x00\n  return\nstop\n\nsub_0: assembly {\n        /* \"assignments/vender1.sol\":60:656  contract vender1{... */\n      mstore(0x40, 0x80)\n      callvalue\n      dup1\n      iszero\n      tag_1\n      jumpi\n      0x00\n      dup1\n      revert\n    tag_1:\n      pop\n      jumpi(tag_2, lt(calldatasize, 0x04))\n      shr(0xe0, calldataload(0x00))\n      dup1\n      0x4d395307\n      eq\n      tag_3\n      jumpi\n      dup1\n      0x56d88e27\n      eq\n      tag_4\n      jumpi\n      dup1\n      0x71e5ee5f\n      eq\n      tag_5\n      jumpi\n      dup1\n      0x7b16ea6b\n      eq\n      tag_6\n      jumpi\n    tag_2:\n      0x00\n      dup1\n      revert\n        /* \"assignments/vender1.sol\":484:571  function getMyStructs() public view returns (l1[] memory) {... */\n    tag_3:\n      tag_7\n      tag_8\n      jump\t// in\n    tag_7:\n      mload(0x40)\n      tag_9\n      swap2\n      swap1\n      tag_10\n      jump\t// in\n    tag_9:\n      mload(0x40)\n      dup1\n      swap2\n      sub\n      swap1\n      return\n        /* \"assignments/vender1.sol\":577:653  function len() public view returns(uint){... */\n    tag_4:\n      tag_11\n      tag_12\n      jump\t// in\n    tag_11:\n      mload(0x40)\n      tag_13\n      swap2\n      swap1\n      tag_14\n      jump\t// in\n    tag_13:\n      mload(0x40)\n      dup1\n      swap2\n      sub\n      swap1\n      return\n        /* \"assignments/vender1.sol\":198:213  l1[] public arr */\n    tag_5:\n      tag_15\n      0x04\n      dup1\n      calldatasize\n      sub\n      dup2\n      add\n      swap1\n      tag_16\n      swap2\n      swap1\n      tag_17\n      jump\t// in\n    tag_16:\n      tag_18\n      jump\t// in\n    tag_15:\n      mload(0x40)\n      tag_19\n      swap5\n      swap4\n      swap3\n      swap2\n      swap1\n      tag_20\n      jump\t// in\n    tag_19:\n      mload(0x40)\n      dup1\n      swap2\n      sub\n      swap1\n      return\n        /* \"assignments/vender1.sol\":235:478  function push_element(string memory u,string memory p,int n1,string memory x,string memory y) public {... */\n    tag_6:\n      tag_21\n      0x04\n      dup1\n      calldatasize\n      sub\n      dup2\n      add\n      swap1\n      tag_22\n      swap2\n      swap1\n      tag_23\n      jump\t// in\n    tag_22:\n      tag_24\n      jump\t// in\n    tag_21:\n      stop\n        /* \"assignments/vender1.sol\":484:571  function getMyStructs() public view returns (l1[] memory) {... */\n    tag_8:\n        /* \"assignments/vender1.sol\":529:540  l1[] memory */\n      0x60\n        /* \"assignments/vender1.sol\":560:563  arr */\n      0x00\n        /* \"assignments/vender1.sol\":553:563  return arr */\n      dup1\n      sload\n      dup1\n      0x20\n      mul\n      0x20\n      add\n      mload(0x40)\n      swap1\n      dup2\n      add\n      0x40\n      mstore\n      dup1\n      swap3\n      swap2\n      swap1\n      dup2\n      dup2\n      mstore\n      0x20\n      add\n      0x00\n      swap1\n    tag_26:\n      dup3\n      dup3\n      lt\n      iszero\n      tag_27\n      jumpi\n      dup4\n      dup3\n      swap1\n      0x00\n      mstore\n      keccak256(0x00, 0x20)\n      swap1\n      0x04\n      mul\n      add\n      mload(0x40)\n      dup1\n      0x80\n      add\n      0x40\n      mstore\n      swap1\n      dup2\n      0x00\n      dup3\n      add\n      dup1\n      sload\n      tag_29\n      swap1\n      tag_30\n      jump\t// in\n    tag_29:\n      dup1\n      0x1f\n      add\n      0x20\n      dup1\n      swap2\n      div\n      mul\n      0x20\n      add\n      mload(0x40)\n      swap1\n      dup2\n      add\n      0x40\n      mstore\n      dup1\n      swap3\n      swap2\n      swap1\n      dup2\n      dup2\n      mstore\n      0x20\n      add\n      dup3\n      dup1\n      sload\n      tag_31\n      swap1\n      tag_30\n      jump\t// in\n    tag_31:\n      dup1\n      iszero\n      tag_32\n      jumpi\n      dup1\n      0x1f\n      lt\n      tag_33\n      jumpi\n      0x0100\n      dup1\n      dup4\n      sload\n      div\n      mul\n      dup4\n      mstore\n      swap2\n      0x20\n      add\n      swap2\n      jump(tag_32)\n    tag_33:\n      dup3\n      add\n      swap2\n      swap1\n      0x00\n      mstore\n      keccak256(0x00, 0x20)\n      swap1\n    tag_34:\n      dup2\n      sload\n      dup2\n      mstore\n      swap1\n      0x01\n      add\n      swap1\n      0x20\n      add\n      dup1\n      dup4\n      gt\n      tag_34\n      jumpi\n      dup3\n      swap1\n      sub\n      0x1f\n      and\n      dup3\n      add\n      swap2\n    tag_32:\n      pop\n      pop\n      pop\n      pop\n      pop\n      dup2\n      mstore\n      0x20\n      add\n      0x01\n      dup3\n      add\n      dup1\n      sload\n      tag_35\n      swap1\n      tag_30\n      jump\t// in\n    tag_35:\n      dup1\n      0x1f\n      add\n      0x20\n      dup1\n      swap2\n      div\n      mul\n      0x20\n      add\n      mload(0x40)\n      swap1\n      dup2\n      add\n      0x40\n      mstore\n      dup1\n      swap3\n      swap2\n      swap1\n      dup2\n      dup2\n      mstore\n      0x20\n      add\n      dup3\n      dup1\n      sload\n      tag_36\n      swap1\n      tag_30\n      jump\t// in\n    tag_36:\n      dup1\n      iszero\n      tag_37\n      jumpi\n      dup1\n      0x1f\n      lt\n      tag_38\n      jumpi\n      0x0100\n      dup1\n      dup4\n      sload\n      div\n      mul\n      dup4\n      mstore\n      swap2\n      0x20\n      add\n      swap2\n      jump(tag_37)\n    tag_38:\n      dup3\n      add\n      swap2\n      swap1\n      0x00\n      mstore\n      keccak256(0x00, 0x20)\n      swap1\n    tag_39:\n      dup2\n      sload\n      dup2\n      mstore\n      swap1\n      0x01\n      add\n      swap1\n      0x20\n      add\n      dup1\n      dup4\n      gt\n      tag_39\n      jumpi\n      dup3\n      swap1\n      sub\n      0x1f\n      and\n      dup3\n      add\n      swap2\n    tag_37:\n      pop\n      pop\n      pop\n      pop\n      pop\n      dup2\n      mstore\n      0x20\n      add\n      0x02\n      dup3\n      add\n      sload\n      dup2\n      mstore\n      0x20\n      add\n      0x03\n      dup3\n      add\n      dup1\n      sload\n      tag_40\n      swap1\n      tag_30\n      jump\t// in\n    tag_40:\n      dup1\n      0x1f\n      add\n      0x20\n      dup1\n      swap2\n      div\n      mul\n      0x20\n      add\n      mload(0x40)\n      swap1\n      dup2\n      add\n      0x40\n      mstore\n      dup1\n      swap3\n      swap2\n      swap1\n      dup2\n      dup2\n      mstore\n      0x20\n      add\n      dup3\n      dup1\n      sload\n      tag_41\n      swap1\n      tag_30\n      jump\t// in\n    tag_41:\n      dup1\n      iszero\n      tag_42\n      jumpi\n      dup1\n      0x1f\n      lt\n      tag_43\n      jumpi\n      0x0100\n      dup1\n      dup4\n      sload\n      div\n      mul\n      dup4\n      mstore\n      swap2\n      0x20\n      add\n      swap2\n      jump(tag_42)\n    tag_43:\n      dup3\n      add\n      swap2\n      swap1\n      0x00\n      mstore\n      keccak256(0x00, 0x20)\n      swap1\n    tag_44:\n      dup2\n      sload\n      dup2\n      mstore\n      swap1\n      0x01\n      add\n      swap1\n      0x20\n      add\n      dup1\n      dup4\n      gt\n      tag_44\n      jumpi\n      dup3\n      swap1\n      sub\n      0x1f\n      and\n      dup3\n      add\n      swap2\n    tag_42:\n      pop\n      pop\n      pop\n      pop\n      pop\n      dup2\n      mstore\n      pop\n      pop\n      dup2\n      mstore\n      0x20\n      add\n      swap1\n      0x01\n      add\n      swap1\n      jump(tag_26)\n    tag_27:\n      pop\n      pop\n      pop\n      pop\n      swap1\n      pop\n        /* \"assignments/vender1.sol\":484:571  function getMyStructs() public view returns (l1[] memory) {... */\n      swap1\n      jump\t// out\n        /* \"assignments/vender1.sol\":577:653  function len() public view returns(uint){... */\n    tag_12:\n        /* \"assignments/vender1.sol\":612:616  uint */\n      0x00\n        /* \"assignments/vender1.sol\":635:638  arr */\n      dup1\n        /* \"assignments/vender1.sol\":635:645  arr.length */\n      dup1\n      sload\n      swap1\n      pop\n        /* \"assignments/vender1.sol\":628:645  return arr.length */\n      swap1\n      pop\n        /* \"assignments/vender1.sol\":577:653  function len() public view returns(uint){... */\n      swap1\n      jump\t// out\n        /* \"assignments/vender1.sol\":198:213  l1[] public arr */\n    tag_18:\n      0x00\n      dup2\n      dup2\n      sload\n      dup2\n      lt\n      tag_46\n      jumpi\n      0x00\n      dup1\n      revert\n    tag_46:\n      swap1\n      0x00\n      mstore\n      keccak256(0x00, 0x20)\n      swap1\n      0x04\n      mul\n      add\n      0x00\n      swap2\n      pop\n      swap1\n      pop\n      dup1\n      0x00\n      add\n      dup1\n      sload\n      tag_48\n      swap1\n      tag_30\n      jump\t// in\n    tag_48:\n      dup1\n      0x1f\n      add\n      0x20\n      dup1\n      swap2\n      div\n      mul\n      0x20\n      add\n      mload(0x40)\n      swap1\n      dup2\n      add\n      0x40\n      mstore\n      dup1\n      swap3\n      swap2\n      swap1\n      dup2\n      dup2\n      mstore\n      0x20\n      add\n      dup3\n      dup1\n      sload\n      tag_49\n      swap1\n      tag_30\n      jump\t// in\n    tag_49:\n      dup1\n      iszero\n      tag_50\n      jumpi\n      dup1\n      0x1f\n      lt\n      tag_51\n      jumpi\n      0x0100\n      dup1\n      dup4\n      sload\n      div\n      mul\n      dup4\n      mstore\n      swap2\n      0x20\n      add\n      swap2\n      jump(tag_50)\n    tag_51:\n      dup3\n      add\n      swap2\n      swap1\n      0x00\n      mstore\n      keccak256(0x00, 0x20)\n      swap1\n    tag_52:\n      dup2\n      sload\n      dup2\n      mstore\n      swap1\n      0x01\n      add\n      swap1\n      0x20\n      add\n      dup1\n      dup4\n      gt\n      tag_52\n      jumpi\n      dup3\n      swap1\n      sub\n      0x1f\n      and\n      dup3\n      add\n      swap2\n    tag_50:\n      pop\n      pop\n      pop\n      pop\n      pop\n      swap1\n      dup1\n      0x01\n      add\n      dup1\n      sload\n      tag_53\n      swap1\n      tag_30\n      jump\t// in\n    tag_53:\n      dup1\n      0x1f\n      add\n      0x20\n      dup1\n      swap2\n      div\n      mul\n      0x20\n      add\n      mload(0x40)\n      swap1\n      dup2\n      add\n      0x40\n      mstore\n      dup1\n      swap3\n      swap2\n      swap1\n      dup2\n      dup2\n      mstore\n      0x20\n      add\n      dup3\n      dup1\n      sload\n      tag_54\n      swap1\n      tag_30\n      jump\t// in\n    tag_54:\n      dup1\n      iszero\n      tag_55\n      jumpi\n      dup1\n      0x1f\n      lt\n      tag_56\n      jumpi\n      0x0100\n      dup1\n      dup4\n      sload\n      div\n      mul\n      dup4\n      mstore\n      swap2\n      0x20\n      add\n      swap2\n      jump(tag_55)\n    tag_56:\n      dup3\n      add\n      swap2\n      swap1\n      0x00\n      mstore\n      keccak256(0x00, 0x20)\n      swap1\n    tag_57:\n      dup2\n      sload\n      dup2\n      mstore\n      swap1\n      0x01\n      add\n      swap1\n      0x20\n      add\n      dup1\n      dup4\n      gt\n      tag_57\n      jumpi\n      dup3\n      swap1\n      sub\n      0x1f\n      and\n      dup3\n      add\n      swap2\n    tag_55:\n      pop\n      pop\n      pop\n      pop\n      pop\n      swap1\n      dup1\n      0x02\n      add\n      sload\n      swap1\n      dup1\n      0x03\n      add\n      dup1\n      sload\n      tag_58\n      swap1\n      tag_30\n      jump\t// in\n    tag_58:\n      dup1\n      0x1f\n      add\n      0x20\n      dup1\n      swap2\n      div\n      mul\n      0x20\n      add\n      mload(0x40)\n      swap1\n      dup2\n      add\n      0x40\n      mstore\n      dup1\n      swap3\n      swap2\n      swap1\n      dup2\n      dup2\n      mstore\n      0x20\n      add\n      dup3\n      dup1\n      sload\n      tag_59\n      swap1\n      tag_30\n      jump\t// in\n    tag_59:\n      dup1\n      iszero\n      tag_60\n      jumpi\n      dup1\n      0x1f\n      lt\n      tag_61\n      jumpi\n      0x0100\n      dup1\n      dup4\n      sload\n      div\n      mul\n      dup4\n      mstore\n      swap2\n      0x20\n      add\n      swap2\n      jump(tag_60)\n    tag_61:\n      dup3\n      add\n      swap2\n      swap1\n      0x00\n      mstore\n      keccak256(0x00, 0x20)\n      swap1\n    tag_62:\n      dup2\n      sload\n      dup2\n      mstore\n      swap1\n      0x01\n      add\n      swap1\n      0x20\n      add\n      dup1\n      dup4\n      gt\n      tag_62\n      jumpi\n      dup3\n      swap1\n      sub\n      0x1f\n      and\n      dup3\n      add\n      swap2\n    tag_60:\n      pop\n      pop\n      pop\n      pop\n      pop\n      swap1\n      pop\n      dup5\n      jump\t// out\n        /* \"assignments/vender1.sol\":235:478  function push_element(string memory u,string memory p,int n1,string memory x,string memory y) public {... */\n    tag_24:\n        /* \"assignments/vender1.sol\":347:359  l1 memory s1 */\n      tag_64\n      tag_65\n      jump\t// in\n    tag_64:\n        /* \"assignments/vender1.sol\":381:382  u */\n      dup6\n        /* \"assignments/vender1.sol\":370:372  s1 */\n      dup2\n        /* \"assignments/vender1.sol\":370:380  s1.user_id */\n      0x00\n      add\n        /* \"assignments/vender1.sol\":370:382  s1.user_id=u */\n      dup2\n      swap1\n      mstore\n      pop\n        /* \"assignments/vender1.sol\":401:402  p */\n      dup5\n        /* \"assignments/vender1.sol\":393:395  s1 */\n      dup2\n        /* \"assignments/vender1.sol\":393:400  s1.prod */\n      0x20\n      add\n        /* \"assignments/vender1.sol\":393:402  s1.prod=p */\n      dup2\n      swap1\n      mstore\n      pop\n        /* \"assignments/vender1.sol\":425:427  n1 */\n      dup4\n        /* \"assignments/vender1.sol\":413:415  s1 */\n      dup2\n        /* \"assignments/vender1.sol\":413:424  s1.quantity */\n      0x40\n      add\n        /* \"assignments/vender1.sol\":413:427  s1.quantity=n1 */\n      dup2\n      dup2\n      mstore\n      pop\n      pop\n        /* \"assignments/vender1.sol\":446:447  x */\n      dup3\n        /* \"assignments/vender1.sol\":438:440  s1 */\n      dup2\n        /* \"assignments/vender1.sol\":438:445  s1.date */\n      0x60\n      add\n        /* \"assignments/vender1.sol\":438:447  s1.date=x */\n      dup2\n      swap1\n      mstore\n      pop\n        /* \"assignments/vender1.sol\":458:461  arr */\n      0x00\n        /* \"assignments/vender1.sol\":467:469  s1 */\n      dup2\n        /* \"assignments/vender1.sol\":458:470  arr.push(s1) */\n      swap1\n      dup1\n      0x01\n      dup2\n      sload\n      add\n      dup1\n      dup3\n      sstore\n      dup1\n      swap2\n      pop\n      pop\n      0x01\n      swap1\n      sub\n      swap1\n      0x00\n      mstore\n      keccak256(0x00, 0x20)\n      swap1\n      0x04\n      mul\n      add\n      0x00\n      swap1\n      swap2\n      swap1\n      swap2\n      swap1\n      swap2\n      pop\n      0x00\n      dup3\n      add\n      mload\n      dup2\n      0x00\n      add\n      swap1\n      dup2\n      tag_67\n      swap2\n      swap1\n      tag_68\n      jump\t// in\n    tag_67:\n      pop\n      0x20\n      dup3\n      add\n      mload\n      dup2\n      0x01\n      add\n      swap1\n      dup2\n      tag_69\n      swap2\n      swap1\n      tag_68\n      jump\t// in\n    tag_69:\n      pop\n      0x40\n      dup3\n      add\n      mload\n      dup2\n      0x02\n      add\n      sstore\n      0x60\n      dup3\n      add\n      mload\n      dup2\n      0x03\n      add\n      swap1\n      dup2\n      tag_70\n      swap2\n      swap1\n      tag_68\n      jump\t// in\n    tag_70:\n      pop\n      pop\n      pop\n        /* \"assignments/vender1.sol\":336:478  {... */\n      pop\n        /* \"assignments/vender1.sol\":235:478  function push_element(string memory u,string memory p,int n1,string memory x,string memory y) public {... */\n      pop\n      pop\n      pop\n      pop\n      pop\n      jump\t// out\n    tag_65:\n      mload(0x40)\n      dup1\n      0x80\n      add\n      0x40\n      mstore\n      dup1\n      0x60\n      dup2\n      mstore\n      0x20\n      add\n      0x60\n      dup2\n      mstore\n      0x20\n      add\n      0x00\n      dup2\n      mstore\n      0x20\n      add\n      0x60\n      dup2\n      mstore\n      pop\n      swap1\n      jump\t// out\n        /* \"#utility.yul\":7:139   */\n    tag_71:\n        /* \"#utility.yul\":92:98   */\n      0x00\n        /* \"#utility.yul\":126:131   */\n      dup2\n        /* \"#utility.yul\":120:132   */\n      mload\n        /* \"#utility.yul\":110:132   */\n      swap1\n      pop\n        /* \"#utility.yul\":7:139   */\n      swap2\n      swap1\n      pop\n      jump\t// out\n        /* \"#utility.yul\":145:347   */\n    tag_72:\n        /* \"#utility.yul\":262:273   */\n      0x00\n        /* \"#utility.yul\":296:302   */\n      dup3\n        /* \"#utility.yul\":291:294   */\n      dup3\n        /* \"#utility.yul\":284:303   */\n      mstore\n        /* \"#utility.yul\":336:340   */\n      0x20\n        /* \"#utility.yul\":331:334   */\n      dup3\n        /* \"#utility.yul\":327:341   */\n      add\n        /* \"#utility.yul\":312:341   */\n      swap1\n      pop\n        /* \"#utility.yul\":145:347   */\n      swap3\n      swap2\n      pop\n      pop\n      jump\t// out\n        /* \"#utility.yul\":353:503   */\n    tag_73:\n        /* \"#utility.yul\":438:442   */\n      0x00\n        /* \"#utility.yul\":461:464   */\n      dup2\n        /* \"#utility.yul\":453:464   */\n      swap1\n      pop\n        /* \"#utility.yul\":491:495   */\n      0x20\n        /* \"#utility.yul\":486:489   */\n      dup3\n        /* \"#utility.yul\":482:496   */\n      add\n        /* \"#utility.yul\":474:496   */\n      swap1\n      pop\n        /* \"#utility.yul\":353:503   */\n      swap2\n      swap1\n      pop\n      jump\t// out\n        /* \"#utility.yul\":509:608   */\n    tag_74:\n        /* \"#utility.yul\":561:567   */\n      0x00\n        /* \"#utility.yul\":595:600   */\n      dup2\n        /* \"#utility.yul\":589:601   */\n      mload\n        /* \"#utility.yul\":579:601   */\n      swap1\n      pop\n        /* \"#utility.yul\":509:608   */\n      swap2\n      swap1\n      pop\n      jump\t// out\n        /* \"#utility.yul\":614:773   */\n    tag_75:\n        /* \"#utility.yul\":688:699   */\n      0x00\n        /* \"#utility.yul\":722:728   */\n      dup3\n        /* \"#utility.yul\":717:720   */\n      dup3\n        /* \"#utility.yul\":710:729   */\n      mstore\n        /* \"#utility.yul\":762:766   */\n      0x20\n        /* \"#utility.yul\":757:760   */\n      dup3\n        /* \"#utility.yul\":753:767   */\n      add\n        /* \"#utility.yul\":738:767   */\n      swap1\n      pop\n        /* \"#utility.yul\":614:773   */\n      swap3\n      swap2\n      pop\n      pop\n      jump\t// out\n        /* \"#utility.yul\":779:1025   */\n    tag_76:\n        /* \"#utility.yul\":860:861   */\n      0x00\n        /* \"#utility.yul\":870:983   */\n    tag_129:\n        /* \"#utility.yul\":884:890   */\n      dup4\n        /* \"#utility.yul\":881:882   */\n      dup2\n        /* \"#utility.yul\":878:891   */\n      lt\n        /* \"#utility.yul\":870:983   */\n      iszero\n      tag_131\n      jumpi\n        /* \"#utility.yul\":969:970   */\n      dup1\n        /* \"#utility.yul\":964:967   */\n      dup3\n        /* \"#utility.yul\":960:971   */\n      add\n        /* \"#utility.yul\":954:972   */\n      mload\n        /* \"#utility.yul\":950:951   */\n      dup2\n        /* \"#utility.yul\":945:948   */\n      dup5\n        /* \"#utility.yul\":941:952   */\n      add\n        /* \"#utility.yul\":934:973   */\n      mstore\n        /* \"#utility.yul\":906:908   */\n      0x20\n        /* \"#utility.yul\":903:904   */\n      dup2\n        /* \"#utility.yul\":899:909   */\n      add\n        /* \"#utility.yul\":894:909   */\n      swap1\n      pop\n        /* \"#utility.yul\":870:983   */\n      jump(tag_129)\n    tag_131:\n        /* \"#utility.yul\":1017:1018   */\n      0x00\n        /* \"#utility.yul\":1008:1014   */\n      dup5\n        /* \"#utility.yul\":1003:1006   */\n      dup5\n        /* \"#utility.yul\":999:1015   */\n      add\n        /* \"#utility.yul\":992:1019   */\n      mstore\n        /* \"#utility.yul\":841:1025   */\n      pop\n        /* \"#utility.yul\":779:1025   */\n      pop\n      pop\n      pop\n      jump\t// out\n        /* \"#utility.yul\":1031:1133   */\n    tag_77:\n        /* \"#utility.yul\":1072:1078   */\n      0x00\n        /* \"#utility.yul\":1123:1125   */\n      0x1f\n        /* \"#utility.yul\":1119:1126   */\n      not\n        /* \"#utility.yul\":1114:1116   */\n      0x1f\n        /* \"#utility.yul\":1107:1112   */\n      dup4\n        /* \"#utility.yul\":1103:1117   */\n      add\n        /* \"#utility.yul\":1099:1127   */\n      and\n        /* \"#utility.yul\":1089:1127   */\n      swap1\n      pop\n        /* \"#utility.yul\":1031:1133   */\n      swap2\n      swap1\n      pop\n      jump\t// out\n        /* \"#utility.yul\":1139:1496   */\n    tag_78:\n        /* \"#utility.yul\":1217:1220   */\n      0x00\n        /* \"#utility.yul\":1245:1284   */\n      tag_134\n        /* \"#utility.yul\":1278:1283   */\n      dup3\n        /* \"#utility.yul\":1245:1284   */\n      tag_74\n      jump\t// in\n    tag_134:\n        /* \"#utility.yul\":1300:1361   */\n      tag_135\n        /* \"#utility.yul\":1354:1360   */\n      dup2\n        /* \"#utility.yul\":1349:1352   */\n      dup6\n        /* \"#utility.yul\":1300:1361   */\n      tag_75\n      jump\t// in\n    tag_135:\n        /* \"#utility.yul\":1293:1361   */\n      swap4\n      pop\n        /* \"#utility.yul\":1370:1435   */\n      tag_136\n        /* \"#utility.yul\":1428:1434   */\n      dup2\n        /* \"#utility.yul\":1423:1426   */\n      dup6\n        /* \"#utility.yul\":1416:1420   */\n      0x20\n        /* \"#utility.yul\":1409:1414   */\n      dup7\n        /* \"#utility.yul\":1405:1421   */\n      add\n        /* \"#utility.yul\":1370:1435   */\n      tag_76\n      jump\t// in\n    tag_136:\n        /* \"#utility.yul\":1460:1489   */\n      tag_137\n        /* \"#utility.yul\":1482:1488   */\n      dup2\n        /* \"#utility.yul\":1460:1489   */\n      tag_77\n      jump\t// in\n    tag_137:\n        /* \"#utility.yul\":1455:1458   */\n      dup5\n        /* \"#utility.yul\":1451:1490   */\n      add\n        /* \"#utility.yul\":1444:1490   */\n      swap2\n      pop\n        /* \"#utility.yul\":1221:1496   */\n      pop\n        /* \"#utility.yul\":1139:1496   */\n      swap3\n      swap2\n      pop\n      pop\n      jump\t// out\n        /* \"#utility.yul\":1502:1578   */\n    tag_79:\n        /* \"#utility.yul\":1538:1545   */\n      0x00\n        /* \"#utility.yul\":1567:1572   */\n      dup2\n        /* \"#utility.yul\":1556:1572   */\n      swap1\n      pop\n        /* \"#utility.yul\":1502:1578   */\n      swap2\n      swap1\n      pop\n      jump\t// out\n        /* \"#utility.yul\":1584:1689   */\n    tag_80:\n        /* \"#utility.yul\":1659:1682   */\n      tag_140\n        /* \"#utility.yul\":1676:1681   */\n      dup2\n        /* \"#utility.yul\":1659:1682   */\n      tag_79\n      jump\t// in\n    tag_140:\n        /* \"#utility.yul\":1654:1657   */\n      dup3\n        /* \"#utility.yul\":1647:1683   */\n      mstore\n        /* \"#utility.yul\":1584:1689   */\n      pop\n      pop\n      jump\t// out\n        /* \"#utility.yul\":1741:2818   */\n    tag_81:\n        /* \"#utility.yul\":1836:1839   */\n      0x00\n        /* \"#utility.yul\":1872:1876   */\n      0x80\n        /* \"#utility.yul\":1867:1870   */\n      dup4\n        /* \"#utility.yul\":1863:1877   */\n      add\n        /* \"#utility.yul\":1962:1966   */\n      0x00\n        /* \"#utility.yul\":1955:1960   */\n      dup4\n        /* \"#utility.yul\":1951:1967   */\n      add\n        /* \"#utility.yul\":1945:1968   */\n      mload\n        /* \"#utility.yul\":2015:2018   */\n      dup5\n        /* \"#utility.yul\":2009:2013   */\n      dup3\n        /* \"#utility.yul\":2005:2019   */\n      sub\n        /* \"#utility.yul\":1998:2002   */\n      0x00\n        /* \"#utility.yul\":1993:1996   */\n      dup7\n        /* \"#utility.yul\":1989:2003   */\n      add\n        /* \"#utility.yul\":1982:2020   */\n      mstore\n        /* \"#utility.yul\":2041:2114   */\n      tag_142\n        /* \"#utility.yul\":2109:2113   */\n      dup3\n        /* \"#utility.yul\":2095:2107   */\n      dup3\n        /* \"#utility.yul\":2041:2114   */\n      tag_78\n      jump\t// in\n    tag_142:\n        /* \"#utility.yul\":2033:2114   */\n      swap2\n      pop\n        /* \"#utility.yul\":1887:2125   */\n      pop\n        /* \"#utility.yul\":2207:2211   */\n      0x20\n        /* \"#utility.yul\":2200:2205   */\n      dup4\n        /* \"#utility.yul\":2196:2212   */\n      add\n        /* \"#utility.yul\":2190:2213   */\n      mload\n        /* \"#utility.yul\":2260:2263   */\n      dup5\n        /* \"#utility.yul\":2254:2258   */\n      dup3\n        /* \"#utility.yul\":2250:2264   */\n      sub\n        /* \"#utility.yul\":2243:2247   */\n      0x20\n        /* \"#utility.yul\":2238:2241   */\n      dup7\n        /* \"#utility.yul\":2234:2248   */\n      add\n        /* \"#utility.yul\":2227:2265   */\n      mstore\n        /* \"#utility.yul\":2286:2359   */\n      tag_143\n        /* \"#utility.yul\":2354:2358   */\n      dup3\n        /* \"#utility.yul\":2340:2352   */\n      dup3\n        /* \"#utility.yul\":2286:2359   */\n      tag_78\n      jump\t// in\n    tag_143:\n        /* \"#utility.yul\":2278:2359   */\n      swap2\n      pop\n        /* \"#utility.yul\":2135:2370   */\n      pop\n        /* \"#utility.yul\":2456:2460   */\n      0x40\n        /* \"#utility.yul\":2449:2454   */\n      dup4\n        /* \"#utility.yul\":2445:2461   */\n      add\n        /* \"#utility.yul\":2439:2462   */\n      mload\n        /* \"#utility.yul\":2475:2536   */\n      tag_144\n        /* \"#utility.yul\":2530:2534   */\n      0x40\n        /* \"#utility.yul\":2525:2528   */\n      dup7\n        /* \"#utility.yul\":2521:2535   */\n      add\n        /* \"#utility.yul\":2507:2519   */\n      dup3\n        /* \"#utility.yul\":2475:2536   */\n      tag_80\n      jump\t// in\n    tag_144:\n        /* \"#utility.yul\":2380:2546   */\n      pop\n        /* \"#utility.yul\":2628:2632   */\n      0x60\n        /* \"#utility.yul\":2621:2626   */\n      dup4\n        /* \"#utility.yul\":2617:2633   */\n      add\n        /* \"#utility.yul\":2611:2634   */\n      mload\n        /* \"#utility.yul\":2681:2684   */\n      dup5\n        /* \"#utility.yul\":2675:2679   */\n      dup3\n        /* \"#utility.yul\":2671:2685   */\n      sub\n        /* \"#utility.yul\":2664:2668   */\n      0x60\n        /* \"#utility.yul\":2659:2662   */\n      dup7\n        /* \"#utility.yul\":2655:2669   */\n      add\n        /* \"#utility.yul\":2648:2686   */\n      mstore\n        /* \"#utility.yul\":2707:2780   */\n      tag_145\n        /* \"#utility.yul\":2775:2779   */\n      dup3\n        /* \"#utility.yul\":2761:2773   */\n      dup3\n        /* \"#utility.yul\":2707:2780   */\n      tag_78\n      jump\t// in\n    tag_145:\n        /* \"#utility.yul\":2699:2780   */\n      swap2\n      pop\n        /* \"#utility.yul\":2556:2791   */\n      pop\n        /* \"#utility.yul\":2808:2812   */\n      dup1\n        /* \"#utility.yul\":2801:2812   */\n      swap2\n      pop\n        /* \"#utility.yul\":1841:2818   */\n      pop\n        /* \"#utility.yul\":1741:2818   */\n      swap3\n      swap2\n      pop\n      pop\n      jump\t// out\n        /* \"#utility.yul\":2824:3052   */\n    tag_82:\n        /* \"#utility.yul\":2929:2939   */\n      0x00\n        /* \"#utility.yul\":2964:3046   */\n      tag_147\n        /* \"#utility.yul\":3042:3045   */\n      dup4\n        /* \"#utility.yul\":3034:3040   */\n      dup4\n        /* \"#utility.yul\":2964:3046   */\n      tag_81\n      jump\t// in\n    tag_147:\n        /* \"#utility.yul\":2950:3046   */\n      swap1\n      pop\n        /* \"#utility.yul\":2824:3052   */\n      swap3\n      swap2\n      pop\n      pop\n      jump\t// out\n        /* \"#utility.yul\":3058:3189   */\n    tag_83:\n        /* \"#utility.yul\":3146:3150   */\n      0x00\n        /* \"#utility.yul\":3178:3182   */\n      0x20\n        /* \"#utility.yul\":3173:3176   */\n      dup3\n        /* \"#utility.yul\":3169:3183   */\n      add\n        /* \"#utility.yul\":3161:3183   */\n      swap1\n      pop\n        /* \"#utility.yul\":3058:3189   */\n      swap2\n      swap1\n      pop\n      jump\t// out\n        /* \"#utility.yul\":3245:4300   */\n    tag_84:\n        /* \"#utility.yul\":3400:3403   */\n      0x00\n        /* \"#utility.yul\":3429:3501   */\n      tag_150\n        /* \"#utility.yul\":3495:3500   */\n      dup3\n        /* \"#utility.yul\":3429:3501   */\n      tag_71\n      jump\t// in\n    tag_150:\n        /* \"#utility.yul\":3517:3621   */\n      tag_151\n        /* \"#utility.yul\":3614:3620   */\n      dup2\n        /* \"#utility.yul\":3609:3612   */\n      dup6\n        /* \"#utility.yul\":3517:3621   */\n      tag_72\n      jump\t// in\n    tag_151:\n        /* \"#utility.yul\":3510:3621   */\n      swap4\n      pop\n        /* \"#utility.yul\":3647:3650   */\n      dup4\n        /* \"#utility.yul\":3692:3696   */\n      0x20\n        /* \"#utility.yul\":3684:3690   */\n      dup3\n        /* \"#utility.yul\":3680:3697   */\n      mul\n        /* \"#utility.yul\":3675:3678   */\n      dup6\n        /* \"#utility.yul\":3671:3698   */\n      add\n        /* \"#utility.yul\":3722:3796   */\n      tag_152\n        /* \"#utility.yul\":3790:3795   */\n      dup6\n        /* \"#utility.yul\":3722:3796   */\n      tag_73\n      jump\t// in\n    tag_152:\n        /* \"#utility.yul\":3819:3826   */\n      dup1\n        /* \"#utility.yul\":3850:3851   */\n      0x00\n        /* \"#utility.yul\":3835:4255   */\n    tag_153:\n        /* \"#utility.yul\":3860:3866   */\n      dup6\n        /* \"#utility.yul\":3857:3858   */\n      dup2\n        /* \"#utility.yul\":3854:3867   */\n      lt\n        /* \"#utility.yul\":3835:4255   */\n      iszero\n      tag_155\n      jumpi\n        /* \"#utility.yul\":3931:3940   */\n      dup5\n        /* \"#utility.yul\":3925:3929   */\n      dup5\n        /* \"#utility.yul\":3921:3941   */\n      sub\n        /* \"#utility.yul\":3916:3919   */\n      dup10\n        /* \"#utility.yul\":3909:3942   */\n      mstore\n        /* \"#utility.yul\":3982:3988   */\n      dup2\n        /* \"#utility.yul\":3976:3989   */\n      mload\n        /* \"#utility.yul\":4010:4110   */\n      tag_156\n        /* \"#utility.yul\":4105:4109   */\n      dup6\n        /* \"#utility.yul\":4090:4103   */\n      dup3\n        /* \"#utility.yul\":4010:4110   */\n      tag_82\n      jump\t// in\n    tag_156:\n        /* \"#utility.yul\":4002:4110   */\n      swap5\n      pop\n        /* \"#utility.yul\":4133:4211   */\n      tag_157\n        /* \"#utility.yul\":4204:4210   */\n      dup4\n        /* \"#utility.yul\":4133:4211   */\n      tag_83\n      jump\t// in\n    tag_157:\n        /* \"#utility.yul\":4123:4211   */\n      swap3\n      pop\n        /* \"#utility.yul\":4240:4244   */\n      0x20\n        /* \"#utility.yul\":4235:4238   */\n      dup11\n        /* \"#utility.yul\":4231:4245   */\n      add\n        /* \"#utility.yul\":4224:4245   */\n      swap10\n      pop\n        /* \"#utility.yul\":3895:4255   */\n      pop\n        /* \"#utility.yul\":3882:3883   */\n      0x01\n        /* \"#utility.yul\":3879:3880   */\n      dup2\n        /* \"#utility.yul\":3875:3884   */\n      add\n        /* \"#utility.yul\":3870:3884   */\n      swap1\n      pop\n        /* \"#utility.yul\":3835:4255   */\n      jump(tag_153)\n    tag_155:\n        /* \"#utility.yul\":3839:3853   */\n      pop\n        /* \"#utility.yul\":4271:4275   */\n      dup3\n        /* \"#utility.yul\":4264:4275   */\n      swap8\n      pop\n        /* \"#utility.yul\":4291:4294   */\n      dup8\n        /* \"#utility.yul\":4284:4294   */\n      swap6\n      pop\n        /* \"#utility.yul\":3405:4300   */\n      pop\n      pop\n      pop\n      pop\n      pop\n        /* \"#utility.yul\":3245:4300   */\n      swap3\n      swap2\n      pop\n      pop\n      jump\t// out\n        /* \"#utility.yul\":4306:4751   */\n    tag_10:\n        /* \"#utility.yul\":4485:4489   */\n      0x00\n        /* \"#utility.yul\":4523:4525   */\n      0x20\n        /* \"#utility.yul\":4512:4521   */\n      dup3\n        /* \"#utility.yul\":4508:4526   */\n      add\n        /* \"#utility.yul\":4500:4526   */\n      swap1\n      pop\n        /* \"#utility.yul\":4572:4581   */\n      dup2\n        /* \"#utility.yul\":4566:4570   */\n      dup2\n        /* \"#utility.yul\":4562:4582   */\n      sub\n        /* \"#utility.yul\":4558:4559   */\n      0x00\n        /* \"#utility.yul\":4547:4556   */\n      dup4\n        /* \"#utility.yul\":4543:4560   */\n      add\n        /* \"#utility.yul\":4536:4583   */\n      mstore\n        /* \"#utility.yul\":4600:4744   */\n      tag_159\n        /* \"#utility.yul\":4739:4743   */\n      dup2\n        /* \"#utility.yul\":4730:4736   */\n      dup5\n        /* \"#utility.yul\":4600:4744   */\n      tag_84\n      jump\t// in\n    tag_159:\n        /* \"#utility.yul\":4592:4744   */\n      swap1\n      pop\n        /* \"#utility.yul\":4306:4751   */\n      swap3\n      swap2\n      pop\n      pop\n      jump\t// out\n        /* \"#utility.yul\":4757:4834   */\n    tag_85:\n        /* \"#utility.yul\":4794:4801   */\n      0x00\n        /* \"#utility.yul\":4823:4828   */\n      dup2\n        /* \"#utility.yul\":4812:4828   */\n      swap1\n      pop\n        /* \"#utility.yul\":4757:4834   */\n      swap2\n      swap1\n      pop\n      jump\t// out\n        /* \"#utility.yul\":4840:4958   */\n    tag_86:\n        /* \"#utility.yul\":4927:4951   */\n      tag_162\n        /* \"#utility.yul\":4945:4950   */\n      dup2\n        /* \"#utility.yul\":4927:4951   */\n      tag_85\n      jump\t// in\n    tag_162:\n        /* \"#utility.yul\":4922:4925   */\n      dup3\n        /* \"#utility.yul\":4915:4952   */\n      mstore\n        /* \"#utility.yul\":4840:4958   */\n      pop\n      pop\n      jump\t// out\n        /* \"#utility.yul\":4964:5186   */\n    tag_14:\n        /* \"#utility.yul\":5057:5061   */\n      0x00\n        /* \"#utility.yul\":5095:5097   */\n      0x20\n        /* \"#utility.yul\":5084:5093   */\n      dup3\n        /* \"#utility.yul\":5080:5098   */\n      add\n        /* \"#utility.yul\":5072:5098   */\n      swap1\n      pop\n        /* \"#utility.yul\":5108:5179   */\n      tag_164\n        /* \"#utility.yul\":5176:5177   */\n      0x00\n        /* \"#utility.yul\":5165:5174   */\n      dup4\n        /* \"#utility.yul\":5161:5178   */\n      add\n        /* \"#utility.yul\":5152:5158   */\n      dup5\n        /* \"#utility.yul\":5108:5179   */\n      tag_86\n      jump\t// in\n    tag_164:\n        /* \"#utility.yul\":4964:5186   */\n      swap3\n      swap2\n      pop\n      pop\n      jump\t// out\n        /* \"#utility.yul\":5192:5267   */\n    tag_87:\n        /* \"#utility.yul\":5225:5231   */\n      0x00\n        /* \"#utility.yul\":5258:5260   */\n      0x40\n        /* \"#utility.yul\":5252:5261   */\n      mload\n        /* \"#utility.yul\":5242:5261   */\n      swap1\n      pop\n        /* \"#utility.yul\":5192:5267   */\n      swap1\n      jump\t// out\n        /* \"#utility.yul\":5273:5390   */\n    tag_88:\n        /* \"#utility.yul\":5382:5383   */\n      0x00\n        /* \"#utility.yul\":5379:5380   */\n      dup1\n        /* \"#utility.yul\":5372:5384   */\n      revert\n        /* \"#utility.yul\":5396:5513   */\n    tag_89:\n        /* \"#utility.yul\":5505:5506   */\n      0x00\n        /* \"#utility.yul\":5502:5503   */\n      dup1\n        /* \"#utility.yul\":5495:5507   */\n      revert\n        /* \"#utility.yul\":5519:5641   */\n    tag_90:\n        /* \"#utility.yul\":5592:5616   */\n      tag_169\n        /* \"#utility.yul\":5610:5615   */\n      dup2\n        /* \"#utility.yul\":5592:5616   */\n      tag_85\n      jump\t// in\n    tag_169:\n        /* \"#utility.yul\":5585:5590   */\n      dup2\n        /* \"#utility.yul\":5582:5617   */\n      eq\n        /* \"#utility.yul\":5572:5635   */\n      tag_170\n      jumpi\n        /* \"#utility.yul\":5631:5632   */\n      0x00\n        /* \"#utility.yul\":5628:5629   */\n      dup1\n        /* \"#utility.yul\":5621:5633   */\n      revert\n        /* \"#utility.yul\":5572:5635   */\n    tag_170:\n        /* \"#utility.yul\":5519:5641   */\n      pop\n      jump\t// out\n        /* \"#utility.yul\":5647:5786   */\n    tag_91:\n        /* \"#utility.yul\":5693:5698   */\n      0x00\n        /* \"#utility.yul\":5731:5737   */\n      dup2\n        /* \"#utility.yul\":5718:5738   */\n      calldataload\n        /* \"#utility.yul\":5709:5738   */\n      swap1\n      pop\n        /* \"#utility.yul\":5747:5780   */\n      tag_172\n        /* \"#utility.yul\":5774:5779   */\n      dup2\n        /* \"#utility.yul\":5747:5780   */\n      tag_90\n      jump\t// in\n    tag_172:\n        /* \"#utility.yul\":5647:5786   */\n      swap3\n      swap2\n      pop\n      pop\n      jump\t// out\n        /* \"#utility.yul\":5792:6121   */\n    tag_17:\n        /* \"#utility.yul\":5851:5857   */\n      0x00\n        /* \"#utility.yul\":5900:5902   */\n      0x20\n        /* \"#utility.yul\":5888:5897   */\n      dup3\n        /* \"#utility.yul\":5879:5886   */\n      dup5\n        /* \"#utility.yul\":5875:5898   */\n      sub\n        /* \"#utility.yul\":5871:5903   */\n      slt\n        /* \"#utility.yul\":5868:5987   */\n      iszero\n      tag_174\n      jumpi\n        /* \"#utility.yul\":5906:5985   */\n      tag_175\n      tag_88\n      jump\t// in\n    tag_175:\n        /* \"#utility.yul\":5868:5987   */\n    tag_174:\n        /* \"#utility.yul\":6026:6027   */\n      0x00\n        /* \"#utility.yul\":6051:6104   */\n      tag_176\n        /* \"#utility.yul\":6096:6103   */\n      dup5\n        /* \"#utility.yul\":6087:6093   */\n      dup3\n        /* \"#utility.yul\":6076:6085   */\n      dup6\n        /* \"#utility.yul\":6072:6094   */\n      add\n        /* \"#utility.yul\":6051:6104   */\n      tag_91\n      jump\t// in\n    tag_176:\n        /* \"#utility.yul\":6041:6104   */\n      swap2\n      pop\n        /* \"#utility.yul\":5997:6114   */\n      pop\n        /* \"#utility.yul\":5792:6121   */\n      swap3\n      swap2\n      pop\n      pop\n      jump\t// out\n        /* \"#utility.yul\":6127:6296   */\n    tag_92:\n        /* \"#utility.yul\":6211:6222   */\n      0x00\n        /* \"#utility.yul\":6245:6251   */\n      dup3\n        /* \"#utility.yul\":6240:6243   */\n      dup3\n        /* \"#utility.yul\":6233:6252   */\n      mstore\n        /* \"#utility.yul\":6285:6289   */\n      0x20\n        /* \"#utility.yul\":6280:6283   */\n      dup3\n        /* \"#utility.yul\":6276:6290   */\n      add\n        /* \"#utility.yul\":6261:6290   */\n      swap1\n      pop\n        /* \"#utility.yul\":6127:6296   */\n      swap3\n      swap2\n      pop\n      pop\n      jump\t// out\n        /* \"#utility.yul\":6302:6679   */\n    tag_93:\n        /* \"#utility.yul\":6390:6393   */\n      0x00\n        /* \"#utility.yul\":6418:6457   */\n      tag_179\n        /* \"#utility.yul\":6451:6456   */\n      dup3\n        /* \"#utility.yul\":6418:6457   */\n      tag_74\n      jump\t// in\n    tag_179:\n        /* \"#utility.yul\":6473:6544   */\n      tag_180\n        /* \"#utility.yul\":6537:6543   */\n      dup2\n        /* \"#utility.yul\":6532:6535   */\n      dup6\n        /* \"#utility.yul\":6473:6544   */\n      tag_92\n      jump\t// in\n    tag_180:\n        /* \"#utility.yul\":6466:6544   */\n      swap4\n      pop\n        /* \"#utility.yul\":6553:6618   */\n      tag_181\n        /* \"#utility.yul\":6611:6617   */\n      dup2\n        /* \"#utility.yul\":6606:6609   */\n      dup6\n        /* \"#utility.yul\":6599:6603   */\n      0x20\n        /* \"#utility.yul\":6592:6597   */\n      dup7\n        /* \"#utility.yul\":6588:6604   */\n      add\n        /* \"#utility.yul\":6553:6618   */\n      tag_76\n      jump\t// in\n    tag_181:\n        /* \"#utility.yul\":6643:6672   */\n      tag_182\n        /* \"#utility.yul\":6665:6671   */\n      dup2\n        /* \"#utility.yul\":6643:6672   */\n      tag_77\n      jump\t// in\n    tag_182:\n        /* \"#utility.yul\":6638:6641   */\n      dup5\n        /* \"#utility.yul\":6634:6673   */\n      add\n        /* \"#utility.yul\":6627:6673   */\n      swap2\n      pop\n        /* \"#utility.yul\":6394:6679   */\n      pop\n        /* \"#utility.yul\":6302:6679   */\n      swap3\n      swap2\n      pop\n      pop\n      jump\t// out\n        /* \"#utility.yul\":6685:6800   */\n    tag_94:\n        /* \"#utility.yul\":6770:6793   */\n      tag_184\n        /* \"#utility.yul\":6787:6792   */\n      dup2\n        /* \"#utility.yul\":6770:6793   */\n      tag_79\n      jump\t// in\n    tag_184:\n        /* \"#utility.yul\":6765:6768   */\n      dup3\n        /* \"#utility.yul\":6758:6794   */\n      mstore\n        /* \"#utility.yul\":6685:6800   */\n      pop\n      pop\n      jump\t// out\n        /* \"#utility.yul\":6806:7628   */\n    tag_20:\n        /* \"#utility.yul\":7041:7045   */\n      0x00\n        /* \"#utility.yul\":7079:7082   */\n      0x80\n        /* \"#utility.yul\":7068:7077   */\n      dup3\n        /* \"#utility.yul\":7064:7083   */\n      add\n        /* \"#utility.yul\":7056:7083   */\n      swap1\n      pop\n        /* \"#utility.yul\":7129:7138   */\n      dup2\n        /* \"#utility.yul\":7123:7127   */\n      dup2\n        /* \"#utility.yul\":7119:7139   */\n      sub\n        /* \"#utility.yul\":7115:7116   */\n      0x00\n        /* \"#utility.yul\":7104:7113   */\n      dup4\n        /* \"#utility.yul\":7100:7117   */\n      add\n        /* \"#utility.yul\":7093:7140   */\n      mstore\n        /* \"#utility.yul\":7157:7235   */\n      tag_186\n        /* \"#utility.yul\":7230:7234   */\n      dup2\n        /* \"#utility.yul\":7221:7227   */\n      dup8\n        /* \"#utility.yul\":7157:7235   */\n      tag_93\n      jump\t// in\n    tag_186:\n        /* \"#utility.yul\":7149:7235   */\n      swap1\n      pop\n        /* \"#utility.yul\":7282:7291   */\n      dup2\n        /* \"#utility.yul\":7276:7280   */\n      dup2\n        /* \"#utility.yul\":7272:7292   */\n      sub\n        /* \"#utility.yul\":7267:7269   */\n      0x20\n        /* \"#utility.yul\":7256:7265   */\n      dup4\n        /* \"#utility.yul\":7252:7270   */\n      add\n        /* \"#utility.yul\":7245:7293   */\n      mstore\n        /* \"#utility.yul\":7310:7388   */\n      tag_187\n        /* \"#utility.yul\":7383:7387   */\n      dup2\n        /* \"#utility.yul\":7374:7380   */\n      dup7\n        /* \"#utility.yul\":7310:7388   */\n      tag_93\n      jump\t// in\n    tag_187:\n        /* \"#utility.yul\":7302:7388   */\n      swap1\n      pop\n        /* \"#utility.yul\":7398:7468   */\n      tag_188\n        /* \"#utility.yul\":7464:7466   */\n      0x40\n        /* \"#utility.yul\":7453:7462   */\n      dup4\n        /* \"#utility.yul\":7449:7467   */\n      add\n        /* \"#utility.yul\":7440:7446   */\n      dup6\n        /* \"#utility.yul\":7398:7468   */\n      tag_94\n      jump\t// in\n    tag_188:\n        /* \"#utility.yul\":7515:7524   */\n      dup2\n        /* \"#utility.yul\":7509:7513   */\n      dup2\n        /* \"#utility.yul\":7505:7525   */\n      sub\n        /* \"#utility.yul\":7500:7502   */\n      0x60\n        /* \"#utility.yul\":7489:7498   */\n      dup4\n        /* \"#utility.yul\":7485:7503   */\n      add\n        /* \"#utility.yul\":7478:7526   */\n      mstore\n        /* \"#utility.yul\":7543:7621   */\n      tag_189\n        /* \"#utility.yul\":7616:7620   */\n      dup2\n        /* \"#utility.yul\":7607:7613   */\n      dup5\n        /* \"#utility.yul\":7543:7621   */\n      tag_93\n      jump\t// in\n    tag_189:\n        /* \"#utility.yul\":7535:7621   */\n      swap1\n      pop\n        /* \"#utility.yul\":6806:7628   */\n      swap6\n      swap5\n      pop\n      pop\n      pop\n      pop\n      pop\n      jump\t// out\n        /* \"#utility.yul\":7634:7751   */\n    tag_95:\n        /* \"#utility.yul\":7743:7744   */\n      0x00\n        /* \"#utility.yul\":7740:7741   */\n      dup1\n        /* \"#utility.yul\":7733:7745   */\n      revert\n        /* \"#utility.yul\":7757:7874   */\n    tag_96:\n        /* \"#utility.yul\":7866:7867   */\n      0x00\n        /* \"#utility.yul\":7863:7864   */\n      dup1\n        /* \"#utility.yul\":7856:7868   */\n      revert\n        /* \"#utility.yul\":7880:8060   */\n    tag_97:\n        /* \"#utility.yul\":7928:8005   */\n      0x4e487b7100000000000000000000000000000000000000000000000000000000\n        /* \"#utility.yul\":7925:7926   */\n      0x00\n        /* \"#utility.yul\":7918:8006   */\n      mstore\n        /* \"#utility.yul\":8025:8029   */\n      0x41\n        /* \"#utility.yul\":8022:8023   */\n      0x04\n        /* \"#utility.yul\":8015:8030   */\n      mstore\n        /* \"#utility.yul\":8049:8053   */\n      0x24\n        /* \"#utility.yul\":8046:8047   */\n      0x00\n        /* \"#utility.yul\":8039:8054   */\n      revert\n        /* \"#utility.yul\":8066:8347   */\n    tag_98:\n        /* \"#utility.yul\":8149:8176   */\n      tag_194\n        /* \"#utility.yul\":8171:8175   */\n      dup3\n        /* \"#utility.yul\":8149:8176   */\n      tag_77\n      jump\t// in\n    tag_194:\n        /* \"#utility.yul\":8141:8147   */\n      dup2\n        /* \"#utility.yul\":8137:8177   */\n      add\n        /* \"#utility.yul\":8279:8285   */\n      dup2\n        /* \"#utility.yul\":8267:8277   */\n      dup2\n        /* \"#utility.yul\":8264:8286   */\n      lt\n        /* \"#utility.yul\":8243:8261   */\n      0xffffffffffffffff\n        /* \"#utility.yul\":8231:8241   */\n      dup3\n        /* \"#utility.yul\":8228:8262   */\n      gt\n        /* \"#utility.yul\":8225:8287   */\n      or\n        /* \"#utility.yul\":8222:8310   */\n      iszero\n      tag_195\n      jumpi\n        /* \"#utility.yul\":8290:8308   */\n      tag_196\n      tag_97\n      jump\t// in\n    tag_196:\n        /* \"#utility.yul\":8222:8310   */\n    tag_195:\n        /* \"#utility.yul\":8330:8340   */\n      dup1\n        /* \"#utility.yul\":8326:8328   */\n      0x40\n        /* \"#utility.yul\":8319:8341   */\n      mstore\n        /* \"#utility.yul\":8109:8347   */\n      pop\n        /* \"#utility.yul\":8066:8347   */\n      pop\n      pop\n      jump\t// out\n        /* \"#utility.yul\":8353:8482   */\n    tag_99:\n        /* \"#utility.yul\":8387:8393   */\n      0x00\n        /* \"#utility.yul\":8414:8434   */\n      tag_198\n      tag_87\n      jump\t// in\n    tag_198:\n        /* \"#utility.yul\":8404:8434   */\n      swap1\n      pop\n        /* \"#utility.yul\":8443:8476   */\n      tag_199\n        /* \"#utility.yul\":8471:8475   */\n      dup3\n        /* \"#utility.yul\":8463:8469   */\n      dup3\n        /* \"#utility.yul\":8443:8476   */\n      tag_98\n      jump\t// in\n    tag_199:\n        /* \"#utility.yul\":8353:8482   */\n      swap2\n      swap1\n      pop\n      jump\t// out\n        /* \"#utility.yul\":8488:8796   */\n    tag_100:\n        /* \"#utility.yul\":8550:8554   */\n      0x00\n        /* \"#utility.yul\":8640:8658   */\n      0xffffffffffffffff\n        /* \"#utility.yul\":8632:8638   */\n      dup3\n        /* \"#utility.yul\":8629:8659   */\n      gt\n        /* \"#utility.yul\":8626:8682   */\n      iszero\n      tag_201\n      jumpi\n        /* \"#utility.yul\":8662:8680   */\n      tag_202\n      tag_97\n      jump\t// in\n    tag_202:\n        /* \"#utility.yul\":8626:8682   */\n    tag_201:\n        /* \"#utility.yul\":8700:8729   */\n      tag_203\n        /* \"#utility.yul\":8722:8728   */\n      dup3\n        /* \"#utility.yul\":8700:8729   */\n      tag_77\n      jump\t// in\n    tag_203:\n        /* \"#utility.yul\":8692:8729   */\n      swap1\n      pop\n        /* \"#utility.yul\":8784:8788   */\n      0x20\n        /* \"#utility.yul\":8778:8782   */\n      dup2\n        /* \"#utility.yul\":8774:8789   */\n      add\n        /* \"#utility.yul\":8766:8789   */\n      swap1\n      pop\n        /* \"#utility.yul\":8488:8796   */\n      swap2\n      swap1\n      pop\n      jump\t// out\n        /* \"#utility.yul\":8802:8948   */\n    tag_101:\n        /* \"#utility.yul\":8899:8905   */\n      dup3\n        /* \"#utility.yul\":8894:8897   */\n      dup2\n        /* \"#utility.yul\":8889:8892   */\n      dup4\n        /* \"#utility.yul\":8876:8906   */\n      calldatacopy\n        /* \"#utility.yul\":8940:8941   */\n      0x00\n        /* \"#utility.yul\":8931:8937   */\n      dup4\n        /* \"#utility.yul\":8926:8929   */\n      dup4\n        /* \"#utility.yul\":8922:8938   */\n      add\n        /* \"#utility.yul\":8915:8942   */\n      mstore\n        /* \"#utility.yul\":8802:8948   */\n      pop\n      pop\n      pop\n      jump\t// out\n        /* \"#utility.yul\":8954:9379   */\n    tag_102:\n        /* \"#utility.yul\":9032:9037   */\n      0x00\n        /* \"#utility.yul\":9057:9123   */\n      tag_206\n        /* \"#utility.yul\":9073:9122   */\n      tag_207\n        /* \"#utility.yul\":9115:9121   */\n      dup5\n        /* \"#utility.yul\":9073:9122   */\n      tag_100\n      jump\t// in\n    tag_207:\n        /* \"#utility.yul\":9057:9123   */\n      tag_99\n      jump\t// in\n    tag_206:\n        /* \"#utility.yul\":9048:9123   */\n      swap1\n      pop\n        /* \"#utility.yul\":9146:9152   */\n      dup3\n        /* \"#utility.yul\":9139:9144   */\n      dup2\n        /* \"#utility.yul\":9132:9153   */\n      mstore\n        /* \"#utility.yul\":9184:9188   */\n      0x20\n        /* \"#utility.yul\":9177:9182   */\n      dup2\n        /* \"#utility.yul\":9173:9189   */\n      add\n        /* \"#utility.yul\":9222:9225   */\n      dup5\n        /* \"#utility.yul\":9213:9219   */\n      dup5\n        /* \"#utility.yul\":9208:9211   */\n      dup5\n        /* \"#utility.yul\":9204:9220   */\n      add\n        /* \"#utility.yul\":9201:9226   */\n      gt\n        /* \"#utility.yul\":9198:9310   */\n      iszero\n      tag_208\n      jumpi\n        /* \"#utility.yul\":9229:9308   */\n      tag_209\n      tag_96\n      jump\t// in\n    tag_209:\n        /* \"#utility.yul\":9198:9310   */\n    tag_208:\n        /* \"#utility.yul\":9319:9373   */\n      tag_210\n        /* \"#utility.yul\":9366:9372   */\n      dup5\n        /* \"#utility.yul\":9361:9364   */\n      dup3\n        /* \"#utility.yul\":9356:9359   */\n      dup6\n        /* \"#utility.yul\":9319:9373   */\n      tag_101\n      jump\t// in\n    tag_210:\n        /* \"#utility.yul\":9038:9379   */\n      pop\n        /* \"#utility.yul\":8954:9379   */\n      swap4\n      swap3\n      pop\n      pop\n      pop\n      jump\t// out\n        /* \"#utility.yul\":9399:9739   */\n    tag_103:\n        /* \"#utility.yul\":9455:9460   */\n      0x00\n        /* \"#utility.yul\":9504:9507   */\n      dup3\n        /* \"#utility.yul\":9497:9501   */\n      0x1f\n        /* \"#utility.yul\":9489:9495   */\n      dup4\n        /* \"#utility.yul\":9485:9502   */\n      add\n        /* \"#utility.yul\":9481:9508   */\n      slt\n        /* \"#utility.yul\":9471:9593   */\n      tag_212\n      jumpi\n        /* \"#utility.yul\":9512:9591   */\n      tag_213\n      tag_95\n      jump\t// in\n    tag_213:\n        /* \"#utility.yul\":9471:9593   */\n    tag_212:\n        /* \"#utility.yul\":9629:9635   */\n      dup2\n        /* \"#utility.yul\":9616:9636   */\n      calldataload\n        /* \"#utility.yul\":9654:9733   */\n      tag_214\n        /* \"#utility.yul\":9729:9732   */\n      dup5\n        /* \"#utility.yul\":9721:9727   */\n      dup3\n        /* \"#utility.yul\":9714:9718   */\n      0x20\n        /* \"#utility.yul\":9706:9712   */\n      dup7\n        /* \"#utility.yul\":9702:9719   */\n      add\n        /* \"#utility.yul\":9654:9733   */\n      tag_102\n      jump\t// in\n    tag_214:\n        /* \"#utility.yul\":9645:9733   */\n      swap2\n      pop\n        /* \"#utility.yul\":9461:9739   */\n      pop\n        /* \"#utility.yul\":9399:9739   */\n      swap3\n      swap2\n      pop\n      pop\n      jump\t// out\n        /* \"#utility.yul\":9745:9865   */\n    tag_104:\n        /* \"#utility.yul\":9817:9840   */\n      tag_216\n        /* \"#utility.yul\":9834:9839   */\n      dup2\n        /* \"#utility.yul\":9817:9840   */\n      tag_79\n      jump\t// in\n    tag_216:\n        /* \"#utility.yul\":9810:9815   */\n      dup2\n        /* \"#utility.yul\":9807:9841   */\n      eq\n        /* \"#utility.yul\":9797:9859   */\n      tag_217\n      jumpi\n        /* \"#utility.yul\":9855:9856   */\n      0x00\n        /* \"#utility.yul\":9852:9853   */\n      dup1\n        /* \"#utility.yul\":9845:9857   */\n      revert\n        /* \"#utility.yul\":9797:9859   */\n    tag_217:\n        /* \"#utility.yul\":9745:9865   */\n      pop\n      jump\t// out\n        /* \"#utility.yul\":9871:10008   */\n    tag_105:\n        /* \"#utility.yul\":9916:9921   */\n      0x00\n        /* \"#utility.yul\":9954:9960   */\n      dup2\n        /* \"#utility.yul\":9941:9961   */\n      calldataload\n        /* \"#utility.yul\":9932:9961   */\n      swap1\n      pop\n        /* \"#utility.yul\":9970:10002   */\n      tag_219\n        /* \"#utility.yul\":9996:10001   */\n      dup2\n        /* \"#utility.yul\":9970:10002   */\n      tag_104\n      jump\t// in\n    tag_219:\n        /* \"#utility.yul\":9871:10008   */\n      swap3\n      swap2\n      pop\n      pop\n      jump\t// out\n        /* \"#utility.yul\":10014:11643   */\n    tag_23:\n        /* \"#utility.yul\":10148:10154   */\n      0x00\n        /* \"#utility.yul\":10156:10162   */\n      dup1\n        /* \"#utility.yul\":10164:10170   */\n      0x00\n        /* \"#utility.yul\":10172:10178   */\n      dup1\n        /* \"#utility.yul\":10180:10186   */\n      0x00\n        /* \"#utility.yul\":10229:10232   */\n      0xa0\n        /* \"#utility.yul\":10217:10226   */\n      dup7\n        /* \"#utility.yul\":10208:10215   */\n      dup9\n        /* \"#utility.yul\":10204:10227   */\n      sub\n        /* \"#utility.yul\":10200:10233   */\n      slt\n        /* \"#utility.yul\":10197:10317   */\n      iszero\n      tag_221\n      jumpi\n        /* \"#utility.yul\":10236:10315   */\n      tag_222\n      tag_88\n      jump\t// in\n    tag_222:\n        /* \"#utility.yul\":10197:10317   */\n    tag_221:\n        /* \"#utility.yul\":10384:10385   */\n      0x00\n        /* \"#utility.yul\":10373:10382   */\n      dup7\n        /* \"#utility.yul\":10369:10386   */\n      add\n        /* \"#utility.yul\":10356:10387   */\n      calldataload\n        /* \"#utility.yul\":10414:10432   */\n      0xffffffffffffffff\n        /* \"#utility.yul\":10406:10412   */\n      dup2\n        /* \"#utility.yul\":10403:10433   */\n      gt\n        /* \"#utility.yul\":10400:10517   */\n      iszero\n      tag_223\n      jumpi\n        /* \"#utility.yul\":10436:10515   */\n      tag_224\n      tag_89\n      jump\t// in\n    tag_224:\n        /* \"#utility.yul\":10400:10517   */\n    tag_223:\n        /* \"#utility.yul\":10541:10604   */\n      tag_225\n        /* \"#utility.yul\":10596:10603   */\n      dup9\n        /* \"#utility.yul\":10587:10593   */\n      dup3\n        /* \"#utility.yul\":10576:10585   */\n      dup10\n        /* \"#utility.yul\":10572:10594   */\n      add\n        /* \"#utility.yul\":10541:10604   */\n      tag_103\n      jump\t// in\n    tag_225:\n        /* \"#utility.yul\":10531:10604   */\n      swap6\n      pop\n        /* \"#utility.yul\":10327:10614   */\n      pop\n        /* \"#utility.yul\":10681:10683   */\n      0x20\n        /* \"#utility.yul\":10670:10679   */\n      dup7\n        /* \"#utility.yul\":10666:10684   */\n      add\n        /* \"#utility.yul\":10653:10685   */\n      calldataload\n        /* \"#utility.yul\":10712:10730   */\n      0xffffffffffffffff\n        /* \"#utility.yul\":10704:10710   */\n      dup2\n        /* \"#utility.yul\":10701:10731   */\n      gt\n        /* \"#utility.yul\":10698:10815   */\n      iszero\n      tag_226\n      jumpi\n        /* \"#utility.yul\":10734:10813   */\n      tag_227\n      tag_89\n      jump\t// in\n    tag_227:\n        /* \"#utility.yul\":10698:10815   */\n    tag_226:\n        /* \"#utility.yul\":10839:10902   */\n      tag_228\n        /* \"#utility.yul\":10894:10901   */\n      dup9\n        /* \"#utility.yul\":10885:10891   */\n      dup3\n        /* \"#utility.yul\":10874:10883   */\n      dup10\n        /* \"#utility.yul\":10870:10892   */\n      add\n        /* \"#utility.yul\":10839:10902   */\n      tag_103\n      jump\t// in\n    tag_228:\n        /* \"#utility.yul\":10829:10902   */\n      swap5\n      pop\n        /* \"#utility.yul\":10624:10912   */\n      pop\n        /* \"#utility.yul\":10951:10953   */\n      0x40\n        /* \"#utility.yul\":10977:11029   */\n      tag_229\n        /* \"#utility.yul\":11021:11028   */\n      dup9\n        /* \"#utility.yul\":11012:11018   */\n      dup3\n        /* \"#utility.yul\":11001:11010   */\n      dup10\n        /* \"#utility.yul\":10997:11019   */\n      add\n        /* \"#utility.yul\":10977:11029   */\n      tag_105\n      jump\t// in\n    tag_229:\n        /* \"#utility.yul\":10967:11029   */\n      swap4\n      pop\n        /* \"#utility.yul\":10922:11039   */\n      pop\n        /* \"#utility.yul\":11106:11108   */\n      0x60\n        /* \"#utility.yul\":11095:11104   */\n      dup7\n        /* \"#utility.yul\":11091:11109   */\n      add\n        /* \"#utility.yul\":11078:11110   */\n      calldataload\n        /* \"#utility.yul\":11137:11155   */\n      0xffffffffffffffff\n        /* \"#utility.yul\":11129:11135   */\n      dup2\n        /* \"#utility.yul\":11126:11156   */\n      gt\n        /* \"#utility.yul\":11123:11240   */\n      iszero\n      tag_230\n      jumpi\n        /* \"#utility.yul\":11159:11238   */\n      tag_231\n      tag_89\n      jump\t// in\n    tag_231:\n        /* \"#utility.yul\":11123:11240   */\n    tag_230:\n        /* \"#utility.yul\":11264:11327   */\n      tag_232\n        /* \"#utility.yul\":11319:11326   */\n      dup9\n        /* \"#utility.yul\":11310:11316   */\n      dup3\n        /* \"#utility.yul\":11299:11308   */\n      dup10\n        /* \"#utility.yul\":11295:11317   */\n      add\n        /* \"#utility.yul\":11264:11327   */\n      tag_103\n      jump\t// in\n    tag_232:\n        /* \"#utility.yul\":11254:11327   */\n      swap3\n      pop\n        /* \"#utility.yul\":11049:11337   */\n      pop\n        /* \"#utility.yul\":11404:11407   */\n      0x80\n        /* \"#utility.yul\":11393:11402   */\n      dup7\n        /* \"#utility.yul\":11389:11408   */\n      add\n        /* \"#utility.yul\":11376:11409   */\n      calldataload\n        /* \"#utility.yul\":11436:11454   */\n      0xffffffffffffffff\n        /* \"#utility.yul\":11428:11434   */\n      dup2\n        /* \"#utility.yul\":11425:11455   */\n      gt\n        /* \"#utility.yul\":11422:11539   */\n      iszero\n      tag_233\n      jumpi\n        /* \"#utility.yul\":11458:11537   */\n      tag_234\n      tag_89\n      jump\t// in\n    tag_234:\n        /* \"#utility.yul\":11422:11539   */\n    tag_233:\n        /* \"#utility.yul\":11563:11626   */\n      tag_235\n        /* \"#utility.yul\":11618:11625   */\n      dup9\n        /* \"#utility.yul\":11609:11615   */\n      dup3\n        /* \"#utility.yul\":11598:11607   */\n      dup10\n        /* \"#utility.yul\":11594:11616   */\n      add\n        /* \"#utility.yul\":11563:11626   */\n      tag_103\n      jump\t// in\n    tag_235:\n        /* \"#utility.yul\":11553:11626   */\n      swap2\n      pop\n        /* \"#utility.yul\":11347:11636   */\n      pop\n        /* \"#utility.yul\":10014:11643   */\n      swap3\n      swap6\n      pop\n      swap3\n      swap6\n      swap1\n      swap4\n      pop\n      jump\t// out\n        /* \"#utility.yul\":11649:11829   */\n    tag_106:\n        /* \"#utility.yul\":11697:11774   */\n      0x4e487b7100000000000000000000000000000000000000000000000000000000\n        /* \"#utility.yul\":11694:11695   */\n      0x00\n        /* \"#utility.yul\":11687:11775   */\n      mstore\n        /* \"#utility.yul\":11794:11798   */\n      0x22\n        /* \"#utility.yul\":11791:11792   */\n      0x04\n        /* \"#utility.yul\":11784:11799   */\n      mstore\n        /* \"#utility.yul\":11818:11822   */\n      0x24\n        /* \"#utility.yul\":11815:11816   */\n      0x00\n        /* \"#utility.yul\":11808:11823   */\n      revert\n        /* \"#utility.yul\":11835:12155   */\n    tag_30:\n        /* \"#utility.yul\":11879:11885   */\n      0x00\n        /* \"#utility.yul\":11916:11917   */\n      0x02\n        /* \"#utility.yul\":11910:11914   */\n      dup3\n        /* \"#utility.yul\":11906:11918   */\n      div\n        /* \"#utility.yul\":11896:11918   */\n      swap1\n      pop\n        /* \"#utility.yul\":11963:11964   */\n      0x01\n        /* \"#utility.yul\":11957:11961   */\n      dup3\n        /* \"#utility.yul\":11953:11965   */\n      and\n        /* \"#utility.yul\":11984:12002   */\n      dup1\n        /* \"#utility.yul\":11974:12055   */\n      tag_238\n      jumpi\n        /* \"#utility.yul\":12040:12044   */\n      0x7f\n        /* \"#utility.yul\":12032:12038   */\n      dup3\n        /* \"#utility.yul\":12028:12045   */\n      and\n        /* \"#utility.yul\":12018:12045   */\n      swap2\n      pop\n        /* \"#utility.yul\":11974:12055   */\n    tag_238:\n        /* \"#utility.yul\":12102:12104   */\n      0x20\n        /* \"#utility.yul\":12094:12100   */\n      dup3\n        /* \"#utility.yul\":12091:12105   */\n      lt\n        /* \"#utility.yul\":12071:12089   */\n      dup2\n        /* \"#utility.yul\":12068:12106   */\n      sub\n        /* \"#utility.yul\":12065:12149   */\n      tag_239\n      jumpi\n        /* \"#utility.yul\":12121:12139   */\n      tag_240\n      tag_106\n      jump\t// in\n    tag_240:\n        /* \"#utility.yul\":12065:12149   */\n    tag_239:\n        /* \"#utility.yul\":11886:12155   */\n      pop\n        /* \"#utility.yul\":11835:12155   */\n      swap2\n      swap1\n      pop\n      jump\t// out\n        /* \"#utility.yul\":12161:12302   */\n    tag_107:\n        /* \"#utility.yul\":12210:12214   */\n      0x00\n        /* \"#utility.yul\":12233:12236   */\n      dup2\n        /* \"#utility.yul\":12225:12236   */\n      swap1\n      pop\n        /* \"#utility.yul\":12256:12259   */\n      dup2\n        /* \"#utility.yul\":12253:12254   */\n      0x00\n        /* \"#utility.yul\":12246:12260   */\n      mstore\n        /* \"#utility.yul\":12290:12294   */\n      0x20\n        /* \"#utility.yul\":12287:12288   */\n      0x00\n        /* \"#utility.yul\":12277:12295   */\n      keccak256\n        /* \"#utility.yul\":12269:12295   */\n      swap1\n      pop\n        /* \"#utility.yul\":12161:12302   */\n      swap2\n      swap1\n      pop\n      jump\t// out\n        /* \"#utility.yul\":12308:12401   */\n    tag_108:\n        /* \"#utility.yul\":12345:12351   */\n      0x00\n        /* \"#utility.yul\":12392:12394   */\n      0x20\n        /* \"#utility.yul\":12387:12389   */\n      0x1f\n        /* \"#utility.yul\":12380:12385   */\n      dup4\n        /* \"#utility.yul\":12376:12390   */\n      add\n        /* \"#utility.yul\":12372:12395   */\n      div\n        /* \"#utility.yul\":12362:12395   */\n      swap1\n      pop\n        /* \"#utility.yul\":12308:12401   */\n      swap2\n      swap1\n      pop\n      jump\t// out\n        /* \"#utility.yul\":12407:12514   */\n    tag_109:\n        /* \"#utility.yul\":12451:12459   */\n      0x00\n        /* \"#utility.yul\":12501:12506   */\n      dup3\n        /* \"#utility.yul\":12495:12499   */\n      dup3\n        /* \"#utility.yul\":12491:12507   */\n      shl\n        /* \"#utility.yul\":12470:12507   */\n      swap1\n      pop\n        /* \"#utility.yul\":12407:12514   */\n      swap3\n      swap2\n      pop\n      pop\n      jump\t// out\n        /* \"#utility.yul\":12520:12913   */\n    tag_110:\n        /* \"#utility.yul\":12589:12595   */\n      0x00\n        /* \"#utility.yul\":12639:12640   */\n      0x08\n        /* \"#utility.yul\":12627:12637   */\n      dup4\n        /* \"#utility.yul\":12623:12641   */\n      mul\n        /* \"#utility.yul\":12662:12759   */\n      tag_245\n        /* \"#utility.yul\":12692:12758   */\n      0xffffffffffffffffffffffffffffffffffffffffffffffffffffffffffffffff\n        /* \"#utility.yul\":12681:12690   */\n      dup3\n        /* \"#utility.yul\":12662:12759   */\n      tag_109\n      jump\t// in\n    tag_245:\n        /* \"#utility.yul\":12780:12819   */\n      tag_246\n        /* \"#utility.yul\":12810:12818   */\n      dup7\n        /* \"#utility.yul\":12799:12808   */\n      dup4\n        /* \"#utility.yul\":12780:12819   */\n      tag_109\n      jump\t// in\n    tag_246:\n        /* \"#utility.yul\":12768:12819   */\n      swap6\n      pop\n        /* \"#utility.yul\":12852:12856   */\n      dup1\n        /* \"#utility.yul\":12848:12857   */\n      not\n        /* \"#utility.yul\":12841:12846   */\n      dup5\n        /* \"#utility.yul\":12837:12858   */\n      and\n        /* \"#utility.yul\":12828:12858   */\n      swap4\n      pop\n        /* \"#utility.yul\":12901:12905   */\n      dup1\n        /* \"#utility.yul\":12891:12899   */\n      dup7\n        /* \"#utility.yul\":12887:12906   */\n      and\n        /* \"#utility.yul\":12880:12885   */\n      dup5\n        /* \"#utility.yul\":12877:12907   */\n      or\n        /* \"#utility.yul\":12867:12907   */\n      swap3\n      pop\n        /* \"#utility.yul\":12596:12913   */\n      pop\n      pop\n        /* \"#utility.yul\":12520:12913   */\n      swap4\n      swap3\n      pop\n      pop\n      pop\n      jump\t// out\n        /* \"#utility.yul\":12919:12979   */\n    tag_111:\n        /* \"#utility.yul\":12947:12950   */\n      0x00\n        /* \"#utility.yul\":12968:12973   */\n      dup2\n        /* \"#utility.yul\":12961:12973   */\n      swap1\n      pop\n        /* \"#utility.yul\":12919:12979   */\n      swap2\n      swap1\n      pop\n      jump\t// out\n        /* \"#utility.yul\":12985:13127   */\n    tag_112:\n        /* \"#utility.yul\":13035:13044   */\n      0x00\n        /* \"#utility.yul\":13068:13121   */\n      tag_249\n        /* \"#utility.yul\":13086:13120   */\n      tag_250\n        /* \"#utility.yul\":13095:13119   */\n      tag_251\n        /* \"#utility.yul\":13113:13118   */\n      dup5\n        /* \"#utility.yul\":13095:13119   */\n      tag_85\n      jump\t// in\n    tag_251:\n        /* \"#utility.yul\":13086:13120   */\n      tag_111\n      jump\t// in\n    tag_250:\n        /* \"#utility.yul\":13068:13121   */\n      tag_85\n      jump\t// in\n    tag_249:\n        /* \"#utility.yul\":13055:13121   */\n      swap1\n      pop\n        /* \"#utility.yul\":12985:13127   */\n      swap2\n      swap1\n      pop\n      jump\t// out\n        /* \"#utility.yul\":13133:13208   */\n    tag_113:\n        /* \"#utility.yul\":13176:13179   */\n      0x00\n        /* \"#utility.yul\":13197:13202   */\n      dup2\n        /* \"#utility.yul\":13190:13202   */\n      swap1\n      pop\n        /* \"#utility.yul\":13133:13208   */\n      swap2\n      swap1\n      pop\n      jump\t// out\n        /* \"#utility.yul\":13214:13483   */\n    tag_114:\n        /* \"#utility.yul\":13324:13363   */\n      tag_254\n        /* \"#utility.yul\":13355:13362   */\n      dup4\n        /* \"#utility.yul\":13324:13363   */\n      tag_112\n      jump\t// in\n    tag_254:\n        /* \"#utility.yul\":13385:13476   */\n      tag_255\n        /* \"#utility.yul\":13434:13475   */\n      tag_256\n        /* \"#utility.yul\":13458:13474   */\n      dup3\n        /* \"#utility.yul\":13434:13475   */\n      tag_113\n      jump\t// in\n    tag_256:\n        /* \"#utility.yul\":13426:13432   */\n      dup5\n        /* \"#utility.yul\":13419:13423   */\n      dup5\n        /* \"#utility.yul\":13413:13424   */\n      sload\n        /* \"#utility.yul\":13385:13476   */\n      tag_110\n      jump\t// in\n    tag_255:\n        /* \"#utility.yul\":13379:13383   */\n      dup3\n        /* \"#utility.yul\":13372:13477   */\n      sstore\n        /* \"#utility.yul\":13290:13483   */\n      pop\n        /* \"#utility.yul\":13214:13483   */\n      pop\n      pop\n      pop\n      jump\t// out\n        /* \"#utility.yul\":13489:13562   */\n    tag_115:\n        /* \"#utility.yul\":13534:13537   */\n      0x00\n        /* \"#utility.yul\":13489:13562   */\n      swap1\n      jump\t// out\n        /* \"#utility.yul\":13568:13757   */\n    tag_116:\n        /* \"#utility.yul\":13645:13677   */\n      tag_259\n      tag_115\n      jump\t// in\n    tag_259:\n        /* \"#utility.yul\":13686:13751   */\n      tag_260\n        /* \"#utility.yul\":13744:13750   */\n      dup2\n        /* \"#utility.yul\":13736:13742   */\n      dup5\n        /* \"#utility.yul\":13730:13734   */\n      dup5\n        /* \"#utility.yul\":13686:13751   */\n      tag_114\n      jump\t// in\n    tag_260:\n        /* \"#utility.yul\":13621:13757   */\n      pop\n        /* \"#utility.yul\":13568:13757   */\n      pop\n      pop\n      jump\t// out\n        /* \"#utility.yul\":13763:13949   */\n    tag_117:\n        /* \"#utility.yul\":13823:13943   */\n    tag_262:\n        /* \"#utility.yul\":13840:13843   */\n      dup2\n        /* \"#utility.yul\":13833:13838   */\n      dup2\n        /* \"#utility.yul\":13830:13844   */\n      lt\n        /* \"#utility.yul\":13823:13943   */\n      iszero\n      tag_264\n      jumpi\n        /* \"#utility.yul\":13894:13933   */\n      tag_265\n        /* \"#utility.yul\":13931:13932   */\n      0x00\n        /* \"#utility.yul\":13924:13929   */\n      dup3\n        /* \"#utility.yul\":13894:13933   */\n      tag_116\n      jump\t// in\n    tag_265:\n        /* \"#utility.yul\":13867:13868   */\n      0x01\n        /* \"#utility.yul\":13860:13865   */\n      dup2\n        /* \"#utility.yul\":13856:13869   */\n      add\n        /* \"#utility.yul\":13847:13869   */\n      swap1\n      pop\n        /* \"#utility.yul\":13823:13943   */\n      jump(tag_262)\n    tag_264:\n        /* \"#utility.yul\":13763:13949   */\n      pop\n      pop\n      jump\t// out\n        /* \"#utility.yul\":13955:14498   */\n    tag_118:\n        /* \"#utility.yul\":14056:14058   */\n      0x1f\n        /* \"#utility.yul\":14051:14054   */\n      dup3\n        /* \"#utility.yul\":14048:14059   */\n      gt\n        /* \"#utility.yul\":14045:14491   */\n      iszero\n      tag_267\n      jumpi\n        /* \"#utility.yul\":14090:14128   */\n      tag_268\n        /* \"#utility.yul\":14122:14127   */\n      dup2\n        /* \"#utility.yul\":14090:14128   */\n      tag_107\n      jump\t// in\n    tag_268:\n        /* \"#utility.yul\":14174:14203   */\n      tag_269\n        /* \"#utility.yul\":14192:14202   */\n      dup5\n        /* \"#utility.yul\":14174:14203   */\n      tag_108\n      jump\t// in\n    tag_269:\n        /* \"#utility.yul\":14164:14172   */\n      dup2\n        /* \"#utility.yul\":14160:14204   */\n      add\n        /* \"#utility.yul\":14357:14359   */\n      0x20\n        /* \"#utility.yul\":14345:14355   */\n      dup6\n        /* \"#utility.yul\":14342:14360   */\n      lt\n        /* \"#utility.yul\":14339:14388   */\n      iszero\n      tag_270\n      jumpi\n        /* \"#utility.yul\":14378:14386   */\n      dup2\n        /* \"#utility.yul\":14363:14386   */\n      swap1\n      pop\n        /* \"#utility.yul\":14339:14388   */\n    tag_270:\n        /* \"#utility.yul\":14401:14481   */\n      tag_271\n        /* \"#utility.yul\":14457:14479   */\n      tag_272\n        /* \"#utility.yul\":14475:14478   */\n      dup6\n        /* \"#utility.yul\":14457:14479   */\n      tag_108\n      jump\t// in\n    tag_272:\n        /* \"#utility.yul\":14447:14455   */\n      dup4\n        /* \"#utility.yul\":14443:14480   */\n      add\n        /* \"#utility.yul\":14430:14441   */\n      dup3\n        /* \"#utility.yul\":14401:14481   */\n      tag_117\n      jump\t// in\n    tag_271:\n        /* \"#utility.yul\":14060:14491   */\n      pop\n      pop\n        /* \"#utility.yul\":14045:14491   */\n    tag_267:\n        /* \"#utility.yul\":13955:14498   */\n      pop\n      pop\n      pop\n      jump\t// out\n        /* \"#utility.yul\":14504:14621   */\n    tag_119:\n        /* \"#utility.yul\":14558:14566   */\n      0x00\n        /* \"#utility.yul\":14608:14613   */\n      dup3\n        /* \"#utility.yul\":14602:14606   */\n      dup3\n        /* \"#utility.yul\":14598:14614   */\n      shr\n        /* \"#utility.yul\":14577:14614   */\n      swap1\n      pop\n        /* \"#utility.yul\":14504:14621   */\n      swap3\n      swap2\n      pop\n      pop\n      jump\t// out\n        /* \"#utility.yul\":14627:14796   */\n    tag_120:\n        /* \"#utility.yul\":14671:14677   */\n      0x00\n        /* \"#utility.yul\":14704:14755   */\n      tag_275\n        /* \"#utility.yul\":14752:14753   */\n      0x00\n        /* \"#utility.yul\":14748:14754   */\n      not\n        /* \"#utility.yul\":14740:14745   */\n      dup5\n        /* \"#utility.yul\":14737:14738   */\n      0x08\n        /* \"#utility.yul\":14733:14746   */\n      mul\n        /* \"#utility.yul\":14704:14755   */\n      tag_119\n      jump\t// in\n    tag_275:\n        /* \"#utility.yul\":14700:14756   */\n      not\n        /* \"#utility.yul\":14785:14789   */\n      dup1\n        /* \"#utility.yul\":14779:14783   */\n      dup4\n        /* \"#utility.yul\":14775:14790   */\n      and\n        /* \"#utility.yul\":14765:14790   */\n      swap2\n      pop\n        /* \"#utility.yul\":14678:14796   */\n      pop\n        /* \"#utility.yul\":14627:14796   */\n      swap3\n      swap2\n      pop\n      pop\n      jump\t// out\n        /* \"#utility.yul\":14801:15096   */\n    tag_121:\n        /* \"#utility.yul\":14877:14881   */\n      0x00\n        /* \"#utility.yul\":15023:15052   */\n      tag_277\n        /* \"#utility.yul\":15048:15051   */\n      dup4\n        /* \"#utility.yul\":15042:15046   */\n      dup4\n        /* \"#utility.yul\":15023:15052   */\n      tag_120\n      jump\t// in\n    tag_277:\n        /* \"#utility.yul\":15015:15052   */\n      swap2\n      pop\n        /* \"#utility.yul\":15085:15088   */\n      dup3\n        /* \"#utility.yul\":15082:15083   */\n      0x02\n        /* \"#utility.yul\":15078:15089   */\n      mul\n        /* \"#utility.yul\":15072:15076   */\n      dup3\n        /* \"#utility.yul\":15069:15090   */\n      or\n        /* \"#utility.yul\":15061:15090   */\n      swap1\n      pop\n        /* \"#utility.yul\":14801:15096   */\n      swap3\n      swap2\n      pop\n      pop\n      jump\t// out\n        /* \"#utility.yul\":15101:16496   */\n    tag_68:\n        /* \"#utility.yul\":15218:15255   */\n      tag_279\n        /* \"#utility.yul\":15251:15254   */\n      dup3\n        /* \"#utility.yul\":15218:15255   */\n      tag_74\n      jump\t// in\n    tag_279:\n        /* \"#utility.yul\":15320:15338   */\n      0xffffffffffffffff\n        /* \"#utility.yul\":15312:15318   */\n      dup2\n        /* \"#utility.yul\":15309:15339   */\n      gt\n        /* \"#utility.yul\":15306:15362   */\n      iszero\n      tag_280\n      jumpi\n        /* \"#utility.yul\":15342:15360   */\n      tag_281\n      tag_97\n      jump\t// in\n    tag_281:\n        /* \"#utility.yul\":15306:15362   */\n    tag_280:\n        /* \"#utility.yul\":15386:15424   */\n      tag_282\n        /* \"#utility.yul\":15418:15422   */\n      dup3\n        /* \"#utility.yul\":15412:15423   */\n      sload\n        /* \"#utility.yul\":15386:15424   */\n      tag_30\n      jump\t// in\n    tag_282:\n        /* \"#utility.yul\":15471:15538   */\n      tag_283\n        /* \"#utility.yul\":15531:15537   */\n      dup3\n        /* \"#utility.yul\":15523:15529   */\n      dup3\n        /* \"#utility.yul\":15517:15521   */\n      dup6\n        /* \"#utility.yul\":15471:15538   */\n      tag_118\n      jump\t// in\n    tag_283:\n        /* \"#utility.yul\":15565:15566   */\n      0x00\n        /* \"#utility.yul\":15589:15593   */\n      0x20\n        /* \"#utility.yul\":15576:15593   */\n      swap1\n      pop\n        /* \"#utility.yul\":15621:15623   */\n      0x1f\n        /* \"#utility.yul\":15613:15619   */\n      dup4\n        /* \"#utility.yul\":15610:15624   */\n      gt\n        /* \"#utility.yul\":15638:15639   */\n      0x01\n        /* \"#utility.yul\":15633:16251   */\n      dup2\n      eq\n      tag_285\n      jumpi\n        /* \"#utility.yul\":16295:16296   */\n      0x00\n        /* \"#utility.yul\":16312:16318   */\n      dup5\n        /* \"#utility.yul\":16309:16386   */\n      iszero\n      tag_286\n      jumpi\n        /* \"#utility.yul\":16361:16370   */\n      dup3\n        /* \"#utility.yul\":16356:16359   */\n      dup8\n        /* \"#utility.yul\":16352:16371   */\n      add\n        /* \"#utility.yul\":16346:16372   */\n      mload\n        /* \"#utility.yul\":16337:16372   */\n      swap1\n      pop\n        /* \"#utility.yul\":16309:16386   */\n    tag_286:\n        /* \"#utility.yul\":16412:16479   */\n      tag_287\n        /* \"#utility.yul\":16472:16478   */\n      dup6\n        /* \"#utility.yul\":16465:16470   */\n      dup3\n        /* \"#utility.yul\":16412:16479   */\n      tag_121\n      jump\t// in\n    tag_287:\n        /* \"#utility.yul\":16406:16410   */\n      dup7\n        /* \"#utility.yul\":16399:16480   */\n      sstore\n        /* \"#utility.yul\":16268:16490   */\n      pop\n        /* \"#utility.yul\":15603:16490   */\n      jump(tag_284)\n        /* \"#utility.yul\":15633:16251   */\n    tag_285:\n        /* \"#utility.yul\":15685:15689   */\n      0x1f\n        /* \"#utility.yul\":15681:15690   */\n      not\n        /* \"#utility.yul\":15673:15679   */\n      dup5\n        /* \"#utility.yul\":15669:15691   */\n      and\n        /* \"#utility.yul\":15719:15756   */\n      tag_288\n        /* \"#utility.yul\":15751:15755   */\n      dup7\n        /* \"#utility.yul\":15719:15756   */\n      tag_107\n      jump\t// in\n    tag_288:\n        /* \"#utility.yul\":15778:15779   */\n      0x00\n        /* \"#utility.yul\":15792:16000   */\n    tag_289:\n        /* \"#utility.yul\":15806:15813   */\n      dup3\n        /* \"#utility.yul\":15803:15804   */\n      dup2\n        /* \"#utility.yul\":15800:15814   */\n      lt\n        /* \"#utility.yul\":15792:16000   */\n      iszero\n      tag_291\n      jumpi\n        /* \"#utility.yul\":15885:15894   */\n      dup5\n        /* \"#utility.yul\":15880:15883   */\n      dup10\n        /* \"#utility.yul\":15876:15895   */\n      add\n        /* \"#utility.yul\":15870:15896   */\n      mload\n        /* \"#utility.yul\":15862:15868   */\n      dup3\n        /* \"#utility.yul\":15855:15897   */\n      sstore\n        /* \"#utility.yul\":15936:15937   */\n      0x01\n        /* \"#utility.yul\":15928:15934   */\n      dup3\n        /* \"#utility.yul\":15924:15938   */\n      add\n        /* \"#utility.yul\":15914:15938   */\n      swap2\n      pop\n        /* \"#utility.yul\":15983:15985   */\n      0x20\n        /* \"#utility.yul\":15972:15981   */\n      dup6\n        /* \"#utility.yul\":15968:15986   */\n      add\n        /* \"#utility.yul\":15955:15986   */\n      swap5\n      pop\n        /* \"#utility.yul\":15829:15833   */\n      0x20\n        /* \"#utility.yul\":15826:15827   */\n      dup2\n        /* \"#utility.yul\":15822:15834   */\n      add\n        /* \"#utility.yul\":15817:15834   */\n      swap1\n      pop\n        /* \"#utility.yul\":15792:16000   */\n      jump(tag_289)\n    tag_291:\n        /* \"#utility.yul\":16028:16034   */\n      dup7\n        /* \"#utility.yul\":16019:16026   */\n      dup4\n        /* \"#utility.yul\":16016:16035   */\n      lt\n        /* \"#utility.yul\":16013:16192   */\n      iszero\n      tag_292\n      jumpi\n        /* \"#utility.yul\":16086:16095   */\n      dup5\n        /* \"#utility.yul\":16081:16084   */\n      dup10\n        /* \"#utility.yul\":16077:16096   */\n      add\n        /* \"#utility.yul\":16071:16097   */\n      mload\n        /* \"#utility.yul\":16129:16177   */\n      tag_293\n        /* \"#utility.yul\":16171:16175   */\n      0x1f\n        /* \"#utility.yul\":16163:16169   */\n      dup10\n        /* \"#utility.yul\":16159:16176   */\n      and\n        /* \"#utility.yul\":16148:16157   */\n      dup3\n        /* \"#utility.yul\":16129:16177   */\n      tag_120\n      jump\t// in\n    tag_293:\n        /* \"#utility.yul\":16121:16127   */\n      dup4\n        /* \"#utility.yul\":16114:16178   */\n      sstore\n        /* \"#utility.yul\":16036:16192   */\n      pop\n        /* \"#utility.yul\":16013:16192   */\n    tag_292:\n        /* \"#utility.yul\":16238:16239   */\n      0x01\n        /* \"#utility.yul\":16234:16235   */\n      0x02\n        /* \"#utility.yul\":16226:16232   */\n      dup9\n        /* \"#utility.yul\":16222:16236   */\n      mul\n        /* \"#utility.yul\":16218:16240   */\n      add\n        /* \"#utility.yul\":16212:16216   */\n      dup9\n        /* \"#utility.yul\":16205:16241   */\n      sstore\n        /* \"#utility.yul\":15640:16251   */\n      pop\n      pop\n      pop\n        /* \"#utility.yul\":15603:16490   */\n    tag_284:\n      pop\n        /* \"#utility.yul\":15193:16496   */\n      pop\n      pop\n      pop\n        /* \"#utility.yul\":15101:16496   */\n      pop\n      pop\n      jump\t// out\n\n    auxdata: 0xa2646970667358221220d8401a59af7a89820445b6d1bf2a83c29554c93c2277a5cd8f267590f1e085c964736f6c63430008120033\n}\n",
				"bytecode": {
					"linkReferences": {},
					"object": "6080604052600060015534801561001557600080fd5b50610e68806100256000396000f3fe608060405234801561001057600080fd5b506004361061004c5760003560e01c80634d3953071461005157806356d88e271461006f57806371e5ee5f1461008d5780637b16ea6b146100c0575b600080fd5b6100596100dc565b6040516100669190610792565b60405180910390f35b6100776102fb565b60405161008491906107cd565b60405180910390f35b6100a760048036038101906100a29190610828565b610307565b6040516100b794939291906108ae565b60405180910390f35b6100da60048036038101906100d59190610a69565b6104df565b005b60606000805480602002602001604051908101604052809291908181526020016000905b828210156102f2578382906000526020600020906004020160405180608001604052908160008201805461013390610b83565b80601f016020809104026020016040519081016040528092919081815260200182805461015f90610b83565b80156101ac5780601f10610181576101008083540402835291602001916101ac565b820191906000526020600020905b81548152906001019060200180831161018f57829003601f168201915b505050505081526020016001820180546101c590610b83565b80601f01602080910402602001604051908101604052809291908181526020018280546101f190610b83565b801561023e5780601f106102135761010080835404028352916020019161023e565b820191906000526020600020905b81548152906001019060200180831161022157829003601f168201915b505050505081526020016002820154815260200160038201805461026190610b83565b80601f016020809104026020016040519081016040528092919081815260200182805461028d90610b83565b80156102da5780601f106102af576101008083540402835291602001916102da565b820191906000526020600020905b8154815290600101906020018083116102bd57829003601f168201915b50505050508152505081526020019060010190610100565b50505050905090565b60008080549050905090565b6000818154811061031757600080fd5b906000526020600020906004020160009150905080600001805461033a90610b83565b80601f016020809104026020016040519081016040528092919081815260200182805461036690610b83565b80156103b35780601f10610388576101008083540402835291602001916103b3565b820191906000526020600020905b81548152906001019060200180831161039657829003601f168201915b5050505050908060010180546103c890610b83565b80601f01602080910402602001604051908101604052809291908181526020018280546103f490610b83565b80156104415780601f1061041657610100808354040283529160200191610441565b820191906000526020600020905b81548152906001019060200180831161042457829003601f168201915b50505050509080600201549080600301805461045c90610b83565b80601f016020809104026020016040519081016040528092919081815260200182805461048890610b83565b80156104d55780601f106104aa576101008083540402835291602001916104d5565b820191906000526020600020905b8154815290600101906020018083116104b857829003601f168201915b5050505050905084565b6104e761058e565b858160000181905250848160200181905250838160400181815250508281606001819052506000819080600181540180825580915050600190039060005260206000209060040201600090919091909150600082015181600001908161054d9190610d60565b5060208201518160010190816105639190610d60565b506040820151816002015560608201518160030190816105839190610d60565b505050505050505050565b6040518060800160405280606081526020016060815260200160008152602001606081525090565b600081519050919050565b600082825260208201905092915050565b6000819050602082019050919050565b600081519050919050565b600082825260208201905092915050565b60005b8381101561061c578082015181840152602081019050610601565b60008484015250505050565b6000601f19601f8301169050919050565b6000610644826105e2565b61064e81856105ed565b935061065e8185602086016105fe565b61066781610628565b840191505092915050565b6000819050919050565b61068581610672565b82525050565b600060808301600083015184820360008601526106a88282610639565b915050602083015184820360208601526106c28282610639565b91505060408301516106d7604086018261067c565b50606083015184820360608601526106ef8282610639565b9150508091505092915050565b6000610708838361068b565b905092915050565b6000602082019050919050565b6000610728826105b6565b61073281856105c1565b935083602082028501610744856105d2565b8060005b85811015610780578484038952815161076185826106fc565b945061076c83610710565b925060208a01995050600181019050610748565b50829750879550505050505092915050565b600060208201905081810360008301526107ac818461071d565b905092915050565b6000819050919050565b6107c7816107b4565b82525050565b60006020820190506107e260008301846107be565b92915050565b6000604051905090565b600080fd5b600080fd5b610805816107b4565b811461081057600080fd5b50565b600081359050610822816107fc565b92915050565b60006020828403121561083e5761083d6107f2565b5b600061084c84828501610813565b91505092915050565b600082825260208201905092915050565b6000610871826105e2565b61087b8185610855565b935061088b8185602086016105fe565b61089481610628565b840191505092915050565b6108a881610672565b82525050565b600060808201905081810360008301526108c88187610866565b905081810360208301526108dc8186610866565b90506108eb604083018561089f565b81810360608301526108fd8184610866565b905095945050505050565b600080fd5b600080fd5b7f4e487b7100000000000000000000000000000000000000000000000000000000600052604160045260246000fd5b61094a82610628565b810181811067ffffffffffffffff8211171561096957610968610912565b5b80604052505050565b600061097c6107e8565b90506109888282610941565b919050565b600067ffffffffffffffff8211156109a8576109a7610912565b5b6109b182610628565b9050602081019050919050565b82818337600083830152505050565b60006109e06109db8461098d565b610972565b9050828152602081018484840111156109fc576109fb61090d565b5b610a078482856109be565b509392505050565b600082601f830112610a2457610a23610908565b5b8135610a348482602086016109cd565b91505092915050565b610a4681610672565b8114610a5157600080fd5b50565b600081359050610a6381610a3d565b92915050565b600080600080600060a08688031215610a8557610a846107f2565b5b600086013567ffffffffffffffff811115610aa357610aa26107f7565b5b610aaf88828901610a0f565b955050602086013567ffffffffffffffff811115610ad057610acf6107f7565b5b610adc88828901610a0f565b9450506040610aed88828901610a54565b935050606086013567ffffffffffffffff811115610b0e57610b0d6107f7565b5b610b1a88828901610a0f565b925050608086013567ffffffffffffffff811115610b3b57610b3a6107f7565b5b610b4788828901610a0f565b9150509295509295909350565b7f4e487b7100000000000000000000000000000000000000000000000000000000600052602260045260246000fd5b60006002820490506001821680610b9b57607f821691505b602082108103610bae57610bad610b54565b5b50919050565b60008190508160005260206000209050919050565b60006020601f8301049050919050565b600082821b905092915050565b600060088302610c167fffffffffffffffffffffffffffffffffffffffffffffffffffffffffffffffff82610bd9565b610c208683610bd9565b95508019841693508086168417925050509392505050565b6000819050919050565b6000610c5d610c58610c53846107b4565b610c38565b6107b4565b9050919050565b6000819050919050565b610c7783610c42565b610c8b610c8382610c64565b848454610be6565b825550505050565b600090565b610ca0610c93565b610cab818484610c6e565b505050565b5b81811015610ccf57610cc4600082610c98565b600181019050610cb1565b5050565b601f821115610d1457610ce581610bb4565b610cee84610bc9565b81016020851015610cfd578190505b610d11610d0985610bc9565b830182610cb0565b50505b505050565b600082821c905092915050565b6000610d3760001984600802610d19565b1980831691505092915050565b6000610d508383610d26565b9150826002028217905092915050565b610d69826105e2565b67ffffffffffffffff811115610d8257610d81610912565b5b610d8c8254610b83565b610d97828285610cd3565b600060209050601f831160018114610dca5760008415610db8578287015190505b610dc28582610d44565b865550610e2a565b601f198416610dd886610bb4565b60005b82811015610e0057848901518255600182019150602085019450602081019050610ddb565b86831015610e1d5784890151610e19601f891682610d26565b8355505b6001600288020188555050505b50505050505056fea2646970667358221220d8401a59af7a89820445b6d1bf2a83c29554c93c2277a5cd8f267590f1e085c964736f6c63430008120033",
					"opcodes": "PUSH1 0x80 PUSH1 0x40 MSTORE PUSH1 0x0 PUSH1 0x1 SSTORE CALLVALUE DUP1 ISZERO PUSH2 0x15 JUMPI PUSH1 0x0 DUP1 REVERT JUMPDEST POP PUSH2 0xE68 DUP1 PUSH2 0x25 PUSH1 0x0 CODECOPY PUSH1 0x0 RETURN INVALID PUSH1 0x80 PUSH1 0x40 MSTORE CALLVALUE DUP1 ISZERO PUSH2 0x10 JUMPI PUSH1 0x0 DUP1 REVERT JUMPDEST POP PUSH1 0x4 CALLDATASIZE LT PUSH2 0x4C JUMPI PUSH1 0x0 CALLDATALOAD PUSH1 0xE0 SHR DUP1 PUSH4 0x4D395307 EQ PUSH2 0x51 JUMPI DUP1 PUSH4 0x56D88E27 EQ PUSH2 0x6F JUMPI DUP1 PUSH4 0x71E5EE5F EQ PUSH2 0x8D JUMPI DUP1 PUSH4 0x7B16EA6B EQ PUSH2 0xC0 JUMPI JUMPDEST PUSH1 0x0 DUP1 REVERT JUMPDEST PUSH2 0x59 PUSH2 0xDC JUMP JUMPDEST PUSH1 0x40 MLOAD PUSH2 0x66 SWAP2 SWAP1 PUSH2 0x792 JUMP JUMPDEST PUSH1 0x40 MLOAD DUP1 SWAP2 SUB SWAP1 RETURN JUMPDEST PUSH2 0x77 PUSH2 0x2FB JUMP JUMPDEST PUSH1 0x40 MLOAD PUSH2 0x84 SWAP2 SWAP1 PUSH2 0x7CD JUMP JUMPDEST PUSH1 0x40 MLOAD DUP1 SWAP2 SUB SWAP1 RETURN JUMPDEST PUSH2 0xA7 PUSH1 0x4 DUP1 CALLDATASIZE SUB DUP2 ADD SWAP1 PUSH2 0xA2 SWAP2 SWAP1 PUSH2 0x828 JUMP JUMPDEST PUSH2 0x307 JUMP JUMPDEST PUSH1 0x40 MLOAD PUSH2 0xB7 SWAP5 SWAP4 SWAP3 SWAP2 SWAP1 PUSH2 0x8AE JUMP JUMPDEST PUSH1 0x40 MLOAD DUP1 SWAP2 SUB SWAP1 RETURN JUMPDEST PUSH2 0xDA PUSH1 0x4 DUP1 CALLDATASIZE SUB DUP2 ADD SWAP1 PUSH2 0xD5 SWAP2 SWAP1 PUSH2 0xA69 JUMP JUMPDEST PUSH2 0x4DF JUMP JUMPDEST STOP JUMPDEST PUSH1 0x60 PUSH1 0x0 DUP1 SLOAD DUP1 PUSH1 0x20 MUL PUSH1 0x20 ADD PUSH1 0x40 MLOAD SWAP1 DUP2 ADD PUSH1 0x40 MSTORE DUP1 SWAP3 SWAP2 SWAP1 DUP2 DUP2 MSTORE PUSH1 0x20 ADD PUSH1 0x0 SWAP1 JUMPDEST DUP3 DUP3 LT ISZERO PUSH2 0x2F2 JUMPI DUP4 DUP3 SWAP1 PUSH1 0x0 MSTORE PUSH1 0x20 PUSH1 0x0 KECCAK256 SWAP1 PUSH1 0x4 MUL ADD PUSH1 0x40 MLOAD DUP1 PUSH1 0x80 ADD PUSH1 0x40 MSTORE SWAP1 DUP2 PUSH1 0x0 DUP3 ADD DUP1 SLOAD PUSH2 0x133 SWAP1 PUSH2 0xB83 JUMP JUMPDEST DUP1 PUSH1 0x1F ADD PUSH1 0x20 DUP1 SWAP2 DIV MUL PUSH1 0x20 ADD PUSH1 0x40 MLOAD SWAP1 DUP2 ADD PUSH1 0x40 MSTORE DUP1 SWAP3 SWAP2 SWAP1 DUP2 DUP2 MSTORE PUSH1 0x20 ADD DUP3 DUP1 SLOAD PUSH2 0x15F SWAP1 PUSH2 0xB83 JUMP JUMPDEST DUP1 ISZERO PUSH2 0x1AC JUMPI DUP1 PUSH1 0x1F LT PUSH2 0x181 JUMPI PUSH2 0x100 DUP1 DUP4 SLOAD DIV MUL DUP4 MSTORE SWAP2 PUSH1 0x20 ADD SWAP2 PUSH2 0x1AC JUMP JUMPDEST DUP3 ADD SWAP2 SWAP1 PUSH1 0x0 MSTORE PUSH1 0x20 PUSH1 0x0 KECCAK256 SWAP1 JUMPDEST DUP2 SLOAD DUP2 MSTORE SWAP1 PUSH1 0x1 ADD SWAP1 PUSH1 0x20 ADD DUP1 DUP4 GT PUSH2 0x18F JUMPI DUP3 SWAP1 SUB PUSH1 0x1F AND DUP3 ADD SWAP2 JUMPDEST POP POP POP POP POP DUP2 MSTORE PUSH1 0x20 ADD PUSH1 0x1 DUP3 ADD DUP1 SLOAD PUSH2 0x1C5 SWAP1 PUSH2 0xB83 JUMP JUMPDEST DUP1 PUSH1 0x1F ADD PUSH1 0x20 DUP1 SWAP2 DIV MUL PUSH1 0x20 ADD PUSH1 0x40 MLOAD SWAP1 DUP2 ADD PUSH1 0x40 MSTORE DUP1 SWAP3 SWAP2 SWAP1 DUP2 DUP2 MSTORE PUSH1 0x20 ADD DUP3 DUP1 SLOAD PUSH2 0x1F1 SWAP1 PUSH2 0xB83 JUMP JUMPDEST DUP1 ISZERO PUSH2 0x23E JUMPI DUP1 PUSH1 0x1F LT PUSH2 0x213 JUMPI PUSH2 0x100 DUP1 DUP4 SLOAD DIV MUL DUP4 MSTORE SWAP2 PUSH1 0x20 ADD SWAP2 PUSH2 0x23E JUMP JUMPDEST DUP3 ADD SWAP2 SWAP1 PUSH1 0x0 MSTORE PUSH1 0x20 PUSH1 0x0 KECCAK256 SWAP1 JUMPDEST DUP2 SLOAD DUP2 MSTORE SWAP1 PUSH1 0x1 ADD SWAP1 PUSH1 0x20 ADD DUP1 DUP4 GT PUSH2 0x221 JUMPI DUP3 SWAP1 SUB PUSH1 0x1F AND DUP3 ADD SWAP2 JUMPDEST POP POP POP POP POP DUP2 MSTORE PUSH1 0x20 ADD PUSH1 0x2 DUP3 ADD SLOAD DUP2 MSTORE PUSH1 0x20 ADD PUSH1 0x3 DUP3 ADD DUP1 SLOAD PUSH2 0x261 SWAP1 PUSH2 0xB83 JUMP JUMPDEST DUP1 PUSH1 0x1F ADD PUSH1 0x20 DUP1 SWAP2 DIV MUL PUSH1 0x20 ADD PUSH1 0x40 MLOAD SWAP1 DUP2 ADD PUSH1 0x40 MSTORE DUP1 SWAP3 SWAP2 SWAP1 DUP2 DUP2 MSTORE PUSH1 0x20 ADD DUP3 DUP1 SLOAD PUSH2 0x28D SWAP1 PUSH2 0xB83 JUMP JUMPDEST DUP1 ISZERO PUSH2 0x2DA JUMPI DUP1 PUSH1 0x1F LT PUSH2 0x2AF JUMPI PUSH2 0x100 DUP1 DUP4 SLOAD DIV MUL DUP4 MSTORE SWAP2 PUSH1 0x20 ADD SWAP2 PUSH2 0x2DA JUMP JUMPDEST DUP3 ADD SWAP2 SWAP1 PUSH1 0x0 MSTORE PUSH1 0x20 PUSH1 0x0 KECCAK256 SWAP1 JUMPDEST DUP2 SLOAD DUP2 MSTORE SWAP1 PUSH1 0x1 ADD SWAP1 PUSH1 0x20 ADD DUP1 DUP4 GT PUSH2 0x2BD JUMPI DUP3 SWAP1 SUB PUSH1 0x1F AND DUP3 ADD SWAP2 JUMPDEST POP POP POP POP POP DUP2 MSTORE POP POP DUP2 MSTORE PUSH1 0x20 ADD SWAP1 PUSH1 0x1 ADD SWAP1 PUSH2 0x100 JUMP JUMPDEST POP POP POP POP SWAP1 POP SWAP1 JUMP JUMPDEST PUSH1 0x0 DUP1 DUP1 SLOAD SWAP1 POP SWAP1 POP SWAP1 JUMP JUMPDEST PUSH1 0x0 DUP2 DUP2 SLOAD DUP2 LT PUSH2 0x317 JUMPI PUSH1 0x0 DUP1 REVERT JUMPDEST SWAP1 PUSH1 0x0 MSTORE PUSH1 0x20 PUSH1 0x0 KECCAK256 SWAP1 PUSH1 0x4 MUL ADD PUSH1 0x0 SWAP2 POP SWAP1 POP DUP1 PUSH1 0x0 ADD DUP1 SLOAD PUSH2 0x33A SWAP1 PUSH2 0xB83 JUMP JUMPDEST DUP1 PUSH1 0x1F ADD PUSH1 0x20 DUP1 SWAP2 DIV MUL PUSH1 0x20 ADD PUSH1 0x40 MLOAD SWAP1 DUP2 ADD PUSH1 0x40 MSTORE DUP1 SWAP3 SWAP2 SWAP1 DUP2 DUP2 MSTORE PUSH1 0x20 ADD DUP3 DUP1 SLOAD PUSH2 0x366 SWAP1 PUSH2 0xB83 JUMP JUMPDEST DUP1 ISZERO PUSH2 0x3B3 JUMPI DUP1 PUSH1 0x1F LT PUSH2 0x388 JUMPI PUSH2 0x100 DUP1 DUP4 SLOAD DIV MUL DUP4 MSTORE SWAP2 PUSH1 0x20 ADD SWAP2 PUSH2 0x3B3 JUMP JUMPDEST DUP3 ADD SWAP2 SWAP1 PUSH1 0x0 MSTORE PUSH1 0x20 PUSH1 0x0 KECCAK256 SWAP1 JUMPDEST DUP2 SLOAD DUP2 MSTORE SWAP1 PUSH1 0x1 ADD SWAP1 PUSH1 0x20 ADD DUP1 DUP4 GT PUSH2 0x396 JUMPI DUP3 SWAP1 SUB PUSH1 0x1F AND DUP3 ADD SWAP2 JUMPDEST POP POP POP POP POP SWAP1 DUP1 PUSH1 0x1 ADD DUP1 SLOAD PUSH2 0x3C8 SWAP1 PUSH2 0xB83 JUMP JUMPDEST DUP1 PUSH1 0x1F ADD PUSH1 0x20 DUP1 SWAP2 DIV MUL PUSH1 0x20 ADD PUSH1 0x40 MLOAD SWAP1 DUP2 ADD PUSH1 0x40 MSTORE DUP1 SWAP3 SWAP2 SWAP1 DUP2 DUP2 MSTORE PUSH1 0x20 ADD DUP3 DUP1 SLOAD PUSH2 0x3F4 SWAP1 PUSH2 0xB83 JUMP JUMPDEST DUP1 ISZERO PUSH2 0x441 JUMPI DUP1 PUSH1 0x1F LT PUSH2 0x416 JUMPI PUSH2 0x100 DUP1 DUP4 SLOAD DIV MUL DUP4 MSTORE SWAP2 PUSH1 0x20 ADD SWAP2 PUSH2 0x441 JUMP JUMPDEST DUP3 ADD SWAP2 SWAP1 PUSH1 0x0 MSTORE PUSH1 0x20 PUSH1 0x0 KECCAK256 SWAP1 JUMPDEST DUP2 SLOAD DUP2 MSTORE SWAP1 PUSH1 0x1 ADD SWAP1 PUSH1 0x20 ADD DUP1 DUP4 GT PUSH2 0x424 JUMPI DUP3 SWAP1 SUB PUSH1 0x1F AND DUP3 ADD SWAP2 JUMPDEST POP POP POP POP POP SWAP1 DUP1 PUSH1 0x2 ADD SLOAD SWAP1 DUP1 PUSH1 0x3 ADD DUP1 SLOAD PUSH2 0x45C SWAP1 PUSH2 0xB83 JUMP JUMPDEST DUP1 PUSH1 0x1F ADD PUSH1 0x20 DUP1 SWAP2 DIV MUL PUSH1 0x20 ADD PUSH1 0x40 MLOAD SWAP1 DUP2 ADD PUSH1 0x40 MSTORE DUP1 SWAP3 SWAP2 SWAP1 DUP2 DUP2 MSTORE PUSH1 0x20 ADD DUP3 DUP1 SLOAD PUSH2 0x488 SWAP1 PUSH2 0xB83 JUMP JUMPDEST DUP1 ISZERO PUSH2 0x4D5 JUMPI DUP1 PUSH1 0x1F LT PUSH2 0x4AA JUMPI PUSH2 0x100 DUP1 DUP4 SLOAD DIV MUL DUP4 MSTORE SWAP2 PUSH1 0x20 ADD SWAP2 PUSH2 0x4D5 JUMP JUMPDEST DUP3 ADD SWAP2 SWAP1 PUSH1 0x0 MSTORE PUSH1 0x20 PUSH1 0x0 KECCAK256 SWAP1 JUMPDEST DUP2 SLOAD DUP2 MSTORE SWAP1 PUSH1 0x1 ADD SWAP1 PUSH1 0x20 ADD DUP1 DUP4 GT PUSH2 0x4B8 JUMPI DUP3 SWAP1 SUB PUSH1 0x1F AND DUP3 ADD SWAP2 JUMPDEST POP POP POP POP POP SWAP1 POP DUP5 JUMP JUMPDEST PUSH2 0x4E7 PUSH2 0x58E JUMP JUMPDEST DUP6 DUP2 PUSH1 0x0 ADD DUP2 SWAP1 MSTORE POP DUP5 DUP2 PUSH1 0x20 ADD DUP2 SWAP1 MSTORE POP DUP4 DUP2 PUSH1 0x40 ADD DUP2 DUP2 MSTORE POP POP DUP3 DUP2 PUSH1 0x60 ADD DUP2 SWAP1 MSTORE POP PUSH1 0x0 DUP2 SWAP1 DUP1 PUSH1 0x1 DUP2 SLOAD ADD DUP1 DUP3 SSTORE DUP1 SWAP2 POP POP PUSH1 0x1 SWAP1 SUB SWAP1 PUSH1 0x0 MSTORE PUSH1 0x20 PUSH1 0x0 KECCAK256 SWAP1 PUSH1 0x4 MUL ADD PUSH1 0x0 SWAP1 SWAP2 SWAP1 SWAP2 SWAP1 SWAP2 POP PUSH1 0x0 DUP3 ADD MLOAD DUP2 PUSH1 0x0 ADD SWAP1 DUP2 PUSH2 0x54D SWAP2 SWAP1 PUSH2 0xD60 JUMP JUMPDEST POP PUSH1 0x20 DUP3 ADD MLOAD DUP2 PUSH1 0x1 ADD SWAP1 DUP2 PUSH2 0x563 SWAP2 SWAP1 PUSH2 0xD60 JUMP JUMPDEST POP PUSH1 0x40 DUP3 ADD MLOAD DUP2 PUSH1 0x2 ADD SSTORE PUSH1 0x60 DUP3 ADD MLOAD DUP2 PUSH1 0x3 ADD SWAP1 DUP2 PUSH2 0x583 SWAP2 SWAP1 PUSH2 0xD60 JUMP JUMPDEST POP POP POP POP POP POP POP POP POP JUMP JUMPDEST PUSH1 0x40 MLOAD DUP1 PUSH1 0x80 ADD PUSH1 0x40 MSTORE DUP1 PUSH1 0x60 DUP2 MSTORE PUSH1 0x20 ADD PUSH1 0x60 DUP2 MSTORE PUSH1 0x20 ADD PUSH1 0x0 DUP2 MSTORE PUSH1 0x20 ADD PUSH1 0x60 DUP2 MSTORE POP SWAP1 JUMP JUMPDEST PUSH1 0x0 DUP2 MLOAD SWAP1 POP SWAP2 SWAP1 POP JUMP JUMPDEST PUSH1 0x0 DUP3 DUP3 MSTORE PUSH1 0x20 DUP3 ADD SWAP1 POP SWAP3 SWAP2 POP POP JUMP JUMPDEST PUSH1 0x0 DUP2 SWAP1 POP PUSH1 0x20 DUP3 ADD SWAP1 POP SWAP2 SWAP1 POP JUMP JUMPDEST PUSH1 0x0 DUP2 MLOAD SWAP1 POP SWAP2 SWAP1 POP JUMP JUMPDEST PUSH1 0x0 DUP3 DUP3 MSTORE PUSH1 0x20 DUP3 ADD SWAP1 POP SWAP3 SWAP2 POP POP JUMP JUMPDEST PUSH1 0x0 JUMPDEST DUP4 DUP2 LT ISZERO PUSH2 0x61C JUMPI DUP1 DUP3 ADD MLOAD DUP2 DUP5 ADD MSTORE PUSH1 0x20 DUP2 ADD SWAP1 POP PUSH2 0x601 JUMP JUMPDEST PUSH1 0x0 DUP5 DUP5 ADD MSTORE POP POP POP POP JUMP JUMPDEST PUSH1 0x0 PUSH1 0x1F NOT PUSH1 0x1F DUP4 ADD AND SWAP1 POP SWAP2 SWAP1 POP JUMP JUMPDEST PUSH1 0x0 PUSH2 0x644 DUP3 PUSH2 0x5E2 JUMP JUMPDEST PUSH2 0x64E DUP2 DUP6 PUSH2 0x5ED JUMP JUMPDEST SWAP4 POP PUSH2 0x65E DUP2 DUP6 PUSH1 0x20 DUP7 ADD PUSH2 0x5FE JUMP JUMPDEST PUSH2 0x667 DUP2 PUSH2 0x628 JUMP JUMPDEST DUP5 ADD SWAP2 POP POP SWAP3 SWAP2 POP POP JUMP JUMPDEST PUSH1 0x0 DUP2 SWAP1 POP SWAP2 SWAP1 POP JUMP JUMPDEST PUSH2 0x685 DUP2 PUSH2 0x672 JUMP JUMPDEST DUP3 MSTORE POP POP JUMP JUMPDEST PUSH1 0x0 PUSH1 0x80 DUP4 ADD PUSH1 0x0 DUP4 ADD MLOAD DUP5 DUP3 SUB PUSH1 0x0 DUP7 ADD MSTORE PUSH2 0x6A8 DUP3 DUP3 PUSH2 0x639 JUMP JUMPDEST SWAP2 POP POP PUSH1 0x20 DUP4 ADD MLOAD DUP5 DUP3 SUB PUSH1 0x20 DUP7 ADD MSTORE PUSH2 0x6C2 DUP3 DUP3 PUSH2 0x639 JUMP JUMPDEST SWAP2 POP POP PUSH1 0x40 DUP4 ADD MLOAD PUSH2 0x6D7 PUSH1 0x40 DUP7 ADD DUP3 PUSH2 0x67C JUMP JUMPDEST POP PUSH1 0x60 DUP4 ADD MLOAD DUP5 DUP3 SUB PUSH1 0x60 DUP7 ADD MSTORE PUSH2 0x6EF DUP3 DUP3 PUSH2 0x639 JUMP JUMPDEST SWAP2 POP POP DUP1 SWAP2 POP POP SWAP3 SWAP2 POP POP JUMP JUMPDEST PUSH1 0x0 PUSH2 0x708 DUP4 DUP4 PUSH2 0x68B JUMP JUMPDEST SWAP1 POP SWAP3 SWAP2 POP POP JUMP JUMPDEST PUSH1 0x0 PUSH1 0x20 DUP3 ADD SWAP1 POP SWAP2 SWAP1 POP JUMP JUMPDEST PUSH1 0x0 PUSH2 0x728 DUP3 PUSH2 0x5B6 JUMP JUMPDEST PUSH2 0x732 DUP2 DUP6 PUSH2 0x5C1 JUMP JUMPDEST SWAP4 POP DUP4 PUSH1 0x20 DUP3 MUL DUP6 ADD PUSH2 0x744 DUP6 PUSH2 0x5D2 JUMP JUMPDEST DUP1 PUSH1 0x0 JUMPDEST DUP6 DUP2 LT ISZERO PUSH2 0x780 JUMPI DUP5 DUP5 SUB DUP10 MSTORE DUP2 MLOAD PUSH2 0x761 DUP6 DUP3 PUSH2 0x6FC JUMP JUMPDEST SWAP5 POP PUSH2 0x76C DUP4 PUSH2 0x710 JUMP JUMPDEST SWAP3 POP PUSH1 0x20 DUP11 ADD SWAP10 POP POP PUSH1 0x1 DUP2 ADD SWAP1 POP PUSH2 0x748 JUMP JUMPDEST POP DUP3 SWAP8 POP DUP8 SWAP6 POP POP POP POP POP POP SWAP3 SWAP2 POP POP JUMP JUMPDEST PUSH1 0x0 PUSH1 0x20 DUP3 ADD SWAP1 POP DUP2 DUP2 SUB PUSH1 0x0 DUP4 ADD MSTORE PUSH2 0x7AC DUP2 DUP5 PUSH2 0x71D JUMP JUMPDEST SWAP1 POP SWAP3 SWAP2 POP POP JUMP JUMPDEST PUSH1 0x0 DUP2 SWAP1 POP SWAP2 SWAP1 POP JUMP JUMPDEST PUSH2 0x7C7 DUP2 PUSH2 0x7B4 JUMP JUMPDEST DUP3 MSTORE POP POP JUMP JUMPDEST PUSH1 0x0 PUSH1 0x20 DUP3 ADD SWAP1 POP PUSH2 0x7E2 PUSH1 0x0 DUP4 ADD DUP5 PUSH2 0x7BE JUMP JUMPDEST SWAP3 SWAP2 POP POP JUMP JUMPDEST PUSH1 0x0 PUSH1 0x40 MLOAD SWAP1 POP SWAP1 JUMP JUMPDEST PUSH1 0x0 DUP1 REVERT JUMPDEST PUSH1 0x0 DUP1 REVERT JUMPDEST PUSH2 0x805 DUP2 PUSH2 0x7B4 JUMP JUMPDEST DUP2 EQ PUSH2 0x810 JUMPI PUSH1 0x0 DUP1 REVERT JUMPDEST POP JUMP JUMPDEST PUSH1 0x0 DUP2 CALLDATALOAD SWAP1 POP PUSH2 0x822 DUP2 PUSH2 0x7FC JUMP JUMPDEST SWAP3 SWAP2 POP POP JUMP JUMPDEST PUSH1 0x0 PUSH1 0x20 DUP3 DUP5 SUB SLT ISZERO PUSH2 0x83E JUMPI PUSH2 0x83D PUSH2 0x7F2 JUMP JUMPDEST JUMPDEST PUSH1 0x0 PUSH2 0x84C DUP5 DUP3 DUP6 ADD PUSH2 0x813 JUMP JUMPDEST SWAP2 POP POP SWAP3 SWAP2 POP POP JUMP JUMPDEST PUSH1 0x0 DUP3 DUP3 MSTORE PUSH1 0x20 DUP3 ADD SWAP1 POP SWAP3 SWAP2 POP POP JUMP JUMPDEST PUSH1 0x0 PUSH2 0x871 DUP3 PUSH2 0x5E2 JUMP JUMPDEST PUSH2 0x87B DUP2 DUP6 PUSH2 0x855 JUMP JUMPDEST SWAP4 POP PUSH2 0x88B DUP2 DUP6 PUSH1 0x20 DUP7 ADD PUSH2 0x5FE JUMP JUMPDEST PUSH2 0x894 DUP2 PUSH2 0x628 JUMP JUMPDEST DUP5 ADD SWAP2 POP POP SWAP3 SWAP2 POP POP JUMP JUMPDEST PUSH2 0x8A8 DUP2 PUSH2 0x672 JUMP JUMPDEST DUP3 MSTORE POP POP JUMP JUMPDEST PUSH1 0x0 PUSH1 0x80 DUP3 ADD SWAP1 POP DUP2 DUP2 SUB PUSH1 0x0 DUP4 ADD MSTORE PUSH2 0x8C8 DUP2 DUP8 PUSH2 0x866 JUMP JUMPDEST SWAP1 POP DUP2 DUP2 SUB PUSH1 0x20 DUP4 ADD MSTORE PUSH2 0x8DC DUP2 DUP7 PUSH2 0x866 JUMP JUMPDEST SWAP1 POP PUSH2 0x8EB PUSH1 0x40 DUP4 ADD DUP6 PUSH2 0x89F JUMP JUMPDEST DUP2 DUP2 SUB PUSH1 0x60 DUP4 ADD MSTORE PUSH2 0x8FD DUP2 DUP5 PUSH2 0x866 JUMP JUMPDEST SWAP1 POP SWAP6 SWAP5 POP POP POP POP POP JUMP JUMPDEST PUSH1 0x0 DUP1 REVERT JUMPDEST PUSH1 0x0 DUP1 REVERT JUMPDEST PUSH32 0x4E487B7100000000000000000000000000000000000000000000000000000000 PUSH1 0x0 MSTORE PUSH1 0x41 PUSH1 0x4 MSTORE PUSH1 0x24 PUSH1 0x0 REVERT JUMPDEST PUSH2 0x94A DUP3 PUSH2 0x628 JUMP JUMPDEST DUP2 ADD DUP2 DUP2 LT PUSH8 0xFFFFFFFFFFFFFFFF DUP3 GT OR ISZERO PUSH2 0x969 JUMPI PUSH2 0x968 PUSH2 0x912 JUMP JUMPDEST JUMPDEST DUP1 PUSH1 0x40 MSTORE POP POP POP JUMP JUMPDEST PUSH1 0x0 PUSH2 0x97C PUSH2 0x7E8 JUMP JUMPDEST SWAP1 POP PUSH2 0x988 DUP3 DUP3 PUSH2 0x941 JUMP JUMPDEST SWAP2 SWAP1 POP JUMP JUMPDEST PUSH1 0x0 PUSH8 0xFFFFFFFFFFFFFFFF DUP3 GT ISZERO PUSH2 0x9A8 JUMPI PUSH2 0x9A7 PUSH2 0x912 JUMP JUMPDEST JUMPDEST PUSH2 0x9B1 DUP3 PUSH2 0x628 JUMP JUMPDEST SWAP1 POP PUSH1 0x20 DUP2 ADD SWAP1 POP SWAP2 SWAP1 POP JUMP JUMPDEST DUP3 DUP2 DUP4 CALLDATACOPY PUSH1 0x0 DUP4 DUP4 ADD MSTORE POP POP POP JUMP JUMPDEST PUSH1 0x0 PUSH2 0x9E0 PUSH2 0x9DB DUP5 PUSH2 0x98D JUMP JUMPDEST PUSH2 0x972 JUMP JUMPDEST SWAP1 POP DUP3 DUP2 MSTORE PUSH1 0x20 DUP2 ADD DUP5 DUP5 DUP5 ADD GT ISZERO PUSH2 0x9FC JUMPI PUSH2 0x9FB PUSH2 0x90D JUMP JUMPDEST JUMPDEST PUSH2 0xA07 DUP5 DUP3 DUP6 PUSH2 0x9BE JUMP JUMPDEST POP SWAP4 SWAP3 POP POP POP JUMP JUMPDEST PUSH1 0x0 DUP3 PUSH1 0x1F DUP4 ADD SLT PUSH2 0xA24 JUMPI PUSH2 0xA23 PUSH2 0x908 JUMP JUMPDEST JUMPDEST DUP2 CALLDATALOAD PUSH2 0xA34 DUP5 DUP3 PUSH1 0x20 DUP7 ADD PUSH2 0x9CD JUMP JUMPDEST SWAP2 POP POP SWAP3 SWAP2 POP POP JUMP JUMPDEST PUSH2 0xA46 DUP2 PUSH2 0x672 JUMP JUMPDEST DUP2 EQ PUSH2 0xA51 JUMPI PUSH1 0x0 DUP1 REVERT JUMPDEST POP JUMP JUMPDEST PUSH1 0x0 DUP2 CALLDATALOAD SWAP1 POP PUSH2 0xA63 DUP2 PUSH2 0xA3D JUMP JUMPDEST SWAP3 SWAP2 POP POP JUMP JUMPDEST PUSH1 0x0 DUP1 PUSH1 0x0 DUP1 PUSH1 0x0 PUSH1 0xA0 DUP7 DUP9 SUB SLT ISZERO PUSH2 0xA85 JUMPI PUSH2 0xA84 PUSH2 0x7F2 JUMP JUMPDEST JUMPDEST PUSH1 0x0 DUP7 ADD CALLDATALOAD PUSH8 0xFFFFFFFFFFFFFFFF DUP2 GT ISZERO PUSH2 0xAA3 JUMPI PUSH2 0xAA2 PUSH2 0x7F7 JUMP JUMPDEST JUMPDEST PUSH2 0xAAF DUP9 DUP3 DUP10 ADD PUSH2 0xA0F JUMP JUMPDEST SWAP6 POP POP PUSH1 0x20 DUP7 ADD CALLDATALOAD PUSH8 0xFFFFFFFFFFFFFFFF DUP2 GT ISZERO PUSH2 0xAD0 JUMPI PUSH2 0xACF PUSH2 0x7F7 JUMP JUMPDEST JUMPDEST PUSH2 0xADC DUP9 DUP3 DUP10 ADD PUSH2 0xA0F JUMP JUMPDEST SWAP5 POP POP PUSH1 0x40 PUSH2 0xAED DUP9 DUP3 DUP10 ADD PUSH2 0xA54 JUMP JUMPDEST SWAP4 POP POP PUSH1 0x60 DUP7 ADD CALLDATALOAD PUSH8 0xFFFFFFFFFFFFFFFF DUP2 GT ISZERO PUSH2 0xB0E JUMPI PUSH2 0xB0D PUSH2 0x7F7 JUMP JUMPDEST JUMPDEST PUSH2 0xB1A DUP9 DUP3 DUP10 ADD PUSH2 0xA0F JUMP JUMPDEST SWAP3 POP POP PUSH1 0x80 DUP7 ADD CALLDATALOAD PUSH8 0xFFFFFFFFFFFFFFFF DUP2 GT ISZERO PUSH2 0xB3B JUMPI PUSH2 0xB3A PUSH2 0x7F7 JUMP JUMPDEST JUMPDEST PUSH2 0xB47 DUP9 DUP3 DUP10 ADD PUSH2 0xA0F JUMP JUMPDEST SWAP2 POP POP SWAP3 SWAP6 POP SWAP3 SWAP6 SWAP1 SWAP4 POP JUMP JUMPDEST PUSH32 0x4E487B7100000000000000000000000000000000000000000000000000000000 PUSH1 0x0 MSTORE PUSH1 0x22 PUSH1 0x4 MSTORE PUSH1 0x24 PUSH1 0x0 REVERT JUMPDEST PUSH1 0x0 PUSH1 0x2 DUP3 DIV SWAP1 POP PUSH1 0x1 DUP3 AND DUP1 PUSH2 0xB9B JUMPI PUSH1 0x7F DUP3 AND SWAP2 POP JUMPDEST PUSH1 0x20 DUP3 LT DUP2 SUB PUSH2 0xBAE JUMPI PUSH2 0xBAD PUSH2 0xB54 JUMP JUMPDEST JUMPDEST POP SWAP2 SWAP1 POP JUMP JUMPDEST PUSH1 0x0 DUP2 SWAP1 POP DUP2 PUSH1 0x0 MSTORE PUSH1 0x20 PUSH1 0x0 KECCAK256 SWAP1 POP SWAP2 SWAP1 POP JUMP JUMPDEST PUSH1 0x0 PUSH1 0x20 PUSH1 0x1F DUP4 ADD DIV SWAP1 POP SWAP2 SWAP1 POP JUMP JUMPDEST PUSH1 0x0 DUP3 DUP3 SHL SWAP1 POP SWAP3 SWAP2 POP POP JUMP JUMPDEST PUSH1 0x0 PUSH1 0x8 DUP4 MUL PUSH2 0xC16 PUSH32 0xFFFFFFFFFFFFFFFFFFFFFFFFFFFFFFFFFFFFFFFFFFFFFFFFFFFFFFFFFFFFFFFF DUP3 PUSH2 0xBD9 JUMP JUMPDEST PUSH2 0xC20 DUP7 DUP4 PUSH2 0xBD9 JUMP JUMPDEST SWAP6 POP DUP1 NOT DUP5 AND SWAP4 POP DUP1 DUP7 AND DUP5 OR SWAP3 POP POP POP SWAP4 SWAP3 POP POP POP JUMP JUMPDEST PUSH1 0x0 DUP2 SWAP1 POP SWAP2 SWAP1 POP JUMP JUMPDEST PUSH1 0x0 PUSH2 0xC5D PUSH2 0xC58 PUSH2 0xC53 DUP5 PUSH2 0x7B4 JUMP JUMPDEST PUSH2 0xC38 JUMP JUMPDEST PUSH2 0x7B4 JUMP JUMPDEST SWAP1 POP SWAP2 SWAP1 POP JUMP JUMPDEST PUSH1 0x0 DUP2 SWAP1 POP SWAP2 SWAP1 POP JUMP JUMPDEST PUSH2 0xC77 DUP4 PUSH2 0xC42 JUMP JUMPDEST PUSH2 0xC8B PUSH2 0xC83 DUP3 PUSH2 0xC64 JUMP JUMPDEST DUP5 DUP5 SLOAD PUSH2 0xBE6 JUMP JUMPDEST DUP3 SSTORE POP POP POP POP JUMP JUMPDEST PUSH1 0x0 SWAP1 JUMP JUMPDEST PUSH2 0xCA0 PUSH2 0xC93 JUMP JUMPDEST PUSH2 0xCAB DUP2 DUP5 DUP5 PUSH2 0xC6E JUMP JUMPDEST POP POP POP JUMP JUMPDEST JUMPDEST DUP2 DUP2 LT ISZERO PUSH2 0xCCF JUMPI PUSH2 0xCC4 PUSH1 0x0 DUP3 PUSH2 0xC98 JUMP JUMPDEST PUSH1 0x1 DUP2 ADD SWAP1 POP PUSH2 0xCB1 JUMP JUMPDEST POP POP JUMP JUMPDEST PUSH1 0x1F DUP3 GT ISZERO PUSH2 0xD14 JUMPI PUSH2 0xCE5 DUP2 PUSH2 0xBB4 JUMP JUMPDEST PUSH2 0xCEE DUP5 PUSH2 0xBC9 JUMP JUMPDEST DUP2 ADD PUSH1 0x20 DUP6 LT ISZERO PUSH2 0xCFD JUMPI DUP2 SWAP1 POP JUMPDEST PUSH2 0xD11 PUSH2 0xD09 DUP6 PUSH2 0xBC9 JUMP JUMPDEST DUP4 ADD DUP3 PUSH2 0xCB0 JUMP JUMPDEST POP POP JUMPDEST POP POP POP JUMP JUMPDEST PUSH1 0x0 DUP3 DUP3 SHR SWAP1 POP SWAP3 SWAP2 POP POP JUMP JUMPDEST PUSH1 0x0 PUSH2 0xD37 PUSH1 0x0 NOT DUP5 PUSH1 0x8 MUL PUSH2 0xD19 JUMP JUMPDEST NOT DUP1 DUP4 AND SWAP2 POP POP SWAP3 SWAP2 POP POP JUMP JUMPDEST PUSH1 0x0 PUSH2 0xD50 DUP4 DUP4 PUSH2 0xD26 JUMP JUMPDEST SWAP2 POP DUP3 PUSH1 0x2 MUL DUP3 OR SWAP1 POP SWAP3 SWAP2 POP POP JUMP JUMPDEST PUSH2 0xD69 DUP3 PUSH2 0x5E2 JUMP JUMPDEST PUSH8 0xFFFFFFFFFFFFFFFF DUP2 GT ISZERO PUSH2 0xD82 JUMPI PUSH2 0xD81 PUSH2 0x912 JUMP JUMPDEST JUMPDEST PUSH2 0xD8C DUP3 SLOAD PUSH2 0xB83 JUMP JUMPDEST PUSH2 0xD97 DUP3 DUP3 DUP6 PUSH2 0xCD3 JUMP JUMPDEST PUSH1 0x0 PUSH1 0x20 SWAP1 POP PUSH1 0x1F DUP4 GT PUSH1 0x1 DUP2 EQ PUSH2 0xDCA JUMPI PUSH1 0x0 DUP5 ISZERO PUSH2 0xDB8 JUMPI DUP3 DUP8 ADD MLOAD SWAP1 POP JUMPDEST PUSH2 0xDC2 DUP6 DUP3 PUSH2 0xD44 JUMP JUMPDEST DUP7 SSTORE POP PUSH2 0xE2A JUMP JUMPDEST PUSH1 0x1F NOT DUP5 AND PUSH2 0xDD8 DUP7 PUSH2 0xBB4 JUMP JUMPDEST PUSH1 0x0 JUMPDEST DUP3 DUP2 LT ISZERO PUSH2 0xE00 JUMPI DUP5 DUP10 ADD MLOAD DUP3 SSTORE PUSH1 0x1 DUP3 ADD SWAP2 POP PUSH1 0x20 DUP6 ADD SWAP5 POP PUSH1 0x20 DUP2 ADD SWAP1 POP PUSH2 0xDDB JUMP JUMPDEST DUP7 DUP4 LT ISZERO PUSH2 0xE1D JUMPI DUP5 DUP10 ADD MLOAD PUSH2 0xE19 PUSH1 0x1F DUP10 AND DUP3 PUSH2 0xD26 JUMP JUMPDEST DUP4 SSTORE POP JUMPDEST PUSH1 0x1 PUSH1 0x2 DUP9 MUL ADD DUP9 SSTORE POP POP POP JUMPDEST POP POP POP POP POP POP JUMP INVALID LOG2 PUSH5 0x6970667358 0x22 SLT KECCAK256 0xD8 BLOCKHASH BYTE MSIZE 0xAF PUSH27 0x89820445B6D1BF2A83C29554C93C2277A5CD8F267590F1E085C964 PUSH20 0x6F6C634300081200330000000000000000000000 "
				},
				"gasEstimates": {
					"creation": {
						"codeDepositCost": "737600",
						"executionCost": "5779",
						"totalCost": "743379"
					},
					"external": {
						"arr(uint256)": "infinite",
						"getMyStructs()": "infinite",
						"len()": "2445",
						"push_element(string,string,int256,string,string)": "infinite"
					}
				},
				"methodIdentifiers": {
					"arr(uint256)": "71e5ee5f",
					"getMyStructs()": "4d395307",
					"len()": "56d88e27",
					"push_element(string,string,int256,string,string)": "7b16ea6b"
				}
			},
			"storageLayout": {
				"storage": [
					{
						"astId": 14,
						"contract": "assignments/vender1.sol:vender1",
						"label": "arr",
						"offset": 0,
						"slot": "0",
						"type": "t_array(t_struct(l1)10_storage)dyn_storage"
					},
					{
						"astId": 17,
						"contract": "assignments/vender1.sol:vender1",
						"label": "i",
						"offset": 0,
						"slot": "1",
						"type": "t_uint256"
					}
				],
				"types": {
					"t_array(t_struct(l1)10_storage)dyn_storage": {
						"base": "t_struct(l1)10_storage",
						"encoding": "dynamic_array",
						"label": "struct vender1.l1[]",
						"numberOfBytes": "32"
					},
					"t_int256": {
						"encoding": "inplace",
						"label": "int256",
						"numberOfBytes": "32"
					},
					"t_string_storage": {
						"encoding": "bytes",
						"label": "string",
						"numberOfBytes": "32"
					},
					"t_struct(l1)10_storage": {
						"encoding": "inplace",
						"label": "struct vender1.l1",
						"members": [
							{
								"astId": 3,
								"contract": "assignments/vender1.sol:vender1",
								"label": "user_id",
								"offset": 0,
								"slot": "0",
								"type": "t_string_storage"
							},
							{
								"astId": 5,
								"contract": "assignments/vender1.sol:vender1",
								"label": "prod",
								"offset": 0,
								"slot": "1",
								"type": "t_string_storage"
							},
							{
								"astId": 7,
								"contract": "assignments/vender1.sol:vender1",
								"label": "quantity",
								"offset": 0,
								"slot": "2",
								"type": "t_int256"
							},
							{
								"astId": 9,
								"contract": "assignments/vender1.sol:vender1",
								"label": "date",
								"offset": 0,
								"slot": "3",
								"type": "t_string_storage"
							}
						],
						"numberOfBytes": "128"
					},
					"t_uint256": {
						"encoding": "inplace",
						"label": "uint256",
						"numberOfBytes": "32"
					}
				}
			},
			"userdoc": {
				"kind": "user",
				"methods": {},
				"version": 1
			}
		}
	}
}