{
	"assignments/mul.sol": {
		"vender1": {
			"abi": [
				{
					"inputs": [
						{
							"internalType": "uint256",
							"name": "",
							"type": "uint256"
						},
						{
							"internalType": "uint256",
							"name": "",
							"type": "uint256"
						}
					],
					"name": "arr",
					"outputs": [
						{
							"internalType": "string",
							"name": "user_id",
							"type": "string"
						},
						{
							"internalType": "string",
							"name": "date",
							"type": "string"
						},
						{
							"internalType": "string",
							"name": "status",
							"type": "string"
						}
					],
					"stateMutability": "view",
					"type": "function"
				},
				{
					"inputs": [
						{
							"internalType": "uint256",
							"name": "",
							"type": "uint256"
						}
					],
					"name": "arr2",
					"outputs": [
						{
							"internalType": "string",
							"name": "user_id",
							"type": "string"
						},
						{
							"internalType": "string",
							"name": "date",
							"type": "string"
						},
						{
							"internalType": "string",
							"name": "ven_id",
							"type": "string"
						},
						{
							"internalType": "string",
							"name": "ED",
							"type": "string"
						},
						{
							"internalType": "string",
							"name": "id",
							"type": "string"
						},
						{
							"internalType": "string",
							"name": "status",
							"type": "string"
						},
						{
							"internalType": "string",
							"name": "trans",
							"type": "string"
						}
					],
					"stateMutability": "view",
					"type": "function"
				},
				{
					"inputs": [],
					"name": "getMyStructs",
					"outputs": [
						{
							"components": [
								{
									"internalType": "string",
									"name": "user_id",
									"type": "string"
								},
								{
									"internalType": "string[]",
									"name": "prod",
									"type": "string[]"
								},
								{
									"internalType": "int256[]",
									"name": "quantity",
									"type": "int256[]"
								},
								{
									"internalType": "string",
									"name": "date",
									"type": "string"
								},
								{
									"internalType": "string",
									"name": "status",
									"type": "string"
								}
							],
							"internalType": "struct vender1.l1[][]",
							"name": "",
							"type": "tuple[][]"
						}
					],
					"stateMutability": "view",
					"type": "function"
				},
				{
					"inputs": [],
					"name": "getquotes",
					"outputs": [
						{
							"components": [
								{
									"internalType": "string",
									"name": "user_id",
									"type": "string"
								},
								{
									"internalType": "string[]",
									"name": "prod",
									"type": "string[]"
								},
								{
									"internalType": "int256[]",
									"name": "quantity",
									"type": "int256[]"
								},
								{
									"internalType": "string",
									"name": "date",
									"type": "string"
								},
								{
									"internalType": "string",
									"name": "ven_id",
									"type": "string"
								},
								{
									"internalType": "int256[]",
									"name": "price",
									"type": "int256[]"
								},
								{
									"internalType": "string",
									"name": "ED",
									"type": "string"
								},
								{
									"internalType": "string",
									"name": "id",
									"type": "string"
								},
								{
									"internalType": "string",
									"name": "status",
									"type": "string"
								},
								{
									"internalType": "string",
									"name": "trans",
									"type": "string"
								}
							],
							"internalType": "struct vender1.l2[]",
							"name": "",
							"type": "tuple[]"
						}
					],
					"stateMutability": "view",
					"type": "function"
				},
				{
					"inputs": [],
					"name": "len",
					"outputs": [
						{
							"internalType": "uint256",
							"name": "",
							"type": "uint256"
						}
					],
					"stateMutability": "view",
					"type": "function"
				},
				{
					"inputs": [
						{
							"internalType": "string",
							"name": "u",
							"type": "string"
						},
						{
							"internalType": "string[]",
							"name": "p",
							"type": "string[]"
						},
						{
							"internalType": "int256[]",
							"name": "n1",
							"type": "int256[]"
						},
						{
							"internalType": "string",
							"name": "x",
							"type": "string"
						},
						{
							"internalType": "string",
							"name": "y",
							"type": "string"
						}
					],
					"name": "push_element",
					"outputs": [],
					"stateMutability": "nonpayable",
					"type": "function"
				}
			],
			"devdoc": {
				"kind": "dev",
				"methods": {},
				"version": 1
			},
			"evm": {
				"assembly": "    /* \"assignments/mul.sol\":60:2762  contract vender1{... */\n  mstore(0x40, 0x80)\n    /* \"assignments/mul.sol\":534:535  0 */\n  0x00\n    /* \"assignments/mul.sol\":527:535  uint i=0 */\n  0x02\n  sstore\n    /* \"assignments/mul.sol\":60:2762  contract vender1{... */\n  callvalue\n  dup1\n  iszero\n  tag_1\n  jumpi\n  0x00\n  dup1\n  revert\ntag_1:\n  pop\n  dataSize(sub_0)\n  dup1\n  dataOffset(sub_0)\n  0x00\n  codecopy\n  0x00\n  return\nstop\n\nsub_0: assembly {\n        /* \"assignments/mul.sol\":60:2762  contract vender1{... */\n      mstore(0x40, 0x80)\n      callvalue\n      dup1\n      iszero\n      tag_1\n      jumpi\n      0x00\n      dup1\n      revert\n    tag_1:\n      pop\n      jumpi(tag_2, lt(calldatasize, 0x04))\n      shr(0xe0, calldataload(0x00))\n      dup1\n      0x2be725ad\n      eq\n      tag_3\n      jumpi\n      dup1\n      0x45d0695f\n      eq\n      tag_4\n      jumpi\n      dup1\n      0x4d395307\n      eq\n      tag_5\n      jumpi\n      dup1\n      0x56d88e27\n      eq\n      tag_6\n      jumpi\n      dup1\n      0xe56fe289\n      eq\n      tag_7\n      jumpi\n      dup1\n      0xedf0099b\n      eq\n      tag_8\n      jumpi\n    tag_2:\n      0x00\n      dup1\n      revert\n        /* \"assignments/mul.sol\":542:1647  function push_element(string memory u,string[] memory p,int[] memory n1,string memory x,string memory y) public {... */\n    tag_3:\n      tag_9\n      0x04\n      dup1\n      calldatasize\n      sub\n      dup2\n      add\n      swap1\n      tag_10\n      swap2\n      swap1\n      tag_11\n      jump\t// in\n    tag_10:\n      tag_12\n      jump\t// in\n    tag_9:\n      stop\n        /* \"assignments/mul.sol\":480:497  l1[][] public arr */\n    tag_4:\n      tag_13\n      0x04\n      dup1\n      calldatasize\n      sub\n      dup2\n      add\n      swap1\n      tag_14\n      swap2\n      swap1\n      tag_15\n      jump\t// in\n    tag_14:\n      tag_16\n      jump\t// in\n    tag_13:\n      mload(0x40)\n      tag_17\n      swap4\n      swap3\n      swap2\n      swap1\n      tag_18\n      jump\t// in\n    tag_17:\n      mload(0x40)\n      dup1\n      swap2\n      sub\n      swap1\n      return\n        /* \"assignments/mul.sol\":2497:2586  function getMyStructs() public view returns (l1[][] memory) {... */\n    tag_5:\n      tag_19\n      tag_20\n      jump\t// in\n    tag_19:\n      mload(0x40)\n      tag_21\n      swap2\n      swap1\n      tag_22\n      jump\t// in\n    tag_21:\n      mload(0x40)\n      dup1\n      swap2\n      sub\n      swap1\n      return\n        /* \"assignments/mul.sol\":2683:2759  function len() public view returns(uint){... */\n    tag_6:\n      tag_23\n      tag_24\n      jump\t// in\n    tag_23:\n      mload(0x40)\n      tag_25\n      swap2\n      swap1\n      tag_26\n      jump\t// in\n    tag_25:\n      mload(0x40)\n      dup1\n      swap2\n      sub\n      swap1\n      return\n        /* \"assignments/mul.sol\":2592:2677  function getquotes() public view returns (l2[] memory) {... */\n    tag_7:\n      tag_27\n      tag_28\n      jump\t// in\n    tag_27:\n      mload(0x40)\n      tag_29\n      swap2\n      swap1\n      tag_30\n      jump\t// in\n    tag_29:\n      mload(0x40)\n      dup1\n      swap2\n      sub\n      swap1\n      return\n        /* \"assignments/mul.sol\":504:520  l2[] public arr2 */\n    tag_8:\n      tag_31\n      0x04\n      dup1\n      calldatasize\n      sub\n      dup2\n      add\n      swap1\n      tag_32\n      swap2\n      swap1\n      tag_33\n      jump\t// in\n    tag_32:\n      tag_34\n      jump\t// in\n    tag_31:\n      mload(0x40)\n      tag_35\n      swap8\n      swap7\n      swap6\n      swap5\n      swap4\n      swap3\n      swap2\n      swap1\n      tag_36\n      jump\t// in\n    tag_35:\n      mload(0x40)\n      dup1\n      swap2\n      sub\n      swap1\n      return\n        /* \"assignments/mul.sol\":542:1647  function push_element(string memory u,string[] memory p,int[] memory n1,string memory x,string memory y) public {... */\n    tag_12:\n        /* \"assignments/mul.sol\":680:681  0 */\n      0x00\n        /* \"assignments/mul.sol\":668:671  arr */\n      dup1\n        /* \"assignments/mul.sol\":668:678  arr.length */\n      dup1\n      sload\n      swap1\n      pop\n        /* \"assignments/mul.sol\":668:681  arr.length==0 */\n      sub\n        /* \"assignments/mul.sol\":665:1640  if(arr.length==0){... */\n      tag_38\n      jumpi\n        /* \"assignments/mul.sol\":697:709  l1 memory s1 */\n      tag_39\n      tag_40\n      jump\t// in\n    tag_39:\n        /* \"assignments/mul.sol\":735:736  u */\n      dup6\n        /* \"assignments/mul.sol\":724:726  s1 */\n      dup2\n        /* \"assignments/mul.sol\":724:734  s1.user_id */\n      0x00\n      add\n        /* \"assignments/mul.sol\":724:736  s1.user_id=u */\n      dup2\n      swap1\n      mstore\n      pop\n        /* \"assignments/mul.sol\":759:760  p */\n      dup5\n        /* \"assignments/mul.sol\":751:753  s1 */\n      dup2\n        /* \"assignments/mul.sol\":751:758  s1.prod */\n      0x20\n      add\n        /* \"assignments/mul.sol\":751:760  s1.prod=p */\n      dup2\n      swap1\n      mstore\n      pop\n        /* \"assignments/mul.sol\":787:789  n1 */\n      dup4\n        /* \"assignments/mul.sol\":775:777  s1 */\n      dup2\n        /* \"assignments/mul.sol\":775:786  s1.quantity */\n      0x40\n      add\n        /* \"assignments/mul.sol\":775:789  s1.quantity=n1 */\n      dup2\n      swap1\n      mstore\n      pop\n        /* \"assignments/mul.sol\":812:813  x */\n      dup3\n        /* \"assignments/mul.sol\":804:806  s1 */\n      dup2\n        /* \"assignments/mul.sol\":804:811  s1.date */\n      0x60\n      add\n        /* \"assignments/mul.sol\":804:813  s1.date=x */\n      dup2\n      swap1\n      mstore\n      pop\n        /* \"assignments/mul.sol\":838:839  y */\n      dup2\n        /* \"assignments/mul.sol\":828:830  s1 */\n      dup2\n        /* \"assignments/mul.sol\":828:837  s1.status */\n      0x80\n      add\n        /* \"assignments/mul.sol\":828:839  s1.status=y */\n      dup2\n      swap1\n      mstore\n      pop\n        /* \"assignments/mul.sol\":854:857  arr */\n      0x00\n        /* \"assignments/mul.sol\":858:859  0 */\n      dup1\n        /* \"assignments/mul.sol\":854:860  arr[0] */\n      dup2\n      sload\n      dup2\n      lt\n      tag_41\n      jumpi\n      tag_42\n      tag_43\n      jump\t// in\n    tag_42:\n    tag_41:\n      swap1\n      0x00\n      mstore\n      keccak256(0x00, 0x20)\n      add\n        /* \"assignments/mul.sol\":866:868  s1 */\n      dup2\n        /* \"assignments/mul.sol\":854:869  arr[0].push(s1) */\n      swap1\n      dup1\n      0x01\n      dup2\n      sload\n      add\n      dup1\n      dup3\n      sstore\n      dup1\n      swap2\n      pop\n      pop\n      0x01\n      swap1\n      sub\n      swap1\n      0x00\n      mstore\n      keccak256(0x00, 0x20)\n      swap1\n      0x05\n      mul\n      add\n      0x00\n      swap1\n      swap2\n      swap1\n      swap2\n      swap1\n      swap2\n      pop\n      0x00\n      dup3\n      add\n      mload\n      dup2\n      0x00\n      add\n      swap1\n      dup2\n      tag_46\n      swap2\n      swap1\n      tag_47\n      jump\t// in\n    tag_46:\n      pop\n      0x20\n      dup3\n      add\n      mload\n      dup2\n      0x01\n      add\n      swap1\n      dup1\n      mload\n      swap1\n      0x20\n      add\n      swap1\n      tag_48\n      swap3\n      swap2\n      swap1\n      tag_49\n      jump\t// in\n    tag_48:\n      pop\n      0x40\n      dup3\n      add\n      mload\n      dup2\n      0x02\n      add\n      swap1\n      dup1\n      mload\n      swap1\n      0x20\n      add\n      swap1\n      tag_50\n      swap3\n      swap2\n      swap1\n      tag_51\n      jump\t// in\n    tag_50:\n      pop\n      0x60\n      dup3\n      add\n      mload\n      dup2\n      0x03\n      add\n      swap1\n      dup2\n      tag_52\n      swap2\n      swap1\n      tag_47\n      jump\t// in\n    tag_52:\n      pop\n      0x80\n      dup3\n      add\n      mload\n      dup2\n      0x04\n      add\n      swap1\n      dup2\n      tag_53\n      swap2\n      swap1\n      tag_47\n      jump\t// in\n    tag_53:\n      pop\n      pop\n      pop\n        /* \"assignments/mul.sol\":682:881  {... */\n      pop\n        /* \"assignments/mul.sol\":665:1640  if(arr.length==0){... */\n      jump(tag_54)\n    tag_38:\n        /* \"assignments/mul.sol\":914:920  uint i */\n      0x00\n        /* \"assignments/mul.sol\":910:1629  for(uint i=0;i<arr.length;i++){... */\n    tag_55:\n        /* \"assignments/mul.sol\":925:928  arr */\n      0x00\n        /* \"assignments/mul.sol\":925:935  arr.length */\n      dup1\n      sload\n      swap1\n      pop\n        /* \"assignments/mul.sol\":923:924  i */\n      dup2\n        /* \"assignments/mul.sol\":923:935  i<arr.length */\n      lt\n        /* \"assignments/mul.sol\":910:1629  for(uint i=0;i<arr.length;i++){... */\n      iszero\n      tag_56\n      jumpi\n        /* \"assignments/mul.sol\":1040:1041  u */\n      dup6\n        /* \"assignments/mul.sol\":1022:1043  abi.encodePacked((u)) */\n      add(0x20, mload(0x40))\n      tag_58\n      swap2\n      swap1\n      tag_59\n      jump\t// in\n    tag_58:\n      mload(0x40)\n      0x20\n      dup2\n      dup4\n      sub\n      sub\n      dup2\n      mstore\n      swap1\n      0x40\n      mstore\n        /* \"assignments/mul.sol\":1012:1044  keccak256(abi.encodePacked((u))) */\n      dup1\n      mload\n      swap1\n      0x20\n      add\n      keccak256\n        /* \"assignments/mul.sol\":990:993  arr */\n      0x00\n        /* \"assignments/mul.sol\":994:995  i */\n      dup3\n        /* \"assignments/mul.sol\":990:996  arr[i] */\n      dup2\n      sload\n      dup2\n      lt\n      tag_60\n      jumpi\n      tag_61\n      tag_43\n      jump\t// in\n    tag_61:\n    tag_60:\n      swap1\n      0x00\n      mstore\n      keccak256(0x00, 0x20)\n      add\n        /* \"assignments/mul.sol\":997:998  0 */\n      0x00\n        /* \"assignments/mul.sol\":990:999  arr[i][0] */\n      dup2\n      sload\n      dup2\n      lt\n      tag_63\n      jumpi\n      tag_64\n      tag_43\n      jump\t// in\n    tag_64:\n    tag_63:\n      swap1\n      0x00\n      mstore\n      keccak256(0x00, 0x20)\n      swap1\n      0x05\n      mul\n      add\n        /* \"assignments/mul.sol\":990:1007  arr[i][0].user_id */\n      0x00\n      add\n        /* \"assignments/mul.sol\":972:1009  abi.encodePacked((arr[i][0].user_id)) */\n      add(0x20, mload(0x40))\n      tag_66\n      swap2\n      swap1\n      tag_67\n      jump\t// in\n    tag_66:\n      mload(0x40)\n      0x20\n      dup2\n      dup4\n      sub\n      sub\n      dup2\n      mstore\n      swap1\n      0x40\n      mstore\n        /* \"assignments/mul.sol\":962:1010  keccak256(abi.encodePacked((arr[i][0].user_id))) */\n      dup1\n      mload\n      swap1\n      0x20\n      add\n      keccak256\n        /* \"assignments/mul.sol\":962:1044  keccak256(abi.encodePacked((arr[i][0].user_id)))==keccak256(abi.encodePacked((u))) */\n      sub\n        /* \"assignments/mul.sol\":959:1614  if(keccak256(abi.encodePacked((arr[i][0].user_id)))==keccak256(abi.encodePacked((u)))){... */\n      tag_68\n      jumpi\n        /* \"assignments/mul.sol\":1068:1080  l1 memory s1 */\n      tag_69\n      tag_40\n      jump\t// in\n    tag_69:\n        /* \"assignments/mul.sol\":1114:1115  u */\n      dup7\n        /* \"assignments/mul.sol\":1103:1105  s1 */\n      dup2\n        /* \"assignments/mul.sol\":1103:1113  s1.user_id */\n      0x00\n      add\n        /* \"assignments/mul.sol\":1103:1115  s1.user_id=u */\n      dup2\n      swap1\n      mstore\n      pop\n        /* \"assignments/mul.sol\":1146:1147  p */\n      dup6\n        /* \"assignments/mul.sol\":1138:1140  s1 */\n      dup2\n        /* \"assignments/mul.sol\":1138:1145  s1.prod */\n      0x20\n      add\n        /* \"assignments/mul.sol\":1138:1147  s1.prod=p */\n      dup2\n      swap1\n      mstore\n      pop\n        /* \"assignments/mul.sol\":1182:1184  n1 */\n      dup5\n        /* \"assignments/mul.sol\":1170:1172  s1 */\n      dup2\n        /* \"assignments/mul.sol\":1170:1181  s1.quantity */\n      0x40\n      add\n        /* \"assignments/mul.sol\":1170:1184  s1.quantity=n1 */\n      dup2\n      swap1\n      mstore\n      pop\n        /* \"assignments/mul.sol\":1215:1216  x */\n      dup4\n        /* \"assignments/mul.sol\":1207:1209  s1 */\n      dup2\n        /* \"assignments/mul.sol\":1207:1214  s1.date */\n      0x60\n      add\n        /* \"assignments/mul.sol\":1207:1216  s1.date=x */\n      dup2\n      swap1\n      mstore\n      pop\n        /* \"assignments/mul.sol\":1249:1250  y */\n      dup3\n        /* \"assignments/mul.sol\":1239:1241  s1 */\n      dup2\n        /* \"assignments/mul.sol\":1239:1248  s1.status */\n      0x80\n      add\n        /* \"assignments/mul.sol\":1239:1250  s1.status=y */\n      dup2\n      swap1\n      mstore\n      pop\n        /* \"assignments/mul.sol\":1273:1276  arr */\n      0x00\n        /* \"assignments/mul.sol\":1277:1278  i */\n      dup3\n        /* \"assignments/mul.sol\":1273:1279  arr[i] */\n      dup2\n      sload\n      dup2\n      lt\n      tag_70\n      jumpi\n      tag_71\n      tag_43\n      jump\t// in\n    tag_71:\n    tag_70:\n      swap1\n      0x00\n      mstore\n      keccak256(0x00, 0x20)\n      add\n        /* \"assignments/mul.sol\":1285:1287  s1 */\n      dup2\n        /* \"assignments/mul.sol\":1273:1288  arr[i].push(s1) */\n      swap1\n      dup1\n      0x01\n      dup2\n      sload\n      add\n      dup1\n      dup3\n      sstore\n      dup1\n      swap2\n      pop\n      pop\n      0x01\n      swap1\n      sub\n      swap1\n      0x00\n      mstore\n      keccak256(0x00, 0x20)\n      swap1\n      0x05\n      mul\n      add\n      0x00\n      swap1\n      swap2\n      swap1\n      swap2\n      swap1\n      swap2\n      pop\n      0x00\n      dup3\n      add\n      mload\n      dup2\n      0x00\n      add\n      swap1\n      dup2\n      tag_74\n      swap2\n      swap1\n      tag_47\n      jump\t// in\n    tag_74:\n      pop\n      0x20\n      dup3\n      add\n      mload\n      dup2\n      0x01\n      add\n      swap1\n      dup1\n      mload\n      swap1\n      0x20\n      add\n      swap1\n      tag_75\n      swap3\n      swap2\n      swap1\n      tag_49\n      jump\t// in\n    tag_75:\n      pop\n      0x40\n      dup3\n      add\n      mload\n      dup2\n      0x02\n      add\n      swap1\n      dup1\n      mload\n      swap1\n      0x20\n      add\n      swap1\n      tag_76\n      swap3\n      swap2\n      swap1\n      tag_51\n      jump\t// in\n    tag_76:\n      pop\n      0x60\n      dup3\n      add\n      mload\n      dup2\n      0x03\n      add\n      swap1\n      dup2\n      tag_77\n      swap2\n      swap1\n      tag_47\n      jump\t// in\n    tag_77:\n      pop\n      0x80\n      dup3\n      add\n      mload\n      dup2\n      0x04\n      add\n      swap1\n      dup2\n      tag_78\n      swap2\n      swap1\n      tag_47\n      jump\t// in\n    tag_78:\n      pop\n      pop\n      pop\n        /* \"assignments/mul.sol\":1045:1308  {... */\n      pop\n        /* \"assignments/mul.sol\":959:1614  if(keccak256(abi.encodePacked((arr[i][0].user_id)))==keccak256(abi.encodePacked((u)))){... */\n      jump(tag_79)\n    tag_68:\n        /* \"assignments/mul.sol\":1349:1350  0 */\n      0x00\n        /* \"assignments/mul.sol\":1334:1337  arr */\n      dup1\n        /* \"assignments/mul.sol\":1338:1339  i */\n      dup3\n        /* \"assignments/mul.sol\":1334:1340  arr[i] */\n      dup2\n      sload\n      dup2\n      lt\n      tag_80\n      jumpi\n      tag_81\n      tag_43\n      jump\t// in\n    tag_81:\n    tag_80:\n      swap1\n      0x00\n      mstore\n      keccak256(0x00, 0x20)\n      add\n        /* \"assignments/mul.sol\":1334:1347  arr[i].length */\n      dup1\n      sload\n      swap1\n      pop\n        /* \"assignments/mul.sol\":1334:1350  arr[i].length==0 */\n      sub\n        /* \"assignments/mul.sol\":1331:1614  if(arr[i].length==0){... */\n      tag_83\n      jumpi\n        /* \"assignments/mul.sol\":1374:1386  l1 memory s1 */\n      tag_84\n      tag_40\n      jump\t// in\n    tag_84:\n        /* \"assignments/mul.sol\":1420:1421  u */\n      dup7\n        /* \"assignments/mul.sol\":1409:1411  s1 */\n      dup2\n        /* \"assignments/mul.sol\":1409:1419  s1.user_id */\n      0x00\n      add\n        /* \"assignments/mul.sol\":1409:1421  s1.user_id=u */\n      dup2\n      swap1\n      mstore\n      pop\n        /* \"assignments/mul.sol\":1452:1453  p */\n      dup6\n        /* \"assignments/mul.sol\":1444:1446  s1 */\n      dup2\n        /* \"assignments/mul.sol\":1444:1451  s1.prod */\n      0x20\n      add\n        /* \"assignments/mul.sol\":1444:1453  s1.prod=p */\n      dup2\n      swap1\n      mstore\n      pop\n        /* \"assignments/mul.sol\":1488:1490  n1 */\n      dup5\n        /* \"assignments/mul.sol\":1476:1478  s1 */\n      dup2\n        /* \"assignments/mul.sol\":1476:1487  s1.quantity */\n      0x40\n      add\n        /* \"assignments/mul.sol\":1476:1490  s1.quantity=n1 */\n      dup2\n      swap1\n      mstore\n      pop\n        /* \"assignments/mul.sol\":1521:1522  x */\n      dup4\n        /* \"assignments/mul.sol\":1513:1515  s1 */\n      dup2\n        /* \"assignments/mul.sol\":1513:1520  s1.date */\n      0x60\n      add\n        /* \"assignments/mul.sol\":1513:1522  s1.date=x */\n      dup2\n      swap1\n      mstore\n      pop\n        /* \"assignments/mul.sol\":1555:1556  y */\n      dup3\n        /* \"assignments/mul.sol\":1545:1547  s1 */\n      dup2\n        /* \"assignments/mul.sol\":1545:1554  s1.status */\n      0x80\n      add\n        /* \"assignments/mul.sol\":1545:1556  s1.status=y */\n      dup2\n      swap1\n      mstore\n      pop\n        /* \"assignments/mul.sol\":1579:1582  arr */\n      0x00\n        /* \"assignments/mul.sol\":1583:1584  i */\n      dup3\n        /* \"assignments/mul.sol\":1579:1585  arr[i] */\n      dup2\n      sload\n      dup2\n      lt\n      tag_85\n      jumpi\n      tag_86\n      tag_43\n      jump\t// in\n    tag_86:\n    tag_85:\n      swap1\n      0x00\n      mstore\n      keccak256(0x00, 0x20)\n      add\n        /* \"assignments/mul.sol\":1591:1593  s1 */\n      dup2\n        /* \"assignments/mul.sol\":1579:1594  arr[i].push(s1) */\n      swap1\n      dup1\n      0x01\n      dup2\n      sload\n      add\n      dup1\n      dup3\n      sstore\n      dup1\n      swap2\n      pop\n      pop\n      0x01\n      swap1\n      sub\n      swap1\n      0x00\n      mstore\n      keccak256(0x00, 0x20)\n      swap1\n      0x05\n      mul\n      add\n      0x00\n      swap1\n      swap2\n      swap1\n      swap2\n      swap1\n      swap2\n      pop\n      0x00\n      dup3\n      add\n      mload\n      dup2\n      0x00\n      add\n      swap1\n      dup2\n      tag_89\n      swap2\n      swap1\n      tag_47\n      jump\t// in\n    tag_89:\n      pop\n      0x20\n      dup3\n      add\n      mload\n      dup2\n      0x01\n      add\n      swap1\n      dup1\n      mload\n      swap1\n      0x20\n      add\n      swap1\n      tag_90\n      swap3\n      swap2\n      swap1\n      tag_49\n      jump\t// in\n    tag_90:\n      pop\n      0x40\n      dup3\n      add\n      mload\n      dup2\n      0x02\n      add\n      swap1\n      dup1\n      mload\n      swap1\n      0x20\n      add\n      swap1\n      tag_91\n      swap3\n      swap2\n      swap1\n      tag_51\n      jump\t// in\n    tag_91:\n      pop\n      0x60\n      dup3\n      add\n      mload\n      dup2\n      0x03\n      add\n      swap1\n      dup2\n      tag_92\n      swap2\n      swap1\n      tag_47\n      jump\t// in\n    tag_92:\n      pop\n      0x80\n      dup3\n      add\n      mload\n      dup2\n      0x04\n      add\n      swap1\n      dup2\n      tag_93\n      swap2\n      swap1\n      tag_47\n      jump\t// in\n    tag_93:\n      pop\n      pop\n      pop\n        /* \"assignments/mul.sol\":1351:1614  {... */\n      pop\n        /* \"assignments/mul.sol\":1331:1614  if(arr[i].length==0){... */\n    tag_83:\n        /* \"assignments/mul.sol\":959:1614  if(keccak256(abi.encodePacked((arr[i][0].user_id)))==keccak256(abi.encodePacked((u)))){... */\n    tag_79:\n        /* \"assignments/mul.sol\":936:939  i++ */\n      dup1\n      dup1\n      tag_94\n      swap1\n      tag_95\n      jump\t// in\n    tag_94:\n      swap2\n      pop\n      pop\n        /* \"assignments/mul.sol\":910:1629  for(uint i=0;i<arr.length;i++){... */\n      jump(tag_55)\n    tag_56:\n      pop\n        /* \"assignments/mul.sol\":665:1640  if(arr.length==0){... */\n    tag_54:\n        /* \"assignments/mul.sol\":542:1647  function push_element(string memory u,string[] memory p,int[] memory n1,string memory x,string memory y) public {... */\n      pop\n      pop\n      pop\n      pop\n      pop\n      jump\t// out\n        /* \"assignments/mul.sol\":480:497  l1[][] public arr */\n    tag_16:\n      0x00\n      dup3\n      dup2\n      sload\n      dup2\n      lt\n      tag_96\n      jumpi\n      0x00\n      dup1\n      revert\n    tag_96:\n      swap1\n      0x00\n      mstore\n      keccak256(0x00, 0x20)\n      add\n      dup2\n      dup2\n      sload\n      dup2\n      lt\n      tag_98\n      jumpi\n      0x00\n      dup1\n      revert\n    tag_98:\n      swap1\n      0x00\n      mstore\n      keccak256(0x00, 0x20)\n      swap1\n      0x05\n      mul\n      add\n      0x00\n      swap2\n      pop\n      swap2\n      pop\n      pop\n      dup1\n      0x00\n      add\n      dup1\n      sload\n      tag_100\n      swap1\n      tag_101\n      jump\t// in\n    tag_100:\n      dup1\n      0x1f\n      add\n      0x20\n      dup1\n      swap2\n      div\n      mul\n      0x20\n      add\n      mload(0x40)\n      swap1\n      dup2\n      add\n      0x40\n      mstore\n      dup1\n      swap3\n      swap2\n      swap1\n      dup2\n      dup2\n      mstore\n      0x20\n      add\n      dup3\n      dup1\n      sload\n      tag_102\n      swap1\n      tag_101\n      jump\t// in\n    tag_102:\n      dup1\n      iszero\n      tag_103\n      jumpi\n      dup1\n      0x1f\n      lt\n      tag_104\n      jumpi\n      0x0100\n      dup1\n      dup4\n      sload\n      div\n      mul\n      dup4\n      mstore\n      swap2\n      0x20\n      add\n      swap2\n      jump(tag_103)\n    tag_104:\n      dup3\n      add\n      swap2\n      swap1\n      0x00\n      mstore\n      keccak256(0x00, 0x20)\n      swap1\n    tag_105:\n      dup2\n      sload\n      dup2\n      mstore\n      swap1\n      0x01\n      add\n      swap1\n      0x20\n      add\n      dup1\n      dup4\n      gt\n      tag_105\n      jumpi\n      dup3\n      swap1\n      sub\n      0x1f\n      and\n      dup3\n      add\n      swap2\n    tag_103:\n      pop\n      pop\n      pop\n      pop\n      pop\n      swap1\n      dup1\n      0x03\n      add\n      dup1\n      sload\n      tag_106\n      swap1\n      tag_101\n      jump\t// in\n    tag_106:\n      dup1\n      0x1f\n      add\n      0x20\n      dup1\n      swap2\n      div\n      mul\n      0x20\n      add\n      mload(0x40)\n      swap1\n      dup2\n      add\n      0x40\n      mstore\n      dup1\n      swap3\n      swap2\n      swap1\n      dup2\n      dup2\n      mstore\n      0x20\n      add\n      dup3\n      dup1\n      sload\n      tag_107\n      swap1\n      tag_101\n      jump\t// in\n    tag_107:\n      dup1\n      iszero\n      tag_108\n      jumpi\n      dup1\n      0x1f\n      lt\n      tag_109\n      jumpi\n      0x0100\n      dup1\n      dup4\n      sload\n      div\n      mul\n      dup4\n      mstore\n      swap2\n      0x20\n      add\n      swap2\n      jump(tag_108)\n    tag_109:\n      dup3\n      add\n      swap2\n      swap1\n      0x00\n      mstore\n      keccak256(0x00, 0x20)\n      swap1\n    tag_110:\n      dup2\n      sload\n      dup2\n      mstore\n      swap1\n      0x01\n      add\n      swap1\n      0x20\n      add\n      dup1\n      dup4\n      gt\n      tag_110\n      jumpi\n      dup3\n      swap1\n      sub\n      0x1f\n      and\n      dup3\n      add\n      swap2\n    tag_108:\n      pop\n      pop\n      pop\n      pop\n      pop\n      swap1\n      dup1\n      0x04\n      add\n      dup1\n      sload\n      tag_111\n      swap1\n      tag_101\n      jump\t// in\n    tag_111:\n      dup1\n      0x1f\n      add\n      0x20\n      dup1\n      swap2\n      div\n      mul\n      0x20\n      add\n      mload(0x40)\n      swap1\n      dup2\n      add\n      0x40\n      mstore\n      dup1\n      swap3\n      swap2\n      swap1\n      dup2\n      dup2\n      mstore\n      0x20\n      add\n      dup3\n      dup1\n      sload\n      tag_112\n      swap1\n      tag_101\n      jump\t// in\n    tag_112:\n      dup1\n      iszero\n      tag_113\n      jumpi\n      dup1\n      0x1f\n      lt\n      tag_114\n      jumpi\n      0x0100\n      dup1\n      dup4\n      sload\n      div\n      mul\n      dup4\n      mstore\n      swap2\n      0x20\n      add\n      swap2\n      jump(tag_113)\n    tag_114:\n      dup3\n      add\n      swap2\n      swap1\n      0x00\n      mstore\n      keccak256(0x00, 0x20)\n      swap1\n    tag_115:\n      dup2\n      sload\n      dup2\n      mstore\n      swap1\n      0x01\n      add\n      swap1\n      0x20\n      add\n      dup1\n      dup4\n      gt\n      tag_115\n      jumpi\n      dup3\n      swap1\n      sub\n      0x1f\n      and\n      dup3\n      add\n      swap2\n    tag_113:\n      pop\n      pop\n      pop\n      pop\n      pop\n      swap1\n      pop\n      dup4\n      jump\t// out\n        /* \"assignments/mul.sol\":2497:2586  function getMyStructs() public view returns (l1[][] memory) {... */\n    tag_20:\n        /* \"assignments/mul.sol\":2542:2555  l1[][] memory */\n      0x60\n        /* \"assignments/mul.sol\":2575:2578  arr */\n      0x00\n        /* \"assignments/mul.sol\":2568:2578  return arr */\n      dup1\n      sload\n      dup1\n      0x20\n      mul\n      0x20\n      add\n      mload(0x40)\n      swap1\n      dup2\n      add\n      0x40\n      mstore\n      dup1\n      swap3\n      swap2\n      swap1\n      dup2\n      dup2\n      mstore\n      0x20\n      add\n      0x00\n      swap1\n    tag_117:\n      dup3\n      dup3\n      lt\n      iszero\n      tag_118\n      jumpi\n      dup4\n      dup3\n      swap1\n      0x00\n      mstore\n      keccak256(0x00, 0x20)\n      add\n      dup1\n      sload\n      dup1\n      0x20\n      mul\n      0x20\n      add\n      mload(0x40)\n      swap1\n      dup2\n      add\n      0x40\n      mstore\n      dup1\n      swap3\n      swap2\n      swap1\n      dup2\n      dup2\n      mstore\n      0x20\n      add\n      0x00\n      swap1\n    tag_120:\n      dup3\n      dup3\n      lt\n      iszero\n      tag_121\n      jumpi\n      dup4\n      dup3\n      swap1\n      0x00\n      mstore\n      keccak256(0x00, 0x20)\n      swap1\n      0x05\n      mul\n      add\n      mload(0x40)\n      dup1\n      0xa0\n      add\n      0x40\n      mstore\n      swap1\n      dup2\n      0x00\n      dup3\n      add\n      dup1\n      sload\n      tag_123\n      swap1\n      tag_101\n      jump\t// in\n    tag_123:\n      dup1\n      0x1f\n      add\n      0x20\n      dup1\n      swap2\n      div\n      mul\n      0x20\n      add\n      mload(0x40)\n      swap1\n      dup2\n      add\n      0x40\n      mstore\n      dup1\n      swap3\n      swap2\n      swap1\n      dup2\n      dup2\n      mstore\n      0x20\n      add\n      dup3\n      dup1\n      sload\n      tag_124\n      swap1\n      tag_101\n      jump\t// in\n    tag_124:\n      dup1\n      iszero\n      tag_125\n      jumpi\n      dup1\n      0x1f\n      lt\n      tag_126\n      jumpi\n      0x0100\n      dup1\n      dup4\n      sload\n      div\n      mul\n      dup4\n      mstore\n      swap2\n      0x20\n      add\n      swap2\n      jump(tag_125)\n    tag_126:\n      dup3\n      add\n      swap2\n      swap1\n      0x00\n      mstore\n      keccak256(0x00, 0x20)\n      swap1\n    tag_127:\n      dup2\n      sload\n      dup2\n      mstore\n      swap1\n      0x01\n      add\n      swap1\n      0x20\n      add\n      dup1\n      dup4\n      gt\n      tag_127\n      jumpi\n      dup3\n      swap1\n      sub\n      0x1f\n      and\n      dup3\n      add\n      swap2\n    tag_125:\n      pop\n      pop\n      pop\n      pop\n      pop\n      dup2\n      mstore\n      0x20\n      add\n      0x01\n      dup3\n      add\n      dup1\n      sload\n      dup1\n      0x20\n      mul\n      0x20\n      add\n      mload(0x40)\n      swap1\n      dup2\n      add\n      0x40\n      mstore\n      dup1\n      swap3\n      swap2\n      swap1\n      dup2\n      dup2\n      mstore\n      0x20\n      add\n      0x00\n      swap1\n    tag_128:\n      dup3\n      dup3\n      lt\n      iszero\n      tag_129\n      jumpi\n      dup4\n      dup3\n      swap1\n      0x00\n      mstore\n      keccak256(0x00, 0x20)\n      add\n      dup1\n      sload\n      tag_131\n      swap1\n      tag_101\n      jump\t// in\n    tag_131:\n      dup1\n      0x1f\n      add\n      0x20\n      dup1\n      swap2\n      div\n      mul\n      0x20\n      add\n      mload(0x40)\n      swap1\n      dup2\n      add\n      0x40\n      mstore\n      dup1\n      swap3\n      swap2\n      swap1\n      dup2\n      dup2\n      mstore\n      0x20\n      add\n      dup3\n      dup1\n      sload\n      tag_132\n      swap1\n      tag_101\n      jump\t// in\n    tag_132:\n      dup1\n      iszero\n      tag_133\n      jumpi\n      dup1\n      0x1f\n      lt\n      tag_134\n      jumpi\n      0x0100\n      dup1\n      dup4\n      sload\n      div\n      mul\n      dup4\n      mstore\n      swap2\n      0x20\n      add\n      swap2\n      jump(tag_133)\n    tag_134:\n      dup3\n      add\n      swap2\n      swap1\n      0x00\n      mstore\n      keccak256(0x00, 0x20)\n      swap1\n    tag_135:\n      dup2\n      sload\n      dup2\n      mstore\n      swap1\n      0x01\n      add\n      swap1\n      0x20\n      add\n      dup1\n      dup4\n      gt\n      tag_135\n      jumpi\n      dup3\n      swap1\n      sub\n      0x1f\n      and\n      dup3\n      add\n      swap2\n    tag_133:\n      pop\n      pop\n      pop\n      pop\n      pop\n      dup2\n      mstore\n      0x20\n      add\n      swap1\n      0x01\n      add\n      swap1\n      jump(tag_128)\n    tag_129:\n      pop\n      pop\n      pop\n      pop\n      dup2\n      mstore\n      0x20\n      add\n      0x02\n      dup3\n      add\n      dup1\n      sload\n      dup1\n      0x20\n      mul\n      0x20\n      add\n      mload(0x40)\n      swap1\n      dup2\n      add\n      0x40\n      mstore\n      dup1\n      swap3\n      swap2\n      swap1\n      dup2\n      dup2\n      mstore\n      0x20\n      add\n      dup3\n      dup1\n      sload\n      dup1\n      iszero\n      tag_136\n      jumpi\n      0x20\n      mul\n      dup3\n      add\n      swap2\n      swap1\n      0x00\n      mstore\n      keccak256(0x00, 0x20)\n      swap1\n    tag_137:\n      dup2\n      sload\n      dup2\n      mstore\n      0x20\n      add\n      swap1\n      0x01\n      add\n      swap1\n      dup1\n      dup4\n      gt\n      tag_137\n      jumpi\n    tag_136:\n      pop\n      pop\n      pop\n      pop\n      pop\n      dup2\n      mstore\n      0x20\n      add\n      0x03\n      dup3\n      add\n      dup1\n      sload\n      tag_138\n      swap1\n      tag_101\n      jump\t// in\n    tag_138:\n      dup1\n      0x1f\n      add\n      0x20\n      dup1\n      swap2\n      div\n      mul\n      0x20\n      add\n      mload(0x40)\n      swap1\n      dup2\n      add\n      0x40\n      mstore\n      dup1\n      swap3\n      swap2\n      swap1\n      dup2\n      dup2\n      mstore\n      0x20\n      add\n      dup3\n      dup1\n      sload\n      tag_139\n      swap1\n      tag_101\n      jump\t// in\n    tag_139:\n      dup1\n      iszero\n      tag_140\n      jumpi\n      dup1\n      0x1f\n      lt\n      tag_141\n      jumpi\n      0x0100\n      dup1\n      dup4\n      sload\n      div\n      mul\n      dup4\n      mstore\n      swap2\n      0x20\n      add\n      swap2\n      jump(tag_140)\n    tag_141:\n      dup3\n      add\n      swap2\n      swap1\n      0x00\n      mstore\n      keccak256(0x00, 0x20)\n      swap1\n    tag_142:\n      dup2\n      sload\n      dup2\n      mstore\n      swap1\n      0x01\n      add\n      swap1\n      0x20\n      add\n      dup1\n      dup4\n      gt\n      tag_142\n      jumpi\n      dup3\n      swap1\n      sub\n      0x1f\n      and\n      dup3\n      add\n      swap2\n    tag_140:\n      pop\n      pop\n      pop\n      pop\n      pop\n      dup2\n      mstore\n      0x20\n      add\n      0x04\n      dup3\n      add\n      dup1\n      sload\n      tag_143\n      swap1\n      tag_101\n      jump\t// in\n    tag_143:\n      dup1\n      0x1f\n      add\n      0x20\n      dup1\n      swap2\n      div\n      mul\n      0x20\n      add\n      mload(0x40)\n      swap1\n      dup2\n      add\n      0x40\n      mstore\n      dup1\n      swap3\n      swap2\n      swap1\n      dup2\n      dup2\n      mstore\n      0x20\n      add\n      dup3\n      dup1\n      sload\n      tag_144\n      swap1\n      tag_101\n      jump\t// in\n    tag_144:\n      dup1\n      iszero\n      tag_145\n      jumpi\n      dup1\n      0x1f\n      lt\n      tag_146\n      jumpi\n      0x0100\n      dup1\n      dup4\n      sload\n      div\n      mul\n      dup4\n      mstore\n      swap2\n      0x20\n      add\n      swap2\n      jump(tag_145)\n    tag_146:\n      dup3\n      add\n      swap2\n      swap1\n      0x00\n      mstore\n      keccak256(0x00, 0x20)\n      swap1\n    tag_147:\n      dup2\n      sload\n      dup2\n      mstore\n      swap1\n      0x01\n      add\n      swap1\n      0x20\n      add\n      dup1\n      dup4\n      gt\n      tag_147\n      jumpi\n      dup3\n      swap1\n      sub\n      0x1f\n      and\n      dup3\n      add\n      swap2\n    tag_145:\n      pop\n      pop\n      pop\n      pop\n      pop\n      dup2\n      mstore\n      pop\n      pop\n      dup2\n      mstore\n      0x20\n      add\n      swap1\n      0x01\n      add\n      swap1\n      jump(tag_120)\n    tag_121:\n      pop\n      pop\n      pop\n      pop\n      dup2\n      mstore\n      0x20\n      add\n      swap1\n      0x01\n      add\n      swap1\n      jump(tag_117)\n    tag_118:\n      pop\n      pop\n      pop\n      pop\n      swap1\n      pop\n        /* \"assignments/mul.sol\":2497:2586  function getMyStructs() public view returns (l1[][] memory) {... */\n      swap1\n      jump\t// out\n        /* \"assignments/mul.sol\":2683:2759  function len() public view returns(uint){... */\n    tag_24:\n        /* \"assignments/mul.sol\":2718:2722  uint */\n      0x00\n        /* \"assignments/mul.sol\":2741:2744  arr */\n      dup1\n        /* \"assignments/mul.sol\":2741:2751  arr.length */\n      dup1\n      sload\n      swap1\n      pop\n        /* \"assignments/mul.sol\":2734:2751  return arr.length */\n      swap1\n      pop\n        /* \"assignments/mul.sol\":2683:2759  function len() public view returns(uint){... */\n      swap1\n      jump\t// out\n        /* \"assignments/mul.sol\":2592:2677  function getquotes() public view returns (l2[] memory) {... */\n    tag_28:\n        /* \"assignments/mul.sol\":2634:2645  l2[] memory */\n      0x60\n        /* \"assignments/mul.sol\":2665:2669  arr2 */\n      0x01\n        /* \"assignments/mul.sol\":2658:2669  return arr2 */\n      dup1\n      sload\n      dup1\n      0x20\n      mul\n      0x20\n      add\n      mload(0x40)\n      swap1\n      dup2\n      add\n      0x40\n      mstore\n      dup1\n      swap3\n      swap2\n      swap1\n      dup2\n      dup2\n      mstore\n      0x20\n      add\n      0x00\n      swap1\n    tag_150:\n      dup3\n      dup3\n      lt\n      iszero\n      tag_151\n      jumpi\n      dup4\n      dup3\n      swap1\n      0x00\n      mstore\n      keccak256(0x00, 0x20)\n      swap1\n      0x0a\n      mul\n      add\n      mload(0x40)\n      dup1\n      0x0140\n      add\n      0x40\n      mstore\n      swap1\n      dup2\n      0x00\n      dup3\n      add\n      dup1\n      sload\n      tag_153\n      swap1\n      tag_101\n      jump\t// in\n    tag_153:\n      dup1\n      0x1f\n      add\n      0x20\n      dup1\n      swap2\n      div\n      mul\n      0x20\n      add\n      mload(0x40)\n      swap1\n      dup2\n      add\n      0x40\n      mstore\n      dup1\n      swap3\n      swap2\n      swap1\n      dup2\n      dup2\n      mstore\n      0x20\n      add\n      dup3\n      dup1\n      sload\n      tag_154\n      swap1\n      tag_101\n      jump\t// in\n    tag_154:\n      dup1\n      iszero\n      tag_155\n      jumpi\n      dup1\n      0x1f\n      lt\n      tag_156\n      jumpi\n      0x0100\n      dup1\n      dup4\n      sload\n      div\n      mul\n      dup4\n      mstore\n      swap2\n      0x20\n      add\n      swap2\n      jump(tag_155)\n    tag_156:\n      dup3\n      add\n      swap2\n      swap1\n      0x00\n      mstore\n      keccak256(0x00, 0x20)\n      swap1\n    tag_157:\n      dup2\n      sload\n      dup2\n      mstore\n      swap1\n      0x01\n      add\n      swap1\n      0x20\n      add\n      dup1\n      dup4\n      gt\n      tag_157\n      jumpi\n      dup3\n      swap1\n      sub\n      0x1f\n      and\n      dup3\n      add\n      swap2\n    tag_155:\n      pop\n      pop\n      pop\n      pop\n      pop\n      dup2\n      mstore\n      0x20\n      add\n      0x01\n      dup3\n      add\n      dup1\n      sload\n      dup1\n      0x20\n      mul\n      0x20\n      add\n      mload(0x40)\n      swap1\n      dup2\n      add\n      0x40\n      mstore\n      dup1\n      swap3\n      swap2\n      swap1\n      dup2\n      dup2\n      mstore\n      0x20\n      add\n      0x00\n      swap1\n    tag_158:\n      dup3\n      dup3\n      lt\n      iszero\n      tag_159\n      jumpi\n      dup4\n      dup3\n      swap1\n      0x00\n      mstore\n      keccak256(0x00, 0x20)\n      add\n      dup1\n      sload\n      tag_161\n      swap1\n      tag_101\n      jump\t// in\n    tag_161:\n      dup1\n      0x1f\n      add\n      0x20\n      dup1\n      swap2\n      div\n      mul\n      0x20\n      add\n      mload(0x40)\n      swap1\n      dup2\n      add\n      0x40\n      mstore\n      dup1\n      swap3\n      swap2\n      swap1\n      dup2\n      dup2\n      mstore\n      0x20\n      add\n      dup3\n      dup1\n      sload\n      tag_162\n      swap1\n      tag_101\n      jump\t// in\n    tag_162:\n      dup1\n      iszero\n      tag_163\n      jumpi\n      dup1\n      0x1f\n      lt\n      tag_164\n      jumpi\n      0x0100\n      dup1\n      dup4\n      sload\n      div\n      mul\n      dup4\n      mstore\n      swap2\n      0x20\n      add\n      swap2\n      jump(tag_163)\n    tag_164:\n      dup3\n      add\n      swap2\n      swap1\n      0x00\n      mstore\n      keccak256(0x00, 0x20)\n      swap1\n    tag_165:\n      dup2\n      sload\n      dup2\n      mstore\n      swap1\n      0x01\n      add\n      swap1\n      0x20\n      add\n      dup1\n      dup4\n      gt\n      tag_165\n      jumpi\n      dup3\n      swap1\n      sub\n      0x1f\n      and\n      dup3\n      add\n      swap2\n    tag_163:\n      pop\n      pop\n      pop\n      pop\n      pop\n      dup2\n      mstore\n      0x20\n      add\n      swap1\n      0x01\n      add\n      swap1\n      jump(tag_158)\n    tag_159:\n      pop\n      pop\n      pop\n      pop\n      dup2\n      mstore\n      0x20\n      add\n      0x02\n      dup3\n      add\n      dup1\n      sload\n      dup1\n      0x20\n      mul\n      0x20\n      add\n      mload(0x40)\n      swap1\n      dup2\n      add\n      0x40\n      mstore\n      dup1\n      swap3\n      swap2\n      swap1\n      dup2\n      dup2\n      mstore\n      0x20\n      add\n      dup3\n      dup1\n      sload\n      dup1\n      iszero\n      tag_166\n      jumpi\n      0x20\n      mul\n      dup3\n      add\n      swap2\n      swap1\n      0x00\n      mstore\n      keccak256(0x00, 0x20)\n      swap1\n    tag_167:\n      dup2\n      sload\n      dup2\n      mstore\n      0x20\n      add\n      swap1\n      0x01\n      add\n      swap1\n      dup1\n      dup4\n      gt\n      tag_167\n      jumpi\n    tag_166:\n      pop\n      pop\n      pop\n      pop\n      pop\n      dup2\n      mstore\n      0x20\n      add\n      0x03\n      dup3\n      add\n      dup1\n      sload\n      tag_168\n      swap1\n      tag_101\n      jump\t// in\n    tag_168:\n      dup1\n      0x1f\n      add\n      0x20\n      dup1\n      swap2\n      div\n      mul\n      0x20\n      add\n      mload(0x40)\n      swap1\n      dup2\n      add\n      0x40\n      mstore\n      dup1\n      swap3\n      swap2\n      swap1\n      dup2\n      dup2\n      mstore\n      0x20\n      add\n      dup3\n      dup1\n      sload\n      tag_169\n      swap1\n      tag_101\n      jump\t// in\n    tag_169:\n      dup1\n      iszero\n      tag_170\n      jumpi\n      dup1\n      0x1f\n      lt\n      tag_171\n      jumpi\n      0x0100\n      dup1\n      dup4\n      sload\n      div\n      mul\n      dup4\n      mstore\n      swap2\n      0x20\n      add\n      swap2\n      jump(tag_170)\n    tag_171:\n      dup3\n      add\n      swap2\n      swap1\n      0x00\n      mstore\n      keccak256(0x00, 0x20)\n      swap1\n    tag_172:\n      dup2\n      sload\n      dup2\n      mstore\n      swap1\n      0x01\n      add\n      swap1\n      0x20\n      add\n      dup1\n      dup4\n      gt\n      tag_172\n      jumpi\n      dup3\n      swap1\n      sub\n      0x1f\n      and\n      dup3\n      add\n      swap2\n    tag_170:\n      pop\n      pop\n      pop\n      pop\n      pop\n      dup2\n      mstore\n      0x20\n      add\n      0x04\n      dup3\n      add\n      dup1\n      sload\n      tag_173\n      swap1\n      tag_101\n      jump\t// in\n    tag_173:\n      dup1\n      0x1f\n      add\n      0x20\n      dup1\n      swap2\n      div\n      mul\n      0x20\n      add\n      mload(0x40)\n      swap1\n      dup2\n      add\n      0x40\n      mstore\n      dup1\n      swap3\n      swap2\n      swap1\n      dup2\n      dup2\n      mstore\n      0x20\n      add\n      dup3\n      dup1\n      sload\n      tag_174\n      swap1\n      tag_101\n      jump\t// in\n    tag_174:\n      dup1\n      iszero\n      tag_175\n      jumpi\n      dup1\n      0x1f\n      lt\n      tag_176\n      jumpi\n      0x0100\n      dup1\n      dup4\n      sload\n      div\n      mul\n      dup4\n      mstore\n      swap2\n      0x20\n      add\n      swap2\n      jump(tag_175)\n    tag_176:\n      dup3\n      add\n      swap2\n      swap1\n      0x00\n      mstore\n      keccak256(0x00, 0x20)\n      swap1\n    tag_177:\n      dup2\n      sload\n      dup2\n      mstore\n      swap1\n      0x01\n      add\n      swap1\n      0x20\n      add\n      dup1\n      dup4\n      gt\n      tag_177\n      jumpi\n      dup3\n      swap1\n      sub\n      0x1f\n      and\n      dup3\n      add\n      swap2\n    tag_175:\n      pop\n      pop\n      pop\n      pop\n      pop\n      dup2\n      mstore\n      0x20\n      add\n      0x05\n      dup3\n      add\n      dup1\n      sload\n      dup1\n      0x20\n      mul\n      0x20\n      add\n      mload(0x40)\n      swap1\n      dup2\n      add\n      0x40\n      mstore\n      dup1\n      swap3\n      swap2\n      swap1\n      dup2\n      dup2\n      mstore\n      0x20\n      add\n      dup3\n      dup1\n      sload\n      dup1\n      iszero\n      tag_178\n      jumpi\n      0x20\n      mul\n      dup3\n      add\n      swap2\n      swap1\n      0x00\n      mstore\n      keccak256(0x00, 0x20)\n      swap1\n    tag_179:\n      dup2\n      sload\n      dup2\n      mstore\n      0x20\n      add\n      swap1\n      0x01\n      add\n      swap1\n      dup1\n      dup4\n      gt\n      tag_179\n      jumpi\n    tag_178:\n      pop\n      pop\n      pop\n      pop\n      pop\n      dup2\n      mstore\n      0x20\n      add\n      0x06\n      dup3\n      add\n      dup1\n      sload\n      tag_180\n      swap1\n      tag_101\n      jump\t// in\n    tag_180:\n      dup1\n      0x1f\n      add\n      0x20\n      dup1\n      swap2\n      div\n      mul\n      0x20\n      add\n      mload(0x40)\n      swap1\n      dup2\n      add\n      0x40\n      mstore\n      dup1\n      swap3\n      swap2\n      swap1\n      dup2\n      dup2\n      mstore\n      0x20\n      add\n      dup3\n      dup1\n      sload\n      tag_181\n      swap1\n      tag_101\n      jump\t// in\n    tag_181:\n      dup1\n      iszero\n      tag_182\n      jumpi\n      dup1\n      0x1f\n      lt\n      tag_183\n      jumpi\n      0x0100\n      dup1\n      dup4\n      sload\n      div\n      mul\n      dup4\n      mstore\n      swap2\n      0x20\n      add\n      swap2\n      jump(tag_182)\n    tag_183:\n      dup3\n      add\n      swap2\n      swap1\n      0x00\n      mstore\n      keccak256(0x00, 0x20)\n      swap1\n    tag_184:\n      dup2\n      sload\n      dup2\n      mstore\n      swap1\n      0x01\n      add\n      swap1\n      0x20\n      add\n      dup1\n      dup4\n      gt\n      tag_184\n      jumpi\n      dup3\n      swap1\n      sub\n      0x1f\n      and\n      dup3\n      add\n      swap2\n    tag_182:\n      pop\n      pop\n      pop\n      pop\n      pop\n      dup2\n      mstore\n      0x20\n      add\n      0x07\n      dup3\n      add\n      dup1\n      sload\n      tag_185\n      swap1\n      tag_101\n      jump\t// in\n    tag_185:\n      dup1\n      0x1f\n      add\n      0x20\n      dup1\n      swap2\n      div\n      mul\n      0x20\n      add\n      mload(0x40)\n      swap1\n      dup2\n      add\n      0x40\n      mstore\n      dup1\n      swap3\n      swap2\n      swap1\n      dup2\n      dup2\n      mstore\n      0x20\n      add\n      dup3\n      dup1\n      sload\n      tag_186\n      swap1\n      tag_101\n      jump\t// in\n    tag_186:\n      dup1\n      iszero\n      tag_187\n      jumpi\n      dup1\n      0x1f\n      lt\n      tag_188\n      jumpi\n      0x0100\n      dup1\n      dup4\n      sload\n      div\n      mul\n      dup4\n      mstore\n      swap2\n      0x20\n      add\n      swap2\n      jump(tag_187)\n    tag_188:\n      dup3\n      add\n      swap2\n      swap1\n      0x00\n      mstore\n      keccak256(0x00, 0x20)\n      swap1\n    tag_189:\n      dup2\n      sload\n      dup2\n      mstore\n      swap1\n      0x01\n      add\n      swap1\n      0x20\n      add\n      dup1\n      dup4\n      gt\n      tag_189\n      jumpi\n      dup3\n      swap1\n      sub\n      0x1f\n      and\n      dup3\n      add\n      swap2\n    tag_187:\n      pop\n      pop\n      pop\n      pop\n      pop\n      dup2\n      mstore\n      0x20\n      add\n      0x08\n      dup3\n      add\n      dup1\n      sload\n      tag_190\n      swap1\n      tag_101\n      jump\t// in\n    tag_190:\n      dup1\n      0x1f\n      add\n      0x20\n      dup1\n      swap2\n      div\n      mul\n      0x20\n      add\n      mload(0x40)\n      swap1\n      dup2\n      add\n      0x40\n      mstore\n      dup1\n      swap3\n      swap2\n      swap1\n      dup2\n      dup2\n      mstore\n      0x20\n      add\n      dup3\n      dup1\n      sload\n      tag_191\n      swap1\n      tag_101\n      jump\t// in\n    tag_191:\n      dup1\n      iszero\n      tag_192\n      jumpi\n      dup1\n      0x1f\n      lt\n      tag_193\n      jumpi\n      0x0100\n      dup1\n      dup4\n      sload\n      div\n      mul\n      dup4\n      mstore\n      swap2\n      0x20\n      add\n      swap2\n      jump(tag_192)\n    tag_193:\n      dup3\n      add\n      swap2\n      swap1\n      0x00\n      mstore\n      keccak256(0x00, 0x20)\n      swap1\n    tag_194:\n      dup2\n      sload\n      dup2\n      mstore\n      swap1\n      0x01\n      add\n      swap1\n      0x20\n      add\n      dup1\n      dup4\n      gt\n      tag_194\n      jumpi\n      dup3\n      swap1\n      sub\n      0x1f\n      and\n      dup3\n      add\n      swap2\n    tag_192:\n      pop\n      pop\n      pop\n      pop\n      pop\n      dup2\n      mstore\n      0x20\n      add\n      0x09\n      dup3\n      add\n      dup1\n      sload\n      tag_195\n      swap1\n      tag_101\n      jump\t// in\n    tag_195:\n      dup1\n      0x1f\n      add\n      0x20\n      dup1\n      swap2\n      div\n      mul\n      0x20\n      add\n      mload(0x40)\n      swap1\n      dup2\n      add\n      0x40\n      mstore\n      dup1\n      swap3\n      swap2\n      swap1\n      dup2\n      dup2\n      mstore\n      0x20\n      add\n      dup3\n      dup1\n      sload\n      tag_196\n      swap1\n      tag_101\n      jump\t// in\n    tag_196:\n      dup1\n      iszero\n      tag_197\n      jumpi\n      dup1\n      0x1f\n      lt\n      tag_198\n      jumpi\n      0x0100\n      dup1\n      dup4\n      sload\n      div\n      mul\n      dup4\n      mstore\n      swap2\n      0x20\n      add\n      swap2\n      jump(tag_197)\n    tag_198:\n      dup3\n      add\n      swap2\n      swap1\n      0x00\n      mstore\n      keccak256(0x00, 0x20)\n      swap1\n    tag_199:\n      dup2\n      sload\n      dup2\n      mstore\n      swap1\n      0x01\n      add\n      swap1\n      0x20\n      add\n      dup1\n      dup4\n      gt\n      tag_199\n      jumpi\n      dup3\n      swap1\n      sub\n      0x1f\n      and\n      dup3\n      add\n      swap2\n    tag_197:\n      pop\n      pop\n      pop\n      pop\n      pop\n      dup2\n      mstore\n      pop\n      pop\n      dup2\n      mstore\n      0x20\n      add\n      swap1\n      0x01\n      add\n      swap1\n      jump(tag_150)\n    tag_151:\n      pop\n      pop\n      pop\n      pop\n      swap1\n      pop\n        /* \"assignments/mul.sol\":2592:2677  function getquotes() public view returns (l2[] memory) {... */\n      swap1\n      jump\t// out\n        /* \"assignments/mul.sol\":504:520  l2[] public arr2 */\n    tag_34:\n      0x01\n      dup2\n      dup2\n      sload\n      dup2\n      lt\n      tag_200\n      jumpi\n      0x00\n      dup1\n      revert\n    tag_200:\n      swap1\n      0x00\n      mstore\n      keccak256(0x00, 0x20)\n      swap1\n      0x0a\n      mul\n      add\n      0x00\n      swap2\n      pop\n      swap1\n      pop\n      dup1\n      0x00\n      add\n      dup1\n      sload\n      tag_202\n      swap1\n      tag_101\n      jump\t// in\n    tag_202:\n      dup1\n      0x1f\n      add\n      0x20\n      dup1\n      swap2\n      div\n      mul\n      0x20\n      add\n      mload(0x40)\n      swap1\n      dup2\n      add\n      0x40\n      mstore\n      dup1\n      swap3\n      swap2\n      swap1\n      dup2\n      dup2\n      mstore\n      0x20\n      add\n      dup3\n      dup1\n      sload\n      tag_203\n      swap1\n      tag_101\n      jump\t// in\n    tag_203:\n      dup1\n      iszero\n      tag_204\n      jumpi\n      dup1\n      0x1f\n      lt\n      tag_205\n      jumpi\n      0x0100\n      dup1\n      dup4\n      sload\n      div\n      mul\n      dup4\n      mstore\n      swap2\n      0x20\n      add\n      swap2\n      jump(tag_204)\n    tag_205:\n      dup3\n      add\n      swap2\n      swap1\n      0x00\n      mstore\n      keccak256(0x00, 0x20)\n      swap1\n    tag_206:\n      dup2\n      sload\n      dup2\n      mstore\n      swap1\n      0x01\n      add\n      swap1\n      0x20\n      add\n      dup1\n      dup4\n      gt\n      tag_206\n      jumpi\n      dup3\n      swap1\n      sub\n      0x1f\n      and\n      dup3\n      add\n      swap2\n    tag_204:\n      pop\n      pop\n      pop\n      pop\n      pop\n      swap1\n      dup1\n      0x03\n      add\n      dup1\n      sload\n      tag_207\n      swap1\n      tag_101\n      jump\t// in\n    tag_207:\n      dup1\n      0x1f\n      add\n      0x20\n      dup1\n      swap2\n      div\n      mul\n      0x20\n      add\n      mload(0x40)\n      swap1\n      dup2\n      add\n      0x40\n      mstore\n      dup1\n      swap3\n      swap2\n      swap1\n      dup2\n      dup2\n      mstore\n      0x20\n      add\n      dup3\n      dup1\n      sload\n      tag_208\n      swap1\n      tag_101\n      jump\t// in\n    tag_208:\n      dup1\n      iszero\n      tag_209\n      jumpi\n      dup1\n      0x1f\n      lt\n      tag_210\n      jumpi\n      0x0100\n      dup1\n      dup4\n      sload\n      div\n      mul\n      dup4\n      mstore\n      swap2\n      0x20\n      add\n      swap2\n      jump(tag_209)\n    tag_210:\n      dup3\n      add\n      swap2\n      swap1\n      0x00\n      mstore\n      keccak256(0x00, 0x20)\n      swap1\n    tag_211:\n      dup2\n      sload\n      dup2\n      mstore\n      swap1\n      0x01\n      add\n      swap1\n      0x20\n      add\n      dup1\n      dup4\n      gt\n      tag_211\n      jumpi\n      dup3\n      swap1\n      sub\n      0x1f\n      and\n      dup3\n      add\n      swap2\n    tag_209:\n      pop\n      pop\n      pop\n      pop\n      pop\n      swap1\n      dup1\n      0x04\n      add\n      dup1\n      sload\n      tag_212\n      swap1\n      tag_101\n      jump\t// in\n    tag_212:\n      dup1\n      0x1f\n      add\n      0x20\n      dup1\n      swap2\n      div\n      mul\n      0x20\n      add\n      mload(0x40)\n      swap1\n      dup2\n      add\n      0x40\n      mstore\n      dup1\n      swap3\n      swap2\n      swap1\n      dup2\n      dup2\n      mstore\n      0x20\n      add\n      dup3\n      dup1\n      sload\n      tag_213\n      swap1\n      tag_101\n      jump\t// in\n    tag_213:\n      dup1\n      iszero\n      tag_214\n      jumpi\n      dup1\n      0x1f\n      lt\n      tag_215\n      jumpi\n      0x0100\n      dup1\n      dup4\n      sload\n      div\n      mul\n      dup4\n      mstore\n      swap2\n      0x20\n      add\n      swap2\n      jump(tag_214)\n    tag_215:\n      dup3\n      add\n      swap2\n      swap1\n      0x00\n      mstore\n      keccak256(0x00, 0x20)\n      swap1\n    tag_216:\n      dup2\n      sload\n      dup2\n      mstore\n      swap1\n      0x01\n      add\n      swap1\n      0x20\n      add\n      dup1\n      dup4\n      gt\n      tag_216\n      jumpi\n      dup3\n      swap1\n      sub\n      0x1f\n      and\n      dup3\n      add\n      swap2\n    tag_214:\n      pop\n      pop\n      pop\n      pop\n      pop\n      swap1\n      dup1\n      0x06\n      add\n      dup1\n      sload\n      tag_217\n      swap1\n      tag_101\n      jump\t// in\n    tag_217:\n      dup1\n      0x1f\n      add\n      0x20\n      dup1\n      swap2\n      div\n      mul\n      0x20\n      add\n      mload(0x40)\n      swap1\n      dup2\n      add\n      0x40\n      mstore\n      dup1\n      swap3\n      swap2\n      swap1\n      dup2\n      dup2\n      mstore\n      0x20\n      add\n      dup3\n      dup1\n      sload\n      tag_218\n      swap1\n      tag_101\n      jump\t// in\n    tag_218:\n      dup1\n      iszero\n      tag_219\n      jumpi\n      dup1\n      0x1f\n      lt\n      tag_220\n      jumpi\n      0x0100\n      dup1\n      dup4\n      sload\n      div\n      mul\n      dup4\n      mstore\n      swap2\n      0x20\n      add\n      swap2\n      jump(tag_219)\n    tag_220:\n      dup3\n      add\n      swap2\n      swap1\n      0x00\n      mstore\n      keccak256(0x00, 0x20)\n      swap1\n    tag_221:\n      dup2\n      sload\n      dup2\n      mstore\n      swap1\n      0x01\n      add\n      swap1\n      0x20\n      add\n      dup1\n      dup4\n      gt\n      tag_221\n      jumpi\n      dup3\n      swap1\n      sub\n      0x1f\n      and\n      dup3\n      add\n      swap2\n    tag_219:\n      pop\n      pop\n      pop\n      pop\n      pop\n      swap1\n      dup1\n      0x07\n      add\n      dup1\n      sload\n      tag_222\n      swap1\n      tag_101\n      jump\t// in\n    tag_222:\n      dup1\n      0x1f\n      add\n      0x20\n      dup1\n      swap2\n      div\n      mul\n      0x20\n      add\n      mload(0x40)\n      swap1\n      dup2\n      add\n      0x40\n      mstore\n      dup1\n      swap3\n      swap2\n      swap1\n      dup2\n      dup2\n      mstore\n      0x20\n      add\n      dup3\n      dup1\n      sload\n      tag_223\n      swap1\n      tag_101\n      jump\t// in\n    tag_223:\n      dup1\n      iszero\n      tag_224\n      jumpi\n      dup1\n      0x1f\n      lt\n      tag_225\n      jumpi\n      0x0100\n      dup1\n      dup4\n      sload\n      div\n      mul\n      dup4\n      mstore\n      swap2\n      0x20\n      add\n      swap2\n      jump(tag_224)\n    tag_225:\n      dup3\n      add\n      swap2\n      swap1\n      0x00\n      mstore\n      keccak256(0x00, 0x20)\n      swap1\n    tag_226:\n      dup2\n      sload\n      dup2\n      mstore\n      swap1\n      0x01\n      add\n      swap1\n      0x20\n      add\n      dup1\n      dup4\n      gt\n      tag_226\n      jumpi\n      dup3\n      swap1\n      sub\n      0x1f\n      and\n      dup3\n      add\n      swap2\n    tag_224:\n      pop\n      pop\n      pop\n      pop\n      pop\n      swap1\n      dup1\n      0x08\n      add\n      dup1\n      sload\n      tag_227\n      swap1\n      tag_101\n      jump\t// in\n    tag_227:\n      dup1\n      0x1f\n      add\n      0x20\n      dup1\n      swap2\n      div\n      mul\n      0x20\n      add\n      mload(0x40)\n      swap1\n      dup2\n      add\n      0x40\n      mstore\n      dup1\n      swap3\n      swap2\n      swap1\n      dup2\n      dup2\n      mstore\n      0x20\n      add\n      dup3\n      dup1\n      sload\n      tag_228\n      swap1\n      tag_101\n      jump\t// in\n    tag_228:\n      dup1\n      iszero\n      tag_229\n      jumpi\n      dup1\n      0x1f\n      lt\n      tag_230\n      jumpi\n      0x0100\n      dup1\n      dup4\n      sload\n      div\n      mul\n      dup4\n      mstore\n      swap2\n      0x20\n      add\n      swap2\n      jump(tag_229)\n    tag_230:\n      dup3\n      add\n      swap2\n      swap1\n      0x00\n      mstore\n      keccak256(0x00, 0x20)\n      swap1\n    tag_231:\n      dup2\n      sload\n      dup2\n      mstore\n      swap1\n      0x01\n      add\n      swap1\n      0x20\n      add\n      dup1\n      dup4\n      gt\n      tag_231\n      jumpi\n      dup3\n      swap1\n      sub\n      0x1f\n      and\n      dup3\n      add\n      swap2\n    tag_229:\n      pop\n      pop\n      pop\n      pop\n      pop\n      swap1\n      dup1\n      0x09\n      add\n      dup1\n      sload\n      tag_232\n      swap1\n      tag_101\n      jump\t// in\n    tag_232:\n      dup1\n      0x1f\n      add\n      0x20\n      dup1\n      swap2\n      div\n      mul\n      0x20\n      add\n      mload(0x40)\n      swap1\n      dup2\n      add\n      0x40\n      mstore\n      dup1\n      swap3\n      swap2\n      swap1\n      dup2\n      dup2\n      mstore\n      0x20\n      add\n      dup3\n      dup1\n      sload\n      tag_233\n      swap1\n      tag_101\n      jump\t// in\n    tag_233:\n      dup1\n      iszero\n      tag_234\n      jumpi\n      dup1\n      0x1f\n      lt\n      tag_235\n      jumpi\n      0x0100\n      dup1\n      dup4\n      sload\n      div\n      mul\n      dup4\n      mstore\n      swap2\n      0x20\n      add\n      swap2\n      jump(tag_234)\n    tag_235:\n      dup3\n      add\n      swap2\n      swap1\n      0x00\n      mstore\n      keccak256(0x00, 0x20)\n      swap1\n    tag_236:\n      dup2\n      sload\n      dup2\n      mstore\n      swap1\n      0x01\n      add\n      swap1\n      0x20\n      add\n      dup1\n      dup4\n      gt\n      tag_236\n      jumpi\n      dup3\n      swap1\n      sub\n      0x1f\n      and\n      dup3\n      add\n      swap2\n    tag_234:\n      pop\n      pop\n      pop\n      pop\n      pop\n      swap1\n      pop\n      dup8\n      jump\t// out\n    tag_40:\n      mload(0x40)\n      dup1\n      0xa0\n      add\n      0x40\n      mstore\n      dup1\n      0x60\n      dup2\n      mstore\n      0x20\n      add\n      0x60\n      dup2\n      mstore\n      0x20\n      add\n      0x60\n      dup2\n      mstore\n      0x20\n      add\n      0x60\n      dup2\n      mstore\n      0x20\n      add\n      0x60\n      dup2\n      mstore\n      pop\n      swap1\n      jump\t// out\n    tag_49:\n      dup3\n      dup1\n      sload\n      dup3\n      dup3\n      sstore\n      swap1\n      0x00\n      mstore\n      keccak256(0x00, 0x20)\n      swap1\n      dup2\n      add\n      swap3\n      dup3\n      iszero\n      tag_237\n      jumpi\n      swap2\n      0x20\n      mul\n      dup3\n      add\n    tag_238:\n      dup3\n      dup2\n      gt\n      iszero\n      tag_239\n      jumpi\n      dup3\n      mload\n      dup3\n      swap1\n      dup2\n      tag_240\n      swap2\n      swap1\n      tag_47\n      jump\t// in\n    tag_240:\n      pop\n      swap2\n      0x20\n      add\n      swap2\n      swap1\n      0x01\n      add\n      swap1\n      jump(tag_238)\n    tag_239:\n    tag_237:\n      pop\n      swap1\n      pop\n      tag_241\n      swap2\n      swap1\n      tag_242\n      jump\t// in\n    tag_241:\n      pop\n      swap1\n      jump\t// out\n    tag_51:\n      dup3\n      dup1\n      sload\n      dup3\n      dup3\n      sstore\n      swap1\n      0x00\n      mstore\n      keccak256(0x00, 0x20)\n      swap1\n      dup2\n      add\n      swap3\n      dup3\n      iszero\n      tag_243\n      jumpi\n      swap2\n      0x20\n      mul\n      dup3\n      add\n    tag_244:\n      dup3\n      dup2\n      gt\n      iszero\n      tag_245\n      jumpi\n      dup3\n      mload\n      dup3\n      sstore\n      swap2\n      0x20\n      add\n      swap2\n      swap1\n      0x01\n      add\n      swap1\n      jump(tag_244)\n    tag_245:\n    tag_243:\n      pop\n      swap1\n      pop\n      tag_246\n      swap2\n      swap1\n      tag_247\n      jump\t// in\n    tag_246:\n      pop\n      swap1\n      jump\t// out\n    tag_242:\n    tag_248:\n      dup1\n      dup3\n      gt\n      iszero\n      tag_249\n      jumpi\n      0x00\n      dup2\n      dup2\n      tag_250\n      swap2\n      swap1\n      tag_251\n      jump\t// in\n    tag_250:\n      pop\n      0x01\n      add\n      jump(tag_248)\n    tag_249:\n      pop\n      swap1\n      jump\t// out\n    tag_247:\n    tag_252:\n      dup1\n      dup3\n      gt\n      iszero\n      tag_253\n      jumpi\n      0x00\n      dup2\n      0x00\n      swap1\n      sstore\n      pop\n      0x01\n      add\n      jump(tag_252)\n    tag_253:\n      pop\n      swap1\n      jump\t// out\n    tag_251:\n      pop\n      dup1\n      sload\n      tag_254\n      swap1\n      tag_101\n      jump\t// in\n    tag_254:\n      0x00\n      dup3\n      sstore\n      dup1\n      0x1f\n      lt\n      tag_256\n      jumpi\n      pop\n      jump(tag_255)\n    tag_256:\n      0x1f\n      add\n      0x20\n      swap1\n      div\n      swap1\n      0x00\n      mstore\n      keccak256(0x00, 0x20)\n      swap1\n      dup2\n      add\n      swap1\n      tag_257\n      swap2\n      swap1\n      tag_258\n      jump\t// in\n    tag_257:\n    tag_255:\n      pop\n      jump\t// out\n    tag_258:\n    tag_259:\n      dup1\n      dup3\n      gt\n      iszero\n      tag_260\n      jumpi\n      0x00\n      dup2\n      0x00\n      swap1\n      sstore\n      pop\n      0x01\n      add\n      jump(tag_259)\n    tag_260:\n      pop\n      swap1\n      jump\t// out\n        /* \"#utility.yul\":7:82   */\n    tag_261:\n        /* \"#utility.yul\":40:46   */\n      0x00\n        /* \"#utility.yul\":73:75   */\n      0x40\n        /* \"#utility.yul\":67:76   */\n      mload\n        /* \"#utility.yul\":57:76   */\n      swap1\n      pop\n        /* \"#utility.yul\":7:82   */\n      swap1\n      jump\t// out\n        /* \"#utility.yul\":88:205   */\n    tag_262:\n        /* \"#utility.yul\":197:198   */\n      0x00\n        /* \"#utility.yul\":194:195   */\n      dup1\n        /* \"#utility.yul\":187:199   */\n      revert\n        /* \"#utility.yul\":211:328   */\n    tag_263:\n        /* \"#utility.yul\":320:321   */\n      0x00\n        /* \"#utility.yul\":317:318   */\n      dup1\n        /* \"#utility.yul\":310:322   */\n      revert\n        /* \"#utility.yul\":334:451   */\n    tag_264:\n        /* \"#utility.yul\":443:444   */\n      0x00\n        /* \"#utility.yul\":440:441   */\n      dup1\n        /* \"#utility.yul\":433:445   */\n      revert\n        /* \"#utility.yul\":457:574   */\n    tag_265:\n        /* \"#utility.yul\":566:567   */\n      0x00\n        /* \"#utility.yul\":563:564   */\n      dup1\n        /* \"#utility.yul\":556:568   */\n      revert\n        /* \"#utility.yul\":580:682   */\n    tag_266:\n        /* \"#utility.yul\":621:627   */\n      0x00\n        /* \"#utility.yul\":672:674   */\n      0x1f\n        /* \"#utility.yul\":668:675   */\n      not\n        /* \"#utility.yul\":663:665   */\n      0x1f\n        /* \"#utility.yul\":656:661   */\n      dup4\n        /* \"#utility.yul\":652:666   */\n      add\n        /* \"#utility.yul\":648:676   */\n      and\n        /* \"#utility.yul\":638:676   */\n      swap1\n      pop\n        /* \"#utility.yul\":580:682   */\n      swap2\n      swap1\n      pop\n      jump\t// out\n        /* \"#utility.yul\":688:868   */\n    tag_267:\n        /* \"#utility.yul\":736:813   */\n      0x4e487b7100000000000000000000000000000000000000000000000000000000\n        /* \"#utility.yul\":733:734   */\n      0x00\n        /* \"#utility.yul\":726:814   */\n      mstore\n        /* \"#utility.yul\":833:837   */\n      0x41\n        /* \"#utility.yul\":830:831   */\n      0x04\n        /* \"#utility.yul\":823:838   */\n      mstore\n        /* \"#utility.yul\":857:861   */\n      0x24\n        /* \"#utility.yul\":854:855   */\n      0x00\n        /* \"#utility.yul\":847:862   */\n      revert\n        /* \"#utility.yul\":874:1155   */\n    tag_268:\n        /* \"#utility.yul\":957:984   */\n      tag_356\n        /* \"#utility.yul\":979:983   */\n      dup3\n        /* \"#utility.yul\":957:984   */\n      tag_266\n      jump\t// in\n    tag_356:\n        /* \"#utility.yul\":949:955   */\n      dup2\n        /* \"#utility.yul\":945:985   */\n      add\n        /* \"#utility.yul\":1087:1093   */\n      dup2\n        /* \"#utility.yul\":1075:1085   */\n      dup2\n        /* \"#utility.yul\":1072:1094   */\n      lt\n        /* \"#utility.yul\":1051:1069   */\n      0xffffffffffffffff\n        /* \"#utility.yul\":1039:1049   */\n      dup3\n        /* \"#utility.yul\":1036:1070   */\n      gt\n        /* \"#utility.yul\":1033:1095   */\n      or\n        /* \"#utility.yul\":1030:1118   */\n      iszero\n      tag_357\n      jumpi\n        /* \"#utility.yul\":1098:1116   */\n      tag_358\n      tag_267\n      jump\t// in\n    tag_358:\n        /* \"#utility.yul\":1030:1118   */\n    tag_357:\n        /* \"#utility.yul\":1138:1148   */\n      dup1\n        /* \"#utility.yul\":1134:1136   */\n      0x40\n        /* \"#utility.yul\":1127:1149   */\n      mstore\n        /* \"#utility.yul\":917:1155   */\n      pop\n        /* \"#utility.yul\":874:1155   */\n      pop\n      pop\n      jump\t// out\n        /* \"#utility.yul\":1161:1290   */\n    tag_269:\n        /* \"#utility.yul\":1195:1201   */\n      0x00\n        /* \"#utility.yul\":1222:1242   */\n      tag_360\n      tag_261\n      jump\t// in\n    tag_360:\n        /* \"#utility.yul\":1212:1242   */\n      swap1\n      pop\n        /* \"#utility.yul\":1251:1284   */\n      tag_361\n        /* \"#utility.yul\":1279:1283   */\n      dup3\n        /* \"#utility.yul\":1271:1277   */\n      dup3\n        /* \"#utility.yul\":1251:1284   */\n      tag_268\n      jump\t// in\n    tag_361:\n        /* \"#utility.yul\":1161:1290   */\n      swap2\n      swap1\n      pop\n      jump\t// out\n        /* \"#utility.yul\":1296:1604   */\n    tag_270:\n        /* \"#utility.yul\":1358:1362   */\n      0x00\n        /* \"#utility.yul\":1448:1466   */\n      0xffffffffffffffff\n        /* \"#utility.yul\":1440:1446   */\n      dup3\n        /* \"#utility.yul\":1437:1467   */\n      gt\n        /* \"#utility.yul\":1434:1490   */\n      iszero\n      tag_363\n      jumpi\n        /* \"#utility.yul\":1470:1488   */\n      tag_364\n      tag_267\n      jump\t// in\n    tag_364:\n        /* \"#utility.yul\":1434:1490   */\n    tag_363:\n        /* \"#utility.yul\":1508:1537   */\n      tag_365\n        /* \"#utility.yul\":1530:1536   */\n      dup3\n        /* \"#utility.yul\":1508:1537   */\n      tag_266\n      jump\t// in\n    tag_365:\n        /* \"#utility.yul\":1500:1537   */\n      swap1\n      pop\n        /* \"#utility.yul\":1592:1596   */\n      0x20\n        /* \"#utility.yul\":1586:1590   */\n      dup2\n        /* \"#utility.yul\":1582:1597   */\n      add\n        /* \"#utility.yul\":1574:1597   */\n      swap1\n      pop\n        /* \"#utility.yul\":1296:1604   */\n      swap2\n      swap1\n      pop\n      jump\t// out\n        /* \"#utility.yul\":1610:1756   */\n    tag_271:\n        /* \"#utility.yul\":1707:1713   */\n      dup3\n        /* \"#utility.yul\":1702:1705   */\n      dup2\n        /* \"#utility.yul\":1697:1700   */\n      dup4\n        /* \"#utility.yul\":1684:1714   */\n      calldatacopy\n        /* \"#utility.yul\":1748:1749   */\n      0x00\n        /* \"#utility.yul\":1739:1745   */\n      dup4\n        /* \"#utility.yul\":1734:1737   */\n      dup4\n        /* \"#utility.yul\":1730:1746   */\n      add\n        /* \"#utility.yul\":1723:1750   */\n      mstore\n        /* \"#utility.yul\":1610:1756   */\n      pop\n      pop\n      pop\n      jump\t// out\n        /* \"#utility.yul\":1762:2187   */\n    tag_272:\n        /* \"#utility.yul\":1840:1845   */\n      0x00\n        /* \"#utility.yul\":1865:1931   */\n      tag_368\n        /* \"#utility.yul\":1881:1930   */\n      tag_369\n        /* \"#utility.yul\":1923:1929   */\n      dup5\n        /* \"#utility.yul\":1881:1930   */\n      tag_270\n      jump\t// in\n    tag_369:\n        /* \"#utility.yul\":1865:1931   */\n      tag_269\n      jump\t// in\n    tag_368:\n        /* \"#utility.yul\":1856:1931   */\n      swap1\n      pop\n        /* \"#utility.yul\":1954:1960   */\n      dup3\n        /* \"#utility.yul\":1947:1952   */\n      dup2\n        /* \"#utility.yul\":1940:1961   */\n      mstore\n        /* \"#utility.yul\":1992:1996   */\n      0x20\n        /* \"#utility.yul\":1985:1990   */\n      dup2\n        /* \"#utility.yul\":1981:1997   */\n      add\n        /* \"#utility.yul\":2030:2033   */\n      dup5\n        /* \"#utility.yul\":2021:2027   */\n      dup5\n        /* \"#utility.yul\":2016:2019   */\n      dup5\n        /* \"#utility.yul\":2012:2028   */\n      add\n        /* \"#utility.yul\":2009:2034   */\n      gt\n        /* \"#utility.yul\":2006:2118   */\n      iszero\n      tag_370\n      jumpi\n        /* \"#utility.yul\":2037:2116   */\n      tag_371\n      tag_265\n      jump\t// in\n    tag_371:\n        /* \"#utility.yul\":2006:2118   */\n    tag_370:\n        /* \"#utility.yul\":2127:2181   */\n      tag_372\n        /* \"#utility.yul\":2174:2180   */\n      dup5\n        /* \"#utility.yul\":2169:2172   */\n      dup3\n        /* \"#utility.yul\":2164:2167   */\n      dup6\n        /* \"#utility.yul\":2127:2181   */\n      tag_271\n      jump\t// in\n    tag_372:\n        /* \"#utility.yul\":1846:2187   */\n      pop\n        /* \"#utility.yul\":1762:2187   */\n      swap4\n      swap3\n      pop\n      pop\n      pop\n      jump\t// out\n        /* \"#utility.yul\":2207:2547   */\n    tag_273:\n        /* \"#utility.yul\":2263:2268   */\n      0x00\n        /* \"#utility.yul\":2312:2315   */\n      dup3\n        /* \"#utility.yul\":2305:2309   */\n      0x1f\n        /* \"#utility.yul\":2297:2303   */\n      dup4\n        /* \"#utility.yul\":2293:2310   */\n      add\n        /* \"#utility.yul\":2289:2316   */\n      slt\n        /* \"#utility.yul\":2279:2401   */\n      tag_374\n      jumpi\n        /* \"#utility.yul\":2320:2399   */\n      tag_375\n      tag_264\n      jump\t// in\n    tag_375:\n        /* \"#utility.yul\":2279:2401   */\n    tag_374:\n        /* \"#utility.yul\":2437:2443   */\n      dup2\n        /* \"#utility.yul\":2424:2444   */\n      calldataload\n        /* \"#utility.yul\":2462:2541   */\n      tag_376\n        /* \"#utility.yul\":2537:2540   */\n      dup5\n        /* \"#utility.yul\":2529:2535   */\n      dup3\n        /* \"#utility.yul\":2522:2526   */\n      0x20\n        /* \"#utility.yul\":2514:2520   */\n      dup7\n        /* \"#utility.yul\":2510:2527   */\n      add\n        /* \"#utility.yul\":2462:2541   */\n      tag_272\n      jump\t// in\n    tag_376:\n        /* \"#utility.yul\":2453:2541   */\n      swap2\n      pop\n        /* \"#utility.yul\":2269:2547   */\n      pop\n        /* \"#utility.yul\":2207:2547   */\n      swap3\n      swap2\n      pop\n      pop\n      jump\t// out\n        /* \"#utility.yul\":2553:2874   */\n    tag_274:\n        /* \"#utility.yul\":2640:2644   */\n      0x00\n        /* \"#utility.yul\":2730:2748   */\n      0xffffffffffffffff\n        /* \"#utility.yul\":2722:2728   */\n      dup3\n        /* \"#utility.yul\":2719:2749   */\n      gt\n        /* \"#utility.yul\":2716:2772   */\n      iszero\n      tag_378\n      jumpi\n        /* \"#utility.yul\":2752:2770   */\n      tag_379\n      tag_267\n      jump\t// in\n    tag_379:\n        /* \"#utility.yul\":2716:2772   */\n    tag_378:\n        /* \"#utility.yul\":2802:2806   */\n      0x20\n        /* \"#utility.yul\":2794:2800   */\n      dup3\n        /* \"#utility.yul\":2790:2807   */\n      mul\n        /* \"#utility.yul\":2782:2807   */\n      swap1\n      pop\n        /* \"#utility.yul\":2862:2866   */\n      0x20\n        /* \"#utility.yul\":2856:2860   */\n      dup2\n        /* \"#utility.yul\":2852:2867   */\n      add\n        /* \"#utility.yul\":2844:2867   */\n      swap1\n      pop\n        /* \"#utility.yul\":2553:2874   */\n      swap2\n      swap1\n      pop\n      jump\t// out\n        /* \"#utility.yul\":2880:2997   */\n    tag_275:\n        /* \"#utility.yul\":2989:2990   */\n      0x00\n        /* \"#utility.yul\":2986:2987   */\n      dup1\n        /* \"#utility.yul\":2979:2991   */\n      revert\n        /* \"#utility.yul\":3019:3964   */\n    tag_276:\n        /* \"#utility.yul\":3125:3130   */\n      0x00\n        /* \"#utility.yul\":3150:3241   */\n      tag_382\n        /* \"#utility.yul\":3166:3240   */\n      tag_383\n        /* \"#utility.yul\":3233:3239   */\n      dup5\n        /* \"#utility.yul\":3166:3240   */\n      tag_274\n      jump\t// in\n    tag_383:\n        /* \"#utility.yul\":3150:3241   */\n      tag_269\n      jump\t// in\n    tag_382:\n        /* \"#utility.yul\":3141:3241   */\n      swap1\n      pop\n        /* \"#utility.yul\":3261:3266   */\n      dup1\n        /* \"#utility.yul\":3290:3296   */\n      dup4\n        /* \"#utility.yul\":3283:3288   */\n      dup3\n        /* \"#utility.yul\":3276:3297   */\n      mstore\n        /* \"#utility.yul\":3324:3328   */\n      0x20\n        /* \"#utility.yul\":3317:3322   */\n      dup3\n        /* \"#utility.yul\":3313:3329   */\n      add\n        /* \"#utility.yul\":3306:3329   */\n      swap1\n      pop\n        /* \"#utility.yul\":3377:3381   */\n      0x20\n        /* \"#utility.yul\":3369:3375   */\n      dup5\n        /* \"#utility.yul\":3365:3382   */\n      mul\n        /* \"#utility.yul\":3357:3363   */\n      dup4\n        /* \"#utility.yul\":3353:3383   */\n      add\n        /* \"#utility.yul\":3406:3409   */\n      dup6\n        /* \"#utility.yul\":3398:3404   */\n      dup2\n        /* \"#utility.yul\":3395:3410   */\n      gt\n        /* \"#utility.yul\":3392:3514   */\n      iszero\n      tag_384\n      jumpi\n        /* \"#utility.yul\":3425:3504   */\n      tag_385\n      tag_275\n      jump\t// in\n    tag_385:\n        /* \"#utility.yul\":3392:3514   */\n    tag_384:\n        /* \"#utility.yul\":3540:3546   */\n      dup4\n        /* \"#utility.yul\":3523:3958   */\n    tag_386:\n        /* \"#utility.yul\":3557:3563   */\n      dup2\n        /* \"#utility.yul\":3552:3555   */\n      dup2\n        /* \"#utility.yul\":3549:3564   */\n      lt\n        /* \"#utility.yul\":3523:3958   */\n      iszero\n      tag_388\n      jumpi\n        /* \"#utility.yul\":3646:3649   */\n      dup1\n        /* \"#utility.yul\":3633:3650   */\n      calldataload\n        /* \"#utility.yul\":3682:3700   */\n      0xffffffffffffffff\n        /* \"#utility.yul\":3669:3680   */\n      dup2\n        /* \"#utility.yul\":3666:3701   */\n      gt\n        /* \"#utility.yul\":3663:3785   */\n      iszero\n      tag_389\n      jumpi\n        /* \"#utility.yul\":3704:3783   */\n      tag_390\n      tag_264\n      jump\t// in\n    tag_390:\n        /* \"#utility.yul\":3663:3785   */\n    tag_389:\n        /* \"#utility.yul\":3828:3839   */\n      dup1\n        /* \"#utility.yul\":3820:3826   */\n      dup7\n        /* \"#utility.yul\":3816:3840   */\n      add\n        /* \"#utility.yul\":3866:3913   */\n      tag_391\n        /* \"#utility.yul\":3909:3912   */\n      dup10\n        /* \"#utility.yul\":3897:3907   */\n      dup3\n        /* \"#utility.yul\":3866:3913   */\n      tag_273\n      jump\t// in\n    tag_391:\n        /* \"#utility.yul\":3861:3864   */\n      dup6\n        /* \"#utility.yul\":3854:3914   */\n      mstore\n        /* \"#utility.yul\":3943:3947   */\n      0x20\n        /* \"#utility.yul\":3938:3941   */\n      dup6\n        /* \"#utility.yul\":3934:3948   */\n      add\n        /* \"#utility.yul\":3927:3948   */\n      swap5\n      pop\n        /* \"#utility.yul\":3599:3958   */\n      pop\n      pop\n        /* \"#utility.yul\":3583:3587   */\n      0x20\n        /* \"#utility.yul\":3578:3581   */\n      dup2\n        /* \"#utility.yul\":3574:3588   */\n      add\n        /* \"#utility.yul\":3567:3588   */\n      swap1\n      pop\n        /* \"#utility.yul\":3523:3958   */\n      jump(tag_386)\n    tag_388:\n        /* \"#utility.yul\":3527:3548   */\n      pop\n        /* \"#utility.yul\":3131:3964   */\n      pop\n      pop\n        /* \"#utility.yul\":3019:3964   */\n      swap4\n      swap3\n      pop\n      pop\n      pop\n      jump\t// out\n        /* \"#utility.yul\":3986:4376   */\n    tag_277:\n        /* \"#utility.yul\":4067:4072   */\n      0x00\n        /* \"#utility.yul\":4116:4119   */\n      dup3\n        /* \"#utility.yul\":4109:4113   */\n      0x1f\n        /* \"#utility.yul\":4101:4107   */\n      dup4\n        /* \"#utility.yul\":4097:4114   */\n      add\n        /* \"#utility.yul\":4093:4120   */\n      slt\n        /* \"#utility.yul\":4083:4205   */\n      tag_393\n      jumpi\n        /* \"#utility.yul\":4124:4203   */\n      tag_394\n      tag_264\n      jump\t// in\n    tag_394:\n        /* \"#utility.yul\":4083:4205   */\n    tag_393:\n        /* \"#utility.yul\":4241:4247   */\n      dup2\n        /* \"#utility.yul\":4228:4248   */\n      calldataload\n        /* \"#utility.yul\":4266:4370   */\n      tag_395\n        /* \"#utility.yul\":4366:4369   */\n      dup5\n        /* \"#utility.yul\":4358:4364   */\n      dup3\n        /* \"#utility.yul\":4351:4355   */\n      0x20\n        /* \"#utility.yul\":4343:4349   */\n      dup7\n        /* \"#utility.yul\":4339:4356   */\n      add\n        /* \"#utility.yul\":4266:4370   */\n      tag_276\n      jump\t// in\n    tag_395:\n        /* \"#utility.yul\":4257:4370   */\n      swap2\n      pop\n        /* \"#utility.yul\":4073:4376   */\n      pop\n        /* \"#utility.yul\":3986:4376   */\n      swap3\n      swap2\n      pop\n      pop\n      jump\t// out\n        /* \"#utility.yul\":4382:4692   */\n    tag_278:\n        /* \"#utility.yul\":4458:4462   */\n      0x00\n        /* \"#utility.yul\":4548:4566   */\n      0xffffffffffffffff\n        /* \"#utility.yul\":4540:4546   */\n      dup3\n        /* \"#utility.yul\":4537:4567   */\n      gt\n        /* \"#utility.yul\":4534:4590   */\n      iszero\n      tag_397\n      jumpi\n        /* \"#utility.yul\":4570:4588   */\n      tag_398\n      tag_267\n      jump\t// in\n    tag_398:\n        /* \"#utility.yul\":4534:4590   */\n    tag_397:\n        /* \"#utility.yul\":4620:4624   */\n      0x20\n        /* \"#utility.yul\":4612:4618   */\n      dup3\n        /* \"#utility.yul\":4608:4625   */\n      mul\n        /* \"#utility.yul\":4600:4625   */\n      swap1\n      pop\n        /* \"#utility.yul\":4680:4684   */\n      0x20\n        /* \"#utility.yul\":4674:4678   */\n      dup2\n        /* \"#utility.yul\":4670:4685   */\n      add\n        /* \"#utility.yul\":4662:4685   */\n      swap1\n      pop\n        /* \"#utility.yul\":4382:4692   */\n      swap2\n      swap1\n      pop\n      jump\t// out\n        /* \"#utility.yul\":4698:4774   */\n    tag_279:\n        /* \"#utility.yul\":4734:4741   */\n      0x00\n        /* \"#utility.yul\":4763:4768   */\n      dup2\n        /* \"#utility.yul\":4752:4768   */\n      swap1\n      pop\n        /* \"#utility.yul\":4698:4774   */\n      swap2\n      swap1\n      pop\n      jump\t// out\n        /* \"#utility.yul\":4780:4900   */\n    tag_280:\n        /* \"#utility.yul\":4852:4875   */\n      tag_401\n        /* \"#utility.yul\":4869:4874   */\n      dup2\n        /* \"#utility.yul\":4852:4875   */\n      tag_279\n      jump\t// in\n    tag_401:\n        /* \"#utility.yul\":4845:4850   */\n      dup2\n        /* \"#utility.yul\":4842:4876   */\n      eq\n        /* \"#utility.yul\":4832:4894   */\n      tag_402\n      jumpi\n        /* \"#utility.yul\":4890:4891   */\n      0x00\n        /* \"#utility.yul\":4887:4888   */\n      dup1\n        /* \"#utility.yul\":4880:4892   */\n      revert\n        /* \"#utility.yul\":4832:4894   */\n    tag_402:\n        /* \"#utility.yul\":4780:4900   */\n      pop\n      jump\t// out\n        /* \"#utility.yul\":4906:5043   */\n    tag_281:\n        /* \"#utility.yul\":4951:4956   */\n      0x00\n        /* \"#utility.yul\":4989:4995   */\n      dup2\n        /* \"#utility.yul\":4976:4996   */\n      calldataload\n        /* \"#utility.yul\":4967:4996   */\n      swap1\n      pop\n        /* \"#utility.yul\":5005:5037   */\n      tag_404\n        /* \"#utility.yul\":5031:5036   */\n      dup2\n        /* \"#utility.yul\":5005:5037   */\n      tag_280\n      jump\t// in\n    tag_404:\n        /* \"#utility.yul\":4906:5043   */\n      swap3\n      swap2\n      pop\n      pop\n      jump\t// out\n        /* \"#utility.yul\":5065:5772   */\n    tag_282:\n        /* \"#utility.yul\":5160:5165   */\n      0x00\n        /* \"#utility.yul\":5185:5265   */\n      tag_406\n        /* \"#utility.yul\":5201:5264   */\n      tag_407\n        /* \"#utility.yul\":5257:5263   */\n      dup5\n        /* \"#utility.yul\":5201:5264   */\n      tag_278\n      jump\t// in\n    tag_407:\n        /* \"#utility.yul\":5185:5265   */\n      tag_269\n      jump\t// in\n    tag_406:\n        /* \"#utility.yul\":5176:5265   */\n      swap1\n      pop\n        /* \"#utility.yul\":5285:5290   */\n      dup1\n        /* \"#utility.yul\":5314:5320   */\n      dup4\n        /* \"#utility.yul\":5307:5312   */\n      dup3\n        /* \"#utility.yul\":5300:5321   */\n      mstore\n        /* \"#utility.yul\":5348:5352   */\n      0x20\n        /* \"#utility.yul\":5341:5346   */\n      dup3\n        /* \"#utility.yul\":5337:5353   */\n      add\n        /* \"#utility.yul\":5330:5353   */\n      swap1\n      pop\n        /* \"#utility.yul\":5401:5405   */\n      0x20\n        /* \"#utility.yul\":5393:5399   */\n      dup5\n        /* \"#utility.yul\":5389:5406   */\n      mul\n        /* \"#utility.yul\":5381:5387   */\n      dup4\n        /* \"#utility.yul\":5377:5407   */\n      add\n        /* \"#utility.yul\":5430:5433   */\n      dup6\n        /* \"#utility.yul\":5422:5428   */\n      dup2\n        /* \"#utility.yul\":5419:5434   */\n      gt\n        /* \"#utility.yul\":5416:5538   */\n      iszero\n      tag_408\n      jumpi\n        /* \"#utility.yul\":5449:5528   */\n      tag_409\n      tag_275\n      jump\t// in\n    tag_409:\n        /* \"#utility.yul\":5416:5538   */\n    tag_408:\n        /* \"#utility.yul\":5564:5570   */\n      dup4\n        /* \"#utility.yul\":5547:5766   */\n    tag_410:\n        /* \"#utility.yul\":5581:5587   */\n      dup2\n        /* \"#utility.yul\":5576:5579   */\n      dup2\n        /* \"#utility.yul\":5573:5588   */\n      lt\n        /* \"#utility.yul\":5547:5766   */\n      iszero\n      tag_412\n      jumpi\n        /* \"#utility.yul\":5656:5659   */\n      dup1\n        /* \"#utility.yul\":5685:5721   */\n      tag_413\n        /* \"#utility.yul\":5717:5720   */\n      dup9\n        /* \"#utility.yul\":5705:5715   */\n      dup3\n        /* \"#utility.yul\":5685:5721   */\n      tag_281\n      jump\t// in\n    tag_413:\n        /* \"#utility.yul\":5680:5683   */\n      dup5\n        /* \"#utility.yul\":5673:5722   */\n      mstore\n        /* \"#utility.yul\":5751:5755   */\n      0x20\n        /* \"#utility.yul\":5746:5749   */\n      dup5\n        /* \"#utility.yul\":5742:5756   */\n      add\n        /* \"#utility.yul\":5735:5756   */\n      swap4\n      pop\n        /* \"#utility.yul\":5623:5766   */\n      pop\n        /* \"#utility.yul\":5607:5611   */\n      0x20\n        /* \"#utility.yul\":5602:5605   */\n      dup2\n        /* \"#utility.yul\":5598:5612   */\n      add\n        /* \"#utility.yul\":5591:5612   */\n      swap1\n      pop\n        /* \"#utility.yul\":5547:5766   */\n      jump(tag_410)\n    tag_412:\n        /* \"#utility.yul\":5551:5572   */\n      pop\n        /* \"#utility.yul\":5166:5772   */\n      pop\n      pop\n        /* \"#utility.yul\":5065:5772   */\n      swap4\n      swap3\n      pop\n      pop\n      pop\n      jump\t// out\n        /* \"#utility.yul\":5794:6162   */\n    tag_283:\n        /* \"#utility.yul\":5864:5869   */\n      0x00\n        /* \"#utility.yul\":5913:5916   */\n      dup3\n        /* \"#utility.yul\":5906:5910   */\n      0x1f\n        /* \"#utility.yul\":5898:5904   */\n      dup4\n        /* \"#utility.yul\":5894:5911   */\n      add\n        /* \"#utility.yul\":5890:5917   */\n      slt\n        /* \"#utility.yul\":5880:6002   */\n      tag_415\n      jumpi\n        /* \"#utility.yul\":5921:6000   */\n      tag_416\n      tag_264\n      jump\t// in\n    tag_416:\n        /* \"#utility.yul\":5880:6002   */\n    tag_415:\n        /* \"#utility.yul\":6038:6044   */\n      dup2\n        /* \"#utility.yul\":6025:6045   */\n      calldataload\n        /* \"#utility.yul\":6063:6156   */\n      tag_417\n        /* \"#utility.yul\":6152:6155   */\n      dup5\n        /* \"#utility.yul\":6144:6150   */\n      dup3\n        /* \"#utility.yul\":6137:6141   */\n      0x20\n        /* \"#utility.yul\":6129:6135   */\n      dup7\n        /* \"#utility.yul\":6125:6142   */\n      add\n        /* \"#utility.yul\":6063:6156   */\n      tag_282\n      jump\t// in\n    tag_417:\n        /* \"#utility.yul\":6054:6156   */\n      swap2\n      pop\n        /* \"#utility.yul\":5870:6162   */\n      pop\n        /* \"#utility.yul\":5794:6162   */\n      swap3\n      swap2\n      pop\n      pop\n      jump\t// out\n        /* \"#utility.yul\":6168:8057   */\n    tag_11:\n        /* \"#utility.yul\":6352:6358   */\n      0x00\n        /* \"#utility.yul\":6360:6366   */\n      dup1\n        /* \"#utility.yul\":6368:6374   */\n      0x00\n        /* \"#utility.yul\":6376:6382   */\n      dup1\n        /* \"#utility.yul\":6384:6390   */\n      0x00\n        /* \"#utility.yul\":6433:6436   */\n      0xa0\n        /* \"#utility.yul\":6421:6430   */\n      dup7\n        /* \"#utility.yul\":6412:6419   */\n      dup9\n        /* \"#utility.yul\":6408:6431   */\n      sub\n        /* \"#utility.yul\":6404:6437   */\n      slt\n        /* \"#utility.yul\":6401:6521   */\n      iszero\n      tag_419\n      jumpi\n        /* \"#utility.yul\":6440:6519   */\n      tag_420\n      tag_262\n      jump\t// in\n    tag_420:\n        /* \"#utility.yul\":6401:6521   */\n    tag_419:\n        /* \"#utility.yul\":6588:6589   */\n      0x00\n        /* \"#utility.yul\":6577:6586   */\n      dup7\n        /* \"#utility.yul\":6573:6590   */\n      add\n        /* \"#utility.yul\":6560:6591   */\n      calldataload\n        /* \"#utility.yul\":6618:6636   */\n      0xffffffffffffffff\n        /* \"#utility.yul\":6610:6616   */\n      dup2\n        /* \"#utility.yul\":6607:6637   */\n      gt\n        /* \"#utility.yul\":6604:6721   */\n      iszero\n      tag_421\n      jumpi\n        /* \"#utility.yul\":6640:6719   */\n      tag_422\n      tag_263\n      jump\t// in\n    tag_422:\n        /* \"#utility.yul\":6604:6721   */\n    tag_421:\n        /* \"#utility.yul\":6745:6808   */\n      tag_423\n        /* \"#utility.yul\":6800:6807   */\n      dup9\n        /* \"#utility.yul\":6791:6797   */\n      dup3\n        /* \"#utility.yul\":6780:6789   */\n      dup10\n        /* \"#utility.yul\":6776:6798   */\n      add\n        /* \"#utility.yul\":6745:6808   */\n      tag_273\n      jump\t// in\n    tag_423:\n        /* \"#utility.yul\":6735:6808   */\n      swap6\n      pop\n        /* \"#utility.yul\":6531:6818   */\n      pop\n        /* \"#utility.yul\":6885:6887   */\n      0x20\n        /* \"#utility.yul\":6874:6883   */\n      dup7\n        /* \"#utility.yul\":6870:6888   */\n      add\n        /* \"#utility.yul\":6857:6889   */\n      calldataload\n        /* \"#utility.yul\":6916:6934   */\n      0xffffffffffffffff\n        /* \"#utility.yul\":6908:6914   */\n      dup2\n        /* \"#utility.yul\":6905:6935   */\n      gt\n        /* \"#utility.yul\":6902:7019   */\n      iszero\n      tag_424\n      jumpi\n        /* \"#utility.yul\":6938:7017   */\n      tag_425\n      tag_263\n      jump\t// in\n    tag_425:\n        /* \"#utility.yul\":6902:7019   */\n    tag_424:\n        /* \"#utility.yul\":7043:7131   */\n      tag_426\n        /* \"#utility.yul\":7123:7130   */\n      dup9\n        /* \"#utility.yul\":7114:7120   */\n      dup3\n        /* \"#utility.yul\":7103:7112   */\n      dup10\n        /* \"#utility.yul\":7099:7121   */\n      add\n        /* \"#utility.yul\":7043:7131   */\n      tag_277\n      jump\t// in\n    tag_426:\n        /* \"#utility.yul\":7033:7131   */\n      swap5\n      pop\n        /* \"#utility.yul\":6828:7141   */\n      pop\n        /* \"#utility.yul\":7208:7210   */\n      0x40\n        /* \"#utility.yul\":7197:7206   */\n      dup7\n        /* \"#utility.yul\":7193:7211   */\n      add\n        /* \"#utility.yul\":7180:7212   */\n      calldataload\n        /* \"#utility.yul\":7239:7257   */\n      0xffffffffffffffff\n        /* \"#utility.yul\":7231:7237   */\n      dup2\n        /* \"#utility.yul\":7228:7258   */\n      gt\n        /* \"#utility.yul\":7225:7342   */\n      iszero\n      tag_427\n      jumpi\n        /* \"#utility.yul\":7261:7340   */\n      tag_428\n      tag_263\n      jump\t// in\n    tag_428:\n        /* \"#utility.yul\":7225:7342   */\n    tag_427:\n        /* \"#utility.yul\":7366:7443   */\n      tag_429\n        /* \"#utility.yul\":7435:7442   */\n      dup9\n        /* \"#utility.yul\":7426:7432   */\n      dup3\n        /* \"#utility.yul\":7415:7424   */\n      dup10\n        /* \"#utility.yul\":7411:7433   */\n      add\n        /* \"#utility.yul\":7366:7443   */\n      tag_283\n      jump\t// in\n    tag_429:\n        /* \"#utility.yul\":7356:7443   */\n      swap4\n      pop\n        /* \"#utility.yul\":7151:7453   */\n      pop\n        /* \"#utility.yul\":7520:7522   */\n      0x60\n        /* \"#utility.yul\":7509:7518   */\n      dup7\n        /* \"#utility.yul\":7505:7523   */\n      add\n        /* \"#utility.yul\":7492:7524   */\n      calldataload\n        /* \"#utility.yul\":7551:7569   */\n      0xffffffffffffffff\n        /* \"#utility.yul\":7543:7549   */\n      dup2\n        /* \"#utility.yul\":7540:7570   */\n      gt\n        /* \"#utility.yul\":7537:7654   */\n      iszero\n      tag_430\n      jumpi\n        /* \"#utility.yul\":7573:7652   */\n      tag_431\n      tag_263\n      jump\t// in\n    tag_431:\n        /* \"#utility.yul\":7537:7654   */\n    tag_430:\n        /* \"#utility.yul\":7678:7741   */\n      tag_432\n        /* \"#utility.yul\":7733:7740   */\n      dup9\n        /* \"#utility.yul\":7724:7730   */\n      dup3\n        /* \"#utility.yul\":7713:7722   */\n      dup10\n        /* \"#utility.yul\":7709:7731   */\n      add\n        /* \"#utility.yul\":7678:7741   */\n      tag_273\n      jump\t// in\n    tag_432:\n        /* \"#utility.yul\":7668:7741   */\n      swap3\n      pop\n        /* \"#utility.yul\":7463:7751   */\n      pop\n        /* \"#utility.yul\":7818:7821   */\n      0x80\n        /* \"#utility.yul\":7807:7816   */\n      dup7\n        /* \"#utility.yul\":7803:7822   */\n      add\n        /* \"#utility.yul\":7790:7823   */\n      calldataload\n        /* \"#utility.yul\":7850:7868   */\n      0xffffffffffffffff\n        /* \"#utility.yul\":7842:7848   */\n      dup2\n        /* \"#utility.yul\":7839:7869   */\n      gt\n        /* \"#utility.yul\":7836:7953   */\n      iszero\n      tag_433\n      jumpi\n        /* \"#utility.yul\":7872:7951   */\n      tag_434\n      tag_263\n      jump\t// in\n    tag_434:\n        /* \"#utility.yul\":7836:7953   */\n    tag_433:\n        /* \"#utility.yul\":7977:8040   */\n      tag_435\n        /* \"#utility.yul\":8032:8039   */\n      dup9\n        /* \"#utility.yul\":8023:8029   */\n      dup3\n        /* \"#utility.yul\":8012:8021   */\n      dup10\n        /* \"#utility.yul\":8008:8030   */\n      add\n        /* \"#utility.yul\":7977:8040   */\n      tag_273\n      jump\t// in\n    tag_435:\n        /* \"#utility.yul\":7967:8040   */\n      swap2\n      pop\n        /* \"#utility.yul\":7761:8050   */\n      pop\n        /* \"#utility.yul\":6168:8057   */\n      swap3\n      swap6\n      pop\n      swap3\n      swap6\n      swap1\n      swap4\n      pop\n      jump\t// out\n        /* \"#utility.yul\":8063:8140   */\n    tag_284:\n        /* \"#utility.yul\":8100:8107   */\n      0x00\n        /* \"#utility.yul\":8129:8134   */\n      dup2\n        /* \"#utility.yul\":8118:8134   */\n      swap1\n      pop\n        /* \"#utility.yul\":8063:8140   */\n      swap2\n      swap1\n      pop\n      jump\t// out\n        /* \"#utility.yul\":8146:8268   */\n    tag_285:\n        /* \"#utility.yul\":8219:8243   */\n      tag_438\n        /* \"#utility.yul\":8237:8242   */\n      dup2\n        /* \"#utility.yul\":8219:8243   */\n      tag_284\n      jump\t// in\n    tag_438:\n        /* \"#utility.yul\":8212:8217   */\n      dup2\n        /* \"#utility.yul\":8209:8244   */\n      eq\n        /* \"#utility.yul\":8199:8262   */\n      tag_439\n      jumpi\n        /* \"#utility.yul\":8258:8259   */\n      0x00\n        /* \"#utility.yul\":8255:8256   */\n      dup1\n        /* \"#utility.yul\":8248:8260   */\n      revert\n        /* \"#utility.yul\":8199:8262   */\n    tag_439:\n        /* \"#utility.yul\":8146:8268   */\n      pop\n      jump\t// out\n        /* \"#utility.yul\":8274:8413   */\n    tag_286:\n        /* \"#utility.yul\":8320:8325   */\n      0x00\n        /* \"#utility.yul\":8358:8364   */\n      dup2\n        /* \"#utility.yul\":8345:8365   */\n      calldataload\n        /* \"#utility.yul\":8336:8365   */\n      swap1\n      pop\n        /* \"#utility.yul\":8374:8407   */\n      tag_441\n        /* \"#utility.yul\":8401:8406   */\n      dup2\n        /* \"#utility.yul\":8374:8407   */\n      tag_285\n      jump\t// in\n    tag_441:\n        /* \"#utility.yul\":8274:8413   */\n      swap3\n      swap2\n      pop\n      pop\n      jump\t// out\n        /* \"#utility.yul\":8419:8893   */\n    tag_15:\n        /* \"#utility.yul\":8487:8493   */\n      0x00\n        /* \"#utility.yul\":8495:8501   */\n      dup1\n        /* \"#utility.yul\":8544:8546   */\n      0x40\n        /* \"#utility.yul\":8532:8541   */\n      dup4\n        /* \"#utility.yul\":8523:8530   */\n      dup6\n        /* \"#utility.yul\":8519:8542   */\n      sub\n        /* \"#utility.yul\":8515:8547   */\n      slt\n        /* \"#utility.yul\":8512:8631   */\n      iszero\n      tag_443\n      jumpi\n        /* \"#utility.yul\":8550:8629   */\n      tag_444\n      tag_262\n      jump\t// in\n    tag_444:\n        /* \"#utility.yul\":8512:8631   */\n    tag_443:\n        /* \"#utility.yul\":8670:8671   */\n      0x00\n        /* \"#utility.yul\":8695:8748   */\n      tag_445\n        /* \"#utility.yul\":8740:8747   */\n      dup6\n        /* \"#utility.yul\":8731:8737   */\n      dup3\n        /* \"#utility.yul\":8720:8729   */\n      dup7\n        /* \"#utility.yul\":8716:8738   */\n      add\n        /* \"#utility.yul\":8695:8748   */\n      tag_286\n      jump\t// in\n    tag_445:\n        /* \"#utility.yul\":8685:8748   */\n      swap3\n      pop\n        /* \"#utility.yul\":8641:8758   */\n      pop\n        /* \"#utility.yul\":8797:8799   */\n      0x20\n        /* \"#utility.yul\":8823:8876   */\n      tag_446\n        /* \"#utility.yul\":8868:8875   */\n      dup6\n        /* \"#utility.yul\":8859:8865   */\n      dup3\n        /* \"#utility.yul\":8848:8857   */\n      dup7\n        /* \"#utility.yul\":8844:8866   */\n      add\n        /* \"#utility.yul\":8823:8876   */\n      tag_286\n      jump\t// in\n    tag_446:\n        /* \"#utility.yul\":8813:8876   */\n      swap2\n      pop\n        /* \"#utility.yul\":8768:8886   */\n      pop\n        /* \"#utility.yul\":8419:8893   */\n      swap3\n      pop\n      swap3\n      swap1\n      pop\n      jump\t// out\n        /* \"#utility.yul\":8899:8998   */\n    tag_287:\n        /* \"#utility.yul\":8951:8957   */\n      0x00\n        /* \"#utility.yul\":8985:8990   */\n      dup2\n        /* \"#utility.yul\":8979:8991   */\n      mload\n        /* \"#utility.yul\":8969:8991   */\n      swap1\n      pop\n        /* \"#utility.yul\":8899:8998   */\n      swap2\n      swap1\n      pop\n      jump\t// out\n        /* \"#utility.yul\":9004:9173   */\n    tag_288:\n        /* \"#utility.yul\":9088:9099   */\n      0x00\n        /* \"#utility.yul\":9122:9128   */\n      dup3\n        /* \"#utility.yul\":9117:9120   */\n      dup3\n        /* \"#utility.yul\":9110:9129   */\n      mstore\n        /* \"#utility.yul\":9162:9166   */\n      0x20\n        /* \"#utility.yul\":9157:9160   */\n      dup3\n        /* \"#utility.yul\":9153:9167   */\n      add\n        /* \"#utility.yul\":9138:9167   */\n      swap1\n      pop\n        /* \"#utility.yul\":9004:9173   */\n      swap3\n      swap2\n      pop\n      pop\n      jump\t// out\n        /* \"#utility.yul\":9179:9425   */\n    tag_289:\n        /* \"#utility.yul\":9260:9261   */\n      0x00\n        /* \"#utility.yul\":9270:9383   */\n    tag_450:\n        /* \"#utility.yul\":9284:9290   */\n      dup4\n        /* \"#utility.yul\":9281:9282   */\n      dup2\n        /* \"#utility.yul\":9278:9291   */\n      lt\n        /* \"#utility.yul\":9270:9383   */\n      iszero\n      tag_452\n      jumpi\n        /* \"#utility.yul\":9369:9370   */\n      dup1\n        /* \"#utility.yul\":9364:9367   */\n      dup3\n        /* \"#utility.yul\":9360:9371   */\n      add\n        /* \"#utility.yul\":9354:9372   */\n      mload\n        /* \"#utility.yul\":9350:9351   */\n      dup2\n        /* \"#utility.yul\":9345:9348   */\n      dup5\n        /* \"#utility.yul\":9341:9352   */\n      add\n        /* \"#utility.yul\":9334:9373   */\n      mstore\n        /* \"#utility.yul\":9306:9308   */\n      0x20\n        /* \"#utility.yul\":9303:9304   */\n      dup2\n        /* \"#utility.yul\":9299:9309   */\n      add\n        /* \"#utility.yul\":9294:9309   */\n      swap1\n      pop\n        /* \"#utility.yul\":9270:9383   */\n      jump(tag_450)\n    tag_452:\n        /* \"#utility.yul\":9417:9418   */\n      0x00\n        /* \"#utility.yul\":9408:9414   */\n      dup5\n        /* \"#utility.yul\":9403:9406   */\n      dup5\n        /* \"#utility.yul\":9399:9415   */\n      add\n        /* \"#utility.yul\":9392:9419   */\n      mstore\n        /* \"#utility.yul\":9241:9425   */\n      pop\n        /* \"#utility.yul\":9179:9425   */\n      pop\n      pop\n      pop\n      jump\t// out\n        /* \"#utility.yul\":9431:9808   */\n    tag_290:\n        /* \"#utility.yul\":9519:9522   */\n      0x00\n        /* \"#utility.yul\":9547:9586   */\n      tag_454\n        /* \"#utility.yul\":9580:9585   */\n      dup3\n        /* \"#utility.yul\":9547:9586   */\n      tag_287\n      jump\t// in\n    tag_454:\n        /* \"#utility.yul\":9602:9673   */\n      tag_455\n        /* \"#utility.yul\":9666:9672   */\n      dup2\n        /* \"#utility.yul\":9661:9664   */\n      dup6\n        /* \"#utility.yul\":9602:9673   */\n      tag_288\n      jump\t// in\n    tag_455:\n        /* \"#utility.yul\":9595:9673   */\n      swap4\n      pop\n        /* \"#utility.yul\":9682:9747   */\n      tag_456\n        /* \"#utility.yul\":9740:9746   */\n      dup2\n        /* \"#utility.yul\":9735:9738   */\n      dup6\n        /* \"#utility.yul\":9728:9732   */\n      0x20\n        /* \"#utility.yul\":9721:9726   */\n      dup7\n        /* \"#utility.yul\":9717:9733   */\n      add\n        /* \"#utility.yul\":9682:9747   */\n      tag_289\n      jump\t// in\n    tag_456:\n        /* \"#utility.yul\":9772:9801   */\n      tag_457\n        /* \"#utility.yul\":9794:9800   */\n      dup2\n        /* \"#utility.yul\":9772:9801   */\n      tag_266\n      jump\t// in\n    tag_457:\n        /* \"#utility.yul\":9767:9770   */\n      dup5\n        /* \"#utility.yul\":9763:9802   */\n      add\n        /* \"#utility.yul\":9756:9802   */\n      swap2\n      pop\n        /* \"#utility.yul\":9523:9808   */\n      pop\n        /* \"#utility.yul\":9431:9808   */\n      swap3\n      swap2\n      pop\n      pop\n      jump\t// out\n        /* \"#utility.yul\":9814:10529   */\n    tag_18:\n        /* \"#utility.yul\":10023:10027   */\n      0x00\n        /* \"#utility.yul\":10061:10063   */\n      0x60\n        /* \"#utility.yul\":10050:10059   */\n      dup3\n        /* \"#utility.yul\":10046:10064   */\n      add\n        /* \"#utility.yul\":10038:10064   */\n      swap1\n      pop\n        /* \"#utility.yul\":10110:10119   */\n      dup2\n        /* \"#utility.yul\":10104:10108   */\n      dup2\n        /* \"#utility.yul\":10100:10120   */\n      sub\n        /* \"#utility.yul\":10096:10097   */\n      0x00\n        /* \"#utility.yul\":10085:10094   */\n      dup4\n        /* \"#utility.yul\":10081:10098   */\n      add\n        /* \"#utility.yul\":10074:10121   */\n      mstore\n        /* \"#utility.yul\":10138:10216   */\n      tag_459\n        /* \"#utility.yul\":10211:10215   */\n      dup2\n        /* \"#utility.yul\":10202:10208   */\n      dup7\n        /* \"#utility.yul\":10138:10216   */\n      tag_290\n      jump\t// in\n    tag_459:\n        /* \"#utility.yul\":10130:10216   */\n      swap1\n      pop\n        /* \"#utility.yul\":10263:10272   */\n      dup2\n        /* \"#utility.yul\":10257:10261   */\n      dup2\n        /* \"#utility.yul\":10253:10273   */\n      sub\n        /* \"#utility.yul\":10248:10250   */\n      0x20\n        /* \"#utility.yul\":10237:10246   */\n      dup4\n        /* \"#utility.yul\":10233:10251   */\n      add\n        /* \"#utility.yul\":10226:10274   */\n      mstore\n        /* \"#utility.yul\":10291:10369   */\n      tag_460\n        /* \"#utility.yul\":10364:10368   */\n      dup2\n        /* \"#utility.yul\":10355:10361   */\n      dup6\n        /* \"#utility.yul\":10291:10369   */\n      tag_290\n      jump\t// in\n    tag_460:\n        /* \"#utility.yul\":10283:10369   */\n      swap1\n      pop\n        /* \"#utility.yul\":10416:10425   */\n      dup2\n        /* \"#utility.yul\":10410:10414   */\n      dup2\n        /* \"#utility.yul\":10406:10426   */\n      sub\n        /* \"#utility.yul\":10401:10403   */\n      0x40\n        /* \"#utility.yul\":10390:10399   */\n      dup4\n        /* \"#utility.yul\":10386:10404   */\n      add\n        /* \"#utility.yul\":10379:10427   */\n      mstore\n        /* \"#utility.yul\":10444:10522   */\n      tag_461\n        /* \"#utility.yul\":10517:10521   */\n      dup2\n        /* \"#utility.yul\":10508:10514   */\n      dup5\n        /* \"#utility.yul\":10444:10522   */\n      tag_290\n      jump\t// in\n    tag_461:\n        /* \"#utility.yul\":10436:10522   */\n      swap1\n      pop\n        /* \"#utility.yul\":9814:10529   */\n      swap5\n      swap4\n      pop\n      pop\n      pop\n      pop\n      jump\t// out\n        /* \"#utility.yul\":10535:10692   */\n    tag_291:\n        /* \"#utility.yul\":10645:10651   */\n      0x00\n        /* \"#utility.yul\":10679:10684   */\n      dup2\n        /* \"#utility.yul\":10673:10685   */\n      mload\n        /* \"#utility.yul\":10663:10685   */\n      swap1\n      pop\n        /* \"#utility.yul\":10535:10692   */\n      swap2\n      swap1\n      pop\n      jump\t// out\n        /* \"#utility.yul\":10698:10925   */\n    tag_292:\n        /* \"#utility.yul\":10840:10851   */\n      0x00\n        /* \"#utility.yul\":10874:10880   */\n      dup3\n        /* \"#utility.yul\":10869:10872   */\n      dup3\n        /* \"#utility.yul\":10862:10881   */\n      mstore\n        /* \"#utility.yul\":10914:10918   */\n      0x20\n        /* \"#utility.yul\":10909:10912   */\n      dup3\n        /* \"#utility.yul\":10905:10919   */\n      add\n        /* \"#utility.yul\":10890:10919   */\n      swap1\n      pop\n        /* \"#utility.yul\":10698:10925   */\n      swap3\n      swap2\n      pop\n      pop\n      jump\t// out\n        /* \"#utility.yul\":10931:11106   */\n    tag_293:\n        /* \"#utility.yul\":11041:11045   */\n      0x00\n        /* \"#utility.yul\":11064:11067   */\n      dup2\n        /* \"#utility.yul\":11056:11067   */\n      swap1\n      pop\n        /* \"#utility.yul\":11094:11098   */\n      0x20\n        /* \"#utility.yul\":11089:11092   */\n      dup3\n        /* \"#utility.yul\":11085:11099   */\n      add\n        /* \"#utility.yul\":11077:11099   */\n      swap1\n      pop\n        /* \"#utility.yul\":10931:11106   */\n      swap2\n      swap1\n      pop\n      jump\t// out\n        /* \"#utility.yul\":11112:11244   */\n    tag_294:\n        /* \"#utility.yul\":11197:11203   */\n      0x00\n        /* \"#utility.yul\":11231:11236   */\n      dup2\n        /* \"#utility.yul\":11225:11237   */\n      mload\n        /* \"#utility.yul\":11215:11237   */\n      swap1\n      pop\n        /* \"#utility.yul\":11112:11244   */\n      swap2\n      swap1\n      pop\n      jump\t// out\n        /* \"#utility.yul\":11250:11442   */\n    tag_295:\n        /* \"#utility.yul\":11357:11368   */\n      0x00\n        /* \"#utility.yul\":11391:11397   */\n      dup3\n        /* \"#utility.yul\":11386:11389   */\n      dup3\n        /* \"#utility.yul\":11379:11398   */\n      mstore\n        /* \"#utility.yul\":11431:11435   */\n      0x20\n        /* \"#utility.yul\":11426:11429   */\n      dup3\n        /* \"#utility.yul\":11422:11436   */\n      add\n        /* \"#utility.yul\":11407:11436   */\n      swap1\n      pop\n        /* \"#utility.yul\":11250:11442   */\n      swap3\n      swap2\n      pop\n      pop\n      jump\t// out\n        /* \"#utility.yul\":11448:11598   */\n    tag_296:\n        /* \"#utility.yul\":11533:11537   */\n      0x00\n        /* \"#utility.yul\":11556:11559   */\n      dup2\n        /* \"#utility.yul\":11548:11559   */\n      swap1\n      pop\n        /* \"#utility.yul\":11586:11590   */\n      0x20\n        /* \"#utility.yul\":11581:11584   */\n      dup3\n        /* \"#utility.yul\":11577:11591   */\n      add\n        /* \"#utility.yul\":11569:11591   */\n      swap1\n      pop\n        /* \"#utility.yul\":11448:11598   */\n      swap2\n      swap1\n      pop\n      jump\t// out\n        /* \"#utility.yul\":11604:11763   */\n    tag_297:\n        /* \"#utility.yul\":11678:11689   */\n      0x00\n        /* \"#utility.yul\":11712:11718   */\n      dup3\n        /* \"#utility.yul\":11707:11710   */\n      dup3\n        /* \"#utility.yul\":11700:11719   */\n      mstore\n        /* \"#utility.yul\":11752:11756   */\n      0x20\n        /* \"#utility.yul\":11747:11750   */\n      dup3\n        /* \"#utility.yul\":11743:11757   */\n      add\n        /* \"#utility.yul\":11728:11757   */\n      swap1\n      pop\n        /* \"#utility.yul\":11604:11763   */\n      swap3\n      swap2\n      pop\n      pop\n      jump\t// out\n        /* \"#utility.yul\":11769:12126   */\n    tag_298:\n        /* \"#utility.yul\":11847:11850   */\n      0x00\n        /* \"#utility.yul\":11875:11914   */\n      tag_470\n        /* \"#utility.yul\":11908:11913   */\n      dup3\n        /* \"#utility.yul\":11875:11914   */\n      tag_287\n      jump\t// in\n    tag_470:\n        /* \"#utility.yul\":11930:11991   */\n      tag_471\n        /* \"#utility.yul\":11984:11990   */\n      dup2\n        /* \"#utility.yul\":11979:11982   */\n      dup6\n        /* \"#utility.yul\":11930:11991   */\n      tag_297\n      jump\t// in\n    tag_471:\n        /* \"#utility.yul\":11923:11991   */\n      swap4\n      pop\n        /* \"#utility.yul\":12000:12065   */\n      tag_472\n        /* \"#utility.yul\":12058:12064   */\n      dup2\n        /* \"#utility.yul\":12053:12056   */\n      dup6\n        /* \"#utility.yul\":12046:12050   */\n      0x20\n        /* \"#utility.yul\":12039:12044   */\n      dup7\n        /* \"#utility.yul\":12035:12051   */\n      add\n        /* \"#utility.yul\":12000:12065   */\n      tag_289\n      jump\t// in\n    tag_472:\n        /* \"#utility.yul\":12090:12119   */\n      tag_473\n        /* \"#utility.yul\":12112:12118   */\n      dup2\n        /* \"#utility.yul\":12090:12119   */\n      tag_266\n      jump\t// in\n    tag_473:\n        /* \"#utility.yul\":12085:12088   */\n      dup5\n        /* \"#utility.yul\":12081:12120   */\n      add\n        /* \"#utility.yul\":12074:12120   */\n      swap2\n      pop\n        /* \"#utility.yul\":11851:12126   */\n      pop\n        /* \"#utility.yul\":11769:12126   */\n      swap3\n      swap2\n      pop\n      pop\n      jump\t// out\n        /* \"#utility.yul\":12132:12256   */\n    tag_299:\n        /* \"#utility.yul\":12209:12215   */\n      0x00\n        /* \"#utility.yul\":12243:12248   */\n      dup2\n        /* \"#utility.yul\":12237:12249   */\n      mload\n        /* \"#utility.yul\":12227:12249   */\n      swap1\n      pop\n        /* \"#utility.yul\":12132:12256   */\n      swap2\n      swap1\n      pop\n      jump\t// out\n        /* \"#utility.yul\":12262:12446   */\n    tag_300:\n        /* \"#utility.yul\":12361:12372   */\n      0x00\n        /* \"#utility.yul\":12395:12401   */\n      dup3\n        /* \"#utility.yul\":12390:12393   */\n      dup3\n        /* \"#utility.yul\":12383:12402   */\n      mstore\n        /* \"#utility.yul\":12435:12439   */\n      0x20\n        /* \"#utility.yul\":12430:12433   */\n      dup3\n        /* \"#utility.yul\":12426:12440   */\n      add\n        /* \"#utility.yul\":12411:12440   */\n      swap1\n      pop\n        /* \"#utility.yul\":12262:12446   */\n      swap3\n      swap2\n      pop\n      pop\n      jump\t// out\n        /* \"#utility.yul\":12452:12594   */\n    tag_301:\n        /* \"#utility.yul\":12529:12533   */\n      0x00\n        /* \"#utility.yul\":12552:12555   */\n      dup2\n        /* \"#utility.yul\":12544:12555   */\n      swap1\n      pop\n        /* \"#utility.yul\":12582:12586   */\n      0x20\n        /* \"#utility.yul\":12577:12580   */\n      dup3\n        /* \"#utility.yul\":12573:12587   */\n      add\n        /* \"#utility.yul\":12565:12587   */\n      swap1\n      pop\n        /* \"#utility.yul\":12452:12594   */\n      swap2\n      swap1\n      pop\n      jump\t// out\n        /* \"#utility.yul\":12600:12796   */\n    tag_302:\n        /* \"#utility.yul\":12689:12699   */\n      0x00\n        /* \"#utility.yul\":12724:12790   */\n      tag_478\n        /* \"#utility.yul\":12786:12789   */\n      dup4\n        /* \"#utility.yul\":12778:12784   */\n      dup4\n        /* \"#utility.yul\":12724:12790   */\n      tag_298\n      jump\t// in\n    tag_478:\n        /* \"#utility.yul\":12710:12790   */\n      swap1\n      pop\n        /* \"#utility.yul\":12600:12796   */\n      swap3\n      swap2\n      pop\n      pop\n      jump\t// out\n        /* \"#utility.yul\":12802:12925   */\n    tag_303:\n        /* \"#utility.yul\":12882:12886   */\n      0x00\n        /* \"#utility.yul\":12914:12918   */\n      0x20\n        /* \"#utility.yul\":12909:12912   */\n      dup3\n        /* \"#utility.yul\":12905:12919   */\n      add\n        /* \"#utility.yul\":12897:12919   */\n      swap1\n      pop\n        /* \"#utility.yul\":12802:12925   */\n      swap2\n      swap1\n      pop\n      jump\t// out\n        /* \"#utility.yul\":12959:13930   */\n    tag_304:\n        /* \"#utility.yul\":13088:13091   */\n      0x00\n        /* \"#utility.yul\":13117:13181   */\n      tag_481\n        /* \"#utility.yul\":13175:13180   */\n      dup3\n        /* \"#utility.yul\":13117:13181   */\n      tag_299\n      jump\t// in\n    tag_481:\n        /* \"#utility.yul\":13197:13283   */\n      tag_482\n        /* \"#utility.yul\":13276:13282   */\n      dup2\n        /* \"#utility.yul\":13271:13274   */\n      dup6\n        /* \"#utility.yul\":13197:13283   */\n      tag_300\n      jump\t// in\n    tag_482:\n        /* \"#utility.yul\":13190:13283   */\n      swap4\n      pop\n        /* \"#utility.yul\":13309:13312   */\n      dup4\n        /* \"#utility.yul\":13354:13358   */\n      0x20\n        /* \"#utility.yul\":13346:13352   */\n      dup3\n        /* \"#utility.yul\":13342:13359   */\n      mul\n        /* \"#utility.yul\":13337:13340   */\n      dup6\n        /* \"#utility.yul\":13333:13360   */\n      add\n        /* \"#utility.yul\":13384:13450   */\n      tag_483\n        /* \"#utility.yul\":13444:13449   */\n      dup6\n        /* \"#utility.yul\":13384:13450   */\n      tag_301\n      jump\t// in\n    tag_483:\n        /* \"#utility.yul\":13473:13480   */\n      dup1\n        /* \"#utility.yul\":13504:13505   */\n      0x00\n        /* \"#utility.yul\":13489:13885   */\n    tag_484:\n        /* \"#utility.yul\":13514:13520   */\n      dup6\n        /* \"#utility.yul\":13511:13512   */\n      dup2\n        /* \"#utility.yul\":13508:13521   */\n      lt\n        /* \"#utility.yul\":13489:13885   */\n      iszero\n      tag_486\n      jumpi\n        /* \"#utility.yul\":13585:13594   */\n      dup5\n        /* \"#utility.yul\":13579:13583   */\n      dup5\n        /* \"#utility.yul\":13575:13595   */\n      sub\n        /* \"#utility.yul\":13570:13573   */\n      dup10\n        /* \"#utility.yul\":13563:13596   */\n      mstore\n        /* \"#utility.yul\":13636:13642   */\n      dup2\n        /* \"#utility.yul\":13630:13643   */\n      mload\n        /* \"#utility.yul\":13664:13748   */\n      tag_487\n        /* \"#utility.yul\":13743:13747   */\n      dup6\n        /* \"#utility.yul\":13728:13741   */\n      dup3\n        /* \"#utility.yul\":13664:13748   */\n      tag_302\n      jump\t// in\n    tag_487:\n        /* \"#utility.yul\":13656:13748   */\n      swap5\n      pop\n        /* \"#utility.yul\":13771:13841   */\n      tag_488\n        /* \"#utility.yul\":13834:13840   */\n      dup4\n        /* \"#utility.yul\":13771:13841   */\n      tag_303\n      jump\t// in\n    tag_488:\n        /* \"#utility.yul\":13761:13841   */\n      swap3\n      pop\n        /* \"#utility.yul\":13870:13874   */\n      0x20\n        /* \"#utility.yul\":13865:13868   */\n      dup11\n        /* \"#utility.yul\":13861:13875   */\n      add\n        /* \"#utility.yul\":13854:13875   */\n      swap10\n      pop\n        /* \"#utility.yul\":13549:13885   */\n      pop\n        /* \"#utility.yul\":13536:13537   */\n      0x01\n        /* \"#utility.yul\":13533:13534   */\n      dup2\n        /* \"#utility.yul\":13529:13538   */\n      add\n        /* \"#utility.yul\":13524:13538   */\n      swap1\n      pop\n        /* \"#utility.yul\":13489:13885   */\n      jump(tag_484)\n    tag_486:\n        /* \"#utility.yul\":13493:13507   */\n      pop\n        /* \"#utility.yul\":13901:13905   */\n      dup3\n        /* \"#utility.yul\":13894:13905   */\n      swap8\n      pop\n        /* \"#utility.yul\":13921:13924   */\n      dup8\n        /* \"#utility.yul\":13914:13924   */\n      swap6\n      pop\n        /* \"#utility.yul\":13093:13930   */\n      pop\n      pop\n      pop\n      pop\n      pop\n        /* \"#utility.yul\":12959:13930   */\n      swap3\n      swap2\n      pop\n      pop\n      jump\t// out\n        /* \"#utility.yul\":13936:14049   */\n    tag_305:\n        /* \"#utility.yul\":14002:14008   */\n      0x00\n        /* \"#utility.yul\":14036:14041   */\n      dup2\n        /* \"#utility.yul\":14030:14042   */\n      mload\n        /* \"#utility.yul\":14020:14042   */\n      swap1\n      pop\n        /* \"#utility.yul\":13936:14049   */\n      swap2\n      swap1\n      pop\n      jump\t// out\n        /* \"#utility.yul\":14055:14228   */\n    tag_306:\n        /* \"#utility.yul\":14143:14154   */\n      0x00\n        /* \"#utility.yul\":14177:14183   */\n      dup3\n        /* \"#utility.yul\":14172:14175   */\n      dup3\n        /* \"#utility.yul\":14165:14184   */\n      mstore\n        /* \"#utility.yul\":14217:14221   */\n      0x20\n        /* \"#utility.yul\":14212:14215   */\n      dup3\n        /* \"#utility.yul\":14208:14222   */\n      add\n        /* \"#utility.yul\":14193:14222   */\n      swap1\n      pop\n        /* \"#utility.yul\":14055:14228   */\n      swap3\n      swap2\n      pop\n      pop\n      jump\t// out\n        /* \"#utility.yul\":14234:14365   */\n    tag_307:\n        /* \"#utility.yul\":14300:14304   */\n      0x00\n        /* \"#utility.yul\":14323:14326   */\n      dup2\n        /* \"#utility.yul\":14315:14326   */\n      swap1\n      pop\n        /* \"#utility.yul\":14353:14357   */\n      0x20\n        /* \"#utility.yul\":14348:14351   */\n      dup3\n        /* \"#utility.yul\":14344:14358   */\n      add\n        /* \"#utility.yul\":14336:14358   */\n      swap1\n      pop\n        /* \"#utility.yul\":14234:14365   */\n      swap2\n      swap1\n      pop\n      jump\t// out\n        /* \"#utility.yul\":14371:14476   */\n    tag_308:\n        /* \"#utility.yul\":14446:14469   */\n      tag_493\n        /* \"#utility.yul\":14463:14468   */\n      dup2\n        /* \"#utility.yul\":14446:14469   */\n      tag_279\n      jump\t// in\n    tag_493:\n        /* \"#utility.yul\":14441:14444   */\n      dup3\n        /* \"#utility.yul\":14434:14470   */\n      mstore\n        /* \"#utility.yul\":14371:14476   */\n      pop\n      pop\n      jump\t// out\n        /* \"#utility.yul\":14482:14657   */\n    tag_309:\n        /* \"#utility.yul\":14549:14559   */\n      0x00\n        /* \"#utility.yul\":14570:14614   */\n      tag_495\n        /* \"#utility.yul\":14610:14613   */\n      dup4\n        /* \"#utility.yul\":14602:14608   */\n      dup4\n        /* \"#utility.yul\":14570:14614   */\n      tag_308\n      jump\t// in\n    tag_495:\n        /* \"#utility.yul\":14646:14650   */\n      0x20\n        /* \"#utility.yul\":14641:14644   */\n      dup4\n        /* \"#utility.yul\":14637:14651   */\n      add\n        /* \"#utility.yul\":14623:14651   */\n      swap1\n      pop\n        /* \"#utility.yul\":14482:14657   */\n      swap3\n      swap2\n      pop\n      pop\n      jump\t// out\n        /* \"#utility.yul\":14663:14775   */\n    tag_310:\n        /* \"#utility.yul\":14732:14736   */\n      0x00\n        /* \"#utility.yul\":14764:14768   */\n      0x20\n        /* \"#utility.yul\":14759:14762   */\n      dup3\n        /* \"#utility.yul\":14755:14769   */\n      add\n        /* \"#utility.yul\":14747:14769   */\n      swap1\n      pop\n        /* \"#utility.yul\":14663:14775   */\n      swap2\n      swap1\n      pop\n      jump\t// out\n        /* \"#utility.yul\":14809:15513   */\n    tag_311:\n        /* \"#utility.yul\":14916:14919   */\n      0x00\n        /* \"#utility.yul\":14945:14998   */\n      tag_498\n        /* \"#utility.yul\":14992:14997   */\n      dup3\n        /* \"#utility.yul\":14945:14998   */\n      tag_305\n      jump\t// in\n    tag_498:\n        /* \"#utility.yul\":15014:15089   */\n      tag_499\n        /* \"#utility.yul\":15082:15088   */\n      dup2\n        /* \"#utility.yul\":15077:15080   */\n      dup6\n        /* \"#utility.yul\":15014:15089   */\n      tag_306\n      jump\t// in\n    tag_499:\n        /* \"#utility.yul\":15007:15089   */\n      swap4\n      pop\n        /* \"#utility.yul\":15113:15168   */\n      tag_500\n        /* \"#utility.yul\":15162:15167   */\n      dup4\n        /* \"#utility.yul\":15113:15168   */\n      tag_307\n      jump\t// in\n    tag_500:\n        /* \"#utility.yul\":15191:15198   */\n      dup1\n        /* \"#utility.yul\":15222:15223   */\n      0x00\n        /* \"#utility.yul\":15207:15488   */\n    tag_501:\n        /* \"#utility.yul\":15232:15238   */\n      dup4\n        /* \"#utility.yul\":15229:15230   */\n      dup2\n        /* \"#utility.yul\":15226:15239   */\n      lt\n        /* \"#utility.yul\":15207:15488   */\n      iszero\n      tag_503\n      jumpi\n        /* \"#utility.yul\":15308:15314   */\n      dup2\n        /* \"#utility.yul\":15302:15315   */\n      mload\n        /* \"#utility.yul\":15335:15396   */\n      tag_504\n        /* \"#utility.yul\":15392:15395   */\n      dup9\n        /* \"#utility.yul\":15377:15390   */\n      dup3\n        /* \"#utility.yul\":15335:15396   */\n      tag_309\n      jump\t// in\n    tag_504:\n        /* \"#utility.yul\":15328:15396   */\n      swap8\n      pop\n        /* \"#utility.yul\":15419:15478   */\n      tag_505\n        /* \"#utility.yul\":15471:15477   */\n      dup4\n        /* \"#utility.yul\":15419:15478   */\n      tag_310\n      jump\t// in\n    tag_505:\n        /* \"#utility.yul\":15409:15478   */\n      swap3\n      pop\n        /* \"#utility.yul\":15267:15488   */\n      pop\n        /* \"#utility.yul\":15254:15255   */\n      0x01\n        /* \"#utility.yul\":15251:15252   */\n      dup2\n        /* \"#utility.yul\":15247:15256   */\n      add\n        /* \"#utility.yul\":15242:15256   */\n      swap1\n      pop\n        /* \"#utility.yul\":15207:15488   */\n      jump(tag_501)\n    tag_503:\n        /* \"#utility.yul\":15211:15225   */\n      pop\n        /* \"#utility.yul\":15504:15507   */\n      dup6\n        /* \"#utility.yul\":15497:15507   */\n      swap4\n      pop\n        /* \"#utility.yul\":14921:15513   */\n      pop\n      pop\n      pop\n        /* \"#utility.yul\":14809:15513   */\n      swap3\n      swap2\n      pop\n      pop\n      jump\t// out\n        /* \"#utility.yul\":15565:17040   */\n    tag_312:\n        /* \"#utility.yul\":15660:15663   */\n      0x00\n        /* \"#utility.yul\":15696:15700   */\n      0xa0\n        /* \"#utility.yul\":15691:15694   */\n      dup4\n        /* \"#utility.yul\":15687:15701   */\n      add\n        /* \"#utility.yul\":15786:15790   */\n      0x00\n        /* \"#utility.yul\":15779:15784   */\n      dup4\n        /* \"#utility.yul\":15775:15791   */\n      add\n        /* \"#utility.yul\":15769:15792   */\n      mload\n        /* \"#utility.yul\":15839:15842   */\n      dup5\n        /* \"#utility.yul\":15833:15837   */\n      dup3\n        /* \"#utility.yul\":15829:15843   */\n      sub\n        /* \"#utility.yul\":15822:15826   */\n      0x00\n        /* \"#utility.yul\":15817:15820   */\n      dup7\n        /* \"#utility.yul\":15813:15827   */\n      add\n        /* \"#utility.yul\":15806:15844   */\n      mstore\n        /* \"#utility.yul\":15865:15938   */\n      tag_507\n        /* \"#utility.yul\":15933:15937   */\n      dup3\n        /* \"#utility.yul\":15919:15931   */\n      dup3\n        /* \"#utility.yul\":15865:15938   */\n      tag_298\n      jump\t// in\n    tag_507:\n        /* \"#utility.yul\":15857:15938   */\n      swap2\n      pop\n        /* \"#utility.yul\":15711:15949   */\n      pop\n        /* \"#utility.yul\":16031:16035   */\n      0x20\n        /* \"#utility.yul\":16024:16029   */\n      dup4\n        /* \"#utility.yul\":16020:16036   */\n      add\n        /* \"#utility.yul\":16014:16037   */\n      mload\n        /* \"#utility.yul\":16084:16087   */\n      dup5\n        /* \"#utility.yul\":16078:16082   */\n      dup3\n        /* \"#utility.yul\":16074:16088   */\n      sub\n        /* \"#utility.yul\":16067:16071   */\n      0x20\n        /* \"#utility.yul\":16062:16065   */\n      dup7\n        /* \"#utility.yul\":16058:16072   */\n      add\n        /* \"#utility.yul\":16051:16089   */\n      mstore\n        /* \"#utility.yul\":16110:16233   */\n      tag_508\n        /* \"#utility.yul\":16228:16232   */\n      dup3\n        /* \"#utility.yul\":16214:16226   */\n      dup3\n        /* \"#utility.yul\":16110:16233   */\n      tag_304\n      jump\t// in\n    tag_508:\n        /* \"#utility.yul\":16102:16233   */\n      swap2\n      pop\n        /* \"#utility.yul\":15959:16244   */\n      pop\n        /* \"#utility.yul\":16330:16334   */\n      0x40\n        /* \"#utility.yul\":16323:16328   */\n      dup4\n        /* \"#utility.yul\":16319:16335   */\n      add\n        /* \"#utility.yul\":16313:16336   */\n      mload\n        /* \"#utility.yul\":16383:16386   */\n      dup5\n        /* \"#utility.yul\":16377:16381   */\n      dup3\n        /* \"#utility.yul\":16373:16387   */\n      sub\n        /* \"#utility.yul\":16366:16370   */\n      0x40\n        /* \"#utility.yul\":16361:16364   */\n      dup7\n        /* \"#utility.yul\":16357:16371   */\n      add\n        /* \"#utility.yul\":16350:16388   */\n      mstore\n        /* \"#utility.yul\":16409:16510   */\n      tag_509\n        /* \"#utility.yul\":16505:16509   */\n      dup3\n        /* \"#utility.yul\":16491:16503   */\n      dup3\n        /* \"#utility.yul\":16409:16510   */\n      tag_311\n      jump\t// in\n    tag_509:\n        /* \"#utility.yul\":16401:16510   */\n      swap2\n      pop\n        /* \"#utility.yul\":16254:16521   */\n      pop\n        /* \"#utility.yul\":16603:16607   */\n      0x60\n        /* \"#utility.yul\":16596:16601   */\n      dup4\n        /* \"#utility.yul\":16592:16608   */\n      add\n        /* \"#utility.yul\":16586:16609   */\n      mload\n        /* \"#utility.yul\":16656:16659   */\n      dup5\n        /* \"#utility.yul\":16650:16654   */\n      dup3\n        /* \"#utility.yul\":16646:16660   */\n      sub\n        /* \"#utility.yul\":16639:16643   */\n      0x60\n        /* \"#utility.yul\":16634:16637   */\n      dup7\n        /* \"#utility.yul\":16630:16644   */\n      add\n        /* \"#utility.yul\":16623:16661   */\n      mstore\n        /* \"#utility.yul\":16682:16755   */\n      tag_510\n        /* \"#utility.yul\":16750:16754   */\n      dup3\n        /* \"#utility.yul\":16736:16748   */\n      dup3\n        /* \"#utility.yul\":16682:16755   */\n      tag_298\n      jump\t// in\n    tag_510:\n        /* \"#utility.yul\":16674:16755   */\n      swap2\n      pop\n        /* \"#utility.yul\":16531:16766   */\n      pop\n        /* \"#utility.yul\":16850:16854   */\n      0x80\n        /* \"#utility.yul\":16843:16848   */\n      dup4\n        /* \"#utility.yul\":16839:16855   */\n      add\n        /* \"#utility.yul\":16833:16856   */\n      mload\n        /* \"#utility.yul\":16903:16906   */\n      dup5\n        /* \"#utility.yul\":16897:16901   */\n      dup3\n        /* \"#utility.yul\":16893:16907   */\n      sub\n        /* \"#utility.yul\":16886:16890   */\n      0x80\n        /* \"#utility.yul\":16881:16884   */\n      dup7\n        /* \"#utility.yul\":16877:16891   */\n      add\n        /* \"#utility.yul\":16870:16908   */\n      mstore\n        /* \"#utility.yul\":16929:17002   */\n      tag_511\n        /* \"#utility.yul\":16997:17001   */\n      dup3\n        /* \"#utility.yul\":16983:16995   */\n      dup3\n        /* \"#utility.yul\":16929:17002   */\n      tag_298\n      jump\t// in\n    tag_511:\n        /* \"#utility.yul\":16921:17002   */\n      swap2\n      pop\n        /* \"#utility.yul\":16776:17013   */\n      pop\n        /* \"#utility.yul\":17030:17034   */\n      dup1\n        /* \"#utility.yul\":17023:17034   */\n      swap2\n      pop\n        /* \"#utility.yul\":15665:17040   */\n      pop\n        /* \"#utility.yul\":15565:17040   */\n      swap3\n      swap2\n      pop\n      pop\n      jump\t// out\n        /* \"#utility.yul\":17046:17274   */\n    tag_313:\n        /* \"#utility.yul\":17151:17161   */\n      0x00\n        /* \"#utility.yul\":17186:17268   */\n      tag_513\n        /* \"#utility.yul\":17264:17267   */\n      dup4\n        /* \"#utility.yul\":17256:17262   */\n      dup4\n        /* \"#utility.yul\":17186:17268   */\n      tag_312\n      jump\t// in\n    tag_513:\n        /* \"#utility.yul\":17172:17268   */\n      swap1\n      pop\n        /* \"#utility.yul\":17046:17274   */\n      swap3\n      swap2\n      pop\n      pop\n      jump\t// out\n        /* \"#utility.yul\":17280:17411   */\n    tag_314:\n        /* \"#utility.yul\":17368:17372   */\n      0x00\n        /* \"#utility.yul\":17400:17404   */\n      0x20\n        /* \"#utility.yul\":17395:17398   */\n      dup3\n        /* \"#utility.yul\":17391:17405   */\n      add\n        /* \"#utility.yul\":17383:17405   */\n      swap1\n      pop\n        /* \"#utility.yul\":17280:17411   */\n      swap2\n      swap1\n      pop\n      jump\t// out\n        /* \"#utility.yul\":17467:18502   */\n    tag_315:\n        /* \"#utility.yul\":17612:17615   */\n      0x00\n        /* \"#utility.yul\":17641:17713   */\n      tag_516\n        /* \"#utility.yul\":17707:17712   */\n      dup3\n        /* \"#utility.yul\":17641:17713   */\n      tag_294\n      jump\t// in\n    tag_516:\n        /* \"#utility.yul\":17729:17823   */\n      tag_517\n        /* \"#utility.yul\":17816:17822   */\n      dup2\n        /* \"#utility.yul\":17811:17814   */\n      dup6\n        /* \"#utility.yul\":17729:17823   */\n      tag_295\n      jump\t// in\n    tag_517:\n        /* \"#utility.yul\":17722:17823   */\n      swap4\n      pop\n        /* \"#utility.yul\":17849:17852   */\n      dup4\n        /* \"#utility.yul\":17894:17898   */\n      0x20\n        /* \"#utility.yul\":17886:17892   */\n      dup3\n        /* \"#utility.yul\":17882:17899   */\n      mul\n        /* \"#utility.yul\":17877:17880   */\n      dup6\n        /* \"#utility.yul\":17873:17900   */\n      add\n        /* \"#utility.yul\":17924:17998   */\n      tag_518\n        /* \"#utility.yul\":17992:17997   */\n      dup6\n        /* \"#utility.yul\":17924:17998   */\n      tag_296\n      jump\t// in\n    tag_518:\n        /* \"#utility.yul\":18021:18028   */\n      dup1\n        /* \"#utility.yul\":18052:18053   */\n      0x00\n        /* \"#utility.yul\":18037:18457   */\n    tag_519:\n        /* \"#utility.yul\":18062:18068   */\n      dup6\n        /* \"#utility.yul\":18059:18060   */\n      dup2\n        /* \"#utility.yul\":18056:18069   */\n      lt\n        /* \"#utility.yul\":18037:18457   */\n      iszero\n      tag_521\n      jumpi\n        /* \"#utility.yul\":18133:18142   */\n      dup5\n        /* \"#utility.yul\":18127:18131   */\n      dup5\n        /* \"#utility.yul\":18123:18143   */\n      sub\n        /* \"#utility.yul\":18118:18121   */\n      dup10\n        /* \"#utility.yul\":18111:18144   */\n      mstore\n        /* \"#utility.yul\":18184:18190   */\n      dup2\n        /* \"#utility.yul\":18178:18191   */\n      mload\n        /* \"#utility.yul\":18212:18312   */\n      tag_522\n        /* \"#utility.yul\":18307:18311   */\n      dup6\n        /* \"#utility.yul\":18292:18305   */\n      dup3\n        /* \"#utility.yul\":18212:18312   */\n      tag_313\n      jump\t// in\n    tag_522:\n        /* \"#utility.yul\":18204:18312   */\n      swap5\n      pop\n        /* \"#utility.yul\":18335:18413   */\n      tag_523\n        /* \"#utility.yul\":18406:18412   */\n      dup4\n        /* \"#utility.yul\":18335:18413   */\n      tag_314\n      jump\t// in\n    tag_523:\n        /* \"#utility.yul\":18325:18413   */\n      swap3\n      pop\n        /* \"#utility.yul\":18442:18446   */\n      0x20\n        /* \"#utility.yul\":18437:18440   */\n      dup11\n        /* \"#utility.yul\":18433:18447   */\n      add\n        /* \"#utility.yul\":18426:18447   */\n      swap10\n      pop\n        /* \"#utility.yul\":18097:18457   */\n      pop\n        /* \"#utility.yul\":18084:18085   */\n      0x01\n        /* \"#utility.yul\":18081:18082   */\n      dup2\n        /* \"#utility.yul\":18077:18086   */\n      add\n        /* \"#utility.yul\":18072:18086   */\n      swap1\n      pop\n        /* \"#utility.yul\":18037:18457   */\n      jump(tag_519)\n    tag_521:\n        /* \"#utility.yul\":18041:18055   */\n      pop\n        /* \"#utility.yul\":18473:18477   */\n      dup3\n        /* \"#utility.yul\":18466:18477   */\n      swap8\n      pop\n        /* \"#utility.yul\":18493:18496   */\n      dup8\n        /* \"#utility.yul\":18486:18496   */\n      swap6\n      pop\n        /* \"#utility.yul\":17617:18502   */\n      pop\n      pop\n      pop\n      pop\n      pop\n        /* \"#utility.yul\":17467:18502   */\n      swap3\n      swap2\n      pop\n      pop\n      jump\t// out\n        /* \"#utility.yul\":18508:18836   */\n    tag_316:\n        /* \"#utility.yul\":18663:18673   */\n      0x00\n        /* \"#utility.yul\":18698:18830   */\n      tag_525\n        /* \"#utility.yul\":18826:18829   */\n      dup4\n        /* \"#utility.yul\":18818:18824   */\n      dup4\n        /* \"#utility.yul\":18698:18830   */\n      tag_315\n      jump\t// in\n    tag_525:\n        /* \"#utility.yul\":18684:18830   */\n      swap1\n      pop\n        /* \"#utility.yul\":18508:18836   */\n      swap3\n      swap2\n      pop\n      pop\n      jump\t// out\n        /* \"#utility.yul\":18842:18998   */\n    tag_317:\n        /* \"#utility.yul\":18955:18959   */\n      0x00\n        /* \"#utility.yul\":18987:18991   */\n      0x20\n        /* \"#utility.yul\":18982:18985   */\n      dup3\n        /* \"#utility.yul\":18978:18992   */\n      add\n        /* \"#utility.yul\":18970:18992   */\n      swap1\n      pop\n        /* \"#utility.yul\":18842:18998   */\n      swap2\n      swap1\n      pop\n      jump\t// out\n        /* \"#utility.yul\":19058:20313   */\n    tag_318:\n        /* \"#utility.yul\":19263:19266   */\n      0x00\n        /* \"#utility.yul\":19292:19389   */\n      tag_528\n        /* \"#utility.yul\":19383:19388   */\n      dup3\n        /* \"#utility.yul\":19292:19389   */\n      tag_291\n      jump\t// in\n    tag_528:\n        /* \"#utility.yul\":19405:19534   */\n      tag_529\n        /* \"#utility.yul\":19527:19533   */\n      dup2\n        /* \"#utility.yul\":19522:19525   */\n      dup6\n        /* \"#utility.yul\":19405:19534   */\n      tag_292\n      jump\t// in\n    tag_529:\n        /* \"#utility.yul\":19398:19534   */\n      swap4\n      pop\n        /* \"#utility.yul\":19560:19563   */\n      dup4\n        /* \"#utility.yul\":19605:19609   */\n      0x20\n        /* \"#utility.yul\":19597:19603   */\n      dup3\n        /* \"#utility.yul\":19593:19610   */\n      mul\n        /* \"#utility.yul\":19588:19591   */\n      dup6\n        /* \"#utility.yul\":19584:19611   */\n      add\n        /* \"#utility.yul\":19635:19734   */\n      tag_530\n        /* \"#utility.yul\":19728:19733   */\n      dup6\n        /* \"#utility.yul\":19635:19734   */\n      tag_293\n      jump\t// in\n    tag_530:\n        /* \"#utility.yul\":19757:19764   */\n      dup1\n        /* \"#utility.yul\":19788:19789   */\n      0x00\n        /* \"#utility.yul\":19773:20268   */\n    tag_531:\n        /* \"#utility.yul\":19798:19804   */\n      dup6\n        /* \"#utility.yul\":19795:19796   */\n      dup2\n        /* \"#utility.yul\":19792:19805   */\n      lt\n        /* \"#utility.yul\":19773:20268   */\n      iszero\n      tag_533\n      jumpi\n        /* \"#utility.yul\":19869:19878   */\n      dup5\n        /* \"#utility.yul\":19863:19867   */\n      dup5\n        /* \"#utility.yul\":19859:19879   */\n      sub\n        /* \"#utility.yul\":19854:19857   */\n      dup10\n        /* \"#utility.yul\":19847:19880   */\n      mstore\n        /* \"#utility.yul\":19920:19926   */\n      dup2\n        /* \"#utility.yul\":19914:19927   */\n      mload\n        /* \"#utility.yul\":19948:20098   */\n      tag_534\n        /* \"#utility.yul\":20093:20097   */\n      dup6\n        /* \"#utility.yul\":20078:20091   */\n      dup3\n        /* \"#utility.yul\":19948:20098   */\n      tag_316\n      jump\t// in\n    tag_534:\n        /* \"#utility.yul\":19940:20098   */\n      swap5\n      pop\n        /* \"#utility.yul\":20121:20224   */\n      tag_535\n        /* \"#utility.yul\":20217:20223   */\n      dup4\n        /* \"#utility.yul\":20121:20224   */\n      tag_317\n      jump\t// in\n    tag_535:\n        /* \"#utility.yul\":20111:20224   */\n      swap3\n      pop\n        /* \"#utility.yul\":20253:20257   */\n      0x20\n        /* \"#utility.yul\":20248:20251   */\n      dup11\n        /* \"#utility.yul\":20244:20258   */\n      add\n        /* \"#utility.yul\":20237:20258   */\n      swap10\n      pop\n        /* \"#utility.yul\":19833:20268   */\n      pop\n        /* \"#utility.yul\":19820:19821   */\n      0x01\n        /* \"#utility.yul\":19817:19818   */\n      dup2\n        /* \"#utility.yul\":19813:19822   */\n      add\n        /* \"#utility.yul\":19808:19822   */\n      swap1\n      pop\n        /* \"#utility.yul\":19773:20268   */\n      jump(tag_531)\n    tag_533:\n        /* \"#utility.yul\":19777:19791   */\n      pop\n        /* \"#utility.yul\":20284:20288   */\n      dup3\n        /* \"#utility.yul\":20277:20288   */\n      swap8\n      pop\n        /* \"#utility.yul\":20304:20307   */\n      dup8\n        /* \"#utility.yul\":20297:20307   */\n      swap6\n      pop\n        /* \"#utility.yul\":19268:20313   */\n      pop\n      pop\n      pop\n      pop\n      pop\n        /* \"#utility.yul\":19058:20313   */\n      swap3\n      swap2\n      pop\n      pop\n      jump\t// out\n        /* \"#utility.yul\":20319:20864   */\n    tag_22:\n        /* \"#utility.yul\":20548:20552   */\n      0x00\n        /* \"#utility.yul\":20586:20588   */\n      0x20\n        /* \"#utility.yul\":20575:20584   */\n      dup3\n        /* \"#utility.yul\":20571:20589   */\n      add\n        /* \"#utility.yul\":20563:20589   */\n      swap1\n      pop\n        /* \"#utility.yul\":20635:20644   */\n      dup2\n        /* \"#utility.yul\":20629:20633   */\n      dup2\n        /* \"#utility.yul\":20625:20645   */\n      sub\n        /* \"#utility.yul\":20621:20622   */\n      0x00\n        /* \"#utility.yul\":20610:20619   */\n      dup4\n        /* \"#utility.yul\":20606:20623   */\n      add\n        /* \"#utility.yul\":20599:20646   */\n      mstore\n        /* \"#utility.yul\":20663:20857   */\n      tag_537\n        /* \"#utility.yul\":20852:20856   */\n      dup2\n        /* \"#utility.yul\":20843:20849   */\n      dup5\n        /* \"#utility.yul\":20663:20857   */\n      tag_318\n      jump\t// in\n    tag_537:\n        /* \"#utility.yul\":20655:20857   */\n      swap1\n      pop\n        /* \"#utility.yul\":20319:20864   */\n      swap3\n      swap2\n      pop\n      pop\n      jump\t// out\n        /* \"#utility.yul\":20870:20988   */\n    tag_319:\n        /* \"#utility.yul\":20957:20981   */\n      tag_539\n        /* \"#utility.yul\":20975:20980   */\n      dup2\n        /* \"#utility.yul\":20957:20981   */\n      tag_284\n      jump\t// in\n    tag_539:\n        /* \"#utility.yul\":20952:20955   */\n      dup3\n        /* \"#utility.yul\":20945:20982   */\n      mstore\n        /* \"#utility.yul\":20870:20988   */\n      pop\n      pop\n      jump\t// out\n        /* \"#utility.yul\":20994:21216   */\n    tag_26:\n        /* \"#utility.yul\":21087:21091   */\n      0x00\n        /* \"#utility.yul\":21125:21127   */\n      0x20\n        /* \"#utility.yul\":21114:21123   */\n      dup3\n        /* \"#utility.yul\":21110:21128   */\n      add\n        /* \"#utility.yul\":21102:21128   */\n      swap1\n      pop\n        /* \"#utility.yul\":21138:21209   */\n      tag_541\n        /* \"#utility.yul\":21206:21207   */\n      0x00\n        /* \"#utility.yul\":21195:21204   */\n      dup4\n        /* \"#utility.yul\":21191:21208   */\n      add\n        /* \"#utility.yul\":21182:21188   */\n      dup5\n        /* \"#utility.yul\":21138:21209   */\n      tag_319\n      jump\t// in\n    tag_541:\n        /* \"#utility.yul\":20994:21216   */\n      swap3\n      swap2\n      pop\n      pop\n      jump\t// out\n        /* \"#utility.yul\":21222:21354   */\n    tag_320:\n        /* \"#utility.yul\":21307:21313   */\n      0x00\n        /* \"#utility.yul\":21341:21346   */\n      dup2\n        /* \"#utility.yul\":21335:21347   */\n      mload\n        /* \"#utility.yul\":21325:21347   */\n      swap1\n      pop\n        /* \"#utility.yul\":21222:21354   */\n      swap2\n      swap1\n      pop\n      jump\t// out\n        /* \"#utility.yul\":21360:21562   */\n    tag_321:\n        /* \"#utility.yul\":21477:21488   */\n      0x00\n        /* \"#utility.yul\":21511:21517   */\n      dup3\n        /* \"#utility.yul\":21506:21509   */\n      dup3\n        /* \"#utility.yul\":21499:21518   */\n      mstore\n        /* \"#utility.yul\":21551:21555   */\n      0x20\n        /* \"#utility.yul\":21546:21549   */\n      dup3\n        /* \"#utility.yul\":21542:21556   */\n      add\n        /* \"#utility.yul\":21527:21556   */\n      swap1\n      pop\n        /* \"#utility.yul\":21360:21562   */\n      swap3\n      swap2\n      pop\n      pop\n      jump\t// out\n        /* \"#utility.yul\":21568:21718   */\n    tag_322:\n        /* \"#utility.yul\":21653:21657   */\n      0x00\n        /* \"#utility.yul\":21676:21679   */\n      dup2\n        /* \"#utility.yul\":21668:21679   */\n      swap1\n      pop\n        /* \"#utility.yul\":21706:21710   */\n      0x20\n        /* \"#utility.yul\":21701:21704   */\n      dup3\n        /* \"#utility.yul\":21697:21711   */\n      add\n        /* \"#utility.yul\":21689:21711   */\n      swap1\n      pop\n        /* \"#utility.yul\":21568:21718   */\n      swap2\n      swap1\n      pop\n      jump\t// out\n        /* \"#utility.yul\":21770:24508   */\n    tag_323:\n        /* \"#utility.yul\":21865:21868   */\n      0x00\n        /* \"#utility.yul\":21901:21907   */\n      0x0140\n        /* \"#utility.yul\":21896:21899   */\n      dup4\n        /* \"#utility.yul\":21892:21908   */\n      add\n        /* \"#utility.yul\":21993:21997   */\n      0x00\n        /* \"#utility.yul\":21986:21991   */\n      dup4\n        /* \"#utility.yul\":21982:21998   */\n      add\n        /* \"#utility.yul\":21976:21999   */\n      mload\n        /* \"#utility.yul\":22046:22049   */\n      dup5\n        /* \"#utility.yul\":22040:22044   */\n      dup3\n        /* \"#utility.yul\":22036:22050   */\n      sub\n        /* \"#utility.yul\":22029:22033   */\n      0x00\n        /* \"#utility.yul\":22024:22027   */\n      dup7\n        /* \"#utility.yul\":22020:22034   */\n      add\n        /* \"#utility.yul\":22013:22051   */\n      mstore\n        /* \"#utility.yul\":22072:22145   */\n      tag_546\n        /* \"#utility.yul\":22140:22144   */\n      dup3\n        /* \"#utility.yul\":22126:22138   */\n      dup3\n        /* \"#utility.yul\":22072:22145   */\n      tag_298\n      jump\t// in\n    tag_546:\n        /* \"#utility.yul\":22064:22145   */\n      swap2\n      pop\n        /* \"#utility.yul\":21918:22156   */\n      pop\n        /* \"#utility.yul\":22238:22242   */\n      0x20\n        /* \"#utility.yul\":22231:22236   */\n      dup4\n        /* \"#utility.yul\":22227:22243   */\n      add\n        /* \"#utility.yul\":22221:22244   */\n      mload\n        /* \"#utility.yul\":22291:22294   */\n      dup5\n        /* \"#utility.yul\":22285:22289   */\n      dup3\n        /* \"#utility.yul\":22281:22295   */\n      sub\n        /* \"#utility.yul\":22274:22278   */\n      0x20\n        /* \"#utility.yul\":22269:22272   */\n      dup7\n        /* \"#utility.yul\":22265:22279   */\n      add\n        /* \"#utility.yul\":22258:22296   */\n      mstore\n        /* \"#utility.yul\":22317:22440   */\n      tag_547\n        /* \"#utility.yul\":22435:22439   */\n      dup3\n        /* \"#utility.yul\":22421:22433   */\n      dup3\n        /* \"#utility.yul\":22317:22440   */\n      tag_304\n      jump\t// in\n    tag_547:\n        /* \"#utility.yul\":22309:22440   */\n      swap2\n      pop\n        /* \"#utility.yul\":22166:22451   */\n      pop\n        /* \"#utility.yul\":22537:22541   */\n      0x40\n        /* \"#utility.yul\":22530:22535   */\n      dup4\n        /* \"#utility.yul\":22526:22542   */\n      add\n        /* \"#utility.yul\":22520:22543   */\n      mload\n        /* \"#utility.yul\":22590:22593   */\n      dup5\n        /* \"#utility.yul\":22584:22588   */\n      dup3\n        /* \"#utility.yul\":22580:22594   */\n      sub\n        /* \"#utility.yul\":22573:22577   */\n      0x40\n        /* \"#utility.yul\":22568:22571   */\n      dup7\n        /* \"#utility.yul\":22564:22578   */\n      add\n        /* \"#utility.yul\":22557:22595   */\n      mstore\n        /* \"#utility.yul\":22616:22717   */\n      tag_548\n        /* \"#utility.yul\":22712:22716   */\n      dup3\n        /* \"#utility.yul\":22698:22710   */\n      dup3\n        /* \"#utility.yul\":22616:22717   */\n      tag_311\n      jump\t// in\n    tag_548:\n        /* \"#utility.yul\":22608:22717   */\n      swap2\n      pop\n        /* \"#utility.yul\":22461:22728   */\n      pop\n        /* \"#utility.yul\":22810:22814   */\n      0x60\n        /* \"#utility.yul\":22803:22808   */\n      dup4\n        /* \"#utility.yul\":22799:22815   */\n      add\n        /* \"#utility.yul\":22793:22816   */\n      mload\n        /* \"#utility.yul\":22863:22866   */\n      dup5\n        /* \"#utility.yul\":22857:22861   */\n      dup3\n        /* \"#utility.yul\":22853:22867   */\n      sub\n        /* \"#utility.yul\":22846:22850   */\n      0x60\n        /* \"#utility.yul\":22841:22844   */\n      dup7\n        /* \"#utility.yul\":22837:22851   */\n      add\n        /* \"#utility.yul\":22830:22868   */\n      mstore\n        /* \"#utility.yul\":22889:22962   */\n      tag_549\n        /* \"#utility.yul\":22957:22961   */\n      dup3\n        /* \"#utility.yul\":22943:22955   */\n      dup3\n        /* \"#utility.yul\":22889:22962   */\n      tag_298\n      jump\t// in\n    tag_549:\n        /* \"#utility.yul\":22881:22962   */\n      swap2\n      pop\n        /* \"#utility.yul\":22738:22973   */\n      pop\n        /* \"#utility.yul\":23057:23061   */\n      0x80\n        /* \"#utility.yul\":23050:23055   */\n      dup4\n        /* \"#utility.yul\":23046:23062   */\n      add\n        /* \"#utility.yul\":23040:23063   */\n      mload\n        /* \"#utility.yul\":23110:23113   */\n      dup5\n        /* \"#utility.yul\":23104:23108   */\n      dup3\n        /* \"#utility.yul\":23100:23114   */\n      sub\n        /* \"#utility.yul\":23093:23097   */\n      0x80\n        /* \"#utility.yul\":23088:23091   */\n      dup7\n        /* \"#utility.yul\":23084:23098   */\n      add\n        /* \"#utility.yul\":23077:23115   */\n      mstore\n        /* \"#utility.yul\":23136:23209   */\n      tag_550\n        /* \"#utility.yul\":23204:23208   */\n      dup3\n        /* \"#utility.yul\":23190:23202   */\n      dup3\n        /* \"#utility.yul\":23136:23209   */\n      tag_298\n      jump\t// in\n    tag_550:\n        /* \"#utility.yul\":23128:23209   */\n      swap2\n      pop\n        /* \"#utility.yul\":22983:23220   */\n      pop\n        /* \"#utility.yul\":23303:23307   */\n      0xa0\n        /* \"#utility.yul\":23296:23301   */\n      dup4\n        /* \"#utility.yul\":23292:23308   */\n      add\n        /* \"#utility.yul\":23286:23309   */\n      mload\n        /* \"#utility.yul\":23356:23359   */\n      dup5\n        /* \"#utility.yul\":23350:23354   */\n      dup3\n        /* \"#utility.yul\":23346:23360   */\n      sub\n        /* \"#utility.yul\":23339:23343   */\n      0xa0\n        /* \"#utility.yul\":23334:23337   */\n      dup7\n        /* \"#utility.yul\":23330:23344   */\n      add\n        /* \"#utility.yul\":23323:23361   */\n      mstore\n        /* \"#utility.yul\":23382:23483   */\n      tag_551\n        /* \"#utility.yul\":23478:23482   */\n      dup3\n        /* \"#utility.yul\":23464:23476   */\n      dup3\n        /* \"#utility.yul\":23382:23483   */\n      tag_311\n      jump\t// in\n    tag_551:\n        /* \"#utility.yul\":23374:23483   */\n      swap2\n      pop\n        /* \"#utility.yul\":23230:23494   */\n      pop\n        /* \"#utility.yul\":23574:23578   */\n      0xc0\n        /* \"#utility.yul\":23567:23572   */\n      dup4\n        /* \"#utility.yul\":23563:23579   */\n      add\n        /* \"#utility.yul\":23557:23580   */\n      mload\n        /* \"#utility.yul\":23627:23630   */\n      dup5\n        /* \"#utility.yul\":23621:23625   */\n      dup3\n        /* \"#utility.yul\":23617:23631   */\n      sub\n        /* \"#utility.yul\":23610:23614   */\n      0xc0\n        /* \"#utility.yul\":23605:23608   */\n      dup7\n        /* \"#utility.yul\":23601:23615   */\n      add\n        /* \"#utility.yul\":23594:23632   */\n      mstore\n        /* \"#utility.yul\":23653:23726   */\n      tag_552\n        /* \"#utility.yul\":23721:23725   */\n      dup3\n        /* \"#utility.yul\":23707:23719   */\n      dup3\n        /* \"#utility.yul\":23653:23726   */\n      tag_298\n      jump\t// in\n    tag_552:\n        /* \"#utility.yul\":23645:23726   */\n      swap2\n      pop\n        /* \"#utility.yul\":23504:23737   */\n      pop\n        /* \"#utility.yul\":23817:23821   */\n      0xe0\n        /* \"#utility.yul\":23810:23815   */\n      dup4\n        /* \"#utility.yul\":23806:23822   */\n      add\n        /* \"#utility.yul\":23800:23823   */\n      mload\n        /* \"#utility.yul\":23870:23873   */\n      dup5\n        /* \"#utility.yul\":23864:23868   */\n      dup3\n        /* \"#utility.yul\":23860:23874   */\n      sub\n        /* \"#utility.yul\":23853:23857   */\n      0xe0\n        /* \"#utility.yul\":23848:23851   */\n      dup7\n        /* \"#utility.yul\":23844:23858   */\n      add\n        /* \"#utility.yul\":23837:23875   */\n      mstore\n        /* \"#utility.yul\":23896:23969   */\n      tag_553\n        /* \"#utility.yul\":23964:23968   */\n      dup3\n        /* \"#utility.yul\":23950:23962   */\n      dup3\n        /* \"#utility.yul\":23896:23969   */\n      tag_298\n      jump\t// in\n    tag_553:\n        /* \"#utility.yul\":23888:23969   */\n      swap2\n      pop\n        /* \"#utility.yul\":23747:23980   */\n      pop\n        /* \"#utility.yul\":24064:24070   */\n      0x0100\n        /* \"#utility.yul\":24057:24062   */\n      dup4\n        /* \"#utility.yul\":24053:24071   */\n      add\n        /* \"#utility.yul\":24047:24072   */\n      mload\n        /* \"#utility.yul\":24121:24124   */\n      dup5\n        /* \"#utility.yul\":24115:24119   */\n      dup3\n        /* \"#utility.yul\":24111:24125   */\n      sub\n        /* \"#utility.yul\":24102:24108   */\n      0x0100\n        /* \"#utility.yul\":24097:24100   */\n      dup7\n        /* \"#utility.yul\":24093:24109   */\n      add\n        /* \"#utility.yul\":24086:24126   */\n      mstore\n        /* \"#utility.yul\":24147:24220   */\n      tag_554\n        /* \"#utility.yul\":24215:24219   */\n      dup3\n        /* \"#utility.yul\":24201:24213   */\n      dup3\n        /* \"#utility.yul\":24147:24220   */\n      tag_298\n      jump\t// in\n    tag_554:\n        /* \"#utility.yul\":24139:24220   */\n      swap2\n      pop\n        /* \"#utility.yul\":23990:24231   */\n      pop\n        /* \"#utility.yul\":24314:24320   */\n      0x0120\n        /* \"#utility.yul\":24307:24312   */\n      dup4\n        /* \"#utility.yul\":24303:24321   */\n      add\n        /* \"#utility.yul\":24297:24322   */\n      mload\n        /* \"#utility.yul\":24371:24374   */\n      dup5\n        /* \"#utility.yul\":24365:24369   */\n      dup3\n        /* \"#utility.yul\":24361:24375   */\n      sub\n        /* \"#utility.yul\":24352:24358   */\n      0x0120\n        /* \"#utility.yul\":24347:24350   */\n      dup7\n        /* \"#utility.yul\":24343:24359   */\n      add\n        /* \"#utility.yul\":24336:24376   */\n      mstore\n        /* \"#utility.yul\":24397:24470   */\n      tag_555\n        /* \"#utility.yul\":24465:24469   */\n      dup3\n        /* \"#utility.yul\":24451:24463   */\n      dup3\n        /* \"#utility.yul\":24397:24470   */\n      tag_298\n      jump\t// in\n    tag_555:\n        /* \"#utility.yul\":24389:24470   */\n      swap2\n      pop\n        /* \"#utility.yul\":24241:24481   */\n      pop\n        /* \"#utility.yul\":24498:24502   */\n      dup1\n        /* \"#utility.yul\":24491:24502   */\n      swap2\n      pop\n        /* \"#utility.yul\":21870:24508   */\n      pop\n        /* \"#utility.yul\":21770:24508   */\n      swap3\n      swap2\n      pop\n      pop\n      jump\t// out\n        /* \"#utility.yul\":24514:24742   */\n    tag_324:\n        /* \"#utility.yul\":24619:24629   */\n      0x00\n        /* \"#utility.yul\":24654:24736   */\n      tag_557\n        /* \"#utility.yul\":24732:24735   */\n      dup4\n        /* \"#utility.yul\":24724:24730   */\n      dup4\n        /* \"#utility.yul\":24654:24736   */\n      tag_323\n      jump\t// in\n    tag_557:\n        /* \"#utility.yul\":24640:24736   */\n      swap1\n      pop\n        /* \"#utility.yul\":24514:24742   */\n      swap3\n      swap2\n      pop\n      pop\n      jump\t// out\n        /* \"#utility.yul\":24748:24879   */\n    tag_325:\n        /* \"#utility.yul\":24836:24840   */\n      0x00\n        /* \"#utility.yul\":24868:24872   */\n      0x20\n        /* \"#utility.yul\":24863:24866   */\n      dup3\n        /* \"#utility.yul\":24859:24873   */\n      add\n        /* \"#utility.yul\":24851:24873   */\n      swap1\n      pop\n        /* \"#utility.yul\":24748:24879   */\n      swap2\n      swap1\n      pop\n      jump\t// out\n        /* \"#utility.yul\":24935:25990   */\n    tag_326:\n        /* \"#utility.yul\":25090:25093   */\n      0x00\n        /* \"#utility.yul\":25119:25191   */\n      tag_560\n        /* \"#utility.yul\":25185:25190   */\n      dup3\n        /* \"#utility.yul\":25119:25191   */\n      tag_320\n      jump\t// in\n    tag_560:\n        /* \"#utility.yul\":25207:25311   */\n      tag_561\n        /* \"#utility.yul\":25304:25310   */\n      dup2\n        /* \"#utility.yul\":25299:25302   */\n      dup6\n        /* \"#utility.yul\":25207:25311   */\n      tag_321\n      jump\t// in\n    tag_561:\n        /* \"#utility.yul\":25200:25311   */\n      swap4\n      pop\n        /* \"#utility.yul\":25337:25340   */\n      dup4\n        /* \"#utility.yul\":25382:25386   */\n      0x20\n        /* \"#utility.yul\":25374:25380   */\n      dup3\n        /* \"#utility.yul\":25370:25387   */\n      mul\n        /* \"#utility.yul\":25365:25368   */\n      dup6\n        /* \"#utility.yul\":25361:25388   */\n      add\n        /* \"#utility.yul\":25412:25486   */\n      tag_562\n        /* \"#utility.yul\":25480:25485   */\n      dup6\n        /* \"#utility.yul\":25412:25486   */\n      tag_322\n      jump\t// in\n    tag_562:\n        /* \"#utility.yul\":25509:25516   */\n      dup1\n        /* \"#utility.yul\":25540:25541   */\n      0x00\n        /* \"#utility.yul\":25525:25945   */\n    tag_563:\n        /* \"#utility.yul\":25550:25556   */\n      dup6\n        /* \"#utility.yul\":25547:25548   */\n      dup2\n        /* \"#utility.yul\":25544:25557   */\n      lt\n        /* \"#utility.yul\":25525:25945   */\n      iszero\n      tag_565\n      jumpi\n        /* \"#utility.yul\":25621:25630   */\n      dup5\n        /* \"#utility.yul\":25615:25619   */\n      dup5\n        /* \"#utility.yul\":25611:25631   */\n      sub\n        /* \"#utility.yul\":25606:25609   */\n      dup10\n        /* \"#utility.yul\":25599:25632   */\n      mstore\n        /* \"#utility.yul\":25672:25678   */\n      dup2\n        /* \"#utility.yul\":25666:25679   */\n      mload\n        /* \"#utility.yul\":25700:25800   */\n      tag_566\n        /* \"#utility.yul\":25795:25799   */\n      dup6\n        /* \"#utility.yul\":25780:25793   */\n      dup3\n        /* \"#utility.yul\":25700:25800   */\n      tag_324\n      jump\t// in\n    tag_566:\n        /* \"#utility.yul\":25692:25800   */\n      swap5\n      pop\n        /* \"#utility.yul\":25823:25901   */\n      tag_567\n        /* \"#utility.yul\":25894:25900   */\n      dup4\n        /* \"#utility.yul\":25823:25901   */\n      tag_325\n      jump\t// in\n    tag_567:\n        /* \"#utility.yul\":25813:25901   */\n      swap3\n      pop\n        /* \"#utility.yul\":25930:25934   */\n      0x20\n        /* \"#utility.yul\":25925:25928   */\n      dup11\n        /* \"#utility.yul\":25921:25935   */\n      add\n        /* \"#utility.yul\":25914:25935   */\n      swap10\n      pop\n        /* \"#utility.yul\":25585:25945   */\n      pop\n        /* \"#utility.yul\":25572:25573   */\n      0x01\n        /* \"#utility.yul\":25569:25570   */\n      dup2\n        /* \"#utility.yul\":25565:25574   */\n      add\n        /* \"#utility.yul\":25560:25574   */\n      swap1\n      pop\n        /* \"#utility.yul\":25525:25945   */\n      jump(tag_563)\n    tag_565:\n        /* \"#utility.yul\":25529:25543   */\n      pop\n        /* \"#utility.yul\":25961:25965   */\n      dup3\n        /* \"#utility.yul\":25954:25965   */\n      swap8\n      pop\n        /* \"#utility.yul\":25981:25984   */\n      dup8\n        /* \"#utility.yul\":25974:25984   */\n      swap6\n      pop\n        /* \"#utility.yul\":25095:25990   */\n      pop\n      pop\n      pop\n      pop\n      pop\n        /* \"#utility.yul\":24935:25990   */\n      swap3\n      swap2\n      pop\n      pop\n      jump\t// out\n        /* \"#utility.yul\":25996:26441   */\n    tag_30:\n        /* \"#utility.yul\":26175:26179   */\n      0x00\n        /* \"#utility.yul\":26213:26215   */\n      0x20\n        /* \"#utility.yul\":26202:26211   */\n      dup3\n        /* \"#utility.yul\":26198:26216   */\n      add\n        /* \"#utility.yul\":26190:26216   */\n      swap1\n      pop\n        /* \"#utility.yul\":26262:26271   */\n      dup2\n        /* \"#utility.yul\":26256:26260   */\n      dup2\n        /* \"#utility.yul\":26252:26272   */\n      sub\n        /* \"#utility.yul\":26248:26249   */\n      0x00\n        /* \"#utility.yul\":26237:26246   */\n      dup4\n        /* \"#utility.yul\":26233:26250   */\n      add\n        /* \"#utility.yul\":26226:26273   */\n      mstore\n        /* \"#utility.yul\":26290:26434   */\n      tag_569\n        /* \"#utility.yul\":26429:26433   */\n      dup2\n        /* \"#utility.yul\":26420:26426   */\n      dup5\n        /* \"#utility.yul\":26290:26434   */\n      tag_326\n      jump\t// in\n    tag_569:\n        /* \"#utility.yul\":26282:26434   */\n      swap1\n      pop\n        /* \"#utility.yul\":25996:26441   */\n      swap3\n      swap2\n      pop\n      pop\n      jump\t// out\n        /* \"#utility.yul\":26447:26776   */\n    tag_33:\n        /* \"#utility.yul\":26506:26512   */\n      0x00\n        /* \"#utility.yul\":26555:26557   */\n      0x20\n        /* \"#utility.yul\":26543:26552   */\n      dup3\n        /* \"#utility.yul\":26534:26541   */\n      dup5\n        /* \"#utility.yul\":26530:26553   */\n      sub\n        /* \"#utility.yul\":26526:26558   */\n      slt\n        /* \"#utility.yul\":26523:26642   */\n      iszero\n      tag_571\n      jumpi\n        /* \"#utility.yul\":26561:26640   */\n      tag_572\n      tag_262\n      jump\t// in\n    tag_572:\n        /* \"#utility.yul\":26523:26642   */\n    tag_571:\n        /* \"#utility.yul\":26681:26682   */\n      0x00\n        /* \"#utility.yul\":26706:26759   */\n      tag_573\n        /* \"#utility.yul\":26751:26758   */\n      dup5\n        /* \"#utility.yul\":26742:26748   */\n      dup3\n        /* \"#utility.yul\":26731:26740   */\n      dup6\n        /* \"#utility.yul\":26727:26749   */\n      add\n        /* \"#utility.yul\":26706:26759   */\n      tag_286\n      jump\t// in\n    tag_573:\n        /* \"#utility.yul\":26696:26759   */\n      swap2\n      pop\n        /* \"#utility.yul\":26652:26769   */\n      pop\n        /* \"#utility.yul\":26447:26776   */\n      swap3\n      swap2\n      pop\n      pop\n      jump\t// out\n        /* \"#utility.yul\":26782:28305   */\n    tag_36:\n        /* \"#utility.yul\":27183:27187   */\n      0x00\n        /* \"#utility.yul\":27221:27224   */\n      0xe0\n        /* \"#utility.yul\":27210:27219   */\n      dup3\n        /* \"#utility.yul\":27206:27225   */\n      add\n        /* \"#utility.yul\":27198:27225   */\n      swap1\n      pop\n        /* \"#utility.yul\":27271:27280   */\n      dup2\n        /* \"#utility.yul\":27265:27269   */\n      dup2\n        /* \"#utility.yul\":27261:27281   */\n      sub\n        /* \"#utility.yul\":27257:27258   */\n      0x00\n        /* \"#utility.yul\":27246:27255   */\n      dup4\n        /* \"#utility.yul\":27242:27259   */\n      add\n        /* \"#utility.yul\":27235:27282   */\n      mstore\n        /* \"#utility.yul\":27299:27377   */\n      tag_575\n        /* \"#utility.yul\":27372:27376   */\n      dup2\n        /* \"#utility.yul\":27363:27369   */\n      dup11\n        /* \"#utility.yul\":27299:27377   */\n      tag_290\n      jump\t// in\n    tag_575:\n        /* \"#utility.yul\":27291:27377   */\n      swap1\n      pop\n        /* \"#utility.yul\":27424:27433   */\n      dup2\n        /* \"#utility.yul\":27418:27422   */\n      dup2\n        /* \"#utility.yul\":27414:27434   */\n      sub\n        /* \"#utility.yul\":27409:27411   */\n      0x20\n        /* \"#utility.yul\":27398:27407   */\n      dup4\n        /* \"#utility.yul\":27394:27412   */\n      add\n        /* \"#utility.yul\":27387:27435   */\n      mstore\n        /* \"#utility.yul\":27452:27530   */\n      tag_576\n        /* \"#utility.yul\":27525:27529   */\n      dup2\n        /* \"#utility.yul\":27516:27522   */\n      dup10\n        /* \"#utility.yul\":27452:27530   */\n      tag_290\n      jump\t// in\n    tag_576:\n        /* \"#utility.yul\":27444:27530   */\n      swap1\n      pop\n        /* \"#utility.yul\":27577:27586   */\n      dup2\n        /* \"#utility.yul\":27571:27575   */\n      dup2\n        /* \"#utility.yul\":27567:27587   */\n      sub\n        /* \"#utility.yul\":27562:27564   */\n      0x40\n        /* \"#utility.yul\":27551:27560   */\n      dup4\n        /* \"#utility.yul\":27547:27565   */\n      add\n        /* \"#utility.yul\":27540:27588   */\n      mstore\n        /* \"#utility.yul\":27605:27683   */\n      tag_577\n        /* \"#utility.yul\":27678:27682   */\n      dup2\n        /* \"#utility.yul\":27669:27675   */\n      dup9\n        /* \"#utility.yul\":27605:27683   */\n      tag_290\n      jump\t// in\n    tag_577:\n        /* \"#utility.yul\":27597:27683   */\n      swap1\n      pop\n        /* \"#utility.yul\":27730:27739   */\n      dup2\n        /* \"#utility.yul\":27724:27728   */\n      dup2\n        /* \"#utility.yul\":27720:27740   */\n      sub\n        /* \"#utility.yul\":27715:27717   */\n      0x60\n        /* \"#utility.yul\":27704:27713   */\n      dup4\n        /* \"#utility.yul\":27700:27718   */\n      add\n        /* \"#utility.yul\":27693:27741   */\n      mstore\n        /* \"#utility.yul\":27758:27836   */\n      tag_578\n        /* \"#utility.yul\":27831:27835   */\n      dup2\n        /* \"#utility.yul\":27822:27828   */\n      dup8\n        /* \"#utility.yul\":27758:27836   */\n      tag_290\n      jump\t// in\n    tag_578:\n        /* \"#utility.yul\":27750:27836   */\n      swap1\n      pop\n        /* \"#utility.yul\":27884:27893   */\n      dup2\n        /* \"#utility.yul\":27878:27882   */\n      dup2\n        /* \"#utility.yul\":27874:27894   */\n      sub\n        /* \"#utility.yul\":27868:27871   */\n      0x80\n        /* \"#utility.yul\":27857:27866   */\n      dup4\n        /* \"#utility.yul\":27853:27872   */\n      add\n        /* \"#utility.yul\":27846:27895   */\n      mstore\n        /* \"#utility.yul\":27912:27990   */\n      tag_579\n        /* \"#utility.yul\":27985:27989   */\n      dup2\n        /* \"#utility.yul\":27976:27982   */\n      dup7\n        /* \"#utility.yul\":27912:27990   */\n      tag_290\n      jump\t// in\n    tag_579:\n        /* \"#utility.yul\":27904:27990   */\n      swap1\n      pop\n        /* \"#utility.yul\":28038:28047   */\n      dup2\n        /* \"#utility.yul\":28032:28036   */\n      dup2\n        /* \"#utility.yul\":28028:28048   */\n      sub\n        /* \"#utility.yul\":28022:28025   */\n      0xa0\n        /* \"#utility.yul\":28011:28020   */\n      dup4\n        /* \"#utility.yul\":28007:28026   */\n      add\n        /* \"#utility.yul\":28000:28049   */\n      mstore\n        /* \"#utility.yul\":28066:28144   */\n      tag_580\n        /* \"#utility.yul\":28139:28143   */\n      dup2\n        /* \"#utility.yul\":28130:28136   */\n      dup6\n        /* \"#utility.yul\":28066:28144   */\n      tag_290\n      jump\t// in\n    tag_580:\n        /* \"#utility.yul\":28058:28144   */\n      swap1\n      pop\n        /* \"#utility.yul\":28192:28201   */\n      dup2\n        /* \"#utility.yul\":28186:28190   */\n      dup2\n        /* \"#utility.yul\":28182:28202   */\n      sub\n        /* \"#utility.yul\":28176:28179   */\n      0xc0\n        /* \"#utility.yul\":28165:28174   */\n      dup4\n        /* \"#utility.yul\":28161:28180   */\n      add\n        /* \"#utility.yul\":28154:28203   */\n      mstore\n        /* \"#utility.yul\":28220:28298   */\n      tag_581\n        /* \"#utility.yul\":28293:28297   */\n      dup2\n        /* \"#utility.yul\":28284:28290   */\n      dup5\n        /* \"#utility.yul\":28220:28298   */\n      tag_290\n      jump\t// in\n    tag_581:\n        /* \"#utility.yul\":28212:28298   */\n      swap1\n      pop\n        /* \"#utility.yul\":26782:28305   */\n      swap9\n      swap8\n      pop\n      pop\n      pop\n      pop\n      pop\n      pop\n      pop\n      pop\n      jump\t// out\n        /* \"#utility.yul\":28311:28491   */\n    tag_43:\n        /* \"#utility.yul\":28359:28436   */\n      0x4e487b7100000000000000000000000000000000000000000000000000000000\n        /* \"#utility.yul\":28356:28357   */\n      0x00\n        /* \"#utility.yul\":28349:28437   */\n      mstore\n        /* \"#utility.yul\":28456:28460   */\n      0x32\n        /* \"#utility.yul\":28453:28454   */\n      0x04\n        /* \"#utility.yul\":28446:28461   */\n      mstore\n        /* \"#utility.yul\":28480:28484   */\n      0x24\n        /* \"#utility.yul\":28477:28478   */\n      0x00\n        /* \"#utility.yul\":28470:28485   */\n      revert\n        /* \"#utility.yul\":28497:28677   */\n    tag_327:\n        /* \"#utility.yul\":28545:28622   */\n      0x4e487b7100000000000000000000000000000000000000000000000000000000\n        /* \"#utility.yul\":28542:28543   */\n      0x00\n        /* \"#utility.yul\":28535:28623   */\n      mstore\n        /* \"#utility.yul\":28642:28646   */\n      0x22\n        /* \"#utility.yul\":28639:28640   */\n      0x04\n        /* \"#utility.yul\":28632:28647   */\n      mstore\n        /* \"#utility.yul\":28666:28670   */\n      0x24\n        /* \"#utility.yul\":28663:28664   */\n      0x00\n        /* \"#utility.yul\":28656:28671   */\n      revert\n        /* \"#utility.yul\":28683:29003   */\n    tag_101:\n        /* \"#utility.yul\":28727:28733   */\n      0x00\n        /* \"#utility.yul\":28764:28765   */\n      0x02\n        /* \"#utility.yul\":28758:28762   */\n      dup3\n        /* \"#utility.yul\":28754:28766   */\n      div\n        /* \"#utility.yul\":28744:28766   */\n      swap1\n      pop\n        /* \"#utility.yul\":28811:28812   */\n      0x01\n        /* \"#utility.yul\":28805:28809   */\n      dup3\n        /* \"#utility.yul\":28801:28813   */\n      and\n        /* \"#utility.yul\":28832:28850   */\n      dup1\n        /* \"#utility.yul\":28822:28903   */\n      tag_585\n      jumpi\n        /* \"#utility.yul\":28888:28892   */\n      0x7f\n        /* \"#utility.yul\":28880:28886   */\n      dup3\n        /* \"#utility.yul\":28876:28893   */\n      and\n        /* \"#utility.yul\":28866:28893   */\n      swap2\n      pop\n        /* \"#utility.yul\":28822:28903   */\n    tag_585:\n        /* \"#utility.yul\":28950:28952   */\n      0x20\n        /* \"#utility.yul\":28942:28948   */\n      dup3\n        /* \"#utility.yul\":28939:28953   */\n      lt\n        /* \"#utility.yul\":28919:28937   */\n      dup2\n        /* \"#utility.yul\":28916:28954   */\n      sub\n        /* \"#utility.yul\":28913:28997   */\n      tag_586\n      jumpi\n        /* \"#utility.yul\":28969:28987   */\n      tag_587\n      tag_327\n      jump\t// in\n    tag_587:\n        /* \"#utility.yul\":28913:28997   */\n    tag_586:\n        /* \"#utility.yul\":28734:29003   */\n      pop\n        /* \"#utility.yul\":28683:29003   */\n      swap2\n      swap1\n      pop\n      jump\t// out\n        /* \"#utility.yul\":29009:29150   */\n    tag_328:\n        /* \"#utility.yul\":29058:29062   */\n      0x00\n        /* \"#utility.yul\":29081:29084   */\n      dup2\n        /* \"#utility.yul\":29073:29084   */\n      swap1\n      pop\n        /* \"#utility.yul\":29104:29107   */\n      dup2\n        /* \"#utility.yul\":29101:29102   */\n      0x00\n        /* \"#utility.yul\":29094:29108   */\n      mstore\n        /* \"#utility.yul\":29138:29142   */\n      0x20\n        /* \"#utility.yul\":29135:29136   */\n      0x00\n        /* \"#utility.yul\":29125:29143   */\n      keccak256\n        /* \"#utility.yul\":29117:29143   */\n      swap1\n      pop\n        /* \"#utility.yul\":29009:29150   */\n      swap2\n      swap1\n      pop\n      jump\t// out\n        /* \"#utility.yul\":29156:29249   */\n    tag_329:\n        /* \"#utility.yul\":29193:29199   */\n      0x00\n        /* \"#utility.yul\":29240:29242   */\n      0x20\n        /* \"#utility.yul\":29235:29237   */\n      0x1f\n        /* \"#utility.yul\":29228:29233   */\n      dup4\n        /* \"#utility.yul\":29224:29238   */\n      add\n        /* \"#utility.yul\":29220:29243   */\n      div\n        /* \"#utility.yul\":29210:29243   */\n      swap1\n      pop\n        /* \"#utility.yul\":29156:29249   */\n      swap2\n      swap1\n      pop\n      jump\t// out\n        /* \"#utility.yul\":29255:29362   */\n    tag_330:\n        /* \"#utility.yul\":29299:29307   */\n      0x00\n        /* \"#utility.yul\":29349:29354   */\n      dup3\n        /* \"#utility.yul\":29343:29347   */\n      dup3\n        /* \"#utility.yul\":29339:29355   */\n      shl\n        /* \"#utility.yul\":29318:29355   */\n      swap1\n      pop\n        /* \"#utility.yul\":29255:29362   */\n      swap3\n      swap2\n      pop\n      pop\n      jump\t// out\n        /* \"#utility.yul\":29368:29761   */\n    tag_331:\n        /* \"#utility.yul\":29437:29443   */\n      0x00\n        /* \"#utility.yul\":29487:29488   */\n      0x08\n        /* \"#utility.yul\":29475:29485   */\n      dup4\n        /* \"#utility.yul\":29471:29489   */\n      mul\n        /* \"#utility.yul\":29510:29607   */\n      tag_592\n        /* \"#utility.yul\":29540:29606   */\n      0xffffffffffffffffffffffffffffffffffffffffffffffffffffffffffffffff\n        /* \"#utility.yul\":29529:29538   */\n      dup3\n        /* \"#utility.yul\":29510:29607   */\n      tag_330\n      jump\t// in\n    tag_592:\n        /* \"#utility.yul\":29628:29667   */\n      tag_593\n        /* \"#utility.yul\":29658:29666   */\n      dup7\n        /* \"#utility.yul\":29647:29656   */\n      dup4\n        /* \"#utility.yul\":29628:29667   */\n      tag_330\n      jump\t// in\n    tag_593:\n        /* \"#utility.yul\":29616:29667   */\n      swap6\n      pop\n        /* \"#utility.yul\":29700:29704   */\n      dup1\n        /* \"#utility.yul\":29696:29705   */\n      not\n        /* \"#utility.yul\":29689:29694   */\n      dup5\n        /* \"#utility.yul\":29685:29706   */\n      and\n        /* \"#utility.yul\":29676:29706   */\n      swap4\n      pop\n        /* \"#utility.yul\":29749:29753   */\n      dup1\n        /* \"#utility.yul\":29739:29747   */\n      dup7\n        /* \"#utility.yul\":29735:29754   */\n      and\n        /* \"#utility.yul\":29728:29733   */\n      dup5\n        /* \"#utility.yul\":29725:29755   */\n      or\n        /* \"#utility.yul\":29715:29755   */\n      swap3\n      pop\n        /* \"#utility.yul\":29444:29761   */\n      pop\n      pop\n        /* \"#utility.yul\":29368:29761   */\n      swap4\n      swap3\n      pop\n      pop\n      pop\n      jump\t// out\n        /* \"#utility.yul\":29767:29827   */\n    tag_332:\n        /* \"#utility.yul\":29795:29798   */\n      0x00\n        /* \"#utility.yul\":29816:29821   */\n      dup2\n        /* \"#utility.yul\":29809:29821   */\n      swap1\n      pop\n        /* \"#utility.yul\":29767:29827   */\n      swap2\n      swap1\n      pop\n      jump\t// out\n        /* \"#utility.yul\":29833:29975   */\n    tag_333:\n        /* \"#utility.yul\":29883:29892   */\n      0x00\n        /* \"#utility.yul\":29916:29969   */\n      tag_596\n        /* \"#utility.yul\":29934:29968   */\n      tag_597\n        /* \"#utility.yul\":29943:29967   */\n      tag_598\n        /* \"#utility.yul\":29961:29966   */\n      dup5\n        /* \"#utility.yul\":29943:29967   */\n      tag_284\n      jump\t// in\n    tag_598:\n        /* \"#utility.yul\":29934:29968   */\n      tag_332\n      jump\t// in\n    tag_597:\n        /* \"#utility.yul\":29916:29969   */\n      tag_284\n      jump\t// in\n    tag_596:\n        /* \"#utility.yul\":29903:29969   */\n      swap1\n      pop\n        /* \"#utility.yul\":29833:29975   */\n      swap2\n      swap1\n      pop\n      jump\t// out\n        /* \"#utility.yul\":29981:30056   */\n    tag_334:\n        /* \"#utility.yul\":30024:30027   */\n      0x00\n        /* \"#utility.yul\":30045:30050   */\n      dup2\n        /* \"#utility.yul\":30038:30050   */\n      swap1\n      pop\n        /* \"#utility.yul\":29981:30056   */\n      swap2\n      swap1\n      pop\n      jump\t// out\n        /* \"#utility.yul\":30062:30331   */\n    tag_335:\n        /* \"#utility.yul\":30172:30211   */\n      tag_601\n        /* \"#utility.yul\":30203:30210   */\n      dup4\n        /* \"#utility.yul\":30172:30211   */\n      tag_333\n      jump\t// in\n    tag_601:\n        /* \"#utility.yul\":30233:30324   */\n      tag_602\n        /* \"#utility.yul\":30282:30323   */\n      tag_603\n        /* \"#utility.yul\":30306:30322   */\n      dup3\n        /* \"#utility.yul\":30282:30323   */\n      tag_334\n      jump\t// in\n    tag_603:\n        /* \"#utility.yul\":30274:30280   */\n      dup5\n        /* \"#utility.yul\":30267:30271   */\n      dup5\n        /* \"#utility.yul\":30261:30272   */\n      sload\n        /* \"#utility.yul\":30233:30324   */\n      tag_331\n      jump\t// in\n    tag_602:\n        /* \"#utility.yul\":30227:30231   */\n      dup3\n        /* \"#utility.yul\":30220:30325   */\n      sstore\n        /* \"#utility.yul\":30138:30331   */\n      pop\n        /* \"#utility.yul\":30062:30331   */\n      pop\n      pop\n      pop\n      jump\t// out\n        /* \"#utility.yul\":30337:30410   */\n    tag_336:\n        /* \"#utility.yul\":30382:30385   */\n      0x00\n        /* \"#utility.yul\":30337:30410   */\n      swap1\n      jump\t// out\n        /* \"#utility.yul\":30416:30605   */\n    tag_337:\n        /* \"#utility.yul\":30493:30525   */\n      tag_606\n      tag_336\n      jump\t// in\n    tag_606:\n        /* \"#utility.yul\":30534:30599   */\n      tag_607\n        /* \"#utility.yul\":30592:30598   */\n      dup2\n        /* \"#utility.yul\":30584:30590   */\n      dup5\n        /* \"#utility.yul\":30578:30582   */\n      dup5\n        /* \"#utility.yul\":30534:30599   */\n      tag_335\n      jump\t// in\n    tag_607:\n        /* \"#utility.yul\":30469:30605   */\n      pop\n        /* \"#utility.yul\":30416:30605   */\n      pop\n      pop\n      jump\t// out\n        /* \"#utility.yul\":30611:30797   */\n    tag_338:\n        /* \"#utility.yul\":30671:30791   */\n    tag_609:\n        /* \"#utility.yul\":30688:30691   */\n      dup2\n        /* \"#utility.yul\":30681:30686   */\n      dup2\n        /* \"#utility.yul\":30678:30692   */\n      lt\n        /* \"#utility.yul\":30671:30791   */\n      iszero\n      tag_611\n      jumpi\n        /* \"#utility.yul\":30742:30781   */\n      tag_612\n        /* \"#utility.yul\":30779:30780   */\n      0x00\n        /* \"#utility.yul\":30772:30777   */\n      dup3\n        /* \"#utility.yul\":30742:30781   */\n      tag_337\n      jump\t// in\n    tag_612:\n        /* \"#utility.yul\":30715:30716   */\n      0x01\n        /* \"#utility.yul\":30708:30713   */\n      dup2\n        /* \"#utility.yul\":30704:30717   */\n      add\n        /* \"#utility.yul\":30695:30717   */\n      swap1\n      pop\n        /* \"#utility.yul\":30671:30791   */\n      jump(tag_609)\n    tag_611:\n        /* \"#utility.yul\":30611:30797   */\n      pop\n      pop\n      jump\t// out\n        /* \"#utility.yul\":30803:31346   */\n    tag_339:\n        /* \"#utility.yul\":30904:30906   */\n      0x1f\n        /* \"#utility.yul\":30899:30902   */\n      dup3\n        /* \"#utility.yul\":30896:30907   */\n      gt\n        /* \"#utility.yul\":30893:31339   */\n      iszero\n      tag_614\n      jumpi\n        /* \"#utility.yul\":30938:30976   */\n      tag_615\n        /* \"#utility.yul\":30970:30975   */\n      dup2\n        /* \"#utility.yul\":30938:30976   */\n      tag_328\n      jump\t// in\n    tag_615:\n        /* \"#utility.yul\":31022:31051   */\n      tag_616\n        /* \"#utility.yul\":31040:31050   */\n      dup5\n        /* \"#utility.yul\":31022:31051   */\n      tag_329\n      jump\t// in\n    tag_616:\n        /* \"#utility.yul\":31012:31020   */\n      dup2\n        /* \"#utility.yul\":31008:31052   */\n      add\n        /* \"#utility.yul\":31205:31207   */\n      0x20\n        /* \"#utility.yul\":31193:31203   */\n      dup6\n        /* \"#utility.yul\":31190:31208   */\n      lt\n        /* \"#utility.yul\":31187:31236   */\n      iszero\n      tag_617\n      jumpi\n        /* \"#utility.yul\":31226:31234   */\n      dup2\n        /* \"#utility.yul\":31211:31234   */\n      swap1\n      pop\n        /* \"#utility.yul\":31187:31236   */\n    tag_617:\n        /* \"#utility.yul\":31249:31329   */\n      tag_618\n        /* \"#utility.yul\":31305:31327   */\n      tag_619\n        /* \"#utility.yul\":31323:31326   */\n      dup6\n        /* \"#utility.yul\":31305:31327   */\n      tag_329\n      jump\t// in\n    tag_619:\n        /* \"#utility.yul\":31295:31303   */\n      dup4\n        /* \"#utility.yul\":31291:31328   */\n      add\n        /* \"#utility.yul\":31278:31289   */\n      dup3\n        /* \"#utility.yul\":31249:31329   */\n      tag_338\n      jump\t// in\n    tag_618:\n        /* \"#utility.yul\":30908:31339   */\n      pop\n      pop\n        /* \"#utility.yul\":30893:31339   */\n    tag_614:\n        /* \"#utility.yul\":30803:31346   */\n      pop\n      pop\n      pop\n      jump\t// out\n        /* \"#utility.yul\":31352:31469   */\n    tag_340:\n        /* \"#utility.yul\":31406:31414   */\n      0x00\n        /* \"#utility.yul\":31456:31461   */\n      dup3\n        /* \"#utility.yul\":31450:31454   */\n      dup3\n        /* \"#utility.yul\":31446:31462   */\n      shr\n        /* \"#utility.yul\":31425:31462   */\n      swap1\n      pop\n        /* \"#utility.yul\":31352:31469   */\n      swap3\n      swap2\n      pop\n      pop\n      jump\t// out\n        /* \"#utility.yul\":31475:31644   */\n    tag_341:\n        /* \"#utility.yul\":31519:31525   */\n      0x00\n        /* \"#utility.yul\":31552:31603   */\n      tag_622\n        /* \"#utility.yul\":31600:31601   */\n      0x00\n        /* \"#utility.yul\":31596:31602   */\n      not\n        /* \"#utility.yul\":31588:31593   */\n      dup5\n        /* \"#utility.yul\":31585:31586   */\n      0x08\n        /* \"#utility.yul\":31581:31594   */\n      mul\n        /* \"#utility.yul\":31552:31603   */\n      tag_340\n      jump\t// in\n    tag_622:\n        /* \"#utility.yul\":31548:31604   */\n      not\n        /* \"#utility.yul\":31633:31637   */\n      dup1\n        /* \"#utility.yul\":31627:31631   */\n      dup4\n        /* \"#utility.yul\":31623:31638   */\n      and\n        /* \"#utility.yul\":31613:31638   */\n      swap2\n      pop\n        /* \"#utility.yul\":31526:31644   */\n      pop\n        /* \"#utility.yul\":31475:31644   */\n      swap3\n      swap2\n      pop\n      pop\n      jump\t// out\n        /* \"#utility.yul\":31649:31944   */\n    tag_342:\n        /* \"#utility.yul\":31725:31729   */\n      0x00\n        /* \"#utility.yul\":31871:31900   */\n      tag_624\n        /* \"#utility.yul\":31896:31899   */\n      dup4\n        /* \"#utility.yul\":31890:31894   */\n      dup4\n        /* \"#utility.yul\":31871:31900   */\n      tag_341\n      jump\t// in\n    tag_624:\n        /* \"#utility.yul\":31863:31900   */\n      swap2\n      pop\n        /* \"#utility.yul\":31933:31936   */\n      dup3\n        /* \"#utility.yul\":31930:31931   */\n      0x02\n        /* \"#utility.yul\":31926:31937   */\n      mul\n        /* \"#utility.yul\":31920:31924   */\n      dup3\n        /* \"#utility.yul\":31917:31938   */\n      or\n        /* \"#utility.yul\":31909:31938   */\n      swap1\n      pop\n        /* \"#utility.yul\":31649:31944   */\n      swap3\n      swap2\n      pop\n      pop\n      jump\t// out\n        /* \"#utility.yul\":31949:33344   */\n    tag_47:\n        /* \"#utility.yul\":32066:32103   */\n      tag_626\n        /* \"#utility.yul\":32099:32102   */\n      dup3\n        /* \"#utility.yul\":32066:32103   */\n      tag_287\n      jump\t// in\n    tag_626:\n        /* \"#utility.yul\":32168:32186   */\n      0xffffffffffffffff\n        /* \"#utility.yul\":32160:32166   */\n      dup2\n        /* \"#utility.yul\":32157:32187   */\n      gt\n        /* \"#utility.yul\":32154:32210   */\n      iszero\n      tag_627\n      jumpi\n        /* \"#utility.yul\":32190:32208   */\n      tag_628\n      tag_267\n      jump\t// in\n    tag_628:\n        /* \"#utility.yul\":32154:32210   */\n    tag_627:\n        /* \"#utility.yul\":32234:32272   */\n      tag_629\n        /* \"#utility.yul\":32266:32270   */\n      dup3\n        /* \"#utility.yul\":32260:32271   */\n      sload\n        /* \"#utility.yul\":32234:32272   */\n      tag_101\n      jump\t// in\n    tag_629:\n        /* \"#utility.yul\":32319:32386   */\n      tag_630\n        /* \"#utility.yul\":32379:32385   */\n      dup3\n        /* \"#utility.yul\":32371:32377   */\n      dup3\n        /* \"#utility.yul\":32365:32369   */\n      dup6\n        /* \"#utility.yul\":32319:32386   */\n      tag_339\n      jump\t// in\n    tag_630:\n        /* \"#utility.yul\":32413:32414   */\n      0x00\n        /* \"#utility.yul\":32437:32441   */\n      0x20\n        /* \"#utility.yul\":32424:32441   */\n      swap1\n      pop\n        /* \"#utility.yul\":32469:32471   */\n      0x1f\n        /* \"#utility.yul\":32461:32467   */\n      dup4\n        /* \"#utility.yul\":32458:32472   */\n      gt\n        /* \"#utility.yul\":32486:32487   */\n      0x01\n        /* \"#utility.yul\":32481:33099   */\n      dup2\n      eq\n      tag_632\n      jumpi\n        /* \"#utility.yul\":33143:33144   */\n      0x00\n        /* \"#utility.yul\":33160:33166   */\n      dup5\n        /* \"#utility.yul\":33157:33234   */\n      iszero\n      tag_633\n      jumpi\n        /* \"#utility.yul\":33209:33218   */\n      dup3\n        /* \"#utility.yul\":33204:33207   */\n      dup8\n        /* \"#utility.yul\":33200:33219   */\n      add\n        /* \"#utility.yul\":33194:33220   */\n      mload\n        /* \"#utility.yul\":33185:33220   */\n      swap1\n      pop\n        /* \"#utility.yul\":33157:33234   */\n    tag_633:\n        /* \"#utility.yul\":33260:33327   */\n      tag_634\n        /* \"#utility.yul\":33320:33326   */\n      dup6\n        /* \"#utility.yul\":33313:33318   */\n      dup3\n        /* \"#utility.yul\":33260:33327   */\n      tag_342\n      jump\t// in\n    tag_634:\n        /* \"#utility.yul\":33254:33258   */\n      dup7\n        /* \"#utility.yul\":33247:33328   */\n      sstore\n        /* \"#utility.yul\":33116:33338   */\n      pop\n        /* \"#utility.yul\":32451:33338   */\n      jump(tag_631)\n        /* \"#utility.yul\":32481:33099   */\n    tag_632:\n        /* \"#utility.yul\":32533:32537   */\n      0x1f\n        /* \"#utility.yul\":32529:32538   */\n      not\n        /* \"#utility.yul\":32521:32527   */\n      dup5\n        /* \"#utility.yul\":32517:32539   */\n      and\n        /* \"#utility.yul\":32567:32604   */\n      tag_635\n        /* \"#utility.yul\":32599:32603   */\n      dup7\n        /* \"#utility.yul\":32567:32604   */\n      tag_328\n      jump\t// in\n    tag_635:\n        /* \"#utility.yul\":32626:32627   */\n      0x00\n        /* \"#utility.yul\":32640:32848   */\n    tag_636:\n        /* \"#utility.yul\":32654:32661   */\n      dup3\n        /* \"#utility.yul\":32651:32652   */\n      dup2\n        /* \"#utility.yul\":32648:32662   */\n      lt\n        /* \"#utility.yul\":32640:32848   */\n      iszero\n      tag_638\n      jumpi\n        /* \"#utility.yul\":32733:32742   */\n      dup5\n        /* \"#utility.yul\":32728:32731   */\n      dup10\n        /* \"#utility.yul\":32724:32743   */\n      add\n        /* \"#utility.yul\":32718:32744   */\n      mload\n        /* \"#utility.yul\":32710:32716   */\n      dup3\n        /* \"#utility.yul\":32703:32745   */\n      sstore\n        /* \"#utility.yul\":32784:32785   */\n      0x01\n        /* \"#utility.yul\":32776:32782   */\n      dup3\n        /* \"#utility.yul\":32772:32786   */\n      add\n        /* \"#utility.yul\":32762:32786   */\n      swap2\n      pop\n        /* \"#utility.yul\":32831:32833   */\n      0x20\n        /* \"#utility.yul\":32820:32829   */\n      dup6\n        /* \"#utility.yul\":32816:32834   */\n      add\n        /* \"#utility.yul\":32803:32834   */\n      swap5\n      pop\n        /* \"#utility.yul\":32677:32681   */\n      0x20\n        /* \"#utility.yul\":32674:32675   */\n      dup2\n        /* \"#utility.yul\":32670:32682   */\n      add\n        /* \"#utility.yul\":32665:32682   */\n      swap1\n      pop\n        /* \"#utility.yul\":32640:32848   */\n      jump(tag_636)\n    tag_638:\n        /* \"#utility.yul\":32876:32882   */\n      dup7\n        /* \"#utility.yul\":32867:32874   */\n      dup4\n        /* \"#utility.yul\":32864:32883   */\n      lt\n        /* \"#utility.yul\":32861:33040   */\n      iszero\n      tag_639\n      jumpi\n        /* \"#utility.yul\":32934:32943   */\n      dup5\n        /* \"#utility.yul\":32929:32932   */\n      dup10\n        /* \"#utility.yul\":32925:32944   */\n      add\n        /* \"#utility.yul\":32919:32945   */\n      mload\n        /* \"#utility.yul\":32977:33025   */\n      tag_640\n        /* \"#utility.yul\":33019:33023   */\n      0x1f\n        /* \"#utility.yul\":33011:33017   */\n      dup10\n        /* \"#utility.yul\":33007:33024   */\n      and\n        /* \"#utility.yul\":32996:33005   */\n      dup3\n        /* \"#utility.yul\":32977:33025   */\n      tag_341\n      jump\t// in\n    tag_640:\n        /* \"#utility.yul\":32969:32975   */\n      dup4\n        /* \"#utility.yul\":32962:33026   */\n      sstore\n        /* \"#utility.yul\":32884:33040   */\n      pop\n        /* \"#utility.yul\":32861:33040   */\n    tag_639:\n        /* \"#utility.yul\":33086:33087   */\n      0x01\n        /* \"#utility.yul\":33082:33083   */\n      0x02\n        /* \"#utility.yul\":33074:33080   */\n      dup9\n        /* \"#utility.yul\":33070:33084   */\n      mul\n        /* \"#utility.yul\":33066:33088   */\n      add\n        /* \"#utility.yul\":33060:33064   */\n      dup9\n        /* \"#utility.yul\":33053:33089   */\n      sstore\n        /* \"#utility.yul\":32488:33099   */\n      pop\n      pop\n      pop\n        /* \"#utility.yul\":32451:33338   */\n    tag_631:\n      pop\n        /* \"#utility.yul\":32041:33344   */\n      pop\n      pop\n      pop\n        /* \"#utility.yul\":31949:33344   */\n      pop\n      pop\n      jump\t// out\n        /* \"#utility.yul\":33350:33498   */\n    tag_343:\n        /* \"#utility.yul\":33452:33463   */\n      0x00\n        /* \"#utility.yul\":33489:33492   */\n      dup2\n        /* \"#utility.yul\":33474:33492   */\n      swap1\n      pop\n        /* \"#utility.yul\":33350:33498   */\n      swap3\n      swap2\n      pop\n      pop\n      jump\t// out\n        /* \"#utility.yul\":33504:33894   */\n    tag_344:\n        /* \"#utility.yul\":33610:33613   */\n      0x00\n        /* \"#utility.yul\":33638:33677   */\n      tag_643\n        /* \"#utility.yul\":33671:33676   */\n      dup3\n        /* \"#utility.yul\":33638:33677   */\n      tag_287\n      jump\t// in\n    tag_643:\n        /* \"#utility.yul\":33693:33782   */\n      tag_644\n        /* \"#utility.yul\":33775:33781   */\n      dup2\n        /* \"#utility.yul\":33770:33773   */\n      dup6\n        /* \"#utility.yul\":33693:33782   */\n      tag_343\n      jump\t// in\n    tag_644:\n        /* \"#utility.yul\":33686:33782   */\n      swap4\n      pop\n        /* \"#utility.yul\":33791:33856   */\n      tag_645\n        /* \"#utility.yul\":33849:33855   */\n      dup2\n        /* \"#utility.yul\":33844:33847   */\n      dup6\n        /* \"#utility.yul\":33837:33841   */\n      0x20\n        /* \"#utility.yul\":33830:33835   */\n      dup7\n        /* \"#utility.yul\":33826:33842   */\n      add\n        /* \"#utility.yul\":33791:33856   */\n      tag_289\n      jump\t// in\n    tag_645:\n        /* \"#utility.yul\":33881:33887   */\n      dup1\n        /* \"#utility.yul\":33876:33879   */\n      dup5\n        /* \"#utility.yul\":33872:33888   */\n      add\n        /* \"#utility.yul\":33865:33888   */\n      swap2\n      pop\n        /* \"#utility.yul\":33614:33894   */\n      pop\n        /* \"#utility.yul\":33504:33894   */\n      swap3\n      swap2\n      pop\n      pop\n      jump\t// out\n        /* \"#utility.yul\":33900:34175   */\n    tag_59:\n        /* \"#utility.yul\":34032:34035   */\n      0x00\n        /* \"#utility.yul\":34054:34149   */\n      tag_647\n        /* \"#utility.yul\":34145:34148   */\n      dup3\n        /* \"#utility.yul\":34136:34142   */\n      dup5\n        /* \"#utility.yul\":34054:34149   */\n      tag_344\n      jump\t// in\n    tag_647:\n        /* \"#utility.yul\":34047:34149   */\n      swap2\n      pop\n        /* \"#utility.yul\":34166:34169   */\n      dup2\n        /* \"#utility.yul\":34159:34169   */\n      swap1\n      pop\n        /* \"#utility.yul\":33900:34175   */\n      swap3\n      swap2\n      pop\n      pop\n      jump\t// out\n        /* \"#utility.yul\":34205:35079   */\n    tag_345:\n        /* \"#utility.yul\":34308:34311   */\n      0x00\n        /* \"#utility.yul\":34345:34350   */\n      dup2\n        /* \"#utility.yul\":34339:34351   */\n      sload\n        /* \"#utility.yul\":34374:34410   */\n      tag_649\n        /* \"#utility.yul\":34400:34409   */\n      dup2\n        /* \"#utility.yul\":34374:34410   */\n      tag_101\n      jump\t// in\n    tag_649:\n        /* \"#utility.yul\":34426:34515   */\n      tag_650\n        /* \"#utility.yul\":34508:34514   */\n      dup2\n        /* \"#utility.yul\":34503:34506   */\n      dup7\n        /* \"#utility.yul\":34426:34515   */\n      tag_343\n      jump\t// in\n    tag_650:\n        /* \"#utility.yul\":34419:34515   */\n      swap5\n      pop\n        /* \"#utility.yul\":34546:34547   */\n      0x01\n        /* \"#utility.yul\":34535:34544   */\n      dup3\n        /* \"#utility.yul\":34531:34548   */\n      and\n        /* \"#utility.yul\":34562:34563   */\n      0x00\n        /* \"#utility.yul\":34557:34723   */\n      dup2\n      eq\n      tag_652\n      jumpi\n        /* \"#utility.yul\":34737:34738   */\n      0x01\n        /* \"#utility.yul\":34732:35073   */\n      dup2\n      eq\n      tag_653\n      jumpi\n        /* \"#utility.yul\":34524:35073   */\n      jump(tag_651)\n        /* \"#utility.yul\":34557:34723   */\n    tag_652:\n        /* \"#utility.yul\":34641:34645   */\n      0xff\n        /* \"#utility.yul\":34637:34646   */\n      not\n        /* \"#utility.yul\":34626:34635   */\n      dup4\n        /* \"#utility.yul\":34622:34647   */\n      and\n        /* \"#utility.yul\":34617:34620   */\n      dup7\n        /* \"#utility.yul\":34610:34648   */\n      mstore\n        /* \"#utility.yul\":34703:34709   */\n      dup2\n        /* \"#utility.yul\":34696:34710   */\n      iszero\n        /* \"#utility.yul\":34689:34711   */\n      iszero\n        /* \"#utility.yul\":34681:34687   */\n      dup3\n        /* \"#utility.yul\":34677:34712   */\n      mul\n        /* \"#utility.yul\":34672:34675   */\n      dup7\n        /* \"#utility.yul\":34668:34713   */\n      add\n        /* \"#utility.yul\":34661:34713   */\n      swap4\n      pop\n        /* \"#utility.yul\":34557:34723   */\n      jump(tag_651)\n        /* \"#utility.yul\":34732:35073   */\n    tag_653:\n        /* \"#utility.yul\":34799:34837   */\n      tag_654\n        /* \"#utility.yul\":34831:34836   */\n      dup6\n        /* \"#utility.yul\":34799:34837   */\n      tag_328\n      jump\t// in\n    tag_654:\n        /* \"#utility.yul\":34859:34860   */\n      0x00\n        /* \"#utility.yul\":34873:35027   */\n    tag_655:\n        /* \"#utility.yul\":34887:34893   */\n      dup4\n        /* \"#utility.yul\":34884:34885   */\n      dup2\n        /* \"#utility.yul\":34881:34894   */\n      lt\n        /* \"#utility.yul\":34873:35027   */\n      iszero\n      tag_657\n      jumpi\n        /* \"#utility.yul\":34961:34968   */\n      dup2\n        /* \"#utility.yul\":34955:34969   */\n      sload\n        /* \"#utility.yul\":34951:34952   */\n      dup2\n        /* \"#utility.yul\":34946:34949   */\n      dup10\n        /* \"#utility.yul\":34942:34953   */\n      add\n        /* \"#utility.yul\":34935:34970   */\n      mstore\n        /* \"#utility.yul\":35011:35012   */\n      0x01\n        /* \"#utility.yul\":35002:35009   */\n      dup3\n        /* \"#utility.yul\":34998:35013   */\n      add\n        /* \"#utility.yul\":34987:35013   */\n      swap2\n      pop\n        /* \"#utility.yul\":34909:34913   */\n      0x20\n        /* \"#utility.yul\":34906:34907   */\n      dup2\n        /* \"#utility.yul\":34902:34914   */\n      add\n        /* \"#utility.yul\":34897:34914   */\n      swap1\n      pop\n        /* \"#utility.yul\":34873:35027   */\n      jump(tag_655)\n    tag_657:\n        /* \"#utility.yul\":35056:35062   */\n      dup4\n        /* \"#utility.yul\":35051:35054   */\n      dup9\n        /* \"#utility.yul\":35047:35063   */\n      add\n        /* \"#utility.yul\":35040:35063   */\n      swap6\n      pop\n        /* \"#utility.yul\":34739:35073   */\n      pop\n      pop\n        /* \"#utility.yul\":34524:35073   */\n    tag_651:\n      pop\n        /* \"#utility.yul\":34312:35079   */\n      pop\n      pop\n        /* \"#utility.yul\":34205:35079   */\n      swap3\n      swap2\n      pop\n      pop\n      jump\t// out\n        /* \"#utility.yul\":35085:35354   */\n    tag_67:\n        /* \"#utility.yul\":35214:35217   */\n      0x00\n        /* \"#utility.yul\":35236:35328   */\n      tag_659\n        /* \"#utility.yul\":35324:35327   */\n      dup3\n        /* \"#utility.yul\":35315:35321   */\n      dup5\n        /* \"#utility.yul\":35236:35328   */\n      tag_345\n      jump\t// in\n    tag_659:\n        /* \"#utility.yul\":35229:35328   */\n      swap2\n      pop\n        /* \"#utility.yul\":35345:35348   */\n      dup2\n        /* \"#utility.yul\":35338:35348   */\n      swap1\n      pop\n        /* \"#utility.yul\":35085:35354   */\n      swap3\n      swap2\n      pop\n      pop\n      jump\t// out\n        /* \"#utility.yul\":35360:35540   */\n    tag_346:\n        /* \"#utility.yul\":35408:35485   */\n      0x4e487b7100000000000000000000000000000000000000000000000000000000\n        /* \"#utility.yul\":35405:35406   */\n      0x00\n        /* \"#utility.yul\":35398:35486   */\n      mstore\n        /* \"#utility.yul\":35505:35509   */\n      0x11\n        /* \"#utility.yul\":35502:35503   */\n      0x04\n        /* \"#utility.yul\":35495:35510   */\n      mstore\n        /* \"#utility.yul\":35529:35533   */\n      0x24\n        /* \"#utility.yul\":35526:35527   */\n      0x00\n        /* \"#utility.yul\":35519:35534   */\n      revert\n        /* \"#utility.yul\":35546:35779   */\n    tag_95:\n        /* \"#utility.yul\":35585:35588   */\n      0x00\n        /* \"#utility.yul\":35608:35632   */\n      tag_662\n        /* \"#utility.yul\":35626:35631   */\n      dup3\n        /* \"#utility.yul\":35608:35632   */\n      tag_284\n      jump\t// in\n    tag_662:\n        /* \"#utility.yul\":35599:35632   */\n      swap2\n      pop\n        /* \"#utility.yul\":35654:35720   */\n      0xffffffffffffffffffffffffffffffffffffffffffffffffffffffffffffffff\n        /* \"#utility.yul\":35647:35652   */\n      dup3\n        /* \"#utility.yul\":35644:35721   */\n      sub\n        /* \"#utility.yul\":35641:35744   */\n      tag_663\n      jumpi\n        /* \"#utility.yul\":35724:35742   */\n      tag_664\n      tag_346\n      jump\t// in\n    tag_664:\n        /* \"#utility.yul\":35641:35744   */\n    tag_663:\n        /* \"#utility.yul\":35771:35772   */\n      0x01\n        /* \"#utility.yul\":35764:35769   */\n      dup3\n        /* \"#utility.yul\":35760:35773   */\n      add\n        /* \"#utility.yul\":35753:35773   */\n      swap1\n      pop\n        /* \"#utility.yul\":35546:35779   */\n      swap2\n      swap1\n      pop\n      jump\t// out\n\n    auxdata: 0xa2646970667358221220a149680df1c2cfeb8d9e738fa870bb52fd2e356d58ef0be9b3bdb019c2a7f6f864736f6c63430008120033\n}\n",
				"bytecode": {
					"linkReferences": {},
					"object": "6080604052600060025534801561001557600080fd5b5061273f806100256000396000f3fe608060405234801561001057600080fd5b50600436106100625760003560e01c80632be725ad1461006757806345d0695f146100835780634d395307146100b557806356d88e27146100d3578063e56fe289146100f1578063edf0099b1461010f575b600080fd5b610081600480360381019061007c919061195a565b610145565b005b61009d60048036038101906100989190611a97565b610539565b6040516100ac93929190611b56565b60405180910390f35b6100bd610724565b6040516100ca9190611f82565b60405180910390f35b6100db610ab1565b6040516100e89190611fb3565b60405180910390f35b6100f9610abd565b60405161010691906121a9565b60405180910390f35b610129600480360381019061012491906121cb565b6110a4565b60405161013c97969594939291906121f8565b60405180910390f35b6000808054905003610252576101596114ae565b8581600001819052508481602001819052508381604001819052508281606001819052508181608001819052506000808154811061019a57610199612298565b5b9060005260206000200181908060018154018082558091505060019003906000526020600020906005020160009091909190915060008201518160000190816101e391906124d3565b5060208201518160010190805190602001906102009291906114dd565b50604082015181600201908051906020019061021d929190611536565b50606082015181600301908161023391906124d3565b50608082015181600401908161024991906124d3565b50505050610532565b60005b600080549050811015610530578560405160200161027391906125e1565b604051602081830303815290604052805190602001206000828154811061029d5761029c612298565b5b906000526020600020016000815481106102ba576102b9612298565b5b90600052602060002090600502016000016040516020016102db919061267b565b60405160208183030381529060405280519060200120036103f7576102fe6114ae565b8681600001819052508581602001819052508481604001819052508381606001819052508281608001819052506000828154811061033f5761033e612298565b5b90600052602060002001819080600181540180825580915050600190039060005260206000209060050201600090919091909150600082015181600001908161038891906124d3565b5060208201518160010190805190602001906103a59291906114dd565b5060408201518160020190805190602001906103c2929190611536565b5060608201518160030190816103d891906124d3565b5060808201518160040190816103ee91906124d3565b5050505061051d565b600080828154811061040c5761040b612298565b5b90600052602060002001805490500361051c576104276114ae565b8681600001819052508581602001819052508481604001819052508381606001819052508281608001819052506000828154811061046857610467612298565b5b9060005260206000200181908060018154018082558091505060019003906000526020600020906005020160009091909190915060008201518160000190816104b191906124d3565b5060208201518160010190805190602001906104ce9291906114dd565b5060408201518160020190805190602001906104eb929190611536565b50606082015181600301908161050191906124d3565b50608082015181600401908161051791906124d3565b505050505b5b8080610528906126c1565b915050610255565b505b5050505050565b6000828154811061054957600080fd5b90600052602060002001818154811061056157600080fd5b906000526020600020906005020160009150915050806000018054610585906122f6565b80601f01602080910402602001604051908101604052809291908181526020018280546105b1906122f6565b80156105fe5780601f106105d3576101008083540402835291602001916105fe565b820191906000526020600020905b8154815290600101906020018083116105e157829003601f168201915b505050505090806003018054610613906122f6565b80601f016020809104026020016040519081016040528092919081815260200182805461063f906122f6565b801561068c5780601f106106615761010080835404028352916020019161068c565b820191906000526020600020905b81548152906001019060200180831161066f57829003601f168201915b5050505050908060040180546106a1906122f6565b80601f01602080910402602001604051908101604052809291908181526020018280546106cd906122f6565b801561071a5780601f106106ef5761010080835404028352916020019161071a565b820191906000526020600020905b8154815290600101906020018083116106fd57829003601f168201915b5050505050905083565b60606000805480602002602001604051908101604052809291908181526020016000905b82821015610aa857838290600052602060002001805480602002602001604051908101604052809291908181526020016000905b82821015610a9557838290600052602060002090600502016040518060a00160405290816000820180546107af906122f6565b80601f01602080910402602001604051908101604052809291908181526020018280546107db906122f6565b80156108285780601f106107fd57610100808354040283529160200191610828565b820191906000526020600020905b81548152906001019060200180831161080b57829003601f168201915b5050505050815260200160018201805480602002602001604051908101604052809291908181526020016000905b82821015610902578382906000526020600020018054610875906122f6565b80601f01602080910402602001604051908101604052809291908181526020018280546108a1906122f6565b80156108ee5780601f106108c3576101008083540402835291602001916108ee565b820191906000526020600020905b8154815290600101906020018083116108d157829003601f168201915b505050505081526020019060010190610856565b5050505081526020016002820180548060200260200160405190810160405280929190818152602001828054801561095957602002820191906000526020600020905b815481526020019060010190808311610945575b50505050508152602001600382018054610972906122f6565b80601f016020809104026020016040519081016040528092919081815260200182805461099e906122f6565b80156109eb5780601f106109c0576101008083540402835291602001916109eb565b820191906000526020600020905b8154815290600101906020018083116109ce57829003601f168201915b50505050508152602001600482018054610a04906122f6565b80601f0160208091040260200160405190810160405280929190818152602001828054610a30906122f6565b8015610a7d5780601f10610a5257610100808354040283529160200191610a7d565b820191906000526020600020905b815481529060010190602001808311610a6057829003601f168201915b5050505050815250508152602001906001019061077c565b5050505081526020019060010190610748565b50505050905090565b60008080549050905090565b60606001805480602002602001604051908101604052809291908181526020016000905b8282101561109b57838290600052602060002090600a020160405180610140016040529081600082018054610b15906122f6565b80601f0160208091040260200160405190810160405280929190818152602001828054610b41906122f6565b8015610b8e5780601f10610b6357610100808354040283529160200191610b8e565b820191906000526020600020905b815481529060010190602001808311610b7157829003601f168201915b5050505050815260200160018201805480602002602001604051908101604052809291908181526020016000905b82821015610c68578382906000526020600020018054610bdb906122f6565b80601f0160208091040260200160405190810160405280929190818152602001828054610c07906122f6565b8015610c545780601f10610c2957610100808354040283529160200191610c54565b820191906000526020600020905b815481529060010190602001808311610c3757829003601f168201915b505050505081526020019060010190610bbc565b50505050815260200160028201805480602002602001604051908101604052809291908181526020018280548015610cbf57602002820191906000526020600020905b815481526020019060010190808311610cab575b50505050508152602001600382018054610cd8906122f6565b80601f0160208091040260200160405190810160405280929190818152602001828054610d04906122f6565b8015610d515780601f10610d2657610100808354040283529160200191610d51565b820191906000526020600020905b815481529060010190602001808311610d3457829003601f168201915b50505050508152602001600482018054610d6a906122f6565b80601f0160208091040260200160405190810160405280929190818152602001828054610d96906122f6565b8015610de35780601f10610db857610100808354040283529160200191610de3565b820191906000526020600020905b815481529060010190602001808311610dc657829003601f168201915b5050505050815260200160058201805480602002602001604051908101604052809291908181526020018280548015610e3b57602002820191906000526020600020905b815481526020019060010190808311610e27575b50505050508152602001600682018054610e54906122f6565b80601f0160208091040260200160405190810160405280929190818152602001828054610e80906122f6565b8015610ecd5780601f10610ea257610100808354040283529160200191610ecd565b820191906000526020600020905b815481529060010190602001808311610eb057829003601f168201915b50505050508152602001600782018054610ee6906122f6565b80601f0160208091040260200160405190810160405280929190818152602001828054610f12906122f6565b8015610f5f5780601f10610f3457610100808354040283529160200191610f5f565b820191906000526020600020905b815481529060010190602001808311610f4257829003601f168201915b50505050508152602001600882018054610f78906122f6565b80601f0160208091040260200160405190810160405280929190818152602001828054610fa4906122f6565b8015610ff15780601f10610fc657610100808354040283529160200191610ff1565b820191906000526020600020905b815481529060010190602001808311610fd457829003601f168201915b5050505050815260200160098201805461100a906122f6565b80601f0160208091040260200160405190810160405280929190818152602001828054611036906122f6565b80156110835780601f1061105857610100808354040283529160200191611083565b820191906000526020600020905b81548152906001019060200180831161106657829003601f168201915b50505050508152505081526020019060010190610ae1565b50505050905090565b600181815481106110b457600080fd5b90600052602060002090600a02016000915090508060000180546110d7906122f6565b80601f0160208091040260200160405190810160405280929190818152602001828054611103906122f6565b80156111505780601f1061112557610100808354040283529160200191611150565b820191906000526020600020905b81548152906001019060200180831161113357829003601f168201915b505050505090806003018054611165906122f6565b80601f0160208091040260200160405190810160405280929190818152602001828054611191906122f6565b80156111de5780601f106111b3576101008083540402835291602001916111de565b820191906000526020600020905b8154815290600101906020018083116111c157829003601f168201915b5050505050908060040180546111f3906122f6565b80601f016020809104026020016040519081016040528092919081815260200182805461121f906122f6565b801561126c5780601f106112415761010080835404028352916020019161126c565b820191906000526020600020905b81548152906001019060200180831161124f57829003601f168201915b505050505090806006018054611281906122f6565b80601f01602080910402602001604051908101604052809291908181526020018280546112ad906122f6565b80156112fa5780601f106112cf576101008083540402835291602001916112fa565b820191906000526020600020905b8154815290600101906020018083116112dd57829003601f168201915b50505050509080600701805461130f906122f6565b80601f016020809104026020016040519081016040528092919081815260200182805461133b906122f6565b80156113885780601f1061135d57610100808354040283529160200191611388565b820191906000526020600020905b81548152906001019060200180831161136b57829003601f168201915b50505050509080600801805461139d906122f6565b80601f01602080910402602001604051908101604052809291908181526020018280546113c9906122f6565b80156114165780601f106113eb57610100808354040283529160200191611416565b820191906000526020600020905b8154815290600101906020018083116113f957829003601f168201915b50505050509080600901805461142b906122f6565b80601f0160208091040260200160405190810160405280929190818152602001828054611457906122f6565b80156114a45780601f10611479576101008083540402835291602001916114a4565b820191906000526020600020905b81548152906001019060200180831161148757829003601f168201915b5050505050905087565b6040518060a0016040528060608152602001606081526020016060815260200160608152602001606081525090565b828054828255906000526020600020908101928215611525579160200282015b8281111561152457825182908161151491906124d3565b50916020019190600101906114fd565b5b5090506115329190611583565b5090565b828054828255906000526020600020908101928215611572579160200282015b82811115611571578251825591602001919060010190611556565b5b50905061157f91906115a7565b5090565b5b808211156115a3576000818161159a91906115c4565b50600101611584565b5090565b5b808211156115c05760008160009055506001016115a8565b5090565b5080546115d0906122f6565b6000825580601f106115e25750611601565b601f0160209004906000526020600020908101906116009190611604565b5b50565b5b8082111561161d576000816000905550600101611605565b5090565b6000604051905090565b600080fd5b600080fd5b600080fd5b600080fd5b6000601f19601f8301169050919050565b7f4e487b7100000000000000000000000000000000000000000000000000000000600052604160045260246000fd5b6116888261163f565b810181811067ffffffffffffffff821117156116a7576116a6611650565b5b80604052505050565b60006116ba611621565b90506116c6828261167f565b919050565b600067ffffffffffffffff8211156116e6576116e5611650565b5b6116ef8261163f565b9050602081019050919050565b82818337600083830152505050565b600061171e611719846116cb565b6116b0565b90508281526020810184848401111561173a5761173961163a565b5b6117458482856116fc565b509392505050565b600082601f83011261176257611761611635565b5b813561177284826020860161170b565b91505092915050565b600067ffffffffffffffff82111561179657611795611650565b5b602082029050602081019050919050565b600080fd5b60006117bf6117ba8461177b565b6116b0565b905080838252602082019050602084028301858111156117e2576117e16117a7565b5b835b8181101561182957803567ffffffffffffffff81111561180757611806611635565b5b808601611814898261174d565b855260208501945050506020810190506117e4565b5050509392505050565b600082601f83011261184857611847611635565b5b81356118588482602086016117ac565b91505092915050565b600067ffffffffffffffff82111561187c5761187b611650565b5b602082029050602081019050919050565b6000819050919050565b6118a08161188d565b81146118ab57600080fd5b50565b6000813590506118bd81611897565b92915050565b60006118d66118d184611861565b6116b0565b905080838252602082019050602084028301858111156118f9576118f86117a7565b5b835b81811015611922578061190e88826118ae565b8452602084019350506020810190506118fb565b5050509392505050565b600082601f83011261194157611940611635565b5b81356119518482602086016118c3565b91505092915050565b600080600080600060a086880312156119765761197561162b565b5b600086013567ffffffffffffffff81111561199457611993611630565b5b6119a08882890161174d565b955050602086013567ffffffffffffffff8111156119c1576119c0611630565b5b6119cd88828901611833565b945050604086013567ffffffffffffffff8111156119ee576119ed611630565b5b6119fa8882890161192c565b935050606086013567ffffffffffffffff811115611a1b57611a1a611630565b5b611a278882890161174d565b925050608086013567ffffffffffffffff811115611a4857611a47611630565b5b611a548882890161174d565b9150509295509295909350565b6000819050919050565b611a7481611a61565b8114611a7f57600080fd5b50565b600081359050611a9181611a6b565b92915050565b60008060408385031215611aae57611aad61162b565b5b6000611abc85828601611a82565b9250506020611acd85828601611a82565b9150509250929050565b600081519050919050565b600082825260208201905092915050565b60005b83811015611b11578082015181840152602081019050611af6565b60008484015250505050565b6000611b2882611ad7565b611b328185611ae2565b9350611b42818560208601611af3565b611b4b8161163f565b840191505092915050565b60006060820190508181036000830152611b708186611b1d565b90508181036020830152611b848185611b1d565b90508181036040830152611b988184611b1d565b9050949350505050565b600081519050919050565b600082825260208201905092915050565b6000819050602082019050919050565b600081519050919050565b600082825260208201905092915050565b6000819050602082019050919050565b600082825260208201905092915050565b6000611c1682611ad7565b611c208185611bfa565b9350611c30818560208601611af3565b611c398161163f565b840191505092915050565b600081519050919050565b600082825260208201905092915050565b6000819050602082019050919050565b6000611c7c8383611c0b565b905092915050565b6000602082019050919050565b6000611c9c82611c44565b611ca68185611c4f565b935083602082028501611cb885611c60565b8060005b85811015611cf45784840389528151611cd58582611c70565b9450611ce083611c84565b925060208a01995050600181019050611cbc565b50829750879550505050505092915050565b600081519050919050565b600082825260208201905092915050565b6000819050602082019050919050565b611d3b8161188d565b82525050565b6000611d4d8383611d32565b60208301905092915050565b6000602082019050919050565b6000611d7182611d06565b611d7b8185611d11565b9350611d8683611d22565b8060005b83811015611db7578151611d9e8882611d41565b9750611da983611d59565b925050600181019050611d8a565b5085935050505092915050565b600060a0830160008301518482036000860152611de18282611c0b565b91505060208301518482036020860152611dfb8282611c91565b91505060408301518482036040860152611e158282611d66565b91505060608301518482036060860152611e2f8282611c0b565b91505060808301518482036080860152611e498282611c0b565b9150508091505092915050565b6000611e628383611dc4565b905092915050565b6000602082019050919050565b6000611e8282611bce565b611e8c8185611bd9565b935083602082028501611e9e85611bea565b8060005b85811015611eda5784840389528151611ebb8582611e56565b9450611ec683611e6a565b925060208a01995050600181019050611ea2565b50829750879550505050505092915050565b6000611ef88383611e77565b905092915050565b6000602082019050919050565b6000611f1882611ba2565b611f228185611bad565b935083602082028501611f3485611bbe565b8060005b85811015611f705784840389528151611f518582611eec565b9450611f5c83611f00565b925060208a01995050600181019050611f38565b50829750879550505050505092915050565b60006020820190508181036000830152611f9c8184611f0d565b905092915050565b611fad81611a61565b82525050565b6000602082019050611fc86000830184611fa4565b92915050565b600081519050919050565b600082825260208201905092915050565b6000819050602082019050919050565b60006101408301600083015184820360008601526120188282611c0b565b915050602083015184820360208601526120328282611c91565b9150506040830151848203604086015261204c8282611d66565b915050606083015184820360608601526120668282611c0b565b915050608083015184820360808601526120808282611c0b565b91505060a083015184820360a086015261209a8282611d66565b91505060c083015184820360c08601526120b48282611c0b565b91505060e083015184820360e08601526120ce8282611c0b565b9150506101008301518482036101008601526120ea8282611c0b565b9150506101208301518482036101208601526121068282611c0b565b9150508091505092915050565b600061211f8383611ffa565b905092915050565b6000602082019050919050565b600061213f82611fce565b6121498185611fd9565b93508360208202850161215b85611fea565b8060005b8581101561219757848403895281516121788582612113565b945061218383612127565b925060208a0199505060018101905061215f565b50829750879550505050505092915050565b600060208201905081810360008301526121c38184612134565b905092915050565b6000602082840312156121e1576121e061162b565b5b60006121ef84828501611a82565b91505092915050565b600060e0820190508181036000830152612212818a611b1d565b905081810360208301526122268189611b1d565b9050818103604083015261223a8188611b1d565b9050818103606083015261224e8187611b1d565b905081810360808301526122628186611b1d565b905081810360a08301526122768185611b1d565b905081810360c083015261228a8184611b1d565b905098975050505050505050565b7f4e487b7100000000000000000000000000000000000000000000000000000000600052603260045260246000fd5b7f4e487b7100000000000000000000000000000000000000000000000000000000600052602260045260246000fd5b6000600282049050600182168061230e57607f821691505b602082108103612321576123206122c7565b5b50919050565b60008190508160005260206000209050919050565b60006020601f8301049050919050565b600082821b905092915050565b6000600883026123897fffffffffffffffffffffffffffffffffffffffffffffffffffffffffffffffff8261234c565b612393868361234c565b95508019841693508086168417925050509392505050565b6000819050919050565b60006123d06123cb6123c684611a61565b6123ab565b611a61565b9050919050565b6000819050919050565b6123ea836123b5565b6123fe6123f6826123d7565b848454612359565b825550505050565b600090565b612413612406565b61241e8184846123e1565b505050565b5b818110156124425761243760008261240b565b600181019050612424565b5050565b601f8211156124875761245881612327565b6124618461233c565b81016020851015612470578190505b61248461247c8561233c565b830182612423565b50505b505050565b600082821c905092915050565b60006124aa6000198460080261248c565b1980831691505092915050565b60006124c38383612499565b9150826002028217905092915050565b6124dc82611ad7565b67ffffffffffffffff8111156124f5576124f4611650565b5b6124ff82546122f6565b61250a828285612446565b600060209050601f83116001811461253d576000841561252b578287015190505b61253585826124b7565b86555061259d565b601f19841661254b86612327565b60005b828110156125735784890151825560018201915060208501945060208101905061254e565b86831015612590578489015161258c601f891682612499565b8355505b6001600288020188555050505b505050505050565b600081905092915050565b60006125bb82611ad7565b6125c581856125a5565b93506125d5818560208601611af3565b80840191505092915050565b60006125ed82846125b0565b915081905092915050565b60008154612605816122f6565b61260f81866125a5565b9450600182166000811461262a576001811461263f57612672565b60ff1983168652811515820286019350612672565b61264885612327565b60005b8381101561266a5781548189015260018201915060208101905061264b565b838801955050505b50505092915050565b600061268782846125f8565b915081905092915050565b7f4e487b7100000000000000000000000000000000000000000000000000000000600052601160045260246000fd5b60006126cc82611a61565b91507fffffffffffffffffffffffffffffffffffffffffffffffffffffffffffffffff82036126fe576126fd612692565b5b60018201905091905056fea2646970667358221220a149680df1c2cfeb8d9e738fa870bb52fd2e356d58ef0be9b3bdb019c2a7f6f864736f6c63430008120033",
					"opcodes": "PUSH1 0x80 PUSH1 0x40 MSTORE PUSH1 0x0 PUSH1 0x2 SSTORE CALLVALUE DUP1 ISZERO PUSH2 0x15 JUMPI PUSH1 0x0 DUP1 REVERT JUMPDEST POP PUSH2 0x273F DUP1 PUSH2 0x25 PUSH1 0x0 CODECOPY PUSH1 0x0 RETURN INVALID PUSH1 0x80 PUSH1 0x40 MSTORE CALLVALUE DUP1 ISZERO PUSH2 0x10 JUMPI PUSH1 0x0 DUP1 REVERT JUMPDEST POP PUSH1 0x4 CALLDATASIZE LT PUSH2 0x62 JUMPI PUSH1 0x0 CALLDATALOAD PUSH1 0xE0 SHR DUP1 PUSH4 0x2BE725AD EQ PUSH2 0x67 JUMPI DUP1 PUSH4 0x45D0695F EQ PUSH2 0x83 JUMPI DUP1 PUSH4 0x4D395307 EQ PUSH2 0xB5 JUMPI DUP1 PUSH4 0x56D88E27 EQ PUSH2 0xD3 JUMPI DUP1 PUSH4 0xE56FE289 EQ PUSH2 0xF1 JUMPI DUP1 PUSH4 0xEDF0099B EQ PUSH2 0x10F JUMPI JUMPDEST PUSH1 0x0 DUP1 REVERT JUMPDEST PUSH2 0x81 PUSH1 0x4 DUP1 CALLDATASIZE SUB DUP2 ADD SWAP1 PUSH2 0x7C SWAP2 SWAP1 PUSH2 0x195A JUMP JUMPDEST PUSH2 0x145 JUMP JUMPDEST STOP JUMPDEST PUSH2 0x9D PUSH1 0x4 DUP1 CALLDATASIZE SUB DUP2 ADD SWAP1 PUSH2 0x98 SWAP2 SWAP1 PUSH2 0x1A97 JUMP JUMPDEST PUSH2 0x539 JUMP JUMPDEST PUSH1 0x40 MLOAD PUSH2 0xAC SWAP4 SWAP3 SWAP2 SWAP1 PUSH2 0x1B56 JUMP JUMPDEST PUSH1 0x40 MLOAD DUP1 SWAP2 SUB SWAP1 RETURN JUMPDEST PUSH2 0xBD PUSH2 0x724 JUMP JUMPDEST PUSH1 0x40 MLOAD PUSH2 0xCA SWAP2 SWAP1 PUSH2 0x1F82 JUMP JUMPDEST PUSH1 0x40 MLOAD DUP1 SWAP2 SUB SWAP1 RETURN JUMPDEST PUSH2 0xDB PUSH2 0xAB1 JUMP JUMPDEST PUSH1 0x40 MLOAD PUSH2 0xE8 SWAP2 SWAP1 PUSH2 0x1FB3 JUMP JUMPDEST PUSH1 0x40 MLOAD DUP1 SWAP2 SUB SWAP1 RETURN JUMPDEST PUSH2 0xF9 PUSH2 0xABD JUMP JUMPDEST PUSH1 0x40 MLOAD PUSH2 0x106 SWAP2 SWAP1 PUSH2 0x21A9 JUMP JUMPDEST PUSH1 0x40 MLOAD DUP1 SWAP2 SUB SWAP1 RETURN JUMPDEST PUSH2 0x129 PUSH1 0x4 DUP1 CALLDATASIZE SUB DUP2 ADD SWAP1 PUSH2 0x124 SWAP2 SWAP1 PUSH2 0x21CB JUMP JUMPDEST PUSH2 0x10A4 JUMP JUMPDEST PUSH1 0x40 MLOAD PUSH2 0x13C SWAP8 SWAP7 SWAP6 SWAP5 SWAP4 SWAP3 SWAP2 SWAP1 PUSH2 0x21F8 JUMP JUMPDEST PUSH1 0x40 MLOAD DUP1 SWAP2 SUB SWAP1 RETURN JUMPDEST PUSH1 0x0 DUP1 DUP1 SLOAD SWAP1 POP SUB PUSH2 0x252 JUMPI PUSH2 0x159 PUSH2 0x14AE JUMP JUMPDEST DUP6 DUP2 PUSH1 0x0 ADD DUP2 SWAP1 MSTORE POP DUP5 DUP2 PUSH1 0x20 ADD DUP2 SWAP1 MSTORE POP DUP4 DUP2 PUSH1 0x40 ADD DUP2 SWAP1 MSTORE POP DUP3 DUP2 PUSH1 0x60 ADD DUP2 SWAP1 MSTORE POP DUP2 DUP2 PUSH1 0x80 ADD DUP2 SWAP1 MSTORE POP PUSH1 0x0 DUP1 DUP2 SLOAD DUP2 LT PUSH2 0x19A JUMPI PUSH2 0x199 PUSH2 0x2298 JUMP JUMPDEST JUMPDEST SWAP1 PUSH1 0x0 MSTORE PUSH1 0x20 PUSH1 0x0 KECCAK256 ADD DUP2 SWAP1 DUP1 PUSH1 0x1 DUP2 SLOAD ADD DUP1 DUP3 SSTORE DUP1 SWAP2 POP POP PUSH1 0x1 SWAP1 SUB SWAP1 PUSH1 0x0 MSTORE PUSH1 0x20 PUSH1 0x0 KECCAK256 SWAP1 PUSH1 0x5 MUL ADD PUSH1 0x0 SWAP1 SWAP2 SWAP1 SWAP2 SWAP1 SWAP2 POP PUSH1 0x0 DUP3 ADD MLOAD DUP2 PUSH1 0x0 ADD SWAP1 DUP2 PUSH2 0x1E3 SWAP2 SWAP1 PUSH2 0x24D3 JUMP JUMPDEST POP PUSH1 0x20 DUP3 ADD MLOAD DUP2 PUSH1 0x1 ADD SWAP1 DUP1 MLOAD SWAP1 PUSH1 0x20 ADD SWAP1 PUSH2 0x200 SWAP3 SWAP2 SWAP1 PUSH2 0x14DD JUMP JUMPDEST POP PUSH1 0x40 DUP3 ADD MLOAD DUP2 PUSH1 0x2 ADD SWAP1 DUP1 MLOAD SWAP1 PUSH1 0x20 ADD SWAP1 PUSH2 0x21D SWAP3 SWAP2 SWAP1 PUSH2 0x1536 JUMP JUMPDEST POP PUSH1 0x60 DUP3 ADD MLOAD DUP2 PUSH1 0x3 ADD SWAP1 DUP2 PUSH2 0x233 SWAP2 SWAP1 PUSH2 0x24D3 JUMP JUMPDEST POP PUSH1 0x80 DUP3 ADD MLOAD DUP2 PUSH1 0x4 ADD SWAP1 DUP2 PUSH2 0x249 SWAP2 SWAP1 PUSH2 0x24D3 JUMP JUMPDEST POP POP POP POP PUSH2 0x532 JUMP JUMPDEST PUSH1 0x0 JUMPDEST PUSH1 0x0 DUP1 SLOAD SWAP1 POP DUP2 LT ISZERO PUSH2 0x530 JUMPI DUP6 PUSH1 0x40 MLOAD PUSH1 0x20 ADD PUSH2 0x273 SWAP2 SWAP1 PUSH2 0x25E1 JUMP JUMPDEST PUSH1 0x40 MLOAD PUSH1 0x20 DUP2 DUP4 SUB SUB DUP2 MSTORE SWAP1 PUSH1 0x40 MSTORE DUP1 MLOAD SWAP1 PUSH1 0x20 ADD KECCAK256 PUSH1 0x0 DUP3 DUP2 SLOAD DUP2 LT PUSH2 0x29D JUMPI PUSH2 0x29C PUSH2 0x2298 JUMP JUMPDEST JUMPDEST SWAP1 PUSH1 0x0 MSTORE PUSH1 0x20 PUSH1 0x0 KECCAK256 ADD PUSH1 0x0 DUP2 SLOAD DUP2 LT PUSH2 0x2BA JUMPI PUSH2 0x2B9 PUSH2 0x2298 JUMP JUMPDEST JUMPDEST SWAP1 PUSH1 0x0 MSTORE PUSH1 0x20 PUSH1 0x0 KECCAK256 SWAP1 PUSH1 0x5 MUL ADD PUSH1 0x0 ADD PUSH1 0x40 MLOAD PUSH1 0x20 ADD PUSH2 0x2DB SWAP2 SWAP1 PUSH2 0x267B JUMP JUMPDEST PUSH1 0x40 MLOAD PUSH1 0x20 DUP2 DUP4 SUB SUB DUP2 MSTORE SWAP1 PUSH1 0x40 MSTORE DUP1 MLOAD SWAP1 PUSH1 0x20 ADD KECCAK256 SUB PUSH2 0x3F7 JUMPI PUSH2 0x2FE PUSH2 0x14AE JUMP JUMPDEST DUP7 DUP2 PUSH1 0x0 ADD DUP2 SWAP1 MSTORE POP DUP6 DUP2 PUSH1 0x20 ADD DUP2 SWAP1 MSTORE POP DUP5 DUP2 PUSH1 0x40 ADD DUP2 SWAP1 MSTORE POP DUP4 DUP2 PUSH1 0x60 ADD DUP2 SWAP1 MSTORE POP DUP3 DUP2 PUSH1 0x80 ADD DUP2 SWAP1 MSTORE POP PUSH1 0x0 DUP3 DUP2 SLOAD DUP2 LT PUSH2 0x33F JUMPI PUSH2 0x33E PUSH2 0x2298 JUMP JUMPDEST JUMPDEST SWAP1 PUSH1 0x0 MSTORE PUSH1 0x20 PUSH1 0x0 KECCAK256 ADD DUP2 SWAP1 DUP1 PUSH1 0x1 DUP2 SLOAD ADD DUP1 DUP3 SSTORE DUP1 SWAP2 POP POP PUSH1 0x1 SWAP1 SUB SWAP1 PUSH1 0x0 MSTORE PUSH1 0x20 PUSH1 0x0 KECCAK256 SWAP1 PUSH1 0x5 MUL ADD PUSH1 0x0 SWAP1 SWAP2 SWAP1 SWAP2 SWAP1 SWAP2 POP PUSH1 0x0 DUP3 ADD MLOAD DUP2 PUSH1 0x0 ADD SWAP1 DUP2 PUSH2 0x388 SWAP2 SWAP1 PUSH2 0x24D3 JUMP JUMPDEST POP PUSH1 0x20 DUP3 ADD MLOAD DUP2 PUSH1 0x1 ADD SWAP1 DUP1 MLOAD SWAP1 PUSH1 0x20 ADD SWAP1 PUSH2 0x3A5 SWAP3 SWAP2 SWAP1 PUSH2 0x14DD JUMP JUMPDEST POP PUSH1 0x40 DUP3 ADD MLOAD DUP2 PUSH1 0x2 ADD SWAP1 DUP1 MLOAD SWAP1 PUSH1 0x20 ADD SWAP1 PUSH2 0x3C2 SWAP3 SWAP2 SWAP1 PUSH2 0x1536 JUMP JUMPDEST POP PUSH1 0x60 DUP3 ADD MLOAD DUP2 PUSH1 0x3 ADD SWAP1 DUP2 PUSH2 0x3D8 SWAP2 SWAP1 PUSH2 0x24D3 JUMP JUMPDEST POP PUSH1 0x80 DUP3 ADD MLOAD DUP2 PUSH1 0x4 ADD SWAP1 DUP2 PUSH2 0x3EE SWAP2 SWAP1 PUSH2 0x24D3 JUMP JUMPDEST POP POP POP POP PUSH2 0x51D JUMP JUMPDEST PUSH1 0x0 DUP1 DUP3 DUP2 SLOAD DUP2 LT PUSH2 0x40C JUMPI PUSH2 0x40B PUSH2 0x2298 JUMP JUMPDEST JUMPDEST SWAP1 PUSH1 0x0 MSTORE PUSH1 0x20 PUSH1 0x0 KECCAK256 ADD DUP1 SLOAD SWAP1 POP SUB PUSH2 0x51C JUMPI PUSH2 0x427 PUSH2 0x14AE JUMP JUMPDEST DUP7 DUP2 PUSH1 0x0 ADD DUP2 SWAP1 MSTORE POP DUP6 DUP2 PUSH1 0x20 ADD DUP2 SWAP1 MSTORE POP DUP5 DUP2 PUSH1 0x40 ADD DUP2 SWAP1 MSTORE POP DUP4 DUP2 PUSH1 0x60 ADD DUP2 SWAP1 MSTORE POP DUP3 DUP2 PUSH1 0x80 ADD DUP2 SWAP1 MSTORE POP PUSH1 0x0 DUP3 DUP2 SLOAD DUP2 LT PUSH2 0x468 JUMPI PUSH2 0x467 PUSH2 0x2298 JUMP JUMPDEST JUMPDEST SWAP1 PUSH1 0x0 MSTORE PUSH1 0x20 PUSH1 0x0 KECCAK256 ADD DUP2 SWAP1 DUP1 PUSH1 0x1 DUP2 SLOAD ADD DUP1 DUP3 SSTORE DUP1 SWAP2 POP POP PUSH1 0x1 SWAP1 SUB SWAP1 PUSH1 0x0 MSTORE PUSH1 0x20 PUSH1 0x0 KECCAK256 SWAP1 PUSH1 0x5 MUL ADD PUSH1 0x0 SWAP1 SWAP2 SWAP1 SWAP2 SWAP1 SWAP2 POP PUSH1 0x0 DUP3 ADD MLOAD DUP2 PUSH1 0x0 ADD SWAP1 DUP2 PUSH2 0x4B1 SWAP2 SWAP1 PUSH2 0x24D3 JUMP JUMPDEST POP PUSH1 0x20 DUP3 ADD MLOAD DUP2 PUSH1 0x1 ADD SWAP1 DUP1 MLOAD SWAP1 PUSH1 0x20 ADD SWAP1 PUSH2 0x4CE SWAP3 SWAP2 SWAP1 PUSH2 0x14DD JUMP JUMPDEST POP PUSH1 0x40 DUP3 ADD MLOAD DUP2 PUSH1 0x2 ADD SWAP1 DUP1 MLOAD SWAP1 PUSH1 0x20 ADD SWAP1 PUSH2 0x4EB SWAP3 SWAP2 SWAP1 PUSH2 0x1536 JUMP JUMPDEST POP PUSH1 0x60 DUP3 ADD MLOAD DUP2 PUSH1 0x3 ADD SWAP1 DUP2 PUSH2 0x501 SWAP2 SWAP1 PUSH2 0x24D3 JUMP JUMPDEST POP PUSH1 0x80 DUP3 ADD MLOAD DUP2 PUSH1 0x4 ADD SWAP1 DUP2 PUSH2 0x517 SWAP2 SWAP1 PUSH2 0x24D3 JUMP JUMPDEST POP POP POP POP JUMPDEST JUMPDEST DUP1 DUP1 PUSH2 0x528 SWAP1 PUSH2 0x26C1 JUMP JUMPDEST SWAP2 POP POP PUSH2 0x255 JUMP JUMPDEST POP JUMPDEST POP POP POP POP POP JUMP JUMPDEST PUSH1 0x0 DUP3 DUP2 SLOAD DUP2 LT PUSH2 0x549 JUMPI PUSH1 0x0 DUP1 REVERT JUMPDEST SWAP1 PUSH1 0x0 MSTORE PUSH1 0x20 PUSH1 0x0 KECCAK256 ADD DUP2 DUP2 SLOAD DUP2 LT PUSH2 0x561 JUMPI PUSH1 0x0 DUP1 REVERT JUMPDEST SWAP1 PUSH1 0x0 MSTORE PUSH1 0x20 PUSH1 0x0 KECCAK256 SWAP1 PUSH1 0x5 MUL ADD PUSH1 0x0 SWAP2 POP SWAP2 POP POP DUP1 PUSH1 0x0 ADD DUP1 SLOAD PUSH2 0x585 SWAP1 PUSH2 0x22F6 JUMP JUMPDEST DUP1 PUSH1 0x1F ADD PUSH1 0x20 DUP1 SWAP2 DIV MUL PUSH1 0x20 ADD PUSH1 0x40 MLOAD SWAP1 DUP2 ADD PUSH1 0x40 MSTORE DUP1 SWAP3 SWAP2 SWAP1 DUP2 DUP2 MSTORE PUSH1 0x20 ADD DUP3 DUP1 SLOAD PUSH2 0x5B1 SWAP1 PUSH2 0x22F6 JUMP JUMPDEST DUP1 ISZERO PUSH2 0x5FE JUMPI DUP1 PUSH1 0x1F LT PUSH2 0x5D3 JUMPI PUSH2 0x100 DUP1 DUP4 SLOAD DIV MUL DUP4 MSTORE SWAP2 PUSH1 0x20 ADD SWAP2 PUSH2 0x5FE JUMP JUMPDEST DUP3 ADD SWAP2 SWAP1 PUSH1 0x0 MSTORE PUSH1 0x20 PUSH1 0x0 KECCAK256 SWAP1 JUMPDEST DUP2 SLOAD DUP2 MSTORE SWAP1 PUSH1 0x1 ADD SWAP1 PUSH1 0x20 ADD DUP1 DUP4 GT PUSH2 0x5E1 JUMPI DUP3 SWAP1 SUB PUSH1 0x1F AND DUP3 ADD SWAP2 JUMPDEST POP POP POP POP POP SWAP1 DUP1 PUSH1 0x3 ADD DUP1 SLOAD PUSH2 0x613 SWAP1 PUSH2 0x22F6 JUMP JUMPDEST DUP1 PUSH1 0x1F ADD PUSH1 0x20 DUP1 SWAP2 DIV MUL PUSH1 0x20 ADD PUSH1 0x40 MLOAD SWAP1 DUP2 ADD PUSH1 0x40 MSTORE DUP1 SWAP3 SWAP2 SWAP1 DUP2 DUP2 MSTORE PUSH1 0x20 ADD DUP3 DUP1 SLOAD PUSH2 0x63F SWAP1 PUSH2 0x22F6 JUMP JUMPDEST DUP1 ISZERO PUSH2 0x68C JUMPI DUP1 PUSH1 0x1F LT PUSH2 0x661 JUMPI PUSH2 0x100 DUP1 DUP4 SLOAD DIV MUL DUP4 MSTORE SWAP2 PUSH1 0x20 ADD SWAP2 PUSH2 0x68C JUMP JUMPDEST DUP3 ADD SWAP2 SWAP1 PUSH1 0x0 MSTORE PUSH1 0x20 PUSH1 0x0 KECCAK256 SWAP1 JUMPDEST DUP2 SLOAD DUP2 MSTORE SWAP1 PUSH1 0x1 ADD SWAP1 PUSH1 0x20 ADD DUP1 DUP4 GT PUSH2 0x66F JUMPI DUP3 SWAP1 SUB PUSH1 0x1F AND DUP3 ADD SWAP2 JUMPDEST POP POP POP POP POP SWAP1 DUP1 PUSH1 0x4 ADD DUP1 SLOAD PUSH2 0x6A1 SWAP1 PUSH2 0x22F6 JUMP JUMPDEST DUP1 PUSH1 0x1F ADD PUSH1 0x20 DUP1 SWAP2 DIV MUL PUSH1 0x20 ADD PUSH1 0x40 MLOAD SWAP1 DUP2 ADD PUSH1 0x40 MSTORE DUP1 SWAP3 SWAP2 SWAP1 DUP2 DUP2 MSTORE PUSH1 0x20 ADD DUP3 DUP1 SLOAD PUSH2 0x6CD SWAP1 PUSH2 0x22F6 JUMP JUMPDEST DUP1 ISZERO PUSH2 0x71A JUMPI DUP1 PUSH1 0x1F LT PUSH2 0x6EF JUMPI PUSH2 0x100 DUP1 DUP4 SLOAD DIV MUL DUP4 MSTORE SWAP2 PUSH1 0x20 ADD SWAP2 PUSH2 0x71A JUMP JUMPDEST DUP3 ADD SWAP2 SWAP1 PUSH1 0x0 MSTORE PUSH1 0x20 PUSH1 0x0 KECCAK256 SWAP1 JUMPDEST DUP2 SLOAD DUP2 MSTORE SWAP1 PUSH1 0x1 ADD SWAP1 PUSH1 0x20 ADD DUP1 DUP4 GT PUSH2 0x6FD JUMPI DUP3 SWAP1 SUB PUSH1 0x1F AND DUP3 ADD SWAP2 JUMPDEST POP POP POP POP POP SWAP1 POP DUP4 JUMP JUMPDEST PUSH1 0x60 PUSH1 0x0 DUP1 SLOAD DUP1 PUSH1 0x20 MUL PUSH1 0x20 ADD PUSH1 0x40 MLOAD SWAP1 DUP2 ADD PUSH1 0x40 MSTORE DUP1 SWAP3 SWAP2 SWAP1 DUP2 DUP2 MSTORE PUSH1 0x20 ADD PUSH1 0x0 SWAP1 JUMPDEST DUP3 DUP3 LT ISZERO PUSH2 0xAA8 JUMPI DUP4 DUP3 SWAP1 PUSH1 0x0 MSTORE PUSH1 0x20 PUSH1 0x0 KECCAK256 ADD DUP1 SLOAD DUP1 PUSH1 0x20 MUL PUSH1 0x20 ADD PUSH1 0x40 MLOAD SWAP1 DUP2 ADD PUSH1 0x40 MSTORE DUP1 SWAP3 SWAP2 SWAP1 DUP2 DUP2 MSTORE PUSH1 0x20 ADD PUSH1 0x0 SWAP1 JUMPDEST DUP3 DUP3 LT ISZERO PUSH2 0xA95 JUMPI DUP4 DUP3 SWAP1 PUSH1 0x0 MSTORE PUSH1 0x20 PUSH1 0x0 KECCAK256 SWAP1 PUSH1 0x5 MUL ADD PUSH1 0x40 MLOAD DUP1 PUSH1 0xA0 ADD PUSH1 0x40 MSTORE SWAP1 DUP2 PUSH1 0x0 DUP3 ADD DUP1 SLOAD PUSH2 0x7AF SWAP1 PUSH2 0x22F6 JUMP JUMPDEST DUP1 PUSH1 0x1F ADD PUSH1 0x20 DUP1 SWAP2 DIV MUL PUSH1 0x20 ADD PUSH1 0x40 MLOAD SWAP1 DUP2 ADD PUSH1 0x40 MSTORE DUP1 SWAP3 SWAP2 SWAP1 DUP2 DUP2 MSTORE PUSH1 0x20 ADD DUP3 DUP1 SLOAD PUSH2 0x7DB SWAP1 PUSH2 0x22F6 JUMP JUMPDEST DUP1 ISZERO PUSH2 0x828 JUMPI DUP1 PUSH1 0x1F LT PUSH2 0x7FD JUMPI PUSH2 0x100 DUP1 DUP4 SLOAD DIV MUL DUP4 MSTORE SWAP2 PUSH1 0x20 ADD SWAP2 PUSH2 0x828 JUMP JUMPDEST DUP3 ADD SWAP2 SWAP1 PUSH1 0x0 MSTORE PUSH1 0x20 PUSH1 0x0 KECCAK256 SWAP1 JUMPDEST DUP2 SLOAD DUP2 MSTORE SWAP1 PUSH1 0x1 ADD SWAP1 PUSH1 0x20 ADD DUP1 DUP4 GT PUSH2 0x80B JUMPI DUP3 SWAP1 SUB PUSH1 0x1F AND DUP3 ADD SWAP2 JUMPDEST POP POP POP POP POP DUP2 MSTORE PUSH1 0x20 ADD PUSH1 0x1 DUP3 ADD DUP1 SLOAD DUP1 PUSH1 0x20 MUL PUSH1 0x20 ADD PUSH1 0x40 MLOAD SWAP1 DUP2 ADD PUSH1 0x40 MSTORE DUP1 SWAP3 SWAP2 SWAP1 DUP2 DUP2 MSTORE PUSH1 0x20 ADD PUSH1 0x0 SWAP1 JUMPDEST DUP3 DUP3 LT ISZERO PUSH2 0x902 JUMPI DUP4 DUP3 SWAP1 PUSH1 0x0 MSTORE PUSH1 0x20 PUSH1 0x0 KECCAK256 ADD DUP1 SLOAD PUSH2 0x875 SWAP1 PUSH2 0x22F6 JUMP JUMPDEST DUP1 PUSH1 0x1F ADD PUSH1 0x20 DUP1 SWAP2 DIV MUL PUSH1 0x20 ADD PUSH1 0x40 MLOAD SWAP1 DUP2 ADD PUSH1 0x40 MSTORE DUP1 SWAP3 SWAP2 SWAP1 DUP2 DUP2 MSTORE PUSH1 0x20 ADD DUP3 DUP1 SLOAD PUSH2 0x8A1 SWAP1 PUSH2 0x22F6 JUMP JUMPDEST DUP1 ISZERO PUSH2 0x8EE JUMPI DUP1 PUSH1 0x1F LT PUSH2 0x8C3 JUMPI PUSH2 0x100 DUP1 DUP4 SLOAD DIV MUL DUP4 MSTORE SWAP2 PUSH1 0x20 ADD SWAP2 PUSH2 0x8EE JUMP JUMPDEST DUP3 ADD SWAP2 SWAP1 PUSH1 0x0 MSTORE PUSH1 0x20 PUSH1 0x0 KECCAK256 SWAP1 JUMPDEST DUP2 SLOAD DUP2 MSTORE SWAP1 PUSH1 0x1 ADD SWAP1 PUSH1 0x20 ADD DUP1 DUP4 GT PUSH2 0x8D1 JUMPI DUP3 SWAP1 SUB PUSH1 0x1F AND DUP3 ADD SWAP2 JUMPDEST POP POP POP POP POP DUP2 MSTORE PUSH1 0x20 ADD SWAP1 PUSH1 0x1 ADD SWAP1 PUSH2 0x856 JUMP JUMPDEST POP POP POP POP DUP2 MSTORE PUSH1 0x20 ADD PUSH1 0x2 DUP3 ADD DUP1 SLOAD DUP1 PUSH1 0x20 MUL PUSH1 0x20 ADD PUSH1 0x40 MLOAD SWAP1 DUP2 ADD PUSH1 0x40 MSTORE DUP1 SWAP3 SWAP2 SWAP1 DUP2 DUP2 MSTORE PUSH1 0x20 ADD DUP3 DUP1 SLOAD DUP1 ISZERO PUSH2 0x959 JUMPI PUSH1 0x20 MUL DUP3 ADD SWAP2 SWAP1 PUSH1 0x0 MSTORE PUSH1 0x20 PUSH1 0x0 KECCAK256 SWAP1 JUMPDEST DUP2 SLOAD DUP2 MSTORE PUSH1 0x20 ADD SWAP1 PUSH1 0x1 ADD SWAP1 DUP1 DUP4 GT PUSH2 0x945 JUMPI JUMPDEST POP POP POP POP POP DUP2 MSTORE PUSH1 0x20 ADD PUSH1 0x3 DUP3 ADD DUP1 SLOAD PUSH2 0x972 SWAP1 PUSH2 0x22F6 JUMP JUMPDEST DUP1 PUSH1 0x1F ADD PUSH1 0x20 DUP1 SWAP2 DIV MUL PUSH1 0x20 ADD PUSH1 0x40 MLOAD SWAP1 DUP2 ADD PUSH1 0x40 MSTORE DUP1 SWAP3 SWAP2 SWAP1 DUP2 DUP2 MSTORE PUSH1 0x20 ADD DUP3 DUP1 SLOAD PUSH2 0x99E SWAP1 PUSH2 0x22F6 JUMP JUMPDEST DUP1 ISZERO PUSH2 0x9EB JUMPI DUP1 PUSH1 0x1F LT PUSH2 0x9C0 JUMPI PUSH2 0x100 DUP1 DUP4 SLOAD DIV MUL DUP4 MSTORE SWAP2 PUSH1 0x20 ADD SWAP2 PUSH2 0x9EB JUMP JUMPDEST DUP3 ADD SWAP2 SWAP1 PUSH1 0x0 MSTORE PUSH1 0x20 PUSH1 0x0 KECCAK256 SWAP1 JUMPDEST DUP2 SLOAD DUP2 MSTORE SWAP1 PUSH1 0x1 ADD SWAP1 PUSH1 0x20 ADD DUP1 DUP4 GT PUSH2 0x9CE JUMPI DUP3 SWAP1 SUB PUSH1 0x1F AND DUP3 ADD SWAP2 JUMPDEST POP POP POP POP POP DUP2 MSTORE PUSH1 0x20 ADD PUSH1 0x4 DUP3 ADD DUP1 SLOAD PUSH2 0xA04 SWAP1 PUSH2 0x22F6 JUMP JUMPDEST DUP1 PUSH1 0x1F ADD PUSH1 0x20 DUP1 SWAP2 DIV MUL PUSH1 0x20 ADD PUSH1 0x40 MLOAD SWAP1 DUP2 ADD PUSH1 0x40 MSTORE DUP1 SWAP3 SWAP2 SWAP1 DUP2 DUP2 MSTORE PUSH1 0x20 ADD DUP3 DUP1 SLOAD PUSH2 0xA30 SWAP1 PUSH2 0x22F6 JUMP JUMPDEST DUP1 ISZERO PUSH2 0xA7D JUMPI DUP1 PUSH1 0x1F LT PUSH2 0xA52 JUMPI PUSH2 0x100 DUP1 DUP4 SLOAD DIV MUL DUP4 MSTORE SWAP2 PUSH1 0x20 ADD SWAP2 PUSH2 0xA7D JUMP JUMPDEST DUP3 ADD SWAP2 SWAP1 PUSH1 0x0 MSTORE PUSH1 0x20 PUSH1 0x0 KECCAK256 SWAP1 JUMPDEST DUP2 SLOAD DUP2 MSTORE SWAP1 PUSH1 0x1 ADD SWAP1 PUSH1 0x20 ADD DUP1 DUP4 GT PUSH2 0xA60 JUMPI DUP3 SWAP1 SUB PUSH1 0x1F AND DUP3 ADD SWAP2 JUMPDEST POP POP POP POP POP DUP2 MSTORE POP POP DUP2 MSTORE PUSH1 0x20 ADD SWAP1 PUSH1 0x1 ADD SWAP1 PUSH2 0x77C JUMP JUMPDEST POP POP POP POP DUP2 MSTORE PUSH1 0x20 ADD SWAP1 PUSH1 0x1 ADD SWAP1 PUSH2 0x748 JUMP JUMPDEST POP POP POP POP SWAP1 POP SWAP1 JUMP JUMPDEST PUSH1 0x0 DUP1 DUP1 SLOAD SWAP1 POP SWAP1 POP SWAP1 JUMP JUMPDEST PUSH1 0x60 PUSH1 0x1 DUP1 SLOAD DUP1 PUSH1 0x20 MUL PUSH1 0x20 ADD PUSH1 0x40 MLOAD SWAP1 DUP2 ADD PUSH1 0x40 MSTORE DUP1 SWAP3 SWAP2 SWAP1 DUP2 DUP2 MSTORE PUSH1 0x20 ADD PUSH1 0x0 SWAP1 JUMPDEST DUP3 DUP3 LT ISZERO PUSH2 0x109B JUMPI DUP4 DUP3 SWAP1 PUSH1 0x0 MSTORE PUSH1 0x20 PUSH1 0x0 KECCAK256 SWAP1 PUSH1 0xA MUL ADD PUSH1 0x40 MLOAD DUP1 PUSH2 0x140 ADD PUSH1 0x40 MSTORE SWAP1 DUP2 PUSH1 0x0 DUP3 ADD DUP1 SLOAD PUSH2 0xB15 SWAP1 PUSH2 0x22F6 JUMP JUMPDEST DUP1 PUSH1 0x1F ADD PUSH1 0x20 DUP1 SWAP2 DIV MUL PUSH1 0x20 ADD PUSH1 0x40 MLOAD SWAP1 DUP2 ADD PUSH1 0x40 MSTORE DUP1 SWAP3 SWAP2 SWAP1 DUP2 DUP2 MSTORE PUSH1 0x20 ADD DUP3 DUP1 SLOAD PUSH2 0xB41 SWAP1 PUSH2 0x22F6 JUMP JUMPDEST DUP1 ISZERO PUSH2 0xB8E JUMPI DUP1 PUSH1 0x1F LT PUSH2 0xB63 JUMPI PUSH2 0x100 DUP1 DUP4 SLOAD DIV MUL DUP4 MSTORE SWAP2 PUSH1 0x20 ADD SWAP2 PUSH2 0xB8E JUMP JUMPDEST DUP3 ADD SWAP2 SWAP1 PUSH1 0x0 MSTORE PUSH1 0x20 PUSH1 0x0 KECCAK256 SWAP1 JUMPDEST DUP2 SLOAD DUP2 MSTORE SWAP1 PUSH1 0x1 ADD SWAP1 PUSH1 0x20 ADD DUP1 DUP4 GT PUSH2 0xB71 JUMPI DUP3 SWAP1 SUB PUSH1 0x1F AND DUP3 ADD SWAP2 JUMPDEST POP POP POP POP POP DUP2 MSTORE PUSH1 0x20 ADD PUSH1 0x1 DUP3 ADD DUP1 SLOAD DUP1 PUSH1 0x20 MUL PUSH1 0x20 ADD PUSH1 0x40 MLOAD SWAP1 DUP2 ADD PUSH1 0x40 MSTORE DUP1 SWAP3 SWAP2 SWAP1 DUP2 DUP2 MSTORE PUSH1 0x20 ADD PUSH1 0x0 SWAP1 JUMPDEST DUP3 DUP3 LT ISZERO PUSH2 0xC68 JUMPI DUP4 DUP3 SWAP1 PUSH1 0x0 MSTORE PUSH1 0x20 PUSH1 0x0 KECCAK256 ADD DUP1 SLOAD PUSH2 0xBDB SWAP1 PUSH2 0x22F6 JUMP JUMPDEST DUP1 PUSH1 0x1F ADD PUSH1 0x20 DUP1 SWAP2 DIV MUL PUSH1 0x20 ADD PUSH1 0x40 MLOAD SWAP1 DUP2 ADD PUSH1 0x40 MSTORE DUP1 SWAP3 SWAP2 SWAP1 DUP2 DUP2 MSTORE PUSH1 0x20 ADD DUP3 DUP1 SLOAD PUSH2 0xC07 SWAP1 PUSH2 0x22F6 JUMP JUMPDEST DUP1 ISZERO PUSH2 0xC54 JUMPI DUP1 PUSH1 0x1F LT PUSH2 0xC29 JUMPI PUSH2 0x100 DUP1 DUP4 SLOAD DIV MUL DUP4 MSTORE SWAP2 PUSH1 0x20 ADD SWAP2 PUSH2 0xC54 JUMP JUMPDEST DUP3 ADD SWAP2 SWAP1 PUSH1 0x0 MSTORE PUSH1 0x20 PUSH1 0x0 KECCAK256 SWAP1 JUMPDEST DUP2 SLOAD DUP2 MSTORE SWAP1 PUSH1 0x1 ADD SWAP1 PUSH1 0x20 ADD DUP1 DUP4 GT PUSH2 0xC37 JUMPI DUP3 SWAP1 SUB PUSH1 0x1F AND DUP3 ADD SWAP2 JUMPDEST POP POP POP POP POP DUP2 MSTORE PUSH1 0x20 ADD SWAP1 PUSH1 0x1 ADD SWAP1 PUSH2 0xBBC JUMP JUMPDEST POP POP POP POP DUP2 MSTORE PUSH1 0x20 ADD PUSH1 0x2 DUP3 ADD DUP1 SLOAD DUP1 PUSH1 0x20 MUL PUSH1 0x20 ADD PUSH1 0x40 MLOAD SWAP1 DUP2 ADD PUSH1 0x40 MSTORE DUP1 SWAP3 SWAP2 SWAP1 DUP2 DUP2 MSTORE PUSH1 0x20 ADD DUP3 DUP1 SLOAD DUP1 ISZERO PUSH2 0xCBF JUMPI PUSH1 0x20 MUL DUP3 ADD SWAP2 SWAP1 PUSH1 0x0 MSTORE PUSH1 0x20 PUSH1 0x0 KECCAK256 SWAP1 JUMPDEST DUP2 SLOAD DUP2 MSTORE PUSH1 0x20 ADD SWAP1 PUSH1 0x1 ADD SWAP1 DUP1 DUP4 GT PUSH2 0xCAB JUMPI JUMPDEST POP POP POP POP POP DUP2 MSTORE PUSH1 0x20 ADD PUSH1 0x3 DUP3 ADD DUP1 SLOAD PUSH2 0xCD8 SWAP1 PUSH2 0x22F6 JUMP JUMPDEST DUP1 PUSH1 0x1F ADD PUSH1 0x20 DUP1 SWAP2 DIV MUL PUSH1 0x20 ADD PUSH1 0x40 MLOAD SWAP1 DUP2 ADD PUSH1 0x40 MSTORE DUP1 SWAP3 SWAP2 SWAP1 DUP2 DUP2 MSTORE PUSH1 0x20 ADD DUP3 DUP1 SLOAD PUSH2 0xD04 SWAP1 PUSH2 0x22F6 JUMP JUMPDEST DUP1 ISZERO PUSH2 0xD51 JUMPI DUP1 PUSH1 0x1F LT PUSH2 0xD26 JUMPI PUSH2 0x100 DUP1 DUP4 SLOAD DIV MUL DUP4 MSTORE SWAP2 PUSH1 0x20 ADD SWAP2 PUSH2 0xD51 JUMP JUMPDEST DUP3 ADD SWAP2 SWAP1 PUSH1 0x0 MSTORE PUSH1 0x20 PUSH1 0x0 KECCAK256 SWAP1 JUMPDEST DUP2 SLOAD DUP2 MSTORE SWAP1 PUSH1 0x1 ADD SWAP1 PUSH1 0x20 ADD DUP1 DUP4 GT PUSH2 0xD34 JUMPI DUP3 SWAP1 SUB PUSH1 0x1F AND DUP3 ADD SWAP2 JUMPDEST POP POP POP POP POP DUP2 MSTORE PUSH1 0x20 ADD PUSH1 0x4 DUP3 ADD DUP1 SLOAD PUSH2 0xD6A SWAP1 PUSH2 0x22F6 JUMP JUMPDEST DUP1 PUSH1 0x1F ADD PUSH1 0x20 DUP1 SWAP2 DIV MUL PUSH1 0x20 ADD PUSH1 0x40 MLOAD SWAP1 DUP2 ADD PUSH1 0x40 MSTORE DUP1 SWAP3 SWAP2 SWAP1 DUP2 DUP2 MSTORE PUSH1 0x20 ADD DUP3 DUP1 SLOAD PUSH2 0xD96 SWAP1 PUSH2 0x22F6 JUMP JUMPDEST DUP1 ISZERO PUSH2 0xDE3 JUMPI DUP1 PUSH1 0x1F LT PUSH2 0xDB8 JUMPI PUSH2 0x100 DUP1 DUP4 SLOAD DIV MUL DUP4 MSTORE SWAP2 PUSH1 0x20 ADD SWAP2 PUSH2 0xDE3 JUMP JUMPDEST DUP3 ADD SWAP2 SWAP1 PUSH1 0x0 MSTORE PUSH1 0x20 PUSH1 0x0 KECCAK256 SWAP1 JUMPDEST DUP2 SLOAD DUP2 MSTORE SWAP1 PUSH1 0x1 ADD SWAP1 PUSH1 0x20 ADD DUP1 DUP4 GT PUSH2 0xDC6 JUMPI DUP3 SWAP1 SUB PUSH1 0x1F AND DUP3 ADD SWAP2 JUMPDEST POP POP POP POP POP DUP2 MSTORE PUSH1 0x20 ADD PUSH1 0x5 DUP3 ADD DUP1 SLOAD DUP1 PUSH1 0x20 MUL PUSH1 0x20 ADD PUSH1 0x40 MLOAD SWAP1 DUP2 ADD PUSH1 0x40 MSTORE DUP1 SWAP3 SWAP2 SWAP1 DUP2 DUP2 MSTORE PUSH1 0x20 ADD DUP3 DUP1 SLOAD DUP1 ISZERO PUSH2 0xE3B JUMPI PUSH1 0x20 MUL DUP3 ADD SWAP2 SWAP1 PUSH1 0x0 MSTORE PUSH1 0x20 PUSH1 0x0 KECCAK256 SWAP1 JUMPDEST DUP2 SLOAD DUP2 MSTORE PUSH1 0x20 ADD SWAP1 PUSH1 0x1 ADD SWAP1 DUP1 DUP4 GT PUSH2 0xE27 JUMPI JUMPDEST POP POP POP POP POP DUP2 MSTORE PUSH1 0x20 ADD PUSH1 0x6 DUP3 ADD DUP1 SLOAD PUSH2 0xE54 SWAP1 PUSH2 0x22F6 JUMP JUMPDEST DUP1 PUSH1 0x1F ADD PUSH1 0x20 DUP1 SWAP2 DIV MUL PUSH1 0x20 ADD PUSH1 0x40 MLOAD SWAP1 DUP2 ADD PUSH1 0x40 MSTORE DUP1 SWAP3 SWAP2 SWAP1 DUP2 DUP2 MSTORE PUSH1 0x20 ADD DUP3 DUP1 SLOAD PUSH2 0xE80 SWAP1 PUSH2 0x22F6 JUMP JUMPDEST DUP1 ISZERO PUSH2 0xECD JUMPI DUP1 PUSH1 0x1F LT PUSH2 0xEA2 JUMPI PUSH2 0x100 DUP1 DUP4 SLOAD DIV MUL DUP4 MSTORE SWAP2 PUSH1 0x20 ADD SWAP2 PUSH2 0xECD JUMP JUMPDEST DUP3 ADD SWAP2 SWAP1 PUSH1 0x0 MSTORE PUSH1 0x20 PUSH1 0x0 KECCAK256 SWAP1 JUMPDEST DUP2 SLOAD DUP2 MSTORE SWAP1 PUSH1 0x1 ADD SWAP1 PUSH1 0x20 ADD DUP1 DUP4 GT PUSH2 0xEB0 JUMPI DUP3 SWAP1 SUB PUSH1 0x1F AND DUP3 ADD SWAP2 JUMPDEST POP POP POP POP POP DUP2 MSTORE PUSH1 0x20 ADD PUSH1 0x7 DUP3 ADD DUP1 SLOAD PUSH2 0xEE6 SWAP1 PUSH2 0x22F6 JUMP JUMPDEST DUP1 PUSH1 0x1F ADD PUSH1 0x20 DUP1 SWAP2 DIV MUL PUSH1 0x20 ADD PUSH1 0x40 MLOAD SWAP1 DUP2 ADD PUSH1 0x40 MSTORE DUP1 SWAP3 SWAP2 SWAP1 DUP2 DUP2 MSTORE PUSH1 0x20 ADD DUP3 DUP1 SLOAD PUSH2 0xF12 SWAP1 PUSH2 0x22F6 JUMP JUMPDEST DUP1 ISZERO PUSH2 0xF5F JUMPI DUP1 PUSH1 0x1F LT PUSH2 0xF34 JUMPI PUSH2 0x100 DUP1 DUP4 SLOAD DIV MUL DUP4 MSTORE SWAP2 PUSH1 0x20 ADD SWAP2 PUSH2 0xF5F JUMP JUMPDEST DUP3 ADD SWAP2 SWAP1 PUSH1 0x0 MSTORE PUSH1 0x20 PUSH1 0x0 KECCAK256 SWAP1 JUMPDEST DUP2 SLOAD DUP2 MSTORE SWAP1 PUSH1 0x1 ADD SWAP1 PUSH1 0x20 ADD DUP1 DUP4 GT PUSH2 0xF42 JUMPI DUP3 SWAP1 SUB PUSH1 0x1F AND DUP3 ADD SWAP2 JUMPDEST POP POP POP POP POP DUP2 MSTORE PUSH1 0x20 ADD PUSH1 0x8 DUP3 ADD DUP1 SLOAD PUSH2 0xF78 SWAP1 PUSH2 0x22F6 JUMP JUMPDEST DUP1 PUSH1 0x1F ADD PUSH1 0x20 DUP1 SWAP2 DIV MUL PUSH1 0x20 ADD PUSH1 0x40 MLOAD SWAP1 DUP2 ADD PUSH1 0x40 MSTORE DUP1 SWAP3 SWAP2 SWAP1 DUP2 DUP2 MSTORE PUSH1 0x20 ADD DUP3 DUP1 SLOAD PUSH2 0xFA4 SWAP1 PUSH2 0x22F6 JUMP JUMPDEST DUP1 ISZERO PUSH2 0xFF1 JUMPI DUP1 PUSH1 0x1F LT PUSH2 0xFC6 JUMPI PUSH2 0x100 DUP1 DUP4 SLOAD DIV MUL DUP4 MSTORE SWAP2 PUSH1 0x20 ADD SWAP2 PUSH2 0xFF1 JUMP JUMPDEST DUP3 ADD SWAP2 SWAP1 PUSH1 0x0 MSTORE PUSH1 0x20 PUSH1 0x0 KECCAK256 SWAP1 JUMPDEST DUP2 SLOAD DUP2 MSTORE SWAP1 PUSH1 0x1 ADD SWAP1 PUSH1 0x20 ADD DUP1 DUP4 GT PUSH2 0xFD4 JUMPI DUP3 SWAP1 SUB PUSH1 0x1F AND DUP3 ADD SWAP2 JUMPDEST POP POP POP POP POP DUP2 MSTORE PUSH1 0x20 ADD PUSH1 0x9 DUP3 ADD DUP1 SLOAD PUSH2 0x100A SWAP1 PUSH2 0x22F6 JUMP JUMPDEST DUP1 PUSH1 0x1F ADD PUSH1 0x20 DUP1 SWAP2 DIV MUL PUSH1 0x20 ADD PUSH1 0x40 MLOAD SWAP1 DUP2 ADD PUSH1 0x40 MSTORE DUP1 SWAP3 SWAP2 SWAP1 DUP2 DUP2 MSTORE PUSH1 0x20 ADD DUP3 DUP1 SLOAD PUSH2 0x1036 SWAP1 PUSH2 0x22F6 JUMP JUMPDEST DUP1 ISZERO PUSH2 0x1083 JUMPI DUP1 PUSH1 0x1F LT PUSH2 0x1058 JUMPI PUSH2 0x100 DUP1 DUP4 SLOAD DIV MUL DUP4 MSTORE SWAP2 PUSH1 0x20 ADD SWAP2 PUSH2 0x1083 JUMP JUMPDEST DUP3 ADD SWAP2 SWAP1 PUSH1 0x0 MSTORE PUSH1 0x20 PUSH1 0x0 KECCAK256 SWAP1 JUMPDEST DUP2 SLOAD DUP2 MSTORE SWAP1 PUSH1 0x1 ADD SWAP1 PUSH1 0x20 ADD DUP1 DUP4 GT PUSH2 0x1066 JUMPI DUP3 SWAP1 SUB PUSH1 0x1F AND DUP3 ADD SWAP2 JUMPDEST POP POP POP POP POP DUP2 MSTORE POP POP DUP2 MSTORE PUSH1 0x20 ADD SWAP1 PUSH1 0x1 ADD SWAP1 PUSH2 0xAE1 JUMP JUMPDEST POP POP POP POP SWAP1 POP SWAP1 JUMP JUMPDEST PUSH1 0x1 DUP2 DUP2 SLOAD DUP2 LT PUSH2 0x10B4 JUMPI PUSH1 0x0 DUP1 REVERT JUMPDEST SWAP1 PUSH1 0x0 MSTORE PUSH1 0x20 PUSH1 0x0 KECCAK256 SWAP1 PUSH1 0xA MUL ADD PUSH1 0x0 SWAP2 POP SWAP1 POP DUP1 PUSH1 0x0 ADD DUP1 SLOAD PUSH2 0x10D7 SWAP1 PUSH2 0x22F6 JUMP JUMPDEST DUP1 PUSH1 0x1F ADD PUSH1 0x20 DUP1 SWAP2 DIV MUL PUSH1 0x20 ADD PUSH1 0x40 MLOAD SWAP1 DUP2 ADD PUSH1 0x40 MSTORE DUP1 SWAP3 SWAP2 SWAP1 DUP2 DUP2 MSTORE PUSH1 0x20 ADD DUP3 DUP1 SLOAD PUSH2 0x1103 SWAP1 PUSH2 0x22F6 JUMP JUMPDEST DUP1 ISZERO PUSH2 0x1150 JUMPI DUP1 PUSH1 0x1F LT PUSH2 0x1125 JUMPI PUSH2 0x100 DUP1 DUP4 SLOAD DIV MUL DUP4 MSTORE SWAP2 PUSH1 0x20 ADD SWAP2 PUSH2 0x1150 JUMP JUMPDEST DUP3 ADD SWAP2 SWAP1 PUSH1 0x0 MSTORE PUSH1 0x20 PUSH1 0x0 KECCAK256 SWAP1 JUMPDEST DUP2 SLOAD DUP2 MSTORE SWAP1 PUSH1 0x1 ADD SWAP1 PUSH1 0x20 ADD DUP1 DUP4 GT PUSH2 0x1133 JUMPI DUP3 SWAP1 SUB PUSH1 0x1F AND DUP3 ADD SWAP2 JUMPDEST POP POP POP POP POP SWAP1 DUP1 PUSH1 0x3 ADD DUP1 SLOAD PUSH2 0x1165 SWAP1 PUSH2 0x22F6 JUMP JUMPDEST DUP1 PUSH1 0x1F ADD PUSH1 0x20 DUP1 SWAP2 DIV MUL PUSH1 0x20 ADD PUSH1 0x40 MLOAD SWAP1 DUP2 ADD PUSH1 0x40 MSTORE DUP1 SWAP3 SWAP2 SWAP1 DUP2 DUP2 MSTORE PUSH1 0x20 ADD DUP3 DUP1 SLOAD PUSH2 0x1191 SWAP1 PUSH2 0x22F6 JUMP JUMPDEST DUP1 ISZERO PUSH2 0x11DE JUMPI DUP1 PUSH1 0x1F LT PUSH2 0x11B3 JUMPI PUSH2 0x100 DUP1 DUP4 SLOAD DIV MUL DUP4 MSTORE SWAP2 PUSH1 0x20 ADD SWAP2 PUSH2 0x11DE JUMP JUMPDEST DUP3 ADD SWAP2 SWAP1 PUSH1 0x0 MSTORE PUSH1 0x20 PUSH1 0x0 KECCAK256 SWAP1 JUMPDEST DUP2 SLOAD DUP2 MSTORE SWAP1 PUSH1 0x1 ADD SWAP1 PUSH1 0x20 ADD DUP1 DUP4 GT PUSH2 0x11C1 JUMPI DUP3 SWAP1 SUB PUSH1 0x1F AND DUP3 ADD SWAP2 JUMPDEST POP POP POP POP POP SWAP1 DUP1 PUSH1 0x4 ADD DUP1 SLOAD PUSH2 0x11F3 SWAP1 PUSH2 0x22F6 JUMP JUMPDEST DUP1 PUSH1 0x1F ADD PUSH1 0x20 DUP1 SWAP2 DIV MUL PUSH1 0x20 ADD PUSH1 0x40 MLOAD SWAP1 DUP2 ADD PUSH1 0x40 MSTORE DUP1 SWAP3 SWAP2 SWAP1 DUP2 DUP2 MSTORE PUSH1 0x20 ADD DUP3 DUP1 SLOAD PUSH2 0x121F SWAP1 PUSH2 0x22F6 JUMP JUMPDEST DUP1 ISZERO PUSH2 0x126C JUMPI DUP1 PUSH1 0x1F LT PUSH2 0x1241 JUMPI PUSH2 0x100 DUP1 DUP4 SLOAD DIV MUL DUP4 MSTORE SWAP2 PUSH1 0x20 ADD SWAP2 PUSH2 0x126C JUMP JUMPDEST DUP3 ADD SWAP2 SWAP1 PUSH1 0x0 MSTORE PUSH1 0x20 PUSH1 0x0 KECCAK256 SWAP1 JUMPDEST DUP2 SLOAD DUP2 MSTORE SWAP1 PUSH1 0x1 ADD SWAP1 PUSH1 0x20 ADD DUP1 DUP4 GT PUSH2 0x124F JUMPI DUP3 SWAP1 SUB PUSH1 0x1F AND DUP3 ADD SWAP2 JUMPDEST POP POP POP POP POP SWAP1 DUP1 PUSH1 0x6 ADD DUP1 SLOAD PUSH2 0x1281 SWAP1 PUSH2 0x22F6 JUMP JUMPDEST DUP1 PUSH1 0x1F ADD PUSH1 0x20 DUP1 SWAP2 DIV MUL PUSH1 0x20 ADD PUSH1 0x40 MLOAD SWAP1 DUP2 ADD PUSH1 0x40 MSTORE DUP1 SWAP3 SWAP2 SWAP1 DUP2 DUP2 MSTORE PUSH1 0x20 ADD DUP3 DUP1 SLOAD PUSH2 0x12AD SWAP1 PUSH2 0x22F6 JUMP JUMPDEST DUP1 ISZERO PUSH2 0x12FA JUMPI DUP1 PUSH1 0x1F LT PUSH2 0x12CF JUMPI PUSH2 0x100 DUP1 DUP4 SLOAD DIV MUL DUP4 MSTORE SWAP2 PUSH1 0x20 ADD SWAP2 PUSH2 0x12FA JUMP JUMPDEST DUP3 ADD SWAP2 SWAP1 PUSH1 0x0 MSTORE PUSH1 0x20 PUSH1 0x0 KECCAK256 SWAP1 JUMPDEST DUP2 SLOAD DUP2 MSTORE SWAP1 PUSH1 0x1 ADD SWAP1 PUSH1 0x20 ADD DUP1 DUP4 GT PUSH2 0x12DD JUMPI DUP3 SWAP1 SUB PUSH1 0x1F AND DUP3 ADD SWAP2 JUMPDEST POP POP POP POP POP SWAP1 DUP1 PUSH1 0x7 ADD DUP1 SLOAD PUSH2 0x130F SWAP1 PUSH2 0x22F6 JUMP JUMPDEST DUP1 PUSH1 0x1F ADD PUSH1 0x20 DUP1 SWAP2 DIV MUL PUSH1 0x20 ADD PUSH1 0x40 MLOAD SWAP1 DUP2 ADD PUSH1 0x40 MSTORE DUP1 SWAP3 SWAP2 SWAP1 DUP2 DUP2 MSTORE PUSH1 0x20 ADD DUP3 DUP1 SLOAD PUSH2 0x133B SWAP1 PUSH2 0x22F6 JUMP JUMPDEST DUP1 ISZERO PUSH2 0x1388 JUMPI DUP1 PUSH1 0x1F LT PUSH2 0x135D JUMPI PUSH2 0x100 DUP1 DUP4 SLOAD DIV MUL DUP4 MSTORE SWAP2 PUSH1 0x20 ADD SWAP2 PUSH2 0x1388 JUMP JUMPDEST DUP3 ADD SWAP2 SWAP1 PUSH1 0x0 MSTORE PUSH1 0x20 PUSH1 0x0 KECCAK256 SWAP1 JUMPDEST DUP2 SLOAD DUP2 MSTORE SWAP1 PUSH1 0x1 ADD SWAP1 PUSH1 0x20 ADD DUP1 DUP4 GT PUSH2 0x136B JUMPI DUP3 SWAP1 SUB PUSH1 0x1F AND DUP3 ADD SWAP2 JUMPDEST POP POP POP POP POP SWAP1 DUP1 PUSH1 0x8 ADD DUP1 SLOAD PUSH2 0x139D SWAP1 PUSH2 0x22F6 JUMP JUMPDEST DUP1 PUSH1 0x1F ADD PUSH1 0x20 DUP1 SWAP2 DIV MUL PUSH1 0x20 ADD PUSH1 0x40 MLOAD SWAP1 DUP2 ADD PUSH1 0x40 MSTORE DUP1 SWAP3 SWAP2 SWAP1 DUP2 DUP2 MSTORE PUSH1 0x20 ADD DUP3 DUP1 SLOAD PUSH2 0x13C9 SWAP1 PUSH2 0x22F6 JUMP JUMPDEST DUP1 ISZERO PUSH2 0x1416 JUMPI DUP1 PUSH1 0x1F LT PUSH2 0x13EB JUMPI PUSH2 0x100 DUP1 DUP4 SLOAD DIV MUL DUP4 MSTORE SWAP2 PUSH1 0x20 ADD SWAP2 PUSH2 0x1416 JUMP JUMPDEST DUP3 ADD SWAP2 SWAP1 PUSH1 0x0 MSTORE PUSH1 0x20 PUSH1 0x0 KECCAK256 SWAP1 JUMPDEST DUP2 SLOAD DUP2 MSTORE SWAP1 PUSH1 0x1 ADD SWAP1 PUSH1 0x20 ADD DUP1 DUP4 GT PUSH2 0x13F9 JUMPI DUP3 SWAP1 SUB PUSH1 0x1F AND DUP3 ADD SWAP2 JUMPDEST POP POP POP POP POP SWAP1 DUP1 PUSH1 0x9 ADD DUP1 SLOAD PUSH2 0x142B SWAP1 PUSH2 0x22F6 JUMP JUMPDEST DUP1 PUSH1 0x1F ADD PUSH1 0x20 DUP1 SWAP2 DIV MUL PUSH1 0x20 ADD PUSH1 0x40 MLOAD SWAP1 DUP2 ADD PUSH1 0x40 MSTORE DUP1 SWAP3 SWAP2 SWAP1 DUP2 DUP2 MSTORE PUSH1 0x20 ADD DUP3 DUP1 SLOAD PUSH2 0x1457 SWAP1 PUSH2 0x22F6 JUMP JUMPDEST DUP1 ISZERO PUSH2 0x14A4 JUMPI DUP1 PUSH1 0x1F LT PUSH2 0x1479 JUMPI PUSH2 0x100 DUP1 DUP4 SLOAD DIV MUL DUP4 MSTORE SWAP2 PUSH1 0x20 ADD SWAP2 PUSH2 0x14A4 JUMP JUMPDEST DUP3 ADD SWAP2 SWAP1 PUSH1 0x0 MSTORE PUSH1 0x20 PUSH1 0x0 KECCAK256 SWAP1 JUMPDEST DUP2 SLOAD DUP2 MSTORE SWAP1 PUSH1 0x1 ADD SWAP1 PUSH1 0x20 ADD DUP1 DUP4 GT PUSH2 0x1487 JUMPI DUP3 SWAP1 SUB PUSH1 0x1F AND DUP3 ADD SWAP2 JUMPDEST POP POP POP POP POP SWAP1 POP DUP8 JUMP JUMPDEST PUSH1 0x40 MLOAD DUP1 PUSH1 0xA0 ADD PUSH1 0x40 MSTORE DUP1 PUSH1 0x60 DUP2 MSTORE PUSH1 0x20 ADD PUSH1 0x60 DUP2 MSTORE PUSH1 0x20 ADD PUSH1 0x60 DUP2 MSTORE PUSH1 0x20 ADD PUSH1 0x60 DUP2 MSTORE PUSH1 0x20 ADD PUSH1 0x60 DUP2 MSTORE POP SWAP1 JUMP JUMPDEST DUP3 DUP1 SLOAD DUP3 DUP3 SSTORE SWAP1 PUSH1 0x0 MSTORE PUSH1 0x20 PUSH1 0x0 KECCAK256 SWAP1 DUP2 ADD SWAP3 DUP3 ISZERO PUSH2 0x1525 JUMPI SWAP2 PUSH1 0x20 MUL DUP3 ADD JUMPDEST DUP3 DUP2 GT ISZERO PUSH2 0x1524 JUMPI DUP3 MLOAD DUP3 SWAP1 DUP2 PUSH2 0x1514 SWAP2 SWAP1 PUSH2 0x24D3 JUMP JUMPDEST POP SWAP2 PUSH1 0x20 ADD SWAP2 SWAP1 PUSH1 0x1 ADD SWAP1 PUSH2 0x14FD JUMP JUMPDEST JUMPDEST POP SWAP1 POP PUSH2 0x1532 SWAP2 SWAP1 PUSH2 0x1583 JUMP JUMPDEST POP SWAP1 JUMP JUMPDEST DUP3 DUP1 SLOAD DUP3 DUP3 SSTORE SWAP1 PUSH1 0x0 MSTORE PUSH1 0x20 PUSH1 0x0 KECCAK256 SWAP1 DUP2 ADD SWAP3 DUP3 ISZERO PUSH2 0x1572 JUMPI SWAP2 PUSH1 0x20 MUL DUP3 ADD JUMPDEST DUP3 DUP2 GT ISZERO PUSH2 0x1571 JUMPI DUP3 MLOAD DUP3 SSTORE SWAP2 PUSH1 0x20 ADD SWAP2 SWAP1 PUSH1 0x1 ADD SWAP1 PUSH2 0x1556 JUMP JUMPDEST JUMPDEST POP SWAP1 POP PUSH2 0x157F SWAP2 SWAP1 PUSH2 0x15A7 JUMP JUMPDEST POP SWAP1 JUMP JUMPDEST JUMPDEST DUP1 DUP3 GT ISZERO PUSH2 0x15A3 JUMPI PUSH1 0x0 DUP2 DUP2 PUSH2 0x159A SWAP2 SWAP1 PUSH2 0x15C4 JUMP JUMPDEST POP PUSH1 0x1 ADD PUSH2 0x1584 JUMP JUMPDEST POP SWAP1 JUMP JUMPDEST JUMPDEST DUP1 DUP3 GT ISZERO PUSH2 0x15C0 JUMPI PUSH1 0x0 DUP2 PUSH1 0x0 SWAP1 SSTORE POP PUSH1 0x1 ADD PUSH2 0x15A8 JUMP JUMPDEST POP SWAP1 JUMP JUMPDEST POP DUP1 SLOAD PUSH2 0x15D0 SWAP1 PUSH2 0x22F6 JUMP JUMPDEST PUSH1 0x0 DUP3 SSTORE DUP1 PUSH1 0x1F LT PUSH2 0x15E2 JUMPI POP PUSH2 0x1601 JUMP JUMPDEST PUSH1 0x1F ADD PUSH1 0x20 SWAP1 DIV SWAP1 PUSH1 0x0 MSTORE PUSH1 0x20 PUSH1 0x0 KECCAK256 SWAP1 DUP2 ADD SWAP1 PUSH2 0x1600 SWAP2 SWAP1 PUSH2 0x1604 JUMP JUMPDEST JUMPDEST POP JUMP JUMPDEST JUMPDEST DUP1 DUP3 GT ISZERO PUSH2 0x161D JUMPI PUSH1 0x0 DUP2 PUSH1 0x0 SWAP1 SSTORE POP PUSH1 0x1 ADD PUSH2 0x1605 JUMP JUMPDEST POP SWAP1 JUMP JUMPDEST PUSH1 0x0 PUSH1 0x40 MLOAD SWAP1 POP SWAP1 JUMP JUMPDEST PUSH1 0x0 DUP1 REVERT JUMPDEST PUSH1 0x0 DUP1 REVERT JUMPDEST PUSH1 0x0 DUP1 REVERT JUMPDEST PUSH1 0x0 DUP1 REVERT JUMPDEST PUSH1 0x0 PUSH1 0x1F NOT PUSH1 0x1F DUP4 ADD AND SWAP1 POP SWAP2 SWAP1 POP JUMP JUMPDEST PUSH32 0x4E487B7100000000000000000000000000000000000000000000000000000000 PUSH1 0x0 MSTORE PUSH1 0x41 PUSH1 0x4 MSTORE PUSH1 0x24 PUSH1 0x0 REVERT JUMPDEST PUSH2 0x1688 DUP3 PUSH2 0x163F JUMP JUMPDEST DUP2 ADD DUP2 DUP2 LT PUSH8 0xFFFFFFFFFFFFFFFF DUP3 GT OR ISZERO PUSH2 0x16A7 JUMPI PUSH2 0x16A6 PUSH2 0x1650 JUMP JUMPDEST JUMPDEST DUP1 PUSH1 0x40 MSTORE POP POP POP JUMP JUMPDEST PUSH1 0x0 PUSH2 0x16BA PUSH2 0x1621 JUMP JUMPDEST SWAP1 POP PUSH2 0x16C6 DUP3 DUP3 PUSH2 0x167F JUMP JUMPDEST SWAP2 SWAP1 POP JUMP JUMPDEST PUSH1 0x0 PUSH8 0xFFFFFFFFFFFFFFFF DUP3 GT ISZERO PUSH2 0x16E6 JUMPI PUSH2 0x16E5 PUSH2 0x1650 JUMP JUMPDEST JUMPDEST PUSH2 0x16EF DUP3 PUSH2 0x163F JUMP JUMPDEST SWAP1 POP PUSH1 0x20 DUP2 ADD SWAP1 POP SWAP2 SWAP1 POP JUMP JUMPDEST DUP3 DUP2 DUP4 CALLDATACOPY PUSH1 0x0 DUP4 DUP4 ADD MSTORE POP POP POP JUMP JUMPDEST PUSH1 0x0 PUSH2 0x171E PUSH2 0x1719 DUP5 PUSH2 0x16CB JUMP JUMPDEST PUSH2 0x16B0 JUMP JUMPDEST SWAP1 POP DUP3 DUP2 MSTORE PUSH1 0x20 DUP2 ADD DUP5 DUP5 DUP5 ADD GT ISZERO PUSH2 0x173A JUMPI PUSH2 0x1739 PUSH2 0x163A JUMP JUMPDEST JUMPDEST PUSH2 0x1745 DUP5 DUP3 DUP6 PUSH2 0x16FC JUMP JUMPDEST POP SWAP4 SWAP3 POP POP POP JUMP JUMPDEST PUSH1 0x0 DUP3 PUSH1 0x1F DUP4 ADD SLT PUSH2 0x1762 JUMPI PUSH2 0x1761 PUSH2 0x1635 JUMP JUMPDEST JUMPDEST DUP2 CALLDATALOAD PUSH2 0x1772 DUP5 DUP3 PUSH1 0x20 DUP7 ADD PUSH2 0x170B JUMP JUMPDEST SWAP2 POP POP SWAP3 SWAP2 POP POP JUMP JUMPDEST PUSH1 0x0 PUSH8 0xFFFFFFFFFFFFFFFF DUP3 GT ISZERO PUSH2 0x1796 JUMPI PUSH2 0x1795 PUSH2 0x1650 JUMP JUMPDEST JUMPDEST PUSH1 0x20 DUP3 MUL SWAP1 POP PUSH1 0x20 DUP2 ADD SWAP1 POP SWAP2 SWAP1 POP JUMP JUMPDEST PUSH1 0x0 DUP1 REVERT JUMPDEST PUSH1 0x0 PUSH2 0x17BF PUSH2 0x17BA DUP5 PUSH2 0x177B JUMP JUMPDEST PUSH2 0x16B0 JUMP JUMPDEST SWAP1 POP DUP1 DUP4 DUP3 MSTORE PUSH1 0x20 DUP3 ADD SWAP1 POP PUSH1 0x20 DUP5 MUL DUP4 ADD DUP6 DUP2 GT ISZERO PUSH2 0x17E2 JUMPI PUSH2 0x17E1 PUSH2 0x17A7 JUMP JUMPDEST JUMPDEST DUP4 JUMPDEST DUP2 DUP2 LT ISZERO PUSH2 0x1829 JUMPI DUP1 CALLDATALOAD PUSH8 0xFFFFFFFFFFFFFFFF DUP2 GT ISZERO PUSH2 0x1807 JUMPI PUSH2 0x1806 PUSH2 0x1635 JUMP JUMPDEST JUMPDEST DUP1 DUP7 ADD PUSH2 0x1814 DUP10 DUP3 PUSH2 0x174D JUMP JUMPDEST DUP6 MSTORE PUSH1 0x20 DUP6 ADD SWAP5 POP POP POP PUSH1 0x20 DUP2 ADD SWAP1 POP PUSH2 0x17E4 JUMP JUMPDEST POP POP POP SWAP4 SWAP3 POP POP POP JUMP JUMPDEST PUSH1 0x0 DUP3 PUSH1 0x1F DUP4 ADD SLT PUSH2 0x1848 JUMPI PUSH2 0x1847 PUSH2 0x1635 JUMP JUMPDEST JUMPDEST DUP2 CALLDATALOAD PUSH2 0x1858 DUP5 DUP3 PUSH1 0x20 DUP7 ADD PUSH2 0x17AC JUMP JUMPDEST SWAP2 POP POP SWAP3 SWAP2 POP POP JUMP JUMPDEST PUSH1 0x0 PUSH8 0xFFFFFFFFFFFFFFFF DUP3 GT ISZERO PUSH2 0x187C JUMPI PUSH2 0x187B PUSH2 0x1650 JUMP JUMPDEST JUMPDEST PUSH1 0x20 DUP3 MUL SWAP1 POP PUSH1 0x20 DUP2 ADD SWAP1 POP SWAP2 SWAP1 POP JUMP JUMPDEST PUSH1 0x0 DUP2 SWAP1 POP SWAP2 SWAP1 POP JUMP JUMPDEST PUSH2 0x18A0 DUP2 PUSH2 0x188D JUMP JUMPDEST DUP2 EQ PUSH2 0x18AB JUMPI PUSH1 0x0 DUP1 REVERT JUMPDEST POP JUMP JUMPDEST PUSH1 0x0 DUP2 CALLDATALOAD SWAP1 POP PUSH2 0x18BD DUP2 PUSH2 0x1897 JUMP JUMPDEST SWAP3 SWAP2 POP POP JUMP JUMPDEST PUSH1 0x0 PUSH2 0x18D6 PUSH2 0x18D1 DUP5 PUSH2 0x1861 JUMP JUMPDEST PUSH2 0x16B0 JUMP JUMPDEST SWAP1 POP DUP1 DUP4 DUP3 MSTORE PUSH1 0x20 DUP3 ADD SWAP1 POP PUSH1 0x20 DUP5 MUL DUP4 ADD DUP6 DUP2 GT ISZERO PUSH2 0x18F9 JUMPI PUSH2 0x18F8 PUSH2 0x17A7 JUMP JUMPDEST JUMPDEST DUP4 JUMPDEST DUP2 DUP2 LT ISZERO PUSH2 0x1922 JUMPI DUP1 PUSH2 0x190E DUP9 DUP3 PUSH2 0x18AE JUMP JUMPDEST DUP5 MSTORE PUSH1 0x20 DUP5 ADD SWAP4 POP POP PUSH1 0x20 DUP2 ADD SWAP1 POP PUSH2 0x18FB JUMP JUMPDEST POP POP POP SWAP4 SWAP3 POP POP POP JUMP JUMPDEST PUSH1 0x0 DUP3 PUSH1 0x1F DUP4 ADD SLT PUSH2 0x1941 JUMPI PUSH2 0x1940 PUSH2 0x1635 JUMP JUMPDEST JUMPDEST DUP2 CALLDATALOAD PUSH2 0x1951 DUP5 DUP3 PUSH1 0x20 DUP7 ADD PUSH2 0x18C3 JUMP JUMPDEST SWAP2 POP POP SWAP3 SWAP2 POP POP JUMP JUMPDEST PUSH1 0x0 DUP1 PUSH1 0x0 DUP1 PUSH1 0x0 PUSH1 0xA0 DUP7 DUP9 SUB SLT ISZERO PUSH2 0x1976 JUMPI PUSH2 0x1975 PUSH2 0x162B JUMP JUMPDEST JUMPDEST PUSH1 0x0 DUP7 ADD CALLDATALOAD PUSH8 0xFFFFFFFFFFFFFFFF DUP2 GT ISZERO PUSH2 0x1994 JUMPI PUSH2 0x1993 PUSH2 0x1630 JUMP JUMPDEST JUMPDEST PUSH2 0x19A0 DUP9 DUP3 DUP10 ADD PUSH2 0x174D JUMP JUMPDEST SWAP6 POP POP PUSH1 0x20 DUP7 ADD CALLDATALOAD PUSH8 0xFFFFFFFFFFFFFFFF DUP2 GT ISZERO PUSH2 0x19C1 JUMPI PUSH2 0x19C0 PUSH2 0x1630 JUMP JUMPDEST JUMPDEST PUSH2 0x19CD DUP9 DUP3 DUP10 ADD PUSH2 0x1833 JUMP JUMPDEST SWAP5 POP POP PUSH1 0x40 DUP7 ADD CALLDATALOAD PUSH8 0xFFFFFFFFFFFFFFFF DUP2 GT ISZERO PUSH2 0x19EE JUMPI PUSH2 0x19ED PUSH2 0x1630 JUMP JUMPDEST JUMPDEST PUSH2 0x19FA DUP9 DUP3 DUP10 ADD PUSH2 0x192C JUMP JUMPDEST SWAP4 POP POP PUSH1 0x60 DUP7 ADD CALLDATALOAD PUSH8 0xFFFFFFFFFFFFFFFF DUP2 GT ISZERO PUSH2 0x1A1B JUMPI PUSH2 0x1A1A PUSH2 0x1630 JUMP JUMPDEST JUMPDEST PUSH2 0x1A27 DUP9 DUP3 DUP10 ADD PUSH2 0x174D JUMP JUMPDEST SWAP3 POP POP PUSH1 0x80 DUP7 ADD CALLDATALOAD PUSH8 0xFFFFFFFFFFFFFFFF DUP2 GT ISZERO PUSH2 0x1A48 JUMPI PUSH2 0x1A47 PUSH2 0x1630 JUMP JUMPDEST JUMPDEST PUSH2 0x1A54 DUP9 DUP3 DUP10 ADD PUSH2 0x174D JUMP JUMPDEST SWAP2 POP POP SWAP3 SWAP6 POP SWAP3 SWAP6 SWAP1 SWAP4 POP JUMP JUMPDEST PUSH1 0x0 DUP2 SWAP1 POP SWAP2 SWAP1 POP JUMP JUMPDEST PUSH2 0x1A74 DUP2 PUSH2 0x1A61 JUMP JUMPDEST DUP2 EQ PUSH2 0x1A7F JUMPI PUSH1 0x0 DUP1 REVERT JUMPDEST POP JUMP JUMPDEST PUSH1 0x0 DUP2 CALLDATALOAD SWAP1 POP PUSH2 0x1A91 DUP2 PUSH2 0x1A6B JUMP JUMPDEST SWAP3 SWAP2 POP POP JUMP JUMPDEST PUSH1 0x0 DUP1 PUSH1 0x40 DUP4 DUP6 SUB SLT ISZERO PUSH2 0x1AAE JUMPI PUSH2 0x1AAD PUSH2 0x162B JUMP JUMPDEST JUMPDEST PUSH1 0x0 PUSH2 0x1ABC DUP6 DUP3 DUP7 ADD PUSH2 0x1A82 JUMP JUMPDEST SWAP3 POP POP PUSH1 0x20 PUSH2 0x1ACD DUP6 DUP3 DUP7 ADD PUSH2 0x1A82 JUMP JUMPDEST SWAP2 POP POP SWAP3 POP SWAP3 SWAP1 POP JUMP JUMPDEST PUSH1 0x0 DUP2 MLOAD SWAP1 POP SWAP2 SWAP1 POP JUMP JUMPDEST PUSH1 0x0 DUP3 DUP3 MSTORE PUSH1 0x20 DUP3 ADD SWAP1 POP SWAP3 SWAP2 POP POP JUMP JUMPDEST PUSH1 0x0 JUMPDEST DUP4 DUP2 LT ISZERO PUSH2 0x1B11 JUMPI DUP1 DUP3 ADD MLOAD DUP2 DUP5 ADD MSTORE PUSH1 0x20 DUP2 ADD SWAP1 POP PUSH2 0x1AF6 JUMP JUMPDEST PUSH1 0x0 DUP5 DUP5 ADD MSTORE POP POP POP POP JUMP JUMPDEST PUSH1 0x0 PUSH2 0x1B28 DUP3 PUSH2 0x1AD7 JUMP JUMPDEST PUSH2 0x1B32 DUP2 DUP6 PUSH2 0x1AE2 JUMP JUMPDEST SWAP4 POP PUSH2 0x1B42 DUP2 DUP6 PUSH1 0x20 DUP7 ADD PUSH2 0x1AF3 JUMP JUMPDEST PUSH2 0x1B4B DUP2 PUSH2 0x163F JUMP JUMPDEST DUP5 ADD SWAP2 POP POP SWAP3 SWAP2 POP POP JUMP JUMPDEST PUSH1 0x0 PUSH1 0x60 DUP3 ADD SWAP1 POP DUP2 DUP2 SUB PUSH1 0x0 DUP4 ADD MSTORE PUSH2 0x1B70 DUP2 DUP7 PUSH2 0x1B1D JUMP JUMPDEST SWAP1 POP DUP2 DUP2 SUB PUSH1 0x20 DUP4 ADD MSTORE PUSH2 0x1B84 DUP2 DUP6 PUSH2 0x1B1D JUMP JUMPDEST SWAP1 POP DUP2 DUP2 SUB PUSH1 0x40 DUP4 ADD MSTORE PUSH2 0x1B98 DUP2 DUP5 PUSH2 0x1B1D JUMP JUMPDEST SWAP1 POP SWAP5 SWAP4 POP POP POP POP JUMP JUMPDEST PUSH1 0x0 DUP2 MLOAD SWAP1 POP SWAP2 SWAP1 POP JUMP JUMPDEST PUSH1 0x0 DUP3 DUP3 MSTORE PUSH1 0x20 DUP3 ADD SWAP1 POP SWAP3 SWAP2 POP POP JUMP JUMPDEST PUSH1 0x0 DUP2 SWAP1 POP PUSH1 0x20 DUP3 ADD SWAP1 POP SWAP2 SWAP1 POP JUMP JUMPDEST PUSH1 0x0 DUP2 MLOAD SWAP1 POP SWAP2 SWAP1 POP JUMP JUMPDEST PUSH1 0x0 DUP3 DUP3 MSTORE PUSH1 0x20 DUP3 ADD SWAP1 POP SWAP3 SWAP2 POP POP JUMP JUMPDEST PUSH1 0x0 DUP2 SWAP1 POP PUSH1 0x20 DUP3 ADD SWAP1 POP SWAP2 SWAP1 POP JUMP JUMPDEST PUSH1 0x0 DUP3 DUP3 MSTORE PUSH1 0x20 DUP3 ADD SWAP1 POP SWAP3 SWAP2 POP POP JUMP JUMPDEST PUSH1 0x0 PUSH2 0x1C16 DUP3 PUSH2 0x1AD7 JUMP JUMPDEST PUSH2 0x1C20 DUP2 DUP6 PUSH2 0x1BFA JUMP JUMPDEST SWAP4 POP PUSH2 0x1C30 DUP2 DUP6 PUSH1 0x20 DUP7 ADD PUSH2 0x1AF3 JUMP JUMPDEST PUSH2 0x1C39 DUP2 PUSH2 0x163F JUMP JUMPDEST DUP5 ADD SWAP2 POP POP SWAP3 SWAP2 POP POP JUMP JUMPDEST PUSH1 0x0 DUP2 MLOAD SWAP1 POP SWAP2 SWAP1 POP JUMP JUMPDEST PUSH1 0x0 DUP3 DUP3 MSTORE PUSH1 0x20 DUP3 ADD SWAP1 POP SWAP3 SWAP2 POP POP JUMP JUMPDEST PUSH1 0x0 DUP2 SWAP1 POP PUSH1 0x20 DUP3 ADD SWAP1 POP SWAP2 SWAP1 POP JUMP JUMPDEST PUSH1 0x0 PUSH2 0x1C7C DUP4 DUP4 PUSH2 0x1C0B JUMP JUMPDEST SWAP1 POP SWAP3 SWAP2 POP POP JUMP JUMPDEST PUSH1 0x0 PUSH1 0x20 DUP3 ADD SWAP1 POP SWAP2 SWAP1 POP JUMP JUMPDEST PUSH1 0x0 PUSH2 0x1C9C DUP3 PUSH2 0x1C44 JUMP JUMPDEST PUSH2 0x1CA6 DUP2 DUP6 PUSH2 0x1C4F JUMP JUMPDEST SWAP4 POP DUP4 PUSH1 0x20 DUP3 MUL DUP6 ADD PUSH2 0x1CB8 DUP6 PUSH2 0x1C60 JUMP JUMPDEST DUP1 PUSH1 0x0 JUMPDEST DUP6 DUP2 LT ISZERO PUSH2 0x1CF4 JUMPI DUP5 DUP5 SUB DUP10 MSTORE DUP2 MLOAD PUSH2 0x1CD5 DUP6 DUP3 PUSH2 0x1C70 JUMP JUMPDEST SWAP5 POP PUSH2 0x1CE0 DUP4 PUSH2 0x1C84 JUMP JUMPDEST SWAP3 POP PUSH1 0x20 DUP11 ADD SWAP10 POP POP PUSH1 0x1 DUP2 ADD SWAP1 POP PUSH2 0x1CBC JUMP JUMPDEST POP DUP3 SWAP8 POP DUP8 SWAP6 POP POP POP POP POP POP SWAP3 SWAP2 POP POP JUMP JUMPDEST PUSH1 0x0 DUP2 MLOAD SWAP1 POP SWAP2 SWAP1 POP JUMP JUMPDEST PUSH1 0x0 DUP3 DUP3 MSTORE PUSH1 0x20 DUP3 ADD SWAP1 POP SWAP3 SWAP2 POP POP JUMP JUMPDEST PUSH1 0x0 DUP2 SWAP1 POP PUSH1 0x20 DUP3 ADD SWAP1 POP SWAP2 SWAP1 POP JUMP JUMPDEST PUSH2 0x1D3B DUP2 PUSH2 0x188D JUMP JUMPDEST DUP3 MSTORE POP POP JUMP JUMPDEST PUSH1 0x0 PUSH2 0x1D4D DUP4 DUP4 PUSH2 0x1D32 JUMP JUMPDEST PUSH1 0x20 DUP4 ADD SWAP1 POP SWAP3 SWAP2 POP POP JUMP JUMPDEST PUSH1 0x0 PUSH1 0x20 DUP3 ADD SWAP1 POP SWAP2 SWAP1 POP JUMP JUMPDEST PUSH1 0x0 PUSH2 0x1D71 DUP3 PUSH2 0x1D06 JUMP JUMPDEST PUSH2 0x1D7B DUP2 DUP6 PUSH2 0x1D11 JUMP JUMPDEST SWAP4 POP PUSH2 0x1D86 DUP4 PUSH2 0x1D22 JUMP JUMPDEST DUP1 PUSH1 0x0 JUMPDEST DUP4 DUP2 LT ISZERO PUSH2 0x1DB7 JUMPI DUP2 MLOAD PUSH2 0x1D9E DUP9 DUP3 PUSH2 0x1D41 JUMP JUMPDEST SWAP8 POP PUSH2 0x1DA9 DUP4 PUSH2 0x1D59 JUMP JUMPDEST SWAP3 POP POP PUSH1 0x1 DUP2 ADD SWAP1 POP PUSH2 0x1D8A JUMP JUMPDEST POP DUP6 SWAP4 POP POP POP POP SWAP3 SWAP2 POP POP JUMP JUMPDEST PUSH1 0x0 PUSH1 0xA0 DUP4 ADD PUSH1 0x0 DUP4 ADD MLOAD DUP5 DUP3 SUB PUSH1 0x0 DUP7 ADD MSTORE PUSH2 0x1DE1 DUP3 DUP3 PUSH2 0x1C0B JUMP JUMPDEST SWAP2 POP POP PUSH1 0x20 DUP4 ADD MLOAD DUP5 DUP3 SUB PUSH1 0x20 DUP7 ADD MSTORE PUSH2 0x1DFB DUP3 DUP3 PUSH2 0x1C91 JUMP JUMPDEST SWAP2 POP POP PUSH1 0x40 DUP4 ADD MLOAD DUP5 DUP3 SUB PUSH1 0x40 DUP7 ADD MSTORE PUSH2 0x1E15 DUP3 DUP3 PUSH2 0x1D66 JUMP JUMPDEST SWAP2 POP POP PUSH1 0x60 DUP4 ADD MLOAD DUP5 DUP3 SUB PUSH1 0x60 DUP7 ADD MSTORE PUSH2 0x1E2F DUP3 DUP3 PUSH2 0x1C0B JUMP JUMPDEST SWAP2 POP POP PUSH1 0x80 DUP4 ADD MLOAD DUP5 DUP3 SUB PUSH1 0x80 DUP7 ADD MSTORE PUSH2 0x1E49 DUP3 DUP3 PUSH2 0x1C0B JUMP JUMPDEST SWAP2 POP POP DUP1 SWAP2 POP POP SWAP3 SWAP2 POP POP JUMP JUMPDEST PUSH1 0x0 PUSH2 0x1E62 DUP4 DUP4 PUSH2 0x1DC4 JUMP JUMPDEST SWAP1 POP SWAP3 SWAP2 POP POP JUMP JUMPDEST PUSH1 0x0 PUSH1 0x20 DUP3 ADD SWAP1 POP SWAP2 SWAP1 POP JUMP JUMPDEST PUSH1 0x0 PUSH2 0x1E82 DUP3 PUSH2 0x1BCE JUMP JUMPDEST PUSH2 0x1E8C DUP2 DUP6 PUSH2 0x1BD9 JUMP JUMPDEST SWAP4 POP DUP4 PUSH1 0x20 DUP3 MUL DUP6 ADD PUSH2 0x1E9E DUP6 PUSH2 0x1BEA JUMP JUMPDEST DUP1 PUSH1 0x0 JUMPDEST DUP6 DUP2 LT ISZERO PUSH2 0x1EDA JUMPI DUP5 DUP5 SUB DUP10 MSTORE DUP2 MLOAD PUSH2 0x1EBB DUP6 DUP3 PUSH2 0x1E56 JUMP JUMPDEST SWAP5 POP PUSH2 0x1EC6 DUP4 PUSH2 0x1E6A JUMP JUMPDEST SWAP3 POP PUSH1 0x20 DUP11 ADD SWAP10 POP POP PUSH1 0x1 DUP2 ADD SWAP1 POP PUSH2 0x1EA2 JUMP JUMPDEST POP DUP3 SWAP8 POP DUP8 SWAP6 POP POP POP POP POP POP SWAP3 SWAP2 POP POP JUMP JUMPDEST PUSH1 0x0 PUSH2 0x1EF8 DUP4 DUP4 PUSH2 0x1E77 JUMP JUMPDEST SWAP1 POP SWAP3 SWAP2 POP POP JUMP JUMPDEST PUSH1 0x0 PUSH1 0x20 DUP3 ADD SWAP1 POP SWAP2 SWAP1 POP JUMP JUMPDEST PUSH1 0x0 PUSH2 0x1F18 DUP3 PUSH2 0x1BA2 JUMP JUMPDEST PUSH2 0x1F22 DUP2 DUP6 PUSH2 0x1BAD JUMP JUMPDEST SWAP4 POP DUP4 PUSH1 0x20 DUP3 MUL DUP6 ADD PUSH2 0x1F34 DUP6 PUSH2 0x1BBE JUMP JUMPDEST DUP1 PUSH1 0x0 JUMPDEST DUP6 DUP2 LT ISZERO PUSH2 0x1F70 JUMPI DUP5 DUP5 SUB DUP10 MSTORE DUP2 MLOAD PUSH2 0x1F51 DUP6 DUP3 PUSH2 0x1EEC JUMP JUMPDEST SWAP5 POP PUSH2 0x1F5C DUP4 PUSH2 0x1F00 JUMP JUMPDEST SWAP3 POP PUSH1 0x20 DUP11 ADD SWAP10 POP POP PUSH1 0x1 DUP2 ADD SWAP1 POP PUSH2 0x1F38 JUMP JUMPDEST POP DUP3 SWAP8 POP DUP8 SWAP6 POP POP POP POP POP POP SWAP3 SWAP2 POP POP JUMP JUMPDEST PUSH1 0x0 PUSH1 0x20 DUP3 ADD SWAP1 POP DUP2 DUP2 SUB PUSH1 0x0 DUP4 ADD MSTORE PUSH2 0x1F9C DUP2 DUP5 PUSH2 0x1F0D JUMP JUMPDEST SWAP1 POP SWAP3 SWAP2 POP POP JUMP JUMPDEST PUSH2 0x1FAD DUP2 PUSH2 0x1A61 JUMP JUMPDEST DUP3 MSTORE POP POP JUMP JUMPDEST PUSH1 0x0 PUSH1 0x20 DUP3 ADD SWAP1 POP PUSH2 0x1FC8 PUSH1 0x0 DUP4 ADD DUP5 PUSH2 0x1FA4 JUMP JUMPDEST SWAP3 SWAP2 POP POP JUMP JUMPDEST PUSH1 0x0 DUP2 MLOAD SWAP1 POP SWAP2 SWAP1 POP JUMP JUMPDEST PUSH1 0x0 DUP3 DUP3 MSTORE PUSH1 0x20 DUP3 ADD SWAP1 POP SWAP3 SWAP2 POP POP JUMP JUMPDEST PUSH1 0x0 DUP2 SWAP1 POP PUSH1 0x20 DUP3 ADD SWAP1 POP SWAP2 SWAP1 POP JUMP JUMPDEST PUSH1 0x0 PUSH2 0x140 DUP4 ADD PUSH1 0x0 DUP4 ADD MLOAD DUP5 DUP3 SUB PUSH1 0x0 DUP7 ADD MSTORE PUSH2 0x2018 DUP3 DUP3 PUSH2 0x1C0B JUMP JUMPDEST SWAP2 POP POP PUSH1 0x20 DUP4 ADD MLOAD DUP5 DUP3 SUB PUSH1 0x20 DUP7 ADD MSTORE PUSH2 0x2032 DUP3 DUP3 PUSH2 0x1C91 JUMP JUMPDEST SWAP2 POP POP PUSH1 0x40 DUP4 ADD MLOAD DUP5 DUP3 SUB PUSH1 0x40 DUP7 ADD MSTORE PUSH2 0x204C DUP3 DUP3 PUSH2 0x1D66 JUMP JUMPDEST SWAP2 POP POP PUSH1 0x60 DUP4 ADD MLOAD DUP5 DUP3 SUB PUSH1 0x60 DUP7 ADD MSTORE PUSH2 0x2066 DUP3 DUP3 PUSH2 0x1C0B JUMP JUMPDEST SWAP2 POP POP PUSH1 0x80 DUP4 ADD MLOAD DUP5 DUP3 SUB PUSH1 0x80 DUP7 ADD MSTORE PUSH2 0x2080 DUP3 DUP3 PUSH2 0x1C0B JUMP JUMPDEST SWAP2 POP POP PUSH1 0xA0 DUP4 ADD MLOAD DUP5 DUP3 SUB PUSH1 0xA0 DUP7 ADD MSTORE PUSH2 0x209A DUP3 DUP3 PUSH2 0x1D66 JUMP JUMPDEST SWAP2 POP POP PUSH1 0xC0 DUP4 ADD MLOAD DUP5 DUP3 SUB PUSH1 0xC0 DUP7 ADD MSTORE PUSH2 0x20B4 DUP3 DUP3 PUSH2 0x1C0B JUMP JUMPDEST SWAP2 POP POP PUSH1 0xE0 DUP4 ADD MLOAD DUP5 DUP3 SUB PUSH1 0xE0 DUP7 ADD MSTORE PUSH2 0x20CE DUP3 DUP3 PUSH2 0x1C0B JUMP JUMPDEST SWAP2 POP POP PUSH2 0x100 DUP4 ADD MLOAD DUP5 DUP3 SUB PUSH2 0x100 DUP7 ADD MSTORE PUSH2 0x20EA DUP3 DUP3 PUSH2 0x1C0B JUMP JUMPDEST SWAP2 POP POP PUSH2 0x120 DUP4 ADD MLOAD DUP5 DUP3 SUB PUSH2 0x120 DUP7 ADD MSTORE PUSH2 0x2106 DUP3 DUP3 PUSH2 0x1C0B JUMP JUMPDEST SWAP2 POP POP DUP1 SWAP2 POP POP SWAP3 SWAP2 POP POP JUMP JUMPDEST PUSH1 0x0 PUSH2 0x211F DUP4 DUP4 PUSH2 0x1FFA JUMP JUMPDEST SWAP1 POP SWAP3 SWAP2 POP POP JUMP JUMPDEST PUSH1 0x0 PUSH1 0x20 DUP3 ADD SWAP1 POP SWAP2 SWAP1 POP JUMP JUMPDEST PUSH1 0x0 PUSH2 0x213F DUP3 PUSH2 0x1FCE JUMP JUMPDEST PUSH2 0x2149 DUP2 DUP6 PUSH2 0x1FD9 JUMP JUMPDEST SWAP4 POP DUP4 PUSH1 0x20 DUP3 MUL DUP6 ADD PUSH2 0x215B DUP6 PUSH2 0x1FEA JUMP JUMPDEST DUP1 PUSH1 0x0 JUMPDEST DUP6 DUP2 LT ISZERO PUSH2 0x2197 JUMPI DUP5 DUP5 SUB DUP10 MSTORE DUP2 MLOAD PUSH2 0x2178 DUP6 DUP3 PUSH2 0x2113 JUMP JUMPDEST SWAP5 POP PUSH2 0x2183 DUP4 PUSH2 0x2127 JUMP JUMPDEST SWAP3 POP PUSH1 0x20 DUP11 ADD SWAP10 POP POP PUSH1 0x1 DUP2 ADD SWAP1 POP PUSH2 0x215F JUMP JUMPDEST POP DUP3 SWAP8 POP DUP8 SWAP6 POP POP POP POP POP POP SWAP3 SWAP2 POP POP JUMP JUMPDEST PUSH1 0x0 PUSH1 0x20 DUP3 ADD SWAP1 POP DUP2 DUP2 SUB PUSH1 0x0 DUP4 ADD MSTORE PUSH2 0x21C3 DUP2 DUP5 PUSH2 0x2134 JUMP JUMPDEST SWAP1 POP SWAP3 SWAP2 POP POP JUMP JUMPDEST PUSH1 0x0 PUSH1 0x20 DUP3 DUP5 SUB SLT ISZERO PUSH2 0x21E1 JUMPI PUSH2 0x21E0 PUSH2 0x162B JUMP JUMPDEST JUMPDEST PUSH1 0x0 PUSH2 0x21EF DUP5 DUP3 DUP6 ADD PUSH2 0x1A82 JUMP JUMPDEST SWAP2 POP POP SWAP3 SWAP2 POP POP JUMP JUMPDEST PUSH1 0x0 PUSH1 0xE0 DUP3 ADD SWAP1 POP DUP2 DUP2 SUB PUSH1 0x0 DUP4 ADD MSTORE PUSH2 0x2212 DUP2 DUP11 PUSH2 0x1B1D JUMP JUMPDEST SWAP1 POP DUP2 DUP2 SUB PUSH1 0x20 DUP4 ADD MSTORE PUSH2 0x2226 DUP2 DUP10 PUSH2 0x1B1D JUMP JUMPDEST SWAP1 POP DUP2 DUP2 SUB PUSH1 0x40 DUP4 ADD MSTORE PUSH2 0x223A DUP2 DUP9 PUSH2 0x1B1D JUMP JUMPDEST SWAP1 POP DUP2 DUP2 SUB PUSH1 0x60 DUP4 ADD MSTORE PUSH2 0x224E DUP2 DUP8 PUSH2 0x1B1D JUMP JUMPDEST SWAP1 POP DUP2 DUP2 SUB PUSH1 0x80 DUP4 ADD MSTORE PUSH2 0x2262 DUP2 DUP7 PUSH2 0x1B1D JUMP JUMPDEST SWAP1 POP DUP2 DUP2 SUB PUSH1 0xA0 DUP4 ADD MSTORE PUSH2 0x2276 DUP2 DUP6 PUSH2 0x1B1D JUMP JUMPDEST SWAP1 POP DUP2 DUP2 SUB PUSH1 0xC0 DUP4 ADD MSTORE PUSH2 0x228A DUP2 DUP5 PUSH2 0x1B1D JUMP JUMPDEST SWAP1 POP SWAP9 SWAP8 POP POP POP POP POP POP POP POP JUMP JUMPDEST PUSH32 0x4E487B7100000000000000000000000000000000000000000000000000000000 PUSH1 0x0 MSTORE PUSH1 0x32 PUSH1 0x4 MSTORE PUSH1 0x24 PUSH1 0x0 REVERT JUMPDEST PUSH32 0x4E487B7100000000000000000000000000000000000000000000000000000000 PUSH1 0x0 MSTORE PUSH1 0x22 PUSH1 0x4 MSTORE PUSH1 0x24 PUSH1 0x0 REVERT JUMPDEST PUSH1 0x0 PUSH1 0x2 DUP3 DIV SWAP1 POP PUSH1 0x1 DUP3 AND DUP1 PUSH2 0x230E JUMPI PUSH1 0x7F DUP3 AND SWAP2 POP JUMPDEST PUSH1 0x20 DUP3 LT DUP2 SUB PUSH2 0x2321 JUMPI PUSH2 0x2320 PUSH2 0x22C7 JUMP JUMPDEST JUMPDEST POP SWAP2 SWAP1 POP JUMP JUMPDEST PUSH1 0x0 DUP2 SWAP1 POP DUP2 PUSH1 0x0 MSTORE PUSH1 0x20 PUSH1 0x0 KECCAK256 SWAP1 POP SWAP2 SWAP1 POP JUMP JUMPDEST PUSH1 0x0 PUSH1 0x20 PUSH1 0x1F DUP4 ADD DIV SWAP1 POP SWAP2 SWAP1 POP JUMP JUMPDEST PUSH1 0x0 DUP3 DUP3 SHL SWAP1 POP SWAP3 SWAP2 POP POP JUMP JUMPDEST PUSH1 0x0 PUSH1 0x8 DUP4 MUL PUSH2 0x2389 PUSH32 0xFFFFFFFFFFFFFFFFFFFFFFFFFFFFFFFFFFFFFFFFFFFFFFFFFFFFFFFFFFFFFFFF DUP3 PUSH2 0x234C JUMP JUMPDEST PUSH2 0x2393 DUP7 DUP4 PUSH2 0x234C JUMP JUMPDEST SWAP6 POP DUP1 NOT DUP5 AND SWAP4 POP DUP1 DUP7 AND DUP5 OR SWAP3 POP POP POP SWAP4 SWAP3 POP POP POP JUMP JUMPDEST PUSH1 0x0 DUP2 SWAP1 POP SWAP2 SWAP1 POP JUMP JUMPDEST PUSH1 0x0 PUSH2 0x23D0 PUSH2 0x23CB PUSH2 0x23C6 DUP5 PUSH2 0x1A61 JUMP JUMPDEST PUSH2 0x23AB JUMP JUMPDEST PUSH2 0x1A61 JUMP JUMPDEST SWAP1 POP SWAP2 SWAP1 POP JUMP JUMPDEST PUSH1 0x0 DUP2 SWAP1 POP SWAP2 SWAP1 POP JUMP JUMPDEST PUSH2 0x23EA DUP4 PUSH2 0x23B5 JUMP JUMPDEST PUSH2 0x23FE PUSH2 0x23F6 DUP3 PUSH2 0x23D7 JUMP JUMPDEST DUP5 DUP5 SLOAD PUSH2 0x2359 JUMP JUMPDEST DUP3 SSTORE POP POP POP POP JUMP JUMPDEST PUSH1 0x0 SWAP1 JUMP JUMPDEST PUSH2 0x2413 PUSH2 0x2406 JUMP JUMPDEST PUSH2 0x241E DUP2 DUP5 DUP5 PUSH2 0x23E1 JUMP JUMPDEST POP POP POP JUMP JUMPDEST JUMPDEST DUP2 DUP2 LT ISZERO PUSH2 0x2442 JUMPI PUSH2 0x2437 PUSH1 0x0 DUP3 PUSH2 0x240B JUMP JUMPDEST PUSH1 0x1 DUP2 ADD SWAP1 POP PUSH2 0x2424 JUMP JUMPDEST POP POP JUMP JUMPDEST PUSH1 0x1F DUP3 GT ISZERO PUSH2 0x2487 JUMPI PUSH2 0x2458 DUP2 PUSH2 0x2327 JUMP JUMPDEST PUSH2 0x2461 DUP5 PUSH2 0x233C JUMP JUMPDEST DUP2 ADD PUSH1 0x20 DUP6 LT ISZERO PUSH2 0x2470 JUMPI DUP2 SWAP1 POP JUMPDEST PUSH2 0x2484 PUSH2 0x247C DUP6 PUSH2 0x233C JUMP JUMPDEST DUP4 ADD DUP3 PUSH2 0x2423 JUMP JUMPDEST POP POP JUMPDEST POP POP POP JUMP JUMPDEST PUSH1 0x0 DUP3 DUP3 SHR SWAP1 POP SWAP3 SWAP2 POP POP JUMP JUMPDEST PUSH1 0x0 PUSH2 0x24AA PUSH1 0x0 NOT DUP5 PUSH1 0x8 MUL PUSH2 0x248C JUMP JUMPDEST NOT DUP1 DUP4 AND SWAP2 POP POP SWAP3 SWAP2 POP POP JUMP JUMPDEST PUSH1 0x0 PUSH2 0x24C3 DUP4 DUP4 PUSH2 0x2499 JUMP JUMPDEST SWAP2 POP DUP3 PUSH1 0x2 MUL DUP3 OR SWAP1 POP SWAP3 SWAP2 POP POP JUMP JUMPDEST PUSH2 0x24DC DUP3 PUSH2 0x1AD7 JUMP JUMPDEST PUSH8 0xFFFFFFFFFFFFFFFF DUP2 GT ISZERO PUSH2 0x24F5 JUMPI PUSH2 0x24F4 PUSH2 0x1650 JUMP JUMPDEST JUMPDEST PUSH2 0x24FF DUP3 SLOAD PUSH2 0x22F6 JUMP JUMPDEST PUSH2 0x250A DUP3 DUP3 DUP6 PUSH2 0x2446 JUMP JUMPDEST PUSH1 0x0 PUSH1 0x20 SWAP1 POP PUSH1 0x1F DUP4 GT PUSH1 0x1 DUP2 EQ PUSH2 0x253D JUMPI PUSH1 0x0 DUP5 ISZERO PUSH2 0x252B JUMPI DUP3 DUP8 ADD MLOAD SWAP1 POP JUMPDEST PUSH2 0x2535 DUP6 DUP3 PUSH2 0x24B7 JUMP JUMPDEST DUP7 SSTORE POP PUSH2 0x259D JUMP JUMPDEST PUSH1 0x1F NOT DUP5 AND PUSH2 0x254B DUP7 PUSH2 0x2327 JUMP JUMPDEST PUSH1 0x0 JUMPDEST DUP3 DUP2 LT ISZERO PUSH2 0x2573 JUMPI DUP5 DUP10 ADD MLOAD DUP3 SSTORE PUSH1 0x1 DUP3 ADD SWAP2 POP PUSH1 0x20 DUP6 ADD SWAP5 POP PUSH1 0x20 DUP2 ADD SWAP1 POP PUSH2 0x254E JUMP JUMPDEST DUP7 DUP4 LT ISZERO PUSH2 0x2590 JUMPI DUP5 DUP10 ADD MLOAD PUSH2 0x258C PUSH1 0x1F DUP10 AND DUP3 PUSH2 0x2499 JUMP JUMPDEST DUP4 SSTORE POP JUMPDEST PUSH1 0x1 PUSH1 0x2 DUP9 MUL ADD DUP9 SSTORE POP POP POP JUMPDEST POP POP POP POP POP POP JUMP JUMPDEST PUSH1 0x0 DUP2 SWAP1 POP SWAP3 SWAP2 POP POP JUMP JUMPDEST PUSH1 0x0 PUSH2 0x25BB DUP3 PUSH2 0x1AD7 JUMP JUMPDEST PUSH2 0x25C5 DUP2 DUP6 PUSH2 0x25A5 JUMP JUMPDEST SWAP4 POP PUSH2 0x25D5 DUP2 DUP6 PUSH1 0x20 DUP7 ADD PUSH2 0x1AF3 JUMP JUMPDEST DUP1 DUP5 ADD SWAP2 POP POP SWAP3 SWAP2 POP POP JUMP JUMPDEST PUSH1 0x0 PUSH2 0x25ED DUP3 DUP5 PUSH2 0x25B0 JUMP JUMPDEST SWAP2 POP DUP2 SWAP1 POP SWAP3 SWAP2 POP POP JUMP JUMPDEST PUSH1 0x0 DUP2 SLOAD PUSH2 0x2605 DUP2 PUSH2 0x22F6 JUMP JUMPDEST PUSH2 0x260F DUP2 DUP7 PUSH2 0x25A5 JUMP JUMPDEST SWAP5 POP PUSH1 0x1 DUP3 AND PUSH1 0x0 DUP2 EQ PUSH2 0x262A JUMPI PUSH1 0x1 DUP2 EQ PUSH2 0x263F JUMPI PUSH2 0x2672 JUMP JUMPDEST PUSH1 0xFF NOT DUP4 AND DUP7 MSTORE DUP2 ISZERO ISZERO DUP3 MUL DUP7 ADD SWAP4 POP PUSH2 0x2672 JUMP JUMPDEST PUSH2 0x2648 DUP6 PUSH2 0x2327 JUMP JUMPDEST PUSH1 0x0 JUMPDEST DUP4 DUP2 LT ISZERO PUSH2 0x266A JUMPI DUP2 SLOAD DUP2 DUP10 ADD MSTORE PUSH1 0x1 DUP3 ADD SWAP2 POP PUSH1 0x20 DUP2 ADD SWAP1 POP PUSH2 0x264B JUMP JUMPDEST DUP4 DUP9 ADD SWAP6 POP POP POP JUMPDEST POP POP POP SWAP3 SWAP2 POP POP JUMP JUMPDEST PUSH1 0x0 PUSH2 0x2687 DUP3 DUP5 PUSH2 0x25F8 JUMP JUMPDEST SWAP2 POP DUP2 SWAP1 POP SWAP3 SWAP2 POP POP JUMP JUMPDEST PUSH32 0x4E487B7100000000000000000000000000000000000000000000000000000000 PUSH1 0x0 MSTORE PUSH1 0x11 PUSH1 0x4 MSTORE PUSH1 0x24 PUSH1 0x0 REVERT JUMPDEST PUSH1 0x0 PUSH2 0x26CC DUP3 PUSH2 0x1A61 JUMP JUMPDEST SWAP2 POP PUSH32 0xFFFFFFFFFFFFFFFFFFFFFFFFFFFFFFFFFFFFFFFFFFFFFFFFFFFFFFFFFFFFFFFF DUP3 SUB PUSH2 0x26FE JUMPI PUSH2 0x26FD PUSH2 0x2692 JUMP JUMPDEST JUMPDEST PUSH1 0x1 DUP3 ADD SWAP1 POP SWAP2 SWAP1 POP JUMP INVALID LOG2 PUSH5 0x6970667358 0x22 SLT KECCAK256 LOG1 0x49 PUSH9 0xDF1C2CFEB8D9E738F 0xA8 PUSH17 0xBB52FD2E356D58EF0BE9B3BDB019C2A7F6 0xF8 PUSH5 0x736F6C6343 STOP ADDMOD SLT STOP CALLER "
				},
				"gasEstimates": {
					"creation": {
						"codeDepositCost": "2009400",
						"executionCost": "7133",
						"totalCost": "2016533"
					},
					"external": {
						"arr(uint256,uint256)": "infinite",
						"arr2(uint256)": "infinite",
						"getMyStructs()": "infinite",
						"getquotes()": "infinite",
						"len()": "2489",
						"push_element(string,string[],int256[],string,string)": "infinite"
					}
				},
				"methodIdentifiers": {
					"arr(uint256,uint256)": "45d0695f",
					"arr2(uint256)": "edf0099b",
					"getMyStructs()": "4d395307",
					"getquotes()": "e56fe289",
					"len()": "56d88e27",
					"push_element(string,string[],int256[],string,string)": "2be725ad"
				}
			},
			"storageLayout": {
				"storage": [
					{
						"astId": 43,
						"contract": "assignments/mul.sol:vender1",
						"label": "arr",
						"offset": 0,
						"slot": "0",
						"type": "t_array(t_array(t_struct(l1)14_storage)dyn_storage)dyn_storage"
					},
					{
						"astId": 47,
						"contract": "assignments/mul.sol:vender1",
						"label": "arr2",
						"offset": 0,
						"slot": "1",
						"type": "t_array(t_struct(l2)38_storage)dyn_storage"
					},
					{
						"astId": 50,
						"contract": "assignments/mul.sol:vender1",
						"label": "i",
						"offset": 0,
						"slot": "2",
						"type": "t_uint256"
					}
				],
				"types": {
					"t_array(t_array(t_struct(l1)14_storage)dyn_storage)dyn_storage": {
						"base": "t_array(t_struct(l1)14_storage)dyn_storage",
						"encoding": "dynamic_array",
						"label": "struct vender1.l1[][]",
						"numberOfBytes": "32"
					},
					"t_array(t_int256)dyn_storage": {
						"base": "t_int256",
						"encoding": "dynamic_array",
						"label": "int256[]",
						"numberOfBytes": "32"
					},
					"t_array(t_string_storage)dyn_storage": {
						"base": "t_string_storage",
						"encoding": "dynamic_array",
						"label": "string[]",
						"numberOfBytes": "32"
					},
					"t_array(t_struct(l1)14_storage)dyn_storage": {
						"base": "t_struct(l1)14_storage",
						"encoding": "dynamic_array",
						"label": "struct vender1.l1[]",
						"numberOfBytes": "32"
					},
					"t_array(t_struct(l2)38_storage)dyn_storage": {
						"base": "t_struct(l2)38_storage",
						"encoding": "dynamic_array",
						"label": "struct vender1.l2[]",
						"numberOfBytes": "32"
					},
					"t_int256": {
						"encoding": "inplace",
						"label": "int256",
						"numberOfBytes": "32"
					},
					"t_string_storage": {
						"encoding": "bytes",
						"label": "string",
						"numberOfBytes": "32"
					},
					"t_struct(l1)14_storage": {
						"encoding": "inplace",
						"label": "struct vender1.l1",
						"members": [
							{
								"astId": 3,
								"contract": "assignments/mul.sol:vender1",
								"label": "user_id",
								"offset": 0,
								"slot": "0",
								"type": "t_string_storage"
							},
							{
								"astId": 6,
								"contract": "assignments/mul.sol:vender1",
								"label": "prod",
								"offset": 0,
								"slot": "1",
								"type": "t_array(t_string_storage)dyn_storage"
							},
							{
								"astId": 9,
								"contract": "assignments/mul.sol:vender1",
								"label": "quantity",
								"offset": 0,
								"slot": "2",
								"type": "t_array(t_int256)dyn_storage"
							},
							{
								"astId": 11,
								"contract": "assignments/mul.sol:vender1",
								"label": "date",
								"offset": 0,
								"slot": "3",
								"type": "t_string_storage"
							},
							{
								"astId": 13,
								"contract": "assignments/mul.sol:vender1",
								"label": "status",
								"offset": 0,
								"slot": "4",
								"type": "t_string_storage"
							}
						],
						"numberOfBytes": "160"
					},
					"t_struct(l2)38_storage": {
						"encoding": "inplace",
						"label": "struct vender1.l2",
						"members": [
							{
								"astId": 16,
								"contract": "assignments/mul.sol:vender1",
								"label": "user_id",
								"offset": 0,
								"slot": "0",
								"type": "t_string_storage"
							},
							{
								"astId": 19,
								"contract": "assignments/mul.sol:vender1",
								"label": "prod",
								"offset": 0,
								"slot": "1",
								"type": "t_array(t_string_storage)dyn_storage"
							},
							{
								"astId": 22,
								"contract": "assignments/mul.sol:vender1",
								"label": "quantity",
								"offset": 0,
								"slot": "2",
								"type": "t_array(t_int256)dyn_storage"
							},
							{
								"astId": 24,
								"contract": "assignments/mul.sol:vender1",
								"label": "date",
								"offset": 0,
								"slot": "3",
								"type": "t_string_storage"
							},
							{
								"astId": 26,
								"contract": "assignments/mul.sol:vender1",
								"label": "ven_id",
								"offset": 0,
								"slot": "4",
								"type": "t_string_storage"
							},
							{
								"astId": 29,
								"contract": "assignments/mul.sol:vender1",
								"label": "price",
								"offset": 0,
								"slot": "5",
								"type": "t_array(t_int256)dyn_storage"
							},
							{
								"astId": 31,
								"contract": "assignments/mul.sol:vender1",
								"label": "ED",
								"offset": 0,
								"slot": "6",
								"type": "t_string_storage"
							},
							{
								"astId": 33,
								"contract": "assignments/mul.sol:vender1",
								"label": "id",
								"offset": 0,
								"slot": "7",
								"type": "t_string_storage"
							},
							{
								"astId": 35,
								"contract": "assignments/mul.sol:vender1",
								"label": "status",
								"offset": 0,
								"slot": "8",
								"type": "t_string_storage"
							},
							{
								"astId": 37,
								"contract": "assignments/mul.sol:vender1",
								"label": "trans",
								"offset": 0,
								"slot": "9",
								"type": "t_string_storage"
							}
						],
						"numberOfBytes": "320"
					},
					"t_uint256": {
						"encoding": "inplace",
						"label": "uint256",
						"numberOfBytes": "32"
					}
				}
			},
			"userdoc": {
				"kind": "user",
				"methods": {},
				"version": 1
			}
		}
	}
}